{
  "address": "0x54B6f9F0E8C99825f372D82A1138f130ef5e50a9",
  "abi": [
    {
      "inputs": [],
      "stateMutability": "nonpayable",
      "type": "constructor"
    },
    {
      "anonymous": false,
      "inputs": [
        {
          "indexed": false,
          "internalType": "uint16",
          "name": "dstChainId",
          "type": "uint16"
        },
        {
          "indexed": false,
          "internalType": "uint16",
          "name": "_outboundProofType",
          "type": "uint16"
        },
        {
          "indexed": false,
          "internalType": "uint256",
          "name": "blockConfirmations",
          "type": "uint256"
        }
      ],
      "name": "OracleNotified",
      "type": "event"
    },
    {
      "anonymous": false,
      "inputs": [
        {
          "indexed": true,
          "internalType": "address",
          "name": "previousOwner",
          "type": "address"
        },
        {
          "indexed": true,
          "internalType": "address",
          "name": "newOwner",
          "type": "address"
        }
      ],
      "name": "OwnershipTransferred",
      "type": "event"
    },
    {
      "anonymous": false,
      "inputs": [
        {
          "indexed": false,
          "internalType": "address",
          "name": "to",
          "type": "address"
        },
        {
          "indexed": false,
          "internalType": "uint256",
          "name": "amount",
          "type": "uint256"
        }
      ],
      "name": "Withdraw",
      "type": "event"
    },
    {
      "stateMutability": "payable",
      "type": "fallback"
    },
    {
      "inputs": [
        {
          "internalType": "address",
          "name": "",
          "type": "address"
        }
      ],
      "name": "approvedAddresses",
      "outputs": [
        {
          "internalType": "bool",
          "name": "",
          "type": "bool"
        }
      ],
      "stateMutability": "view",
      "type": "function"
    },
    {
      "inputs": [
        {
          "internalType": "uint16",
          "name": "_dstChainId",
          "type": "uint16"
        },
        {
          "internalType": "uint16",
          "name": "_outboundProofType",
          "type": "uint16"
        },
        {
          "internalType": "uint64",
          "name": "_outboundBlockConfirmation",
          "type": "uint64"
        },
        {
          "internalType": "address",
          "name": "",
          "type": "address"
        }
      ],
      "name": "assignJob",
      "outputs": [
        {
          "internalType": "uint256",
          "name": "price",
          "type": "uint256"
        }
      ],
      "stateMutability": "nonpayable",
      "type": "function"
    },
    {
      "inputs": [
        {
          "internalType": "uint16",
          "name": "",
          "type": "uint16"
        },
        {
          "internalType": "uint16",
          "name": "",
          "type": "uint16"
        }
      ],
      "name": "chainPriceLookup",
      "outputs": [
        {
          "internalType": "uint256",
          "name": "",
          "type": "uint256"
        }
      ],
      "stateMutability": "view",
      "type": "function"
    },
    {
      "inputs": [],
      "name": "fee",
      "outputs": [
        {
          "internalType": "uint256",
          "name": "",
          "type": "uint256"
        }
      ],
      "stateMutability": "view",
      "type": "function"
    },
    {
      "inputs": [
        {
          "internalType": "uint16",
          "name": "_dstChainId",
          "type": "uint16"
        },
        {
          "internalType": "uint16",
          "name": "_outboundProofType",
          "type": "uint16"
        },
        {
          "internalType": "uint64",
          "name": "",
          "type": "uint64"
        },
        {
          "internalType": "address",
          "name": "",
          "type": "address"
        }
      ],
      "name": "getFee",
      "outputs": [
        {
          "internalType": "uint256",
          "name": "",
          "type": "uint256"
        }
      ],
      "stateMutability": "view",
      "type": "function"
    },
    {
      "inputs": [
        {
          "internalType": "address",
          "name": "_relayerAddress",
          "type": "address"
        }
      ],
      "name": "isApproved",
      "outputs": [
        {
          "internalType": "bool",
          "name": "",
          "type": "bool"
        }
      ],
      "stateMutability": "view",
      "type": "function"
    },
    {
      "inputs": [
        {
          "internalType": "uint16",
          "name": "",
          "type": "uint16"
        },
        {
          "internalType": "uint16",
          "name": "",
          "type": "uint16"
        }
      ],
      "name": "jobs",
      "outputs": [
        {
          "internalType": "uint64",
          "name": "",
          "type": "uint64"
        }
      ],
      "stateMutability": "view",
      "type": "function"
    },
    {
      "inputs": [],
      "name": "owner",
      "outputs": [
        {
          "internalType": "address",
          "name": "",
          "type": "address"
        }
      ],
      "stateMutability": "view",
      "type": "function"
    },
    {
      "inputs": [],
      "name": "renounceOwnership",
      "outputs": [],
      "stateMutability": "nonpayable",
      "type": "function"
    },
    {
      "inputs": [
        {
          "internalType": "address",
          "name": "_oracleAddress",
          "type": "address"
        },
        {
          "internalType": "bool",
          "name": "_approve",
          "type": "bool"
        }
      ],
      "name": "setApprovedAddress",
      "outputs": [],
      "stateMutability": "nonpayable",
      "type": "function"
    },
    {
      "inputs": [
        {
          "internalType": "uint16",
          "name": "_dstChainId",
          "type": "uint16"
        },
        {
          "internalType": "address",
          "name": "_deliveryAddress",
          "type": "address"
        }
      ],
      "name": "setDeliveryAddress",
      "outputs": [],
      "stateMutability": "nonpayable",
      "type": "function"
    },
    {
      "inputs": [
        {
          "internalType": "uint16",
          "name": "_destinationChainId",
          "type": "uint16"
        },
        {
          "internalType": "uint16",
          "name": "_outboundProofType",
          "type": "uint16"
        },
        {
          "internalType": "uint256",
          "name": "_price",
          "type": "uint256"
        }
      ],
      "name": "setPrice",
      "outputs": [],
      "stateMutability": "nonpayable",
      "type": "function"
    },
    {
      "inputs": [
        {
          "internalType": "address",
          "name": "ulnAddress",
          "type": "address"
        }
      ],
      "name": "setUln",
      "outputs": [],
      "stateMutability": "nonpayable",
      "type": "function"
    },
    {
      "inputs": [
        {
          "internalType": "address",
          "name": "newOwner",
          "type": "address"
        }
      ],
      "name": "transferOwnership",
      "outputs": [],
      "stateMutability": "nonpayable",
      "type": "function"
    },
    {
      "inputs": [],
      "name": "uln",
      "outputs": [
        {
          "internalType": "contract ILayerZeroUltraLightNodeV2",
          "name": "",
          "type": "address"
        }
      ],
      "stateMutability": "view",
      "type": "function"
    },
    {
      "inputs": [
        {
          "internalType": "uint16",
          "name": "_remoteChainId",
          "type": "uint16"
        },
        {
          "internalType": "bytes32",
          "name": "_blockHash",
          "type": "bytes32"
        },
        {
          "internalType": "uint256",
          "name": "_confirmations",
          "type": "uint256"
        },
        {
          "internalType": "bytes32",
          "name": "_data",
          "type": "bytes32"
        }
      ],
      "name": "updateHash",
      "outputs": [],
      "stateMutability": "nonpayable",
      "type": "function"
    },
    {
      "inputs": [
        {
          "internalType": "address payable",
          "name": "_to",
          "type": "address"
        },
        {
          "internalType": "uint256",
          "name": "_amount",
          "type": "uint256"
        }
      ],
      "name": "withdrawFee",
      "outputs": [],
      "stateMutability": "nonpayable",
      "type": "function"
    },
    {
      "stateMutability": "payable",
      "type": "receive"
    }
  ],
  "transactionHash": "0x10348e911c3a2e173c1eb3af6d88dec6b8142a4c07041c66c5fe447ab298c5cd",
  "args": [],
  "numDeployments": 1,
  "solcInputHash": "6f06e3209ee8689a407cf69d89ff23fe",
  "bytecode": "0x608060405234801561001057600080fd5b50600061001b610089565b600080546001600160a01b0319166001600160a01b0383169081178255604051929350917f8be0079c531659141344cd1fd0a4f28419497f9722a3daafe3b4186f6b6457e0908290a3506001808055336000908152600260205260409020805460ff1916909117905561008d565b3390565b61101a8061009c6000396000f3fe6080604052600436106101125760003560e01c8063bccc96d5116100a5578063d5ad9faa11610074578063f136a87411610059578063f136a874146104a1578063f2fde38b146104e1578063fd9be5221461052157610119565b8063d5ad9faa14610439578063ddca3f431461048c57610119565b8063bccc96d514610320578063c5e193cd1461035e578063c758b017146103c3578063cd84b89d146103f957610119565b80636c473aff116100e15780636c473aff14610278578063704316e5146102b6578063715018a6146102f65780638da5cb5b1461030b57610119565b80632ca4a5b01461011b5780635553fb8e14610165578063575765e2146101dc578063673448dd1461022457610119565b3661011957005b005b34801561012757600080fd5b506101196004803603604081101561013e57600080fd5b50803561ffff16906020013573ffffffffffffffffffffffffffffffffffffffff16610567565b34801561017157600080fd5b506101ca6004803603608081101561018857600080fd5b50803561ffff90811691602081013590911690604081013567ffffffffffffffff16906060013573ffffffffffffffffffffffffffffffffffffffff16610613565b60408051918252519081900360200190f35b3480156101e857600080fd5b50610119600480360360408110156101ff57600080fd5b5073ffffffffffffffffffffffffffffffffffffffff8135169060200135151561063c565b34801561023057600080fd5b506102646004803603602081101561024757600080fd5b503573ffffffffffffffffffffffffffffffffffffffff16610692565b604080519115158252519081900360200190f35b34801561028457600080fd5b5061028d6106bd565b6040805173ffffffffffffffffffffffffffffffffffffffff9092168252519081900360200190f35b3480156102c257600080fd5b50610119600480360360808110156102d957600080fd5b5061ffff81351690602081013590604081013590606001356106d9565b34801561030257600080fd5b506101196107ea565b34801561031757600080fd5b5061028d610901565b34801561032c57600080fd5b506101196004803603606081101561034357600080fd5b5061ffff81358116916020810135909116906040013561091d565b34801561036a57600080fd5b506101ca6004803603608081101561038157600080fd5b50803561ffff90811691602081013590911690604081013567ffffffffffffffff16906060013573ffffffffffffffffffffffffffffffffffffffff166109eb565b3480156103cf57600080fd5b506101ca600480360360408110156103e657600080fd5b5061ffff81358116916020013516610a59565b34801561040557600080fd5b506101196004803603602081101561041c57600080fd5b503573ffffffffffffffffffffffffffffffffffffffff16610a76565b34801561044557600080fd5b5061046f6004803603604081101561045c57600080fd5b5061ffff81358116916020013516610b65565b6040805167ffffffffffffffff9092168252519081900360200190f35b34801561049857600080fd5b506101ca610b8c565b3480156104ad57600080fd5b50610264600480360360208110156104c457600080fd5b503573ffffffffffffffffffffffffffffffffffffffff16610b92565b3480156104ed57600080fd5b506101196004803603602081101561050457600080fd5b503573ffffffffffffffffffffffffffffffffffffffff16610ba7565b34801561052d57600080fd5b506101196004803603604081101561054457600080fd5b5073ffffffffffffffffffffffffffffffffffffffff8135169060200135610d48565b61056f610f8e565b73ffffffffffffffffffffffffffffffffffffffff1661058d610901565b73ffffffffffffffffffffffffffffffffffffffff161461060f57604080517f08c379a000000000000000000000000000000000000000000000000000000000815260206004820181905260248201527f4f776e61626c653a2063616c6c6572206973206e6f7420746865206f776e6572604482015290519081900360640190fd5b5050565b61ffff808416600090815260036020908152604080832093881683529290522054949350505050565b73ffffffffffffffffffffffffffffffffffffffff91909116600090815260026020526040902080547fffffffffffffffffffffffffffffffffffffffffffffffffffffffffffffff0016911515919091179055565b73ffffffffffffffffffffffffffffffffffffffff1660009081526002602052604090205460ff1690565b60065473ffffffffffffffffffffffffffffffffffffffff1681565b3360009081526002602052604090205460ff16610741576040517f08c379a000000000000000000000000000000000000000000000000000000000815260040180806020018281038252602c815260200180610fb9602c913960400191505060405180910390fd5b600654604080517f704316e500000000000000000000000000000000000000000000000000000000815261ffff87166004820152602481018690526044810185905260648101849052905173ffffffffffffffffffffffffffffffffffffffff9092169163704316e59160848082019260009290919082900301818387803b1580156107cc57600080fd5b505af11580156107e0573d6000803e3d6000fd5b5050505050505050565b6107f2610f8e565b73ffffffffffffffffffffffffffffffffffffffff16610810610901565b73ffffffffffffffffffffffffffffffffffffffff161461089257604080517f08c379a000000000000000000000000000000000000000000000000000000000815260206004820181905260248201527f4f776e61626c653a2063616c6c6572206973206e6f7420746865206f776e6572604482015290519081900360640190fd5b6000805460405173ffffffffffffffffffffffffffffffffffffffff909116907f8be0079c531659141344cd1fd0a4f28419497f9722a3daafe3b4186f6b6457e0908390a3600080547fffffffffffffffffffffffff0000000000000000000000000000000000000000169055565b60005473ffffffffffffffffffffffffffffffffffffffff1690565b610925610f8e565b73ffffffffffffffffffffffffffffffffffffffff16610943610901565b73ffffffffffffffffffffffffffffffffffffffff16146109c557604080517f08c379a000000000000000000000000000000000000000000000000000000000815260206004820181905260248201527f4f776e61626c653a2063616c6c6572206973206e6f7420746865206f776e6572604482015290519081900360640190fd5b61ffff918216600090815260036020908152604080832095909416825293909352912055565b61ffff80851660008181526004602090815260408083209488168352938152838220805467ffffffffffffffff88167fffffffffffffffffffffffffffffffffffffffffffffffff000000000000000090911617905560038152838220928252919091522054949350505050565b600360209081526000928352604080842090915290825290205481565b610a7e610f8e565b73ffffffffffffffffffffffffffffffffffffffff16610a9c610901565b73ffffffffffffffffffffffffffffffffffffffff1614610b1e57604080517f08c379a000000000000000000000000000000000000000000000000000000000815260206004820181905260248201527f4f776e61626c653a2063616c6c6572206973206e6f7420746865206f776e6572604482015290519081900360640190fd5b600680547fffffffffffffffffffffffff00000000000000000000000000000000000000001673ffffffffffffffffffffffffffffffffffffffff92909216919091179055565b600460209081526000928352604080842090915290825290205467ffffffffffffffff1681565b60055481565b60026020526000908152604090205460ff1681565b610baf610f8e565b73ffffffffffffffffffffffffffffffffffffffff16610bcd610901565b73ffffffffffffffffffffffffffffffffffffffff1614610c4f57604080517f08c379a000000000000000000000000000000000000000000000000000000000815260206004820181905260248201527f4f776e61626c653a2063616c6c6572206973206e6f7420746865206f776e6572604482015290519081900360640190fd5b73ffffffffffffffffffffffffffffffffffffffff8116610cbb576040517f08c379a0000000000000000000000000000000000000000000000000000000008152600401808060200182810382526026815260200180610f936026913960400191505060405180910390fd5b6000805460405173ffffffffffffffffffffffffffffffffffffffff808516939216917f8be0079c531659141344cd1fd0a4f28419497f9722a3daafe3b4186f6b6457e091a3600080547fffffffffffffffffffffffff00000000000000000000000000000000000000001673ffffffffffffffffffffffffffffffffffffffff92909216919091179055565b610d50610f8e565b73ffffffffffffffffffffffffffffffffffffffff16610d6e610901565b73ffffffffffffffffffffffffffffffffffffffff1614610df057604080517f08c379a000000000000000000000000000000000000000000000000000000000815260206004820181905260248201527f4f776e61626c653a2063616c6c6572206973206e6f7420746865206f776e6572604482015290519081900360640190fd5b60026001541415610e6257604080517f08c379a000000000000000000000000000000000000000000000000000000000815260206004820152601f60248201527f5265656e7472616e637947756172643a207265656e7472616e742063616c6c00604482015290519081900360640190fd5b600260015560405160009073ffffffffffffffffffffffffffffffffffffffff84169083908381818185875af1925050503d8060008114610ebf576040519150601f19603f3d011682016040523d82523d6000602084013e610ec4565b606091505b5050905080610f3457604080517f08c379a000000000000000000000000000000000000000000000000000000000815260206004820152601260248201527f6661696c656420746f2077697468647261770000000000000000000000000000604482015290519081900360640190fd5b6040805173ffffffffffffffffffffffffffffffffffffffff851681526020810184905281517f884edad9ce6fa2440d8a54cc123490eb96d2768479d49ff9c7366125a9424364929181900390910190a150506001805550565b339056fe4f776e61626c653a206e6577206f776e657220697320746865207a65726f20616464726573734c617965725a65726f4f7261636c654d6f636b3a2063616c6c6572206d75737420626520617070726f766564a264697066735822122077da9d7ec1c59dfe70626fdf7541d7c841e0c8d3f9430f86ccaca5abcadaa37e64736f6c63430007060033",
  "devdoc": {
    "kind": "dev",
    "methods": {
      "owner()": {
        "details": "Returns the address of the current owner."
      },
      "renounceOwnership()": {
        "details": "Leaves the contract without owner. It will not be possible to call `onlyOwner` functions anymore. Can only be called by the current owner. NOTE: Renouncing ownership will leave the contract without an owner, thereby removing any functionality that is only available to the owner."
      },
      "transferOwnership(address)": {
        "details": "Transfers ownership of the contract to a new account (`newOwner`). Can only be called by the current owner."
      }
    },
    "version": 1
  },
  "userdoc": {
    "kind": "user",
    "methods": {},
    "version": 1
  },
  "storageLayout": {
    "storage": [
      {
        "astId": 2484,
        "contract": "contracts/mocks/LayerZeroOracleMockV2.sol:LayerZeroOracleMockV2",
        "label": "_owner",
        "offset": 0,
        "slot": "0",
        "type": "t_address"
      },
      {
        "astId": 4065,
        "contract": "contracts/mocks/LayerZeroOracleMockV2.sol:LayerZeroOracleMockV2",
        "label": "_status",
        "offset": 0,
        "slot": "1",
        "type": "t_uint256"
      },
      {
        "astId": 14143,
        "contract": "contracts/mocks/LayerZeroOracleMockV2.sol:LayerZeroOracleMockV2",
        "label": "approvedAddresses",
        "offset": 0,
        "slot": "2",
        "type": "t_mapping(t_address,t_bool)"
      },
      {
        "astId": 14149,
        "contract": "contracts/mocks/LayerZeroOracleMockV2.sol:LayerZeroOracleMockV2",
        "label": "chainPriceLookup",
        "offset": 0,
        "slot": "3",
        "type": "t_mapping(t_uint16,t_mapping(t_uint16,t_uint256))"
      },
      {
        "astId": 14155,
        "contract": "contracts/mocks/LayerZeroOracleMockV2.sol:LayerZeroOracleMockV2",
        "label": "jobs",
        "offset": 0,
        "slot": "4",
        "type": "t_mapping(t_uint16,t_mapping(t_uint16,t_uint64))"
      },
      {
        "astId": 14157,
        "contract": "contracts/mocks/LayerZeroOracleMockV2.sol:LayerZeroOracleMockV2",
        "label": "fee",
        "offset": 0,
        "slot": "5",
        "type": "t_uint256"
      },
      {
        "astId": 14159,
        "contract": "contracts/mocks/LayerZeroOracleMockV2.sol:LayerZeroOracleMockV2",
        "label": "uln",
        "offset": 0,
        "slot": "6",
        "type": "t_contract(ILayerZeroUltraLightNodeV2)13294"
      }
    ],
    "types": {
      "t_address": {
        "encoding": "inplace",
        "label": "address",
        "numberOfBytes": "20"
      },
      "t_bool": {
        "encoding": "inplace",
        "label": "bool",
        "numberOfBytes": "1"
      },
      "t_contract(ILayerZeroUltraLightNodeV2)13294": {
        "encoding": "inplace",
        "label": "contract ILayerZeroUltraLightNodeV2",
        "numberOfBytes": "20"
      },
      "t_mapping(t_address,t_bool)": {
        "encoding": "mapping",
        "key": "t_address",
        "label": "mapping(address => bool)",
        "numberOfBytes": "32",
        "value": "t_bool"
      },
      "t_mapping(t_uint16,t_mapping(t_uint16,t_uint256))": {
        "encoding": "mapping",
        "key": "t_uint16",
        "label": "mapping(uint16 => mapping(uint16 => uint256))",
        "numberOfBytes": "32",
        "value": "t_mapping(t_uint16,t_uint256)"
      },
      "t_mapping(t_uint16,t_mapping(t_uint16,t_uint64))": {
        "encoding": "mapping",
        "key": "t_uint16",
        "label": "mapping(uint16 => mapping(uint16 => uint64))",
        "numberOfBytes": "32",
        "value": "t_mapping(t_uint16,t_uint64)"
      },
      "t_mapping(t_uint16,t_uint256)": {
        "encoding": "mapping",
        "key": "t_uint16",
        "label": "mapping(uint16 => uint256)",
        "numberOfBytes": "32",
        "value": "t_uint256"
      },
      "t_mapping(t_uint16,t_uint64)": {
        "encoding": "mapping",
        "key": "t_uint16",
        "label": "mapping(uint16 => uint64)",
        "numberOfBytes": "32",
        "value": "t_uint64"
      },
      "t_uint16": {
        "encoding": "inplace",
        "label": "uint16",
        "numberOfBytes": "2"
      },
      "t_uint256": {
        "encoding": "inplace",
        "label": "uint256",
        "numberOfBytes": "32"
      },
      "t_uint64": {
        "encoding": "inplace",
        "label": "uint64",
        "numberOfBytes": "8"
      }
    }
  }
}