{
  "address": "0x145C041566B21Bec558B2A37F1a5Ff261aB55998",
  "abi": [
    {
      "anonymous": false,
      "inputs": [
        {
          "indexed": false,
          "internalType": "address",
          "name": "addr",
          "type": "address"
        },
        {
          "indexed": false,
          "internalType": "bool",
          "name": "approved",
          "type": "bool"
        }
      ],
      "name": "ApproveAddress",
      "type": "event"
    },
    {
      "anonymous": false,
      "inputs": [
        {
          "indexed": false,
          "internalType": "uint256",
          "name": "totalFee",
          "type": "uint256"
        }
      ],
      "name": "AssignJob",
      "type": "event"
    },
    {
      "anonymous": false,
      "inputs": [
        {
          "indexed": true,
          "internalType": "address",
          "name": "previousOwner",
          "type": "address"
        },
        {
          "indexed": true,
          "internalType": "address",
          "name": "newOwner",
          "type": "address"
        }
      ],
      "name": "OwnershipTransferred",
      "type": "event"
    },
    {
      "anonymous": false,
      "inputs": [
        {
          "indexed": false,
          "internalType": "uint16",
          "name": "chainId",
          "type": "uint16"
        },
        {
          "indexed": false,
          "internalType": "uint16",
          "name": "outboundProofType",
          "type": "uint16"
        },
        {
          "indexed": false,
          "internalType": "uint128",
          "name": "dstNativeAmtCap",
          "type": "uint128"
        },
        {
          "indexed": false,
          "internalType": "uint64",
          "name": "baseGas",
          "type": "uint64"
        },
        {
          "indexed": false,
          "internalType": "uint64",
          "name": "gasPerByte",
          "type": "uint64"
        }
      ],
      "name": "SetDstConfig",
      "type": "event"
    },
    {
      "anonymous": false,
      "inputs": [
        {
          "indexed": false,
          "internalType": "uint16",
          "name": "chainId",
          "type": "uint16"
        },
        {
          "indexed": false,
          "internalType": "uint128",
          "name": "dstPriceRatio",
          "type": "uint128"
        },
        {
          "indexed": false,
          "internalType": "uint128",
          "name": "dstGasPriceInWei",
          "type": "uint128"
        }
      ],
      "name": "SetDstPrice",
      "type": "event"
    },
    {
      "anonymous": false,
      "inputs": [
        {
          "indexed": false,
          "internalType": "address",
          "name": "priceConfigUpdater",
          "type": "address"
        },
        {
          "indexed": false,
          "internalType": "bool",
          "name": "allow",
          "type": "bool"
        }
      ],
      "name": "SetPriceConfigUpdater",
      "type": "event"
    },
    {
      "anonymous": false,
      "inputs": [
        {
          "indexed": true,
          "internalType": "address",
          "name": "to",
          "type": "address"
        },
        {
          "indexed": true,
          "internalType": "uint256",
          "name": "quantity",
          "type": "uint256"
        }
      ],
      "name": "ValueTransferFailed",
      "type": "event"
    },
    {
      "anonymous": false,
      "inputs": [
        {
          "indexed": false,
          "internalType": "address",
          "name": "to",
          "type": "address"
        },
        {
          "indexed": false,
          "internalType": "uint256",
          "name": "amount",
          "type": "uint256"
        }
      ],
      "name": "Withdraw",
      "type": "event"
    },
    {
      "inputs": [
        {
          "internalType": "address",
          "name": "",
          "type": "address"
        }
      ],
      "name": "approvedAddresses",
      "outputs": [
        {
          "internalType": "bool",
          "name": "",
          "type": "bool"
        }
      ],
      "stateMutability": "view",
      "type": "function"
    },
    {
      "inputs": [
        {
          "internalType": "uint16",
          "name": "_dstChainId",
          "type": "uint16"
        },
        {
          "internalType": "uint16",
          "name": "_outboundProofType",
          "type": "uint16"
        },
        {
          "internalType": "address",
          "name": "_userApplication",
          "type": "address"
        },
        {
          "internalType": "uint256",
          "name": "_payloadSize",
          "type": "uint256"
        },
        {
          "internalType": "bytes",
          "name": "_adapterParams",
          "type": "bytes"
        }
      ],
      "name": "assignJob",
      "outputs": [
        {
          "internalType": "uint256",
          "name": "",
          "type": "uint256"
        }
      ],
      "stateMutability": "nonpayable",
      "type": "function"
    },
    {
      "inputs": [
        {
          "internalType": "uint16",
          "name": "",
          "type": "uint16"
        },
        {
          "internalType": "uint16",
          "name": "",
          "type": "uint16"
        }
      ],
      "name": "dstConfigLookup",
      "outputs": [
        {
          "internalType": "uint128",
          "name": "dstNativeAmtCap",
          "type": "uint128"
        },
        {
          "internalType": "uint64",
          "name": "baseGas",
          "type": "uint64"
        },
        {
          "internalType": "uint64",
          "name": "gasPerByte",
          "type": "uint64"
        }
      ],
      "stateMutability": "view",
      "type": "function"
    },
    {
      "inputs": [
        {
          "internalType": "uint16",
          "name": "",
          "type": "uint16"
        }
      ],
      "name": "dstFloorMarginsUSD",
      "outputs": [
        {
          "internalType": "uint128",
          "name": "",
          "type": "uint128"
        }
      ],
      "stateMutability": "view",
      "type": "function"
    },
    {
      "inputs": [
        {
          "internalType": "uint16",
          "name": "",
          "type": "uint16"
        }
      ],
      "name": "dstMultipliers",
      "outputs": [
        {
          "internalType": "uint128",
          "name": "",
          "type": "uint128"
        }
      ],
      "stateMutability": "view",
      "type": "function"
    },
    {
      "inputs": [
        {
          "internalType": "uint16",
          "name": "_dstChainId",
          "type": "uint16"
        }
      ],
      "name": "dstPriceLookup",
      "outputs": [
        {
          "components": [
            {
              "internalType": "uint128",
              "name": "dstPriceRatio",
              "type": "uint128"
            },
            {
              "internalType": "uint128",
              "name": "dstGasPriceInWei",
              "type": "uint128"
            }
          ],
          "internalType": "struct RelayerV2.DstPrice",
          "name": "",
          "type": "tuple"
        }
      ],
      "stateMutability": "view",
      "type": "function"
    },
    {
      "inputs": [
        {
          "internalType": "uint16",
          "name": "",
          "type": "uint16"
        }
      ],
      "name": "dstPriceLookupOld",
      "outputs": [
        {
          "internalType": "uint128",
          "name": "dstPriceRatio",
          "type": "uint128"
        },
        {
          "internalType": "uint128",
          "name": "dstGasPriceInWei",
          "type": "uint128"
        }
      ],
      "stateMutability": "view",
      "type": "function"
    },
    {
      "inputs": [],
      "name": "fpBytes",
      "outputs": [
        {
          "internalType": "uint16",
          "name": "",
          "type": "uint16"
        }
      ],
      "stateMutability": "view",
      "type": "function"
    },
    {
      "inputs": [
        {
          "internalType": "uint16",
          "name": "_dstChainId",
          "type": "uint16"
        },
        {
          "internalType": "uint16",
          "name": "_outboundProofType",
          "type": "uint16"
        },
        {
          "internalType": "address",
          "name": "_userApplication",
          "type": "address"
        },
        {
          "internalType": "uint256",
          "name": "_payloadSize",
          "type": "uint256"
        },
        {
          "internalType": "bytes",
          "name": "_adapterParams",
          "type": "bytes"
        }
      ],
      "name": "getFee",
      "outputs": [
        {
          "internalType": "uint256",
          "name": "",
          "type": "uint256"
        }
      ],
      "stateMutability": "view",
      "type": "function"
    },
    {
      "inputs": [
        {
          "internalType": "address",
          "name": "_uln",
          "type": "address"
        },
        {
          "internalType": "address",
          "name": "_priceFeed",
          "type": "address"
        }
      ],
      "name": "initialize",
      "outputs": [],
      "stateMutability": "nonpayable",
      "type": "function"
    },
    {
      "inputs": [
        {
          "internalType": "address",
          "name": "_relayerAddress",
          "type": "address"
        }
      ],
      "name": "isApproved",
      "outputs": [
        {
          "internalType": "bool",
          "name": "",
          "type": "bool"
        }
      ],
      "stateMutability": "view",
      "type": "function"
    },
    {
      "inputs": [],
      "name": "mptOverhead",
      "outputs": [
        {
          "internalType": "uint16",
          "name": "",
          "type": "uint16"
        }
      ],
      "stateMutability": "view",
      "type": "function"
    },
    {
      "inputs": [],
      "name": "multiplierBps",
      "outputs": [
        {
          "internalType": "uint128",
          "name": "",
          "type": "uint128"
        }
      ],
      "stateMutability": "view",
      "type": "function"
    },
    {
      "inputs": [
        {
          "internalType": "address",
          "name": "_priceFeed",
          "type": "address"
        }
      ],
      "name": "onUpgrade",
      "outputs": [],
      "stateMutability": "nonpayable",
      "type": "function"
    },
    {
      "inputs": [],
      "name": "owner",
      "outputs": [
        {
          "internalType": "address",
          "name": "",
          "type": "address"
        }
      ],
      "stateMutability": "view",
      "type": "function"
    },
    {
      "inputs": [],
      "name": "paused",
      "outputs": [
        {
          "internalType": "bool",
          "name": "",
          "type": "bool"
        }
      ],
      "stateMutability": "view",
      "type": "function"
    },
    {
      "inputs": [
        {
          "internalType": "address",
          "name": "",
          "type": "address"
        }
      ],
      "name": "priceConfigUpdaters",
      "outputs": [
        {
          "internalType": "bool",
          "name": "",
          "type": "bool"
        }
      ],
      "stateMutability": "view",
      "type": "function"
    },
    {
      "inputs": [],
      "name": "priceFeed",
      "outputs": [
        {
          "internalType": "contract ILayerZeroPriceFeed",
          "name": "",
          "type": "address"
        }
      ],
      "stateMutability": "view",
      "type": "function"
    },
    {
      "inputs": [],
      "name": "renounceOwnership",
      "outputs": [],
      "stateMutability": "nonpayable",
      "type": "function"
    },
    {
      "inputs": [
        {
          "internalType": "address",
          "name": "_relayerAddress",
          "type": "address"
        },
        {
          "internalType": "bool",
          "name": "_approve",
          "type": "bool"
        }
      ],
      "name": "setApprovedAddress",
      "outputs": [],
      "stateMutability": "nonpayable",
      "type": "function"
    },
    {
      "inputs": [
        {
          "internalType": "uint16",
          "name": "_chainId",
          "type": "uint16"
        },
        {
          "internalType": "uint16",
          "name": "_outboundProofType",
          "type": "uint16"
        },
        {
          "internalType": "uint128",
          "name": "_dstNativeAmtCap",
          "type": "uint128"
        },
        {
          "internalType": "uint64",
          "name": "_baseGas",
          "type": "uint64"
        },
        {
          "internalType": "uint64",
          "name": "_gasPerByte",
          "type": "uint64"
        }
      ],
      "name": "setDstConfig",
      "outputs": [],
      "stateMutability": "nonpayable",
      "type": "function"
    },
    {
      "inputs": [
        {
          "components": [
            {
              "internalType": "uint16",
              "name": "chainId",
              "type": "uint16"
            },
            {
              "internalType": "uint128",
              "name": "floorMargin",
              "type": "uint128"
            }
          ],
          "internalType": "struct RelayerV2.DstFloorMargin[]",
          "name": "_margins",
          "type": "tuple[]"
        }
      ],
      "name": "setDstFloorMarginsUSD",
      "outputs": [],
      "stateMutability": "nonpayable",
      "type": "function"
    },
    {
      "inputs": [
        {
          "internalType": "uint16",
          "name": "_chainId",
          "type": "uint16"
        },
        {
          "internalType": "uint128",
          "name": "_dstPriceRatio",
          "type": "uint128"
        },
        {
          "internalType": "uint128",
          "name": "_dstGasPriceInWei",
          "type": "uint128"
        }
      ],
      "name": "setDstPrice",
      "outputs": [],
      "stateMutability": "nonpayable",
      "type": "function"
    },
    {
      "inputs": [
        {
          "components": [
            {
              "internalType": "uint16",
              "name": "chainId",
              "type": "uint16"
            },
            {
              "internalType": "uint128",
              "name": "multiplier",
              "type": "uint128"
            }
          ],
          "internalType": "struct RelayerV2.DstMultiplier[]",
          "name": "_multipliers",
          "type": "tuple[]"
        }
      ],
      "name": "setDstPriceMultipliers",
      "outputs": [],
      "stateMutability": "nonpayable",
      "type": "function"
    },
    {
      "inputs": [
        {
          "internalType": "bool",
          "name": "_paused",
          "type": "bool"
        }
      ],
      "name": "setPause",
      "outputs": [],
      "stateMutability": "nonpayable",
      "type": "function"
    },
    {
      "inputs": [
        {
          "internalType": "address",
          "name": "_priceConfigUpdater",
          "type": "address"
        },
        {
          "internalType": "bool",
          "name": "_allow",
          "type": "bool"
        }
      ],
      "name": "setPriceConfigUpdater",
      "outputs": [],
      "stateMutability": "nonpayable",
      "type": "function"
    },
    {
      "inputs": [
        {
          "internalType": "address",
          "name": "_priceFeed",
          "type": "address"
        }
      ],
      "name": "setPriceFeed",
      "outputs": [],
      "stateMutability": "nonpayable",
      "type": "function"
    },
    {
      "inputs": [
        {
          "internalType": "uint128",
          "name": "_multiplierBps",
          "type": "uint128"
        }
      ],
      "name": "setPriceMultiplierBps",
      "outputs": [],
      "stateMutability": "nonpayable",
      "type": "function"
    },
    {
      "inputs": [
        {
          "internalType": "address",
          "name": "_stargateAddress",
          "type": "address"
        }
      ],
      "name": "setStargateAddress",
      "outputs": [],
      "stateMutability": "nonpayable",
      "type": "function"
    },
    {
      "inputs": [],
      "name": "stargateBridgeAddress",
      "outputs": [
        {
          "internalType": "address",
          "name": "",
          "type": "address"
        }
      ],
      "stateMutability": "view",
      "type": "function"
    },
    {
      "inputs": [
        {
          "internalType": "address",
          "name": "newOwner",
          "type": "address"
        }
      ],
      "name": "transferOwnership",
      "outputs": [],
      "stateMutability": "nonpayable",
      "type": "function"
    },
    {
      "inputs": [],
      "name": "uln",
      "outputs": [
        {
          "internalType": "contract ILayerZeroUltraLightNodeV2",
          "name": "",
          "type": "address"
        }
      ],
      "stateMutability": "view",
      "type": "function"
    },
    {
      "inputs": [],
      "name": "validateProofBytes",
      "outputs": [
        {
          "internalType": "uint16",
          "name": "",
          "type": "uint16"
        }
      ],
      "stateMutability": "view",
      "type": "function"
    },
    {
      "inputs": [
        {
          "internalType": "uint16",
          "name": "_srcChainId",
          "type": "uint16"
        },
        {
          "internalType": "address",
          "name": "_dstAddress",
          "type": "address"
        },
        {
          "internalType": "uint256",
          "name": "_gasLimit",
          "type": "uint256"
        },
        {
          "internalType": "bytes32",
          "name": "_blockHash",
          "type": "bytes32"
        },
        {
          "internalType": "bytes32",
          "name": "_data",
          "type": "bytes32"
        },
        {
          "internalType": "bytes",
          "name": "_transactionProof",
          "type": "bytes"
        }
      ],
      "name": "validateTransactionProofV1",
      "outputs": [],
      "stateMutability": "nonpayable",
      "type": "function"
    },
    {
      "inputs": [
        {
          "internalType": "uint16",
          "name": "_srcChainId",
          "type": "uint16"
        },
        {
          "internalType": "address",
          "name": "_dstAddress",
          "type": "address"
        },
        {
          "internalType": "uint256",
          "name": "_gasLimit",
          "type": "uint256"
        },
        {
          "internalType": "bytes32",
          "name": "_blockHash",
          "type": "bytes32"
        },
        {
          "internalType": "bytes32",
          "name": "_data",
          "type": "bytes32"
        },
        {
          "internalType": "bytes",
          "name": "_transactionProof",
          "type": "bytes"
        },
        {
          "internalType": "address payable",
          "name": "_to",
          "type": "address"
        }
      ],
      "name": "validateTransactionProofV2",
      "outputs": [],
      "stateMutability": "payable",
      "type": "function"
    },
    {
      "inputs": [
        {
          "internalType": "address payable",
          "name": "_to",
          "type": "address"
        },
        {
          "internalType": "uint256",
          "name": "_amount",
          "type": "uint256"
        }
      ],
      "name": "withdrawFee",
      "outputs": [],
      "stateMutability": "nonpayable",
      "type": "function"
    },
    {
      "inputs": [
        {
          "internalType": "address",
          "name": "_token",
          "type": "address"
        },
        {
          "internalType": "address",
          "name": "_to",
          "type": "address"
        },
        {
          "internalType": "uint256",
          "name": "_amount",
          "type": "uint256"
        }
      ],
      "name": "withdrawToken",
      "outputs": [],
      "stateMutability": "nonpayable",
      "type": "function"
    }
  ],
  "transactionHash": "0x4344d5e843a5daab4371a2c5f97a3d69df14a02a05bb9b89adf22dcefdbf2ad0",
  "args": [],
  "numDeployments": 1,
  "solcInputHash": "a2843b8df13e498a9443a167db46d2a3",
  "bytecode": "0x608060405234801561001057600080fd5b506001600055612f67806100256000396000f3fe60806040526004361061021a5760003560e01c8063741bef1a11610123578063b8f8bad4116100ab578063d5f8b0141161006f578063d5f8b0141461061a578063f136a8741461063a578063f2fde38b1461065a578063fa34c84e1461067a578063fd9be5221461069a5761021a565b8063b8f8bad41461057a578063bedb86fb1461059a578063bf4dab51146105ba578063c03f1529146105da578063c3b04e7f146105fa5761021a565b80638576db67116100f25780638576db67146104ed5780638644c5781461050d5780638da5cb5b1461053b57806398dabd5014610550578063ac353e04146105655761021a565b8063741bef1a14610476578063765a8a541461048b578063801db1fe146104b857806381ba209a146104d85761021a565b8063575765e2116101a6578063673448dd11610175578063673448dd146103ea57806369cf4e3a1461040a5780636c473aff1461042c578063715018a614610441578063724e78da146104565761021a565b8063575765e2146103595780635886ea65146103795780635c975abb146103a65780636348d269146103c85761021a565b8063252f7b01116101ed578063252f7b01146102ac5780633f103487146102cc578063485cc955146102ec5780634eeba2501461030c57806355b35249146103395761021a565b806301e336671461021f57806303343f54146102415780630508941e1461026157806323161ff814610274575b600080fd5b34801561022b57600080fd5b5061023f61023a366004612612565b6106ba565b005b34801561024d57600080fd5b5061023f61025c366004612593565b6107ba565b61023f61026f366004612827565b610818565b34801561028057600080fd5b5061029461028f366004612904565b6109cd565b6040516102a393929190612d2d565b60405180910390f35b3480156102b857600080fd5b5061023f6102c73660046127a5565b610a10565b3480156102d857600080fd5b5061023f6102e73660046129ac565b610b25565b3480156102f857600080fd5b5061023f6103073660046125da565b610c59565b34801561031857600080fd5b5061032c61032736600461278b565b610de8565b6040516102a39190612cff565b34801561034557600080fd5b5061032c61035436600461278b565b610e03565b34801561036557600080fd5b5061023f610374366004612652565b610e1e565b34801561038557600080fd5b5061039961039436600461292d565b610ef4565b6040516102a39190612e23565b3480156103b257600080fd5b506103bb610fcc565b6040516102a39190612a9f565b3480156103d457600080fd5b506103dd610fd5565b6040516102a39190612a57565b3480156103f657600080fd5b506103bb610405366004612593565b610fe4565b34801561041657600080fd5b5061041f611006565b6040516102a39190612d58565b34801561043857600080fd5b506103dd611017565b34801561044d57600080fd5b5061023f611026565b34801561046257600080fd5b5061023f610471366004612593565b6110e4565b34801561048257600080fd5b506103dd611148565b34801561049757600080fd5b506104ab6104a636600461278b565b61115c565b6040516102a39190612cdc565b3480156104c457600080fd5b5061023f6104d3366004612652565b61121f565b3480156104e457600080fd5b5061041f6112e9565b3480156104f957600080fd5b506103bb610508366004612593565b6112fa565b34801561051957600080fd5b5061052d61052836600461278b565b61130f565b6040516102a3929190612d13565b34801561054757600080fd5b506103dd611335565b34801561055c57600080fd5b5061041f611344565b34801561057157600080fd5b5061032c611355565b34801561058657600080fd5b5061023f6105953660046128bc565b611364565b3480156105a657600080fd5b5061023f6105b53660046126c6565b6113a5565b3480156105c657600080fd5b5061023f6105d5366004612686565b61142c565b3480156105e657600080fd5b506103996105f536600461292d565b61150f565b34801561060657600080fd5b5061023f610615366004612753565b611581565b34801561062657600080fd5b5061023f610635366004612686565b6115df565b34801561064657600080fd5b506103bb610655366004612593565b6116c2565b34801561066657600080fd5b5061023f610675366004612593565b6116d7565b34801561068657600080fd5b5061023f610695366004612593565b6117ec565b3480156106a657600080fd5b5061023f6106b53660046125af565b6118b9565b336106c3611335565b6001600160a01b0316146106ff576106da33610fe4565b6106ff5760405162461bcd60e51b81526004016106f690612aaa565b60405180910390fd5b6040516370a0823160e01b81526000906001600160a01b038516906370a082319061072e903090600401612a57565b60206040518083038186803b15801561074657600080fd5b505afa15801561075a573d6000803e3d6000fd5b505050506040513d601f19601f8201168201806040525081019061077e9190612a18565b9050808211156107a05760405162461bcd60e51b81526004016106f690612bca565b6107b46001600160a01b0385168484611a01565b50505050565b336107c3611335565b6001600160a01b0316146107f6576107da33610fe4565b6107f65760405162461bcd60e51b81526004016106f690612aaa565b606780546001600160a01b0319166001600160a01b0392909216919091179055565b33610821611335565b6001600160a01b0316146108545761083833610fe4565b6108545760405162461bcd60e51b81526004016106f690612aaa565b600260005414156108ac576040805162461bcd60e51b815260206004820152601f60248201527f5265656e7472616e637947756172643a207265656e7472616e742063616c6c00604482015290519081900360640190fd5b60026000819055506000816001600160a01b0316346040516108cd90612a54565b60006040518083038185875af1925050503d806000811461090a576040519150601f19603f3d011682016040523d82523d6000602084013e61090f565b606091505b505090508061094f5760405134906001600160a01b038416907f2c7a964ca3de5ec1d42d9822f9bbd0eb142a59cc9f855e9d93813b773192c7a390600090a35b60665460405163987fa2d560e01b81526001600160a01b039091169063987fa2d59061098b908c908c908c908c908c908c908c90600401612d67565b600060405180830381600087803b1580156109a557600080fd5b505af11580156109b9573d6000803e3d6000fd5b505060016000555050505050505050505050565b60696020908152600092835260408084209091529082529020546001600160801b0381169067ffffffffffffffff600160801b8204811691600160c01b90041683565b33610a19611335565b6001600160a01b031614610a4c57610a3033610fe4565b610a4c5760405162461bcd60e51b81526004016106f690612aaa565b60026000541415610aa4576040805162461bcd60e51b815260206004820152601f60248201527f5265656e7472616e637947756172643a207265656e7472616e742063616c6c00604482015290519081900360640190fd5b600260005560665460405163987fa2d560e01b81526001600160a01b039091169063987fa2d590610ae5908a908a908a908a908a908a908a90600401612d67565b600060405180830381600087803b158015610aff57600080fd5b505af1158015610b13573d6000803e3d6000fd5b50506001600055505050505050505050565b33610b2e611335565b6001600160a01b031614610b6157610b4533610fe4565b610b615760405162461bcd60e51b81526004016106f690612aaa565b604080516060810182526001600160801b03858116825267ffffffffffffffff858116602080850191825286831685870190815261ffff8c8116600090815260698452888120918d16815292529086902094518554925191516001600160801b031990931694169390931767ffffffffffffffff60801b1916600160801b938316939093029290921777ffffffffffffffffffffffffffffffffffffffffffffffff16600160c01b9290911691909102179055517fd053e021dda81c7c2794ff89e320caea5379962d49ed383a3bd0a54ffc4b932f90610c4a9087908790879087908790612dc6565b60405180910390a15050505050565b6000610c63611a68565b90506001600160a01b038116610ca2576001600160a01b037fb53127684a568b3173ae13b9f8a6016e243e63b6e8ee1178d6a717850b5d610355610cb7565b336001600160a01b03821614610cb757600080fd5b600154610100900460ff1680610cd05750610cd0611a8d565b80610cde575060015460ff16155b610d195760405162461bcd60e51b815260040180806020018281038252602e815260200180612eb9602e913960400191505060405180910390fd5b600154610100900460ff16158015610d43576001805460ff1961ff00199091166101001716811790555b610d4b611a9e565b606680546001600160a01b0319166001600160a01b038616179055610d71306001610e1e565b606c8054606b8054610100600160a81b0319166101006001600160a01b03881602179055612ee06001600160801b03199091161761ffff60801b1916602960821b1761ffff60901b1916600560951b1761ffff60a01b1916607d60a21b17905580156107b4576001805461ff001916905550505050565b606d602052600090815260409020546001600160801b031681565b606e602052600090815260409020546001600160801b031681565b610e26611b4f565b6001600160a01b0316610e37611335565b6001600160a01b031614610e92576040805162461bcd60e51b815260206004820181905260248201527f4f776e61626c653a2063616c6c6572206973206e6f7420746865206f776e6572604482015290519081900360640190fd5b6001600160a01b0382166000908152606a602052604090819020805460ff1916831515179055517fb10786d0bfa68fb1aa29552d9203e5f545f7c073ff0784da1de1d800986f102390610ee89084908490612a84565b60405180910390a15050565b6066546000906001600160a01b03163314610f215760405162461bcd60e51b81526004016106f690612c10565b612710841115610f435760405162461bcd60e51b81526004016106f690612ae1565b6000610f888888888888888080601f016020809104026020016040519081016040528093929190818152602001838380828437600092019190915250611b5392505050565b90507fdf21c415b78ed2552cc9971249e32a053abce6087a0ae0fbf3f78db5174a349381604051610fb99190612e23565b60405180910390a1979650505050505050565b606b5460ff1681565b6067546001600160a01b031681565b6001600160a01b0381166000908152606a602052604090205460ff165b919050565b606c54600160901b900461ffff1681565b6066546001600160a01b031681565b61102e611b4f565b6001600160a01b031661103f611335565b6001600160a01b03161461109a576040805162461bcd60e51b815260206004820181905260248201527f4f776e61626c653a2063616c6c6572206973206e6f7420746865206f776e6572604482015290519081900360640190fd5b6034546040516000916001600160a01b0316907f8be0079c531659141344cd1fd0a4f28419497f9722a3daafe3b4186f6b6457e0908390a3603480546001600160a01b0319169055565b336110ed611335565b6001600160a01b0316146111205761110433610fe4565b6111205760405162461bcd60e51b81526004016106f690612aaa565b606b80546001600160a01b0390921661010002610100600160a81b0319909216919091179055565b606b5461010090046001600160a01b031681565b6111646124d0565b606b54604051637056890d60e11b815260009161010090046001600160a01b03169063e0ad121a9061119a908690600401612d58565b60606040518083038186803b1580156111b257600080fd5b505afa1580156111c6573d6000803e3d6000fd5b505050506040513d601f19601f820116820180604052508101906111ea91906126e0565b6040805180820190915281516001600160801b0316815260209182015167ffffffffffffffff16918101919091529392505050565b611227611b4f565b6001600160a01b0316611238611335565b6001600160a01b031614611293576040805162461bcd60e51b815260206004820181905260248201527f4f776e61626c653a2063616c6c6572206973206e6f7420746865206f776e6572604482015290519081900360640190fd5b6001600160a01b0382166000908152606f602052604090819020805460ff1916831515179055517fde6b048d6c4e63d85fde37ccbe03f4380c6d12cb2a1e9ce9268bbf47a1ef687890610ee89084908490612a84565b606c54600160a01b900461ffff1681565b606f6020526000908152604090205460ff1681565b6068602052600090815260409020546001600160801b0380821691600160801b90041682565b6034546001600160a01b031690565b606c54600160801b900461ffff1681565b606c546001600160801b031681565b3361136d611335565b6001600160a01b0316146113a05761138433610fe4565b6113a05760405162461bcd60e51b81526004016106f690612aaa565b505050565b6113ad611b4f565b6001600160a01b03166113be611335565b6001600160a01b031614611419576040805162461bcd60e51b815260206004820181905260248201527f4f776e61626c653a2063616c6c6572206973206e6f7420746865206f776e6572604482015290519081900360640190fd5b606b805460ff1916911515919091179055565b33611435611335565b6001600160a01b03161415801561145c5750336000908152606a602052604090205460ff16155b1561149057336000908152606f602052604090205460ff166114905760405162461bcd60e51b81526004016106f690612b93565b60005b818110156113a057368383838181106114a857fe5b90506040020190508060200160208101906114c39190612753565b606d60006114d4602085018561278b565b61ffff168152602081019190915260400160002080546001600160801b0319166001600160801b039290921691909117905550600101611493565b60006127108411156115335760405162461bcd60e51b81526004016106f690612ae1565b6115768787878787878080601f016020809104026020016040519081016040528093929190818152602001838380828437600092019190915250611b5392505050565b979650505050505050565b3361158a611335565b6001600160a01b0316146115bd576115a133610fe4565b6115bd5760405162461bcd60e51b81526004016106f690612aaa565b606c80546001600160801b0319166001600160801b0392909216919091179055565b336115e8611335565b6001600160a01b03161415801561160f5750336000908152606a602052604090205460ff16155b1561164357336000908152606f602052604090205460ff166116435760405162461bcd60e51b81526004016106f690612b93565b60005b818110156113a0573683838381811061165b57fe5b90506040020190508060200160208101906116769190612753565b606e6000611687602085018561278b565b61ffff168152602081019190915260400160002080546001600160801b0319166001600160801b039290921691909117905550600101611646565b606a6020526000908152604090205460ff1681565b6116df611b4f565b6001600160a01b03166116f0611335565b6001600160a01b03161461174b576040805162461bcd60e51b815260206004820181905260248201527f4f776e61626c653a2063616c6c6572206973206e6f7420746865206f776e6572604482015290519081900360640190fd5b6001600160a01b0381166117905760405162461bcd60e51b8152600401808060200182810382526026815260200180612e6d6026913960400191505060405180910390fd5b6034546040516001600160a01b038084169216907f8be0079c531659141344cd1fd0a4f28419497f9722a3daafe3b4186f6b6457e090600090a3603480546001600160a01b0319166001600160a01b0392909216919091179055565b60006117f6611a68565b90506001600160a01b038116611835576001600160a01b037fb53127684a568b3173ae13b9f8a6016e243e63b6e8ee1178d6a717850b5d61035561184a565b336001600160a01b0382161461184a57600080fd5b50606c8054606b8054610100600160a81b0319166101006001600160a01b03959095169490940293909317909255612ee06001600160801b03199092169190911761ffff60801b1916602960821b1761ffff60901b1916600560951b1761ffff60a01b1916607d60a21b179055565b336118c2611335565b6001600160a01b0316146118f5576118d933610fe4565b6118f55760405162461bcd60e51b81526004016106f690612aaa565b6066546040516334a095fd60e11b81526000916001600160a01b0316906369412bfa90611926903090600401612a57565b60206040518083038186803b15801561193e57600080fd5b505afa158015611952573d6000803e3d6000fd5b505050506040513d601f19601f820116820180604052508101906119769190612a18565b9050808211156119985760405162461bcd60e51b81526004016106f690612bca565b6066546040516303d8c5ef60e11b81526001600160a01b03909116906307b18bde906119ca9086908690600401612a6b565b600060405180830381600087803b1580156119e457600080fd5b505af11580156119f8573d6000803e3d6000fd5b50505050505050565b604080516001600160a01b038416602482015260448082018490528251808303909101815260649091019091526020810180517bffffffffffffffffffffffffffffffffffffffffffffffffffffffff1663a9059cbb60e01b1790526113a0908490611e08565b7fb53127684a568b3173ae13b9f8a6016e243e63b6e8ee1178d6a717850b5d61035490565b6000611a9830611eb9565b15905090565b600154610100900460ff1680611ab75750611ab7611a8d565b80611ac5575060015460ff16155b611b005760405162461bcd60e51b815260040180806020018281038252602e815260200180612eb9602e913960400191505060405180910390fd5b600154610100900460ff16158015611b2a576001805460ff1961ff00199091166101001716811790555b611b32611ebf565b611b3a611f5e565b8015611b4c576001805461ff00191690555b50565b3390565b606b5460009060ff1615611b795760405162461bcd60e51b81526004016106f690612c47565b815160221480611b8a575060428251115b611ba65760405162461bcd60e51b81526004016106f690612b16565b6002820151602283015180611bcd5760405162461bcd60e51b81526004016106f690612c6e565b8161ffff1660011480611be457508161ffff166002145b611c005760405162461bcd60e51b81526004016106f690612b5c565b61ffff88811660009081526069602090815260408083208b85168452909152812091841660021415611c5c5750604285015181546001600160801b0316811115611c5c5760405162461bcd60e51b81526004016106f690612ca5565b60008461ffff16600214611c7d57606c54600160801b900461ffff16611c96565b606c54611c9690600160801b900461ffff166020612056565b905060008a61ffff16600214611cc457606c54611cbf908a90600160a01b900461ffff16612056565b611cdd565b606c54611cdd908a90600160901b900461ffff16612056565b606b549091508c90600090819061010090046001600160a01b0316637bc3c9ab84611d088888612056565b8a54611d2590600160801b900467ffffffffffffffff168d612056565b6040518463ffffffff1660e01b8152600401611d4393929190612e07565b604080518083038186803b158015611d5a57600080fd5b505afa158015611d6e573d6000803e3d6000fd5b505050506040513d601f19601f82011682018060405250810190611d929190612a30565b909250905060008615611ddf57606c54611ddc9061271090611dd0906001600160801b0390811690611dd6906402540be4009084908e908a166120b9565b90612112565b906120b9565b90505b611df381611ded8686612179565b90612056565b9a505050505050505050505095945050505050565b6000611e5d826040518060400160405280602081526020017f5361666545524332303a206c6f772d6c6576656c2063616c6c206661696c6564815250856001600160a01b03166122c89092919063ffffffff16565b8051909150156113a057808060200190516020811015611e7c57600080fd5b50516113a05760405162461bcd60e51b815260040180806020018281038252602a815260200180612f08602a913960400191505060405180910390fd5b3b151590565b600154610100900460ff1680611ed85750611ed8611a8d565b80611ee6575060015460ff16155b611f215760405162461bcd60e51b815260040180806020018281038252602e815260200180612eb9602e913960400191505060405180910390fd5b600154610100900460ff16158015611b3a576001805460ff1961ff00199091166101001716811790558015611b4c576001805461ff001916905550565b600154610100900460ff1680611f775750611f77611a8d565b80611f85575060015460ff16155b611fc05760405162461bcd60e51b815260040180806020018281038252602e815260200180612eb9602e913960400191505060405180910390fd5b600154610100900460ff16158015611fea576001805460ff1961ff00199091166101001716811790555b6000611ff4611b4f565b603480546001600160a01b0319166001600160a01b038316908117909155604051919250906000907f8be0079c531659141344cd1fd0a4f28419497f9722a3daafe3b4186f6b6457e0908290a3508015611b4c576001805461ff001916905550565b6000828201838110156120b0576040805162461bcd60e51b815260206004820152601b60248201527f536166654d6174683a206164646974696f6e206f766572666c6f770000000000604482015290519081900360640190fd5b90505b92915050565b6000826120c8575060006120b3565b828202828482816120d557fe5b04146120b05760405162461bcd60e51b8152600401808060200182810382526021815260200180612ee76021913960400191505060405180910390fd5b6000808211612168576040805162461bcd60e51b815260206004820152601a60248201527f536166654d6174683a206469766973696f6e206279207a65726f000000000000604482015290519081900360640190fd5b81838161217157fe5b049392505050565b61ffff82166000908152606d60205260408120546001600160801b0316806121a95750606c546001600160801b03165b60006121c4612710611dd0866001600160801b0386166120b9565b90506000606b60019054906101000a90046001600160a01b03166001600160a01b03166392807f586040518163ffffffff1660e01b815260040160206040518083038186803b15801561221657600080fd5b505afa15801561222a573d6000803e3d6000fd5b505050506040513d601f19601f8201168201806040525081019061224e919061276f565b6001600160801b0316905080612268575091506120b39050565b61ffff86166000908152606e6020526040812054670de0b6b3a764000091906122ab906122a4908590611dd0906001600160801b0316866120b9565b8890612056565b90508381116122ba57836122bc565b805b98975050505050505050565b60606122d784846000856122e1565b90505b9392505050565b6060824710156123225760405162461bcd60e51b8152600401808060200182810382526026815260200180612e936026913960400191505060405180910390fd5b61232b85611eb9565b61237c576040805162461bcd60e51b815260206004820152601d60248201527f416464726573733a2063616c6c20746f206e6f6e2d636f6e7472616374000000604482015290519081900360640190fd5b600080866001600160a01b031685876040518082805190602001908083835b602083106123ba5780518252601f19909201916020918201910161239b565b6001836020036101000a03801982511681845116808217855250505050505090500191505060006040518083038185875af1925050503d806000811461241c576040519150601f19603f3d011682016040523d82523d6000602084013e612421565b606091505b50915091506115768282866060831561243b5750816122da565b82511561244b5782518084602001fd5b8160405162461bcd60e51b81526004018080602001828103825283818151815260200191508051906020019080838360005b8381101561249557818101518382015260200161247d565b50505050905090810190601f1680156124c25780820380516001836020036101000a031916815260200191505b509250505060405180910390fd5b604080518082019091526000808252602082015290565b60008083601f8401126124f8578182fd5b50813567ffffffffffffffff81111561250f578182fd5b60208301915083602060408302850101111561252a57600080fd5b9250929050565b8035801515811461100157600080fd5b60008083601f840112612552578182fd5b50813567ffffffffffffffff811115612569578182fd5b60208301915083602082850101111561252a57600080fd5b803561ffff8116811461100157600080fd5b6000602082840312156125a4578081fd5b81356120b081612e2c565b600080604083850312156125c1578081fd5b82356125cc81612e2c565b946020939093013593505050565b600080604083850312156125ec578182fd5b82356125f781612e2c565b9150602083013561260781612e2c565b809150509250929050565b600080600060608486031215612626578081fd5b833561263181612e2c565b9250602084013561264181612e2c565b929592945050506040919091013590565b60008060408385031215612664578182fd5b823561266f81612e2c565b915061267d60208401612531565b90509250929050565b60008060208385031215612698578182fd5b823567ffffffffffffffff8111156126ae578283fd5b6126ba858286016124e7565b90969095509350505050565b6000602082840312156126d7578081fd5b6122da82612531565b6000606082840312156126f1578081fd5b6040516060810181811067ffffffffffffffff8211171561270e57fe5b604052825161271c81612e41565b8152602083015161272c81612e56565b6020820152604083015163ffffffff81168114612747578283fd5b60408201529392505050565b600060208284031215612764578081fd5b81356120b081612e41565b600060208284031215612780578081fd5b81516120b081612e41565b60006020828403121561279c578081fd5b6122da82612581565b600080600080600080600060c0888a0312156127bf578485fd5b6127c888612581565b965060208801356127d881612e2c565b955060408801359450606088013593506080880135925060a088013567ffffffffffffffff811115612808578283fd5b6128148a828b01612541565b989b979a50959850939692959293505050565b60008060008060008060008060e0898b031215612842578182fd5b61284b89612581565b9750602089013561285b81612e2c565b965060408901359550606089013594506080890135935060a089013567ffffffffffffffff81111561288b578283fd5b6128978b828c01612541565b90945092505060c08901356128ab81612e2c565b809150509295985092959890939650565b6000806000606084860312156128d0578081fd5b6128d984612581565b925060208401356128e981612e41565b915060408401356128f981612e41565b809150509250925092565b60008060408385031215612916578182fd5b61291f83612581565b915061267d60208401612581565b60008060008060008060a08789031215612945578384fd5b61294e87612581565b955061295c60208801612581565b9450604087013561296c81612e2c565b935060608701359250608087013567ffffffffffffffff81111561298e578283fd5b61299a89828a01612541565b979a9699509497509295939492505050565b600080600080600060a086880312156129c3578283fd5b6129cc86612581565b94506129da60208701612581565b935060408601356129ea81612e41565b925060608601356129fa81612e56565b91506080860135612a0a81612e56565b809150509295509295909350565b600060208284031215612a29578081fd5b5051919050565b60008060408385031215612a42578182fd5b82519150602083015161260781612e41565b90565b6001600160a01b0391909116815260200190565b6001600160a01b03929092168252602082015260400190565b6001600160a01b039290921682521515602082015260400190565b901515815260200190565b60208082526015908201527f52656c617965723a206e6f7420617070726f7665640000000000000000000000604082015260600190565b6020808252818101527f52656c617965723a205f7061796c6f616453697a6520746f6f6f6f6f20626967604082015260600190565b60208082526026908201527f52656c617965723a2077726f6e67205f61646170746572506172616d65746572604082015265732073697a6560d01b606082015260800190565b6020808252601b908201527f52656c617965723a20756e737570706f72746564207478547970650000000000604082015260600190565b60208082526014908201527f52656c617965723a206e6f742075706461746572000000000000000000000000604082015260600190565b60208082526026908201527f52656c617965723a206e6f7420656e6f7567682066656520666f722077697468604082015265191c985dd85b60d21b606082015260800190565b60208082526014908201527f52656c617965723a20696e76616c696420756c6e000000000000000000000000604082015260600190565b6020808252600d908201526c10591b5a5b8e881c185d5cd959609a1b604082015260600190565b60208082526014908201527f52656c617965723a2067617320746f6f206c6f77000000000000000000000000604082015260600190565b6020808252601f908201527f52656c617965723a206473744e6174697665416d7420746f6f206c6172676500604082015260600190565b81516001600160801b039081168252602092830151169181019190915260400190565b6001600160801b0391909116815260200190565b6001600160801b0392831681529116602082015260400190565b6001600160801b0393909316835267ffffffffffffffff918216602084015216604082015260600190565b61ffff91909116815260200190565b600061ffff891682526001600160a01b038816602083015286604083015285606083015284608083015260c060a08301528260c0830152828460e084013781830160e090810191909152601f909201601f191601019695505050505050565b61ffff95861681529390941660208401526001600160801b0391909116604083015267ffffffffffffffff9081166060830152909116608082015260a00190565b61ffff9390931683526020830191909152604082015260600190565b90815260200190565b6001600160a01b0381168114611b4c57600080fd5b6001600160801b0381168114611b4c57600080fd5b67ffffffffffffffff81168114611b4c57600080fdfe4f776e61626c653a206e6577206f776e657220697320746865207a65726f2061646472657373416464726573733a20696e73756666696369656e742062616c616e636520666f722063616c6c496e697469616c697a61626c653a20636f6e747261637420697320616c726561647920696e697469616c697a6564536166654d6174683a206d756c7469706c69636174696f6e206f766572666c6f775361666545524332303a204552433230206f7065726174696f6e20646964206e6f742073756363656564a26469706673582212202cf75a9e900e5b945fe21a7c64c01be639199ad21e1be27be157adf1e743479f64736f6c63430007060033",
  "devdoc": {
    "kind": "dev",
    "methods": {
      "owner()": {
        "details": "Returns the address of the current owner."
      },
      "renounceOwnership()": {
        "details": "Leaves the contract without owner. It will not be possible to call `onlyOwner` functions anymore. Can only be called by the current owner. NOTE: Renouncing ownership will leave the contract without an owner, thereby removing any functionality that is only available to the owner."
      },
      "transferOwnership(address)": {
        "details": "Transfers ownership of the contract to a new account (`newOwner`). Can only be called by the current owner."
      }
    },
    "version": 1
  },
  "userdoc": {
    "kind": "user",
    "methods": {},
    "version": 1
  },
  "storageLayout": {
    "storage": [
      {
        "astId": 2245,
        "contract": "contracts/RelayerV2.sol:RelayerV2",
        "label": "_status",
        "offset": 0,
        "slot": "0",
        "type": "t_uint256"
      },
      {
        "astId": 137,
        "contract": "contracts/RelayerV2.sol:RelayerV2",
        "label": "_initialized",
        "offset": 0,
        "slot": "1",
        "type": "t_bool"
      },
      {
        "astId": 140,
        "contract": "contracts/RelayerV2.sol:RelayerV2",
        "label": "_initializing",
        "offset": 1,
        "slot": "1",
        "type": "t_bool"
      },
      {
        "astId": 484,
        "contract": "contracts/RelayerV2.sol:RelayerV2",
        "label": "__gap",
        "offset": 0,
        "slot": "2",
        "type": "t_array(t_uint256)50_storage"
      },
      {
        "astId": 10,
        "contract": "contracts/RelayerV2.sol:RelayerV2",
        "label": "_owner",
        "offset": 0,
        "slot": "52",
        "type": "t_address"
      },
      {
        "astId": 129,
        "contract": "contracts/RelayerV2.sol:RelayerV2",
        "label": "__gap",
        "offset": 0,
        "slot": "53",
        "type": "t_array(t_uint256)49_storage"
      },
      {
        "astId": 6056,
        "contract": "contracts/RelayerV2.sol:RelayerV2",
        "label": "uln",
        "offset": 0,
        "slot": "102",
        "type": "t_contract(ILayerZeroUltraLightNodeV2)17141"
      },
      {
        "astId": 6058,
        "contract": "contracts/RelayerV2.sol:RelayerV2",
        "label": "stargateBridgeAddress",
        "offset": 0,
        "slot": "103",
        "type": "t_address"
      },
      {
        "astId": 6084,
        "contract": "contracts/RelayerV2.sol:RelayerV2",
        "label": "dstPriceLookupOld",
        "offset": 0,
        "slot": "104",
        "type": "t_mapping(t_uint16,t_struct(DstPrice)6063_storage)"
      },
      {
        "astId": 6090,
        "contract": "contracts/RelayerV2.sol:RelayerV2",
        "label": "dstConfigLookup",
        "offset": 0,
        "slot": "105",
        "type": "t_mapping(t_uint16,t_mapping(t_uint16,t_struct(DstConfig)6070_storage))"
      },
      {
        "astId": 6094,
        "contract": "contracts/RelayerV2.sol:RelayerV2",
        "label": "approvedAddresses",
        "offset": 0,
        "slot": "106",
        "type": "t_mapping(t_address,t_bool)"
      },
      {
        "astId": 6144,
        "contract": "contracts/RelayerV2.sol:RelayerV2",
        "label": "paused",
        "offset": 0,
        "slot": "107",
        "type": "t_bool"
      },
      {
        "astId": 6146,
        "contract": "contracts/RelayerV2.sol:RelayerV2",
        "label": "priceFeed",
        "offset": 1,
        "slot": "107",
        "type": "t_contract(ILayerZeroPriceFeed)16749"
      },
      {
        "astId": 6148,
        "contract": "contracts/RelayerV2.sol:RelayerV2",
        "label": "multiplierBps",
        "offset": 0,
        "slot": "108",
        "type": "t_uint128"
      },
      {
        "astId": 6150,
        "contract": "contracts/RelayerV2.sol:RelayerV2",
        "label": "validateProofBytes",
        "offset": 16,
        "slot": "108",
        "type": "t_uint16"
      },
      {
        "astId": 6152,
        "contract": "contracts/RelayerV2.sol:RelayerV2",
        "label": "fpBytes",
        "offset": 18,
        "slot": "108",
        "type": "t_uint16"
      },
      {
        "astId": 6154,
        "contract": "contracts/RelayerV2.sol:RelayerV2",
        "label": "mptOverhead",
        "offset": 20,
        "slot": "108",
        "type": "t_uint16"
      },
      {
        "astId": 6158,
        "contract": "contracts/RelayerV2.sol:RelayerV2",
        "label": "dstMultipliers",
        "offset": 0,
        "slot": "109",
        "type": "t_mapping(t_uint16,t_uint128)"
      },
      {
        "astId": 6162,
        "contract": "contracts/RelayerV2.sol:RelayerV2",
        "label": "dstFloorMarginsUSD",
        "offset": 0,
        "slot": "110",
        "type": "t_mapping(t_uint16,t_uint128)"
      },
      {
        "astId": 6166,
        "contract": "contracts/RelayerV2.sol:RelayerV2",
        "label": "priceConfigUpdaters",
        "offset": 0,
        "slot": "111",
        "type": "t_mapping(t_address,t_bool)"
      }
    ],
    "types": {
      "t_address": {
        "encoding": "inplace",
        "label": "address",
        "numberOfBytes": "20"
      },
      "t_array(t_uint256)49_storage": {
        "base": "t_uint256",
        "encoding": "inplace",
        "label": "uint256[49]",
        "numberOfBytes": "1568"
      },
      "t_array(t_uint256)50_storage": {
        "base": "t_uint256",
        "encoding": "inplace",
        "label": "uint256[50]",
        "numberOfBytes": "1600"
      },
      "t_bool": {
        "encoding": "inplace",
        "label": "bool",
        "numberOfBytes": "1"
      },
      "t_contract(ILayerZeroPriceFeed)16749": {
        "encoding": "inplace",
        "label": "contract ILayerZeroPriceFeed",
        "numberOfBytes": "20"
      },
      "t_contract(ILayerZeroUltraLightNodeV2)17141": {
        "encoding": "inplace",
        "label": "contract ILayerZeroUltraLightNodeV2",
        "numberOfBytes": "20"
      },
      "t_mapping(t_address,t_bool)": {
        "encoding": "mapping",
        "key": "t_address",
        "label": "mapping(address => bool)",
        "numberOfBytes": "32",
        "value": "t_bool"
      },
      "t_mapping(t_uint16,t_mapping(t_uint16,t_struct(DstConfig)6070_storage))": {
        "encoding": "mapping",
        "key": "t_uint16",
        "label": "mapping(uint16 => mapping(uint16 => struct RelayerV2.DstConfig))",
        "numberOfBytes": "32",
        "value": "t_mapping(t_uint16,t_struct(DstConfig)6070_storage)"
      },
      "t_mapping(t_uint16,t_struct(DstConfig)6070_storage)": {
        "encoding": "mapping",
        "key": "t_uint16",
        "label": "mapping(uint16 => struct RelayerV2.DstConfig)",
        "numberOfBytes": "32",
        "value": "t_struct(DstConfig)6070_storage"
      },
      "t_mapping(t_uint16,t_struct(DstPrice)6063_storage)": {
        "encoding": "mapping",
        "key": "t_uint16",
        "label": "mapping(uint16 => struct RelayerV2.DstPrice)",
        "numberOfBytes": "32",
        "value": "t_struct(DstPrice)6063_storage"
      },
      "t_mapping(t_uint16,t_uint128)": {
        "encoding": "mapping",
        "key": "t_uint16",
        "label": "mapping(uint16 => uint128)",
        "numberOfBytes": "32",
        "value": "t_uint128"
      },
      "t_struct(DstConfig)6070_storage": {
        "encoding": "inplace",
        "label": "struct RelayerV2.DstConfig",
        "members": [
          {
            "astId": 6065,
            "contract": "contracts/RelayerV2.sol:RelayerV2",
            "label": "dstNativeAmtCap",
            "offset": 0,
            "slot": "0",
            "type": "t_uint128"
          },
          {
            "astId": 6067,
            "contract": "contracts/RelayerV2.sol:RelayerV2",
            "label": "baseGas",
            "offset": 16,
            "slot": "0",
            "type": "t_uint64"
          },
          {
            "astId": 6069,
            "contract": "contracts/RelayerV2.sol:RelayerV2",
            "label": "gasPerByte",
            "offset": 24,
            "slot": "0",
            "type": "t_uint64"
          }
        ],
        "numberOfBytes": "32"
      },
      "t_struct(DstPrice)6063_storage": {
        "encoding": "inplace",
        "label": "struct RelayerV2.DstPrice",
        "members": [
          {
            "astId": 6060,
            "contract": "contracts/RelayerV2.sol:RelayerV2",
            "label": "dstPriceRatio",
            "offset": 0,
            "slot": "0",
            "type": "t_uint128"
          },
          {
            "astId": 6062,
            "contract": "contracts/RelayerV2.sol:RelayerV2",
            "label": "dstGasPriceInWei",
            "offset": 16,
            "slot": "0",
            "type": "t_uint128"
          }
        ],
        "numberOfBytes": "32"
      },
      "t_uint128": {
        "encoding": "inplace",
        "label": "uint128",
        "numberOfBytes": "16"
      },
      "t_uint16": {
        "encoding": "inplace",
        "label": "uint16",
        "numberOfBytes": "2"
      },
      "t_uint256": {
        "encoding": "inplace",
        "label": "uint256",
        "numberOfBytes": "32"
      },
      "t_uint64": {
        "encoding": "inplace",
        "label": "uint64",
        "numberOfBytes": "8"
      }
    }
  }
}