{
  "address": "0x665bd7A4b5765758ccF1eB5b6dEAf6bb07b6c531",
  "abi": [
    {
      "anonymous": false,
      "inputs": [
        {
          "indexed": false,
          "internalType": "address",
          "name": "addr",
          "type": "address"
        },
        {
          "indexed": false,
          "internalType": "bool",
          "name": "approved",
          "type": "bool"
        }
      ],
      "name": "ApproveAddress",
      "type": "event"
    },
    {
      "anonymous": false,
      "inputs": [
        {
          "indexed": false,
          "internalType": "uint16",
          "name": "dstChainId",
          "type": "uint16"
        },
        {
          "indexed": false,
          "internalType": "uint16",
          "name": "outboundProofType",
          "type": "uint16"
        },
        {
          "indexed": false,
          "internalType": "address",
          "name": "userApplication",
          "type": "address"
        },
        {
          "indexed": false,
          "internalType": "uint256",
          "name": "totalFee",
          "type": "uint256"
        }
      ],
      "name": "AssignJob",
      "type": "event"
    },
    {
      "anonymous": false,
      "inputs": [
        {
          "indexed": true,
          "internalType": "uint256",
          "name": "payloadSize",
          "type": "uint256"
        }
      ],
      "name": "InvalidPayloadSize",
      "type": "event"
    },
    {
      "anonymous": false,
      "inputs": [
        {
          "indexed": true,
          "internalType": "address",
          "name": "previousOwner",
          "type": "address"
        },
        {
          "indexed": true,
          "internalType": "address",
          "name": "newOwner",
          "type": "address"
        }
      ],
      "name": "OwnershipTransferred",
      "type": "event"
    },
    {
      "anonymous": false,
      "inputs": [
        {
          "indexed": false,
          "internalType": "address",
          "name": "ulnv2",
          "type": "address"
        }
      ],
      "name": "Ulnv2Set",
      "type": "event"
    },
    {
      "anonymous": false,
      "inputs": [
        {
          "indexed": true,
          "internalType": "address",
          "name": "to",
          "type": "address"
        },
        {
          "indexed": true,
          "internalType": "uint256",
          "name": "quantity",
          "type": "uint256"
        }
      ],
      "name": "ValueTransferFailed",
      "type": "event"
    },
    {
      "anonymous": false,
      "inputs": [
        {
          "indexed": false,
          "internalType": "address",
          "name": "to",
          "type": "address"
        },
        {
          "indexed": false,
          "internalType": "uint256",
          "name": "amount",
          "type": "uint256"
        }
      ],
      "name": "Withdraw",
      "type": "event"
    },
    {
      "anonymous": false,
      "inputs": [
        {
          "indexed": false,
          "internalType": "address",
          "name": "token",
          "type": "address"
        },
        {
          "indexed": false,
          "internalType": "address",
          "name": "to",
          "type": "address"
        },
        {
          "indexed": false,
          "internalType": "uint256",
          "name": "amount",
          "type": "uint256"
        }
      ],
      "name": "WithdrawTokens",
      "type": "event"
    },
    {
      "inputs": [
        {
          "internalType": "address",
          "name": "",
          "type": "address"
        }
      ],
      "name": "approvedAddresses",
      "outputs": [
        {
          "internalType": "bool",
          "name": "",
          "type": "bool"
        }
      ],
      "stateMutability": "view",
      "type": "function"
    },
    {
      "inputs": [
        {
          "internalType": "uint16",
          "name": "",
          "type": "uint16"
        },
        {
          "internalType": "uint16",
          "name": "",
          "type": "uint16"
        }
      ],
      "name": "dstConfigLookup",
      "outputs": [
        {
          "internalType": "uint128",
          "name": "dstNativeAmtCap",
          "type": "uint128"
        },
        {
          "internalType": "uint64",
          "name": "baseGas",
          "type": "uint64"
        },
        {
          "internalType": "uint64",
          "name": "gasPerByte",
          "type": "uint64"
        }
      ],
      "stateMutability": "view",
      "type": "function"
    },
    {
      "inputs": [
        {
          "internalType": "uint16",
          "name": "",
          "type": "uint16"
        }
      ],
      "name": "dstPriceLookup",
      "outputs": [
        {
          "internalType": "uint128",
          "name": "dstPriceRatio",
          "type": "uint128"
        },
        {
          "internalType": "uint128",
          "name": "dstGasPriceInWei",
          "type": "uint128"
        }
      ],
      "stateMutability": "view",
      "type": "function"
    },
    {
      "inputs": [
        {
          "internalType": "uint16",
          "name": "_dstChainId",
          "type": "uint16"
        },
        {
          "internalType": "uint16",
          "name": "_outboundProofType",
          "type": "uint16"
        },
        {
          "internalType": "address",
          "name": "_userApplication",
          "type": "address"
        },
        {
          "internalType": "uint256",
          "name": "payloadSize",
          "type": "uint256"
        },
        {
          "internalType": "bytes",
          "name": "_adapterParams",
          "type": "bytes"
        }
      ],
      "name": "getPrice",
      "outputs": [
        {
          "internalType": "uint256",
          "name": "",
          "type": "uint256"
        }
      ],
      "stateMutability": "view",
      "type": "function"
    },
    {
      "inputs": [
        {
          "internalType": "address",
          "name": "_uln",
          "type": "address"
        }
      ],
      "name": "initialize",
      "outputs": [],
      "stateMutability": "nonpayable",
      "type": "function"
    },
    {
      "inputs": [
        {
          "internalType": "address",
          "name": "_relayerAddress",
          "type": "address"
        }
      ],
      "name": "isApproved",
      "outputs": [
        {
          "internalType": "bool",
          "name": "",
          "type": "bool"
        }
      ],
      "stateMutability": "view",
      "type": "function"
    },
    {
      "inputs": [
        {
          "internalType": "uint16",
          "name": "_dstChainId",
          "type": "uint16"
        },
        {
          "internalType": "uint16",
          "name": "_outboundProofType",
          "type": "uint16"
        },
        {
          "internalType": "bytes",
          "name": "_adapterParams",
          "type": "bytes"
        }
      ],
      "name": "notifyRelayer",
      "outputs": [],
      "stateMutability": "nonpayable",
      "type": "function"
    },
    {
      "inputs": [],
      "name": "owner",
      "outputs": [
        {
          "internalType": "address",
          "name": "",
          "type": "address"
        }
      ],
      "stateMutability": "view",
      "type": "function"
    },
    {
      "inputs": [],
      "name": "paused",
      "outputs": [
        {
          "internalType": "bool",
          "name": "",
          "type": "bool"
        }
      ],
      "stateMutability": "view",
      "type": "function"
    },
    {
      "inputs": [],
      "name": "renounceOwnership",
      "outputs": [],
      "stateMutability": "nonpayable",
      "type": "function"
    },
    {
      "inputs": [
        {
          "internalType": "address",
          "name": "_relayerAddress",
          "type": "address"
        },
        {
          "internalType": "bool",
          "name": "_approve",
          "type": "bool"
        }
      ],
      "name": "setApprovedAddress",
      "outputs": [],
      "stateMutability": "nonpayable",
      "type": "function"
    },
    {
      "inputs": [
        {
          "internalType": "uint16",
          "name": "_chainId",
          "type": "uint16"
        },
        {
          "internalType": "uint16",
          "name": "_outboundProofType",
          "type": "uint16"
        },
        {
          "internalType": "uint128",
          "name": "_dstNativeAmtCap",
          "type": "uint128"
        },
        {
          "internalType": "uint64",
          "name": "_baseGas",
          "type": "uint64"
        },
        {
          "internalType": "uint64",
          "name": "_gasPerByte",
          "type": "uint64"
        }
      ],
      "name": "setDstConfig",
      "outputs": [],
      "stateMutability": "nonpayable",
      "type": "function"
    },
    {
      "inputs": [
        {
          "internalType": "uint16",
          "name": "_chainId",
          "type": "uint16"
        },
        {
          "internalType": "uint128",
          "name": "_dstPriceRatio",
          "type": "uint128"
        },
        {
          "internalType": "uint128",
          "name": "_dstGasPriceInWei",
          "type": "uint128"
        }
      ],
      "name": "setDstPrice",
      "outputs": [],
      "stateMutability": "nonpayable",
      "type": "function"
    },
    {
      "inputs": [
        {
          "internalType": "bool",
          "name": "_paused",
          "type": "bool"
        }
      ],
      "name": "setPause",
      "outputs": [],
      "stateMutability": "nonpayable",
      "type": "function"
    },
    {
      "inputs": [],
      "name": "stargateBridgeAddress",
      "outputs": [
        {
          "internalType": "address",
          "name": "",
          "type": "address"
        }
      ],
      "stateMutability": "view",
      "type": "function"
    },
    {
      "inputs": [
        {
          "internalType": "address",
          "name": "newOwner",
          "type": "address"
        }
      ],
      "name": "transferOwnership",
      "outputs": [],
      "stateMutability": "nonpayable",
      "type": "function"
    },
    {
      "inputs": [],
      "name": "uln",
      "outputs": [
        {
          "internalType": "contract ILayerZeroUltraLightNodeV1",
          "name": "",
          "type": "address"
        }
      ],
      "stateMutability": "view",
      "type": "function"
    },
    {
      "inputs": [
        {
          "internalType": "uint16",
          "name": "_srcChainId",
          "type": "uint16"
        },
        {
          "internalType": "address",
          "name": "_dstAddress",
          "type": "address"
        },
        {
          "internalType": "uint256",
          "name": "_gasLimit",
          "type": "uint256"
        },
        {
          "internalType": "bytes32",
          "name": "_blockHash",
          "type": "bytes32"
        },
        {
          "internalType": "bytes",
          "name": "_transactionProof",
          "type": "bytes"
        }
      ],
      "name": "validateTransactionProofV1",
      "outputs": [],
      "stateMutability": "nonpayable",
      "type": "function"
    },
    {
      "inputs": [
        {
          "internalType": "uint16",
          "name": "_srcChainId",
          "type": "uint16"
        },
        {
          "internalType": "address",
          "name": "_dstAddress",
          "type": "address"
        },
        {
          "internalType": "uint256",
          "name": "_gasLimit",
          "type": "uint256"
        },
        {
          "internalType": "bytes32",
          "name": "_blockHash",
          "type": "bytes32"
        },
        {
          "internalType": "bytes",
          "name": "_transactionProof",
          "type": "bytes"
        },
        {
          "internalType": "address payable",
          "name": "_to",
          "type": "address"
        }
      ],
      "name": "validateTransactionProofV2",
      "outputs": [],
      "stateMutability": "payable",
      "type": "function"
    },
    {
      "inputs": [
        {
          "internalType": "address payable",
          "name": "_to",
          "type": "address"
        },
        {
          "internalType": "uint256",
          "name": "_amount",
          "type": "uint256"
        }
      ],
      "name": "withdrawQuotedFromULN",
      "outputs": [],
      "stateMutability": "nonpayable",
      "type": "function"
    }
  ],
  "transactionHash": "0xc980054e83ecffe7538c7b75342f75e72fe4598830a52c0218ea12c7c73649e1",
  "args": [],
  "numDeployments": 3,
  "solcInputHash": "21c58884a35916dc1e1c2a14efc74a93",
  "bytecode": "0x608060405234801561001057600080fd5b506001600055612384806100256000396000f3fe60806040526004361061015f5760003560e01c80638da5cb5b116100c0578063e54a221511610074578063f136a87411610059578063f136a874146106e2578063f2fde38b14610722578063fdf69784146107625761015f565b8063e54a2215146105d7578063ea4fa6bf1461069c5761015f565b8063b8f8bad4116100a5578063b8f8bad41461051d578063bedb86fb1461056b578063c4d66de8146105975761015f565b80638da5cb5b14610459578063ac16d6ac1461046e5761015f565b80636348d269116101175780636c473aff116100fc5780636c473aff146103c0578063715018a6146103d5578063765a8a54146103ea5761015f565b80636348d26914610342578063673448dd146103805761015f565b80633f103487116101485780633f10348714610269578063575765e2146102d15780635c975abb146103195761015f565b806323161ff8146101645780633a5fb82a146101d6575b600080fd5b34801561017057600080fd5b5061019a6004803603604081101561018757600080fd5b5061ffff8135811691602001351661081a565b604080516fffffffffffffffffffffffffffffffff909416845267ffffffffffffffff9283166020850152911682820152519081900360600190f35b3480156101e257600080fd5b50610267600480360360608110156101f957600080fd5b61ffff823581169260208101359091169181019060608101604082013564010000000081111561022857600080fd5b82018360208201111561023a57600080fd5b8035906020019184600183028401116401000000008311171561025c57600080fd5b509092509050610888565b005b34801561027557600080fd5b50610267600480360360a081101561028c57600080fd5b5061ffff81358116916020810135909116906fffffffffffffffffffffffffffffffff6040820135169067ffffffffffffffff6060820135811691608001351661088e565b3480156102dd57600080fd5b50610267600480360360408110156102f457600080fd5b5073ffffffffffffffffffffffffffffffffffffffff81351690602001351515610a30565b34801561032557600080fd5b5061032e610b67565b604080519115158252519081900360200190f35b34801561034e57600080fd5b50610357610b88565b6040805173ffffffffffffffffffffffffffffffffffffffff9092168252519081900360200190f35b34801561038c57600080fd5b5061032e600480360360208110156103a357600080fd5b503573ffffffffffffffffffffffffffffffffffffffff16610ba4565b3480156103cc57600080fd5b50610357610bcf565b3480156103e157600080fd5b50610267610beb565b3480156103f657600080fd5b506104186004803603602081101561040d57600080fd5b503561ffff16610d02565b60405180836fffffffffffffffffffffffffffffffff168152602001826fffffffffffffffffffffffffffffffff1681526020019250505060405180910390f35b34801561046557600080fd5b50610357610d3e565b34801561047a57600080fd5b50610267600480360360a081101561049157600080fd5b61ffff8235169173ffffffffffffffffffffffffffffffffffffffff6020820135169160408201359160608101359181019060a0810160808201356401000000008111156104de57600080fd5b8201836020820111156104f057600080fd5b8035906020019184600183028401116401000000008311171561051257600080fd5b509092509050610d5a565b34801561052957600080fd5b506102676004803603606081101561054057600080fd5b5061ffff813516906fffffffffffffffffffffffffffffffff60208201358116916040013516610f56565b34801561057757600080fd5b506102676004803603602081101561058e57600080fd5b5035151561107a565b3480156105a357600080fd5b50610267600480360360208110156105ba57600080fd5b503573ffffffffffffffffffffffffffffffffffffffff1661116c565b3480156105e357600080fd5b5061068a600480360360a08110156105fa57600080fd5b61ffff823581169260208101359091169173ffffffffffffffffffffffffffffffffffffffff6040830135169160608101359181019060a08101608082013564010000000081111561064b57600080fd5b82018360208201111561065d57600080fd5b8035906020019184600183028401116401000000008311171561067f57600080fd5b509092509050611359565b60408051918252519081900360200190f35b3480156106a857600080fd5b50610267600480360360408110156106bf57600080fd5b5073ffffffffffffffffffffffffffffffffffffffff81351690602001356113c6565b3480156106ee57600080fd5b5061032e6004803603602081101561070557600080fd5b503573ffffffffffffffffffffffffffffffffffffffff16611500565b34801561072e57600080fd5b506102676004803603602081101561074557600080fd5b503573ffffffffffffffffffffffffffffffffffffffff16611515565b610267600480360360c081101561077857600080fd5b61ffff8235169173ffffffffffffffffffffffffffffffffffffffff6020820135169160408201359160608101359181019060a0810160808201356401000000008111156107c557600080fd5b8201836020820111156107d757600080fd5b803590602001918460018302840111640100000000831117156107f957600080fd5b91935091503573ffffffffffffffffffffffffffffffffffffffff166116b7565b60686020908152600092835260408084209091529082529020546fffffffffffffffffffffffffffffffff81169067ffffffffffffffff7001000000000000000000000000000000008204811691780100000000000000000000000000000000000000000000000090041683565b50505050565b33610897610d3e565b73ffffffffffffffffffffffffffffffffffffffff1614610926576108bb33610ba4565b61092657604080517f08c379a000000000000000000000000000000000000000000000000000000000815260206004820152601660248201527f52656c617965723a206e6f7420617070726f7665642000000000000000000000604482015290519081900360640190fd5b604080516060810182526fffffffffffffffffffffffffffffffff948516815267ffffffffffffffff938416602080830191825293851682840190815261ffff98891660009081526068865284812098909916895296909352952094518554915194517fffffffffffffffffffffffffffffffff000000000000000000000000000000009092169316929092177fffffffffffffffff0000000000000000ffffffffffffffffffffffffffffffff16700100000000000000000000000000000000938216939093029290921777ffffffffffffffffffffffffffffffffffffffffffffffff1678010000000000000000000000000000000000000000000000009190921602179055565b610a3861195e565b73ffffffffffffffffffffffffffffffffffffffff16610a56610d3e565b73ffffffffffffffffffffffffffffffffffffffff1614610ad857604080517f08c379a000000000000000000000000000000000000000000000000000000000815260206004820181905260248201527f4f776e61626c653a2063616c6c6572206973206e6f7420746865206f776e6572604482015290519081900360640190fd5b73ffffffffffffffffffffffffffffffffffffffff821660008181526069602090815260409182902080547fffffffffffffffffffffffffffffffffffffffffffffffffffffffffffffff001685151590811790915582519384529083015280517fb10786d0bfa68fb1aa29552d9203e5f545f7c073ff0784da1de1d800986f10239281900390910190a15050565b606a5474010000000000000000000000000000000000000000900460ff1681565b606a5473ffffffffffffffffffffffffffffffffffffffff1681565b73ffffffffffffffffffffffffffffffffffffffff1660009081526069602052604090205460ff1690565b60665473ffffffffffffffffffffffffffffffffffffffff1681565b610bf361195e565b73ffffffffffffffffffffffffffffffffffffffff16610c11610d3e565b73ffffffffffffffffffffffffffffffffffffffff1614610c9357604080517f08c379a000000000000000000000000000000000000000000000000000000000815260206004820181905260248201527f4f776e61626c653a2063616c6c6572206973206e6f7420746865206f776e6572604482015290519081900360640190fd5b60345460405160009173ffffffffffffffffffffffffffffffffffffffff16907f8be0079c531659141344cd1fd0a4f28419497f9722a3daafe3b4186f6b6457e0908390a3603480547fffffffffffffffffffffffff0000000000000000000000000000000000000000169055565b6067602052600090815260409020546fffffffffffffffffffffffffffffffff8082169170010000000000000000000000000000000090041682565b60345473ffffffffffffffffffffffffffffffffffffffff1690565b33610d63610d3e565b73ffffffffffffffffffffffffffffffffffffffff1614610df257610d8733610ba4565b610df257604080517f08c379a000000000000000000000000000000000000000000000000000000000815260206004820152601660248201527f52656c617965723a206e6f7420617070726f7665642000000000000000000000604482015290519081900360640190fd5b60026000541415610e6457604080517f08c379a000000000000000000000000000000000000000000000000000000000815260206004820152601f60248201527f5265656e7472616e637947756172643a207265656e7472616e742063616c6c00604482015290519081900360640190fd5b60026000556066546040517f5c01153100000000000000000000000000000000000000000000000000000000815261ffff88166004820190815273ffffffffffffffffffffffffffffffffffffffff8881166024840152604483018890526064830187905260a06084840190815260a48401869052931692635c011531928a928a928a928a928a928a9260c401848480828437600081840152601f19601f820116905080830192505050975050505050505050600060405180830381600087803b158015610f3157600080fd5b505af1158015610f45573d6000803e3d6000fd5b505060016000555050505050505050565b33610f5f610d3e565b73ffffffffffffffffffffffffffffffffffffffff1614610fee57610f8333610ba4565b610fee57604080517f08c379a000000000000000000000000000000000000000000000000000000000815260206004820152601660248201527f52656c617965723a206e6f7420617070726f7665642000000000000000000000604482015290519081900360640190fd5b6040805180820182526fffffffffffffffffffffffffffffffff9384168152918316602080840191825261ffff959095166000908152606790955293209051815493517fffffffffffffffffffffffffffffffff000000000000000000000000000000009094169083161782167001000000000000000000000000000000009390921692909202179055565b61108261195e565b73ffffffffffffffffffffffffffffffffffffffff166110a0610d3e565b73ffffffffffffffffffffffffffffffffffffffff161461112257604080517f08c379a000000000000000000000000000000000000000000000000000000000815260206004820181905260248201527f4f776e61626c653a2063616c6c6572206973206e6f7420746865206f776e6572604482015290519081900360640190fd5b606a805491151574010000000000000000000000000000000000000000027fffffffffffffffffffffff00ffffffffffffffffffffffffffffffffffffffff909216919091179055565b6000611176611962565b905073ffffffffffffffffffffffffffffffffffffffff81166111cf5773ffffffffffffffffffffffffffffffffffffffff7fb53127684a568b3173ae13b9f8a6016e243e63b6e8ee1178d6a717850b5d6103556111f1565b3373ffffffffffffffffffffffffffffffffffffffff8216146111f157600080fd5b600154610100900460ff168061120a575061120a611987565b80611218575060015460ff16155b61126d576040517f08c379a000000000000000000000000000000000000000000000000000000000815260040180806020018281038252602e815260200180612300602e913960400191505060405180910390fd5b600154610100900460ff161580156112d257600180547fffffffffffffffffffffffffffffffffffffffffffffffffffffffffffffff007fffffffffffffffffffffffffffffffffffffffffffffffffffffffffffff00ff9091166101001716811790555b6112da611998565b606680547fffffffffffffffffffffffff00000000000000000000000000000000000000001673ffffffffffffffffffffffffffffffffffffffff8516179055611325306001610a30565b801561135457600180547fffffffffffffffffffffffffffffffffffffffffffffffffffffffffffff00ff1690555b505050565b60008060006113a089898988888080601f016020809104026020016040519081016040528093929190818152602001838380828437600092019190915250611abb92505050565b90925090506113b96113b28783611e9c565b8390611f18565b9998505050505050505050565b336113cf610d3e565b73ffffffffffffffffffffffffffffffffffffffff161461145e576113f333610ba4565b61145e57604080517f08c379a000000000000000000000000000000000000000000000000000000000815260206004820152601660248201527f52656c617965723a206e6f7420617070726f7665642000000000000000000000604482015290519081900360640190fd5b606654604080517f22c107760000000000000000000000000000000000000000000000000000000081526002600482015260006024820181905273ffffffffffffffffffffffffffffffffffffffff868116604484015260648301869052925192909316926322c107769260848084019382900301818387803b1580156114e457600080fd5b505af11580156114f8573d6000803e3d6000fd5b505050505050565b60696020526000908152604090205460ff1681565b61151d61195e565b73ffffffffffffffffffffffffffffffffffffffff1661153b610d3e565b73ffffffffffffffffffffffffffffffffffffffff16146115bd57604080517f08c379a000000000000000000000000000000000000000000000000000000000815260206004820181905260248201527f4f776e61626c653a2063616c6c6572206973206e6f7420746865206f776e6572604482015290519081900360640190fd5b73ffffffffffffffffffffffffffffffffffffffff8116611629576040517f08c379a00000000000000000000000000000000000000000000000000000000081526004018080602001828103825260268152602001806122da6026913960400191505060405180910390fd5b60345460405173ffffffffffffffffffffffffffffffffffffffff8084169216907f8be0079c531659141344cd1fd0a4f28419497f9722a3daafe3b4186f6b6457e090600090a3603480547fffffffffffffffffffffffff00000000000000000000000000000000000000001673ffffffffffffffffffffffffffffffffffffffff92909216919091179055565b336116c0610d3e565b73ffffffffffffffffffffffffffffffffffffffff161461174f576116e433610ba4565b61174f57604080517f08c379a000000000000000000000000000000000000000000000000000000000815260206004820152601660248201527f52656c617965723a206e6f7420617070726f7665642000000000000000000000604482015290519081900360640190fd5b600260005414156117c157604080517f08c379a000000000000000000000000000000000000000000000000000000000815260206004820152601f60248201527f5265656e7472616e637947756172643a207265656e7472616e742063616c6c00604482015290519081900360640190fd5b6002600090815560405173ffffffffffffffffffffffffffffffffffffffff83169034908381818185875af1925050503d806000811461181d576040519150601f19603f3d011682016040523d82523d6000602084013e611822565b606091505b505090508061186f57604051349073ffffffffffffffffffffffffffffffffffffffff8416907f2c7a964ca3de5ec1d42d9822f9bbd0eb142a59cc9f855e9d93813b773192c7a390600090a35b6066546040517f5c01153100000000000000000000000000000000000000000000000000000000815261ffff8a166004820190815273ffffffffffffffffffffffffffffffffffffffff8a81166024840152604483018a90526064830189905260a06084840190815260a48401889052931692635c011531928c928c928c928c928c928c9260c401848480828437600081840152601f19601f820116905080830192505050975050505050505050600060405180830381600087803b15801561193757600080fd5b505af115801561194b573d6000803e3d6000fd5b5050600160005550505050505050505050565b3390565b7fb53127684a568b3173ae13b9f8a6016e243e63b6e8ee1178d6a717850b5d61035490565b600061199230611f8c565b15905090565b600154610100900460ff16806119b157506119b1611987565b806119bf575060015460ff16155b611a14576040517f08c379a000000000000000000000000000000000000000000000000000000000815260040180806020018281038252602e815260200180612300602e913960400191505060405180910390fd5b600154610100900460ff16158015611a7957600180547fffffffffffffffffffffffffffffffffffffffffffffffffffffffffffffff007fffffffffffffffffffffffffffffffffffffffffffffffffffffffffffff00ff9091166101001716811790555b611a81611f92565b611a896120a3565b8015611ab857600180547fffffffffffffffffffffffffffffffffffffffffffffffffffffffffffff00ff1690555b50565b606a54600090819074010000000000000000000000000000000000000000900460ff1615611b4a57604080517f08c379a000000000000000000000000000000000000000000000000000000000815260206004820152600d60248201527f41646d696e3a2070617573656400000000000000000000000000000000000000604482015290519081900360640190fd5b825160221480611b5b575060428351115b611bb0576040517f08c379a00000000000000000000000000000000000000000000000000000000081526004018080602001828103825260268152602001806122b46026913960400191505060405180910390fd5b6002830151602284015180611c2657604080517f08c379a000000000000000000000000000000000000000000000000000000000815260206004820152601460248201527f52656c617965723a2067617320746f6f206c6f77000000000000000000000000604482015290519081900360640190fd5b8161ffff1660011480611c3d57508161ffff166002145b611ca857604080517f08c379a000000000000000000000000000000000000000000000000000000000815260206004820152601b60248201527f52656c617965723a20756e737570706f72746564207478547970650000000000604482015290519081900360640190fd5b61ffff8881166000908152606760209081526040808320606883528184208c8616855290925282209092909190851660021415611d7457604288015182546fffffffffffffffffffffffffffffffff16811115611d6657604080517f08c379a000000000000000000000000000000000000000000000000000000000815260206004820181905260248201527f52656c617965723a206473744e6174697665416d7420746f6f206c6172676520604482015290519081900360640190fd5b611d708282611f18565b9150505b8154600090611dd390611da590700100000000000000000000000000000000900467ffffffffffffffff1687611f18565b855470010000000000000000000000000000000090046fffffffffffffffffffffffffffffffff1690611e9c565b9050611ddf8282611f18565b8454909250611e12906402540be40090611e0c9085906fffffffffffffffffffffffffffffffff16611e9c565b90612232565b84548454919950611e8b916402540be40091611e0c916fffffffffffffffffffffffffffffffff80831692611e8592700100000000000000000000000000000000909104909116907801000000000000000000000000000000000000000000000000900467ffffffffffffffff16611e9c565b90611e9c565b965050505050505094509492505050565b600082611eab57506000611f12565b82820282848281611eb857fe5b0414611f0f576040517f08c379a000000000000000000000000000000000000000000000000000000000815260040180806020018281038252602181526020018061232e6021913960400191505060405180910390fd5b90505b92915050565b600082820183811015611f0f57604080517f08c379a000000000000000000000000000000000000000000000000000000000815260206004820152601b60248201527f536166654d6174683a206164646974696f6e206f766572666c6f770000000000604482015290519081900360640190fd5b3b151590565b600154610100900460ff1680611fab5750611fab611987565b80611fb9575060015460ff16155b61200e576040517f08c379a000000000000000000000000000000000000000000000000000000000815260040180806020018281038252602e815260200180612300602e913960400191505060405180910390fd5b600154610100900460ff16158015611a8957600180547fffffffffffffffffffffffffffffffffffffffffffffffffffffffffffffff007fffffffffffffffffffffffffffffffffffffffffffffffffffffffffffff00ff9091166101001716811790558015611ab857600180547fffffffffffffffffffffffffffffffffffffffffffffffffffffffffffff00ff16905550565b600154610100900460ff16806120bc57506120bc611987565b806120ca575060015460ff16155b61211f576040517f08c379a000000000000000000000000000000000000000000000000000000000815260040180806020018281038252602e815260200180612300602e913960400191505060405180910390fd5b600154610100900460ff1615801561218457600180547fffffffffffffffffffffffffffffffffffffffffffffffffffffffffffffff007fffffffffffffffffffffffffffffffffffffffffffffffffffffffffffff00ff9091166101001716811790555b600061218e61195e565b603480547fffffffffffffffffffffffff00000000000000000000000000000000000000001673ffffffffffffffffffffffffffffffffffffffff8316908117909155604051919250906000907f8be0079c531659141344cd1fd0a4f28419497f9722a3daafe3b4186f6b6457e0908290a3508015611ab857600180547fffffffffffffffffffffffffffffffffffffffffffffffffffffffffffff00ff16905550565b60008082116122a257604080517f08c379a000000000000000000000000000000000000000000000000000000000815260206004820152601a60248201527f536166654d6174683a206469766973696f6e206279207a65726f000000000000604482015290519081900360640190fd5b8183816122ab57fe5b04939250505056fe52656c617965723a2077726f6e67205f61646170746572506172616d65746572732073697a654f776e61626c653a206e6577206f776e657220697320746865207a65726f2061646472657373496e697469616c697a61626c653a20636f6e747261637420697320616c726561647920696e697469616c697a6564536166654d6174683a206d756c7469706c69636174696f6e206f766572666c6f77a264697066735822122092e55334aaacddf908cc7889883fb67997ded121c72fc6e2652fa89202db226464736f6c63430007060033",
  "devdoc": {
    "kind": "dev",
    "methods": {
      "owner()": {
        "details": "Returns the address of the current owner."
      },
      "renounceOwnership()": {
        "details": "Leaves the contract without owner. It will not be possible to call `onlyOwner` functions anymore. Can only be called by the current owner. NOTE: Renouncing ownership will leave the contract without an owner, thereby removing any functionality that is only available to the owner."
      },
      "transferOwnership(address)": {
        "details": "Transfers ownership of the contract to a new account (`newOwner`). Can only be called by the current owner."
      }
    },
    "version": 1
  },
  "userdoc": {
    "kind": "user",
    "methods": {},
    "version": 1
  },
  "storageLayout": {
    "storage": [
      {
        "astId": 4574,
        "contract": "contracts/Relayer.sol:Relayer",
        "label": "_status",
        "offset": 0,
        "slot": "0",
        "type": "t_uint256"
      },
      {
        "astId": 2637,
        "contract": "contracts/Relayer.sol:Relayer",
        "label": "_initialized",
        "offset": 0,
        "slot": "1",
        "type": "t_bool"
      },
      {
        "astId": 2640,
        "contract": "contracts/Relayer.sol:Relayer",
        "label": "_initializing",
        "offset": 1,
        "slot": "1",
        "type": "t_bool"
      },
      {
        "astId": 2984,
        "contract": "contracts/Relayer.sol:Relayer",
        "label": "__gap",
        "offset": 0,
        "slot": "2",
        "type": "t_array(t_uint256)50_storage"
      },
      {
        "astId": 2510,
        "contract": "contracts/Relayer.sol:Relayer",
        "label": "_owner",
        "offset": 0,
        "slot": "52",
        "type": "t_address"
      },
      {
        "astId": 2629,
        "contract": "contracts/Relayer.sol:Relayer",
        "label": "__gap",
        "offset": 0,
        "slot": "53",
        "type": "t_array(t_uint256)49_storage"
      },
      {
        "astId": 6989,
        "contract": "contracts/Relayer.sol:Relayer",
        "label": "uln",
        "offset": 0,
        "slot": "102",
        "type": "t_contract(ILayerZeroUltraLightNodeV1)13602"
      },
      {
        "astId": 7005,
        "contract": "contracts/Relayer.sol:Relayer",
        "label": "dstPriceLookup",
        "offset": 0,
        "slot": "103",
        "type": "t_mapping(t_uint16,t_struct(DstPrice)6994_storage)"
      },
      {
        "astId": 7011,
        "contract": "contracts/Relayer.sol:Relayer",
        "label": "dstConfigLookup",
        "offset": 0,
        "slot": "104",
        "type": "t_mapping(t_uint16,t_mapping(t_uint16,t_struct(DstConfig)7001_storage))"
      },
      {
        "astId": 7015,
        "contract": "contracts/Relayer.sol:Relayer",
        "label": "approvedAddresses",
        "offset": 0,
        "slot": "105",
        "type": "t_mapping(t_address,t_bool)"
      },
      {
        "astId": 7037,
        "contract": "contracts/Relayer.sol:Relayer",
        "label": "stargateBridgeAddress",
        "offset": 0,
        "slot": "106",
        "type": "t_address"
      },
      {
        "astId": 7063,
        "contract": "contracts/Relayer.sol:Relayer",
        "label": "paused",
        "offset": 20,
        "slot": "106",
        "type": "t_bool"
      }
    ],
    "types": {
      "t_address": {
        "encoding": "inplace",
        "label": "address",
        "numberOfBytes": "20"
      },
      "t_array(t_uint256)49_storage": {
        "base": "t_uint256",
        "encoding": "inplace",
        "label": "uint256[49]",
        "numberOfBytes": "1568"
      },
      "t_array(t_uint256)50_storage": {
        "base": "t_uint256",
        "encoding": "inplace",
        "label": "uint256[50]",
        "numberOfBytes": "1600"
      },
      "t_bool": {
        "encoding": "inplace",
        "label": "bool",
        "numberOfBytes": "1"
      },
      "t_contract(ILayerZeroUltraLightNodeV1)13602": {
        "encoding": "inplace",
        "label": "contract ILayerZeroUltraLightNodeV1",
        "numberOfBytes": "20"
      },
      "t_mapping(t_address,t_bool)": {
        "encoding": "mapping",
        "key": "t_address",
        "label": "mapping(address => bool)",
        "numberOfBytes": "32",
        "value": "t_bool"
      },
      "t_mapping(t_uint16,t_mapping(t_uint16,t_struct(DstConfig)7001_storage))": {
        "encoding": "mapping",
        "key": "t_uint16",
        "label": "mapping(uint16 => mapping(uint16 => struct Relayer.DstConfig))",
        "numberOfBytes": "32",
        "value": "t_mapping(t_uint16,t_struct(DstConfig)7001_storage)"
      },
      "t_mapping(t_uint16,t_struct(DstConfig)7001_storage)": {
        "encoding": "mapping",
        "key": "t_uint16",
        "label": "mapping(uint16 => struct Relayer.DstConfig)",
        "numberOfBytes": "32",
        "value": "t_struct(DstConfig)7001_storage"
      },
      "t_mapping(t_uint16,t_struct(DstPrice)6994_storage)": {
        "encoding": "mapping",
        "key": "t_uint16",
        "label": "mapping(uint16 => struct Relayer.DstPrice)",
        "numberOfBytes": "32",
        "value": "t_struct(DstPrice)6994_storage"
      },
      "t_struct(DstConfig)7001_storage": {
        "encoding": "inplace",
        "label": "struct Relayer.DstConfig",
        "members": [
          {
            "astId": 6996,
            "contract": "contracts/Relayer.sol:Relayer",
            "label": "dstNativeAmtCap",
            "offset": 0,
            "slot": "0",
            "type": "t_uint128"
          },
          {
            "astId": 6998,
            "contract": "contracts/Relayer.sol:Relayer",
            "label": "baseGas",
            "offset": 16,
            "slot": "0",
            "type": "t_uint64"
          },
          {
            "astId": 7000,
            "contract": "contracts/Relayer.sol:Relayer",
            "label": "gasPerByte",
            "offset": 24,
            "slot": "0",
            "type": "t_uint64"
          }
        ],
        "numberOfBytes": "32"
      },
      "t_struct(DstPrice)6994_storage": {
        "encoding": "inplace",
        "label": "struct Relayer.DstPrice",
        "members": [
          {
            "astId": 6991,
            "contract": "contracts/Relayer.sol:Relayer",
            "label": "dstPriceRatio",
            "offset": 0,
            "slot": "0",
            "type": "t_uint128"
          },
          {
            "astId": 6993,
            "contract": "contracts/Relayer.sol:Relayer",
            "label": "dstGasPriceInWei",
            "offset": 16,
            "slot": "0",
            "type": "t_uint128"
          }
        ],
        "numberOfBytes": "32"
      },
      "t_uint128": {
        "encoding": "inplace",
        "label": "uint128",
        "numberOfBytes": "16"
      },
      "t_uint16": {
        "encoding": "inplace",
        "label": "uint16",
        "numberOfBytes": "2"
      },
      "t_uint256": {
        "encoding": "inplace",
        "label": "uint256",
        "numberOfBytes": "32"
      },
      "t_uint64": {
        "encoding": "inplace",
        "label": "uint64",
        "numberOfBytes": "8"
      }
    }
  }
}