{
  "_format": "hh-sol-artifact-1",
  "contractName": "FeeHandler",
  "sourceName": "contracts/FeeHandler.sol",
  "abi": [
    {
      "inputs": [],
      "stateMutability": "nonpayable",
      "type": "constructor"
    },
    {
      "anonymous": false,
      "inputs": [
        {
          "indexed": true,
          "internalType": "address",
          "name": "previousOwner",
          "type": "address"
        },
        {
          "indexed": true,
          "internalType": "address",
          "name": "newOwner",
          "type": "address"
        }
      ],
      "name": "OwnershipTransferred",
      "type": "event"
    },
    {
      "inputs": [
        {
          "internalType": "address",
          "name": "_uln",
          "type": "address"
        }
      ],
      "name": "approve",
      "outputs": [],
      "stateMutability": "nonpayable",
      "type": "function"
    },
    {
      "inputs": [
        {
          "internalType": "address",
          "name": "",
          "type": "address"
        }
      ],
      "name": "approved",
      "outputs": [
        {
          "internalType": "bool",
          "name": "",
          "type": "bool"
        }
      ],
      "stateMutability": "view",
      "type": "function"
    },
    {
      "inputs": [
        {
          "internalType": "address[]",
          "name": "_receivers",
          "type": "address[]"
        },
        {
          "internalType": "uint256[]",
          "name": "_amounts",
          "type": "uint256[]"
        },
        {
          "internalType": "address",
          "name": "_refundAddress",
          "type": "address"
        }
      ],
      "name": "creditFee",
      "outputs": [],
      "stateMutability": "nonpayable",
      "type": "function"
    },
    {
      "inputs": [],
      "name": "feeToken",
      "outputs": [
        {
          "internalType": "contract IERC20",
          "name": "",
          "type": "address"
        }
      ],
      "stateMutability": "view",
      "type": "function"
    },
    {
      "inputs": [],
      "name": "owner",
      "outputs": [
        {
          "internalType": "address",
          "name": "",
          "type": "address"
        }
      ],
      "stateMutability": "view",
      "type": "function"
    },
    {
      "inputs": [],
      "name": "renounceOwnership",
      "outputs": [],
      "stateMutability": "nonpayable",
      "type": "function"
    },
    {
      "inputs": [
        {
          "internalType": "address",
          "name": "_feeToken",
          "type": "address"
        }
      ],
      "name": "setFeeToken",
      "outputs": [],
      "stateMutability": "nonpayable",
      "type": "function"
    },
    {
      "inputs": [
        {
          "internalType": "address",
          "name": "newOwner",
          "type": "address"
        }
      ],
      "name": "transferOwnership",
      "outputs": [],
      "stateMutability": "nonpayable",
      "type": "function"
    }
  ],
  "bytecode": "0x608060405234801561001057600080fd5b50600061001b61006a565b600080546001600160a01b0319166001600160a01b0383169081178255604051929350917f8be0079c531659141344cd1fd0a4f28419497f9722a3daafe3b4186f6b6457e0908290a35061006e565b3390565b610da38061007d6000396000f3fe608060405234801561001057600080fd5b50600436106100885760003560e01c80638da5cb5b1161005b5780638da5cb5b146101d3578063d8b964e6146101db578063daea85c514610222578063f2fde38b1461025557610088565b806315cce2241461008d578063647846a5146100c25780636c52b469146100f3578063715018a6146101cb575b600080fd5b6100c0600480360360208110156100a357600080fd5b503573ffffffffffffffffffffffffffffffffffffffff16610288565b005b6100ca6103c8565b6040805173ffffffffffffffffffffffffffffffffffffffff9092168252519081900360200190f35b6100c06004803603606081101561010957600080fd5b81019060208101813564010000000081111561012457600080fd5b82018360208201111561013657600080fd5b8035906020019184602083028401116401000000008311171561015857600080fd5b91939092909160208101903564010000000081111561017657600080fd5b82018360208201111561018857600080fd5b803590602001918460208302840111640100000000831117156101aa57600080fd5b91935091503573ffffffffffffffffffffffffffffffffffffffff166103e4565b6100c06105e2565b6100ca6106df565b61020e600480360360208110156101f157600080fd5b503573ffffffffffffffffffffffffffffffffffffffff166106fb565b604080519115158252519081900360200190f35b6100c06004803603602081101561023857600080fd5b503573ffffffffffffffffffffffffffffffffffffffff16610710565b6100c06004803603602081101561026b57600080fd5b503573ffffffffffffffffffffffffffffffffffffffff166107ed565b61029061095a565b73ffffffffffffffffffffffffffffffffffffffff166102ae6106df565b73ffffffffffffffffffffffffffffffffffffffff1614610316576040805162461bcd60e51b815260206004820181905260248201527f4f776e61626c653a2063616c6c6572206973206e6f7420746865206f776e6572604482015290519081900360640190fd5b60015473ffffffffffffffffffffffffffffffffffffffff1615610381576040805162461bcd60e51b815260206004820181905260248201527f46656548616e646c65723a20666565546f6b656e20616c726561647920736574604482015290519081900360640190fd5b600180547fffffffffffffffffffffffff00000000000000000000000000000000000000001673ffffffffffffffffffffffffffffffffffffffff92909216919091179055565b60015473ffffffffffffffffffffffffffffffffffffffff1681565b838214610438576040805162461bcd60e51b815260206004820152601e60248201527f46656548616e646c65723a20696e76616c696420706172616d65746572730000604482015290519081900360640190fd5b3360009081526002602052604090205460ff1661049c576040805162461bcd60e51b815260206004820152601860248201527f46656548616e646c65723a206e6f7420617070726f7665640000000000000000604482015290519081900360640190fd5b60005b84811015610510576105088686838181106104b657fe5b9050602002013573ffffffffffffffffffffffffffffffffffffffff168585848181106104df57fe5b60015473ffffffffffffffffffffffffffffffffffffffff16939260209091020135905061095e565b60010161049f565b50600154604080517f70a08231000000000000000000000000000000000000000000000000000000008152306004820152905160009273ffffffffffffffffffffffffffffffffffffffff16916370a08231916024808301926020929190829003018186803b15801561058257600080fd5b505afa158015610596573d6000803e3d6000fd5b505050506040513d60208110156105ac57600080fd5b5051905080156105da576001546105da9073ffffffffffffffffffffffffffffffffffffffff16838361095e565b505050505050565b6105ea61095a565b73ffffffffffffffffffffffffffffffffffffffff166106086106df565b73ffffffffffffffffffffffffffffffffffffffff1614610670576040805162461bcd60e51b815260206004820181905260248201527f4f776e61626c653a2063616c6c6572206973206e6f7420746865206f776e6572604482015290519081900360640190fd5b6000805460405173ffffffffffffffffffffffffffffffffffffffff909116907f8be0079c531659141344cd1fd0a4f28419497f9722a3daafe3b4186f6b6457e0908390a3600080547fffffffffffffffffffffffff0000000000000000000000000000000000000000169055565b60005473ffffffffffffffffffffffffffffffffffffffff1690565b60026020526000908152604090205460ff1681565b61071861095a565b73ffffffffffffffffffffffffffffffffffffffff166107366106df565b73ffffffffffffffffffffffffffffffffffffffff161461079e576040805162461bcd60e51b815260206004820181905260248201527f4f776e61626c653a2063616c6c6572206973206e6f7420746865206f776e6572604482015290519081900360640190fd5b73ffffffffffffffffffffffffffffffffffffffff16600090815260026020526040902080547fffffffffffffffffffffffffffffffffffffffffffffffffffffffffffffff00166001179055565b6107f561095a565b73ffffffffffffffffffffffffffffffffffffffff166108136106df565b73ffffffffffffffffffffffffffffffffffffffff161461087b576040805162461bcd60e51b815260206004820181905260248201527f4f776e61626c653a2063616c6c6572206973206e6f7420746865206f776e6572604482015290519081900360640190fd5b73ffffffffffffffffffffffffffffffffffffffff81166108cd5760405162461bcd60e51b8152600401808060200182810382526026815260200180610cf86026913960400191505060405180910390fd5b6000805460405173ffffffffffffffffffffffffffffffffffffffff808516939216917f8be0079c531659141344cd1fd0a4f28419497f9722a3daafe3b4186f6b6457e091a3600080547fffffffffffffffffffffffff00000000000000000000000000000000000000001673ffffffffffffffffffffffffffffffffffffffff92909216919091179055565b3390565b6040805173ffffffffffffffffffffffffffffffffffffffff8416602482015260448082018490528251808303909101815260649091019091526020810180517bffffffffffffffffffffffffffffffffffffffffffffffffffffffff167fa9059cbb000000000000000000000000000000000000000000000000000000001790526109eb9084906109f0565b505050565b6000610a52826040518060400160405280602081526020017f5361666545524332303a206c6f772d6c6576656c2063616c6c206661696c65648152508573ffffffffffffffffffffffffffffffffffffffff16610aae9092919063ffffffff16565b8051909150156109eb57808060200190516020811015610a7157600080fd5b50516109eb5760405162461bcd60e51b815260040180806020018281038252602a815260200180610d44602a913960400191505060405180910390fd5b6060610abd8484600085610ac7565b90505b9392505050565b606082471015610b085760405162461bcd60e51b8152600401808060200182810382526026815260200180610d1e6026913960400191505060405180910390fd5b610b1185610c4d565b610b62576040805162461bcd60e51b815260206004820152601d60248201527f416464726573733a2063616c6c20746f206e6f6e2d636f6e7472616374000000604482015290519081900360640190fd5b6000808673ffffffffffffffffffffffffffffffffffffffff1685876040518082805190602001908083835b60208310610bcb57805182527fffffffffffffffffffffffffffffffffffffffffffffffffffffffffffffffe09092019160209182019101610b8e565b6001836020036101000a03801982511681845116808217855250505050505090500191505060006040518083038185875af1925050503d8060008114610c2d576040519150601f19603f3d011682016040523d82523d6000602084013e610c32565b606091505b5091509150610c42828286610c53565b979650505050505050565b3b151590565b60608315610c62575081610ac0565b825115610c725782518084602001fd5b8160405162461bcd60e51b81526004018080602001828103825283818151815260200191508051906020019080838360005b83811015610cbc578181015183820152602001610ca4565b50505050905090810190601f168015610ce95780820380516001836020036101000a031916815260200191505b509250505060405180910390fdfe4f776e61626c653a206e6577206f776e657220697320746865207a65726f2061646472657373416464726573733a20696e73756666696369656e742062616c616e636520666f722063616c6c5361666545524332303a204552433230206f7065726174696f6e20646964206e6f742073756363656564a2646970667358221220864845ab94f002a59a72286b80287eb0695225a7876f8314f1381973dc22ab6f64736f6c63430007060033",
  "linkReferences": {},
  "deployedLinkReferences": {}
}