{
  "address": "0xc4A856986b6401560e82f3C4496C9B158e487323",
  "abi": [
    {
      "anonymous": false,
      "inputs": [
        {
          "indexed": false,
          "internalType": "address",
          "name": "addr",
          "type": "address"
        },
        {
          "indexed": false,
          "internalType": "bool",
          "name": "approved",
          "type": "bool"
        }
      ],
      "name": "ApproveAddress",
      "type": "event"
    },
    {
      "anonymous": false,
      "inputs": [
        {
          "indexed": true,
          "internalType": "address",
          "name": "previousOwner",
          "type": "address"
        },
        {
          "indexed": true,
          "internalType": "address",
          "name": "newOwner",
          "type": "address"
        }
      ],
      "name": "OwnershipTransferred",
      "type": "event"
    },
    {
      "anonymous": false,
      "inputs": [
        {
          "indexed": false,
          "internalType": "address",
          "name": "to",
          "type": "address"
        },
        {
          "indexed": false,
          "internalType": "uint256",
          "name": "amount",
          "type": "uint256"
        }
      ],
      "name": "Withdraw",
      "type": "event"
    },
    {
      "anonymous": false,
      "inputs": [
        {
          "indexed": false,
          "internalType": "address",
          "name": "token",
          "type": "address"
        },
        {
          "indexed": false,
          "internalType": "address",
          "name": "to",
          "type": "address"
        },
        {
          "indexed": false,
          "internalType": "uint256",
          "name": "amount",
          "type": "uint256"
        }
      ],
      "name": "WithdrawTokens",
      "type": "event"
    },
    {
      "stateMutability": "payable",
      "type": "fallback"
    },
    {
      "inputs": [
        {
          "internalType": "address",
          "name": "",
          "type": "address"
        }
      ],
      "name": "approvedAddresses",
      "outputs": [
        {
          "internalType": "bool",
          "name": "",
          "type": "bool"
        }
      ],
      "stateMutability": "view",
      "type": "function"
    },
    {
      "inputs": [
        {
          "internalType": "uint16",
          "name": "",
          "type": "uint16"
        }
      ],
      "name": "baseGasQuantityLookup",
      "outputs": [
        {
          "internalType": "uint256",
          "name": "",
          "type": "uint256"
        }
      ],
      "stateMutability": "view",
      "type": "function"
    },
    {
      "inputs": [
        {
          "internalType": "uint16",
          "name": "",
          "type": "uint16"
        }
      ],
      "name": "dstNativeAmtCap",
      "outputs": [
        {
          "internalType": "uint256",
          "name": "",
          "type": "uint256"
        }
      ],
      "stateMutability": "view",
      "type": "function"
    },
    {
      "inputs": [
        {
          "internalType": "uint16",
          "name": "",
          "type": "uint16"
        }
      ],
      "name": "gasPerByteQuantityLookup",
      "outputs": [
        {
          "internalType": "uint256",
          "name": "",
          "type": "uint256"
        }
      ],
      "stateMutability": "view",
      "type": "function"
    },
    {
      "inputs": [
        {
          "internalType": "uint16",
          "name": "",
          "type": "uint16"
        },
        {
          "internalType": "uint16",
          "name": "",
          "type": "uint16"
        },
        {
          "internalType": "address",
          "name": "",
          "type": "address"
        },
        {
          "internalType": "uint256",
          "name": "",
          "type": "uint256"
        },
        {
          "internalType": "bytes",
          "name": "",
          "type": "bytes"
        }
      ],
      "name": "getPrice",
      "outputs": [
        {
          "internalType": "uint256",
          "name": "",
          "type": "uint256"
        }
      ],
      "stateMutability": "pure",
      "type": "function"
    },
    {
      "inputs": [
        {
          "internalType": "address",
          "name": "_uln",
          "type": "address"
        }
      ],
      "name": "initialize",
      "outputs": [],
      "stateMutability": "nonpayable",
      "type": "function"
    },
    {
      "inputs": [
        {
          "internalType": "address",
          "name": "_relayerAddress",
          "type": "address"
        }
      ],
      "name": "isApproved",
      "outputs": [
        {
          "internalType": "bool",
          "name": "",
          "type": "bool"
        }
      ],
      "stateMutability": "view",
      "type": "function"
    },
    {
      "inputs": [
        {
          "internalType": "uint16",
          "name": "_dstChainId",
          "type": "uint16"
        },
        {
          "internalType": "uint16",
          "name": "_outboundProofType",
          "type": "uint16"
        },
        {
          "internalType": "bytes",
          "name": "_adapterParams",
          "type": "bytes"
        }
      ],
      "name": "notifyRelayer",
      "outputs": [],
      "stateMutability": "nonpayable",
      "type": "function"
    },
    {
      "inputs": [],
      "name": "owner",
      "outputs": [
        {
          "internalType": "address",
          "name": "",
          "type": "address"
        }
      ],
      "stateMutability": "view",
      "type": "function"
    },
    {
      "inputs": [
        {
          "internalType": "uint16",
          "name": "",
          "type": "uint16"
        }
      ],
      "name": "priceData",
      "outputs": [
        {
          "internalType": "bytes",
          "name": "",
          "type": "bytes"
        }
      ],
      "stateMutability": "view",
      "type": "function"
    },
    {
      "inputs": [],
      "name": "renounceOwnership",
      "outputs": [],
      "stateMutability": "nonpayable",
      "type": "function"
    },
    {
      "inputs": [
        {
          "internalType": "address",
          "name": "_relayerAddress",
          "type": "address"
        },
        {
          "internalType": "bool",
          "name": "_approve",
          "type": "bool"
        }
      ],
      "name": "setApprovedAddress",
      "outputs": [],
      "stateMutability": "nonpayable",
      "type": "function"
    },
    {
      "inputs": [
        {
          "internalType": "uint16",
          "name": "_chainId",
          "type": "uint16"
        },
        {
          "internalType": "uint256",
          "name": "_dstNativeAmtCap",
          "type": "uint256"
        }
      ],
      "name": "setDstNativeAmtCap",
      "outputs": [],
      "stateMutability": "nonpayable",
      "type": "function"
    },
    {
      "inputs": [
        {
          "internalType": "uint16",
          "name": "_chainId",
          "type": "uint16"
        },
        {
          "internalType": "bytes",
          "name": "_priceData",
          "type": "bytes"
        }
      ],
      "name": "setPriceData",
      "outputs": [],
      "stateMutability": "nonpayable",
      "type": "function"
    },
    {
      "inputs": [
        {
          "internalType": "uint16",
          "name": "_chainId",
          "type": "uint16"
        },
        {
          "internalType": "uint256",
          "name": "_baseGasQuantity",
          "type": "uint256"
        },
        {
          "internalType": "uint256",
          "name": "_gasPerByteQuantity",
          "type": "uint256"
        }
      ],
      "name": "setTransactionFees",
      "outputs": [],
      "stateMutability": "nonpayable",
      "type": "function"
    },
    {
      "inputs": [
        {
          "internalType": "address",
          "name": "newOwner",
          "type": "address"
        }
      ],
      "name": "transferOwnership",
      "outputs": [],
      "stateMutability": "nonpayable",
      "type": "function"
    },
    {
      "inputs": [],
      "name": "uln",
      "outputs": [
        {
          "internalType": "contract UltraLightNode",
          "name": "",
          "type": "address"
        }
      ],
      "stateMutability": "view",
      "type": "function"
    },
    {
      "inputs": [
        {
          "internalType": "uint16",
          "name": "_srcChainId",
          "type": "uint16"
        },
        {
          "internalType": "address",
          "name": "_dstAddress",
          "type": "address"
        },
        {
          "internalType": "uint256",
          "name": "_gasLimit",
          "type": "uint256"
        },
        {
          "internalType": "bytes32",
          "name": "_blockHash",
          "type": "bytes32"
        },
        {
          "internalType": "bytes",
          "name": "_transactionProof",
          "type": "bytes"
        },
        {
          "internalType": "address payable",
          "name": "_to",
          "type": "address"
        }
      ],
      "name": "validateTransactionProof",
      "outputs": [],
      "stateMutability": "payable",
      "type": "function"
    },
    {
      "inputs": [
        {
          "internalType": "address payable",
          "name": "_to",
          "type": "address"
        },
        {
          "internalType": "uint256",
          "name": "_amount",
          "type": "uint256"
        }
      ],
      "name": "withdrawQuotedFromULN",
      "outputs": [],
      "stateMutability": "nonpayable",
      "type": "function"
    },
    {
      "stateMutability": "payable",
      "type": "receive"
    }
  ],
  "transactionHash": "0x3c0c2de80096970a8a979071887e3c7d09c309123f9946d1366f4ca82634de90",
  "args": [],
  "numDeployments": 1,
  "solcInputHash": "67be73c2d6aa1829ff28133a76e1654e",
  "bytecode": "0x608060405234801561001057600080fd5b506001600055611a79806100256000396000f3fe6080604052600436106101475760003560e01c80636c473aff116100c0578063dd42f70611610074578063ea4fa6bf11610059578063ea4fa6bf146106fb578063f136a87414610741578063f2fde38b146107815761014e565b8063dd42f7061461058a578063e54a2215146106485761014e565b80638da5cb5b116100a55780638da5cb5b14610492578063c4d66de8146104a7578063c913ffb4146104e75761014e565b80636c473aff1461043f578063715018a61461047d5761014e565b806342550d9b11610117578063575765e2116100fc578063575765e21461037557806361a7dde7146103bd578063673448dd146103eb5761014e565b806342550d9b146102835780634ecab1f41461033b5761014e565b80626959591461015057806318bebbf6146101905780632fc7cfca146101c45780633a5fb82a146101f25761014e565b3661014e57005b005b34801561015c57600080fd5b5061017e6004803603602081101561017357600080fd5b503561ffff166107c1565b60408051918252519081900360200190f35b34801561019c57600080fd5b5061014e600480360360408110156101b357600080fd5b5061ffff81351690602001356107d3565b3480156101d057600080fd5b5061017e600480360360208110156101e757600080fd5b503561ffff16610882565b3480156101fe57600080fd5b5061014e6004803603606081101561021557600080fd5b61ffff823581169260208101359091169181019060608101604082013564010000000081111561024457600080fd5b82018360208201111561025657600080fd5b8035906020019184600183028401116401000000008311171561027857600080fd5b509092509050610894565b61014e600480360360c081101561029957600080fd5b61ffff8235169173ffffffffffffffffffffffffffffffffffffffff6020820135169160408201359160608101359181019060a0810160808201356401000000008111156102e657600080fd5b8201836020820111156102f857600080fd5b8035906020019184600183028401116401000000008311171561031a57600080fd5b91935091503573ffffffffffffffffffffffffffffffffffffffff1661089a565b34801561034757600080fd5b5061014e6004803603606081101561035e57600080fd5b5061ffff8135169060208101359060400135610b6c565b34801561038157600080fd5b5061014e6004803603604081101561039857600080fd5b5073ffffffffffffffffffffffffffffffffffffffff81351690602001351515610c37565b3480156103c957600080fd5b5061017e600480360360208110156103e057600080fd5b503561ffff16610cc6565b3480156103f757600080fd5b5061042b6004803603602081101561040e57600080fd5b503573ffffffffffffffffffffffffffffffffffffffff16610cd8565b604080519115158252519081900360200190f35b34801561044b57600080fd5b50610454610d03565b6040805173ffffffffffffffffffffffffffffffffffffffff9092168252519081900360200190f35b34801561048957600080fd5b5061014e610d1f565b34801561049e57600080fd5b50610454610e36565b3480156104b357600080fd5b5061014e600480360360208110156104ca57600080fd5b503573ffffffffffffffffffffffffffffffffffffffff16610e52565b3480156104f357600080fd5b506105156004803603602081101561050a57600080fd5b503561ffff1661103f565b6040805160208082528351818301528351919283929083019185019080838360005b8381101561054f578181015183820152602001610537565b50505050905090810190601f16801561057c5780820380516001836020036101000a031916815260200191505b509250505060405180910390f35b34801561059657600080fd5b5061014e600480360360408110156105ad57600080fd5b61ffff82351691908101906040810160208201356401000000008111156105d357600080fd5b8201836020820111156105e557600080fd5b8035906020019184600183028401116401000000008311171561060757600080fd5b91908080601f0160208091040260200160405190810160405280939291908181526020018383808284376000920191909152509295506110f8945050505050565b34801561065457600080fd5b5061017e600480360360a081101561066b57600080fd5b61ffff823581169260208101359091169173ffffffffffffffffffffffffffffffffffffffff6040830135169160608101359181019060a0810160808201356401000000008111156106bc57600080fd5b8201836020820111156106ce57600080fd5b803590602001918460018302840111640100000000831117156106f057600080fd5b5090925090506111b4565b34801561070757600080fd5b5061014e6004803603604081101561071e57600080fd5b5073ffffffffffffffffffffffffffffffffffffffff81351690602001356111c1565b34801561074d57600080fd5b5061042b6004803603602081101561076457600080fd5b503573ffffffffffffffffffffffffffffffffffffffff16611394565b34801561078d57600080fd5b5061014e600480360360208110156107a457600080fd5b503573ffffffffffffffffffffffffffffffffffffffff166113a9565b60676020526000908152604090205481565b336107dc610e36565b73ffffffffffffffffffffffffffffffffffffffff161461086b5761080033610cd8565b61086b57604080517f08c379a000000000000000000000000000000000000000000000000000000000815260206004820152601560248201527f52656c617965723a206e6f7420617070726f7665640000000000000000000000604482015290519081900360640190fd5b61ffff909116600090815260676020526040902055565b60696020526000908152604090205481565b50505050565b336108a3610e36565b73ffffffffffffffffffffffffffffffffffffffff1614610932576108c733610cd8565b61093257604080517f08c379a000000000000000000000000000000000000000000000000000000000815260206004820152601560248201527f52656c617965723a206e6f7420617070726f7665640000000000000000000000604482015290519081900360640190fd5b600260005414156109a457604080517f08c379a000000000000000000000000000000000000000000000000000000000815260206004820152601f60248201527f5265656e7472616e637947756172643a207265656e7472616e742063616c6c00604482015290519081900360640190fd5b60026000553415610a7e5760405160009073ffffffffffffffffffffffffffffffffffffffff83169034908381818185875af1925050503d8060008114610a07576040519150601f19603f3d011682016040523d82523d6000602084013e610a0c565b606091505b5050905080610a7c57604080517f08c379a000000000000000000000000000000000000000000000000000000000815260206004820152601d60248201527f52656c617965723a206661696c656420746f2073656e64206574686572000000604482015290519081900360640190fd5b505b6066546040517f5c01153100000000000000000000000000000000000000000000000000000000815261ffff89166004820190815273ffffffffffffffffffffffffffffffffffffffff8981166024840152604483018990526064830188905260a06084840190815260a48401879052931692635c011531928b928b928b928b928b928b9260c401848480828437600081840152601f19601f820116905080830192505050975050505050505050600060405180830381600087803b158015610b4657600080fd5b505af1158015610b5a573d6000803e3d6000fd5b50506001600055505050505050505050565b610b7461154b565b73ffffffffffffffffffffffffffffffffffffffff16610b92610e36565b73ffffffffffffffffffffffffffffffffffffffff1614610c1457604080517f08c379a000000000000000000000000000000000000000000000000000000000815260206004820181905260248201527f4f776e61626c653a2063616c6c6572206973206e6f7420746865206f776e6572604482015290519081900360640190fd5b61ffff909216600090815260696020908152604080832093909355606a90522055565b73ffffffffffffffffffffffffffffffffffffffff82166000818152606b602090815260409182902080547fffffffffffffffffffffffffffffffffffffffffffffffffffffffffffffff001685151590811790915582519384529083015280517fb10786d0bfa68fb1aa29552d9203e5f545f7c073ff0784da1de1d800986f10239281900390910190a15050565b606a6020526000908152604090205481565b73ffffffffffffffffffffffffffffffffffffffff166000908152606b602052604090205460ff1690565b60665473ffffffffffffffffffffffffffffffffffffffff1681565b610d2761154b565b73ffffffffffffffffffffffffffffffffffffffff16610d45610e36565b73ffffffffffffffffffffffffffffffffffffffff1614610dc757604080517f08c379a000000000000000000000000000000000000000000000000000000000815260206004820181905260248201527f4f776e61626c653a2063616c6c6572206973206e6f7420746865206f776e6572604482015290519081900360640190fd5b60345460405160009173ffffffffffffffffffffffffffffffffffffffff16907f8be0079c531659141344cd1fd0a4f28419497f9722a3daafe3b4186f6b6457e0908390a3603480547fffffffffffffffffffffffff0000000000000000000000000000000000000000169055565b60345473ffffffffffffffffffffffffffffffffffffffff1690565b6000610e5c61154f565b905073ffffffffffffffffffffffffffffffffffffffff8116610eb55773ffffffffffffffffffffffffffffffffffffffff7fb53127684a568b3173ae13b9f8a6016e243e63b6e8ee1178d6a717850b5d610355610ed7565b3373ffffffffffffffffffffffffffffffffffffffff821614610ed757600080fd5b600154610100900460ff1680610ef05750610ef0611574565b80610efe575060015460ff16155b610f53576040517f08c379a000000000000000000000000000000000000000000000000000000000815260040180806020018281038252602e815260200180611a16602e913960400191505060405180910390fd5b600154610100900460ff16158015610fb857600180547fffffffffffffffffffffffffffffffffffffffffffffffffffffffffffffff007fffffffffffffffffffffffffffffffffffffffffffffffffffffffffffff00ff9091166101001716811790555b610fc0611585565b606680547fffffffffffffffffffffffff00000000000000000000000000000000000000001673ffffffffffffffffffffffffffffffffffffffff851617905561100b306001610c37565b801561103a57600180547fffffffffffffffffffffffffffffffffffffffffffffffffffffffffffff00ff1690555b505050565b60686020908152600091825260409182902080548351601f60027fffffffffffffffffffffffffffffffffffffffffffffffffffffffffffffffff610100600186161502019093169290920491820184900484028101840190945280845290918301828280156110f05780601f106110c5576101008083540402835291602001916110f0565b820191906000526020600020905b8154815290600101906020018083116110d357829003601f168201915b505050505081565b33611101610e36565b73ffffffffffffffffffffffffffffffffffffffff16146111905761112533610cd8565b61119057604080517f08c379a000000000000000000000000000000000000000000000000000000000815260206004820152601560248201527f52656c617965723a206e6f7420617070726f7665640000000000000000000000604482015290519081900360640190fd5b61ffff82166000908152606860209081526040909120825161103a9284019061194e565b6103e89695505050505050565b336111ca610e36565b73ffffffffffffffffffffffffffffffffffffffff1614611259576111ee33610cd8565b61125957604080517f08c379a000000000000000000000000000000000000000000000000000000000815260206004820152601560248201527f52656c617965723a206e6f7420617070726f7665640000000000000000000000604482015290519081900360640190fd5b606654604080517ff9dd8e0f000000000000000000000000000000000000000000000000000000008152905173ffffffffffffffffffffffffffffffffffffffff909216916322c1077691839163f9dd8e0f91600480820192602092909190829003018186803b1580156112cc57600080fd5b505afa1580156112e0573d6000803e3d6000fd5b505050506040513d60208110156112f657600080fd5b5051604080517fffffffff0000000000000000000000000000000000000000000000000000000060e085901b16815260ff909216600483015260006024830181905273ffffffffffffffffffffffffffffffffffffffff8716604484015260648301869052905160848084019382900301818387803b15801561137857600080fd5b505af115801561138c573d6000803e3d6000fd5b505050505050565b606b6020526000908152604090205460ff1681565b6113b161154b565b73ffffffffffffffffffffffffffffffffffffffff166113cf610e36565b73ffffffffffffffffffffffffffffffffffffffff161461145157604080517f08c379a000000000000000000000000000000000000000000000000000000000815260206004820181905260248201527f4f776e61626c653a2063616c6c6572206973206e6f7420746865206f776e6572604482015290519081900360640190fd5b73ffffffffffffffffffffffffffffffffffffffff81166114bd576040517f08c379a00000000000000000000000000000000000000000000000000000000081526004018080602001828103825260268152602001806119f06026913960400191505060405180910390fd5b60345460405173ffffffffffffffffffffffffffffffffffffffff8084169216907f8be0079c531659141344cd1fd0a4f28419497f9722a3daafe3b4186f6b6457e090600090a3603480547fffffffffffffffffffffffff00000000000000000000000000000000000000001673ffffffffffffffffffffffffffffffffffffffff92909216919091179055565b3390565b7fb53127684a568b3173ae13b9f8a6016e243e63b6e8ee1178d6a717850b5d61035490565b600061157f306116a8565b15905090565b600154610100900460ff168061159e575061159e611574565b806115ac575060015460ff16155b611601576040517f08c379a000000000000000000000000000000000000000000000000000000000815260040180806020018281038252602e815260200180611a16602e913960400191505060405180910390fd5b600154610100900460ff1615801561166657600180547fffffffffffffffffffffffffffffffffffffffffffffffffffffffffffffff007fffffffffffffffffffffffffffffffffffffffffffffffffffffffffffff00ff9091166101001716811790555b61166e6116ae565b6116766117bf565b80156116a557600180547fffffffffffffffffffffffffffffffffffffffffffffffffffffffffffff00ff1690555b50565b3b151590565b600154610100900460ff16806116c757506116c7611574565b806116d5575060015460ff16155b61172a576040517f08c379a000000000000000000000000000000000000000000000000000000000815260040180806020018281038252602e815260200180611a16602e913960400191505060405180910390fd5b600154610100900460ff1615801561167657600180547fffffffffffffffffffffffffffffffffffffffffffffffffffffffffffffff007fffffffffffffffffffffffffffffffffffffffffffffffffffffffffffff00ff90911661010017168117905580156116a557600180547fffffffffffffffffffffffffffffffffffffffffffffffffffffffffffff00ff16905550565b600154610100900460ff16806117d857506117d8611574565b806117e6575060015460ff16155b61183b576040517f08c379a000000000000000000000000000000000000000000000000000000000815260040180806020018281038252602e815260200180611a16602e913960400191505060405180910390fd5b600154610100900460ff161580156118a057600180547fffffffffffffffffffffffffffffffffffffffffffffffffffffffffffffff007fffffffffffffffffffffffffffffffffffffffffffffffffffffffffffff00ff9091166101001716811790555b60006118aa61154b565b603480547fffffffffffffffffffffffff00000000000000000000000000000000000000001673ffffffffffffffffffffffffffffffffffffffff8316908117909155604051919250906000907f8be0079c531659141344cd1fd0a4f28419497f9722a3daafe3b4186f6b6457e0908290a35080156116a557600180547fffffffffffffffffffffffffffffffffffffffffffffffffffffffffffff00ff16905550565b828054600181600116156101000203166002900490600052602060002090601f01602090048101928261198457600085556119ca565b82601f1061199d57805160ff19168380011785556119ca565b828001600101855582156119ca579182015b828111156119ca5782518255916020019190600101906119af565b506119d69291506119da565b5090565b5b808211156119d657600081556001016119db56fe4f776e61626c653a206e6577206f776e657220697320746865207a65726f2061646472657373496e697469616c697a61626c653a20636f6e747261637420697320616c726561647920696e697469616c697a6564a2646970667358221220c81ac3d0f4f2b2c3a1e56e11450c5f7481df657d096e9e243c0eae7d13ac116064736f6c63430007060033",
  "devdoc": {
    "kind": "dev",
    "methods": {
      "owner()": {
        "details": "Returns the address of the current owner."
      },
      "renounceOwnership()": {
        "details": "Leaves the contract without owner. It will not be possible to call `onlyOwner` functions anymore. Can only be called by the current owner. NOTE: Renouncing ownership will leave the contract without an owner, thereby removing any functionality that is only available to the owner."
      },
      "transferOwnership(address)": {
        "details": "Transfers ownership of the contract to a new account (`newOwner`). Can only be called by the current owner."
      }
    },
    "version": 1
  },
  "userdoc": {
    "kind": "user",
    "methods": {},
    "version": 1
  },
  "storageLayout": {
    "storage": [
      {
        "astId": 6093,
        "contract": "contracts/mocks/LayerZeroRelayerMock.sol:LayerZeroRelayerMock",
        "label": "_status",
        "offset": 0,
        "slot": "0",
        "type": "t_uint256"
      },
      {
        "astId": 4156,
        "contract": "contracts/mocks/LayerZeroRelayerMock.sol:LayerZeroRelayerMock",
        "label": "_initialized",
        "offset": 0,
        "slot": "1",
        "type": "t_bool"
      },
      {
        "astId": 4159,
        "contract": "contracts/mocks/LayerZeroRelayerMock.sol:LayerZeroRelayerMock",
        "label": "_initializing",
        "offset": 1,
        "slot": "1",
        "type": "t_bool"
      },
      {
        "astId": 4503,
        "contract": "contracts/mocks/LayerZeroRelayerMock.sol:LayerZeroRelayerMock",
        "label": "__gap",
        "offset": 0,
        "slot": "2",
        "type": "t_array(t_uint256)50_storage"
      },
      {
        "astId": 4029,
        "contract": "contracts/mocks/LayerZeroRelayerMock.sol:LayerZeroRelayerMock",
        "label": "_owner",
        "offset": 0,
        "slot": "52",
        "type": "t_address"
      },
      {
        "astId": 4148,
        "contract": "contracts/mocks/LayerZeroRelayerMock.sol:LayerZeroRelayerMock",
        "label": "__gap",
        "offset": 0,
        "slot": "53",
        "type": "t_array(t_uint256)49_storage"
      },
      {
        "astId": 11378,
        "contract": "contracts/mocks/LayerZeroRelayerMock.sol:LayerZeroRelayerMock",
        "label": "uln",
        "offset": 0,
        "slot": "102",
        "type": "t_contract(UltraLightNode)9885"
      },
      {
        "astId": 11382,
        "contract": "contracts/mocks/LayerZeroRelayerMock.sol:LayerZeroRelayerMock",
        "label": "dstNativeAmtCap",
        "offset": 0,
        "slot": "103",
        "type": "t_mapping(t_uint16,t_uint256)"
      },
      {
        "astId": 11386,
        "contract": "contracts/mocks/LayerZeroRelayerMock.sol:LayerZeroRelayerMock",
        "label": "priceData",
        "offset": 0,
        "slot": "104",
        "type": "t_mapping(t_uint16,t_bytes_storage)"
      },
      {
        "astId": 11390,
        "contract": "contracts/mocks/LayerZeroRelayerMock.sol:LayerZeroRelayerMock",
        "label": "baseGasQuantityLookup",
        "offset": 0,
        "slot": "105",
        "type": "t_mapping(t_uint16,t_uint256)"
      },
      {
        "astId": 11394,
        "contract": "contracts/mocks/LayerZeroRelayerMock.sol:LayerZeroRelayerMock",
        "label": "gasPerByteQuantityLookup",
        "offset": 0,
        "slot": "106",
        "type": "t_mapping(t_uint16,t_uint256)"
      },
      {
        "astId": 11398,
        "contract": "contracts/mocks/LayerZeroRelayerMock.sol:LayerZeroRelayerMock",
        "label": "approvedAddresses",
        "offset": 0,
        "slot": "107",
        "type": "t_mapping(t_address,t_bool)"
      }
    ],
    "types": {
      "t_address": {
        "encoding": "inplace",
        "label": "address",
        "numberOfBytes": "20"
      },
      "t_array(t_uint256)49_storage": {
        "base": "t_uint256",
        "encoding": "inplace",
        "label": "uint256[49]",
        "numberOfBytes": "1568"
      },
      "t_array(t_uint256)50_storage": {
        "base": "t_uint256",
        "encoding": "inplace",
        "label": "uint256[50]",
        "numberOfBytes": "1600"
      },
      "t_bool": {
        "encoding": "inplace",
        "label": "bool",
        "numberOfBytes": "1"
      },
      "t_bytes_storage": {
        "encoding": "bytes",
        "label": "bytes",
        "numberOfBytes": "32"
      },
      "t_contract(UltraLightNode)9885": {
        "encoding": "inplace",
        "label": "contract UltraLightNode",
        "numberOfBytes": "20"
      },
      "t_mapping(t_address,t_bool)": {
        "encoding": "mapping",
        "key": "t_address",
        "label": "mapping(address => bool)",
        "numberOfBytes": "32",
        "value": "t_bool"
      },
      "t_mapping(t_uint16,t_bytes_storage)": {
        "encoding": "mapping",
        "key": "t_uint16",
        "label": "mapping(uint16 => bytes)",
        "numberOfBytes": "32",
        "value": "t_bytes_storage"
      },
      "t_mapping(t_uint16,t_uint256)": {
        "encoding": "mapping",
        "key": "t_uint16",
        "label": "mapping(uint16 => uint256)",
        "numberOfBytes": "32",
        "value": "t_uint256"
      },
      "t_uint16": {
        "encoding": "inplace",
        "label": "uint16",
        "numberOfBytes": "2"
      },
      "t_uint256": {
        "encoding": "inplace",
        "label": "uint256",
        "numberOfBytes": "32"
      }
    }
  }
}