{
  "address": "0x9aD0958902A56729f139805C7378Ff13E88eCcA7",
  "abi": [
    {
      "anonymous": false,
      "inputs": [
        {
          "indexed": true,
          "internalType": "bytes32",
          "name": "id",
          "type": "bytes32"
        }
      ],
      "name": "ChainlinkCancelled",
      "type": "event"
    },
    {
      "anonymous": false,
      "inputs": [
        {
          "indexed": true,
          "internalType": "bytes32",
          "name": "id",
          "type": "bytes32"
        }
      ],
      "name": "ChainlinkFulfilled",
      "type": "event"
    },
    {
      "anonymous": false,
      "inputs": [
        {
          "indexed": true,
          "internalType": "bytes32",
          "name": "id",
          "type": "bytes32"
        }
      ],
      "name": "ChainlinkRequested",
      "type": "event"
    },
    {
      "anonymous": false,
      "inputs": [
        {
          "indexed": true,
          "internalType": "address",
          "name": "previousOwner",
          "type": "address"
        },
        {
          "indexed": true,
          "internalType": "address",
          "name": "newOwner",
          "type": "address"
        }
      ],
      "name": "OwnershipTransferred",
      "type": "event"
    },
    {
      "anonymous": false,
      "inputs": [
        {
          "indexed": false,
          "internalType": "bytes32",
          "name": "requestId",
          "type": "bytes32"
        },
        {
          "indexed": false,
          "internalType": "bytes32",
          "name": "result",
          "type": "bytes32"
        }
      ],
      "name": "Result",
      "type": "event"
    },
    {
      "anonymous": false,
      "inputs": [
        {
          "indexed": false,
          "internalType": "address",
          "name": "to",
          "type": "address"
        },
        {
          "indexed": false,
          "internalType": "uint256",
          "name": "amount",
          "type": "uint256"
        }
      ],
      "name": "Withdraw",
      "type": "event"
    },
    {
      "anonymous": false,
      "inputs": [
        {
          "indexed": false,
          "internalType": "address",
          "name": "token",
          "type": "address"
        },
        {
          "indexed": false,
          "internalType": "address",
          "name": "to",
          "type": "address"
        },
        {
          "indexed": false,
          "internalType": "uint256",
          "name": "amount",
          "type": "uint256"
        }
      ],
      "name": "WithdrawTokens",
      "type": "event"
    },
    {
      "stateMutability": "payable",
      "type": "fallback"
    },
    {
      "inputs": [],
      "name": "LINK",
      "outputs": [
        {
          "internalType": "address",
          "name": "",
          "type": "address"
        }
      ],
      "stateMutability": "view",
      "type": "function"
    },
    {
      "inputs": [
        {
          "internalType": "address",
          "name": "_token",
          "type": "address"
        },
        {
          "internalType": "address",
          "name": "_spender",
          "type": "address"
        },
        {
          "internalType": "uint256",
          "name": "_amount",
          "type": "uint256"
        }
      ],
      "name": "approveToken",
      "outputs": [],
      "stateMutability": "nonpayable",
      "type": "function"
    },
    {
      "inputs": [
        {
          "internalType": "address",
          "name": "",
          "type": "address"
        }
      ],
      "name": "approvedAddresses",
      "outputs": [
        {
          "internalType": "bool",
          "name": "",
          "type": "bool"
        }
      ],
      "stateMutability": "view",
      "type": "function"
    },
    {
      "inputs": [],
      "name": "arbSys",
      "outputs": [
        {
          "internalType": "contract ArbSys",
          "name": "",
          "type": "address"
        }
      ],
      "stateMutability": "view",
      "type": "function"
    },
    {
      "inputs": [],
      "name": "calledInBlock",
      "outputs": [
        {
          "internalType": "uint256",
          "name": "",
          "type": "uint256"
        }
      ],
      "stateMutability": "view",
      "type": "function"
    },
    {
      "inputs": [
        {
          "internalType": "uint16",
          "name": "",
          "type": "uint16"
        },
        {
          "internalType": "uint16",
          "name": "",
          "type": "uint16"
        }
      ],
      "name": "chainPriceLookup",
      "outputs": [
        {
          "internalType": "uint256",
          "name": "",
          "type": "uint256"
        }
      ],
      "stateMutability": "view",
      "type": "function"
    },
    {
      "inputs": [
        {
          "internalType": "uint16",
          "name": "",
          "type": "uint16"
        }
      ],
      "name": "deliveryAddressLookup",
      "outputs": [
        {
          "internalType": "bytes",
          "name": "",
          "type": "bytes"
        }
      ],
      "stateMutability": "view",
      "type": "function"
    },
    {
      "inputs": [],
      "name": "endpointId",
      "outputs": [
        {
          "internalType": "uint16",
          "name": "",
          "type": "uint16"
        }
      ],
      "stateMutability": "view",
      "type": "function"
    },
    {
      "inputs": [
        {
          "internalType": "bytes32",
          "name": "_requestId",
          "type": "bytes32"
        },
        {
          "internalType": "bytes32",
          "name": "_result",
          "type": "bytes32"
        }
      ],
      "name": "fulfillNotificationOfBlock",
      "outputs": [],
      "stateMutability": "nonpayable",
      "type": "function"
    },
    {
      "inputs": [],
      "name": "getBlockForOracleJob",
      "outputs": [
        {
          "internalType": "uint256",
          "name": "",
          "type": "uint256"
        }
      ],
      "stateMutability": "view",
      "type": "function"
    },
    {
      "inputs": [
        {
          "internalType": "uint16",
          "name": "_destinationChainId",
          "type": "uint16"
        },
        {
          "internalType": "uint16",
          "name": "_outboundProofType",
          "type": "uint16"
        }
      ],
      "name": "getPrice",
      "outputs": [
        {
          "internalType": "uint256",
          "name": "price",
          "type": "uint256"
        }
      ],
      "stateMutability": "view",
      "type": "function"
    },
    {
      "inputs": [
        {
          "internalType": "address",
          "name": "_linkAddress",
          "type": "address"
        },
        {
          "internalType": "uint16",
          "name": "_endpointId",
          "type": "uint16"
        }
      ],
      "name": "initialize",
      "outputs": [],
      "stateMutability": "nonpayable",
      "type": "function"
    },
    {
      "inputs": [
        {
          "internalType": "uint256",
          "name": "value",
          "type": "uint256"
        }
      ],
      "name": "int2str",
      "outputs": [
        {
          "internalType": "string",
          "name": "",
          "type": "string"
        }
      ],
      "stateMutability": "pure",
      "type": "function"
    },
    {
      "inputs": [
        {
          "internalType": "address",
          "name": "_relayerAddress",
          "type": "address"
        }
      ],
      "name": "isApproved",
      "outputs": [
        {
          "internalType": "bool",
          "name": "",
          "type": "bool"
        }
      ],
      "stateMutability": "view",
      "type": "function"
    },
    {
      "inputs": [],
      "name": "isArbitrumChain",
      "outputs": [
        {
          "internalType": "bool",
          "name": "",
          "type": "bool"
        }
      ],
      "stateMutability": "view",
      "type": "function"
    },
    {
      "inputs": [
        {
          "internalType": "uint16",
          "name": "",
          "type": "uint16"
        }
      ],
      "name": "jobs",
      "outputs": [
        {
          "internalType": "address",
          "name": "oracle",
          "type": "address"
        },
        {
          "internalType": "bytes32",
          "name": "id",
          "type": "bytes32"
        },
        {
          "internalType": "uint256",
          "name": "fee",
          "type": "uint256"
        },
        {
          "internalType": "uint256",
          "name": "calledInBlock",
          "type": "uint256"
        }
      ],
      "stateMutability": "view",
      "type": "function"
    },
    {
      "inputs": [
        {
          "internalType": "uint16",
          "name": "_dstChainId",
          "type": "uint16"
        },
        {
          "internalType": "uint16",
          "name": "_outboundProofType",
          "type": "uint16"
        },
        {
          "internalType": "uint64",
          "name": "_outboundBlockConfirmations",
          "type": "uint64"
        }
      ],
      "name": "notifyOracle",
      "outputs": [],
      "stateMutability": "nonpayable",
      "type": "function"
    },
    {
      "inputs": [
        {
          "internalType": "uint16",
          "name": "_dstChainId",
          "type": "uint16"
        },
        {
          "internalType": "uint16",
          "name": "_outboundProofType",
          "type": "uint16"
        },
        {
          "internalType": "uint64",
          "name": "_outboundBlockConfirmations",
          "type": "uint64"
        },
        {
          "internalType": "uint256",
          "name": "targetBlockNum",
          "type": "uint256"
        }
      ],
      "name": "notifyOracleOfBlock",
      "outputs": [],
      "stateMutability": "nonpayable",
      "type": "function"
    },
    {
      "inputs": [],
      "name": "owner",
      "outputs": [
        {
          "internalType": "address",
          "name": "",
          "type": "address"
        }
      ],
      "stateMutability": "view",
      "type": "function"
    },
    {
      "inputs": [],
      "name": "renounceOwnership",
      "outputs": [],
      "stateMutability": "nonpayable",
      "type": "function"
    },
    {
      "inputs": [
        {
          "internalType": "address",
          "name": "_oracleAddress",
          "type": "address"
        },
        {
          "internalType": "bool",
          "name": "_approve",
          "type": "bool"
        }
      ],
      "name": "setApprovedAddress",
      "outputs": [],
      "stateMutability": "nonpayable",
      "type": "function"
    },
    {
      "inputs": [
        {
          "internalType": "uint16",
          "name": "_dstChainId",
          "type": "uint16"
        },
        {
          "internalType": "address",
          "name": "_deliveryAddress",
          "type": "address"
        }
      ],
      "name": "setDeliveryAddress",
      "outputs": [],
      "stateMutability": "nonpayable",
      "type": "function"
    },
    {
      "inputs": [
        {
          "internalType": "uint16",
          "name": "_endpointId",
          "type": "uint16"
        }
      ],
      "name": "setEndpointId",
      "outputs": [],
      "stateMutability": "nonpayable",
      "type": "function"
    },
    {
      "inputs": [
        {
          "internalType": "uint16",
          "name": "_chain",
          "type": "uint16"
        },
        {
          "internalType": "address",
          "name": "_oracle",
          "type": "address"
        },
        {
          "internalType": "bytes32",
          "name": "_id",
          "type": "bytes32"
        },
        {
          "internalType": "uint256",
          "name": "_fee",
          "type": "uint256"
        }
      ],
      "name": "setJob",
      "outputs": [],
      "stateMutability": "nonpayable",
      "type": "function"
    },
    {
      "inputs": [
        {
          "internalType": "uint16",
          "name": "_destinationChainId",
          "type": "uint16"
        },
        {
          "internalType": "uint16",
          "name": "_outboundProofType",
          "type": "uint16"
        },
        {
          "internalType": "uint256",
          "name": "_price",
          "type": "uint256"
        }
      ],
      "name": "setPrice",
      "outputs": [],
      "stateMutability": "nonpayable",
      "type": "function"
    },
    {
      "inputs": [
        {
          "internalType": "address",
          "name": "ulnAddress",
          "type": "address"
        }
      ],
      "name": "setUln",
      "outputs": [],
      "stateMutability": "nonpayable",
      "type": "function"
    },
    {
      "inputs": [
        {
          "internalType": "uint256",
          "name": "value",
          "type": "uint256"
        }
      ],
      "name": "toHexString",
      "outputs": [
        {
          "internalType": "string",
          "name": "",
          "type": "string"
        }
      ],
      "stateMutability": "view",
      "type": "function"
    },
    {
      "inputs": [
        {
          "internalType": "address",
          "name": "newOwner",
          "type": "address"
        }
      ],
      "name": "transferOwnership",
      "outputs": [],
      "stateMutability": "nonpayable",
      "type": "function"
    },
    {
      "inputs": [],
      "name": "uln",
      "outputs": [
        {
          "internalType": "contract ILayerZeroUltraLightNodeV1",
          "name": "",
          "type": "address"
        }
      ],
      "stateMutability": "view",
      "type": "function"
    },
    {
      "inputs": [
        {
          "internalType": "uint16",
          "name": "_remoteChainId",
          "type": "uint16"
        },
        {
          "internalType": "bytes32",
          "name": "_blockHash",
          "type": "bytes32"
        },
        {
          "internalType": "uint256",
          "name": "_confirmations",
          "type": "uint256"
        },
        {
          "internalType": "bytes32",
          "name": "_data",
          "type": "bytes32"
        }
      ],
      "name": "updateHash",
      "outputs": [],
      "stateMutability": "nonpayable",
      "type": "function"
    },
    {
      "inputs": [
        {
          "internalType": "address payable",
          "name": "_to",
          "type": "address"
        },
        {
          "internalType": "uint256",
          "name": "_amount",
          "type": "uint256"
        }
      ],
      "name": "withdraw",
      "outputs": [],
      "stateMutability": "nonpayable",
      "type": "function"
    },
    {
      "inputs": [
        {
          "internalType": "uint256",
          "name": "amount",
          "type": "uint256"
        }
      ],
      "name": "withdrawOracleQuotedFee",
      "outputs": [],
      "stateMutability": "nonpayable",
      "type": "function"
    },
    {
      "inputs": [
        {
          "internalType": "address",
          "name": "_token",
          "type": "address"
        },
        {
          "internalType": "address",
          "name": "_to",
          "type": "address"
        },
        {
          "internalType": "uint256",
          "name": "_amount",
          "type": "uint256"
        }
      ],
      "name": "withdrawTokens",
      "outputs": [],
      "stateMutability": "nonpayable",
      "type": "function"
    },
    {
      "stateMutability": "payable",
      "type": "receive"
    }
  ],
  "transactionHash": "0x919954788d11dfb2081e4141f1c46a39f8ee1448a1c5397721cc381ba2f21801",
  "args": [],
  "numDeployments": 2,
  "solcInputHash": "6b7ae16ff2b4aed952b186ab68462c3d",
  "bytecode": "0x6080604052600160045534801561001557600080fd5b5060016006556140378061002a6000396000f3fe6080604052600436106102025760003560e01c8063704316e51161011d578063adb86f1a116100b0578063da3e33971161007f578063f2fde38b11610064578063f2fde38b146108e1578063f39e69a414610921578063f3fef3a31461096b57610209565b8063da3e339714610851578063f136a874146108a157610209565b8063adb86f1a1461076f578063bccc96d51461079d578063c758b017146107db578063cd84b89d1461081157610209565b80638ec5656d116100ec5780638ec5656d146106d65780638fba8d5c146107005780639642c1e61461072a5780639c1b1c361461073f57610209565b8063704316e514610640578063715018a61461068057806377e20df8146106955780638da5cb5b146106c157610209565b8063421a7f561161019557806366530579116101645780636653057914610540578063673448dd146105895780636c473aff146105dd5780636e66e976146105f257610209565b8063421a7f5614610428578063575765e2146104935780635e35359e146104db5780636183e86a1461052b57610209565b80631b570c25116101d15780631b570c25146103865780631b6b6d231461039b5780631c783a81146103b05780632ca4a5b0146103de57610209565b8063059416441461020b5780630b4d5107146102615780631057d40f146102a957806313d821f4146102e757610209565b3661020957005b005b34801561021757600080fd5b506102096004803603608081101561022e57600080fd5b5061ffff8135169073ffffffffffffffffffffffffffffffffffffffff60208201351690604081013590606001356109b1565b34801561026d57600080fd5b506102976004803603604081101561028457600080fd5b5061ffff81358116916020013516610b19565b60408051918252519081900360200190f35b3480156102b557600080fd5b506102be610b96565b6040805173ffffffffffffffffffffffffffffffffffffffff9092168252519081900360200190f35b3480156102f357600080fd5b506103116004803603602081101561030a57600080fd5b5035610bb2565b6040805160208082528351818301528351919283929083019185019080838360005b8381101561034b578181015183820152602001610333565b50505050905090810190601f1680156103785780820380516001836020036101000a031916815260200191505b509250505060405180910390f35b34801561039257600080fd5b50610297610cd8565b3480156103a757600080fd5b506102be610cde565b3480156103bc57600080fd5b50610311600480360360208110156103d357600080fd5b503561ffff16610cfa565b3480156103ea57600080fd5b506102096004803603604081101561040157600080fd5b50803561ffff16906020013573ffffffffffffffffffffffffffffffffffffffff16610db3565b34801561043457600080fd5b506104566004803603602081101561044b57600080fd5b503561ffff16610ec8565b6040805173ffffffffffffffffffffffffffffffffffffffff90951685526020850193909352838301919091526060830152519081900360800190f35b34801561049f57600080fd5b50610209600480360360408110156104b657600080fd5b5073ffffffffffffffffffffffffffffffffffffffff81351690602001351515610f06565b3480156104e757600080fd5b50610209600480360360608110156104fe57600080fd5b5073ffffffffffffffffffffffffffffffffffffffff813581169160208101359091169060400135611004565b34801561053757600080fd5b50610297611129565b34801561054c57600080fd5b506102096004803603606081101561056357600080fd5b50803561ffff908116916020810135909116906040013567ffffffffffffffff166111d9565b34801561059557600080fd5b506105c9600480360360208110156105ac57600080fd5b503573ffffffffffffffffffffffffffffffffffffffff16611264565b604080519115158252519081900360200190f35b3480156105e957600080fd5b506102be61128f565b3480156105fe57600080fd5b506102096004803603608081101561061557600080fd5b5061ffff813581169160208101359091169067ffffffffffffffff60408201351690606001356112b1565b34801561064c57600080fd5b506102096004803603608081101561066357600080fd5b5061ffff81351690602081013590604081013590606001356114ec565b34801561068c57600080fd5b50610209611618565b3480156106a157600080fd5b506106aa61172f565b6040805161ffff9092168252519081900360200190f35b3480156106cd57600080fd5b506102be611739565b3480156106e257600080fd5b50610209600480360360208110156106f957600080fd5b5035611755565b34801561070c57600080fd5b506103116004803603602081101561072357600080fd5b503561189d565b34801561073657600080fd5b506105c9611901565b34801561074b57600080fd5b506102096004803603604081101561076257600080fd5b508035906020013561191c565b34801561077b57600080fd5b506102096004803603602081101561079257600080fd5b503561ffff16611a35565b3480156107a957600080fd5b50610209600480360360608110156107c057600080fd5b5061ffff813581169160208101359091169060400135611b12565b3480156107e757600080fd5b50610297600480360360408110156107fe57600080fd5b5061ffff81358116916020013516611be0565b34801561081d57600080fd5b506102096004803603602081101561083457600080fd5b503573ffffffffffffffffffffffffffffffffffffffff16611bfd565b34801561085d57600080fd5b506102096004803603606081101561087457600080fd5b5073ffffffffffffffffffffffffffffffffffffffff813581169160208101359091169060400135611cf2565b3480156108ad57600080fd5b506105c9600480360360208110156108c457600080fd5b503573ffffffffffffffffffffffffffffffffffffffff16611dc2565b3480156108ed57600080fd5b506102096004803603602081101561090457600080fd5b503573ffffffffffffffffffffffffffffffffffffffff16611dd7565b34801561092d57600080fd5b506102096004803603604081101561094457600080fd5b50803573ffffffffffffffffffffffffffffffffffffffff16906020013561ffff16611f79565b34801561097757600080fd5b506102096004803603604081101561098e57600080fd5b5073ffffffffffffffffffffffffffffffffffffffff8135169060200135612204565b6109b961244b565b73ffffffffffffffffffffffffffffffffffffffff166109d7611739565b73ffffffffffffffffffffffffffffffffffffffff1614610a5957604080517f08c379a000000000000000000000000000000000000000000000000000000000815260206004820181905260248201527f4f776e61626c653a2063616c6c6572206973206e6f7420746865206f776e6572604482015290519081900360640190fd5b60405180608001604052808473ffffffffffffffffffffffffffffffffffffffff1681526020018381526020018281526020016001610a96611129565b03905261ffff949094166000908152606d6020908152604091829020865181547fffffffffffffffffffffffff00000000000000000000000000000000000000001673ffffffffffffffffffffffffffffffffffffffff909116178155908601516001820155908501516002820155606090940151600390940193909355505050565b61ffff80821660009081526070602090815260408083209386168352929052205480610b90576040517f08c379a000000000000000000000000000000000000000000000000000000000815260040180806020018281038252603f815260200180613f8d603f913960400191505060405180910390fd5b92915050565b60725473ffffffffffffffffffffffffffffffffffffffff1681565b606081610bf3575060408051808201909152600181527f30000000000000000000000000000000000000000000000000000000000000006020820152610cd3565b8160005b8115610c0b57600101600a82049150610bf7565b60008167ffffffffffffffff81118015610c2457600080fd5b506040519080825280601f01601f191660200182016040528015610c4f576020820181803683370190505b5090505b8415610cce577fffffffffffffffffffffffffffffffffffffffffffffffffffffffffffffffff90910190600a850660300160f81b818381518110610c9457fe5b60200101907effffffffffffffffffffffffffffffffffffffffffffffffffffffffffffff1916908160001a905350600a85049450610c53565b925050505b919050565b606c5481565b60735473ffffffffffffffffffffffffffffffffffffffff1681565b60716020908152600091825260409182902080548351601f60027fffffffffffffffffffffffffffffffffffffffffffffffffffffffffffffffff61010060018616150201909316929092049182018490048402810184019094528084529091830182828015610dab5780601f10610d8057610100808354040283529160200191610dab565b820191906000526020600020905b815481529060010190602001808311610d8e57829003601f168201915b505050505081565b610dbb61244b565b73ffffffffffffffffffffffffffffffffffffffff16610dd9611739565b73ffffffffffffffffffffffffffffffffffffffff1614610e5b57604080517f08c379a000000000000000000000000000000000000000000000000000000000815260206004820181905260248201527f4f776e61626c653a2063616c6c6572206973206e6f7420746865206f776e6572604482015290519081900360640190fd5b604080517fffffffffffffffffffffffffffffffffffffffff000000000000000000000000606084901b16602080830191909152825180830360140181526034909201835261ffff8516600090815260718252929092208151610ec393919290910190613d28565b505050565b606d60205260009081526040902080546001820154600283015460039093015473ffffffffffffffffffffffffffffffffffffffff90921692909184565b610f0e61244b565b73ffffffffffffffffffffffffffffffffffffffff16610f2c611739565b73ffffffffffffffffffffffffffffffffffffffff1614610fae57604080517f08c379a000000000000000000000000000000000000000000000000000000000815260206004820181905260248201527f4f776e61626c653a2063616c6c6572206973206e6f7420746865206f776e6572604482015290519081900360640190fd5b73ffffffffffffffffffffffffffffffffffffffff919091166000908152606f6020526040902080547fffffffffffffffffffffffffffffffffffffffffffffffffffffffffffffff0016911515919091179055565b61100c61244b565b73ffffffffffffffffffffffffffffffffffffffff1661102a611739565b73ffffffffffffffffffffffffffffffffffffffff16146110ac57604080517f08c379a000000000000000000000000000000000000000000000000000000000815260206004820181905260248201527f4f776e61626c653a2063616c6c6572206973206e6f7420746865206f776e6572604482015290519081900360640190fd5b6110cd73ffffffffffffffffffffffffffffffffffffffff8416838361244f565b6040805173ffffffffffffffffffffffffffffffffffffffff80861682528416602082015280820183905290517f70082d08c003c5341f2401bec1c2ae1dbcdc29ae17e9cc5633fa617caa8acd4c9181900360600190a1505050565b6000611133611901565b156111d357607260009054906101000a900473ffffffffffffffffffffffffffffffffffffffff1673ffffffffffffffffffffffffffffffffffffffff1663a3b1b31d6040518163ffffffff1660e01b815260040160206040518083038186803b1580156111a057600080fd5b505afa1580156111b4573d6000803e3d6000fd5b505050506040513d60208110156111ca57600080fd5b505190506111d6565b50435b90565b606e5462010000900473ffffffffffffffffffffffffffffffffffffffff16331461124f576040517f08c379a0000000000000000000000000000000000000000000000000000000008152600401808060200182810382526027815260200180613e626027913960400191505060405180910390fd5b610ec383838361125d611129565b60006124dc565b73ffffffffffffffffffffffffffffffffffffffff166000908152606f602052604090205460ff1690565b606e5462010000900473ffffffffffffffffffffffffffffffffffffffff1681565b6112b9611129565b811115611311576040517f08c379a000000000000000000000000000000000000000000000000000000000815260040180806020018281038252602b815260200180613e89602b913960400191505060405180910390fd5b61ffff84166000908152606d6020908152604091829020600281015460735484517fdd62ed3e00000000000000000000000000000000000000000000000000000000815233600482015230602482015294519294919373ffffffffffffffffffffffffffffffffffffffff9091169263dd62ed3e926044808201939291829003018186803b1580156113a257600080fd5b505afa1580156113b6573d6000803e3d6000fd5b505050506040513d60208110156113cc57600080fd5b50511015611425576040517f08c379a0000000000000000000000000000000000000000000000000000000008152600401808060200182810382526033815260200180613f086033913960400191505060405180910390fd5b6073546002820154604080517f23b872dd00000000000000000000000000000000000000000000000000000000815233600482015230602482015260448101929092525173ffffffffffffffffffffffffffffffffffffffff909216916323b872dd916064808201926020929091908290030181600087803b1580156114aa57600080fd5b505af11580156114be573d6000803e3d6000fd5b505050506040513d60208110156114d457600080fd5b506114e590508585858560016124dc565b5050505050565b336000908152606f602052604090205460ff1661156a57604080517f08c379a000000000000000000000000000000000000000000000000000000000815260206004820152601f60248201527f4f7261636c653a2063616c6c6572206d75737420626520617070726f76656400604482015290519081900360640190fd5b606e54604080517f704316e500000000000000000000000000000000000000000000000000000000815261ffff8716600482015260248101869052604481018590526064810184905290516201000090920473ffffffffffffffffffffffffffffffffffffffff169163704316e59160848082019260009290919082900301818387803b1580156115fa57600080fd5b505af115801561160e573d6000803e3d6000fd5b5050505050505050565b61162061244b565b73ffffffffffffffffffffffffffffffffffffffff1661163e611739565b73ffffffffffffffffffffffffffffffffffffffff16146116c057604080517f08c379a000000000000000000000000000000000000000000000000000000000815260206004820181905260248201527f4f776e61626c653a2063616c6c6572206973206e6f7420746865206f776e6572604482015290519081900360640190fd5b603a5460405160009173ffffffffffffffffffffffffffffffffffffffff16907f8be0079c531659141344cd1fd0a4f28419497f9722a3daafe3b4186f6b6457e0908390a3603a80547fffffffffffffffffffffffff0000000000000000000000000000000000000000169055565b606e5461ffff1681565b603a5473ffffffffffffffffffffffffffffffffffffffff1690565b61175d61244b565b73ffffffffffffffffffffffffffffffffffffffff1661177b611739565b73ffffffffffffffffffffffffffffffffffffffff16146117fd57604080517f08c379a000000000000000000000000000000000000000000000000000000000815260206004820181905260248201527f4f776e61626c653a2063616c6c6572206973206e6f7420746865206f776e6572604482015290519081900360640190fd5b606e54604080517f22c1077600000000000000000000000000000000000000000000000000000000815260016004820152306024820181905260448201526064810184905290516201000090920473ffffffffffffffffffffffffffffffffffffffff16916322c107769160848082019260009290919082900301818387803b15801561188957600080fd5b505af11580156114e5573d6000803e3d6000fd5b6060816118de575060408051808201909152600381527f30783000000000000000000000000000000000000000000000000000000000006020820152610cd3565b8160005b81156118f75760089190911c906001016118e2565b610cce848261276e565b60004661a4b181148061191657508062066eeb145b91505090565b600082815260056020526040902054829073ffffffffffffffffffffffffffffffffffffffff16331461199a576040517f08c379a0000000000000000000000000000000000000000000000000000000008152600401808060200182810382526028815260200180613f3b6028913960400191505060405180910390fd5b60008181526005602052604080822080547fffffffffffffffffffffffff00000000000000000000000000000000000000001690555182917f7cc135e0cebb02c3480ae5d74d377283180a2601f8f644edf7987b009316c63a91a2604080518481526020810184905281517f35b319a88b73146ae6bf1717ce61d79b09999adf3e5aacf2df3870404e6f1467929181900390910190a1505050565b611a3d61244b565b73ffffffffffffffffffffffffffffffffffffffff16611a5b611739565b73ffffffffffffffffffffffffffffffffffffffff1614611add57604080517f08c379a000000000000000000000000000000000000000000000000000000000815260206004820181905260248201527f4f776e61626c653a2063616c6c6572206973206e6f7420746865206f776e6572604482015290519081900360640190fd5b606e80547fffffffffffffffffffffffffffffffffffffffffffffffffffffffffffff00001661ffff92909216919091179055565b611b1a61244b565b73ffffffffffffffffffffffffffffffffffffffff16611b38611739565b73ffffffffffffffffffffffffffffffffffffffff1614611bba57604080517f08c379a000000000000000000000000000000000000000000000000000000000815260206004820181905260248201527f4f776e61626c653a2063616c6c6572206973206e6f7420746865206f776e6572604482015290519081900360640190fd5b61ffff918216600090815260706020908152604080832095909416825293909352912055565b607060209081526000928352604080842090915290825290205481565b611c0561244b565b73ffffffffffffffffffffffffffffffffffffffff16611c23611739565b73ffffffffffffffffffffffffffffffffffffffff1614611ca557604080517f08c379a000000000000000000000000000000000000000000000000000000000815260206004820181905260248201527f4f776e61626c653a2063616c6c6572206973206e6f7420746865206f776e6572604482015290519081900360640190fd5b606e805473ffffffffffffffffffffffffffffffffffffffff90921662010000027fffffffffffffffffffff0000000000000000000000000000000000000000ffff909216919091179055565b611cfa61244b565b73ffffffffffffffffffffffffffffffffffffffff16611d18611739565b73ffffffffffffffffffffffffffffffffffffffff1614611d9a57604080517f08c379a000000000000000000000000000000000000000000000000000000000815260206004820181905260248201527f4f776e61626c653a2063616c6c6572206973206e6f7420746865206f776e6572604482015290519081900360640190fd5b82611dbc73ffffffffffffffffffffffffffffffffffffffff82168484612bda565b50505050565b606f6020526000908152604090205460ff1681565b611ddf61244b565b73ffffffffffffffffffffffffffffffffffffffff16611dfd611739565b73ffffffffffffffffffffffffffffffffffffffff1614611e7f57604080517f08c379a000000000000000000000000000000000000000000000000000000000815260206004820181905260248201527f4f776e61626c653a2063616c6c6572206973206e6f7420746865206f776e6572604482015290519081900360640190fd5b73ffffffffffffffffffffffffffffffffffffffff8116611eeb576040517f08c379a0000000000000000000000000000000000000000000000000000000008152600401808060200182810382526026815260200180613e196026913960400191505060405180910390fd5b603a5460405173ffffffffffffffffffffffffffffffffffffffff8084169216907f8be0079c531659141344cd1fd0a4f28419497f9722a3daafe3b4186f6b6457e090600090a3603a80547fffffffffffffffffffffffff00000000000000000000000000000000000000001673ffffffffffffffffffffffffffffffffffffffff92909216919091179055565b6000611f83612d68565b905073ffffffffffffffffffffffffffffffffffffffff8116611fdc5773ffffffffffffffffffffffffffffffffffffffff7fb53127684a568b3173ae13b9f8a6016e243e63b6e8ee1178d6a717850b5d610355611ffe565b3373ffffffffffffffffffffffffffffffffffffffff821614611ffe57600080fd5b600754610100900460ff16806120175750612017612d8d565b80612025575060075460ff16155b61207a576040517f08c379a000000000000000000000000000000000000000000000000000000000815260040180806020018281038252602e815260200180613eda602e913960400191505060405180910390fd5b600754610100900460ff161580156120e057600780547fffffffffffffffffffffffffffffffffffffffffffffffffffffffffffffff007fffffffffffffffffffffffffffffffffffffffffffffffffffffffffffff00ff909116610100171660011790555b6120e8612d9e565b6120f184612ec2565b607380547fffffffffffffffffffffffff00000000000000000000000000000000000000001673ffffffffffffffffffffffffffffffffffffffff8616179055606e80547fffffffffffffffffffffffffffffffffffffffffffffffffffffffffffff00001661ffff8516179055336000908152606f6020526040902080547fffffffffffffffffffffffffffffffffffffffffffffffffffffffffffffff0016600117905561219f611901565b156121d057607280547fffffffffffffffffffffffff00000000000000000000000000000000000000001660641790555b8015611dbc57600780547fffffffffffffffffffffffffffffffffffffffffffffffffffffffffffff00ff16905550505050565b61220c61244b565b73ffffffffffffffffffffffffffffffffffffffff1661222a611739565b73ffffffffffffffffffffffffffffffffffffffff16146122ac57604080517f08c379a000000000000000000000000000000000000000000000000000000000815260206004820181905260248201527f4f776e61626c653a2063616c6c6572206973206e6f7420746865206f776e6572604482015290519081900360640190fd5b6002600654141561231e57604080517f08c379a000000000000000000000000000000000000000000000000000000000815260206004820152601f60248201527f5265656e7472616e637947756172643a207265656e7472616e742063616c6c00604482015290519081900360640190fd5b600260065560405160009073ffffffffffffffffffffffffffffffffffffffff84169083908381818185875af1925050503d806000811461237b576040519150601f19603f3d011682016040523d82523d6000602084013e612380565b606091505b50509050806123f057604080517f08c379a000000000000000000000000000000000000000000000000000000000815260206004820181905260248201527f4f7261636c65436c69656e743a206661696c656420746f207769746864726177604482015290519081900360640190fd5b6040805173ffffffffffffffffffffffffffffffffffffffff851681526020810184905281517f884edad9ce6fa2440d8a54cc123490eb96d2768479d49ff9c7366125a9424364929181900390910190a15050600160065550565b3390565b6040805173ffffffffffffffffffffffffffffffffffffffff8416602482015260448082018490528251808303909101815260649091019091526020810180517bffffffffffffffffffffffffffffffffffffffffffffffffffffffff167fa9059cbb00000000000000000000000000000000000000000000000000000000179052610ec3908490612f09565b61ffff85166000908152606d6020526040902081806124fe5750828160030154105b1561276657600061251b826001015430639c1b1c3660e01b612fe1565b60408051808201909152600d81527f72656d6f7465436861696e4964000000000000000000000000000000000000006020820152606e549192506125659183919061ffff16613006565b6125a9816040518060400160405280600e81526020017f6c69627261727956657273696f6e0000000000000000000000000000000000008152508861ffff16613006565b604080518082018252600f81527f636f6e747261637441646472657373000000000000000000000000000000000060208083019190915261ffff8a166000908152607182528390208054845160026001831615610100027fffffffffffffffffffffffffffffffffffffffffffffffffffffffffffffffff0190921691909104601f81018490048402820184019095528481526126a1948694939192918301828280156126975780601f1061266c57610100808354040283529160200191612697565b820191906000526020600020905b81548152906001019060200180831161267a57829003601f168201915b5050505050613024565b6126eb816040518060400160405280600d81526020017f636f6e6669726d6174696f6e73000000000000000000000000000000000000008152508767ffffffffffffffff16613006565b612733816040518060400160405280600881526020017f626c6f636b4e756d00000000000000000000000000000000000000000000000081525061272e8761189d565b613042565b8154600283015461275c9173ffffffffffffffffffffffffffffffffffffffff16908390613060565b5050600381018390555b505050505050565b606060008260020260020167ffffffffffffffff8111801561278f57600080fd5b506040519080825280601f01601f1916602001820160405280156127ba576020820181803683370190505b5090507f3000000000000000000000000000000000000000000000000000000000000000816000815181106127eb57fe5b60200101907effffffffffffffffffffffffffffffffffffffffffffffffffffffffffffff1916908160001a9053507f78000000000000000000000000000000000000000000000000000000000000008160018151811061284857fe5b60200101907effffffffffffffffffffffffffffffffffffffffffffffffffffffffffffff1916908160001a905350600160028402015b6001811115612924577f303132333435363738396162636465660000000000000000000000000000000085600f16601081106128b757fe5b1a60f81b8282815181106128c757fe5b60200101907effffffffffffffffffffffffffffffffffffffffffffffffffffffffffffff1916908160001a90535060049490941c937fffffffffffffffffffffffffffffffffffffffffffffffffffffffffffffffff0161287f565b508060028151811061293257fe5b6020910101517fff00000000000000000000000000000000000000000000000000000000000000167f30000000000000000000000000000000000000000000000000000000000000001415612b66576000600182510367ffffffffffffffff8111801561299e57600080fd5b506040519080825280601f01601f1916602001820160405280156129c9576020820181803683370190505b5090507f3000000000000000000000000000000000000000000000000000000000000000816000815181106129fa57fe5b60200101907effffffffffffffffffffffffffffffffffffffffffffffffffffffffffffff1916908160001a9053507f780000000000000000000000000000000000000000000000000000000000000081600181518110612a5757fe5b60200101907effffffffffffffffffffffffffffffffffffffffffffffffffffffffffffff1916908160001a90535060035b8251811015612aef57828181518110612a9e57fe5b602001015160f81c60f81b826001830381518110612ab857fe5b60200101907effffffffffffffffffffffffffffffffffffffffffffffffffffffffffffff1916908160001a905350600101612a89565b508415612b5d57604080517f08c379a000000000000000000000000000000000000000000000000000000000815260206004820181905260248201527f537472696e67733a20686578206c656e67746820696e73756666696369656e74604482015290519081900360640190fd5b9150610b909050565b8315612bd357604080517f08c379a000000000000000000000000000000000000000000000000000000000815260206004820181905260248201527f537472696e67733a20686578206c656e67746820696e73756666696369656e74604482015290519081900360640190fd5b9392505050565b801580612c865750604080517fdd62ed3e00000000000000000000000000000000000000000000000000000000815230600482015273ffffffffffffffffffffffffffffffffffffffff848116602483015291519185169163dd62ed3e91604480820192602092909190829003018186803b158015612c5857600080fd5b505afa158015612c6c573d6000803e3d6000fd5b505050506040513d6020811015612c8257600080fd5b5051155b612cdb576040517f08c379a0000000000000000000000000000000000000000000000000000000008152600401808060200182810382526036815260200180613fcc6036913960400191505060405180910390fd5b6040805173ffffffffffffffffffffffffffffffffffffffff8416602482015260448082018490528251808303909101815260649091019091526020810180517bffffffffffffffffffffffffffffffffffffffffffffffffffffffff167f095ea7b300000000000000000000000000000000000000000000000000000000179052610ec3908490612f09565b7fb53127684a568b3173ae13b9f8a6016e243e63b6e8ee1178d6a717850b5d61035490565b6000612d9830613098565b15905090565b600754610100900460ff1680612db75750612db7612d8d565b80612dc5575060075460ff16155b612e1a576040517f08c379a000000000000000000000000000000000000000000000000000000000815260040180806020018281038252602e815260200180613eda602e913960400191505060405180910390fd5b600754610100900460ff16158015612e8057600780547fffffffffffffffffffffffffffffffffffffffffffffffffffffffffffffff007fffffffffffffffffffffffffffffffffffffffffffffffffffffffffffff00ff909116610100171660011790555b612e8861309e565b612e906131b0565b8015612ebf57600780547fffffffffffffffffffffffffffffffffffffffffffffffffffffffffffff00ff1690555b50565b600280547fffffffffffffffffffffffff00000000000000000000000000000000000000001673ffffffffffffffffffffffffffffffffffffffff92909216919091179055565b6000612f6b826040518060400160405280602081526020017f5361666545524332303a206c6f772d6c6576656c2063616c6c206661696c65648152508573ffffffffffffffffffffffffffffffffffffffff166133409092919063ffffffff16565b805190915015610ec357808060200190516020811015612f8a57600080fd5b5051610ec3576040517f08c379a000000000000000000000000000000000000000000000000000000000815260040180806020018281038252602a815260200180613f63602a913960400191505060405180910390fd5b612fe9613db4565b612ff1613db4565b612ffd8186868661334f565b95945050505050565b608083015161301590836133b1565b6080830151610ec390826133c8565b608083015161303390836133b1565b6080830151610ec390826133d8565b608083015161305190836133b1565b6080830151610ec390826133b1565b600061309084848460017f40429946000000000000000000000000000000000000000000000000000000006133e5565b949350505050565b3b151590565b600754610100900460ff16806130b757506130b7612d8d565b806130c5575060075460ff16155b61311a576040517f08c379a000000000000000000000000000000000000000000000000000000000815260040180806020018281038252602e815260200180613eda602e913960400191505060405180910390fd5b600754610100900460ff16158015612e9057600780547fffffffffffffffffffffffffffffffffffffffffffffffffffffffffffffff007fffffffffffffffffffffffffffffffffffffffffffffffffffffffffffff00ff909116610100171660011790558015612ebf57600780547fffffffffffffffffffffffffffffffffffffffffffffffffffffffffffff00ff16905550565b600754610100900460ff16806131c957506131c9612d8d565b806131d7575060075460ff16155b61322c576040517f08c379a000000000000000000000000000000000000000000000000000000000815260040180806020018281038252602e815260200180613eda602e913960400191505060405180910390fd5b600754610100900460ff1615801561329257600780547fffffffffffffffffffffffffffffffffffffffffffffffffffffffffffffff007fffffffffffffffffffffffffffffffffffffffffffffffffffffffffffff00ff909116610100171660011790555b600061329c61244b565b603a80547fffffffffffffffffffffffff00000000000000000000000000000000000000001673ffffffffffffffffffffffffffffffffffffffff8316908117909155604051919250906000907f8be0079c531659141344cd1fd0a4f28419497f9722a3daafe3b4186f6b6457e0908290a3508015612ebf57600780547fffffffffffffffffffffffffffffffffffffffffffffffffffffffffffff00ff16905550565b60606130908484600085613798565b613357613db4565b6133678560800151610100613952565b505091835273ffffffffffffffffffffffffffffffffffffffff1660208301527fffffffff0000000000000000000000000000000000000000000000000000000016604082015290565b6133be826003835161398c565b610ec38282613a60565b6133d48260008361398c565b5050565b6133be826002835161398c565b6004546040805130606090811b60208084019190915260348084018690528451808503909101815260549093018452825192810192909220908801939093526000838152600590915281812080547fffffffffffffffffffffffff00000000000000000000000000000000000000001673ffffffffffffffffffffffffffffffffffffffff8a16179055905182917fb5e6e01e79f91267dc17b4e6314d5d4d03593d2ceee0fbb452b750bd70ea5af991a2600082600080886000015189602001518a604001518b606001518a8d6080015160000151604051602401808973ffffffffffffffffffffffffffffffffffffffff1681526020018881526020018781526020018673ffffffffffffffffffffffffffffffffffffffff168152602001857bffffffffffffffffffffffffffffffffffffffffffffffffffffffff1916815260200184815260200183815260200180602001828103825283818151815260200191508051906020019080838360005b8381101561356f578181015183820152602001613557565b50505050905090810190601f16801561359c5780820380516001836020036101000a031916815260200191505b509950505050505050505050604051602081830303815290604052907bffffffffffffffffffffffffffffffffffffffffffffffffffffffff19166020820180517bffffffffffffffffffffffffffffffffffffffffffffffffffffffff83818316178352505050509050600260009054906101000a900473ffffffffffffffffffffffffffffffffffffffff1673ffffffffffffffffffffffffffffffffffffffff16634000aea08887846040518463ffffffff1660e01b8152600401808473ffffffffffffffffffffffffffffffffffffffff16815260200183815260200180602001828103825283818151815260200191508051906020019080838360005b838110156136b657818101518382015260200161369e565b50505050905090810190601f1680156136e35780820380516001836020036101000a031916815260200191505b50945050505050602060405180830381600087803b15801561370457600080fd5b505af1158015613718573d6000803e3d6000fd5b505050506040513d602081101561372e57600080fd5b5051613785576040517f08c379a0000000000000000000000000000000000000000000000000000000008152600401808060200182810382526023815260200180613e3f6023913960400191505060405180910390fd5b5060048054600101905595945050505050565b6060824710156137f3576040517f08c379a0000000000000000000000000000000000000000000000000000000008152600401808060200182810382526026815260200180613eb46026913960400191505060405180910390fd5b6137fc85613098565b61386757604080517f08c379a000000000000000000000000000000000000000000000000000000000815260206004820152601d60248201527f416464726573733a2063616c6c20746f206e6f6e2d636f6e7472616374000000604482015290519081900360640190fd5b6000808673ffffffffffffffffffffffffffffffffffffffff1685876040518082805190602001908083835b602083106138d057805182527fffffffffffffffffffffffffffffffffffffffffffffffffffffffffffffffe09092019160209182019101613893565b6001836020036101000a03801982511681845116808217855250505050505090500191505060006040518083038185875af1925050503d8060008114613932576040519150601f19603f3d011682016040523d82523d6000602084013e613937565b606091505b5091509150613947828286613a7a565b979650505050505050565b61395a613de9565b602082061561396f5760208206602003820191505b506020828101829052604080518085526000815290920101905290565b601781116139ad576139a78360e0600585901b168317613b38565b50610ec3565b60ff81116139d7576139ca836018611fe0600586901b1617613b38565b506139a783826001613b50565b61ffff8111613a02576139f5836019611fe0600586901b1617613b38565b506139a783826002613b50565b63ffffffff8111613a2f57613a2283601a611fe0600586901b1617613b38565b506139a783826004613b50565b67ffffffffffffffff8111610ec357613a5383601b611fe0600586901b1617613b38565b50611dbc83826008613b50565b613a68613de9565b612bd383846000015151848551613b69565b60608315613a89575081612bd3565b825115613a995782518084602001fd5b816040517f08c379a00000000000000000000000000000000000000000000000000000000081526004018080602001828103825283818151815260200191508051906020019080838360005b83811015613afd578181015183820152602001613ae5565b50505050905090810190601f168015613b2a5780820380516001836020036101000a031916815260200191505b509250505060405180910390fd5b613b40613de9565b612bd38384600001515184613c51565b613b58613de9565b613090848560000151518585613c9c565b613b71613de9565b8251821115613b7f57600080fd5b84602001518285011115613ba957613ba985613ba18760200151878601613cfa565b600202613d11565b600080865180518760208301019350808887011115613bc85787860182525b505050602084015b60208410613c0d57805182527fffffffffffffffffffffffffffffffffffffffffffffffffffffffffffffffe09093019260209182019101613bd0565b5181517fffffffffffffffffffffffffffffffffffffffffffffffffffffffffffffffff60208690036101000a019081169019919091161790525083949350505050565b613c59613de9565b83602001518310613c7557613c75848560200151600202613d11565b835180516020858301018481535080851415613c92576001810182525b5093949350505050565b613ca4613de9565b84602001518483011115613cc157613cc185858401600202613d11565b60006001836101000a039050855183868201018583198251161781525080518487011115613cef5783860181525b509495945050505050565b600081831115613d0b575081610b90565b50919050565b8151613d1d8383613952565b50611dbc8382613a60565b828054600181600116156101000203166002900490600052602060002090601f016020900481019282613d5e5760008555613da4565b82601f10613d7757805160ff1916838001178555613da4565b82800160010185558215613da4579182015b82811115613da4578251825591602001919060010190613d89565b50613db0929150613e03565b5090565b6040805160a081018252600080825260208201819052918101829052606081019190915260808101613de4613de9565b905290565b604051806040016040528060608152602001600081525090565b5b80821115613db05760008155600101613e0456fe4f776e61626c653a206e6577206f776e657220697320746865207a65726f2061646472657373756e61626c6520746f207472616e73666572416e6443616c6c20746f206f7261636c654f7261636c65436c69656e743a2063616c6c6572206d757374206265204c617965725a65726f2e74617267657420626c6f636b206e756d6265722063616e6e6f7420626520696e2074686520667574757265416464726573733a20696e73756666696369656e742062616c616e636520666f722063616c6c496e697469616c697a61626c653a20636f6e747261637420697320616c726561647920696e697469616c697a656473656e646572207265717569726573206d6f7265204c494e4b20616c6c6f77616e636520746f20706572666f726d2063616c6c536f75726365206d75737420626520746865206f7261636c65206f662074686520726571756573745361666545524332303a204552433230206f7065726174696f6e20646964206e6f742073756363656564436861696e6c696e6b204f7261636c653a206e6f7420737570706f7274696e67207468652028647374436861696e2c206c69627261727956657273696f6e295361666545524332303a20617070726f76652066726f6d206e6f6e2d7a65726f20746f206e6f6e2d7a65726f20616c6c6f77616e6365a26469706673582212207cbeed6087e929b141d309e9b10aed2af8676a1bcf4f66dfc519279a409b094364736f6c63430007060033",
  "devdoc": {
    "kind": "dev",
    "methods": {
      "int2str(uint256)": {
        "details": "Converts a `uint256` to its ASCII `string` decimal representation."
      },
      "owner()": {
        "details": "Returns the address of the current owner."
      },
      "renounceOwnership()": {
        "details": "Leaves the contract without owner. It will not be possible to call `onlyOwner` functions anymore. Can only be called by the current owner. NOTE: Renouncing ownership will leave the contract without an owner, thereby removing any functionality that is only available to the owner."
      },
      "toHexString(uint256)": {
        "details": "Converts a `uint256` to its ASCII `string` hexadecimal representation."
      },
      "transferOwnership(address)": {
        "details": "Transfers ownership of the contract to a new account (`newOwner`). Can only be called by the current owner."
      }
    },
    "version": 1
  },
  "userdoc": {
    "kind": "user",
    "methods": {},
    "version": 1
  },
  "storageLayout": {
    "storage": [
      {
        "astId": 306,
        "contract": "contracts/chainlink/ChainlinkOracleClient.sol:ChainlinkOracleClient",
        "label": "ens",
        "offset": 0,
        "slot": "0",
        "type": "t_contract(ENSInterface)888"
      },
      {
        "astId": 308,
        "contract": "contracts/chainlink/ChainlinkOracleClient.sol:ChainlinkOracleClient",
        "label": "ensNode",
        "offset": 0,
        "slot": "1",
        "type": "t_bytes32"
      },
      {
        "astId": 310,
        "contract": "contracts/chainlink/ChainlinkOracleClient.sol:ChainlinkOracleClient",
        "label": "link",
        "offset": 0,
        "slot": "2",
        "type": "t_contract(LinkTokenInterface)983"
      },
      {
        "astId": 312,
        "contract": "contracts/chainlink/ChainlinkOracleClient.sol:ChainlinkOracleClient",
        "label": "oracle",
        "offset": 0,
        "slot": "3",
        "type": "t_contract(OperatorInterface)1039"
      },
      {
        "astId": 315,
        "contract": "contracts/chainlink/ChainlinkOracleClient.sol:ChainlinkOracleClient",
        "label": "requestCount",
        "offset": 0,
        "slot": "4",
        "type": "t_uint256"
      },
      {
        "astId": 319,
        "contract": "contracts/chainlink/ChainlinkOracleClient.sol:ChainlinkOracleClient",
        "label": "pendingRequests",
        "offset": 0,
        "slot": "5",
        "type": "t_mapping(t_bytes32,t_address)"
      },
      {
        "astId": 4065,
        "contract": "contracts/chainlink/ChainlinkOracleClient.sol:ChainlinkOracleClient",
        "label": "_status",
        "offset": 0,
        "slot": "6",
        "type": "t_uint256"
      },
      {
        "astId": 2128,
        "contract": "contracts/chainlink/ChainlinkOracleClient.sol:ChainlinkOracleClient",
        "label": "_initialized",
        "offset": 0,
        "slot": "7",
        "type": "t_bool"
      },
      {
        "astId": 2131,
        "contract": "contracts/chainlink/ChainlinkOracleClient.sol:ChainlinkOracleClient",
        "label": "_initializing",
        "offset": 1,
        "slot": "7",
        "type": "t_bool"
      },
      {
        "astId": 2475,
        "contract": "contracts/chainlink/ChainlinkOracleClient.sol:ChainlinkOracleClient",
        "label": "__gap",
        "offset": 0,
        "slot": "8",
        "type": "t_array(t_uint256)50_storage"
      },
      {
        "astId": 2001,
        "contract": "contracts/chainlink/ChainlinkOracleClient.sol:ChainlinkOracleClient",
        "label": "_owner",
        "offset": 0,
        "slot": "58",
        "type": "t_address"
      },
      {
        "astId": 2120,
        "contract": "contracts/chainlink/ChainlinkOracleClient.sol:ChainlinkOracleClient",
        "label": "__gap",
        "offset": 0,
        "slot": "59",
        "type": "t_array(t_uint256)49_storage"
      },
      {
        "astId": 12001,
        "contract": "contracts/chainlink/ChainlinkOracleClient.sol:ChainlinkOracleClient",
        "label": "calledInBlock",
        "offset": 0,
        "slot": "108",
        "type": "t_uint256"
      },
      {
        "astId": 12005,
        "contract": "contracts/chainlink/ChainlinkOracleClient.sol:ChainlinkOracleClient",
        "label": "jobs",
        "offset": 0,
        "slot": "109",
        "type": "t_mapping(t_uint16,t_struct(Job)11999_storage)"
      },
      {
        "astId": 12007,
        "contract": "contracts/chainlink/ChainlinkOracleClient.sol:ChainlinkOracleClient",
        "label": "endpointId",
        "offset": 0,
        "slot": "110",
        "type": "t_uint16"
      },
      {
        "astId": 12009,
        "contract": "contracts/chainlink/ChainlinkOracleClient.sol:ChainlinkOracleClient",
        "label": "uln",
        "offset": 2,
        "slot": "110",
        "type": "t_contract(ILayerZeroUltraLightNodeV1)13613"
      },
      {
        "astId": 12013,
        "contract": "contracts/chainlink/ChainlinkOracleClient.sol:ChainlinkOracleClient",
        "label": "approvedAddresses",
        "offset": 0,
        "slot": "111",
        "type": "t_mapping(t_address,t_bool)"
      },
      {
        "astId": 12019,
        "contract": "contracts/chainlink/ChainlinkOracleClient.sol:ChainlinkOracleClient",
        "label": "chainPriceLookup",
        "offset": 0,
        "slot": "112",
        "type": "t_mapping(t_uint16,t_mapping(t_uint16,t_uint256))"
      },
      {
        "astId": 12023,
        "contract": "contracts/chainlink/ChainlinkOracleClient.sol:ChainlinkOracleClient",
        "label": "deliveryAddressLookup",
        "offset": 0,
        "slot": "113",
        "type": "t_mapping(t_uint16,t_bytes_storage)"
      },
      {
        "astId": 12025,
        "contract": "contracts/chainlink/ChainlinkOracleClient.sol:ChainlinkOracleClient",
        "label": "arbSys",
        "offset": 0,
        "slot": "114",
        "type": "t_contract(ArbSys)11966"
      },
      {
        "astId": 12027,
        "contract": "contracts/chainlink/ChainlinkOracleClient.sol:ChainlinkOracleClient",
        "label": "LINK",
        "offset": 0,
        "slot": "115",
        "type": "t_address"
      }
    ],
    "types": {
      "t_address": {
        "encoding": "inplace",
        "label": "address",
        "numberOfBytes": "20"
      },
      "t_array(t_uint256)49_storage": {
        "base": "t_uint256",
        "encoding": "inplace",
        "label": "uint256[49]",
        "numberOfBytes": "1568"
      },
      "t_array(t_uint256)50_storage": {
        "base": "t_uint256",
        "encoding": "inplace",
        "label": "uint256[50]",
        "numberOfBytes": "1600"
      },
      "t_bool": {
        "encoding": "inplace",
        "label": "bool",
        "numberOfBytes": "1"
      },
      "t_bytes32": {
        "encoding": "inplace",
        "label": "bytes32",
        "numberOfBytes": "32"
      },
      "t_bytes_storage": {
        "encoding": "bytes",
        "label": "bytes",
        "numberOfBytes": "32"
      },
      "t_contract(ArbSys)11966": {
        "encoding": "inplace",
        "label": "contract ArbSys",
        "numberOfBytes": "20"
      },
      "t_contract(ENSInterface)888": {
        "encoding": "inplace",
        "label": "contract ENSInterface",
        "numberOfBytes": "20"
      },
      "t_contract(ILayerZeroUltraLightNodeV1)13613": {
        "encoding": "inplace",
        "label": "contract ILayerZeroUltraLightNodeV1",
        "numberOfBytes": "20"
      },
      "t_contract(LinkTokenInterface)983": {
        "encoding": "inplace",
        "label": "contract LinkTokenInterface",
        "numberOfBytes": "20"
      },
      "t_contract(OperatorInterface)1039": {
        "encoding": "inplace",
        "label": "contract OperatorInterface",
        "numberOfBytes": "20"
      },
      "t_mapping(t_address,t_bool)": {
        "encoding": "mapping",
        "key": "t_address",
        "label": "mapping(address => bool)",
        "numberOfBytes": "32",
        "value": "t_bool"
      },
      "t_mapping(t_bytes32,t_address)": {
        "encoding": "mapping",
        "key": "t_bytes32",
        "label": "mapping(bytes32 => address)",
        "numberOfBytes": "32",
        "value": "t_address"
      },
      "t_mapping(t_uint16,t_bytes_storage)": {
        "encoding": "mapping",
        "key": "t_uint16",
        "label": "mapping(uint16 => bytes)",
        "numberOfBytes": "32",
        "value": "t_bytes_storage"
      },
      "t_mapping(t_uint16,t_mapping(t_uint16,t_uint256))": {
        "encoding": "mapping",
        "key": "t_uint16",
        "label": "mapping(uint16 => mapping(uint16 => uint256))",
        "numberOfBytes": "32",
        "value": "t_mapping(t_uint16,t_uint256)"
      },
      "t_mapping(t_uint16,t_struct(Job)11999_storage)": {
        "encoding": "mapping",
        "key": "t_uint16",
        "label": "mapping(uint16 => struct ChainlinkOracleClient.Job)",
        "numberOfBytes": "32",
        "value": "t_struct(Job)11999_storage"
      },
      "t_mapping(t_uint16,t_uint256)": {
        "encoding": "mapping",
        "key": "t_uint16",
        "label": "mapping(uint16 => uint256)",
        "numberOfBytes": "32",
        "value": "t_uint256"
      },
      "t_struct(Job)11999_storage": {
        "encoding": "inplace",
        "label": "struct ChainlinkOracleClient.Job",
        "members": [
          {
            "astId": 11992,
            "contract": "contracts/chainlink/ChainlinkOracleClient.sol:ChainlinkOracleClient",
            "label": "oracle",
            "offset": 0,
            "slot": "0",
            "type": "t_address"
          },
          {
            "astId": 11994,
            "contract": "contracts/chainlink/ChainlinkOracleClient.sol:ChainlinkOracleClient",
            "label": "id",
            "offset": 0,
            "slot": "1",
            "type": "t_bytes32"
          },
          {
            "astId": 11996,
            "contract": "contracts/chainlink/ChainlinkOracleClient.sol:ChainlinkOracleClient",
            "label": "fee",
            "offset": 0,
            "slot": "2",
            "type": "t_uint256"
          },
          {
            "astId": 11998,
            "contract": "contracts/chainlink/ChainlinkOracleClient.sol:ChainlinkOracleClient",
            "label": "calledInBlock",
            "offset": 0,
            "slot": "3",
            "type": "t_uint256"
          }
        ],
        "numberOfBytes": "128"
      },
      "t_uint16": {
        "encoding": "inplace",
        "label": "uint16",
        "numberOfBytes": "2"
      },
      "t_uint256": {
        "encoding": "inplace",
        "label": "uint256",
        "numberOfBytes": "32"
      }
    }
  }
}