{
  "address": "0xBb291e93e07357Cae5E2732a54ba7cD6945a2d4e",
  "abi": [
    {
      "anonymous": false,
      "inputs": [
        {
          "indexed": true,
          "internalType": "address",
          "name": "previousOwner",
          "type": "address"
        },
        {
          "indexed": true,
          "internalType": "address",
          "name": "newOwner",
          "type": "address"
        }
      ],
      "name": "OwnershipTransferred",
      "type": "event"
    },
    {
      "inputs": [],
      "name": "ARBITRUM_COMPRESSION_PERCENT",
      "outputs": [
        {
          "internalType": "uint128",
          "name": "",
          "type": "uint128"
        }
      ],
      "stateMutability": "view",
      "type": "function"
    },
    {
      "inputs": [],
      "name": "PRICE_RATIO_DENOMINATOR",
      "outputs": [
        {
          "internalType": "uint128",
          "name": "",
          "type": "uint128"
        }
      ],
      "stateMutability": "view",
      "type": "function"
    },
    {
      "inputs": [],
      "name": "arbitrumPriceExt",
      "outputs": [
        {
          "internalType": "uint64",
          "name": "gasPerL2Tx",
          "type": "uint64"
        },
        {
          "internalType": "uint32",
          "name": "gasPerL1CallDataByte",
          "type": "uint32"
        }
      ],
      "stateMutability": "view",
      "type": "function"
    },
    {
      "inputs": [
        {
          "internalType": "uint16",
          "name": "",
          "type": "uint16"
        }
      ],
      "name": "defaultModelPrice",
      "outputs": [
        {
          "internalType": "uint128",
          "name": "priceRatio",
          "type": "uint128"
        },
        {
          "internalType": "uint64",
          "name": "gasPriceInUnit",
          "type": "uint64"
        },
        {
          "internalType": "uint32",
          "name": "gasPerByte",
          "type": "uint32"
        }
      ],
      "stateMutability": "view",
      "type": "function"
    },
    {
      "inputs": [
        {
          "internalType": "uint16",
          "name": "_dstChainId",
          "type": "uint16"
        },
        {
          "internalType": "uint256",
          "name": "_callDataSize",
          "type": "uint256"
        },
        {
          "internalType": "uint256",
          "name": "_gas",
          "type": "uint256"
        }
      ],
      "name": "estimateFeeByChain",
      "outputs": [
        {
          "internalType": "uint256",
          "name": "fee",
          "type": "uint256"
        },
        {
          "internalType": "uint128",
          "name": "priceRatio",
          "type": "uint128"
        }
      ],
      "stateMutability": "view",
      "type": "function"
    },
    {
      "inputs": [
        {
          "internalType": "uint16",
          "name": "_dstChainId",
          "type": "uint16"
        },
        {
          "internalType": "uint256",
          "name": "_callDataSize",
          "type": "uint256"
        },
        {
          "internalType": "uint256",
          "name": "_gas",
          "type": "uint256"
        }
      ],
      "name": "estimateFeeWithArbitrumModel",
      "outputs": [
        {
          "internalType": "uint256",
          "name": "fee",
          "type": "uint256"
        },
        {
          "internalType": "uint128",
          "name": "priceRatio",
          "type": "uint128"
        }
      ],
      "stateMutability": "view",
      "type": "function"
    },
    {
      "inputs": [
        {
          "internalType": "uint16",
          "name": "_dstChainId",
          "type": "uint16"
        },
        {
          "internalType": "uint256",
          "name": "_callDataSize",
          "type": "uint256"
        },
        {
          "internalType": "uint256",
          "name": "_gas",
          "type": "uint256"
        }
      ],
      "name": "estimateFeeWithDefaultModel",
      "outputs": [
        {
          "internalType": "uint256",
          "name": "fee",
          "type": "uint256"
        },
        {
          "internalType": "uint128",
          "name": "priceRatio",
          "type": "uint128"
        }
      ],
      "stateMutability": "view",
      "type": "function"
    },
    {
      "inputs": [
        {
          "internalType": "uint16",
          "name": "_dstChainId",
          "type": "uint16"
        },
        {
          "internalType": "uint256",
          "name": "_callDataSize",
          "type": "uint256"
        },
        {
          "internalType": "uint256",
          "name": "_gas",
          "type": "uint256"
        }
      ],
      "name": "estimateFeeWithOptimismModel",
      "outputs": [
        {
          "internalType": "uint256",
          "name": "fee",
          "type": "uint256"
        },
        {
          "internalType": "uint128",
          "name": "priceRatio",
          "type": "uint128"
        }
      ],
      "stateMutability": "view",
      "type": "function"
    },
    {
      "inputs": [
        {
          "internalType": "uint16",
          "name": "_dstChainId",
          "type": "uint16"
        }
      ],
      "name": "getPrice",
      "outputs": [
        {
          "components": [
            {
              "internalType": "uint128",
              "name": "priceRatio",
              "type": "uint128"
            },
            {
              "internalType": "uint64",
              "name": "gasPriceInUnit",
              "type": "uint64"
            },
            {
              "internalType": "uint32",
              "name": "gasPerByte",
              "type": "uint32"
            }
          ],
          "internalType": "struct ILayerZeroPriceFeed.Price",
          "name": "price",
          "type": "tuple"
        }
      ],
      "stateMutability": "view",
      "type": "function"
    },
    {
      "inputs": [],
      "name": "getPriceRatioDenominator",
      "outputs": [
        {
          "internalType": "uint128",
          "name": "",
          "type": "uint128"
        }
      ],
      "stateMutability": "view",
      "type": "function"
    },
    {
      "inputs": [
        {
          "internalType": "address",
          "name": "_priceUpdater",
          "type": "address"
        }
      ],
      "name": "initialize",
      "outputs": [],
      "stateMutability": "nonpayable",
      "type": "function"
    },
    {
      "inputs": [],
      "name": "nativeTokenPriceUSD",
      "outputs": [
        {
          "internalType": "uint128",
          "name": "",
          "type": "uint128"
        }
      ],
      "stateMutability": "view",
      "type": "function"
    },
    {
      "inputs": [],
      "name": "onUpgrade",
      "outputs": [],
      "stateMutability": "nonpayable",
      "type": "function"
    },
    {
      "inputs": [],
      "name": "owner",
      "outputs": [
        {
          "internalType": "address",
          "name": "",
          "type": "address"
        }
      ],
      "stateMutability": "view",
      "type": "function"
    },
    {
      "inputs": [
        {
          "internalType": "address",
          "name": "",
          "type": "address"
        }
      ],
      "name": "priceUpdater",
      "outputs": [
        {
          "internalType": "bool",
          "name": "",
          "type": "bool"
        }
      ],
      "stateMutability": "view",
      "type": "function"
    },
    {
      "inputs": [],
      "name": "renounceOwnership",
      "outputs": [],
      "stateMutability": "nonpayable",
      "type": "function"
    },
    {
      "inputs": [
        {
          "internalType": "uint128",
          "name": "_compressionPercent",
          "type": "uint128"
        }
      ],
      "name": "setArbitrumCompressionPercent",
      "outputs": [],
      "stateMutability": "nonpayable",
      "type": "function"
    },
    {
      "inputs": [
        {
          "internalType": "uint128",
          "name": "_nativeTokenPriceUSD",
          "type": "uint128"
        }
      ],
      "name": "setNativeTokenPriceUSD",
      "outputs": [],
      "stateMutability": "nonpayable",
      "type": "function"
    },
    {
      "inputs": [
        {
          "components": [
            {
              "internalType": "uint16",
              "name": "chainId",
              "type": "uint16"
            },
            {
              "components": [
                {
                  "internalType": "uint128",
                  "name": "priceRatio",
                  "type": "uint128"
                },
                {
                  "internalType": "uint64",
                  "name": "gasPriceInUnit",
                  "type": "uint64"
                },
                {
                  "internalType": "uint32",
                  "name": "gasPerByte",
                  "type": "uint32"
                }
              ],
              "internalType": "struct ILayerZeroPriceFeed.Price",
              "name": "price",
              "type": "tuple"
            }
          ],
          "internalType": "struct ILayerZeroPriceFeed.UpdatePrice[]",
          "name": "_price",
          "type": "tuple[]"
        }
      ],
      "name": "setPrice",
      "outputs": [],
      "stateMutability": "nonpayable",
      "type": "function"
    },
    {
      "inputs": [
        {
          "components": [
            {
              "internalType": "uint16",
              "name": "chainId",
              "type": "uint16"
            },
            {
              "components": [
                {
                  "internalType": "uint128",
                  "name": "priceRatio",
                  "type": "uint128"
                },
                {
                  "internalType": "uint64",
                  "name": "gasPriceInUnit",
                  "type": "uint64"
                },
                {
                  "internalType": "uint32",
                  "name": "gasPerByte",
                  "type": "uint32"
                }
              ],
              "internalType": "struct ILayerZeroPriceFeed.Price",
              "name": "price",
              "type": "tuple"
            },
            {
              "components": [
                {
                  "internalType": "uint64",
                  "name": "gasPerL2Tx",
                  "type": "uint64"
                },
                {
                  "internalType": "uint32",
                  "name": "gasPerL1CallDataByte",
                  "type": "uint32"
                }
              ],
              "internalType": "struct ILayerZeroPriceFeed.ArbitrumPriceExt",
              "name": "extend",
              "type": "tuple"
            }
          ],
          "internalType": "struct ILayerZeroPriceFeed.UpdatePriceExt[]",
          "name": "_price",
          "type": "tuple[]"
        }
      ],
      "name": "setPriceForArbitrum",
      "outputs": [],
      "stateMutability": "nonpayable",
      "type": "function"
    },
    {
      "inputs": [
        {
          "internalType": "uint128",
          "name": "_denominator",
          "type": "uint128"
        }
      ],
      "name": "setPriceRatioDenominator",
      "outputs": [],
      "stateMutability": "nonpayable",
      "type": "function"
    },
    {
      "inputs": [
        {
          "internalType": "address",
          "name": "_addr",
          "type": "address"
        },
        {
          "internalType": "bool",
          "name": "_active",
          "type": "bool"
        }
      ],
      "name": "setPriceUpdater",
      "outputs": [],
      "stateMutability": "nonpayable",
      "type": "function"
    },
    {
      "inputs": [
        {
          "internalType": "address",
          "name": "newOwner",
          "type": "address"
        }
      ],
      "name": "transferOwnership",
      "outputs": [],
      "stateMutability": "nonpayable",
      "type": "function"
    }
  ],
  "transactionHash": "0x916f3fbe0097d8dc3ed4c60b1c5519843530f27b121ce468d021e8ccdbb29af4",
  "args": [],
  "numDeployments": 2,
  "solcInputHash": "f6f2afdc103bffd43fe559d2c8478afc",
  "bytecode": "0x608060405234801561001057600080fd5b506120de806100206000396000f3fe608060405234801561001057600080fd5b506004361061018d5760003560e01c80638da5cb5b116100e3578063cd68b79b1161008c578063e15d16e811610066578063e15d16e814610320578063f2fde38b14610333578063ff37b496146103465761018d565b8063cd68b79b146102e5578063d350ad25146102ed578063e0ad121a146103005761018d565b8063ab1518ab116100bd578063ab1518ab146102b7578063c1840327146102ca578063c4d66de8146102d25761018d565b80638da5cb5b146102785780638f7002d21461028d57806392807f58146102af5761018d565b806352a7251011610145578063715018a61161011f578063715018a61461022f5780637bc3c9ab146102375780638ca2fb08146102585761018d565b806352a72510146101f65780635d6d7ccb14610209578063711746e21461021c5761018d565b80632f7cb0b4116101765780632f7cb0b4146101af57806336a5beba146101c25780633c04741e146101e15761018d565b806315527af6146101925780631824a46b146101a7575b600080fd5b6101a56101a0366004611cf2565b610359565b005b6101a56104c2565b6101a56101bd366004611e25565b6105a6565b6101ca610683565b6040516101d8929190612013565b60405180910390f35b6101e96106a7565b6040516101d89190611f9c565b6101a5610204366004611cb8565b6106bf565b6101a5610217366004611e25565b6107bd565b6101a561022a366004611d62565b61086d565b6101a5610916565b61024a610245366004611e59565b610a2d565b6040516101d8929190611ff3565b61026b610266366004611c97565b610abc565b6040516101d89190611ee0565b610280610ad1565b6040516101d89190611ebf565b6102a061029b366004611e3f565b610aed565b6040516101d893929190611fb9565b6101e9610b54565b61024a6102c5366004611e59565b610b6c565b6101e9610d26565b6101a56102e0366004611c97565b610d3e565b6101e9610f8b565b6101a56102fb366004611e25565b610fb7565b61031361030e366004611e3f565b6110a2565b6040516101d89190611f59565b61024a61032e366004611e59565b611132565b6101a5610341366004611c97565b611202565b61024a610354366004611e59565b6113a4565b33610362610ad1565b73ffffffffffffffffffffffffffffffffffffffff16146103cf573360009081526066602052604090205460ff166103cf576040517f08c379a00000000000000000000000000000000000000000000000000000000081526004016103c690611eeb565b60405180910390fd5b60005b818110156104bd57368383838181106103e757fe5b60c00291909101915061041990506104026020830183611e3f565b61041436849003840160208501611dc0565b6114e6565b600061042b60a0830160808401611ea5565b9050600061043f60c0840160a08501611e8b565b6068805463ffffffff90921668010000000000000000027fffffffffffffffffffffffffffffffffffffffff00000000ffffffffffffffff67ffffffffffffffff9095167fffffffffffffffffffffffffffffffffffffffffffffffff000000000000000090931692909217939093161790915550506001016103d2565b505050565b60006104cc611602565b905073ffffffffffffffffffffffffffffffffffffffff81166105255773ffffffffffffffffffffffffffffffffffffffff7fb53127684a568b3173ae13b9f8a6016e243e63b6e8ee1178d6a717850b5d610355610547565b3373ffffffffffffffffffffffffffffffffffffffff82161461054757600080fd5b50606580546402540be4007fffffffffffffffffffffffffffffffff00000000000000000000000000000000909116179055606980546fffffffffffffffffffffffffffffffff16702f00000000000000000000000000000000179055565b6105ae611627565b73ffffffffffffffffffffffffffffffffffffffff166105cc610ad1565b73ffffffffffffffffffffffffffffffffffffffff161461064e57604080517f08c379a000000000000000000000000000000000000000000000000000000000815260206004820181905260248201527f4f776e61626c653a2063616c6c6572206973206e6f7420746865206f776e6572604482015290519081900360640190fd5b606980546fffffffffffffffffffffffffffffffff928316700100000000000000000000000000000000029216919091179055565b60685467ffffffffffffffff81169068010000000000000000900463ffffffff1682565b6065546fffffffffffffffffffffffffffffffff1681565b6106c7611627565b73ffffffffffffffffffffffffffffffffffffffff166106e5610ad1565b73ffffffffffffffffffffffffffffffffffffffff161461076757604080517f08c379a000000000000000000000000000000000000000000000000000000000815260206004820181905260248201527f4f776e61626c653a2063616c6c6572206973206e6f7420746865206f776e6572604482015290519081900360640190fd5b73ffffffffffffffffffffffffffffffffffffffff91909116600090815260666020526040902080547fffffffffffffffffffffffffffffffffffffffffffffffffffffffffffffff0016911515919091179055565b336107c6610ad1565b73ffffffffffffffffffffffffffffffffffffffff161461082a573360009081526066602052604090205460ff1661082a576040517f08c379a00000000000000000000000000000000000000000000000000000000081526004016103c690611eeb565b606980547fffffffffffffffffffffffffffffffff00000000000000000000000000000000166fffffffffffffffffffffffffffffffff92909216919091179055565b33610876610ad1565b73ffffffffffffffffffffffffffffffffffffffff16146108da573360009081526066602052604090205460ff166108da576040517f08c379a00000000000000000000000000000000000000000000000000000000081526004016103c690611eeb565b60005b818110156104bd57368383838181106108f257fe5b60800291909101915061090d90506104026020830183611e3f565b506001016108dd565b61091e611627565b73ffffffffffffffffffffffffffffffffffffffff1661093c610ad1565b73ffffffffffffffffffffffffffffffffffffffff16146109be57604080517f08c379a000000000000000000000000000000000000000000000000000000000815260206004820181905260248201527f4f776e61626c653a2063616c6c6572206973206e6f7420746865206f776e6572604482015290519081900360640190fd5b60335460405160009173ffffffffffffffffffffffffffffffffffffffff16907f8be0079c531659141344cd1fd0a4f28419497f9722a3daafe3b4186f6b6457e0908390a3603380547fffffffffffffffffffffffff0000000000000000000000000000000000000000169055565b6000808461ffff16606e1480610a4857508461ffff1661279f145b80610a5857508461ffff16614eaf145b15610a7157610a688585856113a4565b91509150610ab4565b8461ffff16606f1480610a8957508461ffff16612794145b80610a9957508461ffff16614ea4145b15610aa957610a68858585610b6c565b610a68858585611132565b935093915050565b60666020526000908152604090205460ff1681565b60335473ffffffffffffffffffffffffffffffffffffffff1690565b6067602052600090815260409020546fffffffffffffffffffffffffffffffff811690700100000000000000000000000000000000810467ffffffffffffffff16907801000000000000000000000000000000000000000000000000900463ffffffff1683565b6069546fffffffffffffffffffffffffffffffff1681565b6000806000610b7a8661162b565b61ffff81166000908152606760205260408120805492935091610bd290610c7490610bcc908a9063ffffffff78010000000000000000000000000000000000000000000000009091048116906116a716565b90611723565b8254909150600090610c03908390700100000000000000000000000000000000900467ffffffffffffffff166116a7565b61ffff8a166000908152606760205260408120805492935091610c4d908b9063ffffffff78010000000000000000000000000000000000000000000000009091048116906116a716565b8254909150600090610c8790700100000000000000000000000000000000900467ffffffffffffffff16610c81848d611723565b906116a7565b6065548754919250600091610cbd916fffffffffffffffffffffffffffffffff90811691610cb7918991166116a7565b90611797565b6065548554919250600091610ced916fffffffffffffffffffffffffffffffff90811691610cb7918791166116a7565b90506000610cfb8383611723565b9554959f6fffffffffffffffffffffffffffffffff9096169e50949c50505050505050505050505050565b6065546fffffffffffffffffffffffffffffffff1690565b6000610d48611602565b905073ffffffffffffffffffffffffffffffffffffffff8116610da15773ffffffffffffffffffffffffffffffffffffffff7fb53127684a568b3173ae13b9f8a6016e243e63b6e8ee1178d6a717850b5d610355610dc3565b3373ffffffffffffffffffffffffffffffffffffffff821614610dc357600080fd5b600054610100900460ff1680610ddc5750610ddc611818565b80610dea575060005460ff16155b610e3f576040517f08c379a000000000000000000000000000000000000000000000000000000000815260040180806020018281038252602e81526020018061205a602e913960400191505060405180910390fd5b600054610100900460ff16158015610ea557600080547fffffffffffffffffffffffffffffffffffffffffffffffffffffffffffffff007fffffffffffffffffffffffffffffffffffffffffffffffffffffffffffff00ff909116610100171660011790555b610ead611829565b73ffffffffffffffffffffffffffffffffffffffff8316600090815260666020526040902080547fffffffffffffffffffffffffffffffffffffffffffffffffffffffffffffff00166001179055606580547fffffffffffffffffffffffffffffffff00000000000000000000000000000000166402540be40017905560698054702f000000000000000000000000000000006fffffffffffffffffffffffffffffffff9190911617905580156104bd57600080547fffffffffffffffffffffffffffffffffffffffffffffffffffffffffffff00ff169055505050565b60695470010000000000000000000000000000000090046fffffffffffffffffffffffffffffffff1681565b610fbf611627565b73ffffffffffffffffffffffffffffffffffffffff16610fdd610ad1565b73ffffffffffffffffffffffffffffffffffffffff161461105f57604080517f08c379a000000000000000000000000000000000000000000000000000000000815260206004820181905260248201527f4f776e61626c653a2063616c6c6572206973206e6f7420746865206f776e6572604482015290519081900360640190fd5b606580547fffffffffffffffffffffffffffffffff00000000000000000000000000000000166fffffffffffffffffffffffffffffffff92909216919091179055565b6110aa611bf5565b5061ffff16600090815260676020908152604091829020825160608101845290546fffffffffffffffffffffffffffffffff81168252700100000000000000000000000000000000810467ffffffffffffffff1692820192909252780100000000000000000000000000000000000000000000000090910463ffffffff169181019190915290565b61ffff831660009081526067602052604081208054829190829061117d90879063ffffffff78010000000000000000000000000000000000000000000000009091048116906116a716565b82549091506000906111b190700100000000000000000000000000000000900467ffffffffffffffff16610c818489611723565b60655484549192506111de916fffffffffffffffffffffffffffffffff91821691610cb7918591166116a7565b925492986fffffffffffffffffffffffffffffffff90931697509195505050505050565b61120a611627565b73ffffffffffffffffffffffffffffffffffffffff16611228610ad1565b73ffffffffffffffffffffffffffffffffffffffff16146112aa57604080517f08c379a000000000000000000000000000000000000000000000000000000000815260206004820181905260248201527f4f776e61626c653a2063616c6c6572206973206e6f7420746865206f776e6572604482015290519081900360640190fd5b73ffffffffffffffffffffffffffffffffffffffff8116611316576040517f08c379a00000000000000000000000000000000000000000000000000000000081526004018080602001828103825260268152602001806120346026913960400191505060405180910390fd5b60335460405173ffffffffffffffffffffffffffffffffffffffff8084169216907f8be0079c531659141344cd1fd0a4f28419497f9722a3daafe3b4186f6b6457e090600090a3603380547fffffffffffffffffffffffff00000000000000000000000000000000000000001673ffffffffffffffffffffffffffffffffffffffff92909216919091179055565b61ffff8316600090815260676020526040812060685460695483929183916114159168010000000000000000900463ffffffff90811691610c8191606491610cb7918c9170010000000000000000000000000000000090046fffffffffffffffffffffffffffffffff16906116a716565b825490915060009061144e90889063ffffffff78010000000000000000000000000000000000000000000000009091048116906116a716565b83546068549192506000916114949167ffffffffffffffff700100000000000000000000000000000000909104811691610c81918691610bcc91899183918f9116611723565b60655485549192506114c1916fffffffffffffffffffffffffffffffff91821691610cb7918591166116a7565b935493996fffffffffffffffffffffffffffffffff9094169850929650505050505050565b805160208083015160409384015184516060810186526fffffffffffffffffffffffffffffffff948516815267ffffffffffffffff92831681850190815263ffffffff92831682880190815261ffff909816600090815260679095529590932092518354955196519091167801000000000000000000000000000000000000000000000000027fffffffff00000000ffffffffffffffffffffffffffffffffffffffffffffffff96909216700100000000000000000000000000000000027fffffffffffffffff0000000000000000ffffffffffffffffffffffffffffffff919094167fffffffffffffffffffffffffffffffff0000000000000000000000000000000090951694909417939093169190911792909216179055565b7fb53127684a568b3173ae13b9f8a6016e243e63b6e8ee1178d6a717850b5d61035490565b3390565b60008161ffff16606f1415611642575060656116a2565b8161ffff16612794141561165957506127896116a2565b8161ffff16614ea414156116705750614e996116a2565b6040517f08c379a00000000000000000000000000000000000000000000000000000000081526004016103c690611f22565b919050565b6000826116b65750600061171d565b828202828482816116c357fe5b041461171a576040517f08c379a00000000000000000000000000000000000000000000000000000000081526004018080602001828103825260218152602001806120886021913960400191505060405180910390fd5b90505b92915050565b60008282018381101561171a57604080517f08c379a000000000000000000000000000000000000000000000000000000000815260206004820152601b60248201527f536166654d6174683a206164646974696f6e206f766572666c6f770000000000604482015290519081900360640190fd5b600080821161180757604080517f08c379a000000000000000000000000000000000000000000000000000000000815260206004820152601a60248201527f536166654d6174683a206469766973696f6e206279207a65726f000000000000604482015290519081900360640190fd5b81838161181057fe5b049392505050565b60006118233061194d565b15905090565b600054610100900460ff16806118425750611842611818565b80611850575060005460ff16155b6118a5576040517f08c379a000000000000000000000000000000000000000000000000000000000815260040180806020018281038252602e81526020018061205a602e913960400191505060405180910390fd5b600054610100900460ff1615801561190b57600080547fffffffffffffffffffffffffffffffffffffffffffffffffffffffffffffff007fffffffffffffffffffffffffffffffffffffffffffffffffffffffffffff00ff909116610100171660011790555b611913611953565b61191b611a65565b801561194a57600080547fffffffffffffffffffffffffffffffffffffffffffffffffffffffffffff00ff1690555b50565b3b151590565b600054610100900460ff168061196c575061196c611818565b8061197a575060005460ff16155b6119cf576040517f08c379a000000000000000000000000000000000000000000000000000000000815260040180806020018281038252602e81526020018061205a602e913960400191505060405180910390fd5b600054610100900460ff1615801561191b57600080547fffffffffffffffffffffffffffffffffffffffffffffffffffffffffffffff007fffffffffffffffffffffffffffffffffffffffffffffffffffffffffffff00ff90911661010017166001179055801561194a57600080547fffffffffffffffffffffffffffffffffffffffffffffffffffffffffffff00ff16905550565b600054610100900460ff1680611a7e5750611a7e611818565b80611a8c575060005460ff16155b611ae1576040517f08c379a000000000000000000000000000000000000000000000000000000000815260040180806020018281038252602e81526020018061205a602e913960400191505060405180910390fd5b600054610100900460ff16158015611b4757600080547fffffffffffffffffffffffffffffffffffffffffffffffffffffffffffffff007fffffffffffffffffffffffffffffffffffffffffffffffffffffffffffff00ff909116610100171660011790555b6000611b51611627565b603380547fffffffffffffffffffffffff00000000000000000000000000000000000000001673ffffffffffffffffffffffffffffffffffffffff8316908117909155604051919250906000907f8be0079c531659141344cd1fd0a4f28419497f9722a3daafe3b4186f6b6457e0908290a350801561194a57600080547fffffffffffffffffffffffffffffffffffffffffffffffffffffffffffff00ff16905550565b604080516060810182526000808252602082018190529181019190915290565b803573ffffffffffffffffffffffffffffffffffffffff811681146116a257600080fd5b80356fffffffffffffffffffffffffffffffff811681146116a257600080fd5b803561ffff811681146116a257600080fd5b803563ffffffff811681146116a257600080fd5b803567ffffffffffffffff811681146116a257600080fd5b600060208284031215611ca8578081fd5b611cb182611c15565b9392505050565b60008060408385031215611cca578081fd5b611cd383611c15565b915060208301358015158114611ce7578182fd5b809150509250929050565b60008060208385031215611d04578182fd5b823567ffffffffffffffff80821115611d1b578384fd5b818501915085601f830112611d2e578384fd5b813581811115611d3c578485fd5b86602060c083028501011115611d50578485fd5b60209290920196919550909350505050565b60008060208385031215611d74578182fd5b823567ffffffffffffffff80821115611d8b578384fd5b818501915085601f830112611d9e578384fd5b813581811115611dac578485fd5b866020608083028501011115611d50578485fd5b600060608284031215611dd1578081fd5b6040516060810181811067ffffffffffffffff82111715611dee57fe5b604052611dfa83611c39565b8152611e0860208401611c7f565b6020820152611e1960408401611c6b565b60408201529392505050565b600060208284031215611e36578081fd5b611cb182611c39565b600060208284031215611e50578081fd5b611cb182611c59565b600080600060608486031215611e6d578081fd5b611e7684611c59565b95602085013595506040909401359392505050565b600060208284031215611e9c578081fd5b611cb182611c6b565b600060208284031215611eb6578081fd5b611cb182611c7f565b73ffffffffffffffffffffffffffffffffffffffff91909116815260200190565b901515815260200190565b6020808252601c908201527f5072696365466565643a206e6f74207072696365207570646174657200000000604082015260600190565b6020808252601e908201527f5072696365466565643a20756e6b6e6f776e206c3220636861696e2069640000604082015260600190565b81516fffffffffffffffffffffffffffffffff16815260208083015167ffffffffffffffff169082015260409182015163ffffffff169181019190915260600190565b6fffffffffffffffffffffffffffffffff91909116815260200190565b6fffffffffffffffffffffffffffffffff93909316835267ffffffffffffffff91909116602083015263ffffffff16604082015260600190565b9182526fffffffffffffffffffffffffffffffff16602082015260400190565b67ffffffffffffffff92909216825263ffffffff1660208201526040019056fe4f776e61626c653a206e6577206f776e657220697320746865207a65726f2061646472657373496e697469616c697a61626c653a20636f6e747261637420697320616c726561647920696e697469616c697a6564536166654d6174683a206d756c7469706c69636174696f6e206f766572666c6f77a26469706673582212201bba41ce48954cd9229eed28300edb68da5cf31270516a04c9d358203f2f224264736f6c63430007060033",
  "devdoc": {
    "kind": "dev",
    "methods": {
      "owner()": {
        "details": "Returns the address of the current owner."
      },
      "renounceOwnership()": {
        "details": "Leaves the contract without owner. It will not be possible to call `onlyOwner` functions anymore. Can only be called by the current owner. NOTE: Renouncing ownership will leave the contract without an owner, thereby removing any functionality that is only available to the owner."
      },
      "transferOwnership(address)": {
        "details": "Transfers ownership of the contract to a new account (`newOwner`). Can only be called by the current owner."
      }
    },
    "version": 1
  },
  "userdoc": {
    "kind": "user",
    "methods": {},
    "version": 1
  },
  "storageLayout": {
    "storage": [
      {
        "astId": 137,
        "contract": "contracts/PriceFeed.sol:PriceFeed",
        "label": "_initialized",
        "offset": 0,
        "slot": "0",
        "type": "t_bool"
      },
      {
        "astId": 140,
        "contract": "contracts/PriceFeed.sol:PriceFeed",
        "label": "_initializing",
        "offset": 1,
        "slot": "0",
        "type": "t_bool"
      },
      {
        "astId": 484,
        "contract": "contracts/PriceFeed.sol:PriceFeed",
        "label": "__gap",
        "offset": 0,
        "slot": "1",
        "type": "t_array(t_uint256)50_storage"
      },
      {
        "astId": 10,
        "contract": "contracts/PriceFeed.sol:PriceFeed",
        "label": "_owner",
        "offset": 0,
        "slot": "51",
        "type": "t_address"
      },
      {
        "astId": 129,
        "contract": "contracts/PriceFeed.sol:PriceFeed",
        "label": "__gap",
        "offset": 0,
        "slot": "52",
        "type": "t_array(t_uint256)49_storage"
      },
      {
        "astId": 4857,
        "contract": "contracts/PriceFeed.sol:PriceFeed",
        "label": "PRICE_RATIO_DENOMINATOR",
        "offset": 0,
        "slot": "101",
        "type": "t_uint128"
      },
      {
        "astId": 4861,
        "contract": "contracts/PriceFeed.sol:PriceFeed",
        "label": "priceUpdater",
        "offset": 0,
        "slot": "102",
        "type": "t_mapping(t_address,t_bool)"
      },
      {
        "astId": 4865,
        "contract": "contracts/PriceFeed.sol:PriceFeed",
        "label": "defaultModelPrice",
        "offset": 0,
        "slot": "103",
        "type": "t_mapping(t_uint16,t_struct(Price)16679_storage)"
      },
      {
        "astId": 4867,
        "contract": "contracts/PriceFeed.sol:PriceFeed",
        "label": "arbitrumPriceExt",
        "offset": 0,
        "slot": "104",
        "type": "t_struct(ArbitrumPriceExt)16689_storage"
      },
      {
        "astId": 4870,
        "contract": "contracts/PriceFeed.sol:PriceFeed",
        "label": "nativeTokenPriceUSD",
        "offset": 0,
        "slot": "105",
        "type": "t_uint128"
      },
      {
        "astId": 4872,
        "contract": "contracts/PriceFeed.sol:PriceFeed",
        "label": "ARBITRUM_COMPRESSION_PERCENT",
        "offset": 16,
        "slot": "105",
        "type": "t_uint128"
      }
    ],
    "types": {
      "t_address": {
        "encoding": "inplace",
        "label": "address",
        "numberOfBytes": "20"
      },
      "t_array(t_uint256)49_storage": {
        "base": "t_uint256",
        "encoding": "inplace",
        "label": "uint256[49]",
        "numberOfBytes": "1568"
      },
      "t_array(t_uint256)50_storage": {
        "base": "t_uint256",
        "encoding": "inplace",
        "label": "uint256[50]",
        "numberOfBytes": "1600"
      },
      "t_bool": {
        "encoding": "inplace",
        "label": "bool",
        "numberOfBytes": "1"
      },
      "t_mapping(t_address,t_bool)": {
        "encoding": "mapping",
        "key": "t_address",
        "label": "mapping(address => bool)",
        "numberOfBytes": "32",
        "value": "t_bool"
      },
      "t_mapping(t_uint16,t_struct(Price)16679_storage)": {
        "encoding": "mapping",
        "key": "t_uint16",
        "label": "mapping(uint16 => struct ILayerZeroPriceFeed.Price)",
        "numberOfBytes": "32",
        "value": "t_struct(Price)16679_storage"
      },
      "t_struct(ArbitrumPriceExt)16689_storage": {
        "encoding": "inplace",
        "label": "struct ILayerZeroPriceFeed.ArbitrumPriceExt",
        "members": [
          {
            "astId": 16686,
            "contract": "contracts/PriceFeed.sol:PriceFeed",
            "label": "gasPerL2Tx",
            "offset": 0,
            "slot": "0",
            "type": "t_uint64"
          },
          {
            "astId": 16688,
            "contract": "contracts/PriceFeed.sol:PriceFeed",
            "label": "gasPerL1CallDataByte",
            "offset": 8,
            "slot": "0",
            "type": "t_uint32"
          }
        ],
        "numberOfBytes": "32"
      },
      "t_struct(Price)16679_storage": {
        "encoding": "inplace",
        "label": "struct ILayerZeroPriceFeed.Price",
        "members": [
          {
            "astId": 16674,
            "contract": "contracts/PriceFeed.sol:PriceFeed",
            "label": "priceRatio",
            "offset": 0,
            "slot": "0",
            "type": "t_uint128"
          },
          {
            "astId": 16676,
            "contract": "contracts/PriceFeed.sol:PriceFeed",
            "label": "gasPriceInUnit",
            "offset": 16,
            "slot": "0",
            "type": "t_uint64"
          },
          {
            "astId": 16678,
            "contract": "contracts/PriceFeed.sol:PriceFeed",
            "label": "gasPerByte",
            "offset": 24,
            "slot": "0",
            "type": "t_uint32"
          }
        ],
        "numberOfBytes": "32"
      },
      "t_uint128": {
        "encoding": "inplace",
        "label": "uint128",
        "numberOfBytes": "16"
      },
      "t_uint16": {
        "encoding": "inplace",
        "label": "uint16",
        "numberOfBytes": "2"
      },
      "t_uint256": {
        "encoding": "inplace",
        "label": "uint256",
        "numberOfBytes": "32"
      },
      "t_uint32": {
        "encoding": "inplace",
        "label": "uint32",
        "numberOfBytes": "4"
      },
      "t_uint64": {
        "encoding": "inplace",
        "label": "uint64",
        "numberOfBytes": "8"
      }
    }
  }
}