{
  "address": "0x655ba597DE4ed86537b73790A59e729Af8bEBdc9",
  "abi": [
    {
      "inputs": [
        {
          "internalType": "address",
          "name": "_layerZeroEndpoint",
          "type": "address"
        }
      ],
      "stateMutability": "nonpayable",
      "type": "constructor"
    },
    {
      "anonymous": false,
      "inputs": [
        {
          "indexed": false,
          "internalType": "uint256",
          "name": "pings",
          "type": "uint256"
        }
      ],
      "name": "Ping",
      "type": "event"
    },
    {
      "stateMutability": "payable",
      "type": "fallback"
    },
    {
      "inputs": [],
      "name": "disable",
      "outputs": [],
      "stateMutability": "nonpayable",
      "type": "function"
    },
    {
      "inputs": [],
      "name": "endpoint",
      "outputs": [
        {
          "internalType": "contract ILayerZeroEndpoint",
          "name": "",
          "type": "address"
        }
      ],
      "stateMutability": "view",
      "type": "function"
    },
    {
      "inputs": [
        {
          "internalType": "uint16",
          "name": "_srcChainId",
          "type": "uint16"
        },
        {
          "internalType": "bytes",
          "name": "_srcAddress",
          "type": "bytes"
        }
      ],
      "name": "forceResumeReceive",
      "outputs": [],
      "stateMutability": "nonpayable",
      "type": "function"
    },
    {
      "inputs": [
        {
          "internalType": "uint16",
          "name": "",
          "type": "uint16"
        },
        {
          "internalType": "uint16",
          "name": "_chainId",
          "type": "uint16"
        },
        {
          "internalType": "address",
          "name": "",
          "type": "address"
        },
        {
          "internalType": "uint256",
          "name": "_configType",
          "type": "uint256"
        }
      ],
      "name": "getConfig",
      "outputs": [
        {
          "internalType": "bytes",
          "name": "",
          "type": "bytes"
        }
      ],
      "stateMutability": "view",
      "type": "function"
    },
    {
      "inputs": [],
      "name": "getReceiveVersion",
      "outputs": [
        {
          "internalType": "uint16",
          "name": "",
          "type": "uint16"
        }
      ],
      "stateMutability": "view",
      "type": "function"
    },
    {
      "inputs": [],
      "name": "getSendVersion",
      "outputs": [
        {
          "internalType": "uint16",
          "name": "",
          "type": "uint16"
        }
      ],
      "stateMutability": "view",
      "type": "function"
    },
    {
      "inputs": [
        {
          "internalType": "uint16",
          "name": "_srcChainId",
          "type": "uint16"
        },
        {
          "internalType": "bytes",
          "name": "_fromAddress",
          "type": "bytes"
        },
        {
          "internalType": "uint64",
          "name": "",
          "type": "uint64"
        },
        {
          "internalType": "bytes",
          "name": "_payload",
          "type": "bytes"
        }
      ],
      "name": "lzReceive",
      "outputs": [],
      "stateMutability": "nonpayable",
      "type": "function"
    },
    {
      "inputs": [],
      "name": "maxPings",
      "outputs": [
        {
          "internalType": "uint256",
          "name": "",
          "type": "uint256"
        }
      ],
      "stateMutability": "view",
      "type": "function"
    },
    {
      "inputs": [],
      "name": "numPings",
      "outputs": [
        {
          "internalType": "uint256",
          "name": "",
          "type": "uint256"
        }
      ],
      "stateMutability": "view",
      "type": "function"
    },
    {
      "inputs": [
        {
          "internalType": "uint16",
          "name": "_dstChainId",
          "type": "uint16"
        },
        {
          "internalType": "address",
          "name": "_dstPingPongAddr",
          "type": "address"
        },
        {
          "internalType": "uint256",
          "name": "pings",
          "type": "uint256"
        }
      ],
      "name": "ping",
      "outputs": [],
      "stateMutability": "nonpayable",
      "type": "function"
    },
    {
      "inputs": [],
      "name": "pingsEnabled",
      "outputs": [
        {
          "internalType": "bool",
          "name": "",
          "type": "bool"
        }
      ],
      "stateMutability": "view",
      "type": "function"
    },
    {
      "inputs": [
        {
          "internalType": "uint16",
          "name": "",
          "type": "uint16"
        },
        {
          "internalType": "uint16",
          "name": "_dstChainId",
          "type": "uint16"
        },
        {
          "internalType": "uint256",
          "name": "_configType",
          "type": "uint256"
        },
        {
          "internalType": "bytes",
          "name": "_config",
          "type": "bytes"
        }
      ],
      "name": "setConfig",
      "outputs": [],
      "stateMutability": "nonpayable",
      "type": "function"
    },
    {
      "inputs": [
        {
          "internalType": "uint16",
          "name": "version",
          "type": "uint16"
        }
      ],
      "name": "setReceiveVersion",
      "outputs": [],
      "stateMutability": "nonpayable",
      "type": "function"
    },
    {
      "inputs": [
        {
          "internalType": "uint16",
          "name": "version",
          "type": "uint16"
        }
      ],
      "name": "setSendVersion",
      "outputs": [],
      "stateMutability": "nonpayable",
      "type": "function"
    },
    {
      "stateMutability": "payable",
      "type": "receive"
    }
  ],
  "transactionHash": "0x7f0bfd0aeda7ef06f369f4491199b13965b9c1ca65583444a725e1b02ef573c0",
  "args": [
    "0x6Fcb97553D41516Cb228ac03FdC8B9a0a9df04A1"
  ],
  "numDeployments": 2,
  "solcInputHash": "0e9221fd0978ccc6fe7c821029422f6a",
  "bytecode": "0x608060405234801561001057600080fd5b5060405161139a38038061139a83398101604081905261002f91610068565b60008054600160a01b60ff60a01b19909116176001600160a01b0319166001600160a01b03929092169190911790556005600155610096565b600060208284031215610079578081fd5b81516001600160a01b038116811461008f578182fd5b9392505050565b6112f5806100a56000396000f3fe6080604052600436106100e05760003560e01c806354a5beda1161007f578063cbed8b9c11610059578063cbed8b9c14610224578063cf5d147114610244578063f2d566fc14610259578063f5ecbdbc14610279576100e7565b806354a5beda146101cb5780635e280f11146101ed5780636c7c091b1461020f576100e7565b80632f2770db116100bb5780632f2770db14610149578063315f7a7f1461015e5780633ba6107f1461018957806342d65a8d146101ab576100e7565b80621d3567146100e957806307e0db171461010957806310ddb13714610129576100e7565b366100e757005b005b3480156100f557600080fd5b506100e7610104366004610cc0565b6102a6565b34801561011557600080fd5b506100e7610124366004610bc4565b610304565b34801561013557600080fd5b506100e7610144366004610bc4565b61038f565b34801561015557600080fd5b506100e76103e5565b34801561016a57600080fd5b5061017361040f565b604051610180919061120f565b60405180910390f35b34801561019557600080fd5b5061019e610415565b6040516101809190610f03565b3480156101b757600080fd5b506100e76101c6366004610c40565b610436565b3480156101d757600080fd5b506101e061043b565b60405161018091906110bc565b3480156101f957600080fd5b506102026104e7565b6040516101809190610ee2565b34801561021b57600080fd5b50610173610503565b34801561023057600080fd5b506100e761023f366004610d9a565b610509565b34801561025057600080fd5b506101e0610612565b34801561026557600080fd5b506100e7610274366004610c03565b610669565b34801561028557600080fd5b50610299610294366004610d4c565b610994565b6040516101809190610f0e565b60005473ffffffffffffffffffffffffffffffffffffffff1633146102ca57600080fd5b601483015181516000906102e79084016020908101908501610df8565b600101600281905590506102fc868383610669565b505050505050565b6000546040517f07e0db1700000000000000000000000000000000000000000000000000000000815273ffffffffffffffffffffffffffffffffffffffff909116906307e0db179061035a9084906004016110bc565b600060405180830381600087803b15801561037457600080fd5b505af1158015610388573d6000803e3d6000fd5b5050505050565b6000546040517f10ddb13700000000000000000000000000000000000000000000000000000000815273ffffffffffffffffffffffffffffffffffffffff909116906310ddb1379061035a9084906004016110bc565b600080547fffffffffffffffffffffff00ffffffffffffffffffffffffffffffffffffffff169055565b60025481565b60005474010000000000000000000000000000000000000000900460ff1681565b505050565b600080546040517f096568f600000000000000000000000000000000000000000000000000000000815273ffffffffffffffffffffffffffffffffffffffff9091169063096568f690610492903090600401610ee2565b60206040518083038186803b1580156104aa57600080fd5b505afa1580156104be573d6000803e3d6000fd5b505050506040513d601f19601f820116820180604052508101906104e29190610be7565b905090565b60005473ffffffffffffffffffffffffffffffffffffffff1681565b60015481565b6000546040517f096568f600000000000000000000000000000000000000000000000000000000815273ffffffffffffffffffffffffffffffffffffffff9091169063cbed8b9c908590839063096568f690610569903090600401610ee2565b60206040518083038186803b15801561058157600080fd5b505afa158015610595573d6000803e3d6000fd5b505050506040513d601f19601f820116820180604052508101906105b99190610be7565b85856040518563ffffffff1660e01b81526004016105da94939291906111d8565b600060405180830381600087803b1580156105f457600080fd5b505af1158015610608573d6000803e3d6000fd5b5050505050505050565b600080546040517fda1a7c9a00000000000000000000000000000000000000000000000000000000815273ffffffffffffffffffffffffffffffffffffffff9091169063da1a7c9a90610492903090600401610ee2565b600047116106ac576040517f08c379a00000000000000000000000000000000000000000000000000000000081526004016106a39061105e565b60405180910390fd5b60005474010000000000000000000000000000000000000000900460ff16610700576040517f08c379a00000000000000000000000000000000000000000000000000000000081526004016106a390610f21565b806001541161073b576040517f08c379a00000000000000000000000000000000000000000000000000000000081526004016106a390610f7e565b7f48257dc961b6f792c2b78a080dacfed693b660960a702de21cee364e20270e2f8160405161076a919061120f565b60405180910390a1600081604051602001610785919061120f565b604080517fffffffffffffffffffffffffffffffffffffffffffffffffffffffffffffffe081840301815290829052915060019062055730906000906107d19084908490602001610ead565b604080517fffffffffffffffffffffffffffffffffffffffffffffffffffffffffffffffe081840301815290829052600080547f40a7bb100000000000000000000000000000000000000000000000000000000084529193509173ffffffffffffffffffffffffffffffffffffffff909116906340a7bb1090610860908b9030908a90879089906004016110cb565b604080518083038186803b15801561087757600080fd5b505afa15801561088b573d6000803e3d6000fd5b505050506040513d601f19601f820116820180604052508101906108af9190610e10565b509050804710156108ec576040517f08c379a00000000000000000000000000000000000000000000000000000000081526004016106a390610fdb565b60005460405173ffffffffffffffffffffffffffffffffffffffff9091169063c58031009083908b90610923908c90602001610e7d565b60405160208183030381529060405289306000896040518863ffffffff1660e01b81526004016109589695949392919061112a565b6000604051808303818588803b15801561097157600080fd5b505af1158015610985573d6000803e3d6000fd5b50505050505050505050505050565b6000546040517f096568f600000000000000000000000000000000000000000000000000000000815260609173ffffffffffffffffffffffffffffffffffffffff169063f5ecbdbc90829063096568f6906109f3903090600401610ee2565b60206040518083038186803b158015610a0b57600080fd5b505afa158015610a1f573d6000803e3d6000fd5b505050506040513d601f19601f82011682018060405250810190610a439190610be7565b8630866040518563ffffffff1660e01b8152600401610a65949392919061119e565b60006040518083038186803b158015610a7d57600080fd5b505afa158015610a91573d6000803e3d6000fd5b505050506040513d6000823e601f3d9081017fffffffffffffffffffffffffffffffffffffffffffffffffffffffffffffffe0168201604052610ad79190810190610b5a565b95945050505050565b803573ffffffffffffffffffffffffffffffffffffffff81168114610b0457600080fd5b919050565b600082601f830112610b19578081fd5b8135610b2c610b278261123c565b611218565b818152846020838601011115610b40578283fd5b816020850160208301379081016020019190915292915050565b600060208284031215610b6b578081fd5b815167ffffffffffffffff811115610b81578182fd5b8201601f81018413610b91578182fd5b8051610b9f610b278261123c565b818152856020838501011115610bb3578384fd5b610ad782602083016020860161127c565b600060208284031215610bd5578081fd5b8135610be0816112ac565b9392505050565b600060208284031215610bf8578081fd5b8151610be0816112ac565b600080600060608486031215610c17578182fd5b8335610c22816112ac565b9250610c3060208501610ae0565b9150604084013590509250925092565b600080600060408486031215610c54578283fd5b8335610c5f816112ac565b9250602084013567ffffffffffffffff80821115610c7b578384fd5b818601915086601f830112610c8e578384fd5b813581811115610c9c578485fd5b876020828501011115610cad578485fd5b6020830194508093505050509250925092565b60008060008060808587031215610cd5578081fd5b8435610ce0816112ac565b9350602085013567ffffffffffffffff80821115610cfc578283fd5b610d0888838901610b09565b9450604087013591508082168214610d1e578283fd5b90925060608601359080821115610d33578283fd5b50610d4087828801610b09565b91505092959194509250565b60008060008060808587031215610d61578384fd5b8435610d6c816112ac565b93506020850135610d7c816112ac565b9250610d8a60408601610ae0565b9396929550929360600135925050565b60008060008060808587031215610daf578384fd5b8435610dba816112ac565b93506020850135610dca816112ac565b925060408501359150606085013567ffffffffffffffff811115610dec578182fd5b610d4087828801610b09565b600060208284031215610e09578081fd5b5051919050565b60008060408385031215610e22578182fd5b505080516020909101519092909150565b60008151808452610e4b81602086016020860161127c565b601f017fffffffffffffffffffffffffffffffffffffffffffffffffffffffffffffffe0169290920160200192915050565b60609190911b7fffffffffffffffffffffffffffffffffffffffff00000000000000000000000016815260140190565b60f09290921b7fffff000000000000000000000000000000000000000000000000000000000000168252600282015260220190565b73ffffffffffffffffffffffffffffffffffffffff91909116815260200190565b901515815260200190565b600060208252610be06020830184610e33565b60208082526027908201527f70696e6773456e61626c65642069732066616c73652e206d657373616765732060408201527f73746f7070656400000000000000000000000000000000000000000000000000606082015260800190565b6020808252602a908201527f6d617850696e677320686173206265656e20726561636865642c206e6f206d6f60408201527f7265206c6f6f70696e6700000000000000000000000000000000000000000000606082015260800190565b60208082526041908201527f616464726573732874686973292e62616c616e6365203c206d6573736167654660408201527f65652e20706c732073656e642067617320666f72206d6573736167652066656560608201527f7300000000000000000000000000000000000000000000000000000000000000608082015260a00190565b602080825260409082018190527f7468652062616c616e6365206f66207468697320636f6e747261637420697320908201527f302e20706c732073656e642067617320666f72206d6573736167652066656573606082015260800190565b61ffff91909116815260200190565b600061ffff8716825273ffffffffffffffffffffffffffffffffffffffff8616602083015260a0604083015261110460a0830186610e33565b8415156060840152828103608084015261111e8185610e33565b98975050505050505050565b600061ffff8816825260c0602083015261114760c0830188610e33565b82810360408401526111598188610e33565b73ffffffffffffffffffffffffffffffffffffffff87811660608601528616608085015283810360a085015290506111918185610e33565b9998505050505050505050565b61ffff948516815292909316602083015273ffffffffffffffffffffffffffffffffffffffff166040820152606081019190915260800190565b600061ffff8087168352808616602084015250836040830152608060608301526112056080830184610e33565b9695505050505050565b90815260200190565b60405181810167ffffffffffffffff8111828210171561123457fe5b604052919050565b600067ffffffffffffffff82111561125057fe5b50601f017fffffffffffffffffffffffffffffffffffffffffffffffffffffffffffffffe01660200190565b60005b8381101561129757818101518382015260200161127f565b838111156112a6576000848401525b50505050565b61ffff811681146112bc57600080fd5b5056fea26469706673582212202e6d6ccdb23b191dcf4572d2762f8618438085c602f7a3c085a615e042d3b05f64736f6c63430007060033",
  "devdoc": {
    "kind": "dev",
    "methods": {},
    "version": 1
  },
  "userdoc": {
    "kind": "user",
    "methods": {},
    "version": 1
  },
  "storageLayout": {
    "storage": [
      {
        "astId": 14608,
        "contract": "contracts/mocks/PingPong.sol:PingPong",
        "label": "endpoint",
        "offset": 0,
        "slot": "0",
        "type": "t_contract(ILayerZeroEndpoint)12926"
      },
      {
        "astId": 14610,
        "contract": "contracts/mocks/PingPong.sol:PingPong",
        "label": "pingsEnabled",
        "offset": 20,
        "slot": "0",
        "type": "t_bool"
      },
      {
        "astId": 14616,
        "contract": "contracts/mocks/PingPong.sol:PingPong",
        "label": "maxPings",
        "offset": 0,
        "slot": "1",
        "type": "t_uint256"
      },
      {
        "astId": 14618,
        "contract": "contracts/mocks/PingPong.sol:PingPong",
        "label": "numPings",
        "offset": 0,
        "slot": "2",
        "type": "t_uint256"
      }
    ],
    "types": {
      "t_bool": {
        "encoding": "inplace",
        "label": "bool",
        "numberOfBytes": "1"
      },
      "t_contract(ILayerZeroEndpoint)12926": {
        "encoding": "inplace",
        "label": "contract ILayerZeroEndpoint",
        "numberOfBytes": "20"
      },
      "t_uint256": {
        "encoding": "inplace",
        "label": "uint256",
        "numberOfBytes": "32"
      }
    }
  }
}