{
  "address": "0x231f47234C8431C8f4EE3211487A0dc363D26b03",
  "abi": [
    {
      "inputs": [
        {
          "internalType": "uint256",
          "name": "_x",
          "type": "uint256"
        }
      ],
      "name": "setIt",
      "outputs": [],
      "stateMutability": "nonpayable",
      "type": "function"
    }
  ],
  "transactionHash": "0xcc55339a596c94503d9620aace3d24d707285ead8b8ecef9e611da07b4e43ed7",
  "args": [],
  "numDeployments": 1,
  "solcInputHash": "4c128ee4ef7271ee521c562e96e11148",
  "bytecode": "0x6080604052348015600f57600080fd5b5060848061001e6000396000f3fe6080604052348015600f57600080fd5b506004361060285760003560e01c8063dd012a1514602d575b600080fd5b604760048036036020811015604157600080fd5b50356049565b005b60005556fea26469706673582212209b323e204e07e71846a715dda16a1ff8e03319a6c10a552c46c7a9e5d6f0497464736f6c63430007060033",
  "devdoc": {
    "kind": "dev",
    "methods": {},
    "version": 1
  },
  "userdoc": {
    "kind": "user",
    "methods": {},
    "version": 1
  },
  "storageLayout": {
    "storage": [
      {
        "astId": 3,
        "contract": "contracts/mocks/ContractOne.sol:ContractOne",
        "label": "x",
        "offset": 0,
        "slot": "0",
        "type": "t_uint256"
      }
    ],
    "types": {
      "t_uint256": {
        "encoding": "inplace",
        "label": "uint256",
        "numberOfBytes": "32"
      }
    }
  }
}