{
  "address": "0xA4B19DEd27F8d3Fb0bB901816F3C4Fd471CC385e",
  "abi": [
    {
      "anonymous": false,
      "inputs": [
        {
          "indexed": false,
          "internalType": "address",
          "name": "addr",
          "type": "address"
        },
        {
          "indexed": false,
          "internalType": "bool",
          "name": "approved",
          "type": "bool"
        }
      ],
      "name": "ApproveAddress",
      "type": "event"
    },
    {
      "anonymous": false,
      "inputs": [
        {
          "indexed": false,
          "internalType": "uint256",
          "name": "totalFee",
          "type": "uint256"
        }
      ],
      "name": "AssignJob",
      "type": "event"
    },
    {
      "anonymous": false,
      "inputs": [
        {
          "indexed": true,
          "internalType": "address",
          "name": "previousOwner",
          "type": "address"
        },
        {
          "indexed": true,
          "internalType": "address",
          "name": "newOwner",
          "type": "address"
        }
      ],
      "name": "OwnershipTransferred",
      "type": "event"
    },
    {
      "anonymous": false,
      "inputs": [
        {
          "indexed": false,
          "internalType": "uint16",
          "name": "chainId",
          "type": "uint16"
        },
        {
          "indexed": false,
          "internalType": "uint16",
          "name": "outboundProofType",
          "type": "uint16"
        },
        {
          "indexed": false,
          "internalType": "uint128",
          "name": "dstNativeAmtCap",
          "type": "uint128"
        },
        {
          "indexed": false,
          "internalType": "uint64",
          "name": "baseGas",
          "type": "uint64"
        },
        {
          "indexed": false,
          "internalType": "uint64",
          "name": "gasPerByte",
          "type": "uint64"
        }
      ],
      "name": "SetDstConfig",
      "type": "event"
    },
    {
      "anonymous": false,
      "inputs": [
        {
          "indexed": false,
          "internalType": "uint16",
          "name": "chainId",
          "type": "uint16"
        },
        {
          "indexed": false,
          "internalType": "uint128",
          "name": "dstPriceRatio",
          "type": "uint128"
        },
        {
          "indexed": false,
          "internalType": "uint128",
          "name": "dstGasPriceInWei",
          "type": "uint128"
        }
      ],
      "name": "SetDstPrice",
      "type": "event"
    },
    {
      "anonymous": false,
      "inputs": [
        {
          "indexed": true,
          "internalType": "address",
          "name": "to",
          "type": "address"
        },
        {
          "indexed": true,
          "internalType": "uint256",
          "name": "quantity",
          "type": "uint256"
        }
      ],
      "name": "ValueTransferFailed",
      "type": "event"
    },
    {
      "anonymous": false,
      "inputs": [
        {
          "indexed": false,
          "internalType": "address",
          "name": "to",
          "type": "address"
        },
        {
          "indexed": false,
          "internalType": "uint256",
          "name": "amount",
          "type": "uint256"
        }
      ],
      "name": "Withdraw",
      "type": "event"
    },
    {
      "inputs": [
        {
          "internalType": "address",
          "name": "",
          "type": "address"
        }
      ],
      "name": "approvedAddresses",
      "outputs": [
        {
          "internalType": "bool",
          "name": "",
          "type": "bool"
        }
      ],
      "stateMutability": "view",
      "type": "function"
    },
    {
      "inputs": [
        {
          "internalType": "uint16",
          "name": "_dstChainId",
          "type": "uint16"
        },
        {
          "internalType": "uint16",
          "name": "_outboundProofType",
          "type": "uint16"
        },
        {
          "internalType": "address",
          "name": "_userApplication",
          "type": "address"
        },
        {
          "internalType": "bytes",
          "name": "_payload",
          "type": "bytes"
        },
        {
          "internalType": "bytes",
          "name": "_adapterParams",
          "type": "bytes"
        }
      ],
      "name": "assignJob",
      "outputs": [
        {
          "internalType": "uint256",
          "name": "",
          "type": "uint256"
        }
      ],
      "stateMutability": "nonpayable",
      "type": "function"
    },
    {
      "inputs": [
        {
          "internalType": "uint16",
          "name": "",
          "type": "uint16"
        },
        {
          "internalType": "uint16",
          "name": "",
          "type": "uint16"
        }
      ],
      "name": "dstConfigLookup",
      "outputs": [
        {
          "internalType": "uint128",
          "name": "dstNativeAmtCap",
          "type": "uint128"
        },
        {
          "internalType": "uint64",
          "name": "baseGas",
          "type": "uint64"
        },
        {
          "internalType": "uint64",
          "name": "gasPerByte",
          "type": "uint64"
        }
      ],
      "stateMutability": "view",
      "type": "function"
    },
    {
      "inputs": [
        {
          "internalType": "uint16",
          "name": "",
          "type": "uint16"
        }
      ],
      "name": "dstPriceLookup",
      "outputs": [
        {
          "internalType": "uint128",
          "name": "dstPriceRatio",
          "type": "uint128"
        },
        {
          "internalType": "uint128",
          "name": "dstGasPriceInWei",
          "type": "uint128"
        }
      ],
      "stateMutability": "view",
      "type": "function"
    },
    {
      "inputs": [
        {
          "internalType": "uint16",
          "name": "_dstChainId",
          "type": "uint16"
        },
        {
          "internalType": "uint16",
          "name": "_outboundProofType",
          "type": "uint16"
        },
        {
          "internalType": "address",
          "name": "_userApplication",
          "type": "address"
        },
        {
          "internalType": "bytes",
          "name": "_payload",
          "type": "bytes"
        },
        {
          "internalType": "bytes",
          "name": "_adapterParams",
          "type": "bytes"
        }
      ],
      "name": "getFee",
      "outputs": [
        {
          "internalType": "uint256",
          "name": "",
          "type": "uint256"
        }
      ],
      "stateMutability": "view",
      "type": "function"
    },
    {
      "inputs": [
        {
          "internalType": "address",
          "name": "_uln",
          "type": "address"
        }
      ],
      "name": "initialize",
      "outputs": [],
      "stateMutability": "nonpayable",
      "type": "function"
    },
    {
      "inputs": [
        {
          "internalType": "address",
          "name": "_relayerAddress",
          "type": "address"
        }
      ],
      "name": "isApproved",
      "outputs": [
        {
          "internalType": "bool",
          "name": "",
          "type": "bool"
        }
      ],
      "stateMutability": "view",
      "type": "function"
    },
    {
      "inputs": [],
      "name": "owner",
      "outputs": [
        {
          "internalType": "address",
          "name": "",
          "type": "address"
        }
      ],
      "stateMutability": "view",
      "type": "function"
    },
    {
      "inputs": [],
      "name": "renounceOwnership",
      "outputs": [],
      "stateMutability": "nonpayable",
      "type": "function"
    },
    {
      "inputs": [
        {
          "internalType": "address",
          "name": "_relayerAddress",
          "type": "address"
        },
        {
          "internalType": "bool",
          "name": "_approve",
          "type": "bool"
        }
      ],
      "name": "setApprovedAddress",
      "outputs": [],
      "stateMutability": "nonpayable",
      "type": "function"
    },
    {
      "inputs": [
        {
          "internalType": "uint16",
          "name": "_chainId",
          "type": "uint16"
        },
        {
          "internalType": "uint16",
          "name": "_outboundProofType",
          "type": "uint16"
        },
        {
          "internalType": "uint128",
          "name": "_dstNativeAmtCap",
          "type": "uint128"
        },
        {
          "internalType": "uint64",
          "name": "_baseGas",
          "type": "uint64"
        },
        {
          "internalType": "uint64",
          "name": "_gasPerByte",
          "type": "uint64"
        }
      ],
      "name": "setDstConfig",
      "outputs": [],
      "stateMutability": "nonpayable",
      "type": "function"
    },
    {
      "inputs": [
        {
          "internalType": "uint16",
          "name": "_chainId",
          "type": "uint16"
        },
        {
          "internalType": "uint128",
          "name": "_dstPriceRatio",
          "type": "uint128"
        },
        {
          "internalType": "uint128",
          "name": "_dstGasPriceInWei",
          "type": "uint128"
        }
      ],
      "name": "setDstPrice",
      "outputs": [],
      "stateMutability": "nonpayable",
      "type": "function"
    },
    {
      "inputs": [
        {
          "internalType": "address",
          "name": "_stargateAddress",
          "type": "address"
        }
      ],
      "name": "setStargateAddress",
      "outputs": [],
      "stateMutability": "nonpayable",
      "type": "function"
    },
    {
      "inputs": [],
      "name": "stargateBridgeAddress",
      "outputs": [
        {
          "internalType": "address",
          "name": "",
          "type": "address"
        }
      ],
      "stateMutability": "view",
      "type": "function"
    },
    {
      "inputs": [
        {
          "internalType": "address",
          "name": "newOwner",
          "type": "address"
        }
      ],
      "name": "transferOwnership",
      "outputs": [],
      "stateMutability": "nonpayable",
      "type": "function"
    },
    {
      "inputs": [],
      "name": "uln",
      "outputs": [
        {
          "internalType": "contract ILayerZeroUltraLightNodeV2",
          "name": "",
          "type": "address"
        }
      ],
      "stateMutability": "view",
      "type": "function"
    },
    {
      "inputs": [
        {
          "internalType": "uint16",
          "name": "_srcChainId",
          "type": "uint16"
        },
        {
          "internalType": "address",
          "name": "_dstAddress",
          "type": "address"
        },
        {
          "internalType": "uint256",
          "name": "_gasLimit",
          "type": "uint256"
        },
        {
          "internalType": "bytes32",
          "name": "_blockHash",
          "type": "bytes32"
        },
        {
          "internalType": "bytes32",
          "name": "_data",
          "type": "bytes32"
        },
        {
          "internalType": "bytes",
          "name": "_transactionProof",
          "type": "bytes"
        }
      ],
      "name": "validateTransactionProofV1",
      "outputs": [],
      "stateMutability": "nonpayable",
      "type": "function"
    },
    {
      "inputs": [
        {
          "internalType": "uint16",
          "name": "_srcChainId",
          "type": "uint16"
        },
        {
          "internalType": "address",
          "name": "_dstAddress",
          "type": "address"
        },
        {
          "internalType": "uint256",
          "name": "_gasLimit",
          "type": "uint256"
        },
        {
          "internalType": "bytes32",
          "name": "_blockHash",
          "type": "bytes32"
        },
        {
          "internalType": "bytes32",
          "name": "_data",
          "type": "bytes32"
        },
        {
          "internalType": "bytes",
          "name": "_transactionProof",
          "type": "bytes"
        },
        {
          "internalType": "address payable",
          "name": "_to",
          "type": "address"
        }
      ],
      "name": "validateTransactionProofV2",
      "outputs": [],
      "stateMutability": "payable",
      "type": "function"
    },
    {
      "inputs": [
        {
          "internalType": "address payable",
          "name": "_to",
          "type": "address"
        },
        {
          "internalType": "uint256",
          "name": "_amount",
          "type": "uint256"
        }
      ],
      "name": "withdrawFee",
      "outputs": [],
      "stateMutability": "nonpayable",
      "type": "function"
    }
  ],
  "transactionHash": "0xf1168ab4ab70e4a48329f085925d2428c25866e9f1bef06a4ecf9f793c4a95cf",
  "args": [],
  "numDeployments": 1,
  "solcInputHash": "6f06e3209ee8689a407cf69d89ff23fe",
  "bytecode": "0x608060405234801561001057600080fd5b5060016000556126ad806100256000396000f3fe6080604052600436106101445760003560e01c8063715018a6116100c0578063dbc6528011610074578063f2fde38b11610059578063f2fde38b14610742578063fd9be52214610782578063fe29909d146107c857610144565b8063dbc65280146105f0578063f136a8741461070257610144565b80638da5cb5b116100a55780638da5cb5b1461054d578063b8f8bad414610562578063c4d66de8146105b057610144565b8063715018a6146104c9578063765a8a54146104de57610144565b80633f103487116101175780636348d269116100fc5780636348d26914610422578063673448dd146104605780636c473aff146104b457610144565b80633f10348714610372578063575765e2146103da57610144565b806303343f54146101495780630508941e1461018b57806323161ff81461024a578063252f7b01146102bc575b600080fd5b34801561015557600080fd5b506101896004803603602081101561016c57600080fd5b503573ffffffffffffffffffffffffffffffffffffffff166108c8565b005b610189600480360360e08110156101a157600080fd5b61ffff8235169173ffffffffffffffffffffffffffffffffffffffff602082013516916040820135916060810135916080820135919081019060c0810160a08201356401000000008111156101f557600080fd5b82018360208201111561020757600080fd5b8035906020019184600183028401116401000000008311171561022957600080fd5b91935091503573ffffffffffffffffffffffffffffffffffffffff166109a7565b34801561025657600080fd5b506102806004803603604081101561026d57600080fd5b5061ffff81358116916020013516610c6a565b604080516fffffffffffffffffffffffffffffffff909416845267ffffffffffffffff9283166020850152911682820152519081900360600190f35b3480156102c857600080fd5b50610189600480360360c08110156102df57600080fd5b61ffff8235169173ffffffffffffffffffffffffffffffffffffffff602082013516916040820135916060810135916080820135919081019060c0810160a082013564010000000081111561033357600080fd5b82018360208201111561034557600080fd5b8035906020019184600183028401116401000000008311171561036757600080fd5b509092509050610cd8565b34801561037e57600080fd5b50610189600480360360a081101561039557600080fd5b5061ffff81358116916020810135909116906fffffffffffffffffffffffffffffffff6040820135169067ffffffffffffffff60608201358116916080013516610ee1565b3480156103e657600080fd5b50610189600480360360408110156103fd57600080fd5b5073ffffffffffffffffffffffffffffffffffffffff8135169060200135151561111a565b34801561042e57600080fd5b50610437611251565b6040805173ffffffffffffffffffffffffffffffffffffffff9092168252519081900360200190f35b34801561046c57600080fd5b506104a06004803603602081101561048357600080fd5b503573ffffffffffffffffffffffffffffffffffffffff1661126d565b604080519115158252519081900360200190f35b3480156104c057600080fd5b50610437611298565b3480156104d557600080fd5b506101896112b4565b3480156104ea57600080fd5b5061050c6004803603602081101561050157600080fd5b503561ffff166113cb565b60405180836fffffffffffffffffffffffffffffffff168152602001826fffffffffffffffffffffffffffffffff1681526020019250505060405180910390f35b34801561055957600080fd5b50610437611407565b34801561056e57600080fd5b506101896004803603606081101561058557600080fd5b5061ffff813516906fffffffffffffffffffffffffffffffff60208201358116916040013516611423565b3480156105bc57600080fd5b50610189600480360360208110156105d357600080fd5b503573ffffffffffffffffffffffffffffffffffffffff16611585565b3480156105fc57600080fd5b506106f0600480360360a081101561061357600080fd5b61ffff823581169260208101359091169173ffffffffffffffffffffffffffffffffffffffff604083013516919081019060808101606082013564010000000081111561065f57600080fd5b82018360208201111561067157600080fd5b8035906020019184600183028401116401000000008311171561069357600080fd5b9193909290916020810190356401000000008111156106b157600080fd5b8201836020820111156106c357600080fd5b803590602001918460018302840111640100000000831117156106e557600080fd5b509092509050611772565b60408051918252519081900360200190f35b34801561070e57600080fd5b506104a06004803603602081101561072557600080fd5b503573ffffffffffffffffffffffffffffffffffffffff166118a0565b34801561074e57600080fd5b506101896004803603602081101561076557600080fd5b503573ffffffffffffffffffffffffffffffffffffffff166118b5565b34801561078e57600080fd5b50610189600480360360408110156107a557600080fd5b5073ffffffffffffffffffffffffffffffffffffffff8135169060200135611a57565b3480156107d457600080fd5b506106f0600480360360a08110156107eb57600080fd5b61ffff823581169260208101359091169173ffffffffffffffffffffffffffffffffffffffff604083013516919081019060808101606082013564010000000081111561083757600080fd5b82018360208201111561084957600080fd5b8035906020019184600183028401116401000000008311171561086b57600080fd5b91939092909160208101903564010000000081111561088957600080fd5b82018360208201111561089b57600080fd5b803590602001918460018302840111640100000000831117156108bd57600080fd5b509092509050611c7f565b336108d1611407565b73ffffffffffffffffffffffffffffffffffffffff1614610960576108f53361126d565b61096057604080517f08c379a000000000000000000000000000000000000000000000000000000000815260206004820152601560248201527f52656c617965723a206e6f7420617070726f7665640000000000000000000000604482015290519081900360640190fd5b606780547fffffffffffffffffffffffff00000000000000000000000000000000000000001673ffffffffffffffffffffffffffffffffffffffff92909216919091179055565b336109b0611407565b73ffffffffffffffffffffffffffffffffffffffff1614610a3f576109d43361126d565b610a3f57604080517f08c379a000000000000000000000000000000000000000000000000000000000815260206004820152601560248201527f52656c617965723a206e6f7420617070726f7665640000000000000000000000604482015290519081900360640190fd5b60026000541415610ab157604080517f08c379a000000000000000000000000000000000000000000000000000000000815260206004820152601f60248201527f5265656e7472616e637947756172643a207265656e7472616e742063616c6c00604482015290519081900360640190fd5b6002600090815560405173ffffffffffffffffffffffffffffffffffffffff83169034908381818185875af1925050503d8060008114610b0d576040519150601f19603f3d011682016040523d82523d6000602084013e610b12565b606091505b5050905080610b5f57604051349073ffffffffffffffffffffffffffffffffffffffff8416907f2c7a964ca3de5ec1d42d9822f9bbd0eb142a59cc9f855e9d93813b773192c7a390600090a35b606660009054906101000a900473ffffffffffffffffffffffffffffffffffffffff1673ffffffffffffffffffffffffffffffffffffffff1663987fa2d58a8a8a8a8a8a8a6040518863ffffffff1660e01b8152600401808861ffff1681526020018773ffffffffffffffffffffffffffffffffffffffff168152602001868152602001858152602001848152602001806020018281038252848482818152602001925080828437600081840152601f19601f82011690508083019250505098505050505050505050600060405180830381600087803b158015610c4257600080fd5b505af1158015610c56573d6000803e3d6000fd5b505060016000555050505050505050505050565b60696020908152600092835260408084209091529082529020546fffffffffffffffffffffffffffffffff81169067ffffffffffffffff7001000000000000000000000000000000008204811691780100000000000000000000000000000000000000000000000090041683565b33610ce1611407565b73ffffffffffffffffffffffffffffffffffffffff1614610d7057610d053361126d565b610d7057604080517f08c379a000000000000000000000000000000000000000000000000000000000815260206004820152601560248201527f52656c617965723a206e6f7420617070726f7665640000000000000000000000604482015290519081900360640190fd5b60026000541415610de257604080517f08c379a000000000000000000000000000000000000000000000000000000000815260206004820152601f60248201527f5265656e7472616e637947756172643a207265656e7472616e742063616c6c00604482015290519081900360640190fd5b60026000556066546040517f987fa2d500000000000000000000000000000000000000000000000000000000815261ffff89166004820190815273ffffffffffffffffffffffffffffffffffffffff898116602484015260448301899052606483018890526084830187905260c060a4840190815260c4840186905293169263987fa2d5928b928b928b928b928b928b928b92919060e401848480828437600081840152601f19601f82011690508083019250505098505050505050505050600060405180830381600087803b158015610ebb57600080fd5b505af1158015610ecf573d6000803e3d6000fd5b50506001600055505050505050505050565b33610eea611407565b73ffffffffffffffffffffffffffffffffffffffff1614610f7957610f0e3361126d565b610f7957604080517f08c379a000000000000000000000000000000000000000000000000000000000815260206004820152601560248201527f52656c617965723a206e6f7420617070726f7665640000000000000000000000604482015290519081900360640190fd5b6040518060600160405280846fffffffffffffffffffffffffffffffff1681526020018367ffffffffffffffff1681526020018267ffffffffffffffff16815250606960008761ffff1661ffff16815260200190815260200160002060008661ffff1661ffff16815260200190815260200160002060008201518160000160006101000a8154816fffffffffffffffffffffffffffffffff02191690836fffffffffffffffffffffffffffffffff16021790555060208201518160000160106101000a81548167ffffffffffffffff021916908367ffffffffffffffff16021790555060408201518160000160186101000a81548167ffffffffffffffff021916908367ffffffffffffffff1602179055509050507fd053e021dda81c7c2794ff89e320caea5379962d49ed383a3bd0a54ffc4b932f8585858585604051808661ffff1681526020018561ffff168152602001846fffffffffffffffffffffffffffffffff1681526020018367ffffffffffffffff1681526020018267ffffffffffffffff1681526020019550505050505060405180910390a15050505050565b611122611ced565b73ffffffffffffffffffffffffffffffffffffffff16611140611407565b73ffffffffffffffffffffffffffffffffffffffff16146111c257604080517f08c379a000000000000000000000000000000000000000000000000000000000815260206004820181905260248201527f4f776e61626c653a2063616c6c6572206973206e6f7420746865206f776e6572604482015290519081900360640190fd5b73ffffffffffffffffffffffffffffffffffffffff82166000818152606a602090815260409182902080547fffffffffffffffffffffffffffffffffffffffffffffffffffffffffffffff001685151590811790915582519384529083015280517fb10786d0bfa68fb1aa29552d9203e5f545f7c073ff0784da1de1d800986f10239281900390910190a15050565b60675473ffffffffffffffffffffffffffffffffffffffff1681565b73ffffffffffffffffffffffffffffffffffffffff166000908152606a602052604090205460ff1690565b60665473ffffffffffffffffffffffffffffffffffffffff1681565b6112bc611ced565b73ffffffffffffffffffffffffffffffffffffffff166112da611407565b73ffffffffffffffffffffffffffffffffffffffff161461135c57604080517f08c379a000000000000000000000000000000000000000000000000000000000815260206004820181905260248201527f4f776e61626c653a2063616c6c6572206973206e6f7420746865206f776e6572604482015290519081900360640190fd5b60345460405160009173ffffffffffffffffffffffffffffffffffffffff16907f8be0079c531659141344cd1fd0a4f28419497f9722a3daafe3b4186f6b6457e0908390a3603480547fffffffffffffffffffffffff0000000000000000000000000000000000000000169055565b6068602052600090815260409020546fffffffffffffffffffffffffffffffff8082169170010000000000000000000000000000000090041682565b60345473ffffffffffffffffffffffffffffffffffffffff1690565b3361142c611407565b73ffffffffffffffffffffffffffffffffffffffff16146114bb576114503361126d565b6114bb57604080517f08c379a000000000000000000000000000000000000000000000000000000000815260206004820152601560248201527f52656c617965723a206e6f7420617070726f7665640000000000000000000000604482015290519081900360640190fd5b6040805180820182526fffffffffffffffffffffffffffffffff808516808352848216602080850182815261ffff8a166000818152606884528890209651875492518716700100000000000000000000000000000000029087167fffffffffffffffffffffffffffffffff0000000000000000000000000000000090931692909217909516179094558451928352928201528083019190915290517fa812e6d95f70b4a1555cf2cfcc53d6aa10ca827ef87ce47a0e145eebc0c19a3c9181900360600190a1505050565b600061158f611cf1565b905073ffffffffffffffffffffffffffffffffffffffff81166115e85773ffffffffffffffffffffffffffffffffffffffff7fb53127684a568b3173ae13b9f8a6016e243e63b6e8ee1178d6a717850b5d61035561160a565b3373ffffffffffffffffffffffffffffffffffffffff82161461160a57600080fd5b600154610100900460ff16806116235750611623611d16565b80611631575060015460ff16155b611686576040517f08c379a000000000000000000000000000000000000000000000000000000000815260040180806020018281038252602e815260200180612603602e913960400191505060405180910390fd5b600154610100900460ff161580156116eb57600180547fffffffffffffffffffffffffffffffffffffffffffffffffffffffffffffff007fffffffffffffffffffffffffffffffffffffffffffffffffffffffffffff00ff9091166101001716811790555b6116f3611d27565b606680547fffffffffffffffffffffffff00000000000000000000000000000000000000001673ffffffffffffffffffffffffffffffffffffffff851617905561173e30600161111a565b801561176d57600180547fffffffffffffffffffffffffffffffffffffffffffffffffffffffffffff00ff1690555b505050565b60665460009073ffffffffffffffffffffffffffffffffffffffff1633146117fb57604080517f08c379a000000000000000000000000000000000000000000000000000000000815260206004820152601460248201527f52656c617965723a20696e76616c696420756c6e000000000000000000000000604482015290519081900360640190fd5b6000806118408a8a8a88888080601f016020809104026020016040519081016040528093929190818152602001838380828437600092019190915250611e4a92505050565b9092509050600061185b611854888461219f565b849061221b565b6040805182815290519192507fdf21c415b78ed2552cc9971249e32a053abce6087a0ae0fbf3f78db5174a3493919081900360200190a19a9950505050505050505050565b606a6020526000908152604090205460ff1681565b6118bd611ced565b73ffffffffffffffffffffffffffffffffffffffff166118db611407565b73ffffffffffffffffffffffffffffffffffffffff161461195d57604080517f08c379a000000000000000000000000000000000000000000000000000000000815260206004820181905260248201527f4f776e61626c653a2063616c6c6572206973206e6f7420746865206f776e6572604482015290519081900360640190fd5b73ffffffffffffffffffffffffffffffffffffffff81166119c9576040517f08c379a00000000000000000000000000000000000000000000000000000000081526004018080602001828103825260268152602001806125dd6026913960400191505060405180910390fd5b60345460405173ffffffffffffffffffffffffffffffffffffffff8084169216907f8be0079c531659141344cd1fd0a4f28419497f9722a3daafe3b4186f6b6457e090600090a3603480547fffffffffffffffffffffffff00000000000000000000000000000000000000001673ffffffffffffffffffffffffffffffffffffffff92909216919091179055565b33611a60611407565b73ffffffffffffffffffffffffffffffffffffffff1614611aef57611a843361126d565b611aef57604080517f08c379a000000000000000000000000000000000000000000000000000000000815260206004820152601560248201527f52656c617965723a206e6f7420617070726f7665640000000000000000000000604482015290519081900360640190fd5b606654604080517f69412bfa000000000000000000000000000000000000000000000000000000008152306004820152905160009273ffffffffffffffffffffffffffffffffffffffff16916369412bfa916024808301926020929190829003018186803b158015611b6057600080fd5b505afa158015611b74573d6000803e3d6000fd5b505050506040513d6020811015611b8a57600080fd5b5051905080821115611be7576040517f08c379a00000000000000000000000000000000000000000000000000000000081526004018080602001828103825260268152602001806126526026913960400191505060405180910390fd5b606654604080517f07b18bde00000000000000000000000000000000000000000000000000000000815273ffffffffffffffffffffffffffffffffffffffff868116600483015260248201869052915191909216916307b18bde91604480830192600092919082900301818387803b158015611c6257600080fd5b505af1158015611c76573d6000803e3d6000fd5b50505050505050565b6000806000611cc68a8a8a88888080601f016020809104026020016040519081016040528093929190818152602001838380828437600092019190915250611e4a92505050565b9092509050611cdf611cd8878361219f565b839061221b565b9a9950505050505050505050565b3390565b7fb53127684a568b3173ae13b9f8a6016e243e63b6e8ee1178d6a717850b5d61035490565b6000611d213061228f565b15905090565b600154610100900460ff1680611d405750611d40611d16565b80611d4e575060015460ff16155b611da3576040517f08c379a000000000000000000000000000000000000000000000000000000000815260040180806020018281038252602e815260200180612603602e913960400191505060405180910390fd5b600154610100900460ff16158015611e0857600180547fffffffffffffffffffffffffffffffffffffffffffffffffffffffffffffff007fffffffffffffffffffffffffffffffffffffffffffffffffffffffffffff00ff9091166101001716811790555b611e10612295565b611e186123a6565b8015611e4757600180547fffffffffffffffffffffffffffffffffffffffffffffffffffffffffffff00ff1690555b50565b600080825160221480611e5e575060428351115b611eb3576040517f08c379a00000000000000000000000000000000000000000000000000000000081526004018080602001828103825260268152602001806125b76026913960400191505060405180910390fd5b6002830151602284015180611f2957604080517f08c379a000000000000000000000000000000000000000000000000000000000815260206004820152601460248201527f52656c617965723a2067617320746f6f206c6f77000000000000000000000000604482015290519081900360640190fd5b8161ffff1660011480611f4057508161ffff166002145b611fab57604080517f08c379a000000000000000000000000000000000000000000000000000000000815260206004820152601b60248201527f52656c617965723a20756e737570706f72746564207478547970650000000000604482015290519081900360640190fd5b61ffff8881166000908152606860209081526040808320606983528184208c861685529092528220909290919085166002141561207757604288015182546fffffffffffffffffffffffffffffffff1681111561206957604080517f08c379a000000000000000000000000000000000000000000000000000000000815260206004820152601f60248201527f52656c617965723a206473744e6174697665416d7420746f6f206c6172676500604482015290519081900360640190fd5b612073828261221b565b9150505b81546000906120d6906120a890700100000000000000000000000000000000900467ffffffffffffffff168761221b565b855470010000000000000000000000000000000090046fffffffffffffffffffffffffffffffff169061219f565b90506120e2828261221b565b8454909250612115906402540be4009061210f9085906fffffffffffffffffffffffffffffffff1661219f565b90612535565b8454845491995061218e916402540be4009161210f916fffffffffffffffffffffffffffffffff8083169261218892700100000000000000000000000000000000909104909116907801000000000000000000000000000000000000000000000000900467ffffffffffffffff1661219f565b9061219f565b965050505050505094509492505050565b6000826121ae57506000612215565b828202828482816121bb57fe5b0414612212576040517f08c379a00000000000000000000000000000000000000000000000000000000081526004018080602001828103825260218152602001806126316021913960400191505060405180910390fd5b90505b92915050565b60008282018381101561221257604080517f08c379a000000000000000000000000000000000000000000000000000000000815260206004820152601b60248201527f536166654d6174683a206164646974696f6e206f766572666c6f770000000000604482015290519081900360640190fd5b3b151590565b600154610100900460ff16806122ae57506122ae611d16565b806122bc575060015460ff16155b612311576040517f08c379a000000000000000000000000000000000000000000000000000000000815260040180806020018281038252602e815260200180612603602e913960400191505060405180910390fd5b600154610100900460ff16158015611e1857600180547fffffffffffffffffffffffffffffffffffffffffffffffffffffffffffffff007fffffffffffffffffffffffffffffffffffffffffffffffffffffffffffff00ff9091166101001716811790558015611e4757600180547fffffffffffffffffffffffffffffffffffffffffffffffffffffffffffff00ff16905550565b600154610100900460ff16806123bf57506123bf611d16565b806123cd575060015460ff16155b612422576040517f08c379a000000000000000000000000000000000000000000000000000000000815260040180806020018281038252602e815260200180612603602e913960400191505060405180910390fd5b600154610100900460ff1615801561248757600180547fffffffffffffffffffffffffffffffffffffffffffffffffffffffffffffff007fffffffffffffffffffffffffffffffffffffffffffffffffffffffffffff00ff9091166101001716811790555b6000612491611ced565b603480547fffffffffffffffffffffffff00000000000000000000000000000000000000001673ffffffffffffffffffffffffffffffffffffffff8316908117909155604051919250906000907f8be0079c531659141344cd1fd0a4f28419497f9722a3daafe3b4186f6b6457e0908290a3508015611e4757600180547fffffffffffffffffffffffffffffffffffffffffffffffffffffffffffff00ff16905550565b60008082116125a557604080517f08c379a000000000000000000000000000000000000000000000000000000000815260206004820152601a60248201527f536166654d6174683a206469766973696f6e206279207a65726f000000000000604482015290519081900360640190fd5b8183816125ae57fe5b04939250505056fe52656c617965723a2077726f6e67205f61646170746572506172616d65746572732073697a654f776e61626c653a206e6577206f776e657220697320746865207a65726f2061646472657373496e697469616c697a61626c653a20636f6e747261637420697320616c726561647920696e697469616c697a6564536166654d6174683a206d756c7469706c69636174696f6e206f766572666c6f7752656c617965723a206e6f7420656e6f7567682066656520666f72207769746864726177616ca2646970667358221220466e7f5d3ae3af5b33b31a1da9c842290003e9f2b743b4635d3b1c237bf2340664736f6c63430007060033",
  "devdoc": {
    "kind": "dev",
    "methods": {
      "owner()": {
        "details": "Returns the address of the current owner."
      },
      "renounceOwnership()": {
        "details": "Leaves the contract without owner. It will not be possible to call `onlyOwner` functions anymore. Can only be called by the current owner. NOTE: Renouncing ownership will leave the contract without an owner, thereby removing any functionality that is only available to the owner."
      },
      "transferOwnership(address)": {
        "details": "Transfers ownership of the contract to a new account (`newOwner`). Can only be called by the current owner."
      }
    },
    "version": 1
  },
  "userdoc": {
    "kind": "user",
    "methods": {},
    "version": 1
  },
  "storageLayout": {
    "storage": [
      {
        "astId": 4065,
        "contract": "contracts/RelayerV2.sol:RelayerV2",
        "label": "_status",
        "offset": 0,
        "slot": "0",
        "type": "t_uint256"
      },
      {
        "astId": 2128,
        "contract": "contracts/RelayerV2.sol:RelayerV2",
        "label": "_initialized",
        "offset": 0,
        "slot": "1",
        "type": "t_bool"
      },
      {
        "astId": 2131,
        "contract": "contracts/RelayerV2.sol:RelayerV2",
        "label": "_initializing",
        "offset": 1,
        "slot": "1",
        "type": "t_bool"
      },
      {
        "astId": 2475,
        "contract": "contracts/RelayerV2.sol:RelayerV2",
        "label": "__gap",
        "offset": 0,
        "slot": "2",
        "type": "t_array(t_uint256)50_storage"
      },
      {
        "astId": 2001,
        "contract": "contracts/RelayerV2.sol:RelayerV2",
        "label": "_owner",
        "offset": 0,
        "slot": "52",
        "type": "t_address"
      },
      {
        "astId": 2120,
        "contract": "contracts/RelayerV2.sol:RelayerV2",
        "label": "__gap",
        "offset": 0,
        "slot": "53",
        "type": "t_array(t_uint256)49_storage"
      },
      {
        "astId": 7028,
        "contract": "contracts/RelayerV2.sol:RelayerV2",
        "label": "uln",
        "offset": 0,
        "slot": "102",
        "type": "t_contract(ILayerZeroUltraLightNodeV2)13294"
      },
      {
        "astId": 7030,
        "contract": "contracts/RelayerV2.sol:RelayerV2",
        "label": "stargateBridgeAddress",
        "offset": 0,
        "slot": "103",
        "type": "t_address"
      },
      {
        "astId": 7046,
        "contract": "contracts/RelayerV2.sol:RelayerV2",
        "label": "dstPriceLookup",
        "offset": 0,
        "slot": "104",
        "type": "t_mapping(t_uint16,t_struct(DstPrice)7035_storage)"
      },
      {
        "astId": 7052,
        "contract": "contracts/RelayerV2.sol:RelayerV2",
        "label": "dstConfigLookup",
        "offset": 0,
        "slot": "105",
        "type": "t_mapping(t_uint16,t_mapping(t_uint16,t_struct(DstConfig)7042_storage))"
      },
      {
        "astId": 7056,
        "contract": "contracts/RelayerV2.sol:RelayerV2",
        "label": "approvedAddresses",
        "offset": 0,
        "slot": "106",
        "type": "t_mapping(t_address,t_bool)"
      }
    ],
    "types": {
      "t_address": {
        "encoding": "inplace",
        "label": "address",
        "numberOfBytes": "20"
      },
      "t_array(t_uint256)49_storage": {
        "base": "t_uint256",
        "encoding": "inplace",
        "label": "uint256[49]",
        "numberOfBytes": "1568"
      },
      "t_array(t_uint256)50_storage": {
        "base": "t_uint256",
        "encoding": "inplace",
        "label": "uint256[50]",
        "numberOfBytes": "1600"
      },
      "t_bool": {
        "encoding": "inplace",
        "label": "bool",
        "numberOfBytes": "1"
      },
      "t_contract(ILayerZeroUltraLightNodeV2)13294": {
        "encoding": "inplace",
        "label": "contract ILayerZeroUltraLightNodeV2",
        "numberOfBytes": "20"
      },
      "t_mapping(t_address,t_bool)": {
        "encoding": "mapping",
        "key": "t_address",
        "label": "mapping(address => bool)",
        "numberOfBytes": "32",
        "value": "t_bool"
      },
      "t_mapping(t_uint16,t_mapping(t_uint16,t_struct(DstConfig)7042_storage))": {
        "encoding": "mapping",
        "key": "t_uint16",
        "label": "mapping(uint16 => mapping(uint16 => struct RelayerV2.DstConfig))",
        "numberOfBytes": "32",
        "value": "t_mapping(t_uint16,t_struct(DstConfig)7042_storage)"
      },
      "t_mapping(t_uint16,t_struct(DstConfig)7042_storage)": {
        "encoding": "mapping",
        "key": "t_uint16",
        "label": "mapping(uint16 => struct RelayerV2.DstConfig)",
        "numberOfBytes": "32",
        "value": "t_struct(DstConfig)7042_storage"
      },
      "t_mapping(t_uint16,t_struct(DstPrice)7035_storage)": {
        "encoding": "mapping",
        "key": "t_uint16",
        "label": "mapping(uint16 => struct RelayerV2.DstPrice)",
        "numberOfBytes": "32",
        "value": "t_struct(DstPrice)7035_storage"
      },
      "t_struct(DstConfig)7042_storage": {
        "encoding": "inplace",
        "label": "struct RelayerV2.DstConfig",
        "members": [
          {
            "astId": 7037,
            "contract": "contracts/RelayerV2.sol:RelayerV2",
            "label": "dstNativeAmtCap",
            "offset": 0,
            "slot": "0",
            "type": "t_uint128"
          },
          {
            "astId": 7039,
            "contract": "contracts/RelayerV2.sol:RelayerV2",
            "label": "baseGas",
            "offset": 16,
            "slot": "0",
            "type": "t_uint64"
          },
          {
            "astId": 7041,
            "contract": "contracts/RelayerV2.sol:RelayerV2",
            "label": "gasPerByte",
            "offset": 24,
            "slot": "0",
            "type": "t_uint64"
          }
        ],
        "numberOfBytes": "32"
      },
      "t_struct(DstPrice)7035_storage": {
        "encoding": "inplace",
        "label": "struct RelayerV2.DstPrice",
        "members": [
          {
            "astId": 7032,
            "contract": "contracts/RelayerV2.sol:RelayerV2",
            "label": "dstPriceRatio",
            "offset": 0,
            "slot": "0",
            "type": "t_uint128"
          },
          {
            "astId": 7034,
            "contract": "contracts/RelayerV2.sol:RelayerV2",
            "label": "dstGasPriceInWei",
            "offset": 16,
            "slot": "0",
            "type": "t_uint128"
          }
        ],
        "numberOfBytes": "32"
      },
      "t_uint128": {
        "encoding": "inplace",
        "label": "uint128",
        "numberOfBytes": "16"
      },
      "t_uint16": {
        "encoding": "inplace",
        "label": "uint16",
        "numberOfBytes": "2"
      },
      "t_uint256": {
        "encoding": "inplace",
        "label": "uint256",
        "numberOfBytes": "32"
      },
      "t_uint64": {
        "encoding": "inplace",
        "label": "uint64",
        "numberOfBytes": "8"
      }
    }
  }
}