{
  "address": "0x89acA20831317c6dff2A348a1e4f3D37a48bC498",
  "abi": [
    {
      "anonymous": false,
      "inputs": [
        {
          "indexed": false,
          "internalType": "address",
          "name": "addr",
          "type": "address"
        },
        {
          "indexed": false,
          "internalType": "bool",
          "name": "approved",
          "type": "bool"
        }
      ],
      "name": "ApproveAddress",
      "type": "event"
    },
    {
      "anonymous": false,
      "inputs": [
        {
          "indexed": true,
          "internalType": "uint256",
          "name": "payloadSize",
          "type": "uint256"
        }
      ],
      "name": "InvalidPayloadSize",
      "type": "event"
    },
    {
      "anonymous": false,
      "inputs": [
        {
          "indexed": true,
          "internalType": "address",
          "name": "previousOwner",
          "type": "address"
        },
        {
          "indexed": true,
          "internalType": "address",
          "name": "newOwner",
          "type": "address"
        }
      ],
      "name": "OwnershipTransferred",
      "type": "event"
    },
    {
      "anonymous": false,
      "inputs": [
        {
          "indexed": true,
          "internalType": "address",
          "name": "to",
          "type": "address"
        },
        {
          "indexed": true,
          "internalType": "uint256",
          "name": "quantity",
          "type": "uint256"
        }
      ],
      "name": "ValueTransferFailed",
      "type": "event"
    },
    {
      "anonymous": false,
      "inputs": [
        {
          "indexed": false,
          "internalType": "address",
          "name": "to",
          "type": "address"
        },
        {
          "indexed": false,
          "internalType": "uint256",
          "name": "amount",
          "type": "uint256"
        }
      ],
      "name": "Withdraw",
      "type": "event"
    },
    {
      "anonymous": false,
      "inputs": [
        {
          "indexed": false,
          "internalType": "address",
          "name": "token",
          "type": "address"
        },
        {
          "indexed": false,
          "internalType": "address",
          "name": "to",
          "type": "address"
        },
        {
          "indexed": false,
          "internalType": "uint256",
          "name": "amount",
          "type": "uint256"
        }
      ],
      "name": "WithdrawTokens",
      "type": "event"
    },
    {
      "inputs": [
        {
          "internalType": "address",
          "name": "",
          "type": "address"
        }
      ],
      "name": "approvedAddresses",
      "outputs": [
        {
          "internalType": "bool",
          "name": "",
          "type": "bool"
        }
      ],
      "stateMutability": "view",
      "type": "function"
    },
    {
      "inputs": [
        {
          "internalType": "uint16",
          "name": "",
          "type": "uint16"
        },
        {
          "internalType": "uint16",
          "name": "",
          "type": "uint16"
        }
      ],
      "name": "dstConfigLookup",
      "outputs": [
        {
          "internalType": "uint128",
          "name": "dstNativeAmtCap",
          "type": "uint128"
        },
        {
          "internalType": "uint64",
          "name": "baseGas",
          "type": "uint64"
        },
        {
          "internalType": "uint64",
          "name": "gasPerByte",
          "type": "uint64"
        }
      ],
      "stateMutability": "view",
      "type": "function"
    },
    {
      "inputs": [
        {
          "internalType": "uint16",
          "name": "",
          "type": "uint16"
        }
      ],
      "name": "dstPriceLookup",
      "outputs": [
        {
          "internalType": "uint128",
          "name": "dstPriceRatio",
          "type": "uint128"
        },
        {
          "internalType": "uint128",
          "name": "dstGasPriceInWei",
          "type": "uint128"
        }
      ],
      "stateMutability": "view",
      "type": "function"
    },
    {
      "inputs": [
        {
          "internalType": "uint16",
          "name": "_dstChainId",
          "type": "uint16"
        },
        {
          "internalType": "uint16",
          "name": "_outboundProofType",
          "type": "uint16"
        },
        {
          "internalType": "address",
          "name": "_userApplication",
          "type": "address"
        },
        {
          "internalType": "uint256",
          "name": "payloadSize",
          "type": "uint256"
        },
        {
          "internalType": "bytes",
          "name": "_adapterParams",
          "type": "bytes"
        }
      ],
      "name": "getPrice",
      "outputs": [
        {
          "internalType": "uint256",
          "name": "",
          "type": "uint256"
        }
      ],
      "stateMutability": "view",
      "type": "function"
    },
    {
      "inputs": [
        {
          "internalType": "address",
          "name": "_uln",
          "type": "address"
        }
      ],
      "name": "initialize",
      "outputs": [],
      "stateMutability": "nonpayable",
      "type": "function"
    },
    {
      "inputs": [
        {
          "internalType": "address",
          "name": "_relayerAddress",
          "type": "address"
        }
      ],
      "name": "isApproved",
      "outputs": [
        {
          "internalType": "bool",
          "name": "",
          "type": "bool"
        }
      ],
      "stateMutability": "view",
      "type": "function"
    },
    {
      "inputs": [
        {
          "internalType": "uint16",
          "name": "_dstChainId",
          "type": "uint16"
        },
        {
          "internalType": "uint16",
          "name": "_outboundProofType",
          "type": "uint16"
        },
        {
          "internalType": "bytes",
          "name": "_adapterParams",
          "type": "bytes"
        }
      ],
      "name": "notifyRelayer",
      "outputs": [],
      "stateMutability": "nonpayable",
      "type": "function"
    },
    {
      "inputs": [],
      "name": "owner",
      "outputs": [
        {
          "internalType": "address",
          "name": "",
          "type": "address"
        }
      ],
      "stateMutability": "view",
      "type": "function"
    },
    {
      "inputs": [],
      "name": "renounceOwnership",
      "outputs": [],
      "stateMutability": "nonpayable",
      "type": "function"
    },
    {
      "inputs": [
        {
          "internalType": "address",
          "name": "_relayerAddress",
          "type": "address"
        },
        {
          "internalType": "bool",
          "name": "_approve",
          "type": "bool"
        }
      ],
      "name": "setApprovedAddress",
      "outputs": [],
      "stateMutability": "nonpayable",
      "type": "function"
    },
    {
      "inputs": [
        {
          "internalType": "uint16",
          "name": "_chainId",
          "type": "uint16"
        },
        {
          "internalType": "uint16",
          "name": "_outboundProofType",
          "type": "uint16"
        },
        {
          "internalType": "uint128",
          "name": "_dstNativeAmtCap",
          "type": "uint128"
        },
        {
          "internalType": "uint64",
          "name": "_baseGas",
          "type": "uint64"
        },
        {
          "internalType": "uint64",
          "name": "_gasPerByte",
          "type": "uint64"
        }
      ],
      "name": "setDstConfig",
      "outputs": [],
      "stateMutability": "nonpayable",
      "type": "function"
    },
    {
      "inputs": [
        {
          "internalType": "uint16",
          "name": "_chainId",
          "type": "uint16"
        },
        {
          "internalType": "uint128",
          "name": "_dstPriceRatio",
          "type": "uint128"
        },
        {
          "internalType": "uint128",
          "name": "_dstGasPriceInWei",
          "type": "uint128"
        }
      ],
      "name": "setDstPrice",
      "outputs": [],
      "stateMutability": "nonpayable",
      "type": "function"
    },
    {
      "inputs": [
        {
          "internalType": "address",
          "name": "_stargateAddress",
          "type": "address"
        }
      ],
      "name": "setStargateAddress",
      "outputs": [],
      "stateMutability": "nonpayable",
      "type": "function"
    },
    {
      "inputs": [],
      "name": "stargateBridgeAddress",
      "outputs": [
        {
          "internalType": "address",
          "name": "",
          "type": "address"
        }
      ],
      "stateMutability": "view",
      "type": "function"
    },
    {
      "inputs": [
        {
          "internalType": "address",
          "name": "newOwner",
          "type": "address"
        }
      ],
      "name": "transferOwnership",
      "outputs": [],
      "stateMutability": "nonpayable",
      "type": "function"
    },
    {
      "inputs": [],
      "name": "uln",
      "outputs": [
        {
          "internalType": "contract ILayerZeroUltraLightNodeV1",
          "name": "",
          "type": "address"
        }
      ],
      "stateMutability": "view",
      "type": "function"
    },
    {
      "inputs": [
        {
          "internalType": "uint16",
          "name": "_srcChainId",
          "type": "uint16"
        },
        {
          "internalType": "address",
          "name": "_dstAddress",
          "type": "address"
        },
        {
          "internalType": "uint256",
          "name": "_gasLimit",
          "type": "uint256"
        },
        {
          "internalType": "bytes32",
          "name": "_blockHash",
          "type": "bytes32"
        },
        {
          "internalType": "bytes",
          "name": "_transactionProof",
          "type": "bytes"
        }
      ],
      "name": "validateTransactionProofV1",
      "outputs": [],
      "stateMutability": "nonpayable",
      "type": "function"
    },
    {
      "inputs": [
        {
          "internalType": "uint16",
          "name": "_srcChainId",
          "type": "uint16"
        },
        {
          "internalType": "address",
          "name": "_dstAddress",
          "type": "address"
        },
        {
          "internalType": "uint256",
          "name": "_gasLimit",
          "type": "uint256"
        },
        {
          "internalType": "bytes32",
          "name": "_blockHash",
          "type": "bytes32"
        },
        {
          "internalType": "bytes",
          "name": "_transactionProof",
          "type": "bytes"
        },
        {
          "internalType": "address payable",
          "name": "_to",
          "type": "address"
        }
      ],
      "name": "validateTransactionProofV2",
      "outputs": [],
      "stateMutability": "payable",
      "type": "function"
    },
    {
      "inputs": [
        {
          "internalType": "address payable",
          "name": "_to",
          "type": "address"
        },
        {
          "internalType": "uint256",
          "name": "_amount",
          "type": "uint256"
        }
      ],
      "name": "withdrawQuotedFromULN",
      "outputs": [],
      "stateMutability": "nonpayable",
      "type": "function"
    }
  ],
  "transactionHash": "0x839f344632b164a901c81b5279b613156af2a20df638e4d1b62c106e2deeb564",
  "args": [],
  "numDeployments": 1,
  "solcInputHash": "12c7d0d56acddfebbe11091860e83f3a",
  "bytecode": "0x608060405234801561001057600080fd5b5060016000556122a8806100256000396000f3fe6080604052600436106101445760003560e01c8063765a8a54116100c0578063e54a221511610074578063f136a87411610059578063f136a874146106c6578063f2fde38b14610706578063fdf697841461074657610144565b8063e54a2215146105bb578063ea4fa6bf1461068057610144565b8063ac16d6ac116100a5578063ac16d6ac1461047e578063b8f8bad41461052d578063c4d66de81461057b57610144565b8063765a8a54146103fa5780638da5cb5b1461046957610144565b8063575765e211610117578063673448dd116100fc578063673448dd1461037c5780636c473aff146103d0578063715018a6146103e557610144565b8063575765e2146102f65780636348d2691461033e57610144565b806303343f541461014957806323161ff81461018b5780633a5fb82a146101fd5780633f1034871461028e575b600080fd5b34801561015557600080fd5b506101896004803603602081101561016c57600080fd5b503573ffffffffffffffffffffffffffffffffffffffff166107fe565b005b34801561019757600080fd5b506101c1600480360360408110156101ae57600080fd5b5061ffff813581169160200135166108dd565b604080516fffffffffffffffffffffffffffffffff909416845267ffffffffffffffff9283166020850152911682820152519081900360600190f35b34801561020957600080fd5b506101896004803603606081101561022057600080fd5b61ffff823581169260208101359091169181019060608101604082013564010000000081111561024f57600080fd5b82018360208201111561026157600080fd5b8035906020019184600183028401116401000000008311171561028357600080fd5b50909250905061094b565b34801561029a57600080fd5b50610189600480360360a08110156102b157600080fd5b5061ffff81358116916020810135909116906fffffffffffffffffffffffffffffffff6040820135169067ffffffffffffffff60608201358116916080013516610951565b34801561030257600080fd5b506101896004803603604081101561031957600080fd5b5073ffffffffffffffffffffffffffffffffffffffff81351690602001351515610af3565b34801561034a57600080fd5b50610353610c2a565b6040805173ffffffffffffffffffffffffffffffffffffffff9092168252519081900360200190f35b34801561038857600080fd5b506103bc6004803603602081101561039f57600080fd5b503573ffffffffffffffffffffffffffffffffffffffff16610c46565b604080519115158252519081900360200190f35b3480156103dc57600080fd5b50610353610c71565b3480156103f157600080fd5b50610189610c8d565b34801561040657600080fd5b506104286004803603602081101561041d57600080fd5b503561ffff16610da4565b60405180836fffffffffffffffffffffffffffffffff168152602001826fffffffffffffffffffffffffffffffff1681526020019250505060405180910390f35b34801561047557600080fd5b50610353610de0565b34801561048a57600080fd5b50610189600480360360a08110156104a157600080fd5b61ffff8235169173ffffffffffffffffffffffffffffffffffffffff6020820135169160408201359160608101359181019060a0810160808201356401000000008111156104ee57600080fd5b82018360208201111561050057600080fd5b8035906020019184600183028401116401000000008311171561052257600080fd5b509092509050610dfc565b34801561053957600080fd5b506101896004803603606081101561055057600080fd5b5061ffff813516906fffffffffffffffffffffffffffffffff60208201358116916040013516610ff8565b34801561058757600080fd5b506101896004803603602081101561059e57600080fd5b503573ffffffffffffffffffffffffffffffffffffffff1661111c565b3480156105c757600080fd5b5061066e600480360360a08110156105de57600080fd5b61ffff823581169260208101359091169173ffffffffffffffffffffffffffffffffffffffff6040830135169160608101359181019060a08101608082013564010000000081111561062f57600080fd5b82018360208201111561064157600080fd5b8035906020019184600183028401116401000000008311171561066357600080fd5b509092509050611309565b60408051918252519081900360200190f35b34801561068c57600080fd5b50610189600480360360408110156106a357600080fd5b5073ffffffffffffffffffffffffffffffffffffffff8135169060200135611376565b3480156106d257600080fd5b506103bc600480360360208110156106e957600080fd5b503573ffffffffffffffffffffffffffffffffffffffff166114b0565b34801561071257600080fd5b506101896004803603602081101561072957600080fd5b503573ffffffffffffffffffffffffffffffffffffffff166114c5565b610189600480360360c081101561075c57600080fd5b61ffff8235169173ffffffffffffffffffffffffffffffffffffffff6020820135169160408201359160608101359181019060a0810160808201356401000000008111156107a957600080fd5b8201836020820111156107bb57600080fd5b803590602001918460018302840111640100000000831117156107dd57600080fd5b91935091503573ffffffffffffffffffffffffffffffffffffffff16611667565b33610807610de0565b73ffffffffffffffffffffffffffffffffffffffff16146108965761082b33610c46565b61089657604080517f08c379a000000000000000000000000000000000000000000000000000000000815260206004820152601660248201527f52656c617965723a206e6f7420617070726f7665642000000000000000000000604482015290519081900360640190fd5b606a80547fffffffffffffffffffffffff00000000000000000000000000000000000000001673ffffffffffffffffffffffffffffffffffffffff92909216919091179055565b60686020908152600092835260408084209091529082529020546fffffffffffffffffffffffffffffffff81169067ffffffffffffffff7001000000000000000000000000000000008204811691780100000000000000000000000000000000000000000000000090041683565b50505050565b3361095a610de0565b73ffffffffffffffffffffffffffffffffffffffff16146109e95761097e33610c46565b6109e957604080517f08c379a000000000000000000000000000000000000000000000000000000000815260206004820152601660248201527f52656c617965723a206e6f7420617070726f7665642000000000000000000000604482015290519081900360640190fd5b604080516060810182526fffffffffffffffffffffffffffffffff948516815267ffffffffffffffff938416602080830191825293851682840190815261ffff98891660009081526068865284812098909916895296909352952094518554915194517fffffffffffffffffffffffffffffffff000000000000000000000000000000009092169316929092177fffffffffffffffff0000000000000000ffffffffffffffffffffffffffffffff16700100000000000000000000000000000000938216939093029290921777ffffffffffffffffffffffffffffffffffffffffffffffff1678010000000000000000000000000000000000000000000000009190921602179055565b610afb61190e565b73ffffffffffffffffffffffffffffffffffffffff16610b19610de0565b73ffffffffffffffffffffffffffffffffffffffff1614610b9b57604080517f08c379a000000000000000000000000000000000000000000000000000000000815260206004820181905260248201527f4f776e61626c653a2063616c6c6572206973206e6f7420746865206f776e6572604482015290519081900360640190fd5b73ffffffffffffffffffffffffffffffffffffffff821660008181526069602090815260409182902080547fffffffffffffffffffffffffffffffffffffffffffffffffffffffffffffff001685151590811790915582519384529083015280517fb10786d0bfa68fb1aa29552d9203e5f545f7c073ff0784da1de1d800986f10239281900390910190a15050565b606a5473ffffffffffffffffffffffffffffffffffffffff1681565b73ffffffffffffffffffffffffffffffffffffffff1660009081526069602052604090205460ff1690565b60665473ffffffffffffffffffffffffffffffffffffffff1681565b610c9561190e565b73ffffffffffffffffffffffffffffffffffffffff16610cb3610de0565b73ffffffffffffffffffffffffffffffffffffffff1614610d3557604080517f08c379a000000000000000000000000000000000000000000000000000000000815260206004820181905260248201527f4f776e61626c653a2063616c6c6572206973206e6f7420746865206f776e6572604482015290519081900360640190fd5b60345460405160009173ffffffffffffffffffffffffffffffffffffffff16907f8be0079c531659141344cd1fd0a4f28419497f9722a3daafe3b4186f6b6457e0908390a3603480547fffffffffffffffffffffffff0000000000000000000000000000000000000000169055565b6067602052600090815260409020546fffffffffffffffffffffffffffffffff8082169170010000000000000000000000000000000090041682565b60345473ffffffffffffffffffffffffffffffffffffffff1690565b33610e05610de0565b73ffffffffffffffffffffffffffffffffffffffff1614610e9457610e2933610c46565b610e9457604080517f08c379a000000000000000000000000000000000000000000000000000000000815260206004820152601660248201527f52656c617965723a206e6f7420617070726f7665642000000000000000000000604482015290519081900360640190fd5b60026000541415610f0657604080517f08c379a000000000000000000000000000000000000000000000000000000000815260206004820152601f60248201527f5265656e7472616e637947756172643a207265656e7472616e742063616c6c00604482015290519081900360640190fd5b60026000556066546040517f5c01153100000000000000000000000000000000000000000000000000000000815261ffff88166004820190815273ffffffffffffffffffffffffffffffffffffffff8881166024840152604483018890526064830187905260a06084840190815260a48401869052931692635c011531928a928a928a928a928a928a9260c401848480828437600081840152601f19601f820116905080830192505050975050505050505050600060405180830381600087803b158015610fd357600080fd5b505af1158015610fe7573d6000803e3d6000fd5b505060016000555050505050505050565b33611001610de0565b73ffffffffffffffffffffffffffffffffffffffff16146110905761102533610c46565b61109057604080517f08c379a000000000000000000000000000000000000000000000000000000000815260206004820152601660248201527f52656c617965723a206e6f7420617070726f7665642000000000000000000000604482015290519081900360640190fd5b6040805180820182526fffffffffffffffffffffffffffffffff9384168152918316602080840191825261ffff959095166000908152606790955293209051815493517fffffffffffffffffffffffffffffffff000000000000000000000000000000009094169083161782167001000000000000000000000000000000009390921692909202179055565b6000611126611912565b905073ffffffffffffffffffffffffffffffffffffffff811661117f5773ffffffffffffffffffffffffffffffffffffffff7fb53127684a568b3173ae13b9f8a6016e243e63b6e8ee1178d6a717850b5d6103556111a1565b3373ffffffffffffffffffffffffffffffffffffffff8216146111a157600080fd5b600154610100900460ff16806111ba57506111ba611937565b806111c8575060015460ff16155b61121d576040517f08c379a000000000000000000000000000000000000000000000000000000000815260040180806020018281038252602e815260200180612224602e913960400191505060405180910390fd5b600154610100900460ff1615801561128257600180547fffffffffffffffffffffffffffffffffffffffffffffffffffffffffffffff007fffffffffffffffffffffffffffffffffffffffffffffffffffffffffffff00ff9091166101001716811790555b61128a611948565b606680547fffffffffffffffffffffffff00000000000000000000000000000000000000001673ffffffffffffffffffffffffffffffffffffffff85161790556112d5306001610af3565b801561130457600180547fffffffffffffffffffffffffffffffffffffffffffffffffffffffffffff00ff1690555b505050565b600080600061135089898988888080601f016020809104026020016040519081016040528093929190818152602001838380828437600092019190915250611a6b92505050565b90925090506113696113628783611dc0565b8390611e3c565b9998505050505050505050565b3361137f610de0565b73ffffffffffffffffffffffffffffffffffffffff161461140e576113a333610c46565b61140e57604080517f08c379a000000000000000000000000000000000000000000000000000000000815260206004820152601660248201527f52656c617965723a206e6f7420617070726f7665642000000000000000000000604482015290519081900360640190fd5b606654604080517f22c107760000000000000000000000000000000000000000000000000000000081526002600482015260006024820181905273ffffffffffffffffffffffffffffffffffffffff868116604484015260648301869052925192909316926322c107769260848084019382900301818387803b15801561149457600080fd5b505af11580156114a8573d6000803e3d6000fd5b505050505050565b60696020526000908152604090205460ff1681565b6114cd61190e565b73ffffffffffffffffffffffffffffffffffffffff166114eb610de0565b73ffffffffffffffffffffffffffffffffffffffff161461156d57604080517f08c379a000000000000000000000000000000000000000000000000000000000815260206004820181905260248201527f4f776e61626c653a2063616c6c6572206973206e6f7420746865206f776e6572604482015290519081900360640190fd5b73ffffffffffffffffffffffffffffffffffffffff81166115d9576040517f08c379a00000000000000000000000000000000000000000000000000000000081526004018080602001828103825260268152602001806121fe6026913960400191505060405180910390fd5b60345460405173ffffffffffffffffffffffffffffffffffffffff8084169216907f8be0079c531659141344cd1fd0a4f28419497f9722a3daafe3b4186f6b6457e090600090a3603480547fffffffffffffffffffffffff00000000000000000000000000000000000000001673ffffffffffffffffffffffffffffffffffffffff92909216919091179055565b33611670610de0565b73ffffffffffffffffffffffffffffffffffffffff16146116ff5761169433610c46565b6116ff57604080517f08c379a000000000000000000000000000000000000000000000000000000000815260206004820152601660248201527f52656c617965723a206e6f7420617070726f7665642000000000000000000000604482015290519081900360640190fd5b6002600054141561177157604080517f08c379a000000000000000000000000000000000000000000000000000000000815260206004820152601f60248201527f5265656e7472616e637947756172643a207265656e7472616e742063616c6c00604482015290519081900360640190fd5b6002600090815560405173ffffffffffffffffffffffffffffffffffffffff83169034908381818185875af1925050503d80600081146117cd576040519150601f19603f3d011682016040523d82523d6000602084013e6117d2565b606091505b505090508061181f57604051349073ffffffffffffffffffffffffffffffffffffffff8416907f2c7a964ca3de5ec1d42d9822f9bbd0eb142a59cc9f855e9d93813b773192c7a390600090a35b6066546040517f5c01153100000000000000000000000000000000000000000000000000000000815261ffff8a166004820190815273ffffffffffffffffffffffffffffffffffffffff8a81166024840152604483018a90526064830189905260a06084840190815260a48401889052931692635c011531928c928c928c928c928c928c9260c401848480828437600081840152601f19601f820116905080830192505050975050505050505050600060405180830381600087803b1580156118e757600080fd5b505af11580156118fb573d6000803e3d6000fd5b5050600160005550505050505050505050565b3390565b7fb53127684a568b3173ae13b9f8a6016e243e63b6e8ee1178d6a717850b5d61035490565b600061194230611eb0565b15905090565b600154610100900460ff16806119615750611961611937565b8061196f575060015460ff16155b6119c4576040517f08c379a000000000000000000000000000000000000000000000000000000000815260040180806020018281038252602e815260200180612224602e913960400191505060405180910390fd5b600154610100900460ff16158015611a2957600180547fffffffffffffffffffffffffffffffffffffffffffffffffffffffffffffff007fffffffffffffffffffffffffffffffffffffffffffffffffffffffffffff00ff9091166101001716811790555b611a31611eb6565b611a39611fc7565b8015611a6857600180547fffffffffffffffffffffffffffffffffffffffffffffffffffffffffffff00ff1690555b50565b600080825160221480611a7f575060428351115b611ad4576040517f08c379a00000000000000000000000000000000000000000000000000000000081526004018080602001828103825260268152602001806121d86026913960400191505060405180910390fd5b6002830151602284015180611b4a57604080517f08c379a000000000000000000000000000000000000000000000000000000000815260206004820152601460248201527f52656c617965723a2067617320746f6f206c6f77000000000000000000000000604482015290519081900360640190fd5b8161ffff1660011480611b6157508161ffff166002145b611bcc57604080517f08c379a000000000000000000000000000000000000000000000000000000000815260206004820152601b60248201527f52656c617965723a20756e737570706f72746564207478547970650000000000604482015290519081900360640190fd5b61ffff8881166000908152606760209081526040808320606883528184208c8616855290925282209092909190851660021415611c9857604288015182546fffffffffffffffffffffffffffffffff16811115611c8a57604080517f08c379a000000000000000000000000000000000000000000000000000000000815260206004820181905260248201527f52656c617965723a206473744e6174697665416d7420746f6f206c6172676520604482015290519081900360640190fd5b611c948282611e3c565b9150505b8154600090611cf790611cc990700100000000000000000000000000000000900467ffffffffffffffff1687611e3c565b855470010000000000000000000000000000000090046fffffffffffffffffffffffffffffffff1690611dc0565b9050611d038282611e3c565b8454909250611d36906402540be40090611d309085906fffffffffffffffffffffffffffffffff16611dc0565b90612156565b84548454919950611daf916402540be40091611d30916fffffffffffffffffffffffffffffffff80831692611da992700100000000000000000000000000000000909104909116907801000000000000000000000000000000000000000000000000900467ffffffffffffffff16611dc0565b90611dc0565b965050505050505094509492505050565b600082611dcf57506000611e36565b82820282848281611ddc57fe5b0414611e33576040517f08c379a00000000000000000000000000000000000000000000000000000000081526004018080602001828103825260218152602001806122526021913960400191505060405180910390fd5b90505b92915050565b600082820183811015611e3357604080517f08c379a000000000000000000000000000000000000000000000000000000000815260206004820152601b60248201527f536166654d6174683a206164646974696f6e206f766572666c6f770000000000604482015290519081900360640190fd5b3b151590565b600154610100900460ff1680611ecf5750611ecf611937565b80611edd575060015460ff16155b611f32576040517f08c379a000000000000000000000000000000000000000000000000000000000815260040180806020018281038252602e815260200180612224602e913960400191505060405180910390fd5b600154610100900460ff16158015611a3957600180547fffffffffffffffffffffffffffffffffffffffffffffffffffffffffffffff007fffffffffffffffffffffffffffffffffffffffffffffffffffffffffffff00ff9091166101001716811790558015611a6857600180547fffffffffffffffffffffffffffffffffffffffffffffffffffffffffffff00ff16905550565b600154610100900460ff1680611fe05750611fe0611937565b80611fee575060015460ff16155b612043576040517f08c379a000000000000000000000000000000000000000000000000000000000815260040180806020018281038252602e815260200180612224602e913960400191505060405180910390fd5b600154610100900460ff161580156120a857600180547fffffffffffffffffffffffffffffffffffffffffffffffffffffffffffffff007fffffffffffffffffffffffffffffffffffffffffffffffffffffffffffff00ff9091166101001716811790555b60006120b261190e565b603480547fffffffffffffffffffffffff00000000000000000000000000000000000000001673ffffffffffffffffffffffffffffffffffffffff8316908117909155604051919250906000907f8be0079c531659141344cd1fd0a4f28419497f9722a3daafe3b4186f6b6457e0908290a3508015611a6857600180547fffffffffffffffffffffffffffffffffffffffffffffffffffffffffffff00ff16905550565b60008082116121c657604080517f08c379a000000000000000000000000000000000000000000000000000000000815260206004820152601a60248201527f536166654d6174683a206469766973696f6e206279207a65726f000000000000604482015290519081900360640190fd5b8183816121cf57fe5b04939250505056fe52656c617965723a2077726f6e67205f61646170746572506172616d65746572732073697a654f776e61626c653a206e6577206f776e657220697320746865207a65726f2061646472657373496e697469616c697a61626c653a20636f6e747261637420697320616c726561647920696e697469616c697a6564536166654d6174683a206d756c7469706c69636174696f6e206f766572666c6f77a26469706673582212206fffd88bbc9d4180a43a8861b5fe787ad6afb213d61b6291b5ea1a124c1ead8864736f6c63430007060033",
  "devdoc": {
    "kind": "dev",
    "methods": {
      "owner()": {
        "details": "Returns the address of the current owner."
      },
      "renounceOwnership()": {
        "details": "Leaves the contract without owner. It will not be possible to call `onlyOwner` functions anymore. Can only be called by the current owner. NOTE: Renouncing ownership will leave the contract without an owner, thereby removing any functionality that is only available to the owner."
      },
      "transferOwnership(address)": {
        "details": "Transfers ownership of the contract to a new account (`newOwner`). Can only be called by the current owner."
      }
    },
    "version": 1
  },
  "userdoc": {
    "kind": "user",
    "methods": {},
    "version": 1
  },
  "storageLayout": {
    "storage": [
      {
        "astId": 4466,
        "contract": "contracts/Relayer.sol:Relayer",
        "label": "_status",
        "offset": 0,
        "slot": "0",
        "type": "t_uint256"
      },
      {
        "astId": 2529,
        "contract": "contracts/Relayer.sol:Relayer",
        "label": "_initialized",
        "offset": 0,
        "slot": "1",
        "type": "t_bool"
      },
      {
        "astId": 2532,
        "contract": "contracts/Relayer.sol:Relayer",
        "label": "_initializing",
        "offset": 1,
        "slot": "1",
        "type": "t_bool"
      },
      {
        "astId": 2876,
        "contract": "contracts/Relayer.sol:Relayer",
        "label": "__gap",
        "offset": 0,
        "slot": "2",
        "type": "t_array(t_uint256)50_storage"
      },
      {
        "astId": 2402,
        "contract": "contracts/Relayer.sol:Relayer",
        "label": "_owner",
        "offset": 0,
        "slot": "52",
        "type": "t_address"
      },
      {
        "astId": 2521,
        "contract": "contracts/Relayer.sol:Relayer",
        "label": "__gap",
        "offset": 0,
        "slot": "53",
        "type": "t_array(t_uint256)49_storage"
      },
      {
        "astId": 5687,
        "contract": "contracts/Relayer.sol:Relayer",
        "label": "uln",
        "offset": 0,
        "slot": "102",
        "type": "t_contract(ILayerZeroUltraLightNodeV1)9409"
      },
      {
        "astId": 5703,
        "contract": "contracts/Relayer.sol:Relayer",
        "label": "dstPriceLookup",
        "offset": 0,
        "slot": "103",
        "type": "t_mapping(t_uint16,t_struct(DstPrice)5692_storage)"
      },
      {
        "astId": 5709,
        "contract": "contracts/Relayer.sol:Relayer",
        "label": "dstConfigLookup",
        "offset": 0,
        "slot": "104",
        "type": "t_mapping(t_uint16,t_mapping(t_uint16,t_struct(DstConfig)5699_storage))"
      },
      {
        "astId": 5713,
        "contract": "contracts/Relayer.sol:Relayer",
        "label": "approvedAddresses",
        "offset": 0,
        "slot": "105",
        "type": "t_mapping(t_address,t_bool)"
      },
      {
        "astId": 5735,
        "contract": "contracts/Relayer.sol:Relayer",
        "label": "stargateBridgeAddress",
        "offset": 0,
        "slot": "106",
        "type": "t_address"
      }
    ],
    "types": {
      "t_address": {
        "encoding": "inplace",
        "label": "address",
        "numberOfBytes": "20"
      },
      "t_array(t_uint256)49_storage": {
        "base": "t_uint256",
        "encoding": "inplace",
        "label": "uint256[49]",
        "numberOfBytes": "1568"
      },
      "t_array(t_uint256)50_storage": {
        "base": "t_uint256",
        "encoding": "inplace",
        "label": "uint256[50]",
        "numberOfBytes": "1600"
      },
      "t_bool": {
        "encoding": "inplace",
        "label": "bool",
        "numberOfBytes": "1"
      },
      "t_contract(ILayerZeroUltraLightNodeV1)9409": {
        "encoding": "inplace",
        "label": "contract ILayerZeroUltraLightNodeV1",
        "numberOfBytes": "20"
      },
      "t_mapping(t_address,t_bool)": {
        "encoding": "mapping",
        "key": "t_address",
        "label": "mapping(address => bool)",
        "numberOfBytes": "32",
        "value": "t_bool"
      },
      "t_mapping(t_uint16,t_mapping(t_uint16,t_struct(DstConfig)5699_storage))": {
        "encoding": "mapping",
        "key": "t_uint16",
        "label": "mapping(uint16 => mapping(uint16 => struct Relayer.DstConfig))",
        "numberOfBytes": "32",
        "value": "t_mapping(t_uint16,t_struct(DstConfig)5699_storage)"
      },
      "t_mapping(t_uint16,t_struct(DstConfig)5699_storage)": {
        "encoding": "mapping",
        "key": "t_uint16",
        "label": "mapping(uint16 => struct Relayer.DstConfig)",
        "numberOfBytes": "32",
        "value": "t_struct(DstConfig)5699_storage"
      },
      "t_mapping(t_uint16,t_struct(DstPrice)5692_storage)": {
        "encoding": "mapping",
        "key": "t_uint16",
        "label": "mapping(uint16 => struct Relayer.DstPrice)",
        "numberOfBytes": "32",
        "value": "t_struct(DstPrice)5692_storage"
      },
      "t_struct(DstConfig)5699_storage": {
        "encoding": "inplace",
        "label": "struct Relayer.DstConfig",
        "members": [
          {
            "astId": 5694,
            "contract": "contracts/Relayer.sol:Relayer",
            "label": "dstNativeAmtCap",
            "offset": 0,
            "slot": "0",
            "type": "t_uint128"
          },
          {
            "astId": 5696,
            "contract": "contracts/Relayer.sol:Relayer",
            "label": "baseGas",
            "offset": 16,
            "slot": "0",
            "type": "t_uint64"
          },
          {
            "astId": 5698,
            "contract": "contracts/Relayer.sol:Relayer",
            "label": "gasPerByte",
            "offset": 24,
            "slot": "0",
            "type": "t_uint64"
          }
        ],
        "numberOfBytes": "32"
      },
      "t_struct(DstPrice)5692_storage": {
        "encoding": "inplace",
        "label": "struct Relayer.DstPrice",
        "members": [
          {
            "astId": 5689,
            "contract": "contracts/Relayer.sol:Relayer",
            "label": "dstPriceRatio",
            "offset": 0,
            "slot": "0",
            "type": "t_uint128"
          },
          {
            "astId": 5691,
            "contract": "contracts/Relayer.sol:Relayer",
            "label": "dstGasPriceInWei",
            "offset": 16,
            "slot": "0",
            "type": "t_uint128"
          }
        ],
        "numberOfBytes": "32"
      },
      "t_uint128": {
        "encoding": "inplace",
        "label": "uint128",
        "numberOfBytes": "16"
      },
      "t_uint16": {
        "encoding": "inplace",
        "label": "uint16",
        "numberOfBytes": "2"
      },
      "t_uint256": {
        "encoding": "inplace",
        "label": "uint256",
        "numberOfBytes": "32"
      },
      "t_uint64": {
        "encoding": "inplace",
        "label": "uint64",
        "numberOfBytes": "8"
      }
    }
  }
}