{
  "_format": "hh-sol-artifact-1",
  "contractName": "NonceContractRadar",
  "sourceName": "contracts/NonceContractRadar.sol",
  "abi": [
    {
      "inputs": [
        {
          "internalType": "address",
          "name": "_endpoint",
          "type": "address"
        },
        {
          "internalType": "address",
          "name": "_ulnv2Radar",
          "type": "address"
        }
      ],
      "stateMutability": "nonpayable",
      "type": "constructor"
    },
    {
      "inputs": [],
      "name": "endpoint",
      "outputs": [
        {
          "internalType": "contract ILayerZeroEndpoint",
          "name": "",
          "type": "address"
        }
      ],
      "stateMutability": "view",
      "type": "function"
    },
    {
      "inputs": [
        {
          "internalType": "uint16",
          "name": "_chainId",
          "type": "uint16"
        },
        {
          "internalType": "address",
          "name": "_ua",
          "type": "address"
        },
        {
          "internalType": "bytes",
          "name": "_path",
          "type": "bytes"
        }
      ],
      "name": "increment",
      "outputs": [
        {
          "internalType": "uint64",
          "name": "",
          "type": "uint64"
        }
      ],
      "stateMutability": "nonpayable",
      "type": "function"
    },
    {
      "inputs": [
        {
          "internalType": "uint16",
          "name": "_dstChainId",
          "type": "uint16"
        },
        {
          "internalType": "bytes",
          "name": "_path",
          "type": "bytes"
        },
        {
          "internalType": "uint64",
          "name": "_nonce",
          "type": "uint64"
        }
      ],
      "name": "initRadarOutboundNonce",
      "outputs": [],
      "stateMutability": "nonpayable",
      "type": "function"
    },
    {
      "inputs": [
        {
          "internalType": "uint16",
          "name": "",
          "type": "uint16"
        },
        {
          "internalType": "bytes",
          "name": "",
          "type": "bytes"
        }
      ],
      "name": "outboundNonce",
      "outputs": [
        {
          "internalType": "uint64",
          "name": "",
          "type": "uint64"
        }
      ],
      "stateMutability": "view",
      "type": "function"
    },
    {
      "inputs": [],
      "name": "ulnv2Radar",
      "outputs": [
        {
          "internalType": "address",
          "name": "",
          "type": "address"
        }
      ],
      "stateMutability": "view",
      "type": "function"
    }
  ],
  "bytecode": "0x60c060405234801561001057600080fd5b506040516106dd3803806106dd8339818101604052604081101561003357600080fd5b5080516020909101516001600160601b0319606092831b8116608052911b1660a05260805160601c60a05160601c6106556100886000398061029252806102cc5250806103d9528061041652506106556000f3fe608060405234801561001057600080fd5b50600436106100675760003560e01c80635e280f11116100505780635e280f11146101245780636fe7b6731461012c578063c533338f146101df57610067565b8063184e49e11461006c5780633461ff561461009d575b600080fd5b610074610290565b6040805173ffffffffffffffffffffffffffffffffffffffff9092168252519081900360200190f35b610122600480360360608110156100b357600080fd5b61ffff82351691908101906040810160208201356401000000008111156100d957600080fd5b8201836020820111156100eb57600080fd5b8035906020019184600183028401116401000000008311171561010d57600080fd5b91935091503567ffffffffffffffff166102b4565b005b6100746103d7565b6101c26004803603606081101561014257600080fd5b61ffff8235169173ffffffffffffffffffffffffffffffffffffffff6020820135169181019060608101604082013564010000000081111561018357600080fd5b82018360208201111561019557600080fd5b803590602001918460018302840111640100000000831117156101b757600080fd5b5090925090506103fb565b6040805167ffffffffffffffff9092168252519081900360200190f35b6101c2600480360360408110156101f557600080fd5b61ffff823516919081019060408101602082013564010000000081111561021b57600080fd5b82018360208201111561022d57600080fd5b8035906020019184600183028401116401000000008311171561024f57600080fd5b91908080601f0160208091040260200160405190810160405280939291908181526020018383808284376000920191909152509295506105b8945050505050565b7f000000000000000000000000000000000000000000000000000000000000000081565b3373ffffffffffffffffffffffffffffffffffffffff7f0000000000000000000000000000000000000000000000000000000000000000161461035857604080517f08c379a000000000000000000000000000000000000000000000000000000000815260206004820152601e60248201527f4e6f6e6365436f6e74726163743a206f6e6c7920756c6e763252616461720000604482015290519081900360640190fd5b806000808661ffff1661ffff16815260200190815260200160002084846040518083838082843791909101948552505060405192839003602001909220805467ffffffffffffffff949094167fffffffffffffffffffffffffffffffffffffffffffffffff000000000000000090941693909317909255505050505050565b7f000000000000000000000000000000000000000000000000000000000000000081565b60003373ffffffffffffffffffffffffffffffffffffffff167f000000000000000000000000000000000000000000000000000000000000000073ffffffffffffffffffffffffffffffffffffffff16639c729da1866040518263ffffffff1660e01b8152600401808273ffffffffffffffffffffffffffffffffffffffff16815260200191505060206040518083038186803b15801561049b57600080fd5b505afa1580156104af573d6000803e3d6000fd5b505050506040513d60208110156104c557600080fd5b505173ffffffffffffffffffffffffffffffffffffffff1614610533576040517f08c379a00000000000000000000000000000000000000000000000000000000081526004018080602001828103825260328152602001806105ee6032913960400191505060405180910390fd5b6000808661ffff1661ffff1681526020019081526020016000208383604051808383808284379190910194855250506040516020938190039390930190922080547fffffffffffffffffffffffffffffffffffffffffffffffff00000000000000008116600167ffffffffffffffff9283160191821617909155979650505050505050565b6000602081815292815260409020815180830184018051928152908401929093019190912091525467ffffffffffffffff168156fe4e6f6e6365436f6e74726163743a206d73672e73656e646572206973206e6f742076616c69642073656e646c696272617279a26469706673582212204f7496cb391823a098895bb07da67de439d310e60e41f5fda8a0cbabc0e8681764736f6c63430007060033",
  "linkReferences": {},
  "deployedLinkReferences": {}
}