{
  "address": "0x2cA20802fd1Fd9649bA8Aa7E50F0C82b479f35fe",
  "abi": [
    {
      "inputs": [
        {
          "internalType": "address",
          "name": "_stargateBridgeAddress",
          "type": "address"
        },
        {
          "internalType": "address",
          "name": "_stargateTokenAddress",
          "type": "address"
        }
      ],
      "stateMutability": "nonpayable",
      "type": "constructor"
    },
    {
      "inputs": [],
      "name": "PACKET_SIGNATURE",
      "outputs": [
        {
          "internalType": "bytes32",
          "name": "",
          "type": "bytes32"
        }
      ],
      "stateMutability": "view",
      "type": "function"
    },
    {
      "inputs": [
        {
          "internalType": "bytes",
          "name": "data",
          "type": "bytes"
        },
        {
          "internalType": "uint256",
          "name": "sizeOfSrcAddress",
          "type": "uint256"
        },
        {
          "internalType": "bytes32",
          "name": "ulnAddress",
          "type": "bytes32"
        }
      ],
      "name": "getPacket",
      "outputs": [
        {
          "components": [
            {
              "internalType": "uint16",
              "name": "srcChainId",
              "type": "uint16"
            },
            {
              "internalType": "uint16",
              "name": "dstChainId",
              "type": "uint16"
            },
            {
              "internalType": "uint64",
              "name": "nonce",
              "type": "uint64"
            },
            {
              "internalType": "address",
              "name": "dstAddress",
              "type": "address"
            },
            {
              "internalType": "bytes",
              "name": "srcAddress",
              "type": "bytes"
            },
            {
              "internalType": "bytes32",
              "name": "ulnAddress",
              "type": "bytes32"
            },
            {
              "internalType": "bytes",
              "name": "payload",
              "type": "bytes"
            }
          ],
          "internalType": "struct LayerZeroPacket.Packet",
          "name": "",
          "type": "tuple"
        }
      ],
      "stateMutability": "pure",
      "type": "function"
    },
    {
      "inputs": [],
      "name": "getProofType",
      "outputs": [
        {
          "internalType": "uint8",
          "name": "",
          "type": "uint8"
        }
      ],
      "stateMutability": "view",
      "type": "function"
    },
    {
      "inputs": [],
      "name": "getUtilsVersion",
      "outputs": [
        {
          "internalType": "uint8",
          "name": "",
          "type": "uint8"
        }
      ],
      "stateMutability": "view",
      "type": "function"
    },
    {
      "inputs": [
        {
          "internalType": "bytes32",
          "name": "hashRoot",
          "type": "bytes32"
        },
        {
          "internalType": "uint256[]",
          "name": "receiptSlotIndex",
          "type": "uint256[]"
        },
        {
          "internalType": "uint256",
          "name": "logIndex",
          "type": "uint256"
        },
        {
          "internalType": "bytes[]",
          "name": "proof",
          "type": "bytes[]"
        }
      ],
      "name": "getVerifyLog",
      "outputs": [
        {
          "components": [
            {
              "internalType": "bytes32",
              "name": "contractAddress",
              "type": "bytes32"
            },
            {
              "internalType": "bytes32",
              "name": "topicZeroSig",
              "type": "bytes32"
            },
            {
              "internalType": "bytes",
              "name": "data",
              "type": "bytes"
            }
          ],
          "internalType": "struct IValidationLibraryHelperV2.ULNLog",
          "name": "",
          "type": "tuple"
        }
      ],
      "stateMutability": "pure",
      "type": "function"
    },
    {
      "inputs": [],
      "name": "proofType",
      "outputs": [
        {
          "internalType": "uint8",
          "name": "",
          "type": "uint8"
        }
      ],
      "stateMutability": "view",
      "type": "function"
    },
    {
      "inputs": [
        {
          "internalType": "bytes",
          "name": "_payload",
          "type": "bytes"
        }
      ],
      "name": "secureStgPayload",
      "outputs": [
        {
          "internalType": "bytes",
          "name": "",
          "type": "bytes"
        }
      ],
      "stateMutability": "view",
      "type": "function"
    },
    {
      "inputs": [
        {
          "internalType": "bytes",
          "name": "_payload",
          "type": "bytes"
        }
      ],
      "name": "secureStgTokenPayload",
      "outputs": [
        {
          "internalType": "bytes",
          "name": "",
          "type": "bytes"
        }
      ],
      "stateMutability": "pure",
      "type": "function"
    },
    {
      "inputs": [],
      "name": "stargateBridgeAddress",
      "outputs": [
        {
          "internalType": "address",
          "name": "",
          "type": "address"
        }
      ],
      "stateMutability": "view",
      "type": "function"
    },
    {
      "inputs": [],
      "name": "stargateTokenAddress",
      "outputs": [
        {
          "internalType": "address",
          "name": "",
          "type": "address"
        }
      ],
      "stateMutability": "view",
      "type": "function"
    },
    {
      "inputs": [],
      "name": "utilsVersion",
      "outputs": [
        {
          "internalType": "uint8",
          "name": "",
          "type": "uint8"
        }
      ],
      "stateMutability": "view",
      "type": "function"
    },
    {
      "inputs": [
        {
          "internalType": "bytes32",
          "name": "_receiptsRoot",
          "type": "bytes32"
        },
        {
          "internalType": "bytes",
          "name": "_transactionProof",
          "type": "bytes"
        },
        {
          "internalType": "uint256",
          "name": "_remoteAddressSize",
          "type": "uint256"
        }
      ],
      "name": "validateProof",
      "outputs": [
        {
          "components": [
            {
              "internalType": "uint16",
              "name": "srcChainId",
              "type": "uint16"
            },
            {
              "internalType": "uint16",
              "name": "dstChainId",
              "type": "uint16"
            },
            {
              "internalType": "uint64",
              "name": "nonce",
              "type": "uint64"
            },
            {
              "internalType": "address",
              "name": "dstAddress",
              "type": "address"
            },
            {
              "internalType": "bytes",
              "name": "srcAddress",
              "type": "bytes"
            },
            {
              "internalType": "bytes32",
              "name": "ulnAddress",
              "type": "bytes32"
            },
            {
              "internalType": "bytes",
              "name": "payload",
              "type": "bytes"
            }
          ],
          "internalType": "struct LayerZeroPacket.Packet",
          "name": "packet",
          "type": "tuple"
        }
      ],
      "stateMutability": "view",
      "type": "function"
    }
  ],
  "transactionHash": "0x08a6f3403bfa748a7ef482ad6d45c44cc1e83ce27e29ca862cdd3a8ab273c4bc",
  "args": [
    "0x0000000000000000000000000000000000000000",
    "0x0000000000000000000000000000000000000000"
  ],
  "numDeployments": 1,
  "solcInputHash": "23681578d31f1876803f797bd6387073",
  "bytecode": "0x60c060405260008054600160ff199091161761ff0019166104001790553480156200002957600080fd5b50604051620020fc380380620020fc8339810160408190526200004c9162000088565b6001600160601b0319606092831b8116608052911b1660a052620000bf565b80516001600160a01b03811681146200008357600080fd5b919050565b600080604083850312156200009b578182fd5b620000a6836200006b565b9150620000b6602084016200006b565b90509250929050565b60805160601c60a05160601c612009620000f3600039806103a7528061045052508061022b528061033c52506120096000f3fe608060405234801561001057600080fd5b50600436106100d45760003560e01c80639bcd850f11610081578063d633ad611161005b578063d633ad61146101a4578063e965c192146101ac578063ea455df9146101b4576100d4565b80639bcd850f14610174578063b71e0f711461017c578063be9d395e1461018f576100d4565b806347713b39116100b257806347713b39146101375780635711c2a81461013f5780636348d2691461015f576100d4565b806305af5d35146100d95780630f222e65146100f75780632ff2044914610117575b600080fd5b6100e16101c7565b6040516100ee9190611e0b565b60405180910390f35b61010a6101053660046118bf565b6101d0565b6040516100ee9190611ddc565b61012a610125366004611a28565b6101ed565b6040516100ee9190611d37565b6100e1610208565b61015261014d3660046119b0565b610216565b6040516100ee9190611bef565b610167610229565b6040516100ee9190611bc5565b6100e161024d565b61012a61018a366004611933565b610256565b61019761041c565b6040516100ee9190611be6565b6100e1610440565b61016761044e565b6101526101c23660046119b0565b610472565b60005460ff1681565b6101d8611599565b6101e48585858561047d565b95945050505050565b6101f56115b8565b61020084848461062c565b949350505050565b600054610100900460ff1681565b60606102218261079b565b90505b919050565b7f000000000000000000000000000000000000000000000000000000000000000081565b60005460ff1690565b61025e6115b8565b600082116102a1576040517f08c379a000000000000000000000000000000000000000000000000000000000815260040161029890611d00565b60405180910390fd5b600080806102b186880188611855565b92509250925060006102c58984848761047d565b60208101519091507fe9bded5f24a4168e4f3bf44e00298c993b22376aad8c58c7dda9718a54cbea8214610325576040517f08c379a000000000000000000000000000000000000000000000000000000000815260040161029890611c92565b610338816040015187836000015161062c565b94507f000000000000000000000000000000000000000000000000000000000000000073ffffffffffffffffffffffffffffffffffffffff16856060015173ffffffffffffffffffffffffffffffffffffffff1614156103a55761039f8560c0015161079b565b60c08601525b7f000000000000000000000000000000000000000000000000000000000000000073ffffffffffffffffffffffffffffffffffffffff16856060015173ffffffffffffffffffffffffffffffffffffffff1614156104105761040a8560c001516108bc565b60c08601525b50505050949350505050565b7fe9bded5f24a4168e4f3bf44e00298c993b22376aad8c58c7dda9718a54cbea8281565b600054610100900460ff1690565b7f000000000000000000000000000000000000000000000000000000000000000081565b6060610221826108bc565b610485611599565b81518451146104c0576040517f08c379a000000000000000000000000000000000000000000000000000000000815260040161029890611c24565b60008251116104fb576040517f08c379a000000000000000000000000000000000000000000000000000000000815260040161029890611cc9565b6105036115f6565b606060005b84518110156105af5784818151811061051d57fe5b6020026020010151915081805190602001208814610567576040517f08c379a000000000000000000000000000000000000000000000000000000000815260040161029890611c5b565b61058d87828151811061057657fe5b602002602001015161058784610966565b906109da565b925060018551038110156105a7576105a483610b96565b97505b600101610508565b5060006105c0600361058785610cb3565b905060006105d66105d183896109da565b610d3f565b90506105e0611599565b6105f16105ec83610deb565b610b96565b81526106046105ec600061058785610deb565b602082015261061a61061583610deb565b610e9b565b60408201529998505050505050505050565b6106346115b8565b60408401516048850151604a860151858701604c81015160609091015161ffff83166106c157604080517f08c379a000000000000000000000000000000000000000000000000000000000815260206004820152601f60248201527f4c617965725a65726f5061636b65743a20696e76616c6964207061636b657400604482015290519081900360640190fd5b6106c9611610565b6106d3818a610fc8565b506106e38160008c606a8d611002565b5060006106f18a60206110dc565b905060006106ff8883611157565b9050610709611610565b6107138183610fc8565b5061072f60008e6107258660606110dc565b8492919086611002565b506040805160e08101825261ffff988916815296909716602087015267ffffffffffffffff909716958501959095525073ffffffffffffffffffffffffffffffffffffffff909116606083015251608082015260a08101869052915160c0830152509150509392505050565b6020810151606090600160ff821614156108b5576000806000806000806000898060200190518101906107ce9190611a74565b9750975097509750975097509750506000815111156108ad578151600090156107f8575060148201515b803b806108aa576000826040516020016108129190611b95565b604080517fffffffffffffffffffffffffffffffffffffffffffffffffffffffffffffffe081840301815260208381018352600080855292519194509192610868928f928f928f928f928f928f928b9201611e19565b604080517fffffffffffffffffffffffffffffffffffffffffffffffffffffffffffffffe08184030181529190529c506102249b505050505050505050505050565b50505b505050505050505b5090919050565b6060600080838060200190518101906108d591906119e3565b91509150600080835111156108eb575060148201515b73ffffffffffffffffffffffffffffffffffffffff811661095d5760405161dead9060009061091e908390602001611b95565b60405160208183030381529060405290508084604051602001610942929190611c02565b60405160208183030381529060405295505050505050610224565b50929392505050565b61096e6115f6565b602082018051835160009190911a90801580159061098f575060c060ff8316105b156109be57600192909201917fffffffffffffffffffffffffffffffffffffffffffffffffffffffffffffffff015b6040805180820190915290815260208101929092525092915050565b6109e26115f6565b6109eb836111ce565b610a40576040517f08c379a0000000000000000000000000000000000000000000000000000000008152600401808060200182810382526021815260200180611f926021913960400191505060405180910390fd5b610a4983611208565b8210610ab657604080517f08c379a000000000000000000000000000000000000000000000000000000000815260206004820152601660248201527f524c50206974656d206f7574206f6620626f756e647300000000000000000000604482015290519081900360640190fd5b8251602084015190810190600090610acd90611260565b60208601510190506000805b85811015610af857610aea836112ff565b928301929150600101610ad9565b50610b02826112ff565b9050828183011115610b7557604080517f08c379a000000000000000000000000000000000000000000000000000000000815260206004820152601160248201527f524c50206974656d206f766572666c6f77000000000000000000000000000000604482015290519081900360640190fd5b60405180604001604052808281526020018381525093505050505b92915050565b805160009015801590610bab57508151602110155b610c1657604080517f08c379a000000000000000000000000000000000000000000000000000000000815260206004820181905260248201527f524c504465636f64657220746f55696e7420696e76616c6964206c656e677468604482015290519081900360640190fd5b6000610c258360200151611260565b90508083600001511015610c84576040517f08c379a0000000000000000000000000000000000000000000000000000000008152600401808060200182810382526028815260200180611f6a6028913960400191505060405180910390fd5b825160208085015183018051928490039291831015610caa57826020036101000a820491505b50949350505050565b610cbb6115f6565b6000610cca8360200151611260565b60208401518451908201805192935060009290921a91908015801590610cf3575060c060ff8416105b15610d2257600191909101907fffffffffffffffffffffffffffffffffffffffffffffffffffffffffffffffff015b604080518082019091529081526020810191909152949350505050565b610d4761162a565b610d50826111ce565b610dbb57604080517f08c379a000000000000000000000000000000000000000000000000000000000815260206004820152601f60248201527f524c504465636f646572206974657261746f72206973206e6f74206c69737400604482015290519081900360640190fd5b6000610dca8360200151611260565b60208085015160408051808201909152868152920190820152915050919050565b610df36115f6565b610dfc826113d4565b610e6757604080517f08c379a000000000000000000000000000000000000000000000000000000000815260206004820152601f60248201527f524c504465636f646572206974657261746f7220686173206e6f206e65787400604482015290519081900360640190fd5b60208201516000610e77826112ff565b80830160209586015260408051808201909152908152938401919091525090919050565b8051606090610ef5576040517f08c379a0000000000000000000000000000000000000000000000000000000008152600401808060200182810382526021815260200180611fb36021913960400191505060405180910390fd5b6000610f048360200151611260565b90508083600001511015610f63576040517f08c379a0000000000000000000000000000000000000000000000000000000008152600401808060200182810382526028815260200180611f6a6028913960400191505060405180910390fd5b825181900360008167ffffffffffffffff81118015610f8157600080fd5b506040519080825280601f01601f191660200182016040528015610fac576020820181803683370190505b5090506000816020019050610caa8487602001510182856113e9565b610fd0611610565b6020820615610fe55760208206602003820191505b506020828101829052604080518085526000815290920101905290565b61100a611610565b85602001518286011115611034576110348661102c8860200151888601611470565b600202611487565b6000808751805188602083010193508089870111156110535788860182525b5050508484015b6020841061109757805182527fffffffffffffffffffffffffffffffffffffffffffffffffffffffffffffffe0909301926020918201910161105a565b5181517fffffffffffffffffffffffffffffffffffffffffffffffffffffffffffffffff60208690036101000a01908116901991909116179052508495945050505050565b60008282018381101561115057604080517f08c379a000000000000000000000000000000000000000000000000000000000815260206004820152601b60248201527f536166654d6174683a206164646974696f6e206f766572666c6f770000000000604482015290519081900360640190fd5b9392505050565b6000828211156111c857604080517f08c379a000000000000000000000000000000000000000000000000000000000815260206004820152601e60248201527f536166654d6174683a207375627472616374696f6e206f766572666c6f770000604482015290519081900360640190fd5b50900390565b80516000906111df57506000610224565b6020820151805160001a9060c08210156111fe57600092505050610224565b5060019392505050565b805160009061121957506000610224565b6000806112298460200151611260565b602085015185519181019250015b8082101561125757611248826112ff565b60019093019290910190611237565b50909392505050565b8051600090811a608081101561127a576000915050610224565b60b8811080611295575060c08110801590611295575060f881105b156112a4576001915050610224565b60c08110156112d6577fffffffffffffffffffffffffffffffffffffffffffffffffffffffffffffff4a019050610224565b7fffffffffffffffffffffffffffffffffffffffffffffffffffffffffffffff0a019050610224565b80516000908190811a608081101561131a57600191506113cd565b60b881101561134d577fffffffffffffffffffffffffffffffffffffffffffffffffffffffffffffff81810191506113cd565b60c081101561137a5760b78103600185019450806020036101000a855104600182018101935050506113cd565b60f88110156113ad577fffffffffffffffffffffffffffffffffffffffffffffffffffffffffffffff41810191506113cd565b60f78103600185019450806020036101000a855104600182018101935050505b5092915050565b80518051602091820151919092015191011190565b806113f35761146b565b5b602081106114315782518252602092830192909101907fffffffffffffffffffffffffffffffffffffffffffffffffffffffffffffffe0016113f4565b8251825160208390036101000a7fffffffffffffffffffffffffffffffffffffffffffffffffffffffffffffffff01801990921691161782525b505050565b600081831115611481575081610b90565b50919050565b81516114938383610fc8565b5061149e83826114a4565b50505050565b6114ac611610565b611150838460000151518485516114c1611610565b82518211156114cf57600080fd5b846020015182850111156114f1576114f18561102c8760200151878601611470565b6000808651805187602083010193508088870111156115105787860182525b505050602084015b6020841061155557805182527fffffffffffffffffffffffffffffffffffffffffffffffffffffffffffffffe09093019260209182019101611518565b5181517fffffffffffffffffffffffffffffffffffffffffffffffffffffffffffffffff60208690036101000a019081169019919091161790525083949350505050565b6040805160608082018352600080835260208301529181019190915290565b6040805160e08101825260008082526020820181905291810182905260608082018390526080820181905260a082019290925260c081019190915290565b604051806040016040528060008152602001600081525090565b604051806040016040528060608152602001600081525090565b604051806040016040528061163d6115f6565b8152602001600081525090565b600082601f83011261165a578081fd5b8135602061166f61166a83611edf565b611ebb565b82815281810190858301855b858110156116a457611692898684358b010161170b565b8452928401929084019060010161167b565b5090979650505050505050565b600082601f8301126116c1578081fd5b813560206116d161166a83611edf565b82815281810190858301838502870184018810156116ed578586fd5b855b858110156116a4578135845292840192908401906001016116ef565b600082601f83011261171b578081fd5b813561172961166a82611efd565b81815284602083860101111561173d578283fd5b816020850160208301379081016020019190915292915050565b600082601f830112611767578081fd5b815161177561166a82611efd565b818152846020838601011115611789578283fd5b610200826020830160208701611f3d565b6000604082840312156117ab578081fd5b6040516040810181811067ffffffffffffffff821117156117c857fe5b604052825181526020928301519281019290925250919050565b600060c082840312156117f3578081fd5b60405160c0810181811067ffffffffffffffff8211171561181057fe5b8060405250809150825181526020830151602082015260408301516040820152606083015160608201526080830151608082015260a083015160a08201525092915050565b600080600060608486031215611869578283fd5b833567ffffffffffffffff80821115611880578485fd5b61188c8783880161164a565b945060208601359150808211156118a1578384fd5b506118ae868287016116b1565b925050604084013590509250925092565b600080600080608085870312156118d4578081fd5b84359350602085013567ffffffffffffffff808211156118f2578283fd5b6118fe888389016116b1565b945060408701359350606087013591508082111561191a578283fd5b506119278782880161164a565b91505092959194509250565b60008060008060608587031215611948578384fd5b84359350602085013567ffffffffffffffff80821115611966578485fd5b818701915087601f830112611979578485fd5b813581811115611987578586fd5b886020828501011115611998578586fd5b95986020929092019750949560400135945092505050565b6000602082840312156119c1578081fd5b813567ffffffffffffffff8111156119d7578182fd5b6102008482850161170b565b600080604083850312156119f5578182fd5b825167ffffffffffffffff811115611a0b578283fd5b611a1785828601611757565b925050602083015190509250929050565b600080600060608486031215611a3c578283fd5b833567ffffffffffffffff811115611a52578384fd5b611a5e8682870161170b565b9660208601359650604090950135949350505050565b6000806000806000806000806101c0898b031215611a90578586fd5b885160ff81168114611aa0578687fd5b80985050602089015196506040890151955060608901519450611ac68a60808b0161179a565b9350611ad58a60c08b016117e2565b925061018089015167ffffffffffffffff80821115611af2578384fd5b611afe8c838d01611757565b93506101a08b0151915080821115611b14578283fd5b50611b218b828c01611757565b9150509295985092959890939650565b73ffffffffffffffffffffffffffffffffffffffff169052565b60008151808452611b63816020860160208601611f3d565b601f017fffffffffffffffffffffffffffffffffffffffffffffffffffffffffffffffe0169290920160200192915050565b60609190911b7fffffffffffffffffffffffffffffffffffffffff00000000000000000000000016815260140190565b73ffffffffffffffffffffffffffffffffffffffff91909116815260200190565b90815260200190565b6000602082526111506020830184611b4b565b600060408252611c156040830185611b4b565b90508260208301529392505050565b6020808252601c908201527f50726f6f664c69623a20696e76616c69642070726f6f662073697a6500000000604082015260600190565b6020808252601a908201527f50726f6f664c69623a20696e76616c696420686173686c696e6b000000000000604082015260600190565b6020808252601f908201527f50726f6f664c69623a207061636b6574206e6f74207265636f676e697a656400604082015260600190565b6020808252601d908201527f50726f6f664c69623a2070726f6f662073697a65206d757374203e2030000000604082015260600190565b6020808252601e908201527f50726f6f664c69623a20696e76616c696420616464726573732073697a650000604082015260600190565b60006020825261ffff8084511660208401528060208501511660408401525067ffffffffffffffff60408401511660608301526060830151611d7c6080840182611b31565b50608083015160e060a0840152611d97610100840182611b4b565b905060a084015160c084015260c08401517fffffffffffffffffffffffffffffffffffffffffffffffffffffffffffffffe08483030160e08501526101e48282611b4b565b600060208252825160208301526020830151604083015260408301516060808401526102006080840182611b4b565b60ff91909116815260200190565b60006101c060ff8b16835289602084015288604084015287606084015286516080840152602087015160a0840152855160c0840152602086015160e084015260408601516101008401526060860151610120840152608086015161014084015260a086015161016084015280610180840152611e9781840186611b4b565b90508281036101a0840152611eac8185611b4b565b9b9a5050505050505050505050565b60405181810167ffffffffffffffff81118282101715611ed757fe5b604052919050565b600067ffffffffffffffff821115611ef357fe5b5060209081020190565b600067ffffffffffffffff821115611f1157fe5b50601f017fffffffffffffffffffffffffffffffffffffffffffffffffffffffffffffffe01660200190565b60005b83811015611f58578181015183820152602001611f40565b8381111561149e575050600091015256fe524c504465636f6465723a20696e76616c696420524c50206974656d206f66667365742073697a65524c504465636f646572206974657261746f72206973206e6f742061206c697374524c504465636f64657220746f427974657320696e76616c6964206c656e677468a264697066735822122062c9f8cfb565072d7e8964a34b5c55b13a7c7b71eedfc29503ea7970efb33db864736f6c63430007060033",
  "devdoc": {
    "kind": "dev",
    "methods": {},
    "version": 1
  },
  "userdoc": {
    "kind": "user",
    "methods": {},
    "version": 1
  },
  "storageLayout": {
    "storage": [
      {
        "astId": 17007,
        "contract": "contracts/proof/MPTValidator01.sol:MPTValidator01",
        "label": "proofType",
        "offset": 0,
        "slot": "0",
        "type": "t_uint8"
      },
      {
        "astId": 17010,
        "contract": "contracts/proof/MPTValidator01.sol:MPTValidator01",
        "label": "utilsVersion",
        "offset": 1,
        "slot": "0",
        "type": "t_uint8"
      }
    ],
    "types": {
      "t_uint8": {
        "encoding": "inplace",
        "label": "uint8",
        "numberOfBytes": "1"
      }
    }
  }
}