{
  "address": "0x282b3386571f7f794450d5789911a9804FA346b4",
  "abi": [
    {
      "inputs": [
        {
          "internalType": "address",
          "name": "addr",
          "type": "address"
        }
      ],
      "name": "isAddressContract",
      "outputs": [
        {
          "internalType": "bool",
          "name": "",
          "type": "bool"
        }
      ],
      "stateMutability": "view",
      "type": "function"
    }
  ],
  "transactionHash": "0x9962ebe97a46d8982f789855885e52bd0c3971ec47eea8f903dc0fac2e4ee0e6",
  "args": [],
  "numDeployments": 1,
  "solcInputHash": "fe90632293977325bd00121ea031c3fc",
  "bytecode": "0x608060405234801561001057600080fd5b5060ad8061001f6000396000f3fe6080604052348015600f57600080fd5b506004361060285760003560e01c8063b5f9dc9114602d575b600080fd5b605d60048036036020811015604157600080fd5b503573ffffffffffffffffffffffffffffffffffffffff166071565b604080519115158252519081900360200190f35b3b15159056fea2646970667358221220363832ae3e22852496343e3e812f3ee0e4710ce157a54331a13cc230e1e6bed364736f6c63430007060033",
  "devdoc": {
    "kind": "dev",
    "methods": {},
    "version": 1
  },
  "userdoc": {
    "kind": "user",
    "methods": {},
    "version": 1
  },
  "storageLayout": {
    "storage": [],
    "types": null
  }
}