{
  "_format": "hh-sol-artifact-1",
  "contractName": "Relayer",
  "sourceName": "contracts/Relayer.sol",
  "abi": [
    {
      "anonymous": false,
      "inputs": [
        {
          "indexed": false,
          "internalType": "address",
          "name": "addr",
          "type": "address"
        },
        {
          "indexed": false,
          "internalType": "bool",
          "name": "approved",
          "type": "bool"
        }
      ],
      "name": "ApproveAddress",
      "type": "event"
    },
    {
      "anonymous": false,
      "inputs": [
        {
          "indexed": false,
          "internalType": "uint16",
          "name": "dstChainId",
          "type": "uint16"
        },
        {
          "indexed": false,
          "internalType": "uint16",
          "name": "outboundProofType",
          "type": "uint16"
        },
        {
          "indexed": false,
          "internalType": "address",
          "name": "userApplication",
          "type": "address"
        },
        {
          "indexed": false,
          "internalType": "uint256",
          "name": "totalFee",
          "type": "uint256"
        }
      ],
      "name": "AssignJob",
      "type": "event"
    },
    {
      "anonymous": false,
      "inputs": [
        {
          "indexed": true,
          "internalType": "uint256",
          "name": "payloadSize",
          "type": "uint256"
        }
      ],
      "name": "InvalidPayloadSize",
      "type": "event"
    },
    {
      "anonymous": false,
      "inputs": [
        {
          "indexed": true,
          "internalType": "address",
          "name": "previousOwner",
          "type": "address"
        },
        {
          "indexed": true,
          "internalType": "address",
          "name": "newOwner",
          "type": "address"
        }
      ],
      "name": "OwnershipTransferred",
      "type": "event"
    },
    {
      "anonymous": false,
      "inputs": [
        {
          "indexed": false,
          "internalType": "address",
          "name": "ulnv2",
          "type": "address"
        }
      ],
      "name": "Ulnv2Set",
      "type": "event"
    },
    {
      "anonymous": false,
      "inputs": [
        {
          "indexed": true,
          "internalType": "address",
          "name": "to",
          "type": "address"
        },
        {
          "indexed": true,
          "internalType": "uint256",
          "name": "quantity",
          "type": "uint256"
        }
      ],
      "name": "ValueTransferFailed",
      "type": "event"
    },
    {
      "anonymous": false,
      "inputs": [
        {
          "indexed": false,
          "internalType": "address",
          "name": "to",
          "type": "address"
        },
        {
          "indexed": false,
          "internalType": "uint256",
          "name": "amount",
          "type": "uint256"
        }
      ],
      "name": "Withdraw",
      "type": "event"
    },
    {
      "anonymous": false,
      "inputs": [
        {
          "indexed": false,
          "internalType": "address",
          "name": "token",
          "type": "address"
        },
        {
          "indexed": false,
          "internalType": "address",
          "name": "to",
          "type": "address"
        },
        {
          "indexed": false,
          "internalType": "uint256",
          "name": "amount",
          "type": "uint256"
        }
      ],
      "name": "WithdrawTokens",
      "type": "event"
    },
    {
      "inputs": [
        {
          "internalType": "address",
          "name": "",
          "type": "address"
        }
      ],
      "name": "approvedAddresses",
      "outputs": [
        {
          "internalType": "bool",
          "name": "",
          "type": "bool"
        }
      ],
      "stateMutability": "view",
      "type": "function"
    },
    {
      "inputs": [
        {
          "internalType": "uint16",
          "name": "",
          "type": "uint16"
        },
        {
          "internalType": "uint16",
          "name": "",
          "type": "uint16"
        }
      ],
      "name": "dstConfigLookup",
      "outputs": [
        {
          "internalType": "uint128",
          "name": "dstNativeAmtCap",
          "type": "uint128"
        },
        {
          "internalType": "uint64",
          "name": "baseGas",
          "type": "uint64"
        },
        {
          "internalType": "uint64",
          "name": "gasPerByte",
          "type": "uint64"
        }
      ],
      "stateMutability": "view",
      "type": "function"
    },
    {
      "inputs": [
        {
          "internalType": "uint16",
          "name": "",
          "type": "uint16"
        }
      ],
      "name": "dstPriceLookup",
      "outputs": [
        {
          "internalType": "uint128",
          "name": "dstPriceRatio",
          "type": "uint128"
        },
        {
          "internalType": "uint128",
          "name": "dstGasPriceInWei",
          "type": "uint128"
        }
      ],
      "stateMutability": "view",
      "type": "function"
    },
    {
      "inputs": [
        {
          "internalType": "uint16",
          "name": "_dstChainId",
          "type": "uint16"
        },
        {
          "internalType": "uint16",
          "name": "_outboundProofType",
          "type": "uint16"
        },
        {
          "internalType": "address",
          "name": "_userApplication",
          "type": "address"
        },
        {
          "internalType": "uint256",
          "name": "payloadSize",
          "type": "uint256"
        },
        {
          "internalType": "bytes",
          "name": "_adapterParams",
          "type": "bytes"
        }
      ],
      "name": "getPrice",
      "outputs": [
        {
          "internalType": "uint256",
          "name": "",
          "type": "uint256"
        }
      ],
      "stateMutability": "view",
      "type": "function"
    },
    {
      "inputs": [
        {
          "internalType": "address",
          "name": "_uln",
          "type": "address"
        }
      ],
      "name": "initialize",
      "outputs": [],
      "stateMutability": "nonpayable",
      "type": "function"
    },
    {
      "inputs": [
        {
          "internalType": "address",
          "name": "_relayerAddress",
          "type": "address"
        }
      ],
      "name": "isApproved",
      "outputs": [
        {
          "internalType": "bool",
          "name": "",
          "type": "bool"
        }
      ],
      "stateMutability": "view",
      "type": "function"
    },
    {
      "inputs": [
        {
          "internalType": "uint16",
          "name": "_dstChainId",
          "type": "uint16"
        },
        {
          "internalType": "uint16",
          "name": "_outboundProofType",
          "type": "uint16"
        },
        {
          "internalType": "bytes",
          "name": "_adapterParams",
          "type": "bytes"
        }
      ],
      "name": "notifyRelayer",
      "outputs": [],
      "stateMutability": "nonpayable",
      "type": "function"
    },
    {
      "inputs": [],
      "name": "owner",
      "outputs": [
        {
          "internalType": "address",
          "name": "",
          "type": "address"
        }
      ],
      "stateMutability": "view",
      "type": "function"
    },
    {
      "inputs": [],
      "name": "paused",
      "outputs": [
        {
          "internalType": "bool",
          "name": "",
          "type": "bool"
        }
      ],
      "stateMutability": "view",
      "type": "function"
    },
    {
      "inputs": [],
      "name": "renounceOwnership",
      "outputs": [],
      "stateMutability": "nonpayable",
      "type": "function"
    },
    {
      "inputs": [
        {
          "internalType": "address",
          "name": "_relayerAddress",
          "type": "address"
        },
        {
          "internalType": "bool",
          "name": "_approve",
          "type": "bool"
        }
      ],
      "name": "setApprovedAddress",
      "outputs": [],
      "stateMutability": "nonpayable",
      "type": "function"
    },
    {
      "inputs": [
        {
          "internalType": "uint16",
          "name": "_chainId",
          "type": "uint16"
        },
        {
          "internalType": "uint16",
          "name": "_outboundProofType",
          "type": "uint16"
        },
        {
          "internalType": "uint128",
          "name": "_dstNativeAmtCap",
          "type": "uint128"
        },
        {
          "internalType": "uint64",
          "name": "_baseGas",
          "type": "uint64"
        },
        {
          "internalType": "uint64",
          "name": "_gasPerByte",
          "type": "uint64"
        }
      ],
      "name": "setDstConfig",
      "outputs": [],
      "stateMutability": "nonpayable",
      "type": "function"
    },
    {
      "inputs": [
        {
          "internalType": "uint16",
          "name": "_chainId",
          "type": "uint16"
        },
        {
          "internalType": "uint128",
          "name": "_dstPriceRatio",
          "type": "uint128"
        },
        {
          "internalType": "uint128",
          "name": "_dstGasPriceInWei",
          "type": "uint128"
        }
      ],
      "name": "setDstPrice",
      "outputs": [],
      "stateMutability": "nonpayable",
      "type": "function"
    },
    {
      "inputs": [
        {
          "internalType": "bool",
          "name": "_paused",
          "type": "bool"
        }
      ],
      "name": "setPause",
      "outputs": [],
      "stateMutability": "nonpayable",
      "type": "function"
    },
    {
      "inputs": [],
      "name": "stargateBridgeAddress",
      "outputs": [
        {
          "internalType": "address",
          "name": "",
          "type": "address"
        }
      ],
      "stateMutability": "view",
      "type": "function"
    },
    {
      "inputs": [
        {
          "internalType": "address",
          "name": "newOwner",
          "type": "address"
        }
      ],
      "name": "transferOwnership",
      "outputs": [],
      "stateMutability": "nonpayable",
      "type": "function"
    },
    {
      "inputs": [],
      "name": "uln",
      "outputs": [
        {
          "internalType": "contract ILayerZeroUltraLightNodeV1",
          "name": "",
          "type": "address"
        }
      ],
      "stateMutability": "view",
      "type": "function"
    },
    {
      "inputs": [
        {
          "internalType": "uint16",
          "name": "_srcChainId",
          "type": "uint16"
        },
        {
          "internalType": "address",
          "name": "_dstAddress",
          "type": "address"
        },
        {
          "internalType": "uint256",
          "name": "_gasLimit",
          "type": "uint256"
        },
        {
          "internalType": "bytes32",
          "name": "_blockHash",
          "type": "bytes32"
        },
        {
          "internalType": "bytes",
          "name": "_transactionProof",
          "type": "bytes"
        }
      ],
      "name": "validateTransactionProofV1",
      "outputs": [],
      "stateMutability": "nonpayable",
      "type": "function"
    },
    {
      "inputs": [
        {
          "internalType": "uint16",
          "name": "_srcChainId",
          "type": "uint16"
        },
        {
          "internalType": "address",
          "name": "_dstAddress",
          "type": "address"
        },
        {
          "internalType": "uint256",
          "name": "_gasLimit",
          "type": "uint256"
        },
        {
          "internalType": "bytes32",
          "name": "_blockHash",
          "type": "bytes32"
        },
        {
          "internalType": "bytes",
          "name": "_transactionProof",
          "type": "bytes"
        },
        {
          "internalType": "address payable",
          "name": "_to",
          "type": "address"
        }
      ],
      "name": "validateTransactionProofV2",
      "outputs": [],
      "stateMutability": "payable",
      "type": "function"
    },
    {
      "inputs": [
        {
          "internalType": "address payable",
          "name": "_to",
          "type": "address"
        },
        {
          "internalType": "uint256",
          "name": "_amount",
          "type": "uint256"
        }
      ],
      "name": "withdrawQuotedFromULN",
      "outputs": [],
      "stateMutability": "nonpayable",
      "type": "function"
    }
  ],
  "bytecode": "0x608060405234801561001057600080fd5b50600160005561202c806100256000396000f3fe60806040526004361061015f5760003560e01c80638da5cb5b116100c0578063e54a221511610074578063f136a87411610059578063f136a874146106e2578063f2fde38b14610722578063fdf69784146107625761015f565b8063e54a2215146105d7578063ea4fa6bf1461069c5761015f565b8063b8f8bad4116100a5578063b8f8bad41461051d578063bedb86fb1461056b578063c4d66de8146105975761015f565b80638da5cb5b14610459578063ac16d6ac1461046e5761015f565b80636348d269116101175780636c473aff116100fc5780636c473aff146103c0578063715018a6146103d5578063765a8a54146103ea5761015f565b80636348d26914610342578063673448dd146103805761015f565b80633f103487116101485780633f10348714610269578063575765e2146102d15780635c975abb146103195761015f565b806323161ff8146101645780633a5fb82a146101d6575b600080fd5b34801561017057600080fd5b5061019a6004803603604081101561018757600080fd5b5061ffff8135811691602001351661081a565b604080516fffffffffffffffffffffffffffffffff909416845267ffffffffffffffff9283166020850152911682820152519081900360600190f35b3480156101e257600080fd5b50610267600480360360608110156101f957600080fd5b61ffff823581169260208101359091169181019060608101604082013564010000000081111561022857600080fd5b82018360208201111561023a57600080fd5b8035906020019184600183028401116401000000008311171561025c57600080fd5b509092509050610888565b005b34801561027557600080fd5b50610267600480360360a081101561028c57600080fd5b5061ffff81358116916020810135909116906fffffffffffffffffffffffffffffffff6040820135169067ffffffffffffffff6060820135811691608001351661088e565b3480156102dd57600080fd5b50610267600480360360408110156102f457600080fd5b5073ffffffffffffffffffffffffffffffffffffffff81351690602001351515610a16565b34801561032557600080fd5b5061032e610b33565b604080519115158252519081900360200190f35b34801561034e57600080fd5b50610357610b54565b6040805173ffffffffffffffffffffffffffffffffffffffff9092168252519081900360200190f35b34801561038c57600080fd5b5061032e600480360360208110156103a357600080fd5b503573ffffffffffffffffffffffffffffffffffffffff16610b70565b3480156103cc57600080fd5b50610357610b9b565b3480156103e157600080fd5b50610267610bb7565b3480156103f657600080fd5b506104186004803603602081101561040d57600080fd5b503561ffff16610cb4565b60405180836fffffffffffffffffffffffffffffffff168152602001826fffffffffffffffffffffffffffffffff1681526020019250505060405180910390f35b34801561046557600080fd5b50610357610cf0565b34801561047a57600080fd5b50610267600480360360a081101561049157600080fd5b61ffff8235169173ffffffffffffffffffffffffffffffffffffffff6020820135169160408201359160608101359181019060a0810160808201356401000000008111156104de57600080fd5b8201836020820111156104f057600080fd5b8035906020019184600183028401116401000000008311171561051257600080fd5b509092509050610d0c565b34801561052957600080fd5b506102676004803603606081101561054057600080fd5b5061ffff813516906fffffffffffffffffffffffffffffffff60208201358116916040013516610ed4565b34801561057757600080fd5b506102676004803603602081101561058e57600080fd5b50351515610fde565b3480156105a357600080fd5b50610267600480360360208110156105ba57600080fd5b503573ffffffffffffffffffffffffffffffffffffffff166110b6565b3480156105e357600080fd5b5061068a600480360360a08110156105fa57600080fd5b61ffff823581169260208101359091169173ffffffffffffffffffffffffffffffffffffffff6040830135169160608101359181019060a08101608082013564010000000081111561064b57600080fd5b82018360208201111561065d57600080fd5b8035906020019184600183028401116401000000008311171561067f57600080fd5b50909250905061124f565b60408051918252519081900360200190f35b3480156106a857600080fd5b50610267600480360360408110156106bf57600080fd5b5073ffffffffffffffffffffffffffffffffffffffff81351690602001356112bc565b3480156106ee57600080fd5b5061032e6004803603602081101561070557600080fd5b503573ffffffffffffffffffffffffffffffffffffffff166113dc565b34801561072e57600080fd5b506102676004803603602081101561074557600080fd5b503573ffffffffffffffffffffffffffffffffffffffff166113f1565b610267600480360360c081101561077857600080fd5b61ffff8235169173ffffffffffffffffffffffffffffffffffffffff6020820135169160408201359160608101359181019060a0810160808201356401000000008111156107c557600080fd5b8201836020820111156107d757600080fd5b803590602001918460018302840111640100000000831117156107f957600080fd5b91935091503573ffffffffffffffffffffffffffffffffffffffff1661155f565b60686020908152600092835260408084209091529082529020546fffffffffffffffffffffffffffffffff81169067ffffffffffffffff7001000000000000000000000000000000008204811691780100000000000000000000000000000000000000000000000090041683565b50505050565b33610897610cf0565b73ffffffffffffffffffffffffffffffffffffffff161461090c576108bb33610b70565b61090c576040805162461bcd60e51b815260206004820152601660248201527f52656c617965723a206e6f7420617070726f7665642000000000000000000000604482015290519081900360640190fd5b604080516060810182526fffffffffffffffffffffffffffffffff948516815267ffffffffffffffff938416602080830191825293851682840190815261ffff98891660009081526068865284812098909916895296909352952094518554915194517fffffffffffffffffffffffffffffffff000000000000000000000000000000009092169316929092177fffffffffffffffff0000000000000000ffffffffffffffffffffffffffffffff16700100000000000000000000000000000000938216939093029290921777ffffffffffffffffffffffffffffffffffffffffffffffff1678010000000000000000000000000000000000000000000000009190921602179055565b610a1e6117d2565b73ffffffffffffffffffffffffffffffffffffffff16610a3c610cf0565b73ffffffffffffffffffffffffffffffffffffffff1614610aa4576040805162461bcd60e51b815260206004820181905260248201527f4f776e61626c653a2063616c6c6572206973206e6f7420746865206f776e6572604482015290519081900360640190fd5b73ffffffffffffffffffffffffffffffffffffffff821660008181526069602090815260409182902080547fffffffffffffffffffffffffffffffffffffffffffffffffffffffffffffff001685151590811790915582519384529083015280517fb10786d0bfa68fb1aa29552d9203e5f545f7c073ff0784da1de1d800986f10239281900390910190a15050565b606a5474010000000000000000000000000000000000000000900460ff1681565b606a5473ffffffffffffffffffffffffffffffffffffffff1681565b73ffffffffffffffffffffffffffffffffffffffff1660009081526069602052604090205460ff1690565b60665473ffffffffffffffffffffffffffffffffffffffff1681565b610bbf6117d2565b73ffffffffffffffffffffffffffffffffffffffff16610bdd610cf0565b73ffffffffffffffffffffffffffffffffffffffff1614610c45576040805162461bcd60e51b815260206004820181905260248201527f4f776e61626c653a2063616c6c6572206973206e6f7420746865206f776e6572604482015290519081900360640190fd5b60345460405160009173ffffffffffffffffffffffffffffffffffffffff16907f8be0079c531659141344cd1fd0a4f28419497f9722a3daafe3b4186f6b6457e0908390a3603480547fffffffffffffffffffffffff0000000000000000000000000000000000000000169055565b6067602052600090815260409020546fffffffffffffffffffffffffffffffff8082169170010000000000000000000000000000000090041682565b60345473ffffffffffffffffffffffffffffffffffffffff1690565b33610d15610cf0565b73ffffffffffffffffffffffffffffffffffffffff1614610d8a57610d3933610b70565b610d8a576040805162461bcd60e51b815260206004820152601660248201527f52656c617965723a206e6f7420617070726f7665642000000000000000000000604482015290519081900360640190fd5b60026000541415610de2576040805162461bcd60e51b815260206004820152601f60248201527f5265656e7472616e637947756172643a207265656e7472616e742063616c6c00604482015290519081900360640190fd5b60026000556066546040517f5c01153100000000000000000000000000000000000000000000000000000000815261ffff88166004820190815273ffffffffffffffffffffffffffffffffffffffff8881166024840152604483018890526064830187905260a06084840190815260a48401869052931692635c011531928a928a928a928a928a928a9260c401848480828437600081840152601f19601f820116905080830192505050975050505050505050600060405180830381600087803b158015610eaf57600080fd5b505af1158015610ec3573d6000803e3d6000fd5b505060016000555050505050505050565b33610edd610cf0565b73ffffffffffffffffffffffffffffffffffffffff1614610f5257610f0133610b70565b610f52576040805162461bcd60e51b815260206004820152601660248201527f52656c617965723a206e6f7420617070726f7665642000000000000000000000604482015290519081900360640190fd5b6040805180820182526fffffffffffffffffffffffffffffffff9384168152918316602080840191825261ffff959095166000908152606790955293209051815493517fffffffffffffffffffffffffffffffff000000000000000000000000000000009094169083161782167001000000000000000000000000000000009390921692909202179055565b610fe66117d2565b73ffffffffffffffffffffffffffffffffffffffff16611004610cf0565b73ffffffffffffffffffffffffffffffffffffffff161461106c576040805162461bcd60e51b815260206004820181905260248201527f4f776e61626c653a2063616c6c6572206973206e6f7420746865206f776e6572604482015290519081900360640190fd5b606a805491151574010000000000000000000000000000000000000000027fffffffffffffffffffffff00ffffffffffffffffffffffffffffffffffffffff909216919091179055565b60006110c06117d6565b905073ffffffffffffffffffffffffffffffffffffffff81166111195773ffffffffffffffffffffffffffffffffffffffff7fb53127684a568b3173ae13b9f8a6016e243e63b6e8ee1178d6a717850b5d61035561113b565b3373ffffffffffffffffffffffffffffffffffffffff82161461113b57600080fd5b600154610100900460ff168061115457506111546117fb565b80611162575060015460ff16155b61119d5760405162461bcd60e51b815260040180806020018281038252602e815260200180611fa8602e913960400191505060405180910390fd5b600154610100900460ff161580156111e557600180547fffffffffffffffffffffffffffffffffffffffffffffffffffffffffffffff0061ff00199091166101001716811790555b6111ed61180c565b606680547fffffffffffffffffffffffff00000000000000000000000000000000000000001673ffffffffffffffffffffffffffffffffffffffff8516179055611238306001610a16565b801561124a576001805461ff00191690555b505050565b600080600061129689898988888080601f0160208091040260200160405190810160405280939291908181526020018383808284376000920191909152506118db92505050565b90925090506112af6112a88783611c3a565b8390611c9c565b9998505050505050505050565b336112c5610cf0565b73ffffffffffffffffffffffffffffffffffffffff161461133a576112e933610b70565b61133a576040805162461bcd60e51b815260206004820152601660248201527f52656c617965723a206e6f7420617070726f7665642000000000000000000000604482015290519081900360640190fd5b606654604080517f22c107760000000000000000000000000000000000000000000000000000000081526002600482015260006024820181905273ffffffffffffffffffffffffffffffffffffffff868116604484015260648301869052925192909316926322c107769260848084019382900301818387803b1580156113c057600080fd5b505af11580156113d4573d6000803e3d6000fd5b505050505050565b60696020526000908152604090205460ff1681565b6113f96117d2565b73ffffffffffffffffffffffffffffffffffffffff16611417610cf0565b73ffffffffffffffffffffffffffffffffffffffff161461147f576040805162461bcd60e51b815260206004820181905260248201527f4f776e61626c653a2063616c6c6572206973206e6f7420746865206f776e6572604482015290519081900360640190fd5b73ffffffffffffffffffffffffffffffffffffffff81166114d15760405162461bcd60e51b8152600401808060200182810382526026815260200180611f826026913960400191505060405180910390fd5b60345460405173ffffffffffffffffffffffffffffffffffffffff8084169216907f8be0079c531659141344cd1fd0a4f28419497f9722a3daafe3b4186f6b6457e090600090a3603480547fffffffffffffffffffffffff00000000000000000000000000000000000000001673ffffffffffffffffffffffffffffffffffffffff92909216919091179055565b33611568610cf0565b73ffffffffffffffffffffffffffffffffffffffff16146115dd5761158c33610b70565b6115dd576040805162461bcd60e51b815260206004820152601660248201527f52656c617965723a206e6f7420617070726f7665642000000000000000000000604482015290519081900360640190fd5b60026000541415611635576040805162461bcd60e51b815260206004820152601f60248201527f5265656e7472616e637947756172643a207265656e7472616e742063616c6c00604482015290519081900360640190fd5b6002600090815560405173ffffffffffffffffffffffffffffffffffffffff83169034908381818185875af1925050503d8060008114611691576040519150601f19603f3d011682016040523d82523d6000602084013e611696565b606091505b50509050806116e357604051349073ffffffffffffffffffffffffffffffffffffffff8416907f2c7a964ca3de5ec1d42d9822f9bbd0eb142a59cc9f855e9d93813b773192c7a390600090a35b6066546040517f5c01153100000000000000000000000000000000000000000000000000000000815261ffff8a166004820190815273ffffffffffffffffffffffffffffffffffffffff8a81166024840152604483018a90526064830189905260a06084840190815260a48401889052931692635c011531928c928c928c928c928c928c9260c401848480828437600081840152601f19601f820116905080830192505050975050505050505050600060405180830381600087803b1580156117ab57600080fd5b505af11580156117bf573d6000803e3d6000fd5b5050600160005550505050505050505050565b3390565b7fb53127684a568b3173ae13b9f8a6016e243e63b6e8ee1178d6a717850b5d61035490565b600061180630611cf6565b15905090565b600154610100900460ff168061182557506118256117fb565b80611833575060015460ff16155b61186e5760405162461bcd60e51b815260040180806020018281038252602e815260200180611fa8602e913960400191505060405180910390fd5b600154610100900460ff161580156118b657600180547fffffffffffffffffffffffffffffffffffffffffffffffffffffffffffffff0061ff00199091166101001716811790555b6118be611cfc565b6118c6611db9565b80156118d8576001805461ff00191690555b50565b606a54600090819074010000000000000000000000000000000000000000900460ff1615611950576040805162461bcd60e51b815260206004820152600d60248201527f41646d696e3a2070617573656400000000000000000000000000000000000000604482015290519081900360640190fd5b825160221480611961575060428351115b61199c5760405162461bcd60e51b8152600401808060200182810382526026815260200180611f5c6026913960400191505060405180910390fd5b60028301516022840151806119f8576040805162461bcd60e51b815260206004820152601460248201527f52656c617965723a2067617320746f6f206c6f77000000000000000000000000604482015290519081900360640190fd5b8161ffff1660011480611a0f57508161ffff166002145b611a60576040805162461bcd60e51b815260206004820152601b60248201527f52656c617965723a20756e737570706f72746564207478547970650000000000604482015290519081900360640190fd5b61ffff8881166000908152606760209081526040808320606883528184208c8616855290925282209092909190851660021415611b1257604288015182546fffffffffffffffffffffffffffffffff16811115611b04576040805162461bcd60e51b815260206004820181905260248201527f52656c617965723a206473744e6174697665416d7420746f6f206c6172676520604482015290519081900360640190fd5b611b0e8282611c9c565b9150505b8154600090611b7190611b4390700100000000000000000000000000000000900467ffffffffffffffff1687611c9c565b855470010000000000000000000000000000000090046fffffffffffffffffffffffffffffffff1690611c3a565b9050611b7d8282611c9c565b8454909250611bb0906402540be40090611baa9085906fffffffffffffffffffffffffffffffff16611c3a565b90611ef4565b84548454919950611c29916402540be40091611baa916fffffffffffffffffffffffffffffffff80831692611c2392700100000000000000000000000000000000909104909116907801000000000000000000000000000000000000000000000000900467ffffffffffffffff16611c3a565b90611c3a565b965050505050505094509492505050565b600082611c4957506000611c96565b82820282848281611c5657fe5b0414611c935760405162461bcd60e51b8152600401808060200182810382526021815260200180611fd66021913960400191505060405180910390fd5b90505b92915050565b600082820183811015611c93576040805162461bcd60e51b815260206004820152601b60248201527f536166654d6174683a206164646974696f6e206f766572666c6f770000000000604482015290519081900360640190fd5b3b151590565b600154610100900460ff1680611d155750611d156117fb565b80611d23575060015460ff16155b611d5e5760405162461bcd60e51b815260040180806020018281038252602e815260200180611fa8602e913960400191505060405180910390fd5b600154610100900460ff161580156118c657600180547fffffffffffffffffffffffffffffffffffffffffffffffffffffffffffffff0061ff001990911661010017168117905580156118d8576001805461ff001916905550565b600154610100900460ff1680611dd25750611dd26117fb565b80611de0575060015460ff16155b611e1b5760405162461bcd60e51b815260040180806020018281038252602e815260200180611fa8602e913960400191505060405180910390fd5b600154610100900460ff16158015611e6357600180547fffffffffffffffffffffffffffffffffffffffffffffffffffffffffffffff0061ff00199091166101001716811790555b6000611e6d6117d2565b603480547fffffffffffffffffffffffff00000000000000000000000000000000000000001673ffffffffffffffffffffffffffffffffffffffff8316908117909155604051919250906000907f8be0079c531659141344cd1fd0a4f28419497f9722a3daafe3b4186f6b6457e0908290a35080156118d8576001805461ff001916905550565b6000808211611f4a576040805162461bcd60e51b815260206004820152601a60248201527f536166654d6174683a206469766973696f6e206279207a65726f000000000000604482015290519081900360640190fd5b818381611f5357fe5b04939250505056fe52656c617965723a2077726f6e67205f61646170746572506172616d65746572732073697a654f776e61626c653a206e6577206f776e657220697320746865207a65726f2061646472657373496e697469616c697a61626c653a20636f6e747261637420697320616c726561647920696e697469616c697a6564536166654d6174683a206d756c7469706c69636174696f6e206f766572666c6f77a264697066735822122010f4fc4d5cc13a09882c6598477622a98bad718de38e650af57f1eb493084f6964736f6c63430007060033",
  "linkReferences": {},
  "deployedLinkReferences": {}
}