{
  "address": "0x4e08B1F1AC79898569CfB999FB92B5495FB18A2B",
  "abi": [
    {
      "inputs": [
        {
          "internalType": "address",
          "name": "_endpoint",
          "type": "address"
        }
      ],
      "stateMutability": "nonpayable",
      "type": "constructor"
    },
    {
      "anonymous": false,
      "inputs": [
        {
          "indexed": true,
          "internalType": "address",
          "name": "previousOwner",
          "type": "address"
        },
        {
          "indexed": true,
          "internalType": "address",
          "name": "newOwner",
          "type": "address"
        }
      ],
      "name": "OwnershipTransferred",
      "type": "event"
    },
    {
      "stateMutability": "payable",
      "type": "fallback"
    },
    {
      "inputs": [
        {
          "internalType": "uint16",
          "name": "_dstChainId",
          "type": "uint16"
        },
        {
          "internalType": "bytes",
          "name": "_payload",
          "type": "bytes"
        },
        {
          "internalType": "address payable",
          "name": "_refundAddress",
          "type": "address"
        },
        {
          "internalType": "address",
          "name": "_zroPaymentAddress",
          "type": "address"
        },
        {
          "internalType": "bytes",
          "name": "_adapterParams",
          "type": "bytes"
        }
      ],
      "name": "_incrementCounter",
      "outputs": [],
      "stateMutability": "payable",
      "type": "function"
    },
    {
      "inputs": [
        {
          "internalType": "address",
          "name": "token",
          "type": "address"
        },
        {
          "internalType": "address",
          "name": "spender",
          "type": "address"
        },
        {
          "internalType": "uint256",
          "name": "amount",
          "type": "uint256"
        }
      ],
      "name": "approveTokenSpender",
      "outputs": [],
      "stateMutability": "nonpayable",
      "type": "function"
    },
    {
      "inputs": [],
      "name": "endpoint",
      "outputs": [
        {
          "internalType": "contract ILayerZeroEndpoint",
          "name": "",
          "type": "address"
        }
      ],
      "stateMutability": "view",
      "type": "function"
    },
    {
      "inputs": [
        {
          "internalType": "uint16",
          "name": "_srcChainId",
          "type": "uint16"
        },
        {
          "internalType": "bytes",
          "name": "_srcAddress",
          "type": "bytes"
        }
      ],
      "name": "forceResumeReceive",
      "outputs": [],
      "stateMutability": "nonpayable",
      "type": "function"
    },
    {
      "inputs": [
        {
          "internalType": "uint16",
          "name": "",
          "type": "uint16"
        },
        {
          "internalType": "uint16",
          "name": "_chainId",
          "type": "uint16"
        },
        {
          "internalType": "address",
          "name": "",
          "type": "address"
        },
        {
          "internalType": "uint256",
          "name": "_configType",
          "type": "uint256"
        }
      ],
      "name": "getConfig",
      "outputs": [
        {
          "internalType": "bytes",
          "name": "",
          "type": "bytes"
        }
      ],
      "stateMutability": "view",
      "type": "function"
    },
    {
      "inputs": [],
      "name": "getCounter",
      "outputs": [
        {
          "internalType": "uint256",
          "name": "",
          "type": "uint256"
        }
      ],
      "stateMutability": "view",
      "type": "function"
    },
    {
      "inputs": [
        {
          "internalType": "uint16",
          "name": "remoteChainId",
          "type": "uint16"
        }
      ],
      "name": "getOracle",
      "outputs": [
        {
          "internalType": "address",
          "name": "_oracle",
          "type": "address"
        }
      ],
      "stateMutability": "view",
      "type": "function"
    },
    {
      "inputs": [
        {
          "internalType": "uint16",
          "name": "remoteChainId",
          "type": "uint16"
        }
      ],
      "name": "getOutboundBlockConfirmations",
      "outputs": [
        {
          "internalType": "bytes",
          "name": "_confirmations",
          "type": "bytes"
        }
      ],
      "stateMutability": "view",
      "type": "function"
    },
    {
      "inputs": [],
      "name": "getReceiveVersion",
      "outputs": [
        {
          "internalType": "uint16",
          "name": "",
          "type": "uint16"
        }
      ],
      "stateMutability": "view",
      "type": "function"
    },
    {
      "inputs": [],
      "name": "getSendVersion",
      "outputs": [
        {
          "internalType": "uint16",
          "name": "",
          "type": "uint16"
        }
      ],
      "stateMutability": "view",
      "type": "function"
    },
    {
      "inputs": [
        {
          "internalType": "uint16",
          "name": "_dstChainId",
          "type": "uint16"
        },
        {
          "internalType": "bytes",
          "name": "_adapterParams",
          "type": "bytes"
        },
        {
          "internalType": "bytes",
          "name": "payload",
          "type": "bytes"
        }
      ],
      "name": "incrementCounter",
      "outputs": [],
      "stateMutability": "payable",
      "type": "function"
    },
    {
      "inputs": [
        {
          "internalType": "uint16",
          "name": "_srcChainId",
          "type": "uint16"
        },
        {
          "internalType": "bytes",
          "name": "_fromAddress",
          "type": "bytes"
        },
        {
          "internalType": "uint64",
          "name": "",
          "type": "uint64"
        },
        {
          "internalType": "bytes",
          "name": "_payload",
          "type": "bytes"
        }
      ],
      "name": "lzReceive",
      "outputs": [],
      "stateMutability": "nonpayable",
      "type": "function"
    },
    {
      "inputs": [],
      "name": "messageCounter",
      "outputs": [
        {
          "internalType": "uint256",
          "name": "",
          "type": "uint256"
        }
      ],
      "stateMutability": "view",
      "type": "function"
    },
    {
      "inputs": [
        {
          "internalType": "uint16[]",
          "name": "_dstChainIds",
          "type": "uint16[]"
        },
        {
          "internalType": "bytes",
          "name": "_adapterParams",
          "type": "bytes"
        },
        {
          "internalType": "bytes",
          "name": "payload",
          "type": "bytes"
        }
      ],
      "name": "multiIncrementCounter",
      "outputs": [],
      "stateMutability": "payable",
      "type": "function"
    },
    {
      "inputs": [],
      "name": "owner",
      "outputs": [
        {
          "internalType": "address",
          "name": "",
          "type": "address"
        }
      ],
      "stateMutability": "view",
      "type": "function"
    },
    {
      "inputs": [],
      "name": "payInZRO",
      "outputs": [
        {
          "internalType": "bool",
          "name": "",
          "type": "bool"
        }
      ],
      "stateMutability": "view",
      "type": "function"
    },
    {
      "inputs": [
        {
          "internalType": "address",
          "name": "",
          "type": "address"
        }
      ],
      "name": "remoteAddressCounter",
      "outputs": [
        {
          "internalType": "uint256",
          "name": "",
          "type": "uint256"
        }
      ],
      "stateMutability": "view",
      "type": "function"
    },
    {
      "inputs": [],
      "name": "renounceOwnership",
      "outputs": [],
      "stateMutability": "nonpayable",
      "type": "function"
    },
    {
      "inputs": [
        {
          "internalType": "uint16",
          "name": "",
          "type": "uint16"
        },
        {
          "internalType": "uint16",
          "name": "_chainId",
          "type": "uint16"
        },
        {
          "internalType": "uint256",
          "name": "_configType",
          "type": "uint256"
        },
        {
          "internalType": "bytes",
          "name": "_config",
          "type": "bytes"
        }
      ],
      "name": "setConfig",
      "outputs": [],
      "stateMutability": "nonpayable",
      "type": "function"
    },
    {
      "inputs": [
        {
          "internalType": "uint16",
          "name": "remoteChainId",
          "type": "uint16"
        },
        {
          "internalType": "uint16",
          "name": "confirmations",
          "type": "uint16"
        }
      ],
      "name": "setInboundConfirmations",
      "outputs": [],
      "stateMutability": "nonpayable",
      "type": "function"
    },
    {
      "inputs": [
        {
          "internalType": "uint16",
          "name": "dstChainId",
          "type": "uint16"
        },
        {
          "internalType": "address",
          "name": "oracle",
          "type": "address"
        }
      ],
      "name": "setOracle",
      "outputs": [],
      "stateMutability": "nonpayable",
      "type": "function"
    },
    {
      "inputs": [
        {
          "internalType": "uint16",
          "name": "dstChainId",
          "type": "uint16"
        },
        {
          "internalType": "uint64",
          "name": "confirmations",
          "type": "uint64"
        }
      ],
      "name": "setOutboundBlockConfirmations",
      "outputs": [],
      "stateMutability": "nonpayable",
      "type": "function"
    },
    {
      "inputs": [
        {
          "internalType": "uint16",
          "name": "remoteChainId",
          "type": "uint16"
        },
        {
          "internalType": "uint16",
          "name": "confirmations",
          "type": "uint16"
        }
      ],
      "name": "setOutboundConfirmations",
      "outputs": [],
      "stateMutability": "nonpayable",
      "type": "function"
    },
    {
      "inputs": [
        {
          "internalType": "bool",
          "name": "_payInZRO",
          "type": "bool"
        }
      ],
      "name": "setPayInZRO",
      "outputs": [],
      "stateMutability": "nonpayable",
      "type": "function"
    },
    {
      "inputs": [
        {
          "internalType": "uint16",
          "name": "version",
          "type": "uint16"
        }
      ],
      "name": "setReceiveVersion",
      "outputs": [],
      "stateMutability": "nonpayable",
      "type": "function"
    },
    {
      "inputs": [
        {
          "internalType": "uint16",
          "name": "dstChainId",
          "type": "uint16"
        },
        {
          "internalType": "address",
          "name": "relayer",
          "type": "address"
        }
      ],
      "name": "setRelayer",
      "outputs": [],
      "stateMutability": "nonpayable",
      "type": "function"
    },
    {
      "inputs": [
        {
          "internalType": "uint16",
          "name": "version",
          "type": "uint16"
        }
      ],
      "name": "setSendVersion",
      "outputs": [],
      "stateMutability": "nonpayable",
      "type": "function"
    },
    {
      "inputs": [
        {
          "internalType": "uint16",
          "name": "_srcChainId",
          "type": "uint16"
        },
        {
          "internalType": "bytes",
          "name": "_srcAddress",
          "type": "bytes"
        }
      ],
      "name": "setTrustedRemote",
      "outputs": [],
      "stateMutability": "nonpayable",
      "type": "function"
    },
    {
      "inputs": [
        {
          "internalType": "address",
          "name": "newOwner",
          "type": "address"
        }
      ],
      "name": "transferOwnership",
      "outputs": [],
      "stateMutability": "nonpayable",
      "type": "function"
    },
    {
      "inputs": [
        {
          "internalType": "uint16",
          "name": "",
          "type": "uint16"
        }
      ],
      "name": "trustedRemoteLookup",
      "outputs": [
        {
          "internalType": "bytes",
          "name": "",
          "type": "bytes"
        }
      ],
      "stateMutability": "view",
      "type": "function"
    },
    {
      "stateMutability": "payable",
      "type": "receive"
    }
  ],
  "transactionHash": "0x8b9f90886681a546d5acfb7184720e973dc2ec5d25a597482188e9cd2326eb53",
  "args": [
    "0x6aB5Ae6822647046626e83ee6dB8187151E1d5ab"
  ],
  "numDeployments": 1,
  "solcInputHash": "cce6df7cf089554b7b8ca474179bbe1a",
  "bytecode": "0x60806040523480156200001157600080fd5b5060405162002d0938038062002d098339810160408190526200003491620000b4565b600062000040620000b0565b600080546001600160a01b0319166001600160a01b0383169081178255604051929350917f8be0079c531659141344cd1fd0a4f28419497f9722a3daafe3b4186f6b6457e0908290a350600380546001600160a01b0319166001600160a01b0392909216919091179055620000e4565b3390565b600060208284031215620000c6578081fd5b81516001600160a01b0381168114620000dd578182fd5b9392505050565b612c1580620000f46000396000f3fe6080604052600436106101d05760003560e01c80637533d788116100f7578063cf5d147111610095578063ec4ebb2d11610064578063ec4ebb2d14610533578063f0211f1614610553578063f2fde38b14610573578063f5ecbdbc1461059357610226565b8063cf5d1471146104be578063d7d3c3b9146104d3578063e2f28824146104f3578063eb8d72b71461051357610226565b80638da5cb5b116100d15780638da5cb5b14610449578063a5eab6e81461045e578063b7e0f7ba1461047e578063cbed8b9c1461049e57610226565b80637533d788146103e55780637af9ce73146104125780638ada066e1461043457610226565b806342d65a8d1161016f57806355ebce6a1161013e57806355ebce6a1461037b5780635e280f111461038e5780636df65371146103b0578063715018a6146103d057610226565b806342d65a8d146102ee578063492e527e1461030e578063529c75881461032e57806354a5beda1461035957610226565b806311b02b65116101ab57806311b02b65146102885780632b2257dc1461029b57806333cd8070146102bb57806341e63d13146102ce57610226565b80621d35671461022857806307e0db171461024857806310ddb1371461026857610226565b36610226576103e8341080156101e7575034600a14155b610226576040517f08c379a000000000000000000000000000000000000000000000000000000000815260040161021d90612878565b60405180910390fd5b005b34801561023457600080fd5b506102266102433660046124b5565b6105b3565b34801561025457600080fd5b506102266102633660046122d5565b6107b3565b34801561027457600080fd5b506102266102833660046122d5565b61083e565b610226610296366004612418565b610894565b3480156102a757600080fd5b506102266102b6366004612539565b610a28565b6102266102c9366004612173565b610b4e565b3480156102da57600080fd5b506102266102e9366004612233565b610d70565b3480156102fa57600080fd5b50610226610309366004612345565b610e62565b34801561031a57600080fd5b5061022661032936600461230d565b610e67565b34801561033a57600080fd5b50610343610f8e565b6040516103509190612add565b60405180910390f35b34801561036557600080fd5b5061036e610f94565b6040516103509190612969565b610226610389366004612398565b611040565b34801561039a57600080fd5b506103a36110e8565b60405161035091906127a5565b3480156103bc57600080fd5b506102266103cb366004612539565b611104565b3480156103dc57600080fd5b506102266111c6565b3480156103f157600080fd5b506104056104003660046122d5565b6112dd565b60405161035091906127f7565b34801561041e57600080fd5b50610427611396565b60405161035091906127ec565b34801561044057600080fd5b506103436113b7565b34801561045557600080fd5b506103a36113bd565b34801561046a57600080fd5b50610226610479366004612616565b6113d9565b34801561048a57600080fd5b50610343610499366004612110565b61149b565b3480156104aa57600080fd5b506102266104b93660046125b6565b6114ad565b3480156104ca57600080fd5b5061036e6115b8565b3480156104df57600080fd5b506102266104ee366004612133565b61160f565b3480156104ff57600080fd5b506103a361050e3660046122d5565b611763565b34801561051f57600080fd5b5061022661052e366004612345565b6118b6565b34801561053f57600080fd5b5061040561054e3660046122d5565b61197c565b34801561055f57600080fd5b5061022661056e36600461230d565b611ac8565b34801561057f57600080fd5b5061022661058e366004612110565b611b27565b34801561059f57600080fd5b506104056105ae366004612566565b611cc8565b60035473ffffffffffffffffffffffffffffffffffffffff1633146105d757600080fd5b6105e18484611e14565b6014830151604051610617907f66660000000000000000000000000000000000000000000000000000000000009060200161272c565b604051602081830303815290604052805190602001208260405160200161063e9190612759565b6040516020818303038152906040528051906020012014806106cb57507f666600000000000000000000000000000000000000000000000000000000000060405160200161068c91906126ff565b60405160208183030381529060405280519060200120826040516020016106b39190612759565b60405160208183030381529060405280519060200120145b1561077957600354604080516020808201835260008083528351918201845280825292517fc2fa481300000000000000000000000000000000000000000000000000000000815273ffffffffffffffffffffffffffffffffffffffff9094169363c2fa4813936107469360019390928491829160040161280a565b600060405180830381600087803b15801561076057600080fd5b505af1158015610774573d6000803e3d6000fd5b505050505b73ffffffffffffffffffffffffffffffffffffffff1660009081526002602052604090208054600190810190915580548101905550505050565b6003546040517f07e0db1700000000000000000000000000000000000000000000000000000000815273ffffffffffffffffffffffffffffffffffffffff909116906307e0db1790610809908490600401612969565b600060405180830381600087803b15801561082357600080fd5b505af1158015610837573d6000803e3d6000fd5b5050505050565b6003546040517f10ddb13700000000000000000000000000000000000000000000000000000000815273ffffffffffffffffffffffffffffffffffffffff909116906310ddb13790610809908490600401612969565b61ffff851660009081526004602090815260408083208054825160026001831615610100027fffffffffffffffffffffffffffffffffffffffffffffffffffffffffffffffff0190921691909104601f81018590048502820185019093528281529290919083018282801561094a5780601f1061091f5761010080835404028352916020019161094a565b820191906000526020600020905b81548152906001019060200180831161092d57829003601f168201915b50505050509050600081511161098c576040517f08c379a000000000000000000000000000000000000000000000000000000000815260040161021d906128fb565b6003546040517fc580310000000000000000000000000000000000000000000000000000000000815273ffffffffffffffffffffffffffffffffffffffff9091169063c58031009034906109ee908a9086908b908b908b908b906004016129cc565b6000604051808303818588803b158015610a0757600080fd5b505af1158015610a1b573d6000803e3d6000fd5b5050505050505050505050565b6003546040517f096568f600000000000000000000000000000000000000000000000000000000815273ffffffffffffffffffffffffffffffffffffffff9091169063cbed8b9c90829063096568f690610a869030906004016127a5565b60206040518083038186803b158015610a9e57600080fd5b505afa158015610ab2573d6000803e3d6000fd5b505050506040513d601f19601f82011682018060405250810190610ad691906122f1565b84600585604051602001610aea9190612969565b6040516020818303038152906040526040518563ffffffff1660e01b8152600401610b189493929190612a6d565b600060405180830381600087803b158015610b3257600080fd5b505af1158015610b46573d6000803e3d6000fd5b505050505050565b60008686808060200260200160405190810160405280939291908181526020018383602002808284376000920182905250604080516020601f8c018190048102820181019092528a8152959650909493508992508891508190840183828082843760009201829052509394503493925050505b8351811015610d3657600354845160009173ffffffffffffffffffffffffffffffffffffffff16906340a7bb1090879085908110610bfb57fe5b6020026020010151308a8a600360149054906101000a900460ff168a6040518763ffffffff1660e01b8152600401610c3896959493929190612978565b604080518083038186803b158015610c4f57600080fd5b505afa158015610c63573d6000803e3d6000fd5b505050506040513d601f19601f82011682018060405250810190610c87919061264a565b509050610c948382611f26565b60035490935060009074010000000000000000000000000000000000000000900460ff16610cc3576000610cc5565b305b9050610d2c8c8c85818110610cd657fe5b9050602002016020810190610ceb91906122d5565b89898080601f0160208091040260200160405190810160405280939291908181526020018383808284376000920191909152503392508691508a9050610894565b5050600101610bc1565b50604051339082156108fc029083906000818181858888f19350505050158015610d64573d6000803e3d6000fd5b50505050505050505050565b610d78611f9d565b73ffffffffffffffffffffffffffffffffffffffff16610d966113bd565b73ffffffffffffffffffffffffffffffffffffffff1614610e1857604080517f08c379a000000000000000000000000000000000000000000000000000000000815260206004820181905260248201527f4f776e61626c653a2063616c6c6572206973206e6f7420746865206f776e6572604482015290519081900360640190fd5b6003805491151574010000000000000000000000000000000000000000027fffffffffffffffffffffff00ffffffffffffffffffffffffffffffffffffffff909216919091179055565b505050565b6003546040517f096568f600000000000000000000000000000000000000000000000000000000815260069173ffffffffffffffffffffffffffffffffffffffff169063cbed8b9c90829063096568f690610ec69030906004016127a5565b60206040518083038186803b158015610ede57600080fd5b505afa158015610ef2573d6000803e3d6000fd5b505050506040513d601f19601f82011682018060405250810190610f1691906122f1565b858486604051602001610f2991906127a5565b6040516020818303038152906040526040518563ffffffff1660e01b8152600401610f579493929190612a6d565b600060405180830381600087803b158015610f7157600080fd5b505af1158015610f85573d6000803e3d6000fd5b50505050505050565b60015481565b6003546040517f096568f600000000000000000000000000000000000000000000000000000000815260009173ffffffffffffffffffffffffffffffffffffffff169063096568f690610feb9030906004016127a5565b60206040518083038186803b15801561100357600080fd5b505afa158015611017573d6000803e3d6000fd5b505050506040513d601f19601f8201168201806040525081019061103b91906122f1565b905090565b60035460009074010000000000000000000000000000000000000000900460ff1661106c57600061106e565b305b9050610b468684848080601f01602080910402602001604051908101604052809392919081815260200183838082843760009201919091525050604080516020601f8c018190048102820181019092528a8152339350879250908b908b908190840183828082843760009201919091525061089492505050565b60035473ffffffffffffffffffffffffffffffffffffffff1681565b6003546040517f096568f600000000000000000000000000000000000000000000000000000000815273ffffffffffffffffffffffffffffffffffffffff9091169063cbed8b9c90829063096568f6906111629030906004016127a5565b60206040518083038186803b15801561117a57600080fd5b505afa15801561118e573d6000803e3d6000fd5b505050506040513d601f19601f820116820180604052508101906111b291906122f1565b84600285604051602001610aea9190612969565b6111ce611f9d565b73ffffffffffffffffffffffffffffffffffffffff166111ec6113bd565b73ffffffffffffffffffffffffffffffffffffffff161461126e57604080517f08c379a000000000000000000000000000000000000000000000000000000000815260206004820181905260248201527f4f776e61626c653a2063616c6c6572206973206e6f7420746865206f776e6572604482015290519081900360640190fd5b6000805460405173ffffffffffffffffffffffffffffffffffffffff909116907f8be0079c531659141344cd1fd0a4f28419497f9722a3daafe3b4186f6b6457e0908390a3600080547fffffffffffffffffffffffff0000000000000000000000000000000000000000169055565b60046020908152600091825260409182902080548351601f60027fffffffffffffffffffffffffffffffffffffffffffffffffffffffffffffffff6101006001861615020190931692909204918201849004840281018401909452808452909183018282801561138e5780601f106113635761010080835404028352916020019161138e565b820191906000526020600020905b81548152906001019060200180831161137157829003601f168201915b505050505081565b60035474010000000000000000000000000000000000000000900460ff1681565b60015490565b60005473ffffffffffffffffffffffffffffffffffffffff1690565b6003546040517f096568f600000000000000000000000000000000000000000000000000000000815260069173ffffffffffffffffffffffffffffffffffffffff169063cbed8b9c90829063096568f6906114389030906004016127a5565b60206040518083038186803b15801561145057600080fd5b505afa158015611464573d6000803e3d6000fd5b505050506040513d601f19601f8201168201806040525081019061148891906122f1565b858486604051602001610f299190612775565b60026020526000908152604090205481565b6003546040517f096568f600000000000000000000000000000000000000000000000000000000815273ffffffffffffffffffffffffffffffffffffffff9091169063cbed8b9c90829063096568f69061150b9030906004016127a5565b60206040518083038186803b15801561152357600080fd5b505afa158015611537573d6000803e3d6000fd5b505050506040513d601f19601f8201168201806040525081019061155b91906122f1565b868686866040518663ffffffff1660e01b815260040161157f959493929190612aa4565b600060405180830381600087803b15801561159957600080fd5b505af11580156115ad573d6000803e3d6000fd5b505050505050505050565b6003546040517fda1a7c9a00000000000000000000000000000000000000000000000000000000815260009173ffffffffffffffffffffffffffffffffffffffff169063da1a7c9a90610feb9030906004016127a5565b611617611f9d565b73ffffffffffffffffffffffffffffffffffffffff166116356113bd565b73ffffffffffffffffffffffffffffffffffffffff16146116b757604080517f08c379a000000000000000000000000000000000000000000000000000000000815260206004820181905260248201527f4f776e61626c653a2063616c6c6572206973206e6f7420746865206f776e6572604482015290519081900360640190fd5b6040517f095ea7b300000000000000000000000000000000000000000000000000000000815273ffffffffffffffffffffffffffffffffffffffff84169063095ea7b39061170b90859085906004016127c6565b602060405180830381600087803b15801561172557600080fd5b505af1158015611739573d6000803e3d6000fd5b505050506040513d601f19601f8201168201806040525081019061175d919061224f565b50505050565b6003546040517f096568f6000000000000000000000000000000000000000000000000000000008152600091829173ffffffffffffffffffffffffffffffffffffffff9091169063f5ecbdbc90829063096568f6906117c69030906004016127a5565b60206040518083038186803b1580156117de57600080fd5b505afa1580156117f2573d6000803e3d6000fd5b505050506040513d601f19601f8201168201806040525081019061181691906122f1565b853060066040518563ffffffff1660e01b81526004016118399493929190612a33565b60006040518083038186803b15801561185157600080fd5b505afa158015611865573d6000803e3d6000fd5b505050506040513d6000823e601f3d9081017fffffffffffffffffffffffffffffffffffffffffffffffffffffffffffffffe01682016040526118ab919081019061226b565b602001519392505050565b6118be611f9d565b73ffffffffffffffffffffffffffffffffffffffff166118dc6113bd565b73ffffffffffffffffffffffffffffffffffffffff161461195e57604080517f08c379a000000000000000000000000000000000000000000000000000000000815260206004820181905260248201527f4f776e61626c653a2063616c6c6572206973206e6f7420746865206f776e6572604482015290519081900360640190fd5b61ffff8316600090815260046020526040902061175d908383611fa1565b6003546040517f096568f600000000000000000000000000000000000000000000000000000000815260609173ffffffffffffffffffffffffffffffffffffffff169063f5ecbdbc90829063096568f6906119db9030906004016127a5565b60206040518083038186803b1580156119f357600080fd5b505afa158015611a07573d6000803e3d6000fd5b505050506040513d601f19601f82011682018060405250810190611a2b91906122f1565b843060056040518563ffffffff1660e01b8152600401611a4e9493929190612a33565b60006040518083038186803b158015611a6657600080fd5b505afa158015611a7a573d6000803e3d6000fd5b505050506040513d6000823e601f3d9081017fffffffffffffffffffffffffffffffffffffffffffffffffffffffffffffffe0168201604052611ac0919081019061226b565b90505b919050565b600380546040517f096568f600000000000000000000000000000000000000000000000000000000815273ffffffffffffffffffffffffffffffffffffffff9091169063cbed8b9c90829063096568f690610ec69030906004016127a5565b611b2f611f9d565b73ffffffffffffffffffffffffffffffffffffffff16611b4d6113bd565b73ffffffffffffffffffffffffffffffffffffffff1614611bcf57604080517f08c379a000000000000000000000000000000000000000000000000000000000815260206004820181905260248201527f4f776e61626c653a2063616c6c6572206973206e6f7420746865206f776e6572604482015290519081900360640190fd5b73ffffffffffffffffffffffffffffffffffffffff8116611c3b576040517f08c379a0000000000000000000000000000000000000000000000000000000008152600401808060200182810382526026815260200180612bba6026913960400191505060405180910390fd5b6000805460405173ffffffffffffffffffffffffffffffffffffffff808516939216917f8be0079c531659141344cd1fd0a4f28419497f9722a3daafe3b4186f6b6457e091a3600080547fffffffffffffffffffffffff00000000000000000000000000000000000000001673ffffffffffffffffffffffffffffffffffffffff92909216919091179055565b6003546040517f096568f600000000000000000000000000000000000000000000000000000000815260609173ffffffffffffffffffffffffffffffffffffffff169063f5ecbdbc90829063096568f690611d279030906004016127a5565b60206040518083038186803b158015611d3f57600080fd5b505afa158015611d53573d6000803e3d6000fd5b505050506040513d601f19601f82011682018060405250810190611d7791906122f1565b8630866040518563ffffffff1660e01b8152600401611d999493929190612a33565b60006040518083038186803b158015611db157600080fd5b505afa158015611dc5573d6000803e3d6000fd5b505050506040513d6000823e601f3d9081017fffffffffffffffffffffffffffffffffffffffffffffffffffffffffffffffe0168201604052611e0b919081019061226b565b95945050505050565b61ffff821660009081526004602090815260408083208054825160026001831615610100027fffffffffffffffffffffffffffffffffffffffffffffffffffffffffffffffff0190921691909104601f810185900485028201850190935282815292909190830182828015611eca5780601f10611e9f57610100808354040283529160200191611eca565b820191906000526020600020905b815481529060010190602001808311611ead57829003601f168201915b505050505090508051600014158015611ef0575080805190602001208280519060200120145b610e62576040517f08c379a000000000000000000000000000000000000000000000000000000000815260040161021d90612932565b600082821115611f9757604080517f08c379a000000000000000000000000000000000000000000000000000000000815260206004820152601e60248201527f536166654d6174683a207375627472616374696f6e206f766572666c6f770000604482015290519081900360640190fd5b50900390565b3390565b828054600181600116156101000203166002900490600052602060002090601f016020900481019282611fd7576000855561203b565b82601f1061200e578280017fffffffffffffffffffffffffffffffffffffffffffffffffffffffffffffff0082351617855561203b565b8280016001018555821561203b579182015b8281111561203b578235825591602001919060010190612020565b5061204792915061204b565b5090565b5b80821115612047576000815560010161204c565b60008083601f840112612071578182fd5b50813567ffffffffffffffff811115612088578182fd5b6020830191508360208285010111156120a057600080fd5b9250929050565b600082601f8301126120b7578081fd5b81356120ca6120c582612b0a565b612ae6565b8181528460208386010111156120de578283fd5b816020850160208301379081016020019190915292915050565b803567ffffffffffffffff81168114611ac357600080fd5b600060208284031215612121578081fd5b813561212c81612b76565b9392505050565b600080600060608486031215612147578182fd5b833561215281612b76565b9250602084013561216281612b76565b929592945050506040919091013590565b6000806000806000806060878903121561218b578182fd5b863567ffffffffffffffff808211156121a2578384fd5b818901915089601f8301126121b5578384fd5b8135818111156121c3578485fd5b8a602080830285010111156121d6578485fd5b6020928301985096509088013590808211156121f0578384fd5b6121fc8a838b01612060565b90965094506040890135915080821115612214578384fd5b5061222189828a01612060565b979a9699509497509295939492505050565b600060208284031215612244578081fd5b813561212c81612b9b565b600060208284031215612260578081fd5b815161212c81612b9b565b60006020828403121561227c578081fd5b815167ffffffffffffffff811115612292578182fd5b8201601f810184136122a2578182fd5b80516122b06120c582612b0a565b8181528560208385010111156122c4578384fd5b611e0b826020830160208601612b4a565b6000602082840312156122e6578081fd5b813561212c81612ba9565b600060208284031215612302578081fd5b815161212c81612ba9565b6000806040838503121561231f578182fd5b823561232a81612ba9565b9150602083013561233a81612b76565b809150509250929050565b600080600060408486031215612359578283fd5b833561236481612ba9565b9250602084013567ffffffffffffffff81111561237f578283fd5b61238b86828701612060565b9497909650939450505050565b6000806000806000606086880312156123af578081fd5b85356123ba81612ba9565b9450602086013567ffffffffffffffff808211156123d6578283fd5b6123e289838a01612060565b909650945060408801359150808211156123fa578283fd5b5061240788828901612060565b969995985093965092949392505050565b600080600080600060a0868803121561242f578283fd5b853561243a81612ba9565b9450602086013567ffffffffffffffff80821115612456578485fd5b61246289838a016120a7565b95506040880135915061247482612b76565b90935060608701359061248682612b76565b9092506080870135908082111561249b578283fd5b506124a8888289016120a7565b9150509295509295909350565b600080600080608085870312156124ca578182fd5b84356124d581612ba9565b9350602085013567ffffffffffffffff808211156124f1578384fd5b6124fd888389016120a7565b945061250b604088016120f8565b93506060870135915080821115612520578283fd5b5061252d878288016120a7565b91505092959194509250565b6000806040838503121561254b578182fd5b823561255681612ba9565b9150602083013561233a81612ba9565b6000806000806080858703121561257b578182fd5b843561258681612ba9565b9350602085013561259681612ba9565b925060408501356125a681612b76565b9396929550929360600135925050565b6000806000806000608086880312156125cd578283fd5b85356125d881612ba9565b945060208601356125e881612ba9565b935060408601359250606086013567ffffffffffffffff81111561260a578182fd5b61240788828901612060565b60008060408385031215612628578182fd5b823561263381612ba9565b9150612641602084016120f8565b90509250929050565b6000806040838503121561265c578182fd5b505080516020909101519092909150565b600082845282826020860137806020848601015260207fffffffffffffffffffffffffffffffffffffffffffffffffffffffffffffffe0601f85011685010190509392505050565b600081518084526126cd816020860160208601612b4a565b601f017fffffffffffffffffffffffffffffffffffffffffffffffffffffffffffffffe0169290920160200192915050565b7fffffffffffffffffffff00000000000000000000000000000000000000000000919091168152600a0190565b7fffff00000000000000000000000000000000000000000000000000000000000091909116815260020190565b6000825161276b818460208701612b4a565b9190910192915050565b60c09190911b7fffffffffffffffff00000000000000000000000000000000000000000000000016815260080190565b73ffffffffffffffffffffffffffffffffffffffff91909116815260200190565b73ffffffffffffffffffffffffffffffffffffffff929092168252602082015260400190565b901515815260200190565b60006020825261212c60208301846126b5565b600061ffff8816825260c0602083015261282760c08301886126b5565b73ffffffffffffffffffffffffffffffffffffffff8716604084015267ffffffffffffffff8616606084015284608084015282810360a084015261286b81856126b5565b9998505050505050505050565b60208082526044908201527f44696420796f75206d65616e20746f2073656e64206120626c6f636b6564206160408201527f6d6f756e74202d20636865636b20726563656976652829202f2066616c6c626160608201527f636b282900000000000000000000000000000000000000000000000000000000608082015260a00190565b6020808252601d908201527f2a2a2a207472757374656452656d6f74652063616e7420626520307820000000604082015260600190565b6020808252601d908201527f736f7572636520636f756e746572206973206e6f742074727573746564000000604082015260600190565b61ffff91909116815260200190565b600061ffff8816825273ffffffffffffffffffffffffffffffffffffffff8716602083015260a060408301526129b260a08301868861266d565b8415156060840152828103608084015261286b81856126b5565b600061ffff8816825260c060208301526129e960c08301886126b5565b82810360408401526129fb81886126b5565b73ffffffffffffffffffffffffffffffffffffffff87811660608601528616608085015283810360a0850152905061286b81856126b5565b61ffff948516815292909316602083015273ffffffffffffffffffffffffffffffffffffffff166040820152606081019190915260800190565b600061ffff808716835280861660208401525083604083015260806060830152612a9a60808301846126b5565b9695505050505050565b600061ffff808816835280871660208401525084604083015260806060830152612ad260808301848661266d565b979650505050505050565b90815260200190565b60405181810167ffffffffffffffff81118282101715612b0257fe5b604052919050565b600067ffffffffffffffff821115612b1e57fe5b50601f017fffffffffffffffffffffffffffffffffffffffffffffffffffffffffffffffe01660200190565b60005b83811015612b65578181015183820152602001612b4d565b8381111561175d5750506000910152565b73ffffffffffffffffffffffffffffffffffffffff81168114612b9857600080fd5b50565b8015158114612b9857600080fd5b61ffff81168114612b9857600080fdfe4f776e61626c653a206e6577206f776e657220697320746865207a65726f2061646472657373a2646970667358221220fefee83ed8fb8400b6e6b7ce5d86e193f5716ff330ae52616b5c5b68d70025fb64736f6c63430007060033",
  "devdoc": {
    "kind": "dev",
    "methods": {
      "owner()": {
        "details": "Returns the address of the current owner."
      },
      "renounceOwnership()": {
        "details": "Leaves the contract without owner. It will not be possible to call `onlyOwner` functions anymore. Can only be called by the current owner. NOTE: Renouncing ownership will leave the contract without an owner, thereby removing any functionality that is only available to the owner."
      },
      "transferOwnership(address)": {
        "details": "Transfers ownership of the contract to a new account (`newOwner`). Can only be called by the current owner."
      }
    },
    "version": 1
  },
  "userdoc": {
    "kind": "user",
    "methods": {},
    "version": 1
  },
  "storageLayout": {
    "storage": [
      {
        "astId": 493,
        "contract": "contracts/mocks/OmniCounter.sol:OmniCounter",
        "label": "_owner",
        "offset": 0,
        "slot": "0",
        "type": "t_address"
      },
      {
        "astId": 17924,
        "contract": "contracts/mocks/OmniCounter.sol:OmniCounter",
        "label": "messageCounter",
        "offset": 0,
        "slot": "1",
        "type": "t_uint256"
      },
      {
        "astId": 17928,
        "contract": "contracts/mocks/OmniCounter.sol:OmniCounter",
        "label": "remoteAddressCounter",
        "offset": 0,
        "slot": "2",
        "type": "t_mapping(t_address,t_uint256)"
      },
      {
        "astId": 17930,
        "contract": "contracts/mocks/OmniCounter.sol:OmniCounter",
        "label": "endpoint",
        "offset": 0,
        "slot": "3",
        "type": "t_contract(ILayerZeroEndpoint)16110"
      },
      {
        "astId": 17932,
        "contract": "contracts/mocks/OmniCounter.sol:OmniCounter",
        "label": "payInZRO",
        "offset": 20,
        "slot": "3",
        "type": "t_bool"
      },
      {
        "astId": 17936,
        "contract": "contracts/mocks/OmniCounter.sol:OmniCounter",
        "label": "trustedRemoteLookup",
        "offset": 0,
        "slot": "4",
        "type": "t_mapping(t_uint16,t_bytes_storage)"
      }
    ],
    "types": {
      "t_address": {
        "encoding": "inplace",
        "label": "address",
        "numberOfBytes": "20"
      },
      "t_bool": {
        "encoding": "inplace",
        "label": "bool",
        "numberOfBytes": "1"
      },
      "t_bytes_storage": {
        "encoding": "bytes",
        "label": "bytes",
        "numberOfBytes": "32"
      },
      "t_contract(ILayerZeroEndpoint)16110": {
        "encoding": "inplace",
        "label": "contract ILayerZeroEndpoint",
        "numberOfBytes": "20"
      },
      "t_mapping(t_address,t_uint256)": {
        "encoding": "mapping",
        "key": "t_address",
        "label": "mapping(address => uint256)",
        "numberOfBytes": "32",
        "value": "t_uint256"
      },
      "t_mapping(t_uint16,t_bytes_storage)": {
        "encoding": "mapping",
        "key": "t_uint16",
        "label": "mapping(uint16 => bytes)",
        "numberOfBytes": "32",
        "value": "t_bytes_storage"
      },
      "t_uint16": {
        "encoding": "inplace",
        "label": "uint16",
        "numberOfBytes": "2"
      },
      "t_uint256": {
        "encoding": "inplace",
        "label": "uint256",
        "numberOfBytes": "32"
      }
    }
  }
}