{
  "address": "0x842b928a18CfdB7D981c2AcAA2469bec51b5948d",
  "abi": [
    {
      "anonymous": false,
      "inputs": [
        {
          "indexed": false,
          "internalType": "uint16",
          "name": "srcChainId",
          "type": "uint16"
        },
        {
          "indexed": false,
          "internalType": "address",
          "name": "oracle",
          "type": "address"
        },
        {
          "indexed": false,
          "internalType": "uint256",
          "name": "confirmations",
          "type": "uint256"
        },
        {
          "indexed": false,
          "internalType": "bytes32",
          "name": "blockhash",
          "type": "bytes32"
        }
      ],
      "name": "HashReceived",
      "type": "event"
    },
    {
      "inputs": [],
      "name": "chainlinkOracleClient",
      "outputs": [
        {
          "internalType": "contract ChainlinkOracleClient",
          "name": "",
          "type": "address"
        }
      ],
      "stateMutability": "view",
      "type": "function"
    },
    {
      "inputs": [
        {
          "internalType": "address",
          "name": "",
          "type": "address"
        },
        {
          "internalType": "uint16",
          "name": "",
          "type": "uint16"
        },
        {
          "internalType": "bytes32",
          "name": "",
          "type": "bytes32"
        }
      ],
      "name": "hashLookup",
      "outputs": [
        {
          "internalType": "uint256",
          "name": "confirmations",
          "type": "uint256"
        },
        {
          "internalType": "bytes32",
          "name": "data",
          "type": "bytes32"
        }
      ],
      "stateMutability": "view",
      "type": "function"
    },
    {
      "inputs": [
        {
          "internalType": "uint16",
          "name": "_chainId",
          "type": "uint16"
        },
        {
          "internalType": "uint16",
          "name": "_outboundProofType",
          "type": "uint16"
        },
        {
          "internalType": "uint64",
          "name": "_outboundBlockConfirmations",
          "type": "uint64"
        }
      ],
      "name": "notifyOracle",
      "outputs": [],
      "stateMutability": "nonpayable",
      "type": "function"
    },
    {
      "inputs": [
        {
          "internalType": "contract ChainlinkOracleClient",
          "name": "_chainlinkOracleClient",
          "type": "address"
        }
      ],
      "name": "setChainlinkOracleClient",
      "outputs": [],
      "stateMutability": "nonpayable",
      "type": "function"
    },
    {
      "inputs": [
        {
          "internalType": "uint16",
          "name": "_srcChainId",
          "type": "uint16"
        },
        {
          "internalType": "bytes32",
          "name": "_lookupHash",
          "type": "bytes32"
        },
        {
          "internalType": "uint256",
          "name": "_confirmations",
          "type": "uint256"
        },
        {
          "internalType": "bytes32",
          "name": "_data",
          "type": "bytes32"
        }
      ],
      "name": "updateHash",
      "outputs": [],
      "stateMutability": "nonpayable",
      "type": "function"
    }
  ],
  "transactionHash": "0xda3c685719923a7fc362bebb2082c9f8dda0e63ed651d65bb2d06687e67de335",
  "args": [],
  "numDeployments": 1,
  "solcInputHash": "191256a60eaf0ca67de509f7a44f428a",
  "bytecode": "0x608060405234801561001057600080fd5b50610421806100206000396000f3fe608060405234801561001057600080fd5b50600436106100675760003560e01c8063704316e511610050578063704316e5146100db578063a21a5d5d1461010e578063d56bc64b1461014157610067565b8063665305791461006c578063692dc862146100aa575b600080fd5b6100a86004803603606081101561008257600080fd5b50803561ffff908116916020810135909116906040013567ffffffffffffffff1661019d565b005b6100b2610243565b6040805173ffffffffffffffffffffffffffffffffffffffff9092168252519081900360200190f35b6100a8600480360360808110156100f157600080fd5b5061ffff813516906020810135906040810135906060013561025f565b6100a86004803603602081101561012457600080fd5b503573ffffffffffffffffffffffffffffffffffffffff16610339565b6101846004803603606081101561015757600080fd5b5073ffffffffffffffffffffffffffffffffffffffff8135169061ffff6020820135169060400135610380565b6040805192835260208301919091528051918290030190f35b60008054604080517f6653057900000000000000000000000000000000000000000000000000000000815261ffff80881660048301528616602482015267ffffffffffffffff85166044820152905173ffffffffffffffffffffffffffffffffffffffff9092169263665305799260648084019382900301818387803b15801561022657600080fd5b505af115801561023a573d6000803e3d6000fd5b50505050505050565b60005473ffffffffffffffffffffffffffffffffffffffff1681565b33600090815260016020908152604080832061ffff8816845282528083208684529091529020805483116102de576040517f08c379a00000000000000000000000000000000000000000000000000000000081526004018080602001828103825260438152602001806103a96043913960600191505060405180910390fd5b828155600181018290556040805161ffff871681523360208201528082018590526060810186905290517fc5e97f049604c4d8626704341240f021a22cee0d8b66ec306a45344be67733a09181900360800190a15050505050565b600080547fffffffffffffffffffffffff00000000000000000000000000000000000000001673ffffffffffffffffffffffffffffffffffffffff92909216919091179055565b600160208181526000948552604080862082529385528385209052908352912080549101548256fe4c617965725a65726f3a206f7261636c6520646174612063616e206f6e6c792075706461746520696620697420686173206d6f726520636f6e6669726d6174696f6e73a2646970667358221220c27dd8761156d6ed8eb5a2ae2769728bd7d812b03571519a6be49b7938c99e1964736f6c63430007060033",
  "devdoc": {
    "kind": "dev",
    "methods": {},
    "version": 1
  },
  "userdoc": {
    "kind": "user",
    "methods": {},
    "version": 1
  },
  "storageLayout": {
    "storage": [
      {
        "astId": 10913,
        "contract": "contracts/chainlink/UltraLightNodeMock.sol:UltraLightNodeMock",
        "label": "chainlinkOracleClient",
        "offset": 0,
        "slot": "0",
        "type": "t_contract(ChainlinkOracleClient)10755"
      },
      {
        "astId": 10936,
        "contract": "contracts/chainlink/UltraLightNodeMock.sol:UltraLightNodeMock",
        "label": "hashLookup",
        "offset": 0,
        "slot": "1",
        "type": "t_mapping(t_address,t_mapping(t_uint16,t_mapping(t_bytes32,t_struct(BlockData)10918_storage)))"
      }
    ],
    "types": {
      "t_address": {
        "encoding": "inplace",
        "label": "address",
        "numberOfBytes": "20"
      },
      "t_bytes32": {
        "encoding": "inplace",
        "label": "bytes32",
        "numberOfBytes": "32"
      },
      "t_contract(ChainlinkOracleClient)10755": {
        "encoding": "inplace",
        "label": "contract ChainlinkOracleClient",
        "numberOfBytes": "20"
      },
      "t_mapping(t_address,t_mapping(t_uint16,t_mapping(t_bytes32,t_struct(BlockData)10918_storage)))": {
        "encoding": "mapping",
        "key": "t_address",
        "label": "mapping(address => mapping(uint16 => mapping(bytes32 => struct UltraLightNodeMock.BlockData)))",
        "numberOfBytes": "32",
        "value": "t_mapping(t_uint16,t_mapping(t_bytes32,t_struct(BlockData)10918_storage))"
      },
      "t_mapping(t_bytes32,t_struct(BlockData)10918_storage)": {
        "encoding": "mapping",
        "key": "t_bytes32",
        "label": "mapping(bytes32 => struct UltraLightNodeMock.BlockData)",
        "numberOfBytes": "32",
        "value": "t_struct(BlockData)10918_storage"
      },
      "t_mapping(t_uint16,t_mapping(t_bytes32,t_struct(BlockData)10918_storage))": {
        "encoding": "mapping",
        "key": "t_uint16",
        "label": "mapping(uint16 => mapping(bytes32 => struct UltraLightNodeMock.BlockData))",
        "numberOfBytes": "32",
        "value": "t_mapping(t_bytes32,t_struct(BlockData)10918_storage)"
      },
      "t_struct(BlockData)10918_storage": {
        "encoding": "inplace",
        "label": "struct UltraLightNodeMock.BlockData",
        "members": [
          {
            "astId": 10915,
            "contract": "contracts/chainlink/UltraLightNodeMock.sol:UltraLightNodeMock",
            "label": "confirmations",
            "offset": 0,
            "slot": "0",
            "type": "t_uint256"
          },
          {
            "astId": 10917,
            "contract": "contracts/chainlink/UltraLightNodeMock.sol:UltraLightNodeMock",
            "label": "data",
            "offset": 0,
            "slot": "1",
            "type": "t_bytes32"
          }
        ],
        "numberOfBytes": "64"
      },
      "t_uint16": {
        "encoding": "inplace",
        "label": "uint16",
        "numberOfBytes": "2"
      },
      "t_uint256": {
        "encoding": "inplace",
        "label": "uint256",
        "numberOfBytes": "32"
      }
    }
  }
}