{
  "address": "0x665bd7A4b5765758ccF1eB5b6dEAf6bb07b6c531",
  "abi": [
    {
      "inputs": [
        {
          "internalType": "address",
          "name": "_ulnv2",
          "type": "address"
        }
      ],
      "stateMutability": "nonpayable",
      "type": "constructor"
    },
    {
      "anonymous": false,
      "inputs": [
        {
          "indexed": false,
          "internalType": "bool",
          "name": "feeEnabled",
          "type": "bool"
        }
      ],
      "name": "FeeEnabled",
      "type": "event"
    },
    {
      "anonymous": false,
      "inputs": [
        {
          "indexed": false,
          "internalType": "uint256",
          "name": "bp",
          "type": "uint256"
        }
      ],
      "name": "NativeBP",
      "type": "event"
    },
    {
      "anonymous": false,
      "inputs": [
        {
          "indexed": true,
          "internalType": "address",
          "name": "previousOwner",
          "type": "address"
        },
        {
          "indexed": true,
          "internalType": "address",
          "name": "newOwner",
          "type": "address"
        }
      ],
      "name": "OwnershipTransferred",
      "type": "event"
    },
    {
      "anonymous": false,
      "inputs": [
        {
          "indexed": false,
          "internalType": "bool",
          "name": "zroEnabled",
          "type": "bool"
        }
      ],
      "name": "ZroEnabled",
      "type": "event"
    },
    {
      "anonymous": false,
      "inputs": [
        {
          "indexed": false,
          "internalType": "uint256",
          "name": "zroFee",
          "type": "uint256"
        }
      ],
      "name": "ZroFee",
      "type": "event"
    },
    {
      "inputs": [],
      "name": "feeEnabled",
      "outputs": [
        {
          "internalType": "bool",
          "name": "",
          "type": "bool"
        }
      ],
      "stateMutability": "view",
      "type": "function"
    },
    {
      "inputs": [
        {
          "internalType": "bool",
          "name": "payInZro",
          "type": "bool"
        },
        {
          "internalType": "uint256",
          "name": "relayerFee",
          "type": "uint256"
        },
        {
          "internalType": "uint256",
          "name": "oracleFee",
          "type": "uint256"
        }
      ],
      "name": "getFees",
      "outputs": [
        {
          "internalType": "uint256",
          "name": "",
          "type": "uint256"
        }
      ],
      "stateMutability": "view",
      "type": "function"
    },
    {
      "inputs": [],
      "name": "nativeBP",
      "outputs": [
        {
          "internalType": "uint256",
          "name": "",
          "type": "uint256"
        }
      ],
      "stateMutability": "view",
      "type": "function"
    },
    {
      "inputs": [],
      "name": "owner",
      "outputs": [
        {
          "internalType": "address",
          "name": "",
          "type": "address"
        }
      ],
      "stateMutability": "view",
      "type": "function"
    },
    {
      "inputs": [],
      "name": "renounceOwnership",
      "outputs": [],
      "stateMutability": "nonpayable",
      "type": "function"
    },
    {
      "inputs": [
        {
          "internalType": "bool",
          "name": "_feeEnabled",
          "type": "bool"
        }
      ],
      "name": "setFeeEnabled",
      "outputs": [],
      "stateMutability": "nonpayable",
      "type": "function"
    },
    {
      "inputs": [
        {
          "internalType": "uint256",
          "name": "_nativeBP",
          "type": "uint256"
        }
      ],
      "name": "setNativeBP",
      "outputs": [],
      "stateMutability": "nonpayable",
      "type": "function"
    },
    {
      "inputs": [
        {
          "internalType": "bool",
          "name": "_zroEnabled",
          "type": "bool"
        }
      ],
      "name": "setZroEnabled",
      "outputs": [],
      "stateMutability": "nonpayable",
      "type": "function"
    },
    {
      "inputs": [
        {
          "internalType": "uint256",
          "name": "_zroFee",
          "type": "uint256"
        }
      ],
      "name": "setZroFee",
      "outputs": [],
      "stateMutability": "nonpayable",
      "type": "function"
    },
    {
      "inputs": [
        {
          "internalType": "address",
          "name": "newOwner",
          "type": "address"
        }
      ],
      "name": "transferOwnership",
      "outputs": [],
      "stateMutability": "nonpayable",
      "type": "function"
    },
    {
      "inputs": [],
      "name": "uln",
      "outputs": [
        {
          "internalType": "contract ILayerZeroUltraLightNodeV2",
          "name": "",
          "type": "address"
        }
      ],
      "stateMutability": "view",
      "type": "function"
    },
    {
      "inputs": [
        {
          "internalType": "address payable",
          "name": "_to",
          "type": "address"
        },
        {
          "internalType": "uint256",
          "name": "_amount",
          "type": "uint256"
        }
      ],
      "name": "withdrawNativeFromULN",
      "outputs": [],
      "stateMutability": "nonpayable",
      "type": "function"
    },
    {
      "inputs": [
        {
          "internalType": "address",
          "name": "_to",
          "type": "address"
        },
        {
          "internalType": "uint256",
          "name": "_amount",
          "type": "uint256"
        }
      ],
      "name": "withdrawZROFromULN",
      "outputs": [],
      "stateMutability": "nonpayable",
      "type": "function"
    },
    {
      "inputs": [],
      "name": "zroEnabled",
      "outputs": [
        {
          "internalType": "bool",
          "name": "",
          "type": "bool"
        }
      ],
      "stateMutability": "view",
      "type": "function"
    },
    {
      "inputs": [],
      "name": "zroFee",
      "outputs": [
        {
          "internalType": "uint256",
          "name": "",
          "type": "uint256"
        }
      ],
      "stateMutability": "view",
      "type": "function"
    }
  ],
  "transactionHash": "0xd7bdee3cddbeb8c4ac7088732d2c95d19420182b4c9583a3accb965c9927d126",
  "args": [
    "0x658fd63Dca9378e3B7DEb49463D0b25336433F91"
  ],
  "numDeployments": 1,
  "solcInputHash": "f0daa62be023f2bf9281a41484784b15",
  "bytecode": "0x608060405234801561001057600080fd5b50604051610fc6380380610fc68339818101604052602081101561003357600080fd5b5051600061003f6100b6565b600080546001600160a01b0319166001600160a01b0383169081178255604051929350917f8be0079c531659141344cd1fd0a4f28419497f9722a3daafe3b4186f6b6457e0908290a350600380546001600160a01b03909216620100000262010000600160b01b03199092169190911790556100ba565b3390565b610efd806100c96000396000f3fe608060405234801561001057600080fd5b50600436106100f55760003560e01c80638da5cb5b11610097578063baead4cc11610066578063baead4cc14610254578063d684b25314610271578063d935d12314610290578063f2fde38b14610298576100f5565b80638da5cb5b1461022057806396a141a014610228578063a771ebc714610230578063af406aa51461024c576100f5565b80636c473aff116100d35780636c473aff14610191578063715018a6146101c25780637ba20ccf146101ca5780638c616397146101e7576100f5565b80630db474fa146100fa5780633c5ac8f71461011b5780635cbbbd7514610154575b600080fd5b6101196004803603602081101561011057600080fd5b503515156102cb565b005b6101196004803603604081101561013157600080fd5b5073ffffffffffffffffffffffffffffffffffffffff81351690602001356103d8565b61017f6004803603606081101561016a57600080fd5b5080351515906020810135906040013561051e565b60408051918252519081900360200190f35b6101996105ee565b6040805173ffffffffffffffffffffffffffffffffffffffff9092168252519081900360200190f35b610119610610565b610119600480360360208110156101e057600080fd5b5035610727565b610119600480360360408110156101fd57600080fd5b5073ffffffffffffffffffffffffffffffffffffffff813516906020013561080a565b610199610934565b61017f610950565b610238610956565b604080519115158252519081900360200190f35b61017f61095f565b6101196004803603602081101561026a57600080fd5b5035610965565b6101196004803603602081101561028757600080fd5b50351515610a48565b610238610b5c565b610119600480360360208110156102ae57600080fd5b503573ffffffffffffffffffffffffffffffffffffffff16610b6a565b6102d3610d0b565b73ffffffffffffffffffffffffffffffffffffffff166102f1610934565b73ffffffffffffffffffffffffffffffffffffffff161461037357604080517f08c379a000000000000000000000000000000000000000000000000000000000815260206004820181905260248201527f4f776e61626c653a2063616c6c6572206973206e6f7420746865206f776e6572604482015290519081900360640190fd5b600380548215157fffffffffffffffffffffffffffffffffffffffffffffffffffffffffffffff00909116811790915560408051918252517fe97fa32ceb811a18d1b14115b17ae0034db328b2e2ca987d9922cbf47b03fad69181900360200190a150565b6103e0610d0b565b73ffffffffffffffffffffffffffffffffffffffff166103fe610934565b73ffffffffffffffffffffffffffffffffffffffff161461048057604080517f08c379a000000000000000000000000000000000000000000000000000000000815260206004820181905260248201527f4f776e61626c653a2063616c6c6572206973206e6f7420746865206f776e6572604482015290519081900360640190fd5b600354604080517f07b18bde00000000000000000000000000000000000000000000000000000000815273ffffffffffffffffffffffffffffffffffffffff858116600483015260248201859052915162010000909304909116916307b18bde9160448082019260009290919082900301818387803b15801561050257600080fd5b505af1158015610516573d6000803e3d6000fd5b505050505050565b60035460009060ff16156105e35783156105b157600354610100900460ff166105a857604080517f08c379a000000000000000000000000000000000000000000000000000000000815260206004820152601d60248201527f4c617965725a65726f3a205a524f206973206e6f7420656e61626c6564000000604482015290519081900360640190fd5b506002546105e7565b6105dc6127106105d66001546105d08688610d0f90919063ffffffff16565b90610d8c565b90610dff565b90506105e7565b5060005b9392505050565b60035462010000900473ffffffffffffffffffffffffffffffffffffffff1681565b610618610d0b565b73ffffffffffffffffffffffffffffffffffffffff16610636610934565b73ffffffffffffffffffffffffffffffffffffffff16146106b857604080517f08c379a000000000000000000000000000000000000000000000000000000000815260206004820181905260248201527f4f776e61626c653a2063616c6c6572206973206e6f7420746865206f776e6572604482015290519081900360640190fd5b6000805460405173ffffffffffffffffffffffffffffffffffffffff909116907f8be0079c531659141344cd1fd0a4f28419497f9722a3daafe3b4186f6b6457e0908390a3600080547fffffffffffffffffffffffff0000000000000000000000000000000000000000169055565b61072f610d0b565b73ffffffffffffffffffffffffffffffffffffffff1661074d610934565b73ffffffffffffffffffffffffffffffffffffffff16146107cf57604080517f08c379a000000000000000000000000000000000000000000000000000000000815260206004820181905260248201527f4f776e61626c653a2063616c6c6572206973206e6f7420746865206f776e6572604482015290519081900360640190fd5b60028190556040805182815290517f804d99c2291bc4a6be11ff016f65cfc644f8d488ef55a5318d0217a1fdc4e9fd9181900360200190a150565b610812610d0b565b73ffffffffffffffffffffffffffffffffffffffff16610830610934565b73ffffffffffffffffffffffffffffffffffffffff16146108b257604080517f08c379a000000000000000000000000000000000000000000000000000000000815260206004820181905260248201527f4f776e61626c653a2063616c6c6572206973206e6f7420746865206f776e6572604482015290519081900360640190fd5b600354604080517f8525b71100000000000000000000000000000000000000000000000000000000815273ffffffffffffffffffffffffffffffffffffffff85811660048301526024820185905291516201000090930490911691638525b7119160448082019260009290919082900301818387803b15801561050257600080fd5b60005473ffffffffffffffffffffffffffffffffffffffff1690565b60015481565b60035460ff1681565b60025481565b61096d610d0b565b73ffffffffffffffffffffffffffffffffffffffff1661098b610934565b73ffffffffffffffffffffffffffffffffffffffff1614610a0d57604080517f08c379a000000000000000000000000000000000000000000000000000000000815260206004820181905260248201527f4f776e61626c653a2063616c6c6572206973206e6f7420746865206f776e6572604482015290519081900360640190fd5b60018190556040805182815290517ff2a316ed322d32481373e7ed416bc6c1ec2afcfa3bf2f1df9eb4300e1a9620e39181900360200190a150565b610a50610d0b565b73ffffffffffffffffffffffffffffffffffffffff16610a6e610934565b73ffffffffffffffffffffffffffffffffffffffff1614610af057604080517f08c379a000000000000000000000000000000000000000000000000000000000815260206004820181905260248201527f4f776e61626c653a2063616c6c6572206973206e6f7420746865206f776e6572604482015290519081900360640190fd5b6003805482151561010081027fffffffffffffffffffffffffffffffffffffffffffffffffffffffffffff00ff9092169190911790915560408051918252517f279d3ec34d7b325d10d4b9d6c63464877a6fe6ac3997f7508bdb3b9d2d5050b39181900360200190a150565b600354610100900460ff1681565b610b72610d0b565b73ffffffffffffffffffffffffffffffffffffffff16610b90610934565b73ffffffffffffffffffffffffffffffffffffffff1614610c1257604080517f08c379a000000000000000000000000000000000000000000000000000000000815260206004820181905260248201527f4f776e61626c653a2063616c6c6572206973206e6f7420746865206f776e6572604482015290519081900360640190fd5b73ffffffffffffffffffffffffffffffffffffffff8116610c7e576040517f08c379a0000000000000000000000000000000000000000000000000000000008152600401808060200182810382526026815260200180610e816026913960400191505060405180910390fd5b6000805460405173ffffffffffffffffffffffffffffffffffffffff808516939216917f8be0079c531659141344cd1fd0a4f28419497f9722a3daafe3b4186f6b6457e091a3600080547fffffffffffffffffffffffff00000000000000000000000000000000000000001673ffffffffffffffffffffffffffffffffffffffff92909216919091179055565b3390565b600082820183811015610d8357604080517f08c379a000000000000000000000000000000000000000000000000000000000815260206004820152601b60248201527f536166654d6174683a206164646974696f6e206f766572666c6f770000000000604482015290519081900360640190fd5b90505b92915050565b600082610d9b57506000610d86565b82820282848281610da857fe5b0414610d83576040517f08c379a0000000000000000000000000000000000000000000000000000000008152600401808060200182810382526021815260200180610ea76021913960400191505060405180910390fd5b6000808211610e6f57604080517f08c379a000000000000000000000000000000000000000000000000000000000815260206004820152601a60248201527f536166654d6174683a206469766973696f6e206279207a65726f000000000000604482015290519081900360640190fd5b818381610e7857fe5b04939250505056fe4f776e61626c653a206e6577206f776e657220697320746865207a65726f2061646472657373536166654d6174683a206d756c7469706c69636174696f6e206f766572666c6f77a2646970667358221220e505285b01e4be17442a971fe52b4e43f20ad88fab01a50d71272ea83a146da464736f6c63430007060033",
  "devdoc": {
    "kind": "dev",
    "methods": {
      "owner()": {
        "details": "Returns the address of the current owner."
      },
      "renounceOwnership()": {
        "details": "Leaves the contract without owner. It will not be possible to call `onlyOwner` functions anymore. Can only be called by the current owner. NOTE: Renouncing ownership will leave the contract without an owner, thereby removing any functionality that is only available to the owner."
      },
      "transferOwnership(address)": {
        "details": "Transfers ownership of the contract to a new account (`newOwner`). Can only be called by the current owner."
      }
    },
    "version": 1
  },
  "userdoc": {
    "kind": "user",
    "methods": {},
    "version": 1
  },
  "storageLayout": {
    "storage": [
      {
        "astId": 2484,
        "contract": "contracts/TreasuryV2.sol:TreasuryV2",
        "label": "_owner",
        "offset": 0,
        "slot": "0",
        "type": "t_address"
      },
      {
        "astId": 7836,
        "contract": "contracts/TreasuryV2.sol:TreasuryV2",
        "label": "nativeBP",
        "offset": 0,
        "slot": "1",
        "type": "t_uint256"
      },
      {
        "astId": 7838,
        "contract": "contracts/TreasuryV2.sol:TreasuryV2",
        "label": "zroFee",
        "offset": 0,
        "slot": "2",
        "type": "t_uint256"
      },
      {
        "astId": 7840,
        "contract": "contracts/TreasuryV2.sol:TreasuryV2",
        "label": "feeEnabled",
        "offset": 0,
        "slot": "3",
        "type": "t_bool"
      },
      {
        "astId": 7842,
        "contract": "contracts/TreasuryV2.sol:TreasuryV2",
        "label": "zroEnabled",
        "offset": 1,
        "slot": "3",
        "type": "t_bool"
      },
      {
        "astId": 7844,
        "contract": "contracts/TreasuryV2.sol:TreasuryV2",
        "label": "uln",
        "offset": 2,
        "slot": "3",
        "type": "t_contract(ILayerZeroUltraLightNodeV2)13800"
      }
    ],
    "types": {
      "t_address": {
        "encoding": "inplace",
        "label": "address",
        "numberOfBytes": "20"
      },
      "t_bool": {
        "encoding": "inplace",
        "label": "bool",
        "numberOfBytes": "1"
      },
      "t_contract(ILayerZeroUltraLightNodeV2)13800": {
        "encoding": "inplace",
        "label": "contract ILayerZeroUltraLightNodeV2",
        "numberOfBytes": "20"
      },
      "t_uint256": {
        "encoding": "inplace",
        "label": "uint256",
        "numberOfBytes": "32"
      }
    }
  }
}