{
  "address": "0x3c2269811836af69497E5F486A85D7316753cf62",
  "abi": [
    {
      "inputs": [
        {
          "internalType": "address",
          "name": "_endpoint",
          "type": "address"
        }
      ],
      "stateMutability": "nonpayable",
      "type": "constructor"
    },
    {
      "anonymous": false,
      "inputs": [
        {
          "indexed": true,
          "internalType": "address",
          "name": "previousOwner",
          "type": "address"
        },
        {
          "indexed": true,
          "internalType": "address",
          "name": "newOwner",
          "type": "address"
        }
      ],
      "name": "OwnershipTransferred",
      "type": "event"
    },
    {
      "stateMutability": "payable",
      "type": "fallback"
    },
    {
      "inputs": [
        {
          "internalType": "address",
          "name": "token",
          "type": "address"
        },
        {
          "internalType": "address",
          "name": "spender",
          "type": "address"
        },
        {
          "internalType": "uint256",
          "name": "amount",
          "type": "uint256"
        }
      ],
      "name": "approveTokenSpender",
      "outputs": [],
      "stateMutability": "nonpayable",
      "type": "function"
    },
    {
      "inputs": [],
      "name": "endpoint",
      "outputs": [
        {
          "internalType": "contract ILayerZeroEndpoint",
          "name": "",
          "type": "address"
        }
      ],
      "stateMutability": "view",
      "type": "function"
    },
    {
      "inputs": [
        {
          "internalType": "uint16",
          "name": "_srcChainId",
          "type": "uint16"
        },
        {
          "internalType": "bytes",
          "name": "_srcAddress",
          "type": "bytes"
        }
      ],
      "name": "forceResumeReceive",
      "outputs": [],
      "stateMutability": "nonpayable",
      "type": "function"
    },
    {
      "inputs": [
        {
          "internalType": "uint16",
          "name": "",
          "type": "uint16"
        },
        {
          "internalType": "uint16",
          "name": "_chainId",
          "type": "uint16"
        },
        {
          "internalType": "address",
          "name": "",
          "type": "address"
        },
        {
          "internalType": "uint256",
          "name": "_configType",
          "type": "uint256"
        }
      ],
      "name": "getConfig",
      "outputs": [
        {
          "internalType": "bytes",
          "name": "",
          "type": "bytes"
        }
      ],
      "stateMutability": "view",
      "type": "function"
    },
    {
      "inputs": [],
      "name": "getCounter",
      "outputs": [
        {
          "internalType": "uint256",
          "name": "",
          "type": "uint256"
        }
      ],
      "stateMutability": "view",
      "type": "function"
    },
    {
      "inputs": [],
      "name": "getReceiveVersion",
      "outputs": [
        {
          "internalType": "uint16",
          "name": "",
          "type": "uint16"
        }
      ],
      "stateMutability": "view",
      "type": "function"
    },
    {
      "inputs": [],
      "name": "getSendVersion",
      "outputs": [
        {
          "internalType": "uint16",
          "name": "",
          "type": "uint16"
        }
      ],
      "stateMutability": "view",
      "type": "function"
    },
    {
      "inputs": [
        {
          "internalType": "uint16",
          "name": "_dstChainId",
          "type": "uint16"
        },
        {
          "internalType": "bytes",
          "name": "_dstCounterMockAddress",
          "type": "bytes"
        }
      ],
      "name": "incrementCounter",
      "outputs": [],
      "stateMutability": "payable",
      "type": "function"
    },
    {
      "inputs": [
        {
          "internalType": "uint16[]",
          "name": "_dstChainIds",
          "type": "uint16[]"
        },
        {
          "internalType": "bytes[]",
          "name": "_dstCounterMockAddresses",
          "type": "bytes[]"
        },
        {
          "internalType": "address payable",
          "name": "_refundAddr",
          "type": "address"
        }
      ],
      "name": "incrementCounterMulti",
      "outputs": [],
      "stateMutability": "payable",
      "type": "function"
    },
    {
      "inputs": [
        {
          "internalType": "uint16[]",
          "name": "_dstChainIds",
          "type": "uint16[]"
        },
        {
          "internalType": "bytes[]",
          "name": "_dstCounterMockAddresses",
          "type": "bytes[]"
        },
        {
          "internalType": "bytes",
          "name": "_adapterParams",
          "type": "bytes"
        },
        {
          "internalType": "bytes",
          "name": "payload",
          "type": "bytes"
        }
      ],
      "name": "incrementCounterMultiAdapterParams",
      "outputs": [],
      "stateMutability": "payable",
      "type": "function"
    },
    {
      "inputs": [
        {
          "internalType": "uint16",
          "name": "_dstChainId",
          "type": "uint16"
        },
        {
          "internalType": "bytes",
          "name": "_dstCounterMockAddress",
          "type": "bytes"
        },
        {
          "internalType": "bytes",
          "name": "_adapterParams",
          "type": "bytes"
        },
        {
          "internalType": "bytes",
          "name": "payload",
          "type": "bytes"
        }
      ],
      "name": "incrementCounterWithAdapterParams",
      "outputs": [],
      "stateMutability": "payable",
      "type": "function"
    },
    {
      "inputs": [
        {
          "internalType": "uint16",
          "name": "_dstChainId",
          "type": "uint16"
        },
        {
          "internalType": "bytes",
          "name": "_dstCounterMockAddress",
          "type": "bytes"
        },
        {
          "internalType": "uint256",
          "name": "gasAmountForDst",
          "type": "uint256"
        }
      ],
      "name": "incrementCounterWithAdapterParamsV1",
      "outputs": [],
      "stateMutability": "payable",
      "type": "function"
    },
    {
      "inputs": [
        {
          "internalType": "uint16",
          "name": "_dstChainId",
          "type": "uint16"
        },
        {
          "internalType": "bytes",
          "name": "_dstCounterMockAddress",
          "type": "bytes"
        },
        {
          "internalType": "uint256",
          "name": "gasAmountForDst",
          "type": "uint256"
        },
        {
          "internalType": "uint256",
          "name": "airdropEthQty",
          "type": "uint256"
        },
        {
          "internalType": "address",
          "name": "airdropAddr",
          "type": "address"
        }
      ],
      "name": "incrementCounterWithAdapterParamsV2",
      "outputs": [],
      "stateMutability": "payable",
      "type": "function"
    },
    {
      "inputs": [
        {
          "internalType": "uint16",
          "name": "_dstChainId",
          "type": "uint16"
        },
        {
          "internalType": "bytes",
          "name": "_dstCounterMockAddress",
          "type": "bytes"
        },
        {
          "internalType": "bytes",
          "name": "payload",
          "type": "bytes"
        }
      ],
      "name": "incrementCounterWithPayload",
      "outputs": [],
      "stateMutability": "payable",
      "type": "function"
    },
    {
      "inputs": [
        {
          "internalType": "uint16",
          "name": "",
          "type": "uint16"
        },
        {
          "internalType": "bytes",
          "name": "_fromAddress",
          "type": "bytes"
        },
        {
          "internalType": "uint64",
          "name": "",
          "type": "uint64"
        },
        {
          "internalType": "bytes",
          "name": "_payload",
          "type": "bytes"
        }
      ],
      "name": "lzReceive",
      "outputs": [],
      "stateMutability": "nonpayable",
      "type": "function"
    },
    {
      "inputs": [],
      "name": "messageCounter",
      "outputs": [
        {
          "internalType": "uint256",
          "name": "",
          "type": "uint256"
        }
      ],
      "stateMutability": "view",
      "type": "function"
    },
    {
      "inputs": [],
      "name": "owner",
      "outputs": [
        {
          "internalType": "address",
          "name": "",
          "type": "address"
        }
      ],
      "stateMutability": "view",
      "type": "function"
    },
    {
      "inputs": [],
      "name": "payInZRO",
      "outputs": [
        {
          "internalType": "bool",
          "name": "",
          "type": "bool"
        }
      ],
      "stateMutability": "view",
      "type": "function"
    },
    {
      "inputs": [
        {
          "internalType": "address",
          "name": "",
          "type": "address"
        }
      ],
      "name": "remoteAddressCounter",
      "outputs": [
        {
          "internalType": "uint256",
          "name": "",
          "type": "uint256"
        }
      ],
      "stateMutability": "view",
      "type": "function"
    },
    {
      "inputs": [],
      "name": "renounceOwnership",
      "outputs": [],
      "stateMutability": "nonpayable",
      "type": "function"
    },
    {
      "inputs": [
        {
          "internalType": "uint16",
          "name": "",
          "type": "uint16"
        },
        {
          "internalType": "uint16",
          "name": "_chainId",
          "type": "uint16"
        },
        {
          "internalType": "uint256",
          "name": "_configType",
          "type": "uint256"
        },
        {
          "internalType": "bytes",
          "name": "_config",
          "type": "bytes"
        }
      ],
      "name": "setConfig",
      "outputs": [],
      "stateMutability": "nonpayable",
      "type": "function"
    },
    {
      "inputs": [
        {
          "internalType": "uint16",
          "name": "remoteChainId",
          "type": "uint16"
        },
        {
          "internalType": "uint16",
          "name": "confirmations",
          "type": "uint16"
        }
      ],
      "name": "setInboundConfirmations",
      "outputs": [],
      "stateMutability": "nonpayable",
      "type": "function"
    },
    {
      "inputs": [
        {
          "internalType": "uint16",
          "name": "dstChainId",
          "type": "uint16"
        },
        {
          "internalType": "address",
          "name": "oracle",
          "type": "address"
        }
      ],
      "name": "setOracle",
      "outputs": [],
      "stateMutability": "nonpayable",
      "type": "function"
    },
    {
      "inputs": [
        {
          "internalType": "uint16",
          "name": "remoteChainId",
          "type": "uint16"
        },
        {
          "internalType": "uint16",
          "name": "confirmations",
          "type": "uint16"
        }
      ],
      "name": "setOutboundConfirmations",
      "outputs": [],
      "stateMutability": "nonpayable",
      "type": "function"
    },
    {
      "inputs": [
        {
          "internalType": "bool",
          "name": "_payInZRO",
          "type": "bool"
        }
      ],
      "name": "setPayInZRO",
      "outputs": [],
      "stateMutability": "nonpayable",
      "type": "function"
    },
    {
      "inputs": [
        {
          "internalType": "uint16",
          "name": "version",
          "type": "uint16"
        }
      ],
      "name": "setReceiveVersion",
      "outputs": [],
      "stateMutability": "nonpayable",
      "type": "function"
    },
    {
      "inputs": [
        {
          "internalType": "uint16",
          "name": "version",
          "type": "uint16"
        }
      ],
      "name": "setSendVersion",
      "outputs": [],
      "stateMutability": "nonpayable",
      "type": "function"
    },
    {
      "inputs": [
        {
          "internalType": "address",
          "name": "newOwner",
          "type": "address"
        }
      ],
      "name": "transferOwnership",
      "outputs": [],
      "stateMutability": "nonpayable",
      "type": "function"
    },
    {
      "stateMutability": "payable",
      "type": "receive"
    }
  ],
  "transactionHash": "0x88f73dc834551c07654c4839efbe2433e519b00a92947bc7bf930dd8c27ca50a",
  "args": [
    "0x9740FF91F1985D8d2B71494aE1A2f723bb3Ed9E4"
  ],
  "numDeployments": 1,
  "solcInputHash": "43da9703b1a9e7894fd14a6ab53873ca",
  "bytecode": "0x60806040523480156200001157600080fd5b5060405162002e2e38038062002e2e8339810160408190526200003491620000b4565b600062000040620000b0565b600080546001600160a01b0319166001600160a01b0383169081178255604051929350917f8be0079c531659141344cd1fd0a4f28419497f9722a3daafe3b4186f6b6457e0908290a350600380546001600160a01b0319166001600160a01b0392909216919091179055620000e4565b3390565b600060208284031215620000c6578081fd5b81516001600160a01b0381168114620000dd578182fd5b9392505050565b612d3a80620000f46000396000f3fe6080604052600436106101ba5760003560e01c8063715018a6116100ec578063b7e0f7ba1161008a578063d7d3c3b911610064578063d7d3c3b9146104a9578063ed0cc14f146104c9578063f2fde38b146104dc578063f5ecbdbc146104fc57610210565b8063b7e0f7ba14610454578063cbed8b9c14610474578063cf5d14711461049457610210565b80638da5cb5b116100c65780638da5cb5b1461040657806394b90c2c1461041b5780639cd0e6301461042e578063a245b77b1461044157610210565b8063715018a6146103ba5780637af9ce73146103cf5780638ada066e146103f157610210565b806342d65a8d11610159578063529c758811610133578063529c75881461032b57806354a5beda146103565780635e280f11146103785780636df653711461039a57610210565b806342d65a8d146102d8578063492e527e146102f85780634dc21b1a1461031857610210565b806310ddb1371161019557806310ddb137146102655780632b2257dc146102855780633046a8f1146102a557806341e63d13146102b857610210565b80621d35671461021257806307e0db171461023257806308d968b91461025257610210565b36610210576103e8341080156101d1575034600a14155b610210576040517f08c379a0000000000000000000000000000000000000000000000000000000008152600401610207906127f6565b60405180910390fd5b005b34801561021e57600080fd5b5061021061022d366004612370565b610529565b34801561023e57600080fd5b5061021061024d3660046120b0565b61071f565b6102106102603660046122f6565b6107aa565b34801561027157600080fd5b506102106102803660046120b0565b61089a565b34801561029157600080fd5b506102106102a03660046123fc565b6108f0565b6102106102b33660046121f3565b610a16565b3480156102c457600080fd5b506102106102d336600461200e565b610aba565b3480156102e457600080fd5b506102106102f3366004612120565b610bac565b34801561030457600080fd5b506102106103133660046120e8565b610bb1565b610210610326366004611ece565b610cd8565b34801561033757600080fd5b50610340610eb8565b60405161034d9190612b1e565b60405180910390f35b34801561036257600080fd5b5061036b610ebe565b60405161034d9190612879565b34801561038457600080fd5b5061038d610f6a565b60405161034d91906126a0565b3480156103a657600080fd5b506102106103b53660046123fc565b610f86565b3480156103c657600080fd5b50610210611048565b3480156103db57600080fd5b506103e461115f565b60405161034d91906126e7565b3480156103fd57600080fd5b50610340611180565b34801561041257600080fd5b5061038d611186565b610210610429366004611f4f565b6111a2565b61021061043c366004612173565b61141d565b61021061044f36600461229c565b6114f9565b34801561046057600080fd5b5061034061046f366004611e72565b6115a9565b34801561048057600080fd5b5061021061048f366004612479565b6115bb565b3480156104a057600080fd5b5061036b6116c6565b3480156104b557600080fd5b506102106104c4366004611e8e565b61171d565b6102106104d7366004612120565b611871565b3480156104e857600080fd5b506102106104f7366004611e72565b611933565b34801561050857600080fd5b5061051c610517366004612429565b611ad4565b60405161034d91906126f2565b60035473ffffffffffffffffffffffffffffffffffffffff16331461054d57600080fd5b6014830151604051610583907f6666000000000000000000000000000000000000000000000000000000000000906020016125bb565b60405160208183030381529060405280519060200120826040516020016105aa91906125e8565b60405160208183030381529060405280519060200120148061063757507f66660000000000000000000000000000000000000000000000000000000000006040516020016105f8919061258e565b604051602081830303815290604052805190602001208260405160200161061f91906125e8565b60405160208183030381529060405280519060200120145b156106e557600354604080516020808201835260008083528351918201845280825292517fc2fa481300000000000000000000000000000000000000000000000000000000815273ffffffffffffffffffffffffffffffffffffffff9094169363c2fa4813936106b293600193909284918291600401612705565b600060405180830381600087803b1580156106cc57600080fd5b505af11580156106e0573d6000803e3d6000fd5b505050505b73ffffffffffffffffffffffffffffffffffffffff1660009081526002602052604090208054600190810190915580548101905550505050565b6003546040517f07e0db1700000000000000000000000000000000000000000000000000000000815273ffffffffffffffffffffffffffffffffffffffff909116906307e0db1790610775908490600401612879565b600060405180830381600087803b15801561078f57600080fd5b505af11580156107a3573d6000803e3d6000fd5b5050505050565b6040516002906000906107c7908390879087908790602001612639565b604080517fffffffffffffffffffffffffffffffffffffffffffffffffffffffffffffffe0818403018152600354602084018352600080855292517fc580310000000000000000000000000000000000000000000000000000000000815291945073ffffffffffffffffffffffffffffffffffffffff169263c580310092349261085e928e928e928e929133918b906004016129ce565b6000604051808303818588803b15801561087757600080fd5b505af115801561088b573d6000803e3d6000fd5b50505050505050505050505050565b6003546040517f10ddb13700000000000000000000000000000000000000000000000000000000815273ffffffffffffffffffffffffffffffffffffffff909116906310ddb13790610775908490600401612879565b6003546040517f096568f600000000000000000000000000000000000000000000000000000000815273ffffffffffffffffffffffffffffffffffffffff9091169063cbed8b9c90829063096568f69061094e9030906004016126a0565b60206040518083038186803b15801561096657600080fd5b505afa15801561097a573d6000803e3d6000fd5b505050506040513d601f19601f8201168201806040525081019061099e91906120cc565b846005856040516020016109b29190612879565b6040516020818303038152906040526040518563ffffffff1660e01b81526004016109e09493929190612aae565b600060405180830381600087803b1580156109fa57600080fd5b505af1158015610a0e573d6000803e3d6000fd5b505050505050565b6003546040517fc580310000000000000000000000000000000000000000000000000000000000815273ffffffffffffffffffffffffffffffffffffffff9091169063c5803100903490610a7f908b908b908b908990899033906000908f908f906004016128dc565b6000604051808303818588803b158015610a9857600080fd5b505af1158015610aac573d6000803e3d6000fd5b505050505050505050505050565b610ac2611c20565b73ffffffffffffffffffffffffffffffffffffffff16610ae0611186565b73ffffffffffffffffffffffffffffffffffffffff1614610b6257604080517f08c379a000000000000000000000000000000000000000000000000000000000815260206004820181905260248201527f4f776e61626c653a2063616c6c6572206973206e6f7420746865206f776e6572604482015290519081900360640190fd5b6003805491151574010000000000000000000000000000000000000000027fffffffffffffffffffffff00ffffffffffffffffffffffffffffffffffffffff909216919091179055565b505050565b6003546040517f096568f600000000000000000000000000000000000000000000000000000000815260069173ffffffffffffffffffffffffffffffffffffffff169063cbed8b9c90829063096568f690610c109030906004016126a0565b60206040518083038186803b158015610c2857600080fd5b505afa158015610c3c573d6000803e3d6000fd5b505050506040513d601f19601f82011682018060405250810190610c6091906120cc565b858486604051602001610c7391906126a0565b6040516020818303038152906040526040518563ffffffff1660e01b8152600401610ca19493929190612aae565b600060405180830381600087803b158015610cbb57600080fd5b505af1158015610ccf573d6000803e3d6000fd5b50505050505050565b838214610d11576040517f08c379a000000000000000000000000000000000000000000000000000000000815260040161020790612773565b836000610d1e3483611c24565b60035490915060009074010000000000000000000000000000000000000000900460ff16610d4d576000610d4f565b305b905060005b83811015610e4f5760035473ffffffffffffffffffffffffffffffffffffffff1663c5803100848b8b85818110610d8757fe5b9050602002016020810190610d9c91906120b0565b8a8a86818110610da857fe5b9050602002810190610dba9190612b27565b6040805160208082018352600080835283519182018452815291517fffffffff0000000000000000000000000000000000000000000000000000000060e089901b168152610e12959493928e918c91906004016129ce565b6000604051808303818588803b158015610e2b57600080fd5b505af1158015610e3f573d6000803e3d6000fd5b5050505050806001019050610d54565b506000610e66610e5f8486611ca7565b3490611d21565b60405190915073ffffffffffffffffffffffffffffffffffffffff86169082156108fc029083906000818181858888f19350505050158015610eac573d6000803e3d6000fd5b50505050505050505050565b60015481565b6003546040517f096568f600000000000000000000000000000000000000000000000000000000815260009173ffffffffffffffffffffffffffffffffffffffff169063096568f690610f159030906004016126a0565b60206040518083038186803b158015610f2d57600080fd5b505afa158015610f41573d6000803e3d6000fd5b505050506040513d601f19601f82011682018060405250810190610f6591906120cc565b905090565b60035473ffffffffffffffffffffffffffffffffffffffff1681565b6003546040517f096568f600000000000000000000000000000000000000000000000000000000815273ffffffffffffffffffffffffffffffffffffffff9091169063cbed8b9c90829063096568f690610fe49030906004016126a0565b60206040518083038186803b158015610ffc57600080fd5b505afa158015611010573d6000803e3d6000fd5b505050506040513d601f19601f8201168201806040525081019061103491906120cc565b846002856040516020016109b29190612879565b611050611c20565b73ffffffffffffffffffffffffffffffffffffffff1661106e611186565b73ffffffffffffffffffffffffffffffffffffffff16146110f057604080517f08c379a000000000000000000000000000000000000000000000000000000000815260206004820181905260248201527f4f776e61626c653a2063616c6c6572206973206e6f7420746865206f776e6572604482015290519081900360640190fd5b6000805460405173ffffffffffffffffffffffffffffffffffffffff909116907f8be0079c531659141344cd1fd0a4f28419497f9722a3daafe3b4186f6b6457e0908390a3600080547fffffffffffffffffffffffff0000000000000000000000000000000000000000169055565b60035474010000000000000000000000000000000000000000900460ff1681565b60015490565b60005473ffffffffffffffffffffffffffffffffffffffff1690565b600088888080602002602001604051908101604052809392919081815260200183836020028082843760009201829052509394506111e692508991508a9050612bee565b9050600086868080601f01602080910402602001604051908101604052809392919081815260200183838082843760009201919091525050845186519394509290921491506112639050576040517f08c379a000000000000000000000000000000000000000000000000000000000815260040161020790612773565b3460005b84518110156113ef57600354855160009173ffffffffffffffffffffffffffffffffffffffff16906340a7bb10908890859081106112a157fe5b6020026020010151308b8b600360149054906101000a900460ff168a6040518763ffffffff1660e01b81526004016112de96959493929190612888565b604080518083038186803b1580156112f557600080fd5b505afa158015611309573d6000803e3d6000fd5b505050506040513d601f19601f8201168201806040525081019061132d91906124d9565b50905061133a8382611d21565b600354875191945073ffffffffffffffffffffffffffffffffffffffff169063c580310090839089908690811061136d57fe5b602002602001015188868151811061138157fe5b60200260200101518c8c3360008c6040518963ffffffff1660e01b81526004016113b19796959493929190612a44565b6000604051808303818588803b1580156113ca57600080fd5b505af11580156113de573d6000803e3d6000fd5b505050505050806001019050611267565b50604051339082156108fc029083906000818181858888f1935050505015801561088b573d6000803e3d6000fd5b60035460009074010000000000000000000000000000000000000000900460ff1661144957600061144b565b305b600354604080516020810182526000815290517fc580310000000000000000000000000000000000000000000000000000000000815292935073ffffffffffffffffffffffffffffffffffffffff9091169163c58031009134916114bf918b918b918b918b918b9133918c91600401612956565b6000604051808303818588803b1580156114d857600080fd5b505af11580156114ec573d6000803e3d6000fd5b5050505050505050505050565b6040516001906000906115129083908590602001612604565b604080517fffffffffffffffffffffffffffffffffffffffffffffffffffffffffffffffe0818403018152600354602084018352600080855292517fc580310000000000000000000000000000000000000000000000000000000000815291945073ffffffffffffffffffffffffffffffffffffffff169263c58031009234926114bf928c928c928c929133918b906004016129ce565b60026020526000908152604090205481565b6003546040517f096568f600000000000000000000000000000000000000000000000000000000815273ffffffffffffffffffffffffffffffffffffffff9091169063cbed8b9c90829063096568f6906116199030906004016126a0565b60206040518083038186803b15801561163157600080fd5b505afa158015611645573d6000803e3d6000fd5b505050506040513d601f19601f8201168201806040525081019061166991906120cc565b868686866040518663ffffffff1660e01b815260040161168d959493929190612ae5565b600060405180830381600087803b1580156116a757600080fd5b505af11580156116bb573d6000803e3d6000fd5b505050505050505050565b6003546040517fda1a7c9a00000000000000000000000000000000000000000000000000000000815260009173ffffffffffffffffffffffffffffffffffffffff169063da1a7c9a90610f159030906004016126a0565b611725611c20565b73ffffffffffffffffffffffffffffffffffffffff16611743611186565b73ffffffffffffffffffffffffffffffffffffffff16146117c557604080517f08c379a000000000000000000000000000000000000000000000000000000000815260206004820181905260248201527f4f776e61626c653a2063616c6c6572206973206e6f7420746865206f776e6572604482015290519081900360640190fd5b6040517f095ea7b300000000000000000000000000000000000000000000000000000000815273ffffffffffffffffffffffffffffffffffffffff84169063095ea7b39061181990859085906004016126c1565b602060405180830381600087803b15801561183357600080fd5b505af1158015611847573d6000803e3d6000fd5b505050506040513d601f19601f8201168201806040525081019061186b919061202a565b50505050565b60035460009074010000000000000000000000000000000000000000900460ff1661189d57600061189f565b305b6003546040805160208082018352600080835283519182018452815291517fc580310000000000000000000000000000000000000000000000000000000000815293945073ffffffffffffffffffffffffffffffffffffffff9092169263c580310092349261191a928a928a928a9233918b916004016129ce565b6000604051808303818588803b1580156116a757600080fd5b61193b611c20565b73ffffffffffffffffffffffffffffffffffffffff16611959611186565b73ffffffffffffffffffffffffffffffffffffffff16146119db57604080517f08c379a000000000000000000000000000000000000000000000000000000000815260206004820181905260248201527f4f776e61626c653a2063616c6c6572206973206e6f7420746865206f776e6572604482015290519081900360640190fd5b73ffffffffffffffffffffffffffffffffffffffff8116611a47576040517f08c379a0000000000000000000000000000000000000000000000000000000008152600401808060200182810382526026815260200180612cbe6026913960400191505060405180910390fd5b6000805460405173ffffffffffffffffffffffffffffffffffffffff808516939216917f8be0079c531659141344cd1fd0a4f28419497f9722a3daafe3b4186f6b6457e091a3600080547fffffffffffffffffffffffff00000000000000000000000000000000000000001673ffffffffffffffffffffffffffffffffffffffff92909216919091179055565b6003546040517f096568f600000000000000000000000000000000000000000000000000000000815260609173ffffffffffffffffffffffffffffffffffffffff169063f5ecbdbc90829063096568f690611b339030906004016126a0565b60206040518083038186803b158015611b4b57600080fd5b505afa158015611b5f573d6000803e3d6000fd5b505050506040513d601f19601f82011682018060405250810190611b8391906120cc565b8630866040518563ffffffff1660e01b8152600401611ba59493929190612a74565b60006040518083038186803b158015611bbd57600080fd5b505afa158015611bd1573d6000803e3d6000fd5b505050506040513d6000823e601f3d9081017fffffffffffffffffffffffffffffffffffffffffffffffffffffffffffffffe0168201604052611c179190810190612046565b95945050505050565b3390565b6000808211611c9457604080517f08c379a000000000000000000000000000000000000000000000000000000000815260206004820152601a60248201527f536166654d6174683a206469766973696f6e206279207a65726f000000000000604482015290519081900360640190fd5b818381611c9d57fe5b0490505b92915050565b600082611cb657506000611ca1565b82820282848281611cc357fe5b0414611d1a576040517f08c379a0000000000000000000000000000000000000000000000000000000008152600401808060200182810382526021815260200180612ce46021913960400191505060405180910390fd5b9392505050565b600082821115611d9257604080517f08c379a000000000000000000000000000000000000000000000000000000000815260206004820152601e60248201527f536166654d6174683a207375627472616374696f6e206f766572666c6f770000604482015290519081900360640190fd5b50900390565b60008083601f840112611da9578182fd5b50813567ffffffffffffffff811115611dc0578182fd5b6020830191508360208083028501011115611dda57600080fd5b9250929050565b60008083601f840112611df2578182fd5b50813567ffffffffffffffff811115611e09578182fd5b602083019150836020828501011115611dda57600080fd5b600082601f830112611e31578081fd5b8135611e44611e3f82612bae565b612b8a565b818152846020838601011115611e58578283fd5b816020850160208301379081016020019190915292915050565b600060208284031215611e83578081fd5b8135611d1a81612c7a565b600080600060608486031215611ea2578182fd5b8335611ead81612c7a565b92506020840135611ebd81612c7a565b929592945050506040919091013590565b600080600080600060608688031215611ee5578081fd5b853567ffffffffffffffff80821115611efc578283fd5b611f0889838a01611d98565b90975095506020880135915080821115611f20578283fd5b50611f2d88828901611d98565b9094509250506040860135611f4181612c7a565b809150509295509295909350565b6000806000806000806000806080898b031215611f6a578283fd5b883567ffffffffffffffff80821115611f81578485fd5b611f8d8c838d01611d98565b909a50985060208b0135915080821115611fa5578485fd5b611fb18c838d01611d98565b909850965060408b0135915080821115611fc9578485fd5b611fd58c838d01611de1565b909650945060608b0135915080821115611fed578384fd5b50611ffa8b828c01611de1565b999c989b5096995094979396929594505050565b60006020828403121561201f578081fd5b8135611d1a81612c9f565b60006020828403121561203b578081fd5b8151611d1a81612c9f565b600060208284031215612057578081fd5b815167ffffffffffffffff81111561206d578182fd5b8201601f8101841361207d578182fd5b805161208b611e3f82612bae565b81815285602083850101111561209f578384fd5b611c17826020830160208601612c4e565b6000602082840312156120c1578081fd5b8135611d1a81612cad565b6000602082840312156120dd578081fd5b8151611d1a81612cad565b600080604083850312156120fa578182fd5b823561210581612cad565b9150602083013561211581612c7a565b809150509250929050565b600080600060408486031215612134578081fd5b833561213f81612cad565b9250602084013567ffffffffffffffff81111561215a578182fd5b61216686828701611de1565b9497909650939450505050565b60008060008060006060868803121561218a578283fd5b853561219581612cad565b9450602086013567ffffffffffffffff808211156121b1578485fd5b6121bd89838a01611de1565b909650945060408801359150808211156121d5578283fd5b506121e288828901611de1565b969995985093965092949392505050565b60008060008060008060006080888a03121561220d578081fd5b873561221881612cad565b9650602088013567ffffffffffffffff80821115612234578283fd5b6122408b838c01611de1565b909850965060408a0135915080821115612258578283fd5b6122648b838c01611de1565b909650945060608a013591508082111561227c578283fd5b506122898a828b01611de1565b989b979a50959850939692959293505050565b600080600080606085870312156122b1578182fd5b84356122bc81612cad565b9350602085013567ffffffffffffffff8111156122d7578283fd5b6122e387828801611de1565b9598909750949560400135949350505050565b60008060008060008060a0878903121561230e578384fd5b863561231981612cad565b9550602087013567ffffffffffffffff811115612334578485fd5b61234089828a01611de1565b9096509450506040870135925060608701359150608087013561236281612c7a565b809150509295509295509295565b60008060008060808587031215612385578182fd5b843561239081612cad565b9350602085013567ffffffffffffffff808211156123ac578384fd5b6123b888838901611e21565b94506040870135915080821682146123ce578384fd5b909250606086013590808211156123e3578283fd5b506123f087828801611e21565b91505092959194509250565b6000806040838503121561240e578182fd5b823561241981612cad565b9150602083013561211581612cad565b6000806000806080858703121561243e578182fd5b843561244981612cad565b9350602085013561245981612cad565b9250604085013561246981612c7a565b9396929550929360600135925050565b600080600080600060808688031215612490578283fd5b853561249b81612cad565b945060208601356124ab81612cad565b935060408601359250606086013567ffffffffffffffff8111156124cd578182fd5b6121e288828901611de1565b600080604083850312156124eb578182fd5b505080516020909101519092909150565b600082845282826020860137806020848601015260207fffffffffffffffffffffffffffffffffffffffffffffffffffffffffffffffe0601f85011685010190509392505050565b6000815180845261255c816020860160208601612c4e565b601f017fffffffffffffffffffffffffffffffffffffffffffffffffffffffffffffffe0169290920160200192915050565b7fffffffffffffffffffff00000000000000000000000000000000000000000000919091168152600a0190565b7fffff00000000000000000000000000000000000000000000000000000000000091909116815260020190565b600082516125fa818460208701612c4e565b9190910192915050565b60f09290921b7fffff000000000000000000000000000000000000000000000000000000000000168252600282015260220190565b60f09490941b7fffff0000000000000000000000000000000000000000000000000000000000001684526002840192909252602283015260601b7fffffffffffffffffffffffffffffffffffffffff00000000000000000000000016604282015260560190565b73ffffffffffffffffffffffffffffffffffffffff91909116815260200190565b73ffffffffffffffffffffffffffffffffffffffff929092168252602082015260400190565b901515815260200190565b600060208252611d1a6020830184612544565b600061ffff8816825260c0602083015261272260c0830188612544565b73ffffffffffffffffffffffffffffffffffffffff8716604084015267ffffffffffffffff8616606084015284608084015282810360a08401526127668185612544565b9998505050505050505050565b60208082526041908201527f5f647374436861696e4964732e6c656e6774682c205f647374436f756e74657260408201527f4d6f636b4164647265737365732e6c656e677468206e6f74207468652073616d60608201527f6500000000000000000000000000000000000000000000000000000000000000608082015260a00190565b60208082526044908201527f44696420796f75206d65616e20746f2073656e64206120626c6f636b6564206160408201527f6d6f756e74202d20636865636b20726563656976652829202f2066616c6c626160608201527f636b282900000000000000000000000000000000000000000000000000000000608082015260a00190565b61ffff91909116815260200190565b600061ffff8816825273ffffffffffffffffffffffffffffffffffffffff8716602083015260a060408301526128c260a0830186886124fc565b841515606084015282810360808401526127668185612544565b600061ffff8b16825260c060208301526128fa60c083018a8c6124fc565b828103604084015261290d81898b6124fc565b73ffffffffffffffffffffffffffffffffffffffff88811660608601528716608085015283810360a085015290506129468185876124fc565b9c9b505050505050505050505050565b600061ffff8a16825260c0602083015261297460c08301898b6124fc565b828103604084015261298781888a6124fc565b73ffffffffffffffffffffffffffffffffffffffff87811660608601528616608085015283810360a085015290506129bf8185612544565b9b9a5050505050505050505050565b600061ffff8916825260c060208301526129ec60c08301888a6124fc565b82810360408401526129fe8188612544565b73ffffffffffffffffffffffffffffffffffffffff87811660608601528616608085015283810360a08501529050612a368185612544565b9a9950505050505050505050565b600061ffff8916825260c06020830152612a6160c0830189612544565b82810360408401526129fe81888a6124fc565b61ffff948516815292909316602083015273ffffffffffffffffffffffffffffffffffffffff166040820152606081019190915260800190565b600061ffff808716835280861660208401525083604083015260806060830152612adb6080830184612544565b9695505050505050565b600061ffff808816835280871660208401525084604083015260806060830152612b136080830184866124fc565b979650505050505050565b90815260200190565b60008083357fffffffffffffffffffffffffffffffffffffffffffffffffffffffffffffffe1843603018112612b5b578283fd5b83018035915067ffffffffffffffff821115612b75578283fd5b602001915036819003821315611dda57600080fd5b60405181810167ffffffffffffffff81118282101715612ba657fe5b604052919050565b600067ffffffffffffffff821115612bc257fe5b50601f017fffffffffffffffffffffffffffffffffffffffffffffffffffffffffffffffe01660200190565b600067ffffffffffffffff831115612c0257fe5b6020612c118182860201612b8a565b8481528181019084845b87811015612c4257612c303683358901611e21565b84529284019290840190600101612c1b565b50909695505050505050565b60005b83811015612c69578181015183820152602001612c51565b8381111561186b5750506000910152565b73ffffffffffffffffffffffffffffffffffffffff81168114612c9c57600080fd5b50565b8015158114612c9c57600080fd5b61ffff81168114612c9c57600080fdfe4f776e61626c653a206e6577206f776e657220697320746865207a65726f2061646472657373536166654d6174683a206d756c7469706c69636174696f6e206f766572666c6f77a2646970667358221220ea6f80b286eab46ff18aff4044791cb33f5ba66b7013470eac3287b77b16173264736f6c63430007060033",
  "devdoc": {
    "kind": "dev",
    "methods": {
      "owner()": {
        "details": "Returns the address of the current owner."
      },
      "renounceOwnership()": {
        "details": "Leaves the contract without owner. It will not be possible to call `onlyOwner` functions anymore. Can only be called by the current owner. NOTE: Renouncing ownership will leave the contract without an owner, thereby removing any functionality that is only available to the owner."
      },
      "transferOwnership(address)": {
        "details": "Transfers ownership of the contract to a new account (`newOwner`). Can only be called by the current owner."
      }
    },
    "version": 1
  },
  "userdoc": {
    "kind": "user",
    "methods": {},
    "version": 1
  },
  "storageLayout": {
    "storage": [
      {
        "astId": 2990,
        "contract": "contracts/mocks/OmniCounter.sol:OmniCounter",
        "label": "_owner",
        "offset": 0,
        "slot": "0",
        "type": "t_address"
      },
      {
        "astId": 14849,
        "contract": "contracts/mocks/OmniCounter.sol:OmniCounter",
        "label": "messageCounter",
        "offset": 0,
        "slot": "1",
        "type": "t_uint256"
      },
      {
        "astId": 14853,
        "contract": "contracts/mocks/OmniCounter.sol:OmniCounter",
        "label": "remoteAddressCounter",
        "offset": 0,
        "slot": "2",
        "type": "t_mapping(t_address,t_uint256)"
      },
      {
        "astId": 14855,
        "contract": "contracts/mocks/OmniCounter.sol:OmniCounter",
        "label": "endpoint",
        "offset": 0,
        "slot": "3",
        "type": "t_contract(ILayerZeroEndpoint)13257"
      },
      {
        "astId": 14857,
        "contract": "contracts/mocks/OmniCounter.sol:OmniCounter",
        "label": "payInZRO",
        "offset": 20,
        "slot": "3",
        "type": "t_bool"
      }
    ],
    "types": {
      "t_address": {
        "encoding": "inplace",
        "label": "address",
        "numberOfBytes": "20"
      },
      "t_bool": {
        "encoding": "inplace",
        "label": "bool",
        "numberOfBytes": "1"
      },
      "t_contract(ILayerZeroEndpoint)13257": {
        "encoding": "inplace",
        "label": "contract ILayerZeroEndpoint",
        "numberOfBytes": "20"
      },
      "t_mapping(t_address,t_uint256)": {
        "encoding": "mapping",
        "key": "t_address",
        "label": "mapping(address => uint256)",
        "numberOfBytes": "32",
        "value": "t_uint256"
      },
      "t_uint256": {
        "encoding": "inplace",
        "label": "uint256",
        "numberOfBytes": "32"
      }
    }
  }
}