{
  "address": "0x33419108f5F3B7FA0029F54F8C0042330D46e2a7",
  "abi": [
    {
      "inputs": [],
      "stateMutability": "nonpayable",
      "type": "constructor"
    },
    {
      "anonymous": false,
      "inputs": [
        {
          "indexed": false,
          "internalType": "uint16",
          "name": "dstChainId",
          "type": "uint16"
        },
        {
          "indexed": false,
          "internalType": "uint16",
          "name": "_outboundProofType",
          "type": "uint16"
        },
        {
          "indexed": false,
          "internalType": "uint256",
          "name": "blockConfirmations",
          "type": "uint256"
        }
      ],
      "name": "OracleNotified",
      "type": "event"
    },
    {
      "anonymous": false,
      "inputs": [
        {
          "indexed": true,
          "internalType": "address",
          "name": "previousOwner",
          "type": "address"
        },
        {
          "indexed": true,
          "internalType": "address",
          "name": "newOwner",
          "type": "address"
        }
      ],
      "name": "OwnershipTransferred",
      "type": "event"
    },
    {
      "anonymous": false,
      "inputs": [
        {
          "indexed": false,
          "internalType": "address",
          "name": "to",
          "type": "address"
        },
        {
          "indexed": false,
          "internalType": "uint256",
          "name": "amount",
          "type": "uint256"
        }
      ],
      "name": "Withdraw",
      "type": "event"
    },
    {
      "stateMutability": "payable",
      "type": "fallback"
    },
    {
      "inputs": [
        {
          "internalType": "address",
          "name": "",
          "type": "address"
        }
      ],
      "name": "approvedAddresses",
      "outputs": [
        {
          "internalType": "bool",
          "name": "",
          "type": "bool"
        }
      ],
      "stateMutability": "view",
      "type": "function"
    },
    {
      "inputs": [
        {
          "internalType": "uint16",
          "name": "_dstChainId",
          "type": "uint16"
        },
        {
          "internalType": "uint16",
          "name": "_outboundProofType",
          "type": "uint16"
        },
        {
          "internalType": "uint64",
          "name": "_outboundBlockConfirmation",
          "type": "uint64"
        },
        {
          "internalType": "address",
          "name": "",
          "type": "address"
        }
      ],
      "name": "assignJob",
      "outputs": [
        {
          "internalType": "uint256",
          "name": "price",
          "type": "uint256"
        }
      ],
      "stateMutability": "nonpayable",
      "type": "function"
    },
    {
      "inputs": [
        {
          "internalType": "uint16",
          "name": "",
          "type": "uint16"
        },
        {
          "internalType": "uint16",
          "name": "",
          "type": "uint16"
        }
      ],
      "name": "chainPriceLookup",
      "outputs": [
        {
          "internalType": "uint256",
          "name": "",
          "type": "uint256"
        }
      ],
      "stateMutability": "view",
      "type": "function"
    },
    {
      "inputs": [],
      "name": "fee",
      "outputs": [
        {
          "internalType": "uint256",
          "name": "",
          "type": "uint256"
        }
      ],
      "stateMutability": "view",
      "type": "function"
    },
    {
      "inputs": [
        {
          "internalType": "uint16",
          "name": "_dstChainId",
          "type": "uint16"
        },
        {
          "internalType": "uint16",
          "name": "_outboundProofType",
          "type": "uint16"
        },
        {
          "internalType": "uint64",
          "name": "",
          "type": "uint64"
        },
        {
          "internalType": "address",
          "name": "",
          "type": "address"
        }
      ],
      "name": "getFee",
      "outputs": [
        {
          "internalType": "uint256",
          "name": "",
          "type": "uint256"
        }
      ],
      "stateMutability": "view",
      "type": "function"
    },
    {
      "inputs": [
        {
          "internalType": "address",
          "name": "_relayerAddress",
          "type": "address"
        }
      ],
      "name": "isApproved",
      "outputs": [
        {
          "internalType": "bool",
          "name": "",
          "type": "bool"
        }
      ],
      "stateMutability": "view",
      "type": "function"
    },
    {
      "inputs": [
        {
          "internalType": "uint16",
          "name": "",
          "type": "uint16"
        },
        {
          "internalType": "uint16",
          "name": "",
          "type": "uint16"
        }
      ],
      "name": "jobs",
      "outputs": [
        {
          "internalType": "uint64",
          "name": "",
          "type": "uint64"
        }
      ],
      "stateMutability": "view",
      "type": "function"
    },
    {
      "inputs": [],
      "name": "owner",
      "outputs": [
        {
          "internalType": "address",
          "name": "",
          "type": "address"
        }
      ],
      "stateMutability": "view",
      "type": "function"
    },
    {
      "inputs": [],
      "name": "renounceOwnership",
      "outputs": [],
      "stateMutability": "nonpayable",
      "type": "function"
    },
    {
      "inputs": [
        {
          "internalType": "address",
          "name": "_oracleAddress",
          "type": "address"
        },
        {
          "internalType": "bool",
          "name": "_approve",
          "type": "bool"
        }
      ],
      "name": "setApprovedAddress",
      "outputs": [],
      "stateMutability": "nonpayable",
      "type": "function"
    },
    {
      "inputs": [
        {
          "internalType": "uint16",
          "name": "_dstChainId",
          "type": "uint16"
        },
        {
          "internalType": "address",
          "name": "_deliveryAddress",
          "type": "address"
        }
      ],
      "name": "setDeliveryAddress",
      "outputs": [],
      "stateMutability": "nonpayable",
      "type": "function"
    },
    {
      "inputs": [
        {
          "internalType": "uint16",
          "name": "_destinationChainId",
          "type": "uint16"
        },
        {
          "internalType": "uint16",
          "name": "_outboundProofType",
          "type": "uint16"
        },
        {
          "internalType": "uint256",
          "name": "_price",
          "type": "uint256"
        }
      ],
      "name": "setPrice",
      "outputs": [],
      "stateMutability": "nonpayable",
      "type": "function"
    },
    {
      "inputs": [
        {
          "internalType": "address",
          "name": "ulnAddress",
          "type": "address"
        }
      ],
      "name": "setUln",
      "outputs": [],
      "stateMutability": "nonpayable",
      "type": "function"
    },
    {
      "inputs": [
        {
          "internalType": "address",
          "name": "newOwner",
          "type": "address"
        }
      ],
      "name": "transferOwnership",
      "outputs": [],
      "stateMutability": "nonpayable",
      "type": "function"
    },
    {
      "inputs": [],
      "name": "uln",
      "outputs": [
        {
          "internalType": "contract ILayerZeroUltraLightNodeV2",
          "name": "",
          "type": "address"
        }
      ],
      "stateMutability": "view",
      "type": "function"
    },
    {
      "inputs": [
        {
          "internalType": "uint16",
          "name": "_remoteChainId",
          "type": "uint16"
        },
        {
          "internalType": "bytes32",
          "name": "_blockHash",
          "type": "bytes32"
        },
        {
          "internalType": "uint256",
          "name": "_confirmations",
          "type": "uint256"
        },
        {
          "internalType": "bytes32",
          "name": "_data",
          "type": "bytes32"
        }
      ],
      "name": "updateHash",
      "outputs": [],
      "stateMutability": "nonpayable",
      "type": "function"
    },
    {
      "inputs": [
        {
          "internalType": "address",
          "name": "_uln",
          "type": "address"
        },
        {
          "internalType": "address payable",
          "name": "_to",
          "type": "address"
        },
        {
          "internalType": "uint256",
          "name": "_amount",
          "type": "uint256"
        }
      ],
      "name": "withdrawFee",
      "outputs": [],
      "stateMutability": "nonpayable",
      "type": "function"
    },
    {
      "stateMutability": "payable",
      "type": "receive"
    }
  ],
  "transactionHash": "0xf9f68ab4f53ce1004f82c26a32e3edab323193ee0b2a93236f39566dda054277",
  "args": [],
  "numDeployments": 2,
  "solcInputHash": "a1d7433d1853d5fd4b18a6f9a362b6e9",
  "bytecode": "0x608060405234801561001057600080fd5b50600061001b610089565b600080546001600160a01b0319166001600160a01b0383169081178255604051929350917f8be0079c531659141344cd1fd0a4f28419497f9722a3daafe3b4186f6b6457e0908290a3506001808055336000908152600260205260409020805460ff1916909117905561008d565b3390565b6110258061009c6000396000f3fe6080604052600436106101125760003560e01c80638da5cb5b116100a5578063cd84b89d11610074578063ddca3f4311610059578063ddca3f43146104dc578063f136a874146104f1578063f2fde38b1461053157610119565b8063cd84b89d14610449578063d5ad9faa1461048957610119565b80638da5cb5b1461035b578063bccc96d514610370578063c5e193cd146103ae578063c758b0171461041357610119565b8063673448dd116100e1578063673448dd146102745780636c473aff146102c8578063704316e514610306578063715018a61461034657610119565b80631095b6d71461011b5780632ca4a5b01461016b5780635553fb8e146101b5578063575765e21461022c57610119565b3661011957005b005b34801561012757600080fd5b506101196004803603606081101561013e57600080fd5b5073ffffffffffffffffffffffffffffffffffffffff813581169160208101359091169060400135610571565b34801561017757600080fd5b506101196004803603604081101561018e57600080fd5b50803561ffff16906020013573ffffffffffffffffffffffffffffffffffffffff166107b8565b3480156101c157600080fd5b5061021a600480360360808110156101d857600080fd5b50803561ffff90811691602081013590911690604081013567ffffffffffffffff16906060013573ffffffffffffffffffffffffffffffffffffffff16610864565b60408051918252519081900360200190f35b34801561023857600080fd5b506101196004803603604081101561024f57600080fd5b5073ffffffffffffffffffffffffffffffffffffffff8135169060200135151561088d565b34801561028057600080fd5b506102b46004803603602081101561029757600080fd5b503573ffffffffffffffffffffffffffffffffffffffff166108e3565b604080519115158252519081900360200190f35b3480156102d457600080fd5b506102dd61090e565b6040805173ffffffffffffffffffffffffffffffffffffffff9092168252519081900360200190f35b34801561031257600080fd5b506101196004803603608081101561032957600080fd5b5061ffff813516906020810135906040810135906060013561092a565b34801561035257600080fd5b50610119610a3b565b34801561036757600080fd5b506102dd610b52565b34801561037c57600080fd5b506101196004803603606081101561039357600080fd5b5061ffff813581169160208101359091169060400135610b6e565b3480156103ba57600080fd5b5061021a600480360360808110156103d157600080fd5b50803561ffff90811691602081013590911690604081013567ffffffffffffffff16906060013573ffffffffffffffffffffffffffffffffffffffff16610c3c565b34801561041f57600080fd5b5061021a6004803603604081101561043657600080fd5b5061ffff81358116916020013516610caa565b34801561045557600080fd5b506101196004803603602081101561046c57600080fd5b503573ffffffffffffffffffffffffffffffffffffffff16610cc7565b34801561049557600080fd5b506104bf600480360360408110156104ac57600080fd5b5061ffff81358116916020013516610db6565b6040805167ffffffffffffffff9092168252519081900360200190f35b3480156104e857600080fd5b5061021a610ddd565b3480156104fd57600080fd5b506102b46004803603602081101561051457600080fd5b503573ffffffffffffffffffffffffffffffffffffffff16610de3565b34801561053d57600080fd5b506101196004803603602081101561055457600080fd5b503573ffffffffffffffffffffffffffffffffffffffff16610df8565b610579610f99565b73ffffffffffffffffffffffffffffffffffffffff16610597610b52565b73ffffffffffffffffffffffffffffffffffffffff161461061957604080517f08c379a000000000000000000000000000000000000000000000000000000000815260206004820181905260248201527f4f776e61626c653a2063616c6c6572206973206e6f7420746865206f776e6572604482015290519081900360640190fd5b6002600154141561068b57604080517f08c379a000000000000000000000000000000000000000000000000000000000815260206004820152601f60248201527f5265656e7472616e637947756172643a207265656e7472616e742063616c6c00604482015290519081900360640190fd5b600260015560405160009073ffffffffffffffffffffffffffffffffffffffff84169083908381818185875af1925050503d80600081146106e8576040519150601f19603f3d011682016040523d82523d6000602084013e6106ed565b606091505b505090508061075d57604080517f08c379a000000000000000000000000000000000000000000000000000000000815260206004820152601260248201527f6661696c656420746f2077697468647261770000000000000000000000000000604482015290519081900360640190fd5b6040805173ffffffffffffffffffffffffffffffffffffffff851681526020810184905281517f884edad9ce6fa2440d8a54cc123490eb96d2768479d49ff9c7366125a9424364929181900390910190a15050600180555050565b6107c0610f99565b73ffffffffffffffffffffffffffffffffffffffff166107de610b52565b73ffffffffffffffffffffffffffffffffffffffff161461086057604080517f08c379a000000000000000000000000000000000000000000000000000000000815260206004820181905260248201527f4f776e61626c653a2063616c6c6572206973206e6f7420746865206f776e6572604482015290519081900360640190fd5b5050565b61ffff808416600090815260036020908152604080832093881683529290522054949350505050565b73ffffffffffffffffffffffffffffffffffffffff91909116600090815260026020526040902080547fffffffffffffffffffffffffffffffffffffffffffffffffffffffffffffff0016911515919091179055565b73ffffffffffffffffffffffffffffffffffffffff1660009081526002602052604090205460ff1690565b60065473ffffffffffffffffffffffffffffffffffffffff1681565b3360009081526002602052604090205460ff16610992576040517f08c379a000000000000000000000000000000000000000000000000000000000815260040180806020018281038252602c815260200180610fc4602c913960400191505060405180910390fd5b600654604080517f704316e500000000000000000000000000000000000000000000000000000000815261ffff87166004820152602481018690526044810185905260648101849052905173ffffffffffffffffffffffffffffffffffffffff9092169163704316e59160848082019260009290919082900301818387803b158015610a1d57600080fd5b505af1158015610a31573d6000803e3d6000fd5b5050505050505050565b610a43610f99565b73ffffffffffffffffffffffffffffffffffffffff16610a61610b52565b73ffffffffffffffffffffffffffffffffffffffff1614610ae357604080517f08c379a000000000000000000000000000000000000000000000000000000000815260206004820181905260248201527f4f776e61626c653a2063616c6c6572206973206e6f7420746865206f776e6572604482015290519081900360640190fd5b6000805460405173ffffffffffffffffffffffffffffffffffffffff909116907f8be0079c531659141344cd1fd0a4f28419497f9722a3daafe3b4186f6b6457e0908390a3600080547fffffffffffffffffffffffff0000000000000000000000000000000000000000169055565b60005473ffffffffffffffffffffffffffffffffffffffff1690565b610b76610f99565b73ffffffffffffffffffffffffffffffffffffffff16610b94610b52565b73ffffffffffffffffffffffffffffffffffffffff1614610c1657604080517f08c379a000000000000000000000000000000000000000000000000000000000815260206004820181905260248201527f4f776e61626c653a2063616c6c6572206973206e6f7420746865206f776e6572604482015290519081900360640190fd5b61ffff918216600090815260036020908152604080832095909416825293909352912055565b61ffff80851660008181526004602090815260408083209488168352938152838220805467ffffffffffffffff88167fffffffffffffffffffffffffffffffffffffffffffffffff000000000000000090911617905560038152838220928252919091522054949350505050565b600360209081526000928352604080842090915290825290205481565b610ccf610f99565b73ffffffffffffffffffffffffffffffffffffffff16610ced610b52565b73ffffffffffffffffffffffffffffffffffffffff1614610d6f57604080517f08c379a000000000000000000000000000000000000000000000000000000000815260206004820181905260248201527f4f776e61626c653a2063616c6c6572206973206e6f7420746865206f776e6572604482015290519081900360640190fd5b600680547fffffffffffffffffffffffff00000000000000000000000000000000000000001673ffffffffffffffffffffffffffffffffffffffff92909216919091179055565b600460209081526000928352604080842090915290825290205467ffffffffffffffff1681565b60055481565b60026020526000908152604090205460ff1681565b610e00610f99565b73ffffffffffffffffffffffffffffffffffffffff16610e1e610b52565b73ffffffffffffffffffffffffffffffffffffffff1614610ea057604080517f08c379a000000000000000000000000000000000000000000000000000000000815260206004820181905260248201527f4f776e61626c653a2063616c6c6572206973206e6f7420746865206f776e6572604482015290519081900360640190fd5b73ffffffffffffffffffffffffffffffffffffffff8116610f0c576040517f08c379a0000000000000000000000000000000000000000000000000000000008152600401808060200182810382526026815260200180610f9e6026913960400191505060405180910390fd5b6000805460405173ffffffffffffffffffffffffffffffffffffffff808516939216917f8be0079c531659141344cd1fd0a4f28419497f9722a3daafe3b4186f6b6457e091a3600080547fffffffffffffffffffffffff00000000000000000000000000000000000000001673ffffffffffffffffffffffffffffffffffffffff92909216919091179055565b339056fe4f776e61626c653a206e6577206f776e657220697320746865207a65726f20616464726573734c617965725a65726f4f7261636c654d6f636b3a2063616c6c6572206d75737420626520617070726f766564a26469706673582212200990a98783edeefed7f0a853c0bccc2a0c3647fd597a95b49df2df5a4009894764736f6c63430007060033",
  "devdoc": {
    "kind": "dev",
    "methods": {
      "owner()": {
        "details": "Returns the address of the current owner."
      },
      "renounceOwnership()": {
        "details": "Leaves the contract without owner. It will not be possible to call `onlyOwner` functions anymore. Can only be called by the current owner. NOTE: Renouncing ownership will leave the contract without an owner, thereby removing any functionality that is only available to the owner."
      },
      "transferOwnership(address)": {
        "details": "Transfers ownership of the contract to a new account (`newOwner`). Can only be called by the current owner."
      }
    },
    "version": 1
  },
  "userdoc": {
    "kind": "user",
    "methods": {},
    "version": 1
  },
  "storageLayout": {
    "storage": [
      {
        "astId": 493,
        "contract": "contracts/mocks/LayerZeroOracleMockV2.sol:LayerZeroOracleMockV2",
        "label": "_owner",
        "offset": 0,
        "slot": "0",
        "type": "t_address"
      },
      {
        "astId": 2074,
        "contract": "contracts/mocks/LayerZeroOracleMockV2.sol:LayerZeroOracleMockV2",
        "label": "_status",
        "offset": 0,
        "slot": "1",
        "type": "t_uint256"
      },
      {
        "astId": 14804,
        "contract": "contracts/mocks/LayerZeroOracleMockV2.sol:LayerZeroOracleMockV2",
        "label": "approvedAddresses",
        "offset": 0,
        "slot": "2",
        "type": "t_mapping(t_address,t_bool)"
      },
      {
        "astId": 14810,
        "contract": "contracts/mocks/LayerZeroOracleMockV2.sol:LayerZeroOracleMockV2",
        "label": "chainPriceLookup",
        "offset": 0,
        "slot": "3",
        "type": "t_mapping(t_uint16,t_mapping(t_uint16,t_uint256))"
      },
      {
        "astId": 14816,
        "contract": "contracts/mocks/LayerZeroOracleMockV2.sol:LayerZeroOracleMockV2",
        "label": "jobs",
        "offset": 0,
        "slot": "4",
        "type": "t_mapping(t_uint16,t_mapping(t_uint16,t_uint64))"
      },
      {
        "astId": 14818,
        "contract": "contracts/mocks/LayerZeroOracleMockV2.sol:LayerZeroOracleMockV2",
        "label": "fee",
        "offset": 0,
        "slot": "5",
        "type": "t_uint256"
      },
      {
        "astId": 14820,
        "contract": "contracts/mocks/LayerZeroOracleMockV2.sol:LayerZeroOracleMockV2",
        "label": "uln",
        "offset": 0,
        "slot": "6",
        "type": "t_contract(ILayerZeroUltraLightNodeV2)13919"
      }
    ],
    "types": {
      "t_address": {
        "encoding": "inplace",
        "label": "address",
        "numberOfBytes": "20"
      },
      "t_bool": {
        "encoding": "inplace",
        "label": "bool",
        "numberOfBytes": "1"
      },
      "t_contract(ILayerZeroUltraLightNodeV2)13919": {
        "encoding": "inplace",
        "label": "contract ILayerZeroUltraLightNodeV2",
        "numberOfBytes": "20"
      },
      "t_mapping(t_address,t_bool)": {
        "encoding": "mapping",
        "key": "t_address",
        "label": "mapping(address => bool)",
        "numberOfBytes": "32",
        "value": "t_bool"
      },
      "t_mapping(t_uint16,t_mapping(t_uint16,t_uint256))": {
        "encoding": "mapping",
        "key": "t_uint16",
        "label": "mapping(uint16 => mapping(uint16 => uint256))",
        "numberOfBytes": "32",
        "value": "t_mapping(t_uint16,t_uint256)"
      },
      "t_mapping(t_uint16,t_mapping(t_uint16,t_uint64))": {
        "encoding": "mapping",
        "key": "t_uint16",
        "label": "mapping(uint16 => mapping(uint16 => uint64))",
        "numberOfBytes": "32",
        "value": "t_mapping(t_uint16,t_uint64)"
      },
      "t_mapping(t_uint16,t_uint256)": {
        "encoding": "mapping",
        "key": "t_uint16",
        "label": "mapping(uint16 => uint256)",
        "numberOfBytes": "32",
        "value": "t_uint256"
      },
      "t_mapping(t_uint16,t_uint64)": {
        "encoding": "mapping",
        "key": "t_uint16",
        "label": "mapping(uint16 => uint64)",
        "numberOfBytes": "32",
        "value": "t_uint64"
      },
      "t_uint16": {
        "encoding": "inplace",
        "label": "uint16",
        "numberOfBytes": "2"
      },
      "t_uint256": {
        "encoding": "inplace",
        "label": "uint256",
        "numberOfBytes": "32"
      },
      "t_uint64": {
        "encoding": "inplace",
        "label": "uint64",
        "numberOfBytes": "8"
      }
    }
  }
}