{
  "address": "0xb68c1586F16563aE231b0eE1C491164F12Af502c",
  "abi": [
    {
      "inputs": [
        {
          "internalType": "address",
          "name": "_contractOne",
          "type": "address"
        }
      ],
      "stateMutability": "nonpayable",
      "type": "constructor"
    },
    {
      "inputs": [
        {
          "internalType": "uint256",
          "name": "_gasLimit",
          "type": "uint256"
        }
      ],
      "name": "callSetIt",
      "outputs": [],
      "stateMutability": "nonpayable",
      "type": "function"
    }
  ],
  "transactionHash": "0x52c421cab9dde26e1dbdaa3f982c284def18fedec04f02fd821907a5b59f5e15",
  "args": [
    "0x231f47234C8431C8f4EE3211487A0dc363D26b03"
  ],
  "numDeployments": 1,
  "solcInputHash": "bb6ee26adbfe51982efaa40a696059a8",
  "bytecode": "0x608060405234801561001057600080fd5b506040516101703803806101708339818101604052602081101561003357600080fd5b5051600080546001600160a01b039092166001600160a01b031990921691909117905561010b806100656000396000f3fe6080604052348015600f57600080fd5b506004361060285760003560e01c8063cd7f61d214602d575b600080fd5b604760048036036020811015604157600080fd5b50356049565b005b60008054604080517fdd012a1500000000000000000000000000000000000000000000000000000000815260016004820152905173ffffffffffffffffffffffffffffffffffffffff9092169263dd012a15928592602480820193929182900301818388803b15801560ba57600080fd5b5087f115801560cd573d6000803e3d6000fd5b50505050505056fea264697066735822122062da421e93022993e610d190b1be7bf55e17dc5f39c303ccf65320d81cacb2f364736f6c63430007060033",
  "devdoc": {
    "kind": "dev",
    "methods": {},
    "version": 1
  },
  "userdoc": {
    "kind": "user",
    "methods": {},
    "version": 1
  },
  "storageLayout": {
    "storage": [
      {
        "astId": 13967,
        "contract": "contracts/mocks/ContractTwo.sol:ContractTwo",
        "label": "contractOne",
        "offset": 0,
        "slot": "0",
        "type": "t_address"
      }
    ],
    "types": {
      "t_address": {
        "encoding": "inplace",
        "label": "address",
        "numberOfBytes": "20"
      }
    }
  }
}