{
  "address": "0x83c73Da98cf733B03315aFa8758834b36a195b87",
  "abi": [
    {
      "inputs": [
        {
          "internalType": "address",
          "name": "_endpoint",
          "type": "address"
        }
      ],
      "stateMutability": "nonpayable",
      "type": "constructor"
    },
    {
      "anonymous": false,
      "inputs": [
        {
          "indexed": true,
          "internalType": "address",
          "name": "previousOwner",
          "type": "address"
        },
        {
          "indexed": true,
          "internalType": "address",
          "name": "newOwner",
          "type": "address"
        }
      ],
      "name": "OwnershipTransferred",
      "type": "event"
    },
    {
      "stateMutability": "payable",
      "type": "fallback"
    },
    {
      "inputs": [
        {
          "internalType": "address",
          "name": "token",
          "type": "address"
        },
        {
          "internalType": "address",
          "name": "spender",
          "type": "address"
        },
        {
          "internalType": "uint256",
          "name": "amount",
          "type": "uint256"
        }
      ],
      "name": "approveTokenSpender",
      "outputs": [],
      "stateMutability": "nonpayable",
      "type": "function"
    },
    {
      "inputs": [],
      "name": "endpoint",
      "outputs": [
        {
          "internalType": "contract ILayerZeroEndpoint",
          "name": "",
          "type": "address"
        }
      ],
      "stateMutability": "view",
      "type": "function"
    },
    {
      "inputs": [
        {
          "internalType": "uint16",
          "name": "_srcChainId",
          "type": "uint16"
        },
        {
          "internalType": "bytes",
          "name": "_srcAddress",
          "type": "bytes"
        }
      ],
      "name": "forceResumeReceive",
      "outputs": [],
      "stateMutability": "nonpayable",
      "type": "function"
    },
    {
      "inputs": [
        {
          "internalType": "uint16",
          "name": "",
          "type": "uint16"
        },
        {
          "internalType": "uint16",
          "name": "_chainId",
          "type": "uint16"
        },
        {
          "internalType": "address",
          "name": "",
          "type": "address"
        },
        {
          "internalType": "uint256",
          "name": "_configType",
          "type": "uint256"
        }
      ],
      "name": "getConfig",
      "outputs": [
        {
          "internalType": "bytes",
          "name": "",
          "type": "bytes"
        }
      ],
      "stateMutability": "view",
      "type": "function"
    },
    {
      "inputs": [],
      "name": "getCounter",
      "outputs": [
        {
          "internalType": "uint256",
          "name": "",
          "type": "uint256"
        }
      ],
      "stateMutability": "view",
      "type": "function"
    },
    {
      "inputs": [],
      "name": "getReceiveVersion",
      "outputs": [
        {
          "internalType": "uint16",
          "name": "",
          "type": "uint16"
        }
      ],
      "stateMutability": "view",
      "type": "function"
    },
    {
      "inputs": [],
      "name": "getSendVersion",
      "outputs": [
        {
          "internalType": "uint16",
          "name": "",
          "type": "uint16"
        }
      ],
      "stateMutability": "view",
      "type": "function"
    },
    {
      "inputs": [
        {
          "internalType": "uint16",
          "name": "_dstChainId",
          "type": "uint16"
        },
        {
          "internalType": "bytes",
          "name": "_dstCounterMockAddress",
          "type": "bytes"
        }
      ],
      "name": "incrementCounter",
      "outputs": [],
      "stateMutability": "payable",
      "type": "function"
    },
    {
      "inputs": [
        {
          "internalType": "uint16[]",
          "name": "_dstChainIds",
          "type": "uint16[]"
        },
        {
          "internalType": "bytes[]",
          "name": "_dstCounterMockAddresses",
          "type": "bytes[]"
        },
        {
          "internalType": "address payable",
          "name": "_refundAddr",
          "type": "address"
        }
      ],
      "name": "incrementCounterMulti",
      "outputs": [],
      "stateMutability": "payable",
      "type": "function"
    },
    {
      "inputs": [
        {
          "internalType": "uint16[]",
          "name": "_dstChainIds",
          "type": "uint16[]"
        },
        {
          "internalType": "bytes[]",
          "name": "_dstCounterMockAddresses",
          "type": "bytes[]"
        },
        {
          "internalType": "bytes",
          "name": "_adapterParams",
          "type": "bytes"
        },
        {
          "internalType": "bytes",
          "name": "payload",
          "type": "bytes"
        }
      ],
      "name": "incrementCounterMultiAdapterParams",
      "outputs": [],
      "stateMutability": "payable",
      "type": "function"
    },
    {
      "inputs": [
        {
          "internalType": "uint16",
          "name": "_dstChainId",
          "type": "uint16"
        },
        {
          "internalType": "bytes",
          "name": "_dstCounterMockAddress",
          "type": "bytes"
        },
        {
          "internalType": "bytes",
          "name": "_adapterParams",
          "type": "bytes"
        },
        {
          "internalType": "bytes",
          "name": "payload",
          "type": "bytes"
        }
      ],
      "name": "incrementCounterWithAdapterParams",
      "outputs": [],
      "stateMutability": "payable",
      "type": "function"
    },
    {
      "inputs": [
        {
          "internalType": "uint16",
          "name": "_dstChainId",
          "type": "uint16"
        },
        {
          "internalType": "bytes",
          "name": "_dstCounterMockAddress",
          "type": "bytes"
        },
        {
          "internalType": "uint256",
          "name": "gasAmountForDst",
          "type": "uint256"
        }
      ],
      "name": "incrementCounterWithAdapterParamsV1",
      "outputs": [],
      "stateMutability": "payable",
      "type": "function"
    },
    {
      "inputs": [
        {
          "internalType": "uint16",
          "name": "_dstChainId",
          "type": "uint16"
        },
        {
          "internalType": "bytes",
          "name": "_dstCounterMockAddress",
          "type": "bytes"
        },
        {
          "internalType": "uint256",
          "name": "gasAmountForDst",
          "type": "uint256"
        },
        {
          "internalType": "uint256",
          "name": "airdropEthQty",
          "type": "uint256"
        },
        {
          "internalType": "address",
          "name": "airdropAddr",
          "type": "address"
        }
      ],
      "name": "incrementCounterWithAdapterParamsV2",
      "outputs": [],
      "stateMutability": "payable",
      "type": "function"
    },
    {
      "inputs": [
        {
          "internalType": "uint16",
          "name": "_dstChainId",
          "type": "uint16"
        },
        {
          "internalType": "bytes",
          "name": "_dstCounterMockAddress",
          "type": "bytes"
        },
        {
          "internalType": "bytes",
          "name": "payload",
          "type": "bytes"
        }
      ],
      "name": "incrementCounterWithPayload",
      "outputs": [],
      "stateMutability": "payable",
      "type": "function"
    },
    {
      "inputs": [
        {
          "internalType": "uint16",
          "name": "",
          "type": "uint16"
        },
        {
          "internalType": "bytes",
          "name": "_fromAddress",
          "type": "bytes"
        },
        {
          "internalType": "uint64",
          "name": "",
          "type": "uint64"
        },
        {
          "internalType": "bytes",
          "name": "_payload",
          "type": "bytes"
        }
      ],
      "name": "lzReceive",
      "outputs": [],
      "stateMutability": "nonpayable",
      "type": "function"
    },
    {
      "inputs": [],
      "name": "messageCounter",
      "outputs": [
        {
          "internalType": "uint256",
          "name": "",
          "type": "uint256"
        }
      ],
      "stateMutability": "view",
      "type": "function"
    },
    {
      "inputs": [],
      "name": "owner",
      "outputs": [
        {
          "internalType": "address",
          "name": "",
          "type": "address"
        }
      ],
      "stateMutability": "view",
      "type": "function"
    },
    {
      "inputs": [],
      "name": "payInZRO",
      "outputs": [
        {
          "internalType": "bool",
          "name": "",
          "type": "bool"
        }
      ],
      "stateMutability": "view",
      "type": "function"
    },
    {
      "inputs": [
        {
          "internalType": "address",
          "name": "",
          "type": "address"
        }
      ],
      "name": "remoteAddressCounter",
      "outputs": [
        {
          "internalType": "uint256",
          "name": "",
          "type": "uint256"
        }
      ],
      "stateMutability": "view",
      "type": "function"
    },
    {
      "inputs": [],
      "name": "renounceOwnership",
      "outputs": [],
      "stateMutability": "nonpayable",
      "type": "function"
    },
    {
      "inputs": [
        {
          "internalType": "uint16",
          "name": "",
          "type": "uint16"
        },
        {
          "internalType": "uint16",
          "name": "_chainId",
          "type": "uint16"
        },
        {
          "internalType": "uint256",
          "name": "_configType",
          "type": "uint256"
        },
        {
          "internalType": "bytes",
          "name": "_config",
          "type": "bytes"
        }
      ],
      "name": "setConfig",
      "outputs": [],
      "stateMutability": "nonpayable",
      "type": "function"
    },
    {
      "inputs": [
        {
          "internalType": "uint16",
          "name": "remoteChainId",
          "type": "uint16"
        },
        {
          "internalType": "uint16",
          "name": "confirmations",
          "type": "uint16"
        }
      ],
      "name": "setInboundConfirmations",
      "outputs": [],
      "stateMutability": "nonpayable",
      "type": "function"
    },
    {
      "inputs": [
        {
          "internalType": "uint16",
          "name": "dstChainId",
          "type": "uint16"
        },
        {
          "internalType": "address",
          "name": "oracle",
          "type": "address"
        }
      ],
      "name": "setOracle",
      "outputs": [],
      "stateMutability": "nonpayable",
      "type": "function"
    },
    {
      "inputs": [
        {
          "internalType": "uint16",
          "name": "remoteChainId",
          "type": "uint16"
        },
        {
          "internalType": "uint16",
          "name": "confirmations",
          "type": "uint16"
        }
      ],
      "name": "setOutboundConfirmations",
      "outputs": [],
      "stateMutability": "nonpayable",
      "type": "function"
    },
    {
      "inputs": [
        {
          "internalType": "bool",
          "name": "_payInZRO",
          "type": "bool"
        }
      ],
      "name": "setPayInZRO",
      "outputs": [],
      "stateMutability": "nonpayable",
      "type": "function"
    },
    {
      "inputs": [
        {
          "internalType": "uint16",
          "name": "version",
          "type": "uint16"
        }
      ],
      "name": "setReceiveVersion",
      "outputs": [],
      "stateMutability": "nonpayable",
      "type": "function"
    },
    {
      "inputs": [
        {
          "internalType": "uint16",
          "name": "version",
          "type": "uint16"
        }
      ],
      "name": "setSendVersion",
      "outputs": [],
      "stateMutability": "nonpayable",
      "type": "function"
    },
    {
      "inputs": [
        {
          "internalType": "address",
          "name": "newOwner",
          "type": "address"
        }
      ],
      "name": "transferOwnership",
      "outputs": [],
      "stateMutability": "nonpayable",
      "type": "function"
    },
    {
      "stateMutability": "payable",
      "type": "receive"
    }
  ],
  "transactionHash": "0xc5868f38884205b420ae10c11822d862e3781b02e166d3dc5097d8554bd5f124",
  "args": [
    "0xae92d5aD7583AD66E49A0c67BAd18F6ba52dDDc1"
  ],
  "numDeployments": 1,
  "solcInputHash": "efa6bdf5f6f209f9fa460e32c2d4940a",
  "bytecode": "0x60806040523480156200001157600080fd5b5060405162002d8b38038062002d8b8339810160408190526200003491620000b4565b600062000040620000b0565b600080546001600160a01b0319166001600160a01b0383169081178255604051929350917f8be0079c531659141344cd1fd0a4f28419497f9722a3daafe3b4186f6b6457e0908290a350600380546001600160a01b0319166001600160a01b0392909216919091179055620000e4565b3390565b600060208284031215620000c6578081fd5b81516001600160a01b0381168114620000dd578182fd5b9392505050565b612c9780620000f46000396000f3fe6080604052600436106101ba5760003560e01c8063715018a6116100ec578063b7e0f7ba1161008a578063d7d3c3b911610064578063d7d3c3b9146104a9578063ed0cc14f146104c9578063f2fde38b146104dc578063f5ecbdbc146104fc57610210565b8063b7e0f7ba14610454578063cbed8b9c14610474578063cf5d14711461049457610210565b80638da5cb5b116100c65780638da5cb5b1461040657806394b90c2c1461041b5780639cd0e6301461042e578063a245b77b1461044157610210565b8063715018a6146103ba5780637af9ce73146103cf5780638ada066e146103f157610210565b806342d65a8d11610159578063529c758811610133578063529c75881461032b57806354a5beda146103565780635e280f11146103785780636df653711461039a57610210565b806342d65a8d146102d8578063492e527e146102f85780634dc21b1a1461031857610210565b806310ddb1371161019557806310ddb137146102655780632b2257dc146102855780633046a8f1146102a557806341e63d13146102b857610210565b80621d35671461021257806307e0db171461023257806308d968b91461025257610210565b36610210576103e8341080156101d1575034600a14155b610210576040517f08c379a000000000000000000000000000000000000000000000000000000000815260040161020790612753565b60405180910390fd5b005b34801561021e57600080fd5b5061021061022d3660046122fa565b610529565b34801561023e57600080fd5b5061021061024d36600461203a565b6106a9565b610210610260366004612280565b610734565b34801561027157600080fd5b5061021061028036600461203a565b610824565b34801561029157600080fd5b506102106102a0366004612386565b61087a565b6102106102b336600461217d565b6109a0565b3480156102c457600080fd5b506102106102d3366004611f98565b610a44565b3480156102e457600080fd5b506102106102f33660046120aa565b610b36565b34801561030457600080fd5b50610210610313366004612072565b610b3b565b610210610326366004611e58565b610c62565b34801561033757600080fd5b50610340610e42565b60405161034d9190612a7b565b60405180910390f35b34801561036257600080fd5b5061036b610e48565b60405161034d91906127d6565b34801561038457600080fd5b5061038d610ef4565b60405161034d91906125fd565b3480156103a657600080fd5b506102106103b5366004612386565b610f10565b3480156103c657600080fd5b50610210610fd2565b3480156103db57600080fd5b506103e46110e9565b60405161034d9190612644565b3480156103fd57600080fd5b5061034061110a565b34801561041257600080fd5b5061038d611110565b610210610429366004611ed9565b61112c565b61021061043c3660046120fd565b6113a7565b61021061044f366004612226565b611483565b34801561046057600080fd5b5061034061046f366004611dfc565b611533565b34801561048057600080fd5b5061021061048f366004612403565b611545565b3480156104a057600080fd5b5061036b611650565b3480156104b557600080fd5b506102106104c4366004611e18565b6116a7565b6102106104d73660046120aa565b6117fb565b3480156104e857600080fd5b506102106104f7366004611dfc565b6118bd565b34801561050857600080fd5b5061051c6105173660046123b3565b611a5e565b60405161034d919061264f565b60035473ffffffffffffffffffffffffffffffffffffffff16331461054d57600080fd5b6014830151604051610583907f666600000000000000000000000000000000000000000000000000000000000090602001612518565b60405160208183030381529060405280519060200120826040516020016105aa9190612545565b60405160208183030381529060405280519060200120141561066f57600354604080516020808201835260008083528351918201845280825292517fc2fa481300000000000000000000000000000000000000000000000000000000815273ffffffffffffffffffffffffffffffffffffffff9094169363c2fa48139361063c93600193909284918291600401612662565b600060405180830381600087803b15801561065657600080fd5b505af115801561066a573d6000803e3d6000fd5b505050505b73ffffffffffffffffffffffffffffffffffffffff1660009081526002602052604090208054600190810190915580548101905550505050565b6003546040517f07e0db1700000000000000000000000000000000000000000000000000000000815273ffffffffffffffffffffffffffffffffffffffff909116906307e0db17906106ff9084906004016127d6565b600060405180830381600087803b15801561071957600080fd5b505af115801561072d573d6000803e3d6000fd5b5050505050565b604051600290600090610751908390879087908790602001612596565b604080517fffffffffffffffffffffffffffffffffffffffffffffffffffffffffffffffe0818403018152600354602084018352600080855292517fc580310000000000000000000000000000000000000000000000000000000000815291945073ffffffffffffffffffffffffffffffffffffffff169263c58031009234926107e8928e928e928e929133918b9060040161292b565b6000604051808303818588803b15801561080157600080fd5b505af1158015610815573d6000803e3d6000fd5b50505050505050505050505050565b6003546040517f10ddb13700000000000000000000000000000000000000000000000000000000815273ffffffffffffffffffffffffffffffffffffffff909116906310ddb137906106ff9084906004016127d6565b6003546040517f096568f600000000000000000000000000000000000000000000000000000000815273ffffffffffffffffffffffffffffffffffffffff9091169063cbed8b9c90829063096568f6906108d89030906004016125fd565b60206040518083038186803b1580156108f057600080fd5b505afa158015610904573d6000803e3d6000fd5b505050506040513d601f19601f820116820180604052508101906109289190612056565b8460058560405160200161093c91906127d6565b6040516020818303038152906040526040518563ffffffff1660e01b815260040161096a9493929190612a0b565b600060405180830381600087803b15801561098457600080fd5b505af1158015610998573d6000803e3d6000fd5b505050505050565b6003546040517fc580310000000000000000000000000000000000000000000000000000000000815273ffffffffffffffffffffffffffffffffffffffff9091169063c5803100903490610a09908b908b908b908990899033906000908f908f90600401612839565b6000604051808303818588803b158015610a2257600080fd5b505af1158015610a36573d6000803e3d6000fd5b505050505050505050505050565b610a4c611baa565b73ffffffffffffffffffffffffffffffffffffffff16610a6a611110565b73ffffffffffffffffffffffffffffffffffffffff1614610aec57604080517f08c379a000000000000000000000000000000000000000000000000000000000815260206004820181905260248201527f4f776e61626c653a2063616c6c6572206973206e6f7420746865206f776e6572604482015290519081900360640190fd5b6003805491151574010000000000000000000000000000000000000000027fffffffffffffffffffffff00ffffffffffffffffffffffffffffffffffffffff909216919091179055565b505050565b6003546040517f096568f600000000000000000000000000000000000000000000000000000000815260069173ffffffffffffffffffffffffffffffffffffffff169063cbed8b9c90829063096568f690610b9a9030906004016125fd565b60206040518083038186803b158015610bb257600080fd5b505afa158015610bc6573d6000803e3d6000fd5b505050506040513d601f19601f82011682018060405250810190610bea9190612056565b858486604051602001610bfd91906125fd565b6040516020818303038152906040526040518563ffffffff1660e01b8152600401610c2b9493929190612a0b565b600060405180830381600087803b158015610c4557600080fd5b505af1158015610c59573d6000803e3d6000fd5b50505050505050565b838214610c9b576040517f08c379a0000000000000000000000000000000000000000000000000000000008152600401610207906126d0565b836000610ca83483611bae565b60035490915060009074010000000000000000000000000000000000000000900460ff16610cd7576000610cd9565b305b905060005b83811015610dd95760035473ffffffffffffffffffffffffffffffffffffffff1663c5803100848b8b85818110610d1157fe5b9050602002016020810190610d26919061203a565b8a8a86818110610d3257fe5b9050602002810190610d449190612a84565b6040805160208082018352600080835283519182018452815291517fffffffff0000000000000000000000000000000000000000000000000000000060e089901b168152610d9c959493928e918c919060040161292b565b6000604051808303818588803b158015610db557600080fd5b505af1158015610dc9573d6000803e3d6000fd5b5050505050806001019050610cde565b506000610df0610de98486611c31565b3490611cab565b60405190915073ffffffffffffffffffffffffffffffffffffffff86169082156108fc029083906000818181858888f19350505050158015610e36573d6000803e3d6000fd5b50505050505050505050565b60015481565b6003546040517f096568f600000000000000000000000000000000000000000000000000000000815260009173ffffffffffffffffffffffffffffffffffffffff169063096568f690610e9f9030906004016125fd565b60206040518083038186803b158015610eb757600080fd5b505afa158015610ecb573d6000803e3d6000fd5b505050506040513d601f19601f82011682018060405250810190610eef9190612056565b905090565b60035473ffffffffffffffffffffffffffffffffffffffff1681565b6003546040517f096568f600000000000000000000000000000000000000000000000000000000815273ffffffffffffffffffffffffffffffffffffffff9091169063cbed8b9c90829063096568f690610f6e9030906004016125fd565b60206040518083038186803b158015610f8657600080fd5b505afa158015610f9a573d6000803e3d6000fd5b505050506040513d601f19601f82011682018060405250810190610fbe9190612056565b8460028560405160200161093c91906127d6565b610fda611baa565b73ffffffffffffffffffffffffffffffffffffffff16610ff8611110565b73ffffffffffffffffffffffffffffffffffffffff161461107a57604080517f08c379a000000000000000000000000000000000000000000000000000000000815260206004820181905260248201527f4f776e61626c653a2063616c6c6572206973206e6f7420746865206f776e6572604482015290519081900360640190fd5b6000805460405173ffffffffffffffffffffffffffffffffffffffff909116907f8be0079c531659141344cd1fd0a4f28419497f9722a3daafe3b4186f6b6457e0908390a3600080547fffffffffffffffffffffffff0000000000000000000000000000000000000000169055565b60035474010000000000000000000000000000000000000000900460ff1681565b60015490565b60005473ffffffffffffffffffffffffffffffffffffffff1690565b6000888880806020026020016040519081016040528093929190818152602001838360200280828437600092018290525093945061117092508991508a9050612b4b565b9050600086868080601f01602080910402602001604051908101604052809392919081815260200183838082843760009201919091525050845186519394509290921491506111ed9050576040517f08c379a0000000000000000000000000000000000000000000000000000000008152600401610207906126d0565b3460005b845181101561137957600354855160009173ffffffffffffffffffffffffffffffffffffffff16906340a7bb109088908590811061122b57fe5b6020026020010151308b8b600360149054906101000a900460ff168a6040518763ffffffff1660e01b8152600401611268969594939291906127e5565b604080518083038186803b15801561127f57600080fd5b505afa158015611293573d6000803e3d6000fd5b505050506040513d601f19601f820116820180604052508101906112b79190612463565b5090506112c48382611cab565b600354875191945073ffffffffffffffffffffffffffffffffffffffff169063c58031009083908990869081106112f757fe5b602002602001015188868151811061130b57fe5b60200260200101518c8c3360008c6040518963ffffffff1660e01b815260040161133b97969594939291906129a1565b6000604051808303818588803b15801561135457600080fd5b505af1158015611368573d6000803e3d6000fd5b5050505050508060010190506111f1565b50604051339082156108fc029083906000818181858888f19350505050158015610815573d6000803e3d6000fd5b60035460009074010000000000000000000000000000000000000000900460ff166113d35760006113d5565b305b600354604080516020810182526000815290517fc580310000000000000000000000000000000000000000000000000000000000815292935073ffffffffffffffffffffffffffffffffffffffff9091169163c5803100913491611449918b918b918b918b918b9133918c916004016128b3565b6000604051808303818588803b15801561146257600080fd5b505af1158015611476573d6000803e3d6000fd5b5050505050505050505050565b60405160019060009061149c9083908590602001612561565b604080517fffffffffffffffffffffffffffffffffffffffffffffffffffffffffffffffe0818403018152600354602084018352600080855292517fc580310000000000000000000000000000000000000000000000000000000000815291945073ffffffffffffffffffffffffffffffffffffffff169263c5803100923492611449928c928c928c929133918b9060040161292b565b60026020526000908152604090205481565b6003546040517f096568f600000000000000000000000000000000000000000000000000000000815273ffffffffffffffffffffffffffffffffffffffff9091169063cbed8b9c90829063096568f6906115a39030906004016125fd565b60206040518083038186803b1580156115bb57600080fd5b505afa1580156115cf573d6000803e3d6000fd5b505050506040513d601f19601f820116820180604052508101906115f39190612056565b868686866040518663ffffffff1660e01b8152600401611617959493929190612a42565b600060405180830381600087803b15801561163157600080fd5b505af1158015611645573d6000803e3d6000fd5b505050505050505050565b6003546040517fda1a7c9a00000000000000000000000000000000000000000000000000000000815260009173ffffffffffffffffffffffffffffffffffffffff169063da1a7c9a90610e9f9030906004016125fd565b6116af611baa565b73ffffffffffffffffffffffffffffffffffffffff166116cd611110565b73ffffffffffffffffffffffffffffffffffffffff161461174f57604080517f08c379a000000000000000000000000000000000000000000000000000000000815260206004820181905260248201527f4f776e61626c653a2063616c6c6572206973206e6f7420746865206f776e6572604482015290519081900360640190fd5b6040517f095ea7b300000000000000000000000000000000000000000000000000000000815273ffffffffffffffffffffffffffffffffffffffff84169063095ea7b3906117a3908590859060040161261e565b602060405180830381600087803b1580156117bd57600080fd5b505af11580156117d1573d6000803e3d6000fd5b505050506040513d601f19601f820116820180604052508101906117f59190611fb4565b50505050565b60035460009074010000000000000000000000000000000000000000900460ff16611827576000611829565b305b6003546040805160208082018352600080835283519182018452815291517fc580310000000000000000000000000000000000000000000000000000000000815293945073ffffffffffffffffffffffffffffffffffffffff9092169263c58031009234926118a4928a928a928a9233918b9160040161292b565b6000604051808303818588803b15801561163157600080fd5b6118c5611baa565b73ffffffffffffffffffffffffffffffffffffffff166118e3611110565b73ffffffffffffffffffffffffffffffffffffffff161461196557604080517f08c379a000000000000000000000000000000000000000000000000000000000815260206004820181905260248201527f4f776e61626c653a2063616c6c6572206973206e6f7420746865206f776e6572604482015290519081900360640190fd5b73ffffffffffffffffffffffffffffffffffffffff81166119d1576040517f08c379a0000000000000000000000000000000000000000000000000000000008152600401808060200182810382526026815260200180612c1b6026913960400191505060405180910390fd5b6000805460405173ffffffffffffffffffffffffffffffffffffffff808516939216917f8be0079c531659141344cd1fd0a4f28419497f9722a3daafe3b4186f6b6457e091a3600080547fffffffffffffffffffffffff00000000000000000000000000000000000000001673ffffffffffffffffffffffffffffffffffffffff92909216919091179055565b6003546040517f096568f600000000000000000000000000000000000000000000000000000000815260609173ffffffffffffffffffffffffffffffffffffffff169063f5ecbdbc90829063096568f690611abd9030906004016125fd565b60206040518083038186803b158015611ad557600080fd5b505afa158015611ae9573d6000803e3d6000fd5b505050506040513d601f19601f82011682018060405250810190611b0d9190612056565b8630866040518563ffffffff1660e01b8152600401611b2f94939291906129d1565b60006040518083038186803b158015611b4757600080fd5b505afa158015611b5b573d6000803e3d6000fd5b505050506040513d6000823e601f3d9081017fffffffffffffffffffffffffffffffffffffffffffffffffffffffffffffffe0168201604052611ba19190810190611fd0565b95945050505050565b3390565b6000808211611c1e57604080517f08c379a000000000000000000000000000000000000000000000000000000000815260206004820152601a60248201527f536166654d6174683a206469766973696f6e206279207a65726f000000000000604482015290519081900360640190fd5b818381611c2757fe5b0490505b92915050565b600082611c4057506000611c2b565b82820282848281611c4d57fe5b0414611ca4576040517f08c379a0000000000000000000000000000000000000000000000000000000008152600401808060200182810382526021815260200180612c416021913960400191505060405180910390fd5b9392505050565b600082821115611d1c57604080517f08c379a000000000000000000000000000000000000000000000000000000000815260206004820152601e60248201527f536166654d6174683a207375627472616374696f6e206f766572666c6f770000604482015290519081900360640190fd5b50900390565b60008083601f840112611d33578182fd5b50813567ffffffffffffffff811115611d4a578182fd5b6020830191508360208083028501011115611d6457600080fd5b9250929050565b60008083601f840112611d7c578182fd5b50813567ffffffffffffffff811115611d93578182fd5b602083019150836020828501011115611d6457600080fd5b600082601f830112611dbb578081fd5b8135611dce611dc982612b0b565b612ae7565b818152846020838601011115611de2578283fd5b816020850160208301379081016020019190915292915050565b600060208284031215611e0d578081fd5b8135611ca481612bd7565b600080600060608486031215611e2c578182fd5b8335611e3781612bd7565b92506020840135611e4781612bd7565b929592945050506040919091013590565b600080600080600060608688031215611e6f578081fd5b853567ffffffffffffffff80821115611e86578283fd5b611e9289838a01611d22565b90975095506020880135915080821115611eaa578283fd5b50611eb788828901611d22565b9094509250506040860135611ecb81612bd7565b809150509295509295909350565b6000806000806000806000806080898b031215611ef4578283fd5b883567ffffffffffffffff80821115611f0b578485fd5b611f178c838d01611d22565b909a50985060208b0135915080821115611f2f578485fd5b611f3b8c838d01611d22565b909850965060408b0135915080821115611f53578485fd5b611f5f8c838d01611d6b565b909650945060608b0135915080821115611f77578384fd5b50611f848b828c01611d6b565b999c989b5096995094979396929594505050565b600060208284031215611fa9578081fd5b8135611ca481612bfc565b600060208284031215611fc5578081fd5b8151611ca481612bfc565b600060208284031215611fe1578081fd5b815167ffffffffffffffff811115611ff7578182fd5b8201601f81018413612007578182fd5b8051612015611dc982612b0b565b818152856020838501011115612029578384fd5b611ba1826020830160208601612bab565b60006020828403121561204b578081fd5b8135611ca481612c0a565b600060208284031215612067578081fd5b8151611ca481612c0a565b60008060408385031215612084578182fd5b823561208f81612c0a565b9150602083013561209f81612bd7565b809150509250929050565b6000806000604084860312156120be578081fd5b83356120c981612c0a565b9250602084013567ffffffffffffffff8111156120e4578182fd5b6120f086828701611d6b565b9497909650939450505050565b600080600080600060608688031215612114578283fd5b853561211f81612c0a565b9450602086013567ffffffffffffffff8082111561213b578485fd5b61214789838a01611d6b565b9096509450604088013591508082111561215f578283fd5b5061216c88828901611d6b565b969995985093965092949392505050565b60008060008060008060006080888a031215612197578081fd5b87356121a281612c0a565b9650602088013567ffffffffffffffff808211156121be578283fd5b6121ca8b838c01611d6b565b909850965060408a01359150808211156121e2578283fd5b6121ee8b838c01611d6b565b909650945060608a0135915080821115612206578283fd5b506122138a828b01611d6b565b989b979a50959850939692959293505050565b6000806000806060858703121561223b578182fd5b843561224681612c0a565b9350602085013567ffffffffffffffff811115612261578283fd5b61226d87828801611d6b565b9598909750949560400135949350505050565b60008060008060008060a08789031215612298578384fd5b86356122a381612c0a565b9550602087013567ffffffffffffffff8111156122be578485fd5b6122ca89828a01611d6b565b909650945050604087013592506060870135915060808701356122ec81612bd7565b809150509295509295509295565b6000806000806080858703121561230f578182fd5b843561231a81612c0a565b9350602085013567ffffffffffffffff80821115612336578384fd5b61234288838901611dab565b9450604087013591508082168214612358578384fd5b9092506060860135908082111561236d578283fd5b5061237a87828801611dab565b91505092959194509250565b60008060408385031215612398578182fd5b82356123a381612c0a565b9150602083013561209f81612c0a565b600080600080608085870312156123c8578182fd5b84356123d381612c0a565b935060208501356123e381612c0a565b925060408501356123f381612bd7565b9396929550929360600135925050565b60008060008060006080868803121561241a578283fd5b853561242581612c0a565b9450602086013561243581612c0a565b935060408601359250606086013567ffffffffffffffff811115612457578182fd5b61216c88828901611d6b565b60008060408385031215612475578182fd5b505080516020909101519092909150565b600082845282826020860137806020848601015260207fffffffffffffffffffffffffffffffffffffffffffffffffffffffffffffffe0601f85011685010190509392505050565b600081518084526124e6816020860160208601612bab565b601f017fffffffffffffffffffffffffffffffffffffffffffffffffffffffffffffffe0169290920160200192915050565b7fffffffffffffffffffff00000000000000000000000000000000000000000000919091168152600a0190565b60008251612557818460208701612bab565b9190910192915050565b60f09290921b7fffff000000000000000000000000000000000000000000000000000000000000168252600282015260220190565b60f09490941b7fffff0000000000000000000000000000000000000000000000000000000000001684526002840192909252602283015260601b7fffffffffffffffffffffffffffffffffffffffff00000000000000000000000016604282015260560190565b73ffffffffffffffffffffffffffffffffffffffff91909116815260200190565b73ffffffffffffffffffffffffffffffffffffffff929092168252602082015260400190565b901515815260200190565b600060208252611ca460208301846124ce565b600061ffff8816825260c0602083015261267f60c08301886124ce565b73ffffffffffffffffffffffffffffffffffffffff8716604084015267ffffffffffffffff8616606084015284608084015282810360a08401526126c381856124ce565b9998505050505050505050565b60208082526041908201527f5f647374436861696e4964732e6c656e6774682c205f647374436f756e74657260408201527f4d6f636b4164647265737365732e6c656e677468206e6f74207468652073616d60608201527f6500000000000000000000000000000000000000000000000000000000000000608082015260a00190565b60208082526044908201527f44696420796f75206d65616e20746f2073656e64206120626c6f636b6564206160408201527f6d6f756e74202d20636865636b20726563656976652829202f2066616c6c626160608201527f636b282900000000000000000000000000000000000000000000000000000000608082015260a00190565b61ffff91909116815260200190565b600061ffff8816825273ffffffffffffffffffffffffffffffffffffffff8716602083015260a0604083015261281f60a083018688612486565b841515606084015282810360808401526126c381856124ce565b600061ffff8b16825260c0602083015261285760c083018a8c612486565b828103604084015261286a81898b612486565b73ffffffffffffffffffffffffffffffffffffffff88811660608601528716608085015283810360a085015290506128a3818587612486565b9c9b505050505050505050505050565b600061ffff8a16825260c060208301526128d160c08301898b612486565b82810360408401526128e481888a612486565b73ffffffffffffffffffffffffffffffffffffffff87811660608601528616608085015283810360a0850152905061291c81856124ce565b9b9a5050505050505050505050565b600061ffff8916825260c0602083015261294960c08301888a612486565b828103604084015261295b81886124ce565b73ffffffffffffffffffffffffffffffffffffffff87811660608601528616608085015283810360a0850152905061299381856124ce565b9a9950505050505050505050565b600061ffff8916825260c060208301526129be60c08301896124ce565b828103604084015261295b81888a612486565b61ffff948516815292909316602083015273ffffffffffffffffffffffffffffffffffffffff166040820152606081019190915260800190565b600061ffff808716835280861660208401525083604083015260806060830152612a3860808301846124ce565b9695505050505050565b600061ffff808816835280871660208401525084604083015260806060830152612a70608083018486612486565b979650505050505050565b90815260200190565b60008083357fffffffffffffffffffffffffffffffffffffffffffffffffffffffffffffffe1843603018112612ab8578283fd5b83018035915067ffffffffffffffff821115612ad2578283fd5b602001915036819003821315611d6457600080fd5b60405181810167ffffffffffffffff81118282101715612b0357fe5b604052919050565b600067ffffffffffffffff821115612b1f57fe5b50601f017fffffffffffffffffffffffffffffffffffffffffffffffffffffffffffffffe01660200190565b600067ffffffffffffffff831115612b5f57fe5b6020612b6e8182860201612ae7565b8481528181019084845b87811015612b9f57612b8d3683358901611dab565b84529284019290840190600101612b78565b50909695505050505050565b60005b83811015612bc6578181015183820152602001612bae565b838111156117f55750506000910152565b73ffffffffffffffffffffffffffffffffffffffff81168114612bf957600080fd5b50565b8015158114612bf957600080fd5b61ffff81168114612bf957600080fdfe4f776e61626c653a206e6577206f776e657220697320746865207a65726f2061646472657373536166654d6174683a206d756c7469706c69636174696f6e206f766572666c6f77a26469706673582212202ad31c9caca79412c71bef0cb0f355d8c18832bed40f7731b6a2dab0259e460364736f6c63430007060033",
  "devdoc": {
    "kind": "dev",
    "methods": {
      "owner()": {
        "details": "Returns the address of the current owner."
      },
      "renounceOwnership()": {
        "details": "Leaves the contract without owner. It will not be possible to call `onlyOwner` functions anymore. Can only be called by the current owner. NOTE: Renouncing ownership will leave the contract without an owner, thereby removing any functionality that is only available to the owner."
      },
      "transferOwnership(address)": {
        "details": "Transfers ownership of the contract to a new account (`newOwner`). Can only be called by the current owner."
      }
    },
    "version": 1
  },
  "userdoc": {
    "kind": "user",
    "methods": {},
    "version": 1
  },
  "storageLayout": {
    "storage": [
      {
        "astId": 2885,
        "contract": "contracts/mocks/OmniCounter.sol:OmniCounter",
        "label": "_owner",
        "offset": 0,
        "slot": "0",
        "type": "t_address"
      },
      {
        "astId": 10380,
        "contract": "contracts/mocks/OmniCounter.sol:OmniCounter",
        "label": "messageCounter",
        "offset": 0,
        "slot": "1",
        "type": "t_uint256"
      },
      {
        "astId": 10384,
        "contract": "contracts/mocks/OmniCounter.sol:OmniCounter",
        "label": "remoteAddressCounter",
        "offset": 0,
        "slot": "2",
        "type": "t_mapping(t_address,t_uint256)"
      },
      {
        "astId": 10386,
        "contract": "contracts/mocks/OmniCounter.sol:OmniCounter",
        "label": "endpoint",
        "offset": 0,
        "slot": "3",
        "type": "t_contract(ILayerZeroEndpoint)9361"
      },
      {
        "astId": 10388,
        "contract": "contracts/mocks/OmniCounter.sol:OmniCounter",
        "label": "payInZRO",
        "offset": 20,
        "slot": "3",
        "type": "t_bool"
      }
    ],
    "types": {
      "t_address": {
        "encoding": "inplace",
        "label": "address",
        "numberOfBytes": "20"
      },
      "t_bool": {
        "encoding": "inplace",
        "label": "bool",
        "numberOfBytes": "1"
      },
      "t_contract(ILayerZeroEndpoint)9361": {
        "encoding": "inplace",
        "label": "contract ILayerZeroEndpoint",
        "numberOfBytes": "20"
      },
      "t_mapping(t_address,t_uint256)": {
        "encoding": "mapping",
        "key": "t_address",
        "label": "mapping(address => uint256)",
        "numberOfBytes": "32",
        "value": "t_uint256"
      },
      "t_uint256": {
        "encoding": "inplace",
        "label": "uint256",
        "numberOfBytes": "32"
      }
    }
  }
}