{
  "address": "0x145C041566B21Bec558B2A37F1a5Ff261aB55998",
  "abi": [
    {
      "inputs": [
        {
          "internalType": "address",
          "name": "_ulnv2",
          "type": "address"
        }
      ],
      "stateMutability": "nonpayable",
      "type": "constructor"
    },
    {
      "anonymous": false,
      "inputs": [
        {
          "indexed": false,
          "internalType": "bool",
          "name": "feeEnabled",
          "type": "bool"
        }
      ],
      "name": "FeeEnabled",
      "type": "event"
    },
    {
      "anonymous": false,
      "inputs": [
        {
          "indexed": false,
          "internalType": "uint256",
          "name": "bp",
          "type": "uint256"
        }
      ],
      "name": "NativeBP",
      "type": "event"
    },
    {
      "anonymous": false,
      "inputs": [
        {
          "indexed": true,
          "internalType": "address",
          "name": "previousOwner",
          "type": "address"
        },
        {
          "indexed": true,
          "internalType": "address",
          "name": "newOwner",
          "type": "address"
        }
      ],
      "name": "OwnershipTransferred",
      "type": "event"
    },
    {
      "anonymous": false,
      "inputs": [
        {
          "indexed": false,
          "internalType": "bool",
          "name": "zroEnabled",
          "type": "bool"
        }
      ],
      "name": "ZroEnabled",
      "type": "event"
    },
    {
      "anonymous": false,
      "inputs": [
        {
          "indexed": false,
          "internalType": "uint256",
          "name": "zroFee",
          "type": "uint256"
        }
      ],
      "name": "ZroFee",
      "type": "event"
    },
    {
      "inputs": [],
      "name": "feeEnabled",
      "outputs": [
        {
          "internalType": "bool",
          "name": "",
          "type": "bool"
        }
      ],
      "stateMutability": "view",
      "type": "function"
    },
    {
      "inputs": [
        {
          "internalType": "bool",
          "name": "payInZro",
          "type": "bool"
        },
        {
          "internalType": "uint256",
          "name": "relayerFee",
          "type": "uint256"
        },
        {
          "internalType": "uint256",
          "name": "oracleFee",
          "type": "uint256"
        }
      ],
      "name": "getFees",
      "outputs": [
        {
          "internalType": "uint256",
          "name": "",
          "type": "uint256"
        }
      ],
      "stateMutability": "view",
      "type": "function"
    },
    {
      "inputs": [],
      "name": "nativeBP",
      "outputs": [
        {
          "internalType": "uint256",
          "name": "",
          "type": "uint256"
        }
      ],
      "stateMutability": "view",
      "type": "function"
    },
    {
      "inputs": [],
      "name": "owner",
      "outputs": [
        {
          "internalType": "address",
          "name": "",
          "type": "address"
        }
      ],
      "stateMutability": "view",
      "type": "function"
    },
    {
      "inputs": [],
      "name": "renounceOwnership",
      "outputs": [],
      "stateMutability": "nonpayable",
      "type": "function"
    },
    {
      "inputs": [
        {
          "internalType": "bool",
          "name": "_feeEnabled",
          "type": "bool"
        }
      ],
      "name": "setFeeEnabled",
      "outputs": [],
      "stateMutability": "nonpayable",
      "type": "function"
    },
    {
      "inputs": [
        {
          "internalType": "uint256",
          "name": "_nativeBP",
          "type": "uint256"
        }
      ],
      "name": "setNativeBP",
      "outputs": [],
      "stateMutability": "nonpayable",
      "type": "function"
    },
    {
      "inputs": [
        {
          "internalType": "bool",
          "name": "_zroEnabled",
          "type": "bool"
        }
      ],
      "name": "setZroEnabled",
      "outputs": [],
      "stateMutability": "nonpayable",
      "type": "function"
    },
    {
      "inputs": [
        {
          "internalType": "uint256",
          "name": "_zroFee",
          "type": "uint256"
        }
      ],
      "name": "setZroFee",
      "outputs": [],
      "stateMutability": "nonpayable",
      "type": "function"
    },
    {
      "inputs": [
        {
          "internalType": "address",
          "name": "newOwner",
          "type": "address"
        }
      ],
      "name": "transferOwnership",
      "outputs": [],
      "stateMutability": "nonpayable",
      "type": "function"
    },
    {
      "inputs": [],
      "name": "uln",
      "outputs": [
        {
          "internalType": "contract ILayerZeroUltraLightNodeV2",
          "name": "",
          "type": "address"
        }
      ],
      "stateMutability": "view",
      "type": "function"
    },
    {
      "inputs": [
        {
          "internalType": "address payable",
          "name": "_to",
          "type": "address"
        },
        {
          "internalType": "uint256",
          "name": "_amount",
          "type": "uint256"
        }
      ],
      "name": "withdrawNativeFromULN",
      "outputs": [],
      "stateMutability": "nonpayable",
      "type": "function"
    },
    {
      "inputs": [
        {
          "internalType": "address",
          "name": "_token",
          "type": "address"
        },
        {
          "internalType": "address",
          "name": "_to",
          "type": "address"
        },
        {
          "internalType": "uint256",
          "name": "_amount",
          "type": "uint256"
        }
      ],
      "name": "withdrawToken",
      "outputs": [],
      "stateMutability": "nonpayable",
      "type": "function"
    },
    {
      "inputs": [
        {
          "internalType": "address",
          "name": "_to",
          "type": "address"
        },
        {
          "internalType": "uint256",
          "name": "_amount",
          "type": "uint256"
        }
      ],
      "name": "withdrawZROFromULN",
      "outputs": [],
      "stateMutability": "nonpayable",
      "type": "function"
    },
    {
      "inputs": [],
      "name": "zroEnabled",
      "outputs": [
        {
          "internalType": "bool",
          "name": "",
          "type": "bool"
        }
      ],
      "stateMutability": "view",
      "type": "function"
    },
    {
      "inputs": [],
      "name": "zroFee",
      "outputs": [
        {
          "internalType": "uint256",
          "name": "",
          "type": "uint256"
        }
      ],
      "stateMutability": "view",
      "type": "function"
    }
  ],
  "transactionHash": "0xc10a41abcb46d628e77038298ab2805ef5c104f0c43430ac0bd37259e984715e",
  "args": [
    "0x3aCAAf60502791D199a5a5F0B173D78229eBFe32"
  ],
  "numDeployments": 1,
  "solcInputHash": "cce6df7cf089554b7b8ca474179bbe1a",
  "bytecode": "0x608060405234801561001057600080fd5b5060405161152c38038061152c8339818101604052602081101561003357600080fd5b5051600061003f6100b6565b600080546001600160a01b0319166001600160a01b0383169081178255604051929350917f8be0079c531659141344cd1fd0a4f28419497f9722a3daafe3b4186f6b6457e0908290a350600380546001600160a01b03909216620100000262010000600160b01b03199092169190911790556100ba565b3390565b611463806100c96000396000f3fe608060405234801561001057600080fd5b50600436106101005760003560e01c80638da5cb5b11610097578063baead4cc11610066578063baead4cc146102a2578063d684b253146102bf578063d935d123146102de578063f2fde38b146102e657610100565b80638da5cb5b1461026e57806396a141a014610276578063a771ebc71461027e578063af406aa51461029a57610100565b80636c473aff116100d35780636c473aff146101df578063715018a6146102105780637ba20ccf146102185780638c6163971461023557610100565b806301e33667146101055780630db474fa1461014a5780633c5ac8f7146101695780635cbbbd75146101a2575b600080fd5b6101486004803603606081101561011b57600080fd5b5073ffffffffffffffffffffffffffffffffffffffff813581169160208101359091169060400135610319565b005b6101486004803603602081101561016057600080fd5b503515156103e7565b6101486004803603604081101561017f57600080fd5b5073ffffffffffffffffffffffffffffffffffffffff81351690602001356104f4565b6101cd600480360360608110156101b857600080fd5b5080351515906020810135906040013561063a565b60408051918252519081900360200190f35b6101e761070a565b6040805173ffffffffffffffffffffffffffffffffffffffff9092168252519081900360200190f35b61014861072c565b6101486004803603602081101561022e57600080fd5b5035610843565b6101486004803603604081101561024b57600080fd5b5073ffffffffffffffffffffffffffffffffffffffff8135169060200135610926565b6101e7610a50565b6101cd610a6c565b610286610a72565b604080519115158252519081900360200190f35b6101cd610a7b565b610148600480360360208110156102b857600080fd5b5035610a81565b610148600480360360208110156102d557600080fd5b50351515610b64565b610286610c78565b610148600480360360208110156102fc57600080fd5b503573ffffffffffffffffffffffffffffffffffffffff16610c86565b610321610e27565b73ffffffffffffffffffffffffffffffffffffffff1661033f610a50565b73ffffffffffffffffffffffffffffffffffffffff16146103c157604080517f08c379a000000000000000000000000000000000000000000000000000000000815260206004820181905260248201527f4f776e61626c653a2063616c6c6572206973206e6f7420746865206f776e6572604482015290519081900360640190fd5b6103e273ffffffffffffffffffffffffffffffffffffffff84168383610e2b565b505050565b6103ef610e27565b73ffffffffffffffffffffffffffffffffffffffff1661040d610a50565b73ffffffffffffffffffffffffffffffffffffffff161461048f57604080517f08c379a000000000000000000000000000000000000000000000000000000000815260206004820181905260248201527f4f776e61626c653a2063616c6c6572206973206e6f7420746865206f776e6572604482015290519081900360640190fd5b600380548215157fffffffffffffffffffffffffffffffffffffffffffffffffffffffffffffff00909116811790915560408051918252517fe97fa32ceb811a18d1b14115b17ae0034db328b2e2ca987d9922cbf47b03fad69181900360200190a150565b6104fc610e27565b73ffffffffffffffffffffffffffffffffffffffff1661051a610a50565b73ffffffffffffffffffffffffffffffffffffffff161461059c57604080517f08c379a000000000000000000000000000000000000000000000000000000000815260206004820181905260248201527f4f776e61626c653a2063616c6c6572206973206e6f7420746865206f776e6572604482015290519081900360640190fd5b600354604080517f07b18bde00000000000000000000000000000000000000000000000000000000815273ffffffffffffffffffffffffffffffffffffffff858116600483015260248201859052915162010000909304909116916307b18bde9160448082019260009290919082900301818387803b15801561061e57600080fd5b505af1158015610632573d6000803e3d6000fd5b505050505050565b60035460009060ff16156106ff5783156106cd57600354610100900460ff166106c457604080517f08c379a000000000000000000000000000000000000000000000000000000000815260206004820152601d60248201527f4c617965725a65726f3a205a524f206973206e6f7420656e61626c6564000000604482015290519081900360640190fd5b50600254610703565b6106f86127106106f26001546106ec8688610eb890919063ffffffff16565b90610f35565b90610fa8565b9050610703565b5060005b9392505050565b60035462010000900473ffffffffffffffffffffffffffffffffffffffff1681565b610734610e27565b73ffffffffffffffffffffffffffffffffffffffff16610752610a50565b73ffffffffffffffffffffffffffffffffffffffff16146107d457604080517f08c379a000000000000000000000000000000000000000000000000000000000815260206004820181905260248201527f4f776e61626c653a2063616c6c6572206973206e6f7420746865206f776e6572604482015290519081900360640190fd5b6000805460405173ffffffffffffffffffffffffffffffffffffffff909116907f8be0079c531659141344cd1fd0a4f28419497f9722a3daafe3b4186f6b6457e0908390a3600080547fffffffffffffffffffffffff0000000000000000000000000000000000000000169055565b61084b610e27565b73ffffffffffffffffffffffffffffffffffffffff16610869610a50565b73ffffffffffffffffffffffffffffffffffffffff16146108eb57604080517f08c379a000000000000000000000000000000000000000000000000000000000815260206004820181905260248201527f4f776e61626c653a2063616c6c6572206973206e6f7420746865206f776e6572604482015290519081900360640190fd5b60028190556040805182815290517f804d99c2291bc4a6be11ff016f65cfc644f8d488ef55a5318d0217a1fdc4e9fd9181900360200190a150565b61092e610e27565b73ffffffffffffffffffffffffffffffffffffffff1661094c610a50565b73ffffffffffffffffffffffffffffffffffffffff16146109ce57604080517f08c379a000000000000000000000000000000000000000000000000000000000815260206004820181905260248201527f4f776e61626c653a2063616c6c6572206973206e6f7420746865206f776e6572604482015290519081900360640190fd5b600354604080517f8525b71100000000000000000000000000000000000000000000000000000000815273ffffffffffffffffffffffffffffffffffffffff85811660048301526024820185905291516201000090930490911691638525b7119160448082019260009290919082900301818387803b15801561061e57600080fd5b60005473ffffffffffffffffffffffffffffffffffffffff1690565b60015481565b60035460ff1681565b60025481565b610a89610e27565b73ffffffffffffffffffffffffffffffffffffffff16610aa7610a50565b73ffffffffffffffffffffffffffffffffffffffff1614610b2957604080517f08c379a000000000000000000000000000000000000000000000000000000000815260206004820181905260248201527f4f776e61626c653a2063616c6c6572206973206e6f7420746865206f776e6572604482015290519081900360640190fd5b60018190556040805182815290517ff2a316ed322d32481373e7ed416bc6c1ec2afcfa3bf2f1df9eb4300e1a9620e39181900360200190a150565b610b6c610e27565b73ffffffffffffffffffffffffffffffffffffffff16610b8a610a50565b73ffffffffffffffffffffffffffffffffffffffff1614610c0c57604080517f08c379a000000000000000000000000000000000000000000000000000000000815260206004820181905260248201527f4f776e61626c653a2063616c6c6572206973206e6f7420746865206f776e6572604482015290519081900360640190fd5b6003805482151561010081027fffffffffffffffffffffffffffffffffffffffffffffffffffffffffffff00ff9092169190911790915560408051918252517f279d3ec34d7b325d10d4b9d6c63464877a6fe6ac3997f7508bdb3b9d2d5050b39181900360200190a150565b600354610100900460ff1681565b610c8e610e27565b73ffffffffffffffffffffffffffffffffffffffff16610cac610a50565b73ffffffffffffffffffffffffffffffffffffffff1614610d2e57604080517f08c379a000000000000000000000000000000000000000000000000000000000815260206004820181905260248201527f4f776e61626c653a2063616c6c6572206973206e6f7420746865206f776e6572604482015290519081900360640190fd5b73ffffffffffffffffffffffffffffffffffffffff8116610d9a576040517f08c379a00000000000000000000000000000000000000000000000000000000081526004018080602001828103825260268152602001806113976026913960400191505060405180910390fd5b6000805460405173ffffffffffffffffffffffffffffffffffffffff808516939216917f8be0079c531659141344cd1fd0a4f28419497f9722a3daafe3b4186f6b6457e091a3600080547fffffffffffffffffffffffff00000000000000000000000000000000000000001673ffffffffffffffffffffffffffffffffffffffff92909216919091179055565b3390565b6040805173ffffffffffffffffffffffffffffffffffffffff8416602482015260448082018490528251808303909101815260649091019091526020810180517bffffffffffffffffffffffffffffffffffffffffffffffffffffffff167fa9059cbb000000000000000000000000000000000000000000000000000000001790526103e2908490611029565b600082820183811015610f2c57604080517f08c379a000000000000000000000000000000000000000000000000000000000815260206004820152601b60248201527f536166654d6174683a206164646974696f6e206f766572666c6f770000000000604482015290519081900360640190fd5b90505b92915050565b600082610f4457506000610f2f565b82820282848281610f5157fe5b0414610f2c576040517f08c379a00000000000000000000000000000000000000000000000000000000081526004018080602001828103825260218152602001806113e36021913960400191505060405180910390fd5b600080821161101857604080517f08c379a000000000000000000000000000000000000000000000000000000000815260206004820152601a60248201527f536166654d6174683a206469766973696f6e206279207a65726f000000000000604482015290519081900360640190fd5b81838161102157fe5b049392505050565b600061108b826040518060400160405280602081526020017f5361666545524332303a206c6f772d6c6576656c2063616c6c206661696c65648152508573ffffffffffffffffffffffffffffffffffffffff166111019092919063ffffffff16565b8051909150156103e2578080602001905160208110156110aa57600080fd5b50516103e2576040517f08c379a000000000000000000000000000000000000000000000000000000000815260040180806020018281038252602a815260200180611404602a913960400191505060405180910390fd5b60606111108484600085611118565b949350505050565b606082471015611173576040517f08c379a00000000000000000000000000000000000000000000000000000000081526004018080602001828103825260268152602001806113bd6026913960400191505060405180910390fd5b61117c856112d2565b6111e757604080517f08c379a000000000000000000000000000000000000000000000000000000000815260206004820152601d60248201527f416464726573733a2063616c6c20746f206e6f6e2d636f6e7472616374000000604482015290519081900360640190fd5b6000808673ffffffffffffffffffffffffffffffffffffffff1685876040518082805190602001908083835b6020831061125057805182527fffffffffffffffffffffffffffffffffffffffffffffffffffffffffffffffe09092019160209182019101611213565b6001836020036101000a03801982511681845116808217855250505050505090500191505060006040518083038185875af1925050503d80600081146112b2576040519150601f19603f3d011682016040523d82523d6000602084013e6112b7565b606091505b50915091506112c78282866112d8565b979650505050505050565b3b151590565b606083156112e7575081610703565b8251156112f75782518084602001fd5b816040517f08c379a00000000000000000000000000000000000000000000000000000000081526004018080602001828103825283818151815260200191508051906020019080838360005b8381101561135b578181015183820152602001611343565b50505050905090810190601f1680156113885780820380516001836020036101000a031916815260200191505b509250505060405180910390fdfe4f776e61626c653a206e6577206f776e657220697320746865207a65726f2061646472657373416464726573733a20696e73756666696369656e742062616c616e636520666f722063616c6c536166654d6174683a206d756c7469706c69636174696f6e206f766572666c6f775361666545524332303a204552433230206f7065726174696f6e20646964206e6f742073756363656564a2646970667358221220792f2883aef30eb3c186510ec23f525f0f05f85b091a8a8e1c6b12401211693e64736f6c63430007060033",
  "devdoc": {
    "kind": "dev",
    "methods": {
      "owner()": {
        "details": "Returns the address of the current owner."
      },
      "renounceOwnership()": {
        "details": "Leaves the contract without owner. It will not be possible to call `onlyOwner` functions anymore. Can only be called by the current owner. NOTE: Renouncing ownership will leave the contract without an owner, thereby removing any functionality that is only available to the owner."
      },
      "transferOwnership(address)": {
        "details": "Transfers ownership of the contract to a new account (`newOwner`). Can only be called by the current owner."
      }
    },
    "version": 1
  },
  "userdoc": {
    "kind": "user",
    "methods": {},
    "version": 1
  },
  "storageLayout": {
    "storage": [
      {
        "astId": 493,
        "contract": "contracts/TreasuryV2.sol:TreasuryV2",
        "label": "_owner",
        "offset": 0,
        "slot": "0",
        "type": "t_address"
      },
      {
        "astId": 7570,
        "contract": "contracts/TreasuryV2.sol:TreasuryV2",
        "label": "nativeBP",
        "offset": 0,
        "slot": "1",
        "type": "t_uint256"
      },
      {
        "astId": 7572,
        "contract": "contracts/TreasuryV2.sol:TreasuryV2",
        "label": "zroFee",
        "offset": 0,
        "slot": "2",
        "type": "t_uint256"
      },
      {
        "astId": 7574,
        "contract": "contracts/TreasuryV2.sol:TreasuryV2",
        "label": "feeEnabled",
        "offset": 0,
        "slot": "3",
        "type": "t_bool"
      },
      {
        "astId": 7576,
        "contract": "contracts/TreasuryV2.sol:TreasuryV2",
        "label": "zroEnabled",
        "offset": 1,
        "slot": "3",
        "type": "t_bool"
      },
      {
        "astId": 7578,
        "contract": "contracts/TreasuryV2.sol:TreasuryV2",
        "label": "uln",
        "offset": 2,
        "slot": "3",
        "type": "t_contract(ILayerZeroUltraLightNodeV2)16697"
      }
    ],
    "types": {
      "t_address": {
        "encoding": "inplace",
        "label": "address",
        "numberOfBytes": "20"
      },
      "t_bool": {
        "encoding": "inplace",
        "label": "bool",
        "numberOfBytes": "1"
      },
      "t_contract(ILayerZeroUltraLightNodeV2)16697": {
        "encoding": "inplace",
        "label": "contract ILayerZeroUltraLightNodeV2",
        "numberOfBytes": "20"
      },
      "t_uint256": {
        "encoding": "inplace",
        "label": "uint256",
        "numberOfBytes": "32"
      }
    }
  }
}