{
  "address": "0xbb5C69169999d70c4de00256980AaFe17272f670",
  "abi": [
    {
      "anonymous": false,
      "inputs": [
        {
          "indexed": false,
          "internalType": "address",
          "name": "addr",
          "type": "address"
        },
        {
          "indexed": false,
          "internalType": "bool",
          "name": "approved",
          "type": "bool"
        }
      ],
      "name": "ApproveAddress",
      "type": "event"
    },
    {
      "anonymous": false,
      "inputs": [
        {
          "indexed": false,
          "internalType": "uint256",
          "name": "totalFee",
          "type": "uint256"
        }
      ],
      "name": "AssignJob",
      "type": "event"
    },
    {
      "anonymous": false,
      "inputs": [
        {
          "indexed": true,
          "internalType": "address",
          "name": "previousOwner",
          "type": "address"
        },
        {
          "indexed": true,
          "internalType": "address",
          "name": "newOwner",
          "type": "address"
        }
      ],
      "name": "OwnershipTransferred",
      "type": "event"
    },
    {
      "anonymous": false,
      "inputs": [
        {
          "indexed": false,
          "internalType": "uint16",
          "name": "chainId",
          "type": "uint16"
        },
        {
          "indexed": false,
          "internalType": "uint16",
          "name": "outboundProofType",
          "type": "uint16"
        },
        {
          "indexed": false,
          "internalType": "uint128",
          "name": "dstNativeAmtCap",
          "type": "uint128"
        },
        {
          "indexed": false,
          "internalType": "uint64",
          "name": "baseGas",
          "type": "uint64"
        },
        {
          "indexed": false,
          "internalType": "uint64",
          "name": "gasPerByte",
          "type": "uint64"
        }
      ],
      "name": "SetDstConfig",
      "type": "event"
    },
    {
      "anonymous": false,
      "inputs": [
        {
          "indexed": false,
          "internalType": "uint16",
          "name": "chainId",
          "type": "uint16"
        },
        {
          "indexed": false,
          "internalType": "uint128",
          "name": "dstPriceRatio",
          "type": "uint128"
        },
        {
          "indexed": false,
          "internalType": "uint128",
          "name": "dstGasPriceInWei",
          "type": "uint128"
        }
      ],
      "name": "SetDstPrice",
      "type": "event"
    },
    {
      "anonymous": false,
      "inputs": [
        {
          "indexed": false,
          "internalType": "address",
          "name": "priceConfigUpdater",
          "type": "address"
        },
        {
          "indexed": false,
          "internalType": "bool",
          "name": "allow",
          "type": "bool"
        }
      ],
      "name": "SetPriceConfigUpdater",
      "type": "event"
    },
    {
      "anonymous": false,
      "inputs": [
        {
          "indexed": true,
          "internalType": "address",
          "name": "to",
          "type": "address"
        },
        {
          "indexed": true,
          "internalType": "uint256",
          "name": "quantity",
          "type": "uint256"
        }
      ],
      "name": "ValueTransferFailed",
      "type": "event"
    },
    {
      "anonymous": false,
      "inputs": [
        {
          "indexed": false,
          "internalType": "address",
          "name": "to",
          "type": "address"
        },
        {
          "indexed": false,
          "internalType": "uint256",
          "name": "amount",
          "type": "uint256"
        }
      ],
      "name": "Withdraw",
      "type": "event"
    },
    {
      "inputs": [],
      "name": "AIRDROP_GAS_LIMIT",
      "outputs": [
        {
          "internalType": "uint256",
          "name": "",
          "type": "uint256"
        }
      ],
      "stateMutability": "view",
      "type": "function"
    },
    {
      "inputs": [
        {
          "internalType": "address",
          "name": "",
          "type": "address"
        }
      ],
      "name": "approvedAddresses",
      "outputs": [
        {
          "internalType": "bool",
          "name": "",
          "type": "bool"
        }
      ],
      "stateMutability": "view",
      "type": "function"
    },
    {
      "inputs": [
        {
          "internalType": "uint16",
          "name": "_dstChainId",
          "type": "uint16"
        },
        {
          "internalType": "uint16",
          "name": "_outboundProofType",
          "type": "uint16"
        },
        {
          "internalType": "address",
          "name": "_userApplication",
          "type": "address"
        },
        {
          "internalType": "uint256",
          "name": "_payloadSize",
          "type": "uint256"
        },
        {
          "internalType": "bytes",
          "name": "_adapterParams",
          "type": "bytes"
        }
      ],
      "name": "assignJob",
      "outputs": [
        {
          "internalType": "uint256",
          "name": "fee",
          "type": "uint256"
        }
      ],
      "stateMutability": "nonpayable",
      "type": "function"
    },
    {
      "inputs": [
        {
          "internalType": "uint16",
          "name": "",
          "type": "uint16"
        },
        {
          "internalType": "uint16",
          "name": "",
          "type": "uint16"
        }
      ],
      "name": "dstConfigLookup",
      "outputs": [
        {
          "internalType": "uint128",
          "name": "dstNativeAmtCap",
          "type": "uint128"
        },
        {
          "internalType": "uint64",
          "name": "baseGas",
          "type": "uint64"
        },
        {
          "internalType": "uint64",
          "name": "gasPerByte",
          "type": "uint64"
        }
      ],
      "stateMutability": "view",
      "type": "function"
    },
    {
      "inputs": [
        {
          "internalType": "uint16",
          "name": "",
          "type": "uint16"
        }
      ],
      "name": "dstFloorMarginsUSD",
      "outputs": [
        {
          "internalType": "uint128",
          "name": "",
          "type": "uint128"
        }
      ],
      "stateMutability": "view",
      "type": "function"
    },
    {
      "inputs": [
        {
          "internalType": "uint16",
          "name": "",
          "type": "uint16"
        }
      ],
      "name": "dstMultipliers",
      "outputs": [
        {
          "internalType": "uint128",
          "name": "",
          "type": "uint128"
        }
      ],
      "stateMutability": "view",
      "type": "function"
    },
    {
      "inputs": [
        {
          "internalType": "uint16",
          "name": "_dstChainId",
          "type": "uint16"
        }
      ],
      "name": "dstPriceLookup",
      "outputs": [
        {
          "components": [
            {
              "internalType": "uint128",
              "name": "dstPriceRatio",
              "type": "uint128"
            },
            {
              "internalType": "uint128",
              "name": "dstGasPriceInWei",
              "type": "uint128"
            }
          ],
          "internalType": "struct RelayerV2.DstPrice",
          "name": "",
          "type": "tuple"
        }
      ],
      "stateMutability": "view",
      "type": "function"
    },
    {
      "inputs": [
        {
          "internalType": "uint16",
          "name": "",
          "type": "uint16"
        }
      ],
      "name": "dstPriceLookupOld",
      "outputs": [
        {
          "internalType": "uint128",
          "name": "dstPriceRatio",
          "type": "uint128"
        },
        {
          "internalType": "uint128",
          "name": "dstGasPriceInWei",
          "type": "uint128"
        }
      ],
      "stateMutability": "view",
      "type": "function"
    },
    {
      "inputs": [],
      "name": "fpBytes",
      "outputs": [
        {
          "internalType": "uint16",
          "name": "",
          "type": "uint16"
        }
      ],
      "stateMutability": "view",
      "type": "function"
    },
    {
      "inputs": [
        {
          "internalType": "uint16",
          "name": "_dstChainId",
          "type": "uint16"
        },
        {
          "internalType": "uint16",
          "name": "_outboundProofType",
          "type": "uint16"
        },
        {
          "internalType": "address",
          "name": "_userApplication",
          "type": "address"
        },
        {
          "internalType": "uint256",
          "name": "_payloadSize",
          "type": "uint256"
        },
        {
          "internalType": "bytes",
          "name": "_adapterParams",
          "type": "bytes"
        }
      ],
      "name": "getFee",
      "outputs": [
        {
          "internalType": "uint256",
          "name": "",
          "type": "uint256"
        }
      ],
      "stateMutability": "view",
      "type": "function"
    },
    {
      "inputs": [
        {
          "internalType": "address",
          "name": "_uln",
          "type": "address"
        },
        {
          "internalType": "address",
          "name": "_priceFeed",
          "type": "address"
        }
      ],
      "name": "initialize",
      "outputs": [],
      "stateMutability": "nonpayable",
      "type": "function"
    },
    {
      "inputs": [
        {
          "internalType": "address",
          "name": "_relayerAddress",
          "type": "address"
        }
      ],
      "name": "isApproved",
      "outputs": [
        {
          "internalType": "bool",
          "name": "",
          "type": "bool"
        }
      ],
      "stateMutability": "view",
      "type": "function"
    },
    {
      "inputs": [],
      "name": "mptOverhead",
      "outputs": [
        {
          "internalType": "uint16",
          "name": "",
          "type": "uint16"
        }
      ],
      "stateMutability": "view",
      "type": "function"
    },
    {
      "inputs": [],
      "name": "multiplierBps",
      "outputs": [
        {
          "internalType": "uint128",
          "name": "",
          "type": "uint128"
        }
      ],
      "stateMutability": "view",
      "type": "function"
    },
    {
      "inputs": [
        {
          "internalType": "address",
          "name": "_priceFeed",
          "type": "address"
        }
      ],
      "name": "onUpgrade",
      "outputs": [],
      "stateMutability": "nonpayable",
      "type": "function"
    },
    {
      "inputs": [],
      "name": "owner",
      "outputs": [
        {
          "internalType": "address",
          "name": "",
          "type": "address"
        }
      ],
      "stateMutability": "view",
      "type": "function"
    },
    {
      "inputs": [],
      "name": "paused",
      "outputs": [
        {
          "internalType": "bool",
          "name": "",
          "type": "bool"
        }
      ],
      "stateMutability": "view",
      "type": "function"
    },
    {
      "inputs": [
        {
          "internalType": "address",
          "name": "",
          "type": "address"
        }
      ],
      "name": "priceConfigUpdaters",
      "outputs": [
        {
          "internalType": "bool",
          "name": "",
          "type": "bool"
        }
      ],
      "stateMutability": "view",
      "type": "function"
    },
    {
      "inputs": [],
      "name": "priceFeed",
      "outputs": [
        {
          "internalType": "contract ILayerZeroPriceFeedV2",
          "name": "",
          "type": "address"
        }
      ],
      "stateMutability": "view",
      "type": "function"
    },
    {
      "inputs": [],
      "name": "renounceOwnership",
      "outputs": [],
      "stateMutability": "nonpayable",
      "type": "function"
    },
    {
      "inputs": [
        {
          "internalType": "address",
          "name": "_relayerAddress",
          "type": "address"
        },
        {
          "internalType": "bool",
          "name": "_approve",
          "type": "bool"
        }
      ],
      "name": "setApprovedAddress",
      "outputs": [],
      "stateMutability": "nonpayable",
      "type": "function"
    },
    {
      "inputs": [
        {
          "internalType": "uint16",
          "name": "_chainId",
          "type": "uint16"
        },
        {
          "internalType": "uint16",
          "name": "_outboundProofType",
          "type": "uint16"
        },
        {
          "internalType": "uint128",
          "name": "_dstNativeAmtCap",
          "type": "uint128"
        },
        {
          "internalType": "uint64",
          "name": "_baseGas",
          "type": "uint64"
        },
        {
          "internalType": "uint64",
          "name": "_gasPerByte",
          "type": "uint64"
        }
      ],
      "name": "setDstConfig",
      "outputs": [],
      "stateMutability": "nonpayable",
      "type": "function"
    },
    {
      "inputs": [
        {
          "components": [
            {
              "internalType": "uint16",
              "name": "chainId",
              "type": "uint16"
            },
            {
              "internalType": "uint128",
              "name": "floorMargin",
              "type": "uint128"
            }
          ],
          "internalType": "struct RelayerV2.DstFloorMargin[]",
          "name": "_margins",
          "type": "tuple[]"
        }
      ],
      "name": "setDstFloorMarginsUSD",
      "outputs": [],
      "stateMutability": "nonpayable",
      "type": "function"
    },
    {
      "inputs": [
        {
          "internalType": "uint16",
          "name": "_chainId",
          "type": "uint16"
        },
        {
          "internalType": "uint128",
          "name": "_dstPriceRatio",
          "type": "uint128"
        },
        {
          "internalType": "uint128",
          "name": "_dstGasPriceInWei",
          "type": "uint128"
        }
      ],
      "name": "setDstPrice",
      "outputs": [],
      "stateMutability": "nonpayable",
      "type": "function"
    },
    {
      "inputs": [
        {
          "components": [
            {
              "internalType": "uint16",
              "name": "chainId",
              "type": "uint16"
            },
            {
              "internalType": "uint128",
              "name": "multiplier",
              "type": "uint128"
            }
          ],
          "internalType": "struct RelayerV2.DstMultiplier[]",
          "name": "_multipliers",
          "type": "tuple[]"
        }
      ],
      "name": "setDstPriceMultipliers",
      "outputs": [],
      "stateMutability": "nonpayable",
      "type": "function"
    },
    {
      "inputs": [
        {
          "internalType": "bool",
          "name": "_paused",
          "type": "bool"
        }
      ],
      "name": "setPause",
      "outputs": [],
      "stateMutability": "nonpayable",
      "type": "function"
    },
    {
      "inputs": [
        {
          "internalType": "address",
          "name": "_priceConfigUpdater",
          "type": "address"
        },
        {
          "internalType": "bool",
          "name": "_allow",
          "type": "bool"
        }
      ],
      "name": "setPriceConfigUpdater",
      "outputs": [],
      "stateMutability": "nonpayable",
      "type": "function"
    },
    {
      "inputs": [
        {
          "internalType": "address",
          "name": "_priceFeed",
          "type": "address"
        }
      ],
      "name": "setPriceFeed",
      "outputs": [],
      "stateMutability": "nonpayable",
      "type": "function"
    },
    {
      "inputs": [
        {
          "internalType": "uint128",
          "name": "_multiplierBps",
          "type": "uint128"
        }
      ],
      "name": "setPriceMultiplierBps",
      "outputs": [],
      "stateMutability": "nonpayable",
      "type": "function"
    },
    {
      "inputs": [
        {
          "internalType": "address",
          "name": "_stargateAddress",
          "type": "address"
        }
      ],
      "name": "setStargateAddress",
      "outputs": [],
      "stateMutability": "nonpayable",
      "type": "function"
    },
    {
      "inputs": [],
      "name": "stargateBridgeAddress",
      "outputs": [
        {
          "internalType": "address",
          "name": "",
          "type": "address"
        }
      ],
      "stateMutability": "view",
      "type": "function"
    },
    {
      "inputs": [
        {
          "internalType": "address",
          "name": "newOwner",
          "type": "address"
        }
      ],
      "name": "transferOwnership",
      "outputs": [],
      "stateMutability": "nonpayable",
      "type": "function"
    },
    {
      "inputs": [],
      "name": "uln",
      "outputs": [
        {
          "internalType": "contract ILayerZeroUltraLightNodeV2",
          "name": "",
          "type": "address"
        }
      ],
      "stateMutability": "view",
      "type": "function"
    },
    {
      "inputs": [],
      "name": "validateProofBytes",
      "outputs": [
        {
          "internalType": "uint16",
          "name": "",
          "type": "uint16"
        }
      ],
      "stateMutability": "view",
      "type": "function"
    },
    {
      "inputs": [
        {
          "internalType": "uint16",
          "name": "_srcChainId",
          "type": "uint16"
        },
        {
          "internalType": "address",
          "name": "_dstAddress",
          "type": "address"
        },
        {
          "internalType": "uint256",
          "name": "_gasLimit",
          "type": "uint256"
        },
        {
          "internalType": "bytes32",
          "name": "_blockHash",
          "type": "bytes32"
        },
        {
          "internalType": "bytes32",
          "name": "_data",
          "type": "bytes32"
        },
        {
          "internalType": "bytes",
          "name": "_transactionProof",
          "type": "bytes"
        }
      ],
      "name": "validateTransactionProofV1",
      "outputs": [],
      "stateMutability": "nonpayable",
      "type": "function"
    },
    {
      "inputs": [
        {
          "internalType": "uint16",
          "name": "_srcChainId",
          "type": "uint16"
        },
        {
          "internalType": "address",
          "name": "_dstAddress",
          "type": "address"
        },
        {
          "internalType": "uint256",
          "name": "_gasLimit",
          "type": "uint256"
        },
        {
          "internalType": "bytes32",
          "name": "_blockHash",
          "type": "bytes32"
        },
        {
          "internalType": "bytes32",
          "name": "_data",
          "type": "bytes32"
        },
        {
          "internalType": "bytes",
          "name": "_transactionProof",
          "type": "bytes"
        },
        {
          "internalType": "address payable",
          "name": "_to",
          "type": "address"
        }
      ],
      "name": "validateTransactionProofV2",
      "outputs": [],
      "stateMutability": "payable",
      "type": "function"
    },
    {
      "inputs": [
        {
          "internalType": "address payable",
          "name": "_to",
          "type": "address"
        },
        {
          "internalType": "uint256",
          "name": "_amount",
          "type": "uint256"
        }
      ],
      "name": "withdrawFee",
      "outputs": [],
      "stateMutability": "nonpayable",
      "type": "function"
    },
    {
      "inputs": [
        {
          "internalType": "address",
          "name": "_token",
          "type": "address"
        },
        {
          "internalType": "address",
          "name": "_to",
          "type": "address"
        },
        {
          "internalType": "uint256",
          "name": "_amount",
          "type": "uint256"
        }
      ],
      "name": "withdrawToken",
      "outputs": [],
      "stateMutability": "nonpayable",
      "type": "function"
    }
  ],
  "transactionHash": "0x9e44512364f761373e39c28f9cc79f90cf1702edec00600721a6854aa1db51cf",
  "args": [],
  "numDeployments": 6,
  "solcInputHash": "c9813f16c0a9a8a4ed63c4b4efa707e9",
  "bytecode": "0x608060405234801561001057600080fd5b506001600055613497806100256000396000f3fe6080604052600436106102855760003560e01c8063741bef1a11610153578063b8f8bad4116100cb578063d5f8b0141161007f578063f2fde38b11610064578063f2fde38b146106da578063fa34c84e146106fa578063fd9be5221461071a57610285565b8063d5f8b0141461069a578063f136a874146106ba57610285565b8063bf4dab51116100b0578063bf4dab511461063a578063c03f15291461065a578063c3b04e7f1461067a57610285565b8063b8f8bad4146105fa578063bedb86fb1461061a57610285565b80638576db67116101225780638da5cb5b116101075780638da5cb5b146105bb57806398dabd50146105d0578063ac353e04146105e557610285565b80638576db671461056d5780638644c5781461058d57610285565b8063741bef1a146104f6578063765a8a541461050b578063801db1fe1461053857806381ba209a1461055857610285565b806355b3524911610201578063673448dd116101b55780636c473aff1161019a5780636c473aff146104ac578063715018a6146104c1578063724e78da146104d657610285565b8063673448dd1461046a57806369cf4e3a1461048a57610285565b80635886ea65116101e65780635886ea65146104065780635c975abb146104265780636348d2691461044857610285565b806355b35249146103c6578063575765e2146103e657610285565b8063252f7b011161025857806343b9a0c41161023d57806343b9a0c414610357578063485cc955146103795780634eeba2501461039957610285565b8063252f7b01146103175780633f1034871461033757610285565b806301e336671461028a57806303343f54146102ac5780630508941e146102cc57806323161ff8146102df575b600080fd5b34801561029657600080fd5b506102aa6102a5366004612a9c565b61073a565b005b3480156102b857600080fd5b506102aa6102c7366004612a1d565b610853565b6102aa6102da366004612c95565b6108c9565b3480156102eb57600080fd5b506102ff6102fa366004612d72565b610a9b565b60405161030e93929190613224565b60405180910390f35b34801561032357600080fd5b506102aa610332366004612c13565b610b09565b34801561034357600080fd5b506102aa610352366004612e1a565b610c37565b34801561036357600080fd5b5061036c610dc2565b60405161030e919061334a565b34801561038557600080fd5b506102aa610394366004612a64565b610dc8565b3480156103a557600080fd5b506103b96103b4366004612bf9565b61101a565b60405161030e91906131e4565b3480156103d257600080fd5b506103b96103e1366004612bf9565b61103e565b3480156103f257600080fd5b506102aa610401366004612adc565b611062565b34801561041257600080fd5b5061036c610421366004612d9b565b611138565b34801561043257600080fd5b5061043b61120d565b60405161030e9190612f3d565b34801561045457600080fd5b5061045d611216565b60405161030e9190612ef5565b34801561047657600080fd5b5061043b610485366004612a1d565b611225565b34801561049657600080fd5b5061049f611247565b60405161030e9190613258565b3480156104b857600080fd5b5061045d611267565b3480156104cd57600080fd5b506102aa611276565b3480156104e257600080fd5b506102aa6104f1366004612a1d565b61134c565b34801561050257600080fd5b5061045d6113c7565b34801561051757600080fd5b5061052b610526366004612bf9565b6113db565b60405161030e91906131b8565b34801561054457600080fd5b506102aa610553366004612adc565b6114c0565b34801561056457600080fd5b5061049f61158a565b34801561057957600080fd5b5061043b610588366004612a1d565b6115ac565b34801561059957600080fd5b506105ad6105a8366004612bf9565b6115c1565b60405161030e929190613201565b3480156105c757600080fd5b5061045d6115fd565b3480156105dc57600080fd5b5061049f61160c565b3480156105f157600080fd5b506103b961162a565b34801561060657600080fd5b506102aa610615366004612d2a565b611642565b34801561062657600080fd5b506102aa610635366004612b50565b611683565b34801561064657600080fd5b506102aa610655366004612b10565b61170a565b34801561066657600080fd5b5061036c610675366004612d9b565b61180e565b34801561068657600080fd5b506102aa610695366004612bdd565b611880565b3480156106a657600080fd5b506102aa6106b5366004612b10565b6118ff565b3480156106c657600080fd5b5061043b6106d5366004612a1d565b611a03565b3480156106e657600080fd5b506102aa6106f5366004612a1d565b611a18565b34801561070657600080fd5b506102aa610715366004612a1d565b611b45565b34801561072657600080fd5b506102aa610735366004612a39565b611cbd565b336107436115fd565b6001600160a01b03161461077f5761075a33611225565b61077f5760405162461bcd60e51b815260040161077690612f48565b60405180910390fd5b6040517f70a082310000000000000000000000000000000000000000000000000000000081526000906001600160a01b038516906370a08231906107c7903090600401612ef5565b60206040518083038186803b1580156107df57600080fd5b505afa1580156107f3573d6000803e3d6000fd5b505050506040513d601f19601f820116820180604052508101906108179190612e86565b9050808211156108395760405162461bcd60e51b81526004016107769061307f565b61084d6001600160a01b0385168484611e37565b50505050565b3361085c6115fd565b6001600160a01b03161461088f5761087333611225565b61088f5760405162461bcd60e51b815260040161077690612f48565b606780547fffffffffffffffffffffffff0000000000000000000000000000000000000000166001600160a01b0392909216919091179055565b336108d26115fd565b6001600160a01b031614610905576108e933611225565b6109055760405162461bcd60e51b815260040161077690612f48565b6002600054141561095d576040805162461bcd60e51b815260206004820152601f60248201527f5265656e7472616e637947756172643a207265656e7472616e742063616c6c00604482015290519081900360640190fd5b60026000819055506000816001600160a01b03166127103460405161098190612ef2565b600060405180830381858888f193505050503d80600081146109bf576040519150601f19603f3d011682016040523d82523d6000602084013e6109c4565b606091505b5050905080610a045760405134906001600160a01b038416907f2c7a964ca3de5ec1d42d9822f9bbd0eb142a59cc9f855e9d93813b773192c7a390600090a35b6066546040517f987fa2d50000000000000000000000000000000000000000000000000000000081526001600160a01b039091169063987fa2d590610a59908c908c908c908c908c908c908c90600401613267565b600060405180830381600087803b158015610a7357600080fd5b505af1158015610a87573d6000803e3d6000fd5b505060016000555050505050505050505050565b60696020908152600092835260408084209091529082529020546fffffffffffffffffffffffffffffffff81169067ffffffffffffffff7001000000000000000000000000000000008204811691780100000000000000000000000000000000000000000000000090041683565b33610b126115fd565b6001600160a01b031614610b4557610b2933611225565b610b455760405162461bcd60e51b815260040161077690612f48565b60026000541415610b9d576040805162461bcd60e51b815260206004820152601f60248201527f5265656e7472616e637947756172643a207265656e7472616e742063616c6c00604482015290519081900360640190fd5b60026000556066546040517f987fa2d50000000000000000000000000000000000000000000000000000000081526001600160a01b039091169063987fa2d590610bf7908a908a908a908a908a908a908a90600401613267565b600060405180830381600087803b158015610c1157600080fd5b505af1158015610c25573d6000803e3d6000fd5b50506001600055505050505050505050565b33610c406115fd565b6001600160a01b031614610c7357610c5733611225565b610c735760405162461bcd60e51b815260040161077690612f48565b604080516060810182526fffffffffffffffffffffffffffffffff858116825267ffffffffffffffff858116602080850191825286831685870190815261ffff8c8116600090815260698452888120918d16815292529086902094518554925191517fffffffffffffffffffffffffffffffff000000000000000000000000000000009093169416939093177fffffffffffffffff0000000000000000ffffffffffffffffffffffffffffffff16700100000000000000000000000000000000938316939093029290921777ffffffffffffffffffffffffffffffffffffffffffffffff1678010000000000000000000000000000000000000000000000009290911691909102179055517fd053e021dda81c7c2794ff89e320caea5379962d49ed383a3bd0a54ffc4b932f90610db390879087908790879087906132e4565b60405180910390a15050505050565b61271081565b6000610dd2611eb7565b90506001600160a01b038116610e11576001600160a01b037fb53127684a568b3173ae13b9f8a6016e243e63b6e8ee1178d6a717850b5d610355610e26565b336001600160a01b03821614610e2657600080fd5b600154610100900460ff1680610e3f5750610e3f611edc565b80610e4d575060015460ff16155b610e885760405162461bcd60e51b815260040180806020018281038252602e8152602001806133e9602e913960400191505060405180910390fd5b600154610100900460ff16158015610eb2576001805460ff1961ff00199091166101001716811790555b610eba611eed565b606680547fffffffffffffffffffffffff0000000000000000000000000000000000000000166001600160a01b038616179055610ef8306001611062565b606c8054606b80547fffffffffffffffffffffff0000000000000000000000000000000000000000ff166101006001600160a01b03881602179055612ee07fffffffffffffffffffffffffffffffff00000000000000000000000000000000909116177fffffffffffffffffffffffffffff0000ffffffffffffffffffffffffffffffff1670a400000000000000000000000000000000177fffffffffffffffffffffffff0000ffffffffffffffffffffffffffffffffffff1672a0000000000000000000000000000000000000177fffffffffffffffffffff0000ffffffffffffffffffffffffffffffffffffffff167501f40000000000000000000000000000000000000000179055801561084d576001805461ff001916905550505050565b606d602052600090815260409020546fffffffffffffffffffffffffffffffff1681565b606e602052600090815260409020546fffffffffffffffffffffffffffffffff1681565b61106a611f9e565b6001600160a01b031661107b6115fd565b6001600160a01b0316146110d6576040805162461bcd60e51b815260206004820181905260248201527f4f776e61626c653a2063616c6c6572206973206e6f7420746865206f776e6572604482015290519081900360640190fd5b6001600160a01b0382166000908152606a602052604090819020805460ff1916831515179055517fb10786d0bfa68fb1aa29552d9203e5f545f7c073ff0784da1de1d800986f10239061112c9084908490612f22565b60405180910390a15050565b6066546000906001600160a01b031633146111655760405162461bcd60e51b8152600401610776906130dc565b6127108411156111875760405162461bcd60e51b815260040161077690612f7f565b6111ca8787878787878080601f016020809104026020016040519081016040528093929190818152602001838380828437600092019190915250611fa292505050565b90507fdf21c415b78ed2552cc9971249e32a053abce6087a0ae0fbf3f78db5174a3493816040516111fb919061334a565b60405180910390a19695505050505050565b606b5460ff1681565b6067546001600160a01b031681565b6001600160a01b0381166000908152606a602052604090205460ff165b919050565b606c547201000000000000000000000000000000000000900461ffff1681565b6066546001600160a01b031681565b61127e611f9e565b6001600160a01b031661128f6115fd565b6001600160a01b0316146112ea576040805162461bcd60e51b815260206004820181905260248201527f4f776e61626c653a2063616c6c6572206973206e6f7420746865206f776e6572604482015290519081900360640190fd5b6034546040516000916001600160a01b0316907f8be0079c531659141344cd1fd0a4f28419497f9722a3daafe3b4186f6b6457e0908390a3603480547fffffffffffffffffffffffff0000000000000000000000000000000000000000169055565b336113556115fd565b6001600160a01b0316146113885761136c33611225565b6113885760405162461bcd60e51b815260040161077690612f48565b606b80546001600160a01b03909216610100027fffffffffffffffffffffff0000000000000000000000000000000000000000ff909216919091179055565b606b5461010090046001600160a01b031681565b6113e361295a565b606b546040517fda26663a00000000000000000000000000000000000000000000000000000000815260009161010090046001600160a01b03169063da26663a90611432908690600401613258565b60606040518083038186803b15801561144a57600080fd5b505afa15801561145e573d6000803e3d6000fd5b505050506040513d601f19601f820116820180604052508101906114829190612b6a565b6040805180820190915281516fffffffffffffffffffffffffffffffff16815260209182015167ffffffffffffffff16918101919091529392505050565b6114c8611f9e565b6001600160a01b03166114d96115fd565b6001600160a01b031614611534576040805162461bcd60e51b815260206004820181905260248201527f4f776e61626c653a2063616c6c6572206973206e6f7420746865206f776e6572604482015290519081900360640190fd5b6001600160a01b0382166000908152606f602052604090819020805460ff1916831515179055517fde6b048d6c4e63d85fde37ccbe03f4380c6d12cb2a1e9ce9268bbf47a1ef68789061112c9084908490612f22565b606c5474010000000000000000000000000000000000000000900461ffff1681565b606f6020526000908152604090205460ff1681565b6068602052600090815260409020546fffffffffffffffffffffffffffffffff8082169170010000000000000000000000000000000090041682565b6034546001600160a01b031690565b606c54700100000000000000000000000000000000900461ffff1681565b606c546fffffffffffffffffffffffffffffffff1681565b3361164b6115fd565b6001600160a01b03161461167e5761166233611225565b61167e5760405162461bcd60e51b815260040161077690612f48565b505050565b61168b611f9e565b6001600160a01b031661169c6115fd565b6001600160a01b0316146116f7576040805162461bcd60e51b815260206004820181905260248201527f4f776e61626c653a2063616c6c6572206973206e6f7420746865206f776e6572604482015290519081900360640190fd5b606b805460ff1916911515919091179055565b336117136115fd565b6001600160a01b03161415801561173a5750336000908152606a602052604090205460ff16155b1561176e57336000908152606f602052604090205460ff1661176e5760405162461bcd60e51b815260040161077690613048565b60005b8181101561167e573683838381811061178657fe5b90506040020190508060200160208101906117a19190612bdd565b606d60006117b26020850185612bf9565b61ffff168152602081019190915260400160002080547fffffffffffffffffffffffffffffffff00000000000000000000000000000000166fffffffffffffffffffffffffffffffff9290921691909117905550600101611771565b60006127108411156118325760405162461bcd60e51b815260040161077690612f7f565b6118758787878787878080601f016020809104026020016040519081016040528093929190818152602001838380828437600092019190915250611fa292505050565b979650505050505050565b336118896115fd565b6001600160a01b0316146118bc576118a033611225565b6118bc5760405162461bcd60e51b815260040161077690612f48565b606c80547fffffffffffffffffffffffffffffffff00000000000000000000000000000000166fffffffffffffffffffffffffffffffff92909216919091179055565b336119086115fd565b6001600160a01b03161415801561192f5750336000908152606a602052604090205460ff16155b1561196357336000908152606f602052604090205460ff166119635760405162461bcd60e51b815260040161077690613048565b60005b8181101561167e573683838381811061197b57fe5b90506040020190508060200160208101906119969190612bdd565b606e60006119a76020850185612bf9565b61ffff168152602081019190915260400160002080547fffffffffffffffffffffffffffffffff00000000000000000000000000000000166fffffffffffffffffffffffffffffffff9290921691909117905550600101611966565b606a6020526000908152604090205460ff1681565b611a20611f9e565b6001600160a01b0316611a316115fd565b6001600160a01b031614611a8c576040805162461bcd60e51b815260206004820181905260248201527f4f776e61626c653a2063616c6c6572206973206e6f7420746865206f776e6572604482015290519081900360640190fd5b6001600160a01b038116611ad15760405162461bcd60e51b815260040180806020018281038252602681526020018061339d6026913960400191505060405180910390fd5b6034546040516001600160a01b038084169216907f8be0079c531659141344cd1fd0a4f28419497f9722a3daafe3b4186f6b6457e090600090a3603480547fffffffffffffffffffffffff0000000000000000000000000000000000000000166001600160a01b0392909216919091179055565b6000611b4f611eb7565b90506001600160a01b038116611b8e576001600160a01b037fb53127684a568b3173ae13b9f8a6016e243e63b6e8ee1178d6a717850b5d610355611ba3565b336001600160a01b03821614611ba357600080fd5b50606c8054606b80547fffffffffffffffffffffff0000000000000000000000000000000000000000ff166101006001600160a01b03959095169490940293909317909255612ee07fffffffffffffffffffffffffffffffff00000000000000000000000000000000909216919091177fffffffffffffffffffffffffffff0000ffffffffffffffffffffffffffffffff1670a400000000000000000000000000000000177fffffffffffffffffffffffff0000ffffffffffffffffffffffffffffffffffff1672a0000000000000000000000000000000000000177fffffffffffffffffffff0000ffffffffffffffffffffffffffffffffffffffff167501f40000000000000000000000000000000000000000179055565b33611cc66115fd565b6001600160a01b031614611cf957611cdd33611225565b611cf95760405162461bcd60e51b815260040161077690612f48565b6066546040517f69412bfa0000000000000000000000000000000000000000000000000000000081526000916001600160a01b0316906369412bfa90611d43903090600401612ef5565b60206040518083038186803b158015611d5b57600080fd5b505afa158015611d6f573d6000803e3d6000fd5b505050506040513d601f19601f82011682018060405250810190611d939190612e86565b905080821115611db55760405162461bcd60e51b81526004016107769061307f565b6066546040517f07b18bde0000000000000000000000000000000000000000000000000000000081526001600160a01b03909116906307b18bde90611e009086908690600401612f09565b600060405180830381600087803b158015611e1a57600080fd5b505af1158015611e2e573d6000803e3d6000fd5b50505050505050565b604080516001600160a01b038416602482015260448082018490528251808303909101815260649091019091526020810180517bffffffffffffffffffffffffffffffffffffffffffffffffffffffff167fa9059cbb0000000000000000000000000000000000000000000000000000000017905261167e9084906122b8565b7fb53127684a568b3173ae13b9f8a6016e243e63b6e8ee1178d6a717850b5d61035490565b6000611ee730612369565b15905090565b600154610100900460ff1680611f065750611f06611edc565b80611f14575060015460ff16155b611f4f5760405162461bcd60e51b815260040180806020018281038252602e8152602001806133e9602e913960400191505060405180910390fd5b600154610100900460ff16158015611f79576001805460ff1961ff00199091166101001716811790555b611f8161236f565b611f8961240e565b8015611f9b576001805461ff00191690555b50565b3390565b606b5460009060ff1615611fc85760405162461bcd60e51b815260040161077690613113565b815160221480611fd9575060428251115b611ff55760405162461bcd60e51b815260040161077690612fb4565b600282015160228301518061201c5760405162461bcd60e51b81526004016107769061314a565b8161ffff166001148061203357508161ffff166002145b61204f5760405162461bcd60e51b815260040161077690613011565b61ffff88811660009081526069602090815260408083208b85168452909152812091841660021461209a57606c54700100000000000000000000000000000000900461ffff166120c0565b606c546120c090700100000000000000000000000000000000900461ffff16602061251e565b905060008961ffff166002146120ff57606c546120fa90899074010000000000000000000000000000000000000000900461ffff1661251e565b612127565b606c546121279089907201000000000000000000000000000000000000900461ffff1661251e565b606b549091508b9060009081908190819061010090046001600160a01b03166388a4124c866121568a8a61251e565b8b5461218090700100000000000000000000000000000000900467ffffffffffffffff168e61251e565b6040518463ffffffff1660e01b815260040161219e9392919061332e565b60806040518083038186803b1580156121b657600080fd5b505afa1580156121ca573d6000803e3d6000fd5b505050506040513d601f19601f820116820180604052508101906121ee9190612e9e565b935093509350935060008a61ffff166002141561223e575060428c015188546fffffffffffffffffffffffffffffffff1681111561223e5760405162461bcd60e51b815260040161077690613181565b6000811561228c57606c54612289906127109061227d906fffffffffffffffffffffffffffffffff908116906122839089811690849089908d16612581565b906125da565b90612581565b90505b6122a18161229b898987612641565b9061251e565b9c5050505050505050505050505095945050505050565b600061230d826040518060400160405280602081526020017f5361666545524332303a206c6f772d6c6576656c2063616c6c206661696c6564815250856001600160a01b03166127369092919063ffffffff16565b80519091501561167e5780806020019051602081101561232c57600080fd5b505161167e5760405162461bcd60e51b815260040180806020018281038252602a815260200180613438602a913960400191505060405180910390fd5b3b151590565b600154610100900460ff16806123885750612388611edc565b80612396575060015460ff16155b6123d15760405162461bcd60e51b815260040180806020018281038252602e8152602001806133e9602e913960400191505060405180910390fd5b600154610100900460ff16158015611f89576001805460ff1961ff00199091166101001716811790558015611f9b576001805461ff001916905550565b600154610100900460ff16806124275750612427611edc565b80612435575060015460ff16155b6124705760405162461bcd60e51b815260040180806020018281038252602e8152602001806133e9602e913960400191505060405180910390fd5b600154610100900460ff1615801561249a576001805460ff1961ff00199091166101001716811790555b60006124a4611f9e565b603480547fffffffffffffffffffffffff0000000000000000000000000000000000000000166001600160a01b038316908117909155604051919250906000907f8be0079c531659141344cd1fd0a4f28419497f9722a3daafe3b4186f6b6457e0908290a3508015611f9b576001805461ff001916905550565b600082820183811015612578576040805162461bcd60e51b815260206004820152601b60248201527f536166654d6174683a206164646974696f6e206f766572666c6f770000000000604482015290519081900360640190fd5b90505b92915050565b6000826125905750600061257b565b8282028284828161259d57fe5b04146125785760405162461bcd60e51b81526004018080602001828103825260218152602001806134176021913960400191505060405180910390fd5b6000808211612630576040805162461bcd60e51b815260206004820152601a60248201527f536166654d6174683a206469766973696f6e206279207a65726f000000000000604482015290519081900360640190fd5b81838161263957fe5b049392505050565b61ffff83166000908152606d60205260408120546fffffffffffffffffffffffffffffffff16806126835750606c546fffffffffffffffffffffffffffffffff165b60006126a761271061227d876fffffffffffffffffffffffffffffffff8616612581565b90506fffffffffffffffffffffffffffffffff84166126c957915061272f9050565b61ffff86166000908152606e6020526040812054670de0b6b3a7640000919061271790612710906fffffffffffffffffffffffffffffffff808a169161227d911686612581565b889061251e565b90508281116127265782612728565b805b9450505050505b9392505050565b6060612745848460008561274d565b949350505050565b60608247101561278e5760405162461bcd60e51b81526004018080602001828103825260268152602001806133c36026913960400191505060405180910390fd5b61279785612369565b6127e8576040805162461bcd60e51b815260206004820152601d60248201527f416464726573733a2063616c6c20746f206e6f6e2d636f6e7472616374000000604482015290519081900360640190fd5b600080866001600160a01b031685876040518082805190602001908083835b6020831061284457805182527fffffffffffffffffffffffffffffffffffffffffffffffffffffffffffffffe09092019160209182019101612807565b6001836020036101000a03801982511681845116808217855250505050505090500191505060006040518083038185875af1925050503d80600081146128a6576040519150601f19603f3d011682016040523d82523d6000602084013e6128ab565b606091505b5091509150611875828286606083156128c557508161272f565b8251156128d55782518084602001fd5b8160405162461bcd60e51b81526004018080602001828103825283818151815260200191508051906020019080838360005b8381101561291f578181015183820152602001612907565b50505050905090810190601f16801561294c5780820380516001836020036101000a031916815260200191505b509250505060405180910390fd5b604080518082019091526000808252602082015290565b60008083601f840112612982578182fd5b50813567ffffffffffffffff811115612999578182fd5b6020830191508360206040830285010111156129b457600080fd5b9250929050565b8035801515811461124257600080fd5b60008083601f8401126129dc578182fd5b50813567ffffffffffffffff8111156129f3578182fd5b6020830191508360208285010111156129b457600080fd5b803561ffff8116811461124257600080fd5b600060208284031215612a2e578081fd5b813561257881613353565b60008060408385031215612a4b578081fd5b8235612a5681613353565b946020939093013593505050565b60008060408385031215612a76578182fd5b8235612a8181613353565b91506020830135612a9181613353565b809150509250929050565b600080600060608486031215612ab0578081fd5b8335612abb81613353565b92506020840135612acb81613353565b929592945050506040919091013590565b60008060408385031215612aee578182fd5b8235612af981613353565b9150612b07602084016129bb565b90509250929050565b60008060208385031215612b22578182fd5b823567ffffffffffffffff811115612b38578283fd5b612b4485828601612971565b90969095509350505050565b600060208284031215612b61578081fd5b61272f826129bb565b600060608284031215612b7b578081fd5b6040516060810181811067ffffffffffffffff82111715612b9857fe5b6040528251612ba681613368565b81526020830151612bb681613386565b6020820152604083015163ffffffff81168114612bd1578283fd5b60408201529392505050565b600060208284031215612bee578081fd5b813561257881613368565b600060208284031215612c0a578081fd5b61272f82612a0b565b600080600080600080600060c0888a031215612c2d578485fd5b612c3688612a0b565b96506020880135612c4681613353565b955060408801359450606088013593506080880135925060a088013567ffffffffffffffff811115612c76578283fd5b612c828a828b016129cb565b989b979a50959850939692959293505050565b60008060008060008060008060e0898b031215612cb0578182fd5b612cb989612a0b565b97506020890135612cc981613353565b965060408901359550606089013594506080890135935060a089013567ffffffffffffffff811115612cf9578283fd5b612d058b828c016129cb565b90945092505060c0890135612d1981613353565b809150509295985092959890939650565b600080600060608486031215612d3e578081fd5b612d4784612a0b565b92506020840135612d5781613368565b91506040840135612d6781613368565b809150509250925092565b60008060408385031215612d84578182fd5b612d8d83612a0b565b9150612b0760208401612a0b565b60008060008060008060a08789031215612db3578384fd5b612dbc87612a0b565b9550612dca60208801612a0b565b94506040870135612dda81613353565b935060608701359250608087013567ffffffffffffffff811115612dfc578283fd5b612e0889828a016129cb565b979a9699509497509295939492505050565b600080600080600060a08688031215612e31578283fd5b612e3a86612a0b565b9450612e4860208701612a0b565b93506040860135612e5881613368565b92506060860135612e6881613386565b91506080860135612e7881613386565b809150509295509295909350565b600060208284031215612e97578081fd5b5051919050565b60008060008060808587031215612eb3578182fd5b845193506020850151612ec581613368565b6040860151909350612ed681613368565b6060860151909250612ee781613368565b939692955090935050565b90565b6001600160a01b0391909116815260200190565b6001600160a01b03929092168252602082015260400190565b6001600160a01b039290921682521515602082015260400190565b901515815260200190565b60208082526015908201527f52656c617965723a206e6f7420617070726f7665640000000000000000000000604082015260600190565b6020808252818101527f52656c617965723a205f7061796c6f616453697a6520746f6f6f6f6f20626967604082015260600190565b60208082526026908201527f52656c617965723a2077726f6e67205f61646170746572506172616d6574657260408201527f732073697a650000000000000000000000000000000000000000000000000000606082015260800190565b6020808252601b908201527f52656c617965723a20756e737570706f72746564207478547970650000000000604082015260600190565b60208082526014908201527f52656c617965723a206e6f742075706461746572000000000000000000000000604082015260600190565b60208082526026908201527f52656c617965723a206e6f7420656e6f7567682066656520666f72207769746860408201527f64726177616c0000000000000000000000000000000000000000000000000000606082015260800190565b60208082526014908201527f52656c617965723a20696e76616c696420756c6e000000000000000000000000604082015260600190565b6020808252600d908201527f41646d696e3a2070617573656400000000000000000000000000000000000000604082015260600190565b60208082526014908201527f52656c617965723a2067617320746f6f206c6f77000000000000000000000000604082015260600190565b6020808252601f908201527f52656c617965723a206473744e6174697665416d7420746f6f206c6172676500604082015260600190565b81516fffffffffffffffffffffffffffffffff9081168252602092830151169181019190915260400190565b6fffffffffffffffffffffffffffffffff91909116815260200190565b6fffffffffffffffffffffffffffffffff92831681529116602082015260400190565b6fffffffffffffffffffffffffffffffff93909316835267ffffffffffffffff918216602084015216604082015260600190565b61ffff91909116815260200190565b600061ffff891682526001600160a01b038816602083015286604083015285606083015284608083015260c060a08301528260c0830152828460e084013781830160e090810191909152601f9092017fffffffffffffffffffffffffffffffffffffffffffffffffffffffffffffffe01601019695505050505050565b61ffff95861681529390941660208401526fffffffffffffffffffffffffffffffff91909116604083015267ffffffffffffffff9081166060830152909116608082015260a00190565b61ffff9390931683526020830191909152604082015260600190565b90815260200190565b6001600160a01b0381168114611f9b57600080fd5b6fffffffffffffffffffffffffffffffff81168114611f9b57600080fd5b67ffffffffffffffff81168114611f9b57600080fdfe4f776e61626c653a206e6577206f776e657220697320746865207a65726f2061646472657373416464726573733a20696e73756666696369656e742062616c616e636520666f722063616c6c496e697469616c697a61626c653a20636f6e747261637420697320616c726561647920696e697469616c697a6564536166654d6174683a206d756c7469706c69636174696f6e206f766572666c6f775361666545524332303a204552433230206f7065726174696f6e20646964206e6f742073756363656564a26469706673582212206e049973a8018635560d2ae382431ef5a97c93af9d3bf02df9291cb611b14d8064736f6c63430007060033",
  "devdoc": {
    "kind": "dev",
    "methods": {
      "owner()": {
        "details": "Returns the address of the current owner."
      },
      "renounceOwnership()": {
        "details": "Leaves the contract without owner. It will not be possible to call `onlyOwner` functions anymore. Can only be called by the current owner. NOTE: Renouncing ownership will leave the contract without an owner, thereby removing any functionality that is only available to the owner."
      },
      "transferOwnership(address)": {
        "details": "Transfers ownership of the contract to a new account (`newOwner`). Can only be called by the current owner."
      }
    },
    "version": 1
  },
  "userdoc": {
    "kind": "user",
    "methods": {},
    "version": 1
  },
  "storageLayout": {
    "storage": [
      {
        "astId": 2233,
        "contract": "contracts/RelayerV2.sol:RelayerV2",
        "label": "_status",
        "offset": 0,
        "slot": "0",
        "type": "t_uint256"
      },
      {
        "astId": 137,
        "contract": "contracts/RelayerV2.sol:RelayerV2",
        "label": "_initialized",
        "offset": 0,
        "slot": "1",
        "type": "t_bool"
      },
      {
        "astId": 140,
        "contract": "contracts/RelayerV2.sol:RelayerV2",
        "label": "_initializing",
        "offset": 1,
        "slot": "1",
        "type": "t_bool"
      },
      {
        "astId": 484,
        "contract": "contracts/RelayerV2.sol:RelayerV2",
        "label": "__gap",
        "offset": 0,
        "slot": "2",
        "type": "t_array(t_uint256)50_storage"
      },
      {
        "astId": 10,
        "contract": "contracts/RelayerV2.sol:RelayerV2",
        "label": "_owner",
        "offset": 0,
        "slot": "52",
        "type": "t_address"
      },
      {
        "astId": 129,
        "contract": "contracts/RelayerV2.sol:RelayerV2",
        "label": "__gap",
        "offset": 0,
        "slot": "53",
        "type": "t_array(t_uint256)49_storage"
      },
      {
        "astId": 6044,
        "contract": "contracts/RelayerV2.sol:RelayerV2",
        "label": "uln",
        "offset": 0,
        "slot": "102",
        "type": "t_contract(ILayerZeroUltraLightNodeV2)17184"
      },
      {
        "astId": 6046,
        "contract": "contracts/RelayerV2.sol:RelayerV2",
        "label": "stargateBridgeAddress",
        "offset": 0,
        "slot": "103",
        "type": "t_address"
      },
      {
        "astId": 6075,
        "contract": "contracts/RelayerV2.sol:RelayerV2",
        "label": "dstPriceLookupOld",
        "offset": 0,
        "slot": "104",
        "type": "t_mapping(t_uint16,t_struct(DstPrice)6054_storage)"
      },
      {
        "astId": 6081,
        "contract": "contracts/RelayerV2.sol:RelayerV2",
        "label": "dstConfigLookup",
        "offset": 0,
        "slot": "105",
        "type": "t_mapping(t_uint16,t_mapping(t_uint16,t_struct(DstConfig)6061_storage))"
      },
      {
        "astId": 6085,
        "contract": "contracts/RelayerV2.sol:RelayerV2",
        "label": "approvedAddresses",
        "offset": 0,
        "slot": "106",
        "type": "t_mapping(t_address,t_bool)"
      },
      {
        "astId": 6135,
        "contract": "contracts/RelayerV2.sol:RelayerV2",
        "label": "paused",
        "offset": 0,
        "slot": "107",
        "type": "t_bool"
      },
      {
        "astId": 6137,
        "contract": "contracts/RelayerV2.sol:RelayerV2",
        "label": "priceFeed",
        "offset": 1,
        "slot": "107",
        "type": "t_contract(ILayerZeroPriceFeedV2)16792"
      },
      {
        "astId": 6139,
        "contract": "contracts/RelayerV2.sol:RelayerV2",
        "label": "multiplierBps",
        "offset": 0,
        "slot": "108",
        "type": "t_uint128"
      },
      {
        "astId": 6141,
        "contract": "contracts/RelayerV2.sol:RelayerV2",
        "label": "validateProofBytes",
        "offset": 16,
        "slot": "108",
        "type": "t_uint16"
      },
      {
        "astId": 6143,
        "contract": "contracts/RelayerV2.sol:RelayerV2",
        "label": "fpBytes",
        "offset": 18,
        "slot": "108",
        "type": "t_uint16"
      },
      {
        "astId": 6145,
        "contract": "contracts/RelayerV2.sol:RelayerV2",
        "label": "mptOverhead",
        "offset": 20,
        "slot": "108",
        "type": "t_uint16"
      },
      {
        "astId": 6149,
        "contract": "contracts/RelayerV2.sol:RelayerV2",
        "label": "dstMultipliers",
        "offset": 0,
        "slot": "109",
        "type": "t_mapping(t_uint16,t_uint128)"
      },
      {
        "astId": 6153,
        "contract": "contracts/RelayerV2.sol:RelayerV2",
        "label": "dstFloorMarginsUSD",
        "offset": 0,
        "slot": "110",
        "type": "t_mapping(t_uint16,t_uint128)"
      },
      {
        "astId": 6157,
        "contract": "contracts/RelayerV2.sol:RelayerV2",
        "label": "priceConfigUpdaters",
        "offset": 0,
        "slot": "111",
        "type": "t_mapping(t_address,t_bool)"
      }
    ],
    "types": {
      "t_address": {
        "encoding": "inplace",
        "label": "address",
        "numberOfBytes": "20"
      },
      "t_array(t_uint256)49_storage": {
        "base": "t_uint256",
        "encoding": "inplace",
        "label": "uint256[49]",
        "numberOfBytes": "1568"
      },
      "t_array(t_uint256)50_storage": {
        "base": "t_uint256",
        "encoding": "inplace",
        "label": "uint256[50]",
        "numberOfBytes": "1600"
      },
      "t_bool": {
        "encoding": "inplace",
        "label": "bool",
        "numberOfBytes": "1"
      },
      "t_contract(ILayerZeroPriceFeedV2)16792": {
        "encoding": "inplace",
        "label": "contract ILayerZeroPriceFeedV2",
        "numberOfBytes": "20"
      },
      "t_contract(ILayerZeroUltraLightNodeV2)17184": {
        "encoding": "inplace",
        "label": "contract ILayerZeroUltraLightNodeV2",
        "numberOfBytes": "20"
      },
      "t_mapping(t_address,t_bool)": {
        "encoding": "mapping",
        "key": "t_address",
        "label": "mapping(address => bool)",
        "numberOfBytes": "32",
        "value": "t_bool"
      },
      "t_mapping(t_uint16,t_mapping(t_uint16,t_struct(DstConfig)6061_storage))": {
        "encoding": "mapping",
        "key": "t_uint16",
        "label": "mapping(uint16 => mapping(uint16 => struct RelayerV2.DstConfig))",
        "numberOfBytes": "32",
        "value": "t_mapping(t_uint16,t_struct(DstConfig)6061_storage)"
      },
      "t_mapping(t_uint16,t_struct(DstConfig)6061_storage)": {
        "encoding": "mapping",
        "key": "t_uint16",
        "label": "mapping(uint16 => struct RelayerV2.DstConfig)",
        "numberOfBytes": "32",
        "value": "t_struct(DstConfig)6061_storage"
      },
      "t_mapping(t_uint16,t_struct(DstPrice)6054_storage)": {
        "encoding": "mapping",
        "key": "t_uint16",
        "label": "mapping(uint16 => struct RelayerV2.DstPrice)",
        "numberOfBytes": "32",
        "value": "t_struct(DstPrice)6054_storage"
      },
      "t_mapping(t_uint16,t_uint128)": {
        "encoding": "mapping",
        "key": "t_uint16",
        "label": "mapping(uint16 => uint128)",
        "numberOfBytes": "32",
        "value": "t_uint128"
      },
      "t_struct(DstConfig)6061_storage": {
        "encoding": "inplace",
        "label": "struct RelayerV2.DstConfig",
        "members": [
          {
            "astId": 6056,
            "contract": "contracts/RelayerV2.sol:RelayerV2",
            "label": "dstNativeAmtCap",
            "offset": 0,
            "slot": "0",
            "type": "t_uint128"
          },
          {
            "astId": 6058,
            "contract": "contracts/RelayerV2.sol:RelayerV2",
            "label": "baseGas",
            "offset": 16,
            "slot": "0",
            "type": "t_uint64"
          },
          {
            "astId": 6060,
            "contract": "contracts/RelayerV2.sol:RelayerV2",
            "label": "gasPerByte",
            "offset": 24,
            "slot": "0",
            "type": "t_uint64"
          }
        ],
        "numberOfBytes": "32"
      },
      "t_struct(DstPrice)6054_storage": {
        "encoding": "inplace",
        "label": "struct RelayerV2.DstPrice",
        "members": [
          {
            "astId": 6051,
            "contract": "contracts/RelayerV2.sol:RelayerV2",
            "label": "dstPriceRatio",
            "offset": 0,
            "slot": "0",
            "type": "t_uint128"
          },
          {
            "astId": 6053,
            "contract": "contracts/RelayerV2.sol:RelayerV2",
            "label": "dstGasPriceInWei",
            "offset": 16,
            "slot": "0",
            "type": "t_uint128"
          }
        ],
        "numberOfBytes": "32"
      },
      "t_uint128": {
        "encoding": "inplace",
        "label": "uint128",
        "numberOfBytes": "16"
      },
      "t_uint16": {
        "encoding": "inplace",
        "label": "uint16",
        "numberOfBytes": "2"
      },
      "t_uint256": {
        "encoding": "inplace",
        "label": "uint256",
        "numberOfBytes": "32"
      },
      "t_uint64": {
        "encoding": "inplace",
        "label": "uint64",
        "numberOfBytes": "8"
      }
    }
  }
}