{
  "_format": "hh-sol-artifact-1",
  "contractName": "MPTValidatorStgV3",
  "sourceName": "contracts/proof/MPTValidatorStgV3.sol",
  "abi": [
    {
      "inputs": [
        {
          "internalType": "address",
          "name": "_stargateBridgeAddress",
          "type": "address"
        },
        {
          "internalType": "address",
          "name": "_stgTokenAddress",
          "type": "address"
        },
        {
          "internalType": "uint16",
          "name": "_localChainId",
          "type": "uint16"
        }
      ],
      "stateMutability": "nonpayable",
      "type": "constructor"
    },
    {
      "inputs": [],
      "name": "PACKET_SIGNATURE",
      "outputs": [
        {
          "internalType": "bytes32",
          "name": "",
          "type": "bytes32"
        }
      ],
      "stateMutability": "view",
      "type": "function"
    },
    {
      "inputs": [
        {
          "internalType": "bytes",
          "name": "data",
          "type": "bytes"
        },
        {
          "internalType": "uint16",
          "name": "srcChain",
          "type": "uint16"
        },
        {
          "internalType": "uint256",
          "name": "sizeOfSrcAddress",
          "type": "uint256"
        },
        {
          "internalType": "bytes32",
          "name": "ulnAddress",
          "type": "bytes32"
        }
      ],
      "name": "getPacket",
      "outputs": [
        {
          "components": [
            {
              "internalType": "uint16",
              "name": "srcChainId",
              "type": "uint16"
            },
            {
              "internalType": "uint16",
              "name": "dstChainId",
              "type": "uint16"
            },
            {
              "internalType": "uint64",
              "name": "nonce",
              "type": "uint64"
            },
            {
              "internalType": "address",
              "name": "dstAddress",
              "type": "address"
            },
            {
              "internalType": "bytes",
              "name": "srcAddress",
              "type": "bytes"
            },
            {
              "internalType": "bytes32",
              "name": "ulnAddress",
              "type": "bytes32"
            },
            {
              "internalType": "bytes",
              "name": "payload",
              "type": "bytes"
            }
          ],
          "internalType": "struct LayerZeroPacket.Packet",
          "name": "",
          "type": "tuple"
        }
      ],
      "stateMutability": "pure",
      "type": "function"
    },
    {
      "inputs": [
        {
          "internalType": "bytes32",
          "name": "hashRoot",
          "type": "bytes32"
        },
        {
          "internalType": "uint256[]",
          "name": "receiptSlotIndex",
          "type": "uint256[]"
        },
        {
          "internalType": "uint256",
          "name": "logIndex",
          "type": "uint256"
        },
        {
          "internalType": "bytes[]",
          "name": "proof",
          "type": "bytes[]"
        }
      ],
      "name": "getVerifyLog",
      "outputs": [
        {
          "components": [
            {
              "internalType": "bytes32",
              "name": "contractAddress",
              "type": "bytes32"
            },
            {
              "internalType": "bytes32",
              "name": "topicZeroSig",
              "type": "bytes32"
            },
            {
              "internalType": "bytes",
              "name": "data",
              "type": "bytes"
            }
          ],
          "internalType": "struct MPTValidatorStgV3.ULNLog",
          "name": "",
          "type": "tuple"
        }
      ],
      "stateMutability": "pure",
      "type": "function"
    },
    {
      "inputs": [],
      "name": "localChainId",
      "outputs": [
        {
          "internalType": "uint16",
          "name": "",
          "type": "uint16"
        }
      ],
      "stateMutability": "view",
      "type": "function"
    },
    {
      "inputs": [
        {
          "internalType": "bytes",
          "name": "_payload",
          "type": "bytes"
        }
      ],
      "name": "secureStgPayload",
      "outputs": [
        {
          "internalType": "bytes",
          "name": "",
          "type": "bytes"
        }
      ],
      "stateMutability": "view",
      "type": "function"
    },
    {
      "inputs": [
        {
          "internalType": "bytes",
          "name": "_payload",
          "type": "bytes"
        }
      ],
      "name": "secureStgTokenPayload",
      "outputs": [
        {
          "internalType": "bytes",
          "name": "",
          "type": "bytes"
        }
      ],
      "stateMutability": "pure",
      "type": "function"
    },
    {
      "inputs": [],
      "name": "stargateBridgeAddress",
      "outputs": [
        {
          "internalType": "address",
          "name": "",
          "type": "address"
        }
      ],
      "stateMutability": "view",
      "type": "function"
    },
    {
      "inputs": [],
      "name": "stgTokenAddress",
      "outputs": [
        {
          "internalType": "address",
          "name": "",
          "type": "address"
        }
      ],
      "stateMutability": "view",
      "type": "function"
    },
    {
      "inputs": [
        {
          "internalType": "bytes32",
          "name": "_receiptsRoot",
          "type": "bytes32"
        },
        {
          "internalType": "bytes",
          "name": "_transactionProof",
          "type": "bytes"
        },
        {
          "internalType": "uint256",
          "name": "_remoteAddressSize",
          "type": "uint256"
        }
      ],
      "name": "validateProof",
      "outputs": [
        {
          "components": [
            {
              "internalType": "uint16",
              "name": "srcChainId",
              "type": "uint16"
            },
            {
              "internalType": "uint16",
              "name": "dstChainId",
              "type": "uint16"
            },
            {
              "internalType": "uint64",
              "name": "nonce",
              "type": "uint64"
            },
            {
              "internalType": "address",
              "name": "dstAddress",
              "type": "address"
            },
            {
              "internalType": "bytes",
              "name": "srcAddress",
              "type": "bytes"
            },
            {
              "internalType": "bytes32",
              "name": "ulnAddress",
              "type": "bytes32"
            },
            {
              "internalType": "bytes",
              "name": "payload",
              "type": "bytes"
            }
          ],
          "internalType": "struct LayerZeroPacket.Packet",
          "name": "",
          "type": "tuple"
        }
      ],
      "stateMutability": "view",
      "type": "function"
    }
  ],
  "bytecode": "0x60e06040523480156200001157600080fd5b5060405162001ead38038062001ead833981016040819052620000349162000083565b606092831b6001600160601b03199081166080529190921b1660a05260f01b6001600160f01b03191660c052620000d5565b80516001600160a01b03811681146200007e57600080fd5b919050565b60008060006060848603121562000098578283fd5b620000a38462000066565b9250620000b36020850162000066565b9150604084015161ffff81168114620000ca578182fd5b809150509250925092565b60805160601c60a05160601c60c05160f01c611d936200011a600039806101d452806102b252508061019d52806103685250806101f852806102fd5250611d936000f3fe608060405234801561001057600080fd5b50600436106100a35760003560e01c80636348d26911610076578063be9d395e1161005b578063be9d395e14610143578063e0cabadd14610158578063ea455df91461016b576100a3565b80636348d2691461011b578063b71e0f7114610123576100a3565b80630f222e65146100a85780633fc18d4c146100d15780635711c2a8146100e65780635b056da514610106575b600080fd5b6100bb6100b636600461162b565b61017e565b6040516100c89190611b83565b60405180910390f35b6100d961019b565b6040516100c8919061199b565b6100f96100f436600461171c565b6101bf565b6040516100c891906119c5565b61010e6101d2565b6040516100c89190611bb2565b6100d96101f6565b61013661013136600461169f565b61021a565b6040516100c89190611afc565b61014b6103df565b6040516100c891906119bc565b61013661016636600461174f565b610403565b6100f961017936600461171c565b610417565b610186611355565b61019285858585610422565b95945050505050565b7f000000000000000000000000000000000000000000000000000000000000000081565b60606101ca82610568565b90505b919050565b7f000000000000000000000000000000000000000000000000000000000000000081565b7f000000000000000000000000000000000000000000000000000000000000000081565b610222611374565b6000808080610233878901896117ef565b935093509350935060006102498a848487610422565b60208101519091507fe8d23d927749ec8e512eb885679c2977d57068839d8cca1a85685dbbea0648f6146102985760405162461bcd60e51b815260040161028f90611a68565b60405180910390fd5b60006102ae8260400151878a856000015161064d565b90507f000000000000000000000000000000000000000000000000000000000000000061ffff16816020015161ffff16146102fb5760405162461bcd60e51b815260040161028f90611a9f565b7f000000000000000000000000000000000000000000000000000000000000000073ffffffffffffffffffffffffffffffffffffffff16816060015173ffffffffffffffffffffffffffffffffffffffff161415610366576103608160c00151610568565b60c08201525b7f000000000000000000000000000000000000000000000000000000000000000073ffffffffffffffffffffffffffffffffffffffff16816060015173ffffffffffffffffffffffffffffffffffffffff1614156103d1576103cb8160c00151610743565b60c08201525b9a9950505050505050505050565b7fe8d23d927749ec8e512eb885679c2977d57068839d8cca1a85685dbbea0648f681565b61040b611374565b6101928585858561064d565b60606101ca82610743565b61042a611355565b815184511461044b5760405162461bcd60e51b815260040161028f906119fa565b6104536113b2565b606060005b84518110156104e55784818151811061046d57fe5b602002602001015191508180519060200120881461049d5760405162461bcd60e51b815260040161028f90611a31565b6104c38782815181106104ac57fe5b60200260200101516104bd846107ed565b90610861565b925060018551038110156104dd576104da836109cf565b97505b600101610458565b5060006104f660036104bd85610ab8565b9050600061050c6105078389610861565b610b44565b9050610516611355565b61052761052283610bd6565b6109cf565b8152610540610522600061053a85610bd6565b90610c6c565b602082015261055661055183610bd6565b610d19565b60408201529998505050505050505050565b6020810151606090600160ff821614156106465760008060008060008060008980602001905181019061059b9190611868565b97509750975097509750975097505060008151111561063e578151600090156105c5575060148201515b803b8061063b576000826040516020016105df919061196b565b60408051601f1981840301815260208381018352600080855292519194509192610617928f928f928f928f928f928f928b9201611bc1565b60408051601f198184030181529190529c506101cd9b505050505050505050505050565b50505b505050505050505b5090919050565b610655611374565b602085015160608601516068870151858801607c015191906106756113cc565b61067f8189610e12565b5061068f8160008c60888c610e4c565b5060006106a7896106a1866014610f08565b90610f08565b90506106b16113cc565b6106bb8183610e12565b506106d760008d6106cd8d609c610f65565b8492919086610e4c565b506040805160e08101825261ffff808e16825298909816602089015267ffffffffffffffff909416938701939093525073ffffffffffffffffffffffffffffffffffffffff9093166060850152915160808401525060a082018490525160c08201529050949350505050565b60606000808380602001905181019061075c91906117aa565b9150915060008083511115610772575060148201515b73ffffffffffffffffffffffffffffffffffffffff81166107e45760405161dead906000906107a590839060200161196b565b604051602081830303815290604052905080846040516020016107c99291906119d8565b604051602081830303815290604052955050505050506101cd565b50929392505050565b6107f56113b2565b602082018051835160009190911a908015801590610816575060c060ff8316105b1561084557600192909201917fffffffffffffffffffffffffffffffffffffffffffffffffffffffffffffffff015b6040805180820190915290815260208101929092525092915050565b6108696113b2565b61087283610fc6565b6108ad5760405162461bcd60e51b8152600401808060200182810382526021815260200180611d1c6021913960400191505060405180910390fd5b6108b683611000565b8210610909576040805162461bcd60e51b815260206004820152601660248201527f524c50206974656d206f7574206f6620626f756e647300000000000000000000604482015290519081900360640190fd5b825160208401519081019060009061092090611058565b60208601510190506000805b8581101561094b5761093d836110f7565b92830192915060010161092c565b50610955826110f7565b90508281830111156109ae576040805162461bcd60e51b815260206004820152601160248201527f524c50206974656d206f766572666c6f77000000000000000000000000000000604482015290519081900360640190fd5b60405180604001604052808281526020018381525093505050505b92915050565b8051600090158015906109e457508151602110155b610a35576040805162461bcd60e51b815260206004820181905260248201527f524c504465636f64657220746f55696e7420696e76616c6964206c656e677468604482015290519081900360640190fd5b6000610a448360200151611058565b90508083600001511015610a895760405162461bcd60e51b8152600401808060200182810382526028815260200180611cf46028913960400191505060405180910390fd5b825160208085015183018051928490039291831015610aaf57826020036101000a820491505b50949350505050565b610ac06113b2565b6000610acf8360200151611058565b60208401518451908201805192935060009290921a91908015801590610af8575060c060ff8416105b15610b2757600191909101907fffffffffffffffffffffffffffffffffffffffffffffffffffffffffffffffff015b604080518082019091529081526020810191909152949350505050565b610b4c6113e6565b610b5582610fc6565b610ba6576040805162461bcd60e51b815260206004820152601f60248201527f524c504465636f646572206974657261746f72206973206e6f74206c69737400604482015290519081900360640190fd5b6000610bb58360200151611058565b60208085015160408051808201909152868152920190820152915050919050565b610bde6113b2565b610be7826111cc565b610c38576040805162461bcd60e51b815260206004820152601f60248201527f524c504465636f646572206974657261746f7220686173206e6f206e65787400604482015290519081900360640190fd5b60208201516000610c48826110f7565b80830160209586015260408051808201909152908152938401919091525090919050565b610c746113b2565b610c7d83610fc6565b610cb85760405162461bcd60e51b8152600401808060200182810382526021815260200180611d1c6021913960400191505060405180910390fd5b6000610cc78460200151611058565b60208501510190506000805b84811015610cf257610ce4836110f7565b928301929150600101610cd3565b50610cfc826110f7565b604080518082019091529081526020810192909252509392505050565b8051606090610d595760405162461bcd60e51b8152600401808060200182810382526021815260200180611d3d6021913960400191505060405180910390fd5b6000610d688360200151611058565b90508083600001511015610dad5760405162461bcd60e51b8152600401808060200182810382526028815260200180611cf46028913960400191505060405180910390fd5b825181900360008167ffffffffffffffff81118015610dcb57600080fd5b506040519080825280601f01601f191660200182016040528015610df6576020820181803683370190505b5090506000816020019050610aaf8487602001510182856111e1565b610e1a6113cc565b6020820615610e2f5760208206602003820191505b506020828101829052604080518085526000815290920101905290565b610e546113cc565b85602001518286011115610e7e57610e7e86610e76886020015188860161124a565b600202611261565b600080875180518860208301019350808987011115610e9d5788860182525b5050508484015b60208410610ec35780518252601f199093019260209182019101610ea4565b5181517fffffffffffffffffffffffffffffffffffffffffffffffffffffffffffffffff60208690036101000a01908116901991909116179052508495945050505050565b600082821115610f5f576040805162461bcd60e51b815260206004820152601e60248201527f536166654d6174683a207375627472616374696f6e206f766572666c6f770000604482015290519081900360640190fd5b50900390565b600082820183811015610fbf576040805162461bcd60e51b815260206004820152601b60248201527f536166654d6174683a206164646974696f6e206f766572666c6f770000000000604482015290519081900360640190fd5b9392505050565b8051600090610fd7575060006101cd565b6020820151805160001a9060c0821015610ff6576000925050506101cd565b5060019392505050565b8051600090611011575060006101cd565b6000806110218460200151611058565b602085015185519181019250015b8082101561104f57611040826110f7565b6001909301929091019061102f565b50909392505050565b8051600090811a60808110156110725760009150506101cd565b60b881108061108d575060c0811080159061108d575060f881105b1561109c5760019150506101cd565b60c08110156110ce577fffffffffffffffffffffffffffffffffffffffffffffffffffffffffffffff4a0190506101cd565b7fffffffffffffffffffffffffffffffffffffffffffffffffffffffffffffff0a0190506101cd565b80516000908190811a608081101561111257600191506111c5565b60b8811015611145577fffffffffffffffffffffffffffffffffffffffffffffffffffffffffffffff81810191506111c5565b60c08110156111725760b78103600185019450806020036101000a855104600182018101935050506111c5565b60f88110156111a5577fffffffffffffffffffffffffffffffffffffffffffffffffffffffffffffff41810191506111c5565b60f78103600185019450806020036101000a855104600182018101935050505b5092915050565b80518051602091820151919092015191011190565b806111eb57611245565b5b6020811061120b578251825260209283019290910190601f19016111ec565b8251825160208390036101000a7fffffffffffffffffffffffffffffffffffffffffffffffffffffffffffffffff01801990921691161782525b505050565b60008183111561125b5750816109c9565b50919050565b815161126d8383610e12565b50611278838261127e565b50505050565b6112866113cc565b610fbf8384600001515184855161129b6113cc565b82518211156112a957600080fd5b846020015182850111156112cb576112cb85610e76876020015187860161124a565b6000808651805187602083010193508088870111156112ea5787860182525b505050602084015b602084106113115780518252601f1990930192602091820191016112f2565b5181517fffffffffffffffffffffffffffffffffffffffffffffffffffffffffffffffff60208690036101000a019081169019919091161790525083949350505050565b6040805160608082018352600080835260208301529181019190915290565b6040805160e08101825260008082526020820181905291810182905260608082018390526080820181905260a082019290925260c081019190915290565b604051806040016040528060008152602001600081525090565b604051806040016040528060608152602001600081525090565b60405180604001604052806113f96113b2565b8152602001600081525090565b600082601f830112611416578081fd5b8135602061142b61142683611c87565b611c63565b82815281810190858301855b858110156114605761144e898684358b01016114c7565b84529284019290840190600101611437565b5090979650505050505050565b600082601f83011261147d578081fd5b8135602061148d61142683611c87565b82815281810190858301838502870184018810156114a9578586fd5b855b85811015611460578135845292840192908401906001016114ab565b600082601f8301126114d7578081fd5b81356114e561142682611ca5565b8181528460208386010111156114f9578283fd5b816020850160208301379081016020019190915292915050565b600082601f830112611523578081fd5b815161153161142682611ca5565b818152846020838601011115611545578283fd5b611556826020830160208701611cc7565b949350505050565b60006040828403121561156f578081fd5b6040516040810181811067ffffffffffffffff8211171561158c57fe5b604052825181526020928301519281019290925250919050565b600060c082840312156115b7578081fd5b60405160c0810181811067ffffffffffffffff821117156115d457fe5b8060405250809150825181526020830151602082015260408301516040820152606083015160608201526080830151608082015260a083015160a08201525092915050565b803561ffff811681146101cd57600080fd5b60008060008060808587031215611640578384fd5b84359350602085013567ffffffffffffffff8082111561165e578485fd5b61166a8883890161146d565b9450604087013593506060870135915080821115611686578283fd5b5061169387828801611406565b91505092959194509250565b600080600080606085870312156116b4578384fd5b84359350602085013567ffffffffffffffff808211156116d2578485fd5b818701915087601f8301126116e5578485fd5b8135818111156116f3578586fd5b886020828501011115611704578586fd5b95986020929092019750949560400135945092505050565b60006020828403121561172d578081fd5b813567ffffffffffffffff811115611743578182fd5b611556848285016114c7565b60008060008060808587031215611764578384fd5b843567ffffffffffffffff81111561177a578485fd5b611786878288016114c7565b94505061179560208601611619565b93969395505050506040820135916060013590565b600080604083850312156117bc578182fd5b825167ffffffffffffffff8111156117d2578283fd5b6117de85828601611513565b925050602083015190509250929050565b60008060008060808587031215611804578182fd5b61180d85611619565b9350602085013567ffffffffffffffff80821115611829578384fd5b61183588838901611406565b9450604087013591508082111561184a578384fd5b506118578782880161146d565b949793965093946060013593505050565b6000806000806000806000806101c0898b031215611884578586fd5b885160ff81168114611894578687fd5b809850506020890151965060408901519550606089015194506118ba8a60808b0161155e565b93506118c98a60c08b016115a6565b925061018089015167ffffffffffffffff808211156118e6578384fd5b6118f28c838d01611513565b93506101a08b0151915080821115611908578283fd5b506119158b828c01611513565b9150509295985092959890939650565b73ffffffffffffffffffffffffffffffffffffffff169052565b60008151808452611957816020860160208601611cc7565b601f01601f19169290920160200192915050565b60609190911b7fffffffffffffffffffffffffffffffffffffffff00000000000000000000000016815260140190565b73ffffffffffffffffffffffffffffffffffffffff91909116815260200190565b90815260200190565b600060208252610fbf602083018461193f565b6000604082526119eb604083018561193f565b90508260208301529392505050565b6020808252601c908201527f50726f6f664c69623a20696e76616c69642070726f6f662073697a6500000000604082015260600190565b6020808252601a908201527f50726f6f664c69623a20696e76616c696420686173686c696e6b000000000000604082015260600190565b6020808252601f908201527f50726f6f664c69623a207061636b6574206e6f74207265636f676e697a656400604082015260600190565b60208082526026908201527f50726f6f664c69623a20696e76616c69642064657374696e6174696f6e20636860408201527f61696e2049440000000000000000000000000000000000000000000000000000606082015260800190565b60006020825261ffff8084511660208401528060208501511660408401525067ffffffffffffffff60408401511660608301526060830151611b416080840182611925565b50608083015160e060a0840152611b5c61010084018261193f565b905060a084015160c084015260c0840151601f198483030160e0850152610192828261193f565b60006020825282516020830152602083015160408301526040830151606080840152611556608084018261193f565b61ffff91909116815260200190565b60006101c060ff8b16835289602084015288604084015287606084015286516080840152602087015160a0840152855160c0840152602086015160e084015260408601516101008401526060860151610120840152608086015161014084015260a086015161016084015280610180840152611c3f8184018661193f565b90508281036101a0840152611c54818561193f565b9b9a5050505050505050505050565b60405181810167ffffffffffffffff81118282101715611c7f57fe5b604052919050565b600067ffffffffffffffff821115611c9b57fe5b5060209081020190565b600067ffffffffffffffff821115611cb957fe5b50601f01601f191660200190565b60005b83811015611ce2578181015183820152602001611cca565b83811115611278575050600091015256fe524c504465636f6465723a20696e76616c696420524c50206974656d206f66667365742073697a65524c504465636f646572206974657261746f72206973206e6f742061206c697374524c504465636f64657220746f427974657320696e76616c6964206c656e677468a264697066735822122010ed279bfcbe2893da4c617febd90b18d841369cf6914c6b3e4c129e7c14c97c64736f6c63430007060033",
  "linkReferences": {},
  "deployedLinkReferences": {}
}