{
  "_format": "hh-sol-artifact-1",
  "contractName": "TreasuryV2",
  "sourceName": "contracts/TreasuryV2.sol",
  "abi": [
    {
      "inputs": [
        {
          "internalType": "address",
          "name": "_ulnv2",
          "type": "address"
        }
      ],
      "stateMutability": "nonpayable",
      "type": "constructor"
    },
    {
      "anonymous": false,
      "inputs": [
        {
          "indexed": false,
          "internalType": "bool",
          "name": "feeEnabled",
          "type": "bool"
        }
      ],
      "name": "FeeEnabled",
      "type": "event"
    },
    {
      "anonymous": false,
      "inputs": [
        {
          "indexed": false,
          "internalType": "uint256",
          "name": "bp",
          "type": "uint256"
        }
      ],
      "name": "NativeBP",
      "type": "event"
    },
    {
      "anonymous": false,
      "inputs": [
        {
          "indexed": true,
          "internalType": "address",
          "name": "previousOwner",
          "type": "address"
        },
        {
          "indexed": true,
          "internalType": "address",
          "name": "newOwner",
          "type": "address"
        }
      ],
      "name": "OwnershipTransferred",
      "type": "event"
    },
    {
      "anonymous": false,
      "inputs": [
        {
          "indexed": false,
          "internalType": "bool",
          "name": "zroEnabled",
          "type": "bool"
        }
      ],
      "name": "ZroEnabled",
      "type": "event"
    },
    {
      "anonymous": false,
      "inputs": [
        {
          "indexed": false,
          "internalType": "uint256",
          "name": "zroFee",
          "type": "uint256"
        }
      ],
      "name": "ZroFee",
      "type": "event"
    },
    {
      "inputs": [],
      "name": "feeEnabled",
      "outputs": [
        {
          "internalType": "bool",
          "name": "",
          "type": "bool"
        }
      ],
      "stateMutability": "view",
      "type": "function"
    },
    {
      "inputs": [
        {
          "internalType": "bool",
          "name": "payInZro",
          "type": "bool"
        },
        {
          "internalType": "uint256",
          "name": "relayerFee",
          "type": "uint256"
        },
        {
          "internalType": "uint256",
          "name": "oracleFee",
          "type": "uint256"
        }
      ],
      "name": "getFees",
      "outputs": [
        {
          "internalType": "uint256",
          "name": "",
          "type": "uint256"
        }
      ],
      "stateMutability": "view",
      "type": "function"
    },
    {
      "inputs": [],
      "name": "nativeBP",
      "outputs": [
        {
          "internalType": "uint256",
          "name": "",
          "type": "uint256"
        }
      ],
      "stateMutability": "view",
      "type": "function"
    },
    {
      "inputs": [],
      "name": "owner",
      "outputs": [
        {
          "internalType": "address",
          "name": "",
          "type": "address"
        }
      ],
      "stateMutability": "view",
      "type": "function"
    },
    {
      "inputs": [],
      "name": "renounceOwnership",
      "outputs": [],
      "stateMutability": "nonpayable",
      "type": "function"
    },
    {
      "inputs": [
        {
          "internalType": "bool",
          "name": "_feeEnabled",
          "type": "bool"
        }
      ],
      "name": "setFeeEnabled",
      "outputs": [],
      "stateMutability": "nonpayable",
      "type": "function"
    },
    {
      "inputs": [
        {
          "internalType": "uint256",
          "name": "_nativeBP",
          "type": "uint256"
        }
      ],
      "name": "setNativeBP",
      "outputs": [],
      "stateMutability": "nonpayable",
      "type": "function"
    },
    {
      "inputs": [
        {
          "internalType": "bool",
          "name": "_zroEnabled",
          "type": "bool"
        }
      ],
      "name": "setZroEnabled",
      "outputs": [],
      "stateMutability": "nonpayable",
      "type": "function"
    },
    {
      "inputs": [
        {
          "internalType": "uint256",
          "name": "_zroFee",
          "type": "uint256"
        }
      ],
      "name": "setZroFee",
      "outputs": [],
      "stateMutability": "nonpayable",
      "type": "function"
    },
    {
      "inputs": [
        {
          "internalType": "address",
          "name": "newOwner",
          "type": "address"
        }
      ],
      "name": "transferOwnership",
      "outputs": [],
      "stateMutability": "nonpayable",
      "type": "function"
    },
    {
      "inputs": [],
      "name": "uln",
      "outputs": [
        {
          "internalType": "contract ILayerZeroUltraLightNodeV2",
          "name": "",
          "type": "address"
        }
      ],
      "stateMutability": "view",
      "type": "function"
    },
    {
      "inputs": [
        {
          "internalType": "address payable",
          "name": "_to",
          "type": "address"
        },
        {
          "internalType": "uint256",
          "name": "_amount",
          "type": "uint256"
        }
      ],
      "name": "withdrawNativeFromULN",
      "outputs": [],
      "stateMutability": "nonpayable",
      "type": "function"
    },
    {
      "inputs": [
        {
          "internalType": "address",
          "name": "_token",
          "type": "address"
        },
        {
          "internalType": "address",
          "name": "_to",
          "type": "address"
        },
        {
          "internalType": "uint256",
          "name": "_amount",
          "type": "uint256"
        }
      ],
      "name": "withdrawToken",
      "outputs": [],
      "stateMutability": "nonpayable",
      "type": "function"
    },
    {
      "inputs": [
        {
          "internalType": "address",
          "name": "_to",
          "type": "address"
        },
        {
          "internalType": "uint256",
          "name": "_amount",
          "type": "uint256"
        }
      ],
      "name": "withdrawZROFromULN",
      "outputs": [],
      "stateMutability": "nonpayable",
      "type": "function"
    },
    {
      "inputs": [],
      "name": "zroEnabled",
      "outputs": [
        {
          "internalType": "bool",
          "name": "",
          "type": "bool"
        }
      ],
      "stateMutability": "view",
      "type": "function"
    },
    {
      "inputs": [],
      "name": "zroFee",
      "outputs": [
        {
          "internalType": "uint256",
          "name": "",
          "type": "uint256"
        }
      ],
      "stateMutability": "view",
      "type": "function"
    }
  ],
  "bytecode": "0x608060405234801561001057600080fd5b506040516113583803806113588339818101604052602081101561003357600080fd5b5051600061003f6100b6565b600080546001600160a01b0319166001600160a01b0383169081178255604051929350917f8be0079c531659141344cd1fd0a4f28419497f9722a3daafe3b4186f6b6457e0908290a350600380546001600160a01b03909216620100000262010000600160b01b03199092169190911790556100ba565b3390565b61128f806100c96000396000f3fe608060405234801561001057600080fd5b50600436106101005760003560e01c80638da5cb5b11610097578063baead4cc11610066578063baead4cc146102a2578063d684b253146102bf578063d935d123146102de578063f2fde38b146102e657610100565b80638da5cb5b1461026e57806396a141a014610276578063a771ebc71461027e578063af406aa51461029a57610100565b80636c473aff116100d35780636c473aff146101df578063715018a6146102105780637ba20ccf146102185780638c6163971461023557610100565b806301e33667146101055780630db474fa1461014a5780633c5ac8f7146101695780635cbbbd75146101a2575b600080fd5b6101486004803603606081101561011b57600080fd5b5073ffffffffffffffffffffffffffffffffffffffff813581169160208101359091169060400135610319565b005b6101486004803603602081101561016057600080fd5b503515156103cd565b6101486004803603604081101561017f57600080fd5b5073ffffffffffffffffffffffffffffffffffffffff81351690602001356104c0565b6101cd600480360360608110156101b857600080fd5b508035151590602081013590604001356105ec565b60408051918252519081900360200190f35b6101e76106a2565b6040805173ffffffffffffffffffffffffffffffffffffffff9092168252519081900360200190f35b6101486106c4565b6101486004803603602081101561022e57600080fd5b50356107c1565b6101486004803603604081101561024b57600080fd5b5073ffffffffffffffffffffffffffffffffffffffff813516906020013561088a565b6101e761099a565b6101cd6109b6565b6102866109bc565b604080519115158252519081900360200190f35b6101cd6109c5565b610148600480360360208110156102b857600080fd5b50356109cb565b610148600480360360208110156102d557600080fd5b50351515610a94565b610286610b8e565b610148600480360360208110156102fc57600080fd5b503573ffffffffffffffffffffffffffffffffffffffff16610b9c565b610321610d09565b73ffffffffffffffffffffffffffffffffffffffff1661033f61099a565b73ffffffffffffffffffffffffffffffffffffffff16146103a7576040805162461bcd60e51b815260206004820181905260248201527f4f776e61626c653a2063616c6c6572206973206e6f7420746865206f776e6572604482015290519081900360640190fd5b6103c873ffffffffffffffffffffffffffffffffffffffff84168383610d0d565b505050565b6103d5610d09565b73ffffffffffffffffffffffffffffffffffffffff166103f361099a565b73ffffffffffffffffffffffffffffffffffffffff161461045b576040805162461bcd60e51b815260206004820181905260248201527f4f776e61626c653a2063616c6c6572206973206e6f7420746865206f776e6572604482015290519081900360640190fd5b600380548215157fffffffffffffffffffffffffffffffffffffffffffffffffffffffffffffff00909116811790915560408051918252517fe97fa32ceb811a18d1b14115b17ae0034db328b2e2ca987d9922cbf47b03fad69181900360200190a150565b6104c8610d09565b73ffffffffffffffffffffffffffffffffffffffff166104e661099a565b73ffffffffffffffffffffffffffffffffffffffff161461054e576040805162461bcd60e51b815260206004820181905260248201527f4f776e61626c653a2063616c6c6572206973206e6f7420746865206f776e6572604482015290519081900360640190fd5b600354604080517f07b18bde00000000000000000000000000000000000000000000000000000000815273ffffffffffffffffffffffffffffffffffffffff858116600483015260248201859052915162010000909304909116916307b18bde9160448082019260009290919082900301818387803b1580156105d057600080fd5b505af11580156105e4573d6000803e3d6000fd5b505050505050565b60035460009060ff161561069757831561066557600354610100900460ff1661065c576040805162461bcd60e51b815260206004820152601d60248201527f4c617965725a65726f3a205a524f206973206e6f7420656e61626c6564000000604482015290519081900360640190fd5b5060025461069b565b61069061271061068a6001546106848688610d9a90919063ffffffff16565b90610dfd565b90610e56565b905061069b565b5060005b9392505050565b60035462010000900473ffffffffffffffffffffffffffffffffffffffff1681565b6106cc610d09565b73ffffffffffffffffffffffffffffffffffffffff166106ea61099a565b73ffffffffffffffffffffffffffffffffffffffff1614610752576040805162461bcd60e51b815260206004820181905260248201527f4f776e61626c653a2063616c6c6572206973206e6f7420746865206f776e6572604482015290519081900360640190fd5b6000805460405173ffffffffffffffffffffffffffffffffffffffff909116907f8be0079c531659141344cd1fd0a4f28419497f9722a3daafe3b4186f6b6457e0908390a3600080547fffffffffffffffffffffffff0000000000000000000000000000000000000000169055565b6107c9610d09565b73ffffffffffffffffffffffffffffffffffffffff166107e761099a565b73ffffffffffffffffffffffffffffffffffffffff161461084f576040805162461bcd60e51b815260206004820181905260248201527f4f776e61626c653a2063616c6c6572206973206e6f7420746865206f776e6572604482015290519081900360640190fd5b60028190556040805182815290517f804d99c2291bc4a6be11ff016f65cfc644f8d488ef55a5318d0217a1fdc4e9fd9181900360200190a150565b610892610d09565b73ffffffffffffffffffffffffffffffffffffffff166108b061099a565b73ffffffffffffffffffffffffffffffffffffffff1614610918576040805162461bcd60e51b815260206004820181905260248201527f4f776e61626c653a2063616c6c6572206973206e6f7420746865206f776e6572604482015290519081900360640190fd5b600354604080517f8525b71100000000000000000000000000000000000000000000000000000000815273ffffffffffffffffffffffffffffffffffffffff85811660048301526024820185905291516201000090930490911691638525b7119160448082019260009290919082900301818387803b1580156105d057600080fd5b60005473ffffffffffffffffffffffffffffffffffffffff1690565b60015481565b60035460ff1681565b60025481565b6109d3610d09565b73ffffffffffffffffffffffffffffffffffffffff166109f161099a565b73ffffffffffffffffffffffffffffffffffffffff1614610a59576040805162461bcd60e51b815260206004820181905260248201527f4f776e61626c653a2063616c6c6572206973206e6f7420746865206f776e6572604482015290519081900360640190fd5b60018190556040805182815290517ff2a316ed322d32481373e7ed416bc6c1ec2afcfa3bf2f1df9eb4300e1a9620e39181900360200190a150565b610a9c610d09565b73ffffffffffffffffffffffffffffffffffffffff16610aba61099a565b73ffffffffffffffffffffffffffffffffffffffff1614610b22576040805162461bcd60e51b815260206004820181905260248201527f4f776e61626c653a2063616c6c6572206973206e6f7420746865206f776e6572604482015290519081900360640190fd5b6003805482151561010081027fffffffffffffffffffffffffffffffffffffffffffffffffffffffffffff00ff9092169190911790915560408051918252517f279d3ec34d7b325d10d4b9d6c63464877a6fe6ac3997f7508bdb3b9d2d5050b39181900360200190a150565b600354610100900460ff1681565b610ba4610d09565b73ffffffffffffffffffffffffffffffffffffffff16610bc261099a565b73ffffffffffffffffffffffffffffffffffffffff1614610c2a576040805162461bcd60e51b815260206004820181905260248201527f4f776e61626c653a2063616c6c6572206973206e6f7420746865206f776e6572604482015290519081900360640190fd5b73ffffffffffffffffffffffffffffffffffffffff8116610c7c5760405162461bcd60e51b81526004018080602001828103825260268152602001806111c36026913960400191505060405180910390fd5b6000805460405173ffffffffffffffffffffffffffffffffffffffff808516939216917f8be0079c531659141344cd1fd0a4f28419497f9722a3daafe3b4186f6b6457e091a3600080547fffffffffffffffffffffffff00000000000000000000000000000000000000001673ffffffffffffffffffffffffffffffffffffffff92909216919091179055565b3390565b6040805173ffffffffffffffffffffffffffffffffffffffff8416602482015260448082018490528251808303909101815260649091019091526020810180517bffffffffffffffffffffffffffffffffffffffffffffffffffffffff167fa9059cbb000000000000000000000000000000000000000000000000000000001790526103c8908490610ebd565b600082820183811015610df4576040805162461bcd60e51b815260206004820152601b60248201527f536166654d6174683a206164646974696f6e206f766572666c6f770000000000604482015290519081900360640190fd5b90505b92915050565b600082610e0c57506000610df7565b82820282848281610e1957fe5b0414610df45760405162461bcd60e51b815260040180806020018281038252602181526020018061120f6021913960400191505060405180910390fd5b6000808211610eac576040805162461bcd60e51b815260206004820152601a60248201527f536166654d6174683a206469766973696f6e206279207a65726f000000000000604482015290519081900360640190fd5b818381610eb557fe5b049392505050565b6000610f1f826040518060400160405280602081526020017f5361666545524332303a206c6f772d6c6576656c2063616c6c206661696c65648152508573ffffffffffffffffffffffffffffffffffffffff16610f7b9092919063ffffffff16565b8051909150156103c857808060200190516020811015610f3e57600080fd5b50516103c85760405162461bcd60e51b815260040180806020018281038252602a815260200180611230602a913960400191505060405180910390fd5b6060610f8a8484600085610f92565b949350505050565b606082471015610fd35760405162461bcd60e51b81526004018080602001828103825260268152602001806111e96026913960400191505060405180910390fd5b610fdc85611118565b61102d576040805162461bcd60e51b815260206004820152601d60248201527f416464726573733a2063616c6c20746f206e6f6e2d636f6e7472616374000000604482015290519081900360640190fd5b6000808673ffffffffffffffffffffffffffffffffffffffff1685876040518082805190602001908083835b6020831061109657805182527fffffffffffffffffffffffffffffffffffffffffffffffffffffffffffffffe09092019160209182019101611059565b6001836020036101000a03801982511681845116808217855250505050505090500191505060006040518083038185875af1925050503d80600081146110f8576040519150601f19603f3d011682016040523d82523d6000602084013e6110fd565b606091505b509150915061110d82828661111e565b979650505050505050565b3b151590565b6060831561112d57508161069b565b82511561113d5782518084602001fd5b8160405162461bcd60e51b81526004018080602001828103825283818151815260200191508051906020019080838360005b8381101561118757818101518382015260200161116f565b50505050905090810190601f1680156111b45780820380516001836020036101000a031916815260200191505b509250505060405180910390fdfe4f776e61626c653a206e6577206f776e657220697320746865207a65726f2061646472657373416464726573733a20696e73756666696369656e742062616c616e636520666f722063616c6c536166654d6174683a206d756c7469706c69636174696f6e206f766572666c6f775361666545524332303a204552433230206f7065726174696f6e20646964206e6f742073756363656564a26469706673582212206101b8edc08c7f76f710d9fbe01f6df28e375bae4cab7e38622762250d46a05a64736f6c63430007060033",
  "linkReferences": {},
  "deployedLinkReferences": {}
}