{
  "address": "0x087ceBBd85A161A50F91b9d7743e8b89fC384e2e",
  "abi": [
    {
      "inputs": [
        {
          "internalType": "address",
          "name": "_endpoint",
          "type": "address"
        },
        {
          "internalType": "address",
          "name": "_ulnv2Radar",
          "type": "address"
        }
      ],
      "stateMutability": "nonpayable",
      "type": "constructor"
    },
    {
      "inputs": [],
      "name": "endpoint",
      "outputs": [
        {
          "internalType": "contract ILayerZeroEndpoint",
          "name": "",
          "type": "address"
        }
      ],
      "stateMutability": "view",
      "type": "function"
    },
    {
      "inputs": [
        {
          "internalType": "uint16",
          "name": "_chainId",
          "type": "uint16"
        },
        {
          "internalType": "address",
          "name": "_ua",
          "type": "address"
        },
        {
          "internalType": "bytes",
          "name": "_path",
          "type": "bytes"
        }
      ],
      "name": "increment",
      "outputs": [
        {
          "internalType": "uint64",
          "name": "",
          "type": "uint64"
        }
      ],
      "stateMutability": "nonpayable",
      "type": "function"
    },
    {
      "inputs": [
        {
          "internalType": "uint16",
          "name": "_dstChainId",
          "type": "uint16"
        },
        {
          "internalType": "bytes",
          "name": "_path",
          "type": "bytes"
        },
        {
          "internalType": "uint64",
          "name": "_nonce",
          "type": "uint64"
        }
      ],
      "name": "initRadarOutboundNonce",
      "outputs": [],
      "stateMutability": "nonpayable",
      "type": "function"
    },
    {
      "inputs": [
        {
          "internalType": "uint16",
          "name": "",
          "type": "uint16"
        },
        {
          "internalType": "bytes",
          "name": "",
          "type": "bytes"
        }
      ],
      "name": "outboundNonce",
      "outputs": [
        {
          "internalType": "uint64",
          "name": "",
          "type": "uint64"
        }
      ],
      "stateMutability": "view",
      "type": "function"
    },
    {
      "inputs": [],
      "name": "ulnv2Radar",
      "outputs": [
        {
          "internalType": "address",
          "name": "",
          "type": "address"
        }
      ],
      "stateMutability": "view",
      "type": "function"
    }
  ],
  "transactionHash": "0xa4e3b1eea087b25fa9b669aa4c80685b459fc0ed0d1c61a7b95dbf7fb856c9c9",
  "args": [
    "0x66A71Dcef29A0fFBDBE3c6a460a3B5BC225Cd675",
    "0xbE4fB271cfB7bcbB47EA9573321c7bfe309fc220"
  ],
  "numDeployments": 1,
  "solcInputHash": "88eb49683bfe6107ec15696e914175ae",
  "bytecode": "0x60c060405234801561001057600080fd5b506040516106103803806106108339818101604052604081101561003357600080fd5b5080516020909101516001600160601b0319606092831b8116608052911b1660a05260805160601c60a05160601c61058861008860003980610268528061029552508061037152806103a152506105886000f3fe608060405234801561001057600080fd5b50600436106100575760003560e01c8063184e49e11461005c5780633461ff56146100805780635e280f11146101075780636fe7b6731461010f578063c533338f146101b5575b600080fd5b610064610266565b604080516001600160a01b039092168252519081900360200190f35b6101056004803603606081101561009657600080fd5b61ffff82351691908101906040810160208201356401000000008111156100bc57600080fd5b8201836020820111156100ce57600080fd5b803590602001918460018302840111640100000000831117156100f057600080fd5b91935091503567ffffffffffffffff1661028a565b005b61006461036f565b6101986004803603606081101561012557600080fd5b61ffff823516916001600160a01b036020820135169181019060608101604082013564010000000081111561015957600080fd5b82018360208201111561016b57600080fd5b8035906020019184600183028401116401000000008311171561018d57600080fd5b509092509050610393565b6040805167ffffffffffffffff9092168252519081900360200190f35b610198600480360360408110156101cb57600080fd5b61ffff82351691908101906040810160208201356401000000008111156101f157600080fd5b82018360208201111561020357600080fd5b8035906020019184600183028401116401000000008311171561022557600080fd5b91908080601f0160208091040260200160405190810160405280939291908181526020018383808284376000920191909152509295506104eb945050505050565b7f000000000000000000000000000000000000000000000000000000000000000081565b336001600160a01b037f00000000000000000000000000000000000000000000000000000000000000001614610307576040805162461bcd60e51b815260206004820152601e60248201527f4e6f6e6365436f6e74726163743a206f6e6c7920756c6e763252616461720000604482015290519081900360640190fd5b806000808661ffff1661ffff16815260200190815260200160002084846040518083838082843791909101948552505060405192839003602001909220805467ffffffffffffffff9490941667ffffffffffffffff1990941693909317909255505050505050565b7f000000000000000000000000000000000000000000000000000000000000000081565b6000336001600160a01b03167f00000000000000000000000000000000000000000000000000000000000000006001600160a01b0316639c729da1866040518263ffffffff1660e01b815260040180826001600160a01b0316815260200191505060206040518083038186803b15801561040c57600080fd5b505afa158015610420573d6000803e3d6000fd5b505050506040513d602081101561043657600080fd5b50516001600160a01b03161461047d5760405162461bcd60e51b81526004018080602001828103825260328152602001806105216032913960400191505060405180910390fd5b6000808661ffff1661ffff16815260200190815260200160002083836040518083838082843791909101948552505060405160209381900393909301909220805467ffffffffffffffff198116600167ffffffffffffffff9283160191821617909155979650505050505050565b6000602081815292815260409020815180830184018051928152908401929093019190912091525467ffffffffffffffff168156fe4e6f6e6365436f6e74726163743a206d73672e73656e646572206973206e6f742076616c69642073656e646c696272617279a26469706673582212203dec4f0152a3c47b33f6dc0ae0c31d9fd6239175054ac3d91eec0bb9f8f7f8e864736f6c63430007060033",
  "devdoc": {
    "kind": "dev",
    "methods": {},
    "version": 1
  },
  "userdoc": {
    "kind": "user",
    "methods": {},
    "version": 1
  },
  "storageLayout": {
    "storage": [
      {
        "astId": 4468,
        "contract": "contracts/NonceContractRadar.sol:NonceContractRadar",
        "label": "outboundNonce",
        "offset": 0,
        "slot": "0",
        "type": "t_mapping(t_uint16,t_mapping(t_bytes_memory_ptr,t_uint64))"
      }
    ],
    "types": {
      "t_bytes_memory_ptr": {
        "encoding": "bytes",
        "label": "bytes",
        "numberOfBytes": "32"
      },
      "t_mapping(t_bytes_memory_ptr,t_uint64)": {
        "encoding": "mapping",
        "key": "t_bytes_memory_ptr",
        "label": "mapping(bytes => uint64)",
        "numberOfBytes": "32",
        "value": "t_uint64"
      },
      "t_mapping(t_uint16,t_mapping(t_bytes_memory_ptr,t_uint64))": {
        "encoding": "mapping",
        "key": "t_uint16",
        "label": "mapping(uint16 => mapping(bytes => uint64))",
        "numberOfBytes": "32",
        "value": "t_mapping(t_bytes_memory_ptr,t_uint64)"
      },
      "t_uint16": {
        "encoding": "inplace",
        "label": "uint16",
        "numberOfBytes": "2"
      },
      "t_uint64": {
        "encoding": "inplace",
        "label": "uint64",
        "numberOfBytes": "8"
      }
    }
  }
}