{
  "address": "0x71C95911E9a5D330f4D621842EC243EE1343292e",
  "abi": [
    {
      "inputs": [
        {
          "internalType": "address",
          "name": "_stargateBridgeAddress",
          "type": "address"
        },
        {
          "internalType": "address",
          "name": "_stargateTokenAddress",
          "type": "address"
        }
      ],
      "stateMutability": "nonpayable",
      "type": "constructor"
    },
    {
      "inputs": [
        {
          "internalType": "bytes",
          "name": "data",
          "type": "bytes"
        },
        {
          "internalType": "uint256",
          "name": "sizeOfSrcAddress",
          "type": "uint256"
        },
        {
          "internalType": "bytes32",
          "name": "ulnAddress",
          "type": "bytes32"
        }
      ],
      "name": "getPacket",
      "outputs": [
        {
          "components": [
            {
              "internalType": "uint16",
              "name": "srcChainId",
              "type": "uint16"
            },
            {
              "internalType": "uint16",
              "name": "dstChainId",
              "type": "uint16"
            },
            {
              "internalType": "uint64",
              "name": "nonce",
              "type": "uint64"
            },
            {
              "internalType": "address",
              "name": "dstAddress",
              "type": "address"
            },
            {
              "internalType": "bytes",
              "name": "srcAddress",
              "type": "bytes"
            },
            {
              "internalType": "bytes32",
              "name": "ulnAddress",
              "type": "bytes32"
            },
            {
              "internalType": "bytes",
              "name": "payload",
              "type": "bytes"
            }
          ],
          "internalType": "struct LayerZeroPacket.Packet",
          "name": "",
          "type": "tuple"
        }
      ],
      "stateMutability": "pure",
      "type": "function"
    },
    {
      "inputs": [],
      "name": "getProofType",
      "outputs": [
        {
          "internalType": "uint8",
          "name": "",
          "type": "uint8"
        }
      ],
      "stateMutability": "view",
      "type": "function"
    },
    {
      "inputs": [],
      "name": "getUtilsVersion",
      "outputs": [
        {
          "internalType": "uint8",
          "name": "",
          "type": "uint8"
        }
      ],
      "stateMutability": "view",
      "type": "function"
    },
    {
      "inputs": [
        {
          "internalType": "bytes32",
          "name": "",
          "type": "bytes32"
        },
        {
          "internalType": "uint256[]",
          "name": "",
          "type": "uint256[]"
        },
        {
          "internalType": "uint256",
          "name": "",
          "type": "uint256"
        },
        {
          "internalType": "bytes[]",
          "name": "proof",
          "type": "bytes[]"
        }
      ],
      "name": "getVerifyLog",
      "outputs": [
        {
          "components": [
            {
              "internalType": "bytes32",
              "name": "contractAddress",
              "type": "bytes32"
            },
            {
              "internalType": "bytes32",
              "name": "topicZeroSig",
              "type": "bytes32"
            },
            {
              "internalType": "bytes",
              "name": "data",
              "type": "bytes"
            }
          ],
          "internalType": "struct IValidationLibraryHelperV2.ULNLog",
          "name": "log",
          "type": "tuple"
        }
      ],
      "stateMutability": "pure",
      "type": "function"
    },
    {
      "inputs": [],
      "name": "proofType",
      "outputs": [
        {
          "internalType": "uint8",
          "name": "",
          "type": "uint8"
        }
      ],
      "stateMutability": "view",
      "type": "function"
    },
    {
      "inputs": [
        {
          "internalType": "bytes",
          "name": "_payload",
          "type": "bytes"
        }
      ],
      "name": "secureStgPayload",
      "outputs": [
        {
          "internalType": "bytes",
          "name": "",
          "type": "bytes"
        }
      ],
      "stateMutability": "view",
      "type": "function"
    },
    {
      "inputs": [
        {
          "internalType": "bytes",
          "name": "_payload",
          "type": "bytes"
        }
      ],
      "name": "secureStgTokenPayload",
      "outputs": [
        {
          "internalType": "bytes",
          "name": "",
          "type": "bytes"
        }
      ],
      "stateMutability": "pure",
      "type": "function"
    },
    {
      "inputs": [],
      "name": "stargateBridgeAddress",
      "outputs": [
        {
          "internalType": "address",
          "name": "",
          "type": "address"
        }
      ],
      "stateMutability": "view",
      "type": "function"
    },
    {
      "inputs": [],
      "name": "stargateTokenAddress",
      "outputs": [
        {
          "internalType": "address",
          "name": "",
          "type": "address"
        }
      ],
      "stateMutability": "view",
      "type": "function"
    },
    {
      "inputs": [],
      "name": "utilsVersion",
      "outputs": [
        {
          "internalType": "uint8",
          "name": "",
          "type": "uint8"
        }
      ],
      "stateMutability": "view",
      "type": "function"
    },
    {
      "inputs": [
        {
          "internalType": "bytes32",
          "name": "_packetHash",
          "type": "bytes32"
        },
        {
          "internalType": "bytes",
          "name": "_transactionProof",
          "type": "bytes"
        },
        {
          "internalType": "uint256",
          "name": "_remoteAddressSize",
          "type": "uint256"
        }
      ],
      "name": "validateProof",
      "outputs": [
        {
          "components": [
            {
              "internalType": "uint16",
              "name": "srcChainId",
              "type": "uint16"
            },
            {
              "internalType": "uint16",
              "name": "dstChainId",
              "type": "uint16"
            },
            {
              "internalType": "uint64",
              "name": "nonce",
              "type": "uint64"
            },
            {
              "internalType": "address",
              "name": "dstAddress",
              "type": "address"
            },
            {
              "internalType": "bytes",
              "name": "srcAddress",
              "type": "bytes"
            },
            {
              "internalType": "bytes32",
              "name": "ulnAddress",
              "type": "bytes32"
            },
            {
              "internalType": "bytes",
              "name": "payload",
              "type": "bytes"
            }
          ],
          "internalType": "struct LayerZeroPacket.Packet",
          "name": "packet",
          "type": "tuple"
        }
      ],
      "stateMutability": "view",
      "type": "function"
    }
  ],
  "transactionHash": "0xa037b3d3c1cd28ce2c3ed1b2198fba4c9990b941f5da8c95041dbbf8547801a2",
  "args": [
    "0x0000000000000000000000000000000000000000",
    "0x0000000000000000000000000000000000000000"
  ],
  "numDeployments": 1,
  "solcInputHash": "c9813f16c0a9a8a4ed63c4b4efa707e9",
  "bytecode": "0x60c06040526000805461ff001960ff199091166002171661010017905534801561002857600080fd5b5060405161139538038061139583398101604081905261004791610081565b6001600160601b0319606092831b8116608052911b1660a0526100b3565b80516001600160a01b038116811461007c57600080fd5b919050565b60008060408385031215610093578182fd5b61009c83610065565b91506100aa60208401610065565b90509250929050565b60805160601c60a05160601c6112af6100e6600039806103dc528061045f525080610200528061037152506112af6000f3fe608060405234801561001057600080fd5b50600436106100c95760003560e01c80636348d26911610081578063d633ad611161005b578063d633ad6114610184578063e965c1921461018c578063ea455df914610194576100c9565b80636348d269146101545780639bcd850f14610169578063b71e0f7114610171576100c9565b80632ff20449116100b25780632ff204491461010c57806347713b391461012c5780635711c2a814610134576100c9565b806305af5d35146100ce5780630f222e65146100ec575b600080fd5b6100d66101a7565b6040516100e3919061112f565b60405180910390f35b6100ff6100fa366004610c82565b6101b0565b6040516100e39190611100565b61011f61011a366004610df7565b6101c2565b6040516100e39190611070565b6100d66101dd565b610147610142366004610d7f565b6101eb565b6040516100e39190610fa7565b61015c6101fe565b6040516100e39190610f86565b6100d6610222565b61011f61017f366004610d02565b61022b565b6100d661044f565b61015c61045d565b6101476101a2366004610d7f565b610481565b60005460ff1681565b6101b8610a73565b9695505050505050565b6101ca610a92565b6101d584848461048c565b949350505050565b600054610100900460ff1681565b60606101f682610666565b90505b919050565b7f000000000000000000000000000000000000000000000000000000000000000081565b60005460ff1690565b610233610a92565b60008211610276576040517f08c379a000000000000000000000000000000000000000000000000000000000815260040161026d90611039565b60405180910390fd5b60208311801561029c5750848484604051610292929190610f76565b6040518091039020145b6102d2576040517f08c379a000000000000000000000000000000000000000000000000000000000815260040161026d90610fdc565b60006102e16020828688611225565b8080601f016020809104026020016040519081016040528093929190818152602001838380828437600092019190915250505060208083015192935061036d915061032f908790818a611225565b8080601f01602080910402602001604051908101604052809392919081815260200183838082843760009201919091525088925085915061048c9050565b92507f000000000000000000000000000000000000000000000000000000000000000073ffffffffffffffffffffffffffffffffffffffff16836060015173ffffffffffffffffffffffffffffffffffffffff1614156103da576103d48360c00151610666565b60c08401525b7f000000000000000000000000000000000000000000000000000000000000000073ffffffffffffffffffffffffffffffffffffffff16836060015173ffffffffffffffffffffffffffffffffffffffff1614156104455761043f8360c0015161074b565b60c08401525b5050949350505050565b600054610100900460ff1690565b7f000000000000000000000000000000000000000000000000000000000000000081565b60606101f68261074b565b610494610a92565b835160006104a38560206107f5565b90508082101561051457604080517f08c379a000000000000000000000000000000000000000000000000000000000815260206004820152601f60248201527f4c617965725a65726f5061636b65743a20696e76616c6964207061636b657400604482015290519081900360640190fd5b6008860151600a870151868801600c8101516020909101518486039392919061ffff83166105a357604080517f08c379a000000000000000000000000000000000000000000000000000000000815260206004820152601f60248201527f4c617965725a65726f5061636b65743a20696e76616c6964207061636b657400604482015290519081900360640190fd5b6105ab610ad0565b6105b5818c610872565b506105c58160008e602a8f6108ac565b506105ce610ad0565b86156105fc576105de8188610872565b506105fa60008e6105f08b60206107f5565b849291908b6108ac565b505b6040805160e08101825261ffff968716815294909516602085015267ffffffffffffffff9095169383019390935273ffffffffffffffffffffffffffffffffffffffff1660608201529051608082015260a08101879052905160c082015293505050509392505050565b6020810151606090600160ff82161415610744576000806000806000806000898060200190518101906106999190610e43565b97509750975097509750975097505060008151111561073c578151600090156106c3575060148201515b803b80610739576000826040516020016106dd9190610f46565b60408051601f1981840301815260208381018352600080855292519194509192610715928f928f928f928f928f928f928b920161113d565b60408051601f198184030181529190529c506101f99b505050505050505050505050565b50505b505050505050505b5090919050565b6060600080838060200190518101906107649190610db2565b915091506000808351111561077a575060148201515b73ffffffffffffffffffffffffffffffffffffffff81166107ec5760405161dead906000906107ad908390602001610f46565b604051602081830303815290604052905080846040516020016107d1929190610fba565b604051602081830303815290604052955050505050506101f9565b50929392505050565b60008282018381101561086957604080517f08c379a000000000000000000000000000000000000000000000000000000000815260206004820152601b60248201527f536166654d6174683a206164646974696f6e206f766572666c6f770000000000604482015290519081900360640190fd5b90505b92915050565b61087a610ad0565b602082061561088f5760208206602003820191505b506020828101829052604080518085526000815290920101905290565b6108b4610ad0565b856020015182860111156108de576108de866108d68860200151888601610968565b60020261097f565b6000808751805188602083010193508089870111156108fd5788860182525b5050508484015b602084106109235780518252601f199093019260209182019101610904565b5181517fffffffffffffffffffffffffffffffffffffffffffffffffffffffffffffffff60208690036101000a01908116901991909116179052508495945050505050565b60008183111561097957508161086c565b50919050565b815161098b8383610872565b50610996838261099c565b50505050565b6109a4610ad0565b610869838460000151518485516109b9610ad0565b82518211156109c757600080fd5b846020015182850111156109e9576109e9856108d68760200151878601610968565b600080865180518760208301019350808887011115610a085787860182525b505050602084015b60208410610a2f5780518252601f199093019260209182019101610a10565b5181517fffffffffffffffffffffffffffffffffffffffffffffffffffffffffffffffff60208690036101000a019081169019919091161790525083949350505050565b6040805160608082018352600080835260208301529181019190915290565b6040805160e08101825260008082526020820181905291810182905260608082018390526080820181905260a082019290925260c081019190915290565b604051806040016040528060608152602001600081525090565b60008083601f840112610afb578081fd5b50813567ffffffffffffffff811115610b12578182fd5b6020830191508360208083028501011115610b2c57600080fd5b9250929050565b600082601f830112610b43578081fd5b8135610b56610b5182611203565b6111df565b818152846020838601011115610b6a578283fd5b816020850160208301379081016020019190915292915050565b600082601f830112610b94578081fd5b8151610ba2610b5182611203565b818152846020838601011115610bb6578283fd5b6101d582602083016020870161124d565b600060408284031215610bd8578081fd5b6040516040810181811067ffffffffffffffff82111715610bf557fe5b604052825181526020928301519281019290925250919050565b600060c08284031215610c20578081fd5b60405160c0810181811067ffffffffffffffff82111715610c3d57fe5b8060405250809150825181526020830151602082015260408301516040820152606083015160608201526080830151608082015260a083015160a08201525092915050565b60008060008060008060808789031215610c9a578182fd5b86359550602087013567ffffffffffffffff80821115610cb8578384fd5b610cc48a838b01610aea565b9097509550604089013594506060890135915080821115610ce3578384fd5b50610cf089828a01610aea565b979a9699509497509295939492505050565b60008060008060608587031215610d17578384fd5b84359350602085013567ffffffffffffffff80821115610d35578485fd5b818701915087601f830112610d48578485fd5b813581811115610d56578586fd5b886020828501011115610d67578586fd5b95986020929092019750949560400135945092505050565b600060208284031215610d90578081fd5b813567ffffffffffffffff811115610da6578182fd5b6101d584828501610b33565b60008060408385031215610dc4578182fd5b825167ffffffffffffffff811115610dda578283fd5b610de685828601610b84565b925050602083015190509250929050565b600080600060608486031215610e0b578283fd5b833567ffffffffffffffff811115610e21578384fd5b610e2d86828701610b33565b9660208601359650604090950135949350505050565b6000806000806000806000806101c0898b031215610e5f578182fd5b885160ff81168114610e6f578283fd5b80985050602089015196506040890151955060608901519450610e958a60808b01610bc7565b9350610ea48a60c08b01610c0f565b925061018089015167ffffffffffffffff80821115610ec1578384fd5b610ecd8c838d01610b84565b93506101a08b0151915080821115610ee3578283fd5b50610ef08b828c01610b84565b9150509295985092959890939650565b73ffffffffffffffffffffffffffffffffffffffff169052565b60008151808452610f3281602086016020860161124d565b601f01601f19169290920160200192915050565b60609190911b7fffffffffffffffffffffffffffffffffffffffff00000000000000000000000016815260140190565b6000828483379101908152919050565b73ffffffffffffffffffffffffffffffffffffffff91909116815260200190565b6000602082526108696020830184610f1a565b600060408252610fcd6040830185610f1a565b90508260208301529392505050565b60208082526023908201527f50726f6f664c69623a20696e76616c6964207472616e73616374696f6e20707260408201527f6f6f660000000000000000000000000000000000000000000000000000000000606082015260800190565b6020808252601e908201527f50726f6f664c69623a20696e76616c696420616464726573732073697a650000604082015260600190565b60006020825261ffff8084511660208401528060208501511660408401525067ffffffffffffffff604084015116606083015260608301516110b56080840182610f00565b50608083015160e060a08401526110d0610100840182610f1a565b905060a084015160c084015260c0840151601f198483030160e08501526110f78282610f1a565b95945050505050565b600060208252825160208301526020830151604083015260408301516060808401526101d56080840182610f1a565b60ff91909116815260200190565b60006101c060ff8b16835289602084015288604084015287606084015286516080840152602087015160a0840152855160c0840152602086015160e084015260408601516101008401526060860151610120840152608086015161014084015260a0860151610160840152806101808401526111bb81840186610f1a565b90508281036101a08401526111d08185610f1a565b9b9a5050505050505050505050565b60405181810167ffffffffffffffff811182821017156111fb57fe5b604052919050565b600067ffffffffffffffff82111561121757fe5b50601f01601f191660200190565b60008085851115611234578182fd5b83861115611240578182fd5b5050820193919092039150565b60005b83811015611268578181015183820152602001611250565b83811115610996575050600091015256fea26469706673582212200bc6632f15b3aab0b1a705a34639ab874b271ae5506d53b35dafc51882474b2b64736f6c63430007060033",
  "devdoc": {
    "kind": "dev",
    "methods": {},
    "version": 1
  },
  "userdoc": {
    "kind": "user",
    "methods": {},
    "version": 1
  },
  "storageLayout": {
    "storage": [
      {
        "astId": 20301,
        "contract": "contracts/proof/FPValidator.sol:FPValidator",
        "label": "proofType",
        "offset": 0,
        "slot": "0",
        "type": "t_uint8"
      },
      {
        "astId": 20304,
        "contract": "contracts/proof/FPValidator.sol:FPValidator",
        "label": "utilsVersion",
        "offset": 1,
        "slot": "0",
        "type": "t_uint8"
      }
    ],
    "types": {
      "t_uint8": {
        "encoding": "inplace",
        "label": "uint8",
        "numberOfBytes": "1"
      }
    }
  }
}