{
  "_format": "hh-sol-artifact-1",
  "contractName": "CounterI",
  "sourceName": "contracts/precrime/example/inherit/CounterI.sol",
  "abi": [
    {
      "inputs": [
        {
          "internalType": "uint16",
          "name": "_chainId",
          "type": "uint16"
        }
      ],
      "stateMutability": "nonpayable",
      "type": "constructor"
    },
    {
      "anonymous": false,
      "inputs": [
        {
          "indexed": false,
          "internalType": "uint16",
          "name": "srcChainId",
          "type": "uint16"
        }
      ],
      "name": "Receive",
      "type": "event"
    },
    {
      "anonymous": false,
      "inputs": [
        {
          "indexed": false,
          "internalType": "uint16",
          "name": "dstChainId",
          "type": "uint16"
        }
      ],
      "name": "Send",
      "type": "event"
    },
    {
      "inputs": [],
      "name": "CODE_MISS_SIMULATE_RESULT",
      "outputs": [
        {
          "internalType": "uint16",
          "name": "",
          "type": "uint16"
        }
      ],
      "stateMutability": "view",
      "type": "function"
    },
    {
      "inputs": [],
      "name": "CODE_PACKETS_OVERSIZE",
      "outputs": [
        {
          "internalType": "uint16",
          "name": "",
          "type": "uint16"
        }
      ],
      "stateMutability": "view",
      "type": "function"
    },
    {
      "inputs": [],
      "name": "CODE_PACKETS_UNSORTED",
      "outputs": [
        {
          "internalType": "uint16",
          "name": "",
          "type": "uint16"
        }
      ],
      "stateMutability": "view",
      "type": "function"
    },
    {
      "inputs": [],
      "name": "CODE_PRECRIME_FAILURE",
      "outputs": [
        {
          "internalType": "uint16",
          "name": "",
          "type": "uint16"
        }
      ],
      "stateMutability": "view",
      "type": "function"
    },
    {
      "inputs": [],
      "name": "CODE_SUCCESS",
      "outputs": [
        {
          "internalType": "uint16",
          "name": "",
          "type": "uint16"
        }
      ],
      "stateMutability": "view",
      "type": "function"
    },
    {
      "inputs": [],
      "name": "CONFIG_VERSION",
      "outputs": [
        {
          "internalType": "uint16",
          "name": "",
          "type": "uint16"
        }
      ],
      "stateMutability": "view",
      "type": "function"
    },
    {
      "inputs": [],
      "name": "PRECRIME_VERSION",
      "outputs": [
        {
          "internalType": "uint16",
          "name": "",
          "type": "uint16"
        }
      ],
      "stateMutability": "view",
      "type": "function"
    },
    {
      "inputs": [
        {
          "components": [
            {
              "internalType": "uint16",
              "name": "srcChainId",
              "type": "uint16"
            },
            {
              "internalType": "bytes32",
              "name": "srcAddress",
              "type": "bytes32"
            },
            {
              "internalType": "uint64",
              "name": "nonce",
              "type": "uint64"
            },
            {
              "internalType": "bytes",
              "name": "payload",
              "type": "bytes"
            }
          ],
          "internalType": "struct IPreCrimeBase.Packet[]",
          "name": "_packets",
          "type": "tuple[]"
        }
      ],
      "name": "_simulateAndRevert",
      "outputs": [],
      "stateMutability": "nonpayable",
      "type": "function"
    },
    {
      "inputs": [
        {
          "internalType": "uint16",
          "name": "_dstChainId",
          "type": "uint16"
        }
      ],
      "name": "brokeIncrement",
      "outputs": [],
      "stateMutability": "nonpayable",
      "type": "function"
    },
    {
      "inputs": [],
      "name": "brokeTotalCount",
      "outputs": [],
      "stateMutability": "nonpayable",
      "type": "function"
    },
    {
      "inputs": [],
      "name": "chainId",
      "outputs": [
        {
          "internalType": "uint16",
          "name": "",
          "type": "uint16"
        }
      ],
      "stateMutability": "view",
      "type": "function"
    },
    {
      "inputs": [
        {
          "components": [
            {
              "internalType": "uint16",
              "name": "srcChainId",
              "type": "uint16"
            },
            {
              "internalType": "bytes32",
              "name": "srcAddress",
              "type": "bytes32"
            },
            {
              "internalType": "uint64",
              "name": "nonce",
              "type": "uint64"
            },
            {
              "internalType": "bytes",
              "name": "payload",
              "type": "bytes"
            }
          ],
          "internalType": "struct IPreCrimeBase.Packet[]",
          "name": "_packets",
          "type": "tuple[]"
        }
      ],
      "name": "getConfig",
      "outputs": [
        {
          "internalType": "bytes",
          "name": "",
          "type": "bytes"
        }
      ],
      "stateMutability": "view",
      "type": "function"
    },
    {
      "inputs": [
        {
          "internalType": "uint16[]",
          "name": "peers",
          "type": "uint16[]"
        }
      ],
      "name": "getCountState",
      "outputs": [
        {
          "components": [
            {
              "internalType": "uint256",
              "name": "totalCount",
              "type": "uint256"
            },
            {
              "components": [
                {
                  "internalType": "uint16",
                  "name": "eid",
                  "type": "uint16"
                },
                {
                  "internalType": "uint256",
                  "name": "inboundCount",
                  "type": "uint256"
                },
                {
                  "internalType": "uint256",
                  "name": "outboundCount",
                  "type": "uint256"
                }
              ],
              "internalType": "struct CounterPrecrime.ChainPathCount[]",
              "name": "chainPathCounts",
              "type": "tuple[]"
            }
          ],
          "internalType": "struct CounterPrecrime.CountState",
          "name": "",
          "type": "tuple"
        }
      ],
      "stateMutability": "view",
      "type": "function"
    },
    {
      "inputs": [
        {
          "internalType": "uint32",
          "name": "_chainId",
          "type": "uint32"
        }
      ],
      "name": "getInboundNonce",
      "outputs": [
        {
          "internalType": "uint256",
          "name": "",
          "type": "uint256"
        }
      ],
      "stateMutability": "view",
      "type": "function"
    },
    {
      "inputs": [
        {
          "internalType": "uint32",
          "name": "",
          "type": "uint32"
        }
      ],
      "name": "inboundCount",
      "outputs": [
        {
          "internalType": "uint256",
          "name": "",
          "type": "uint256"
        }
      ],
      "stateMutability": "view",
      "type": "function"
    },
    {
      "inputs": [
        {
          "internalType": "uint16",
          "name": "_dstChainId",
          "type": "uint16"
        }
      ],
      "name": "increment",
      "outputs": [],
      "stateMutability": "nonpayable",
      "type": "function"
    },
    {
      "inputs": [],
      "name": "localChainId",
      "outputs": [
        {
          "internalType": "uint16",
          "name": "",
          "type": "uint16"
        }
      ],
      "stateMutability": "view",
      "type": "function"
    },
    {
      "inputs": [
        {
          "internalType": "uint16",
          "name": "_srcChainId",
          "type": "uint16"
        }
      ],
      "name": "lzReceive",
      "outputs": [],
      "stateMutability": "nonpayable",
      "type": "function"
    },
    {
      "inputs": [],
      "name": "maxBatchSize",
      "outputs": [
        {
          "internalType": "uint64",
          "name": "",
          "type": "uint64"
        }
      ],
      "stateMutability": "view",
      "type": "function"
    },
    {
      "inputs": [
        {
          "internalType": "uint32",
          "name": "",
          "type": "uint32"
        }
      ],
      "name": "outboundCount",
      "outputs": [
        {
          "internalType": "uint256",
          "name": "",
          "type": "uint256"
        }
      ],
      "stateMutability": "view",
      "type": "function"
    },
    {
      "inputs": [
        {
          "components": [
            {
              "internalType": "uint16",
              "name": "srcChainId",
              "type": "uint16"
            },
            {
              "internalType": "bytes32",
              "name": "srcAddress",
              "type": "bytes32"
            },
            {
              "internalType": "uint64",
              "name": "nonce",
              "type": "uint64"
            },
            {
              "internalType": "bytes",
              "name": "payload",
              "type": "bytes"
            }
          ],
          "internalType": "struct IPreCrimeBase.Packet[]",
          "name": "_packets",
          "type": "tuple[]"
        },
        {
          "internalType": "bytes[]",
          "name": "_simulation",
          "type": "bytes[]"
        }
      ],
      "name": "precrime",
      "outputs": [
        {
          "internalType": "uint16",
          "name": "code",
          "type": "uint16"
        },
        {
          "internalType": "bytes",
          "name": "reason",
          "type": "bytes"
        }
      ],
      "stateMutability": "view",
      "type": "function"
    },
    {
      "inputs": [],
      "name": "precrimeAdmin",
      "outputs": [
        {
          "internalType": "address",
          "name": "",
          "type": "address"
        }
      ],
      "stateMutability": "view",
      "type": "function"
    },
    {
      "inputs": [
        {
          "internalType": "uint256",
          "name": "",
          "type": "uint256"
        }
      ],
      "name": "remoteChainIds",
      "outputs": [
        {
          "internalType": "uint16",
          "name": "",
          "type": "uint16"
        }
      ],
      "stateMutability": "view",
      "type": "function"
    },
    {
      "inputs": [
        {
          "internalType": "uint256",
          "name": "",
          "type": "uint256"
        }
      ],
      "name": "remotePrecrimeAddresses",
      "outputs": [
        {
          "internalType": "bytes32",
          "name": "",
          "type": "bytes32"
        }
      ],
      "stateMutability": "view",
      "type": "function"
    },
    {
      "inputs": [
        {
          "internalType": "uint64",
          "name": "_maxBatchSize",
          "type": "uint64"
        }
      ],
      "name": "setMaxBatchSize",
      "outputs": [],
      "stateMutability": "nonpayable",
      "type": "function"
    },
    {
      "inputs": [
        {
          "internalType": "address",
          "name": "_precrimeAdmin",
          "type": "address"
        }
      ],
      "name": "setPrecrimeAdmin",
      "outputs": [],
      "stateMutability": "nonpayable",
      "type": "function"
    },
    {
      "inputs": [
        {
          "internalType": "uint16[]",
          "name": "_remoteChainIds",
          "type": "uint16[]"
        },
        {
          "internalType": "bytes32[]",
          "name": "_remotePrecrimeAddresses",
          "type": "bytes32[]"
        }
      ],
      "name": "setRemotePrecrimeAddresses",
      "outputs": [],
      "stateMutability": "nonpayable",
      "type": "function"
    },
    {
      "inputs": [
        {
          "components": [
            {
              "internalType": "uint16",
              "name": "srcChainId",
              "type": "uint16"
            },
            {
              "internalType": "bytes32",
              "name": "srcAddress",
              "type": "bytes32"
            },
            {
              "internalType": "uint64",
              "name": "nonce",
              "type": "uint64"
            },
            {
              "internalType": "bytes",
              "name": "payload",
              "type": "bytes"
            }
          ],
          "internalType": "struct IPreCrimeBase.Packet[]",
          "name": "_packets",
          "type": "tuple[]"
        }
      ],
      "name": "simulate",
      "outputs": [
        {
          "internalType": "uint16",
          "name": "code",
          "type": "uint16"
        },
        {
          "internalType": "bytes",
          "name": "data",
          "type": "bytes"
        }
      ],
      "stateMutability": "nonpayable",
      "type": "function"
    },
    {
      "inputs": [],
      "name": "totalCount",
      "outputs": [
        {
          "internalType": "uint256",
          "name": "",
          "type": "uint256"
        }
      ],
      "stateMutability": "view",
      "type": "function"
    },
    {
      "inputs": [],
      "name": "version",
      "outputs": [
        {
          "internalType": "uint16",
          "name": "",
          "type": "uint16"
        }
      ],
      "stateMutability": "pure",
      "type": "function"
    }
  ],
  "bytecode": "0x60a06040523480156200001157600080fd5b50604051620028da380380620028da833981016040819052620000349162000092565b60f081901b6001600160f01b03191660805260008054600a600160401b600160e01b0319909116336801000000000000000002176001600160401b0319161790556006805461ffff90921661ffff19909216919091179055620000bd565b600060208284031215620000a4578081fd5b815161ffff81168114620000b6578182fd5b9392505050565b60805160f01c6127e6620000f4600039806105855280610c895280610d295280611183528061167f52806116f752506127e66000f3fe608060405234801561001057600080fd5b50600436106101da5760003560e01c8063622f17f611610104578063bb968368116100a2578063e9dc2d7611610071578063e9dc2d761461038f578063ec67df30146103a2578063f0099e2a146103c3578063f95d1404146103d6576101da565b8063bb96836814610359578063c6be4b9b1461036c578063c892b2fc14610374578063d5795de41461037c576101da565b80639a8a0592116100de5780639a8a05921461030b5780639eb51f5b14610313578063ab2b35ec14610326578063afea44ef14610346576101da565b8063622f17f6146102c557806392d99a7f146102d85780639590dc9d146102eb576101da565b806334e300971161017c5780634e0ab1ab1161014b5780634e0ab1ab1461028f57806354fd4d50146102a257806356a47289146102aa5780635b056da5146102bd576101da565b806334e300971461025f57806334eafb111461026757806337de4ba11461027c578063472641c11461025f576101da565b806317c9efb0116101b857806317c9efb01461021a5780632913daa01461022257806329e7504d146102375780632ce909c61461024a576101da565b80630638fb64146101df5780630e735a63146101fd57806316fb432514610205575b600080fd5b6101e76103de565b6040516101f49190612567565b60405180910390f35b6101e76103e3565b610218610213366004611ee3565b6103e8565b005b6101e7610422565b61022a610427565b6040516101f49190612593565b610218610245366004611ee3565b610437565b61025261048d565b6040516101f4919061228c565b6101e76104b5565b61026f6104ba565b6040516101f491906123e7565b61021861028a366004611bdd565b6104c0565b61026f61029d366004611fd6565b61054a565b6101e761056b565b61026f6102b8366004611fee565b610571565b6101e7610583565b61026f6102d3366004611fee565b6105a7565b6102186102e6366004611ba2565b6105b9565b6102fe6102f9366004611bdd565b610672565b6040516101f491906123f0565b6101e76106ca565b6101e7610321366004611fd6565b6106d4565b610339610334366004611c86565b61070c565b6040516101f4919061252b565b610218610354366004612012565b61080a565b610218610367366004611cc1565b6108a2565b6101e7610966565b61021861096b565b61021861038a366004611ee3565b610976565b61026f61039d366004611fee565b6109c0565b6103b56103b0366004611c1d565b6109d8565b6040516101f4929190612576565b6103b56103d1366004611bdd565b610b2f565b6101e7610cd6565b600281565b600381565b7fcb0b88af7634dddeb013597e4fe3c505cc18eb1ba8a4f866b2116a8e7c03bc3f816040516104179190612567565b60405180910390a150565b600081565b60005467ffffffffffffffff1681565b61ffff81166000908152600460205260409081902080546001908101909155600380549091019055517f1a60eb2fda5707f4f6d9c8ff94ff294beddf56ed57f62a58fecb430cf4e7341690610417908390612567565b60005468010000000000000000900473ffffffffffffffffffffffffffffffffffffffff1681565b600181565b60035481565b3330146104cc57600080fd5b6000806104d98484610cdc565b9150915060007f3ef05302deb6e14f33ae2b21afd103358bb2c6820565d5bae8d19d738bce07d18383604051602001610513929190612576565b60408051601f198184030181529082905261053192916020016120ed565b6040516020818303038152906040529050805160208201fd5b6002818154811061055a57600080fd5b600091825260209091200154905081565b614e2190565b60046020526000908152604090205481565b7f000000000000000000000000000000000000000000000000000000000000000081565b60056020526000908152604090205481565b60005468010000000000000000900473ffffffffffffffffffffffffffffffffffffffff16331461061f576040517f08c379a000000000000000000000000000000000000000000000000000000000815260040161061690612460565b60405180910390fd5b6000805473ffffffffffffffffffffffffffffffffffffffff90921668010000000000000000027fffffffff0000000000000000000000000000000000000000ffffffffffffffff909216919091179055565b60606000806106818585610e01565b60005482516040519395509193506106b09260019267ffffffffffffffff9092169190869086906020016121cc565b604051602081830303815290604052925050505b92915050565b60065461ffff1681565b600181815481106106e457600080fd5b9060005260206000209060109182820401919006600202915054906101000a900461ffff1681565b61071461189d565b6000825167ffffffffffffffff8111801561072e57600080fd5b5060405190808252806020026020018201604052801561076857816020015b6107556118b7565b81526020019060019003908161074d5790505b50905060005b83518110156107ea57600084828151811061078557fe5b6020908102919091018101516040805160608101825261ffff83168082526000818152600486528381205483870152908152600590945292819020549083015284519092508490849081106107d657fe5b60209081029190910101525060010161076e565b50604080518082019091526003548152602081019190915290505b919050565b60005468010000000000000000900473ffffffffffffffffffffffffffffffffffffffff163314610867576040517f08c379a000000000000000000000000000000000000000000000000000000000815260040161061690612460565b600080547fffffffffffffffffffffffffffffffffffffffffffffffff00000000000000001667ffffffffffffffff92909216919091179055565b60005468010000000000000000900473ffffffffffffffffffffffffffffffffffffffff1633146108ff576040517f08c379a000000000000000000000000000000000000000000000000000000000815260040161061690612460565b805182511461093a576040517f08c379a0000000000000000000000000000000000000000000000000000000008152600401610616906124f4565b815161094d9060019060208501906118dc565b508051610961906002906020840190611985565b505050565b600481565b600380546001019055565b61ffff81166000908152600560205260409081902080546001019055517fcb0b88af7634dddeb013597e4fe3c505cc18eb1ba8a4f866b2116a8e7c03bc3f90610417908390612567565b63ffffffff1660009081526004602052604090205490565b60006060818367ffffffffffffffff811180156109f457600080fd5b50604051908082528060200260200182016040528015610a2857816020015b6060815260200190600190039081610a135790505b50905060008467ffffffffffffffff81118015610a4457600080fd5b50604051908082528060200260200182016040528015610a6e578160200160208202803683370190505b50905060005b85811015610af357600080888884818110610a8b57fe5b9050602002810190610a9d91906125a8565b810190610aaa9190611eff565b9150915081848481518110610abb57fe5b602002602001019061ffff16908161ffff168152505080858481518110610ade57fe5b60209081029190910101525050600101610a74565b50610aff8888836110a5565b909450925061ffff841615610b15575050610b26565b610b1e82611237565b909450925050505b94509492505050565b60006060610b3d848461130d565b909250905061ffff821615610b5157610ccf565b6000803073ffffffffffffffffffffffffffffffffffffffff166337de4ba160e01b8787604051602401610b869291906122ad565b60408051601f198184030181529181526020820180517bffffffffffffffffffffffffffffffffffffffffffffffffffffffff167fffffffff00000000000000000000000000000000000000000000000000000000909416939093179092529051610bf19190612135565b6000604051808303816000865af19150503d8060008114610c2e576040519150601f19603f3d011682016040523d82523d6000602084013e610c33565b606091505b50915091508115610c70576040517f08c379a000000000000000000000000000000000000000000000000000000000815260040161061690612403565b610c798161149f565b909450925061ffff8416610ccc577f000000000000000000000000000000000000000000000000000000000000000083604051602001610cba929190612576565b60405160208183030381529060405292505b50505b9250929050565b614e2181565b6000606060005b83811015610d1957610d11858583818110610cfa57fe5b9050602002810190610d0c919061260b565b61151f565b600101610ce3565b50600060405180604001604052807f000000000000000000000000000000000000000000000000000000000000000061ffff168152602001610dd26001805480602002602001604051908101604052809291908181526020018280548015610dc857602002820191906000526020600020906000905b82829054906101000a900461ffff1661ffff1681526020019060020190602082600101049283019260010382029150808411610d8f5790505b505050505061070c565b9052604051610de4919060200161253e565b60408051808303601f190181529190526000969095509350505050565b60608082610ee2576001600281805480602002602001604051908101604052809291908181526020018280548015610e8057602002820191906000526020600020906000905b82829054906101000a900461ffff1661ffff1681526020019060020190602082600101049283019260010382029150808411610e475790505b5050505050915080805480602002602001604051908101604052809291908181526020018280548015610ed257602002820191906000526020600020905b815481526020019060010190808311610ebe575b5050505050905091509150610ccf565b6000610ef6610ef185876126a2565b611532565b905061ffff81161561109d578061ffff1667ffffffffffffffff81118015610f1d57600080fd5b50604051908082528060200260200182016040528015610f47578160200160208202803683370190505b50925060008161ffff1667ffffffffffffffff81118015610f6757600080fd5b50604051908082528060200260200182016040528015610f91578160200160208202803683370190505b50925060005b60015461ffff8216101561109a5760005b61ffff811687111561109157600088888361ffff16818110610fc657fe5b9050602002810190610fd8919061260b565b610fe6906020810190611ee3565b90508061ffff1660018461ffff1681548110610ffe57fe5b60009182526020909120601082040154600f9091166002026101000a900461ffff161415611088578087858151811061103357fe5b602002602001019061ffff16908161ffff168152505060028361ffff168154811061105a57fe5b906000526020600020015486858151811061107157fe5b602090810291909101015250600190920191611091565b50600101610fa8565b50600101610f97565b50505b509250929050565b6000606083156111745760006110bb8686610e01565b50905060005b8151811015611171576000805b865181101561111e578383815181106110e357fe5b602002602001015161ffff168782815181106110fb57fe5b602002602001015161ffff161415611116576001915061111e565b6001016110ce565b50806111685760046040518060400160405280602081526020017f6d697373696e672072656d6f74652073696d756c6174696f6e20726573756c748152509450945050505061122f565b506001016110c1565b50505b6000805b84518110156111d5577f000000000000000000000000000000000000000000000000000000000000000061ffff168582815181106111b257fe5b602002602001015161ffff1614156111cd57600191506111d5565b600101611178565b508061121a57505060408051808201909152601f81527f6d697373696e67206c6f63616c2073696d756c6174696f6e20726573756c740060208201526004915061122f565b50506040805160208101909152600080825291505b935093915050565b60006060600080611247856115cf565b915091506000805b836020015160200151518110156112c8576000846020015160200151828151811061127657fe5b6020026020010151905060006112908583600001516116ea565b905061129c82826117e6565b909850965061ffff8816156112b657505050505050611308565b6040015192909201915060010161124f565b506112d7836020015182611852565b909550935061ffff8516156112ee57505050611308565b600060405180602001604052806000815250945094505050505b915091565b6000805460609067ffffffffffffffff1683111561134e57600260405160200161133690612151565b60405160208183030381529060405291509150610ccf565b82156114855760008080805b8681101561148057600088888381811061137057fe5b9050602002810190611382919061260b565b61138b906126f0565b90508461ffff16816000015161ffff161415806113ac575083816020015114155b15611424578051602082015160408301519196509450925060006113cf82611886565b60010190508067ffffffffffffffff168467ffffffffffffffff161461141e5760036040516020016114009061217a565b60405160208183030381529060405297509750505050505050610ccf565b50611477565b8260010192508267ffffffffffffffff16816040015167ffffffffffffffff161461147757600360405160200161145a906121a3565b604051602081830303815290604052965096505050505050610ccf565b5060010161135a565b505050505b505060408051602081019091526000808252909250929050565b60208101516000906060907fffffffff0000000000000000000000000000000000000000000000000000000081167f3ef0530200000000000000000000000000000000000000000000000000000000146114fb57835160208501fd5b600484019350838060200190518101906115159190611f4d565b9250925050915091565b61152f6102456020830183611ee3565b50565b6000805b60015461ffff821610156115c95760005b83518161ffff1610156115c057838161ffff168151811061156457fe5b60200260200101516000015161ffff1660018361ffff168154811061158557fe5b60009182526020909120601082040154600f9091166002026101000a900461ffff1614156115b8576001909201916115c0565b600101611547565b50600101611536565b50919050565b6115d76119c0565b6060825167ffffffffffffffff811180156115f157600080fd5b5060405190808252806020026020018201604052801561162b57816020015b6116186119c0565b8152602001906001900390816116105790505b50905060005b83518110156116e457600084828151811061164857fe5b60200260200101519050808060200190518101906116669190611d7a565b83838151811061167257fe5b60200260200101819052507f000000000000000000000000000000000000000000000000000000000000000061ffff168383815181106116ae57fe5b60200260200101516000015161ffff1614156116db578282815181106116d057fe5b602002602001015193505b50600101611631565b50915091565b6116f26118b7565b61ffff7f00000000000000000000000000000000000000000000000000000000000000001660005b84518110156117b357600085828151811061173157fe5b602002602001015190508461ffff16816000015161ffff1614156117aa5760005b816020015160200151518110156117a8576000826020015160200151828151811061177957fe5b6020026020010151905084816000015161ffff16141561179f5794506106c49350505050565b50600101611752565b505b5060010161171a565b506040517f08c379a000000000000000000000000000000000000000000000000000000000815260040161061690612497565b6000606082604001518460200151111561181e57600160405180606001604052806026815260200161278b6026913991509150610ccf565b82602001518460400151111561148557600160405180606001604052806026815260200161273d6026913991509150610ccf565b600060608284600001511115610ccf5760016040518060600160405280602881526020016127636028913991509150610ccf565b5161ffff1660009081526004602052604090205490565b604051806040016040528060008152602001606081525090565b6040518060600160405280600061ffff16815260200160008152602001600081525090565b82805482825590600052602060002090600f016010900481019282156119755791602002820160005b8382111561194557835183826101000a81548161ffff021916908361ffff1602179055509260200192600201602081600101049283019260010302611905565b80156119735782816101000a81549061ffff0219169055600201602081600101049283019260010302611945565b505b506119819291506119e3565b5090565b828054828255906000526020600020908101928215611975579160200282015b828111156119755782518255916020019190600101906119a5565b6040518060400160405280600061ffff1681526020016119de61189d565b905290565b5b8082111561198157600081556001016119e4565b60008083601f840112611a09578182fd5b50813567ffffffffffffffff811115611a20578182fd5b6020830191508360208083028501011115610ccf57600080fd5b600082601f830112611a4a578081fd5b81356020611a5f611a5a83612662565b61263e565b8281528181019085830183850287018401881015611a7b578586fd5b855b85811015611aa2578135611a908161272c565b84529284019290840190600101611a7d565b5090979650505050505050565b600082601f830112611abf578081fd5b8135611acd611a5a82612680565b818152846020838601011115611ae1578283fd5b816020850160208301379081016020019190915292915050565b600060808284031215611b0c578081fd5b6040516080810167ffffffffffffffff8282108183111715611b2a57fe5b8160405282935084359150611b3e8261272c565b81835260208501356020840152611b5760408601611b8a565b60408401526060850135915080821115611b7057600080fd5b50611b7d85828601611aaf565b6060830152505092915050565b803567ffffffffffffffff8116811461080557600080fd5b600060208284031215611bb3578081fd5b813573ffffffffffffffffffffffffffffffffffffffff81168114611bd6578182fd5b9392505050565b60008060208385031215611bef578081fd5b823567ffffffffffffffff811115611c05578182fd5b611c11858286016119f8565b90969095509350505050565b60008060008060408587031215611c32578182fd5b843567ffffffffffffffff80821115611c49578384fd5b611c55888389016119f8565b90965094506020870135915080821115611c6d578384fd5b50611c7a878288016119f8565b95989497509550505050565b600060208284031215611c97578081fd5b813567ffffffffffffffff811115611cad578182fd5b611cb984828501611a3a565b949350505050565b60008060408385031215611cd3578182fd5b823567ffffffffffffffff80821115611cea578384fd5b611cf686838701611a3a565b9350602091508185013581811115611d0c578384fd5b85019050601f81018613611d1e578283fd5b8035611d2c611a5a82612662565b81815283810190838501858402850186018a1015611d48578687fd5b8694505b83851015611d6a578035835260019490940193918501918501611d4c565b5080955050505050509250929050565b60006020808385031215611d8c578182fd5b825167ffffffffffffffff80821115611da3578384fd5b81850191506040808388031215611db8578485fd5b80518181018181108482111715611dcb57fe5b82528351611dd88161272c565b81528385015183811115611dea578687fd5b808501945050818489031215611dfe578586fd5b81518281018181108582111715611e1157fe5b8352845181528585015184811115611e27578788fd5b80860195505088601f860112611e3b578687fd5b8451611e49611a5a82612662565b8181528781019087890160608085028a018b018e1015611e67578b8cfd5b8b99505b848a1015611ec95780828f031215611e81578b8cfd5b87518181018181108b82111715611e9457fe5b89528251611ea18161272c565b8152828c01518c8201528883015189820152845260019990990198928a019290810190611e6b565b505083890152505094810194909452509195945050505050565b600060208284031215611ef4578081fd5b8135611bd68161272c565b60008060408385031215611f11578182fd5b8235611f1c8161272c565b9150602083013567ffffffffffffffff811115611f37578182fd5b611f4385828601611aaf565b9150509250929050565b60008060408385031215611f5f578182fd5b8251611f6a8161272c565b602084015190925067ffffffffffffffff811115611f86578182fd5b8301601f81018513611f96578182fd5b8051611fa4611a5a82612680565b818152866020838501011115611fb8578384fd5b611fc98260208301602086016126fc565b8093505050509250929050565b600060208284031215611fe7578081fd5b5035919050565b600060208284031215611fff578081fd5b813563ffffffff81168114611bd6578182fd5b600060208284031215612023578081fd5b611bd682611b8a565b60008284528282602086013780602084860101526020601f19601f85011685010190509392505050565b6000815180845261206e8160208601602086016126fc565b601f01601f19169290920160200192915050565b600060408084018351855260208085015183828801528281518085526060945084890191508383019250865b818110156120df578351805161ffff16845285810151868501528701518784015292840192918501916001016120ae565b509098975050505050505050565b60007fffffffff000000000000000000000000000000000000000000000000000000008416825282516121278160048501602087016126fc565b919091016004019392505050565b600082516121478184602087016126fc565b9190910192915050565b7f7061636b6574732073697a6520657863656564206c696d6974656400000000008152601b0190565b7f736b697070656420696e626f756e644e6f6e636520666f7262696464656e00008152601e0190565b7f756e736f72746564207061636b65747300000000000000000000000000000000815260100190565b60007fffff0000000000000000000000000000000000000000000000000000000000008760f01b1682527fffffffffffffffff0000000000000000000000000000000000000000000000008660c01b16600283015284600a830152602a820184516020808701845b8381101561225457815161ffff1685529382019390820190600101612234565b50508551818701939250845b8181101561227c57845184529382019392820192600101612260565b50919a9950505050505050505050565b73ffffffffffffffffffffffffffffffffffffffff91909116815260200190565b602080825281810183905260009060408084018583028501820187855b888110156120df577fffffffffffffffffffffffffffffffffffffffffffffffffffffffffffffffc088840301845281357fffffffffffffffffffffffffffffffffffffffffffffffffffffffffffffff818b360301811261232a578788fd5b8a01608081356123398161272c565b61ffff1685528188013588860152612352878301611b8a565b67ffffffffffffffff8082168988015260609150818401357fffffffffffffffffffffffffffffffffffffffffffffffffffffffffffffffe1853603018112612399578b8cfd5b84018035828111156123a9578c8dfd5b8036038613156123b7578c8dfd5b84848a01526123cb858a01828e850161202c565b998c0199985050509489019450505060019190910190506122ca565b90815260200190565b600060208252611bd66020830184612056565b60208082526024908201527f73696d756c6174652073686f756c64206e657665722072657475726e2073756360408201527f6365737300000000000000000000000000000000000000000000000000000000606082015260800190565b6020808252600a908201527f6f6e6c792061646d696e00000000000000000000000000000000000000000000604082015260600190565b6020808252603d908201527f5072656372696d653a20636f756e745374617465206e6f7420666f756e642c2060408201527f61726520796f75206d697373696e6720612073696d756c6174696f6e3f000000606082015260800190565b60208082526016908201527f5072656372696d653a20696e76616c69642073697a6500000000000000000000604082015260600190565b600060208252611bd66020830184612082565b60006020825261ffff83511660208301526020830151604080840152611cb96060840182612082565b61ffff91909116815260200190565b600061ffff8416825260406020830152611cb96040830184612056565b67ffffffffffffffff91909116815260200190565b60008083357fffffffffffffffffffffffffffffffffffffffffffffffffffffffffffffffe18436030181126125dc578283fd5b83018035915067ffffffffffffffff8211156125f6578283fd5b602001915036819003821315610ccf57600080fd5b600082357fffffffffffffffffffffffffffffffffffffffffffffffffffffffffffffff81833603018112612147578182fd5b60405181810167ffffffffffffffff8111828210171561265a57fe5b604052919050565b600067ffffffffffffffff82111561267657fe5b5060209081020190565b600067ffffffffffffffff82111561269457fe5b50601f01601f191660200190565b60006126b0611a5a84612662565b8381526020808201919084845b878110156126e4576126d23683358901611afb565b855293820193908201906001016126bd565b50919695505050505050565b60006106c43683611afb565b60005b838110156127175781810151838201526020016126ff565b83811115612726576000848401525b50505050565b61ffff8116811461152f57600080fdfe5072656372696d653a206f7574626f756e64436f756e74203e20696e626f756e64436f756e745072656372696d653a20746f74616c436f756e74203e2073756d206f7574626f756e64436f756e745072656372696d653a20696e626f756e64436f756e74203e206f7574626f756e64436f756e74a26469706673582212202c9c9ff37abde3d3d5bc2a6c39197678998a4e2a1c314b48fd841c2c50e4d3c064736f6c63430007060033",
  "linkReferences": {},
  "deployedLinkReferences": {}
}