{
  "address": "0xdf47CD0618f2280e025AfDdd5cC0aB9987279355",
  "abi": [
    {
      "inputs": [
        {
          "internalType": "address",
          "name": "addr",
          "type": "address"
        }
      ],
      "name": "isAddressContract",
      "outputs": [
        {
          "internalType": "bool",
          "name": "",
          "type": "bool"
        }
      ],
      "stateMutability": "view",
      "type": "function"
    }
  ],
  "transactionHash": "0xd8b4643c5f9edfa688ab3738a870476f77e788465ee550eda9a8089b354d400c",
  "args": [],
  "numDeployments": 1,
  "solcInputHash": "6aa4c5c759cc9c5cedb50cf12cec1892",
  "bytecode": "0x608060405234801561001057600080fd5b5060ad8061001f6000396000f3fe6080604052348015600f57600080fd5b506004361060285760003560e01c8063b5f9dc9114602d575b600080fd5b605d60048036036020811015604157600080fd5b503573ffffffffffffffffffffffffffffffffffffffff166071565b604080519115158252519081900360200190f35b3b15159056fea2646970667358221220299b79343b119aec70a1bd02160ef1eeea823c6fcb470820b899f1797ef4451364736f6c63430007060033",
  "devdoc": {
    "kind": "dev",
    "methods": {},
    "version": 1
  },
  "userdoc": {
    "kind": "user",
    "methods": {},
    "version": 1
  },
  "storageLayout": {
    "storage": [],
    "types": null
  }
}