{
  "address": "0xBAfC2d28F386FC632D089a521976C9C078fff96b",
  "abi": [
    {
      "anonymous": false,
      "inputs": [
        {
          "indexed": false,
          "internalType": "address",
          "name": "addr",
          "type": "address"
        },
        {
          "indexed": false,
          "internalType": "bool",
          "name": "approved",
          "type": "bool"
        }
      ],
      "name": "ApproveAddress",
      "type": "event"
    },
    {
      "anonymous": false,
      "inputs": [
        {
          "indexed": false,
          "internalType": "uint256",
          "name": "totalFee",
          "type": "uint256"
        }
      ],
      "name": "AssignJob",
      "type": "event"
    },
    {
      "anonymous": false,
      "inputs": [
        {
          "indexed": true,
          "internalType": "address",
          "name": "previousOwner",
          "type": "address"
        },
        {
          "indexed": true,
          "internalType": "address",
          "name": "newOwner",
          "type": "address"
        }
      ],
      "name": "OwnershipTransferred",
      "type": "event"
    },
    {
      "anonymous": false,
      "inputs": [
        {
          "indexed": false,
          "internalType": "uint16",
          "name": "chainId",
          "type": "uint16"
        },
        {
          "indexed": false,
          "internalType": "uint16",
          "name": "outboundProofType",
          "type": "uint16"
        },
        {
          "indexed": false,
          "internalType": "uint128",
          "name": "dstNativeAmtCap",
          "type": "uint128"
        },
        {
          "indexed": false,
          "internalType": "uint64",
          "name": "baseGas",
          "type": "uint64"
        },
        {
          "indexed": false,
          "internalType": "uint64",
          "name": "gasPerByte",
          "type": "uint64"
        }
      ],
      "name": "SetDstConfig",
      "type": "event"
    },
    {
      "anonymous": false,
      "inputs": [
        {
          "indexed": false,
          "internalType": "uint16",
          "name": "chainId",
          "type": "uint16"
        },
        {
          "indexed": false,
          "internalType": "uint128",
          "name": "dstPriceRatio",
          "type": "uint128"
        },
        {
          "indexed": false,
          "internalType": "uint128",
          "name": "dstGasPriceInWei",
          "type": "uint128"
        }
      ],
      "name": "SetDstPrice",
      "type": "event"
    },
    {
      "anonymous": false,
      "inputs": [
        {
          "indexed": false,
          "internalType": "address",
          "name": "priceConfigUpdater",
          "type": "address"
        },
        {
          "indexed": false,
          "internalType": "bool",
          "name": "allow",
          "type": "bool"
        }
      ],
      "name": "SetPriceConfigUpdater",
      "type": "event"
    },
    {
      "anonymous": false,
      "inputs": [
        {
          "indexed": true,
          "internalType": "address",
          "name": "to",
          "type": "address"
        },
        {
          "indexed": true,
          "internalType": "uint256",
          "name": "quantity",
          "type": "uint256"
        }
      ],
      "name": "ValueTransferFailed",
      "type": "event"
    },
    {
      "anonymous": false,
      "inputs": [
        {
          "indexed": false,
          "internalType": "address",
          "name": "to",
          "type": "address"
        },
        {
          "indexed": false,
          "internalType": "uint256",
          "name": "amount",
          "type": "uint256"
        }
      ],
      "name": "Withdraw",
      "type": "event"
    },
    {
      "inputs": [
        {
          "internalType": "address",
          "name": "",
          "type": "address"
        }
      ],
      "name": "approvedAddresses",
      "outputs": [
        {
          "internalType": "bool",
          "name": "",
          "type": "bool"
        }
      ],
      "stateMutability": "view",
      "type": "function"
    },
    {
      "inputs": [
        {
          "internalType": "uint16",
          "name": "_dstChainId",
          "type": "uint16"
        },
        {
          "internalType": "uint16",
          "name": "_outboundProofType",
          "type": "uint16"
        },
        {
          "internalType": "address",
          "name": "_userApplication",
          "type": "address"
        },
        {
          "internalType": "uint256",
          "name": "_payloadSize",
          "type": "uint256"
        },
        {
          "internalType": "bytes",
          "name": "_adapterParams",
          "type": "bytes"
        }
      ],
      "name": "assignJob",
      "outputs": [
        {
          "internalType": "uint256",
          "name": "",
          "type": "uint256"
        }
      ],
      "stateMutability": "nonpayable",
      "type": "function"
    },
    {
      "inputs": [
        {
          "internalType": "uint16",
          "name": "",
          "type": "uint16"
        },
        {
          "internalType": "uint16",
          "name": "",
          "type": "uint16"
        }
      ],
      "name": "dstConfigLookup",
      "outputs": [
        {
          "internalType": "uint128",
          "name": "dstNativeAmtCap",
          "type": "uint128"
        },
        {
          "internalType": "uint64",
          "name": "baseGas",
          "type": "uint64"
        },
        {
          "internalType": "uint64",
          "name": "gasPerByte",
          "type": "uint64"
        }
      ],
      "stateMutability": "view",
      "type": "function"
    },
    {
      "inputs": [
        {
          "internalType": "uint16",
          "name": "",
          "type": "uint16"
        }
      ],
      "name": "dstFloorMarginsUSD",
      "outputs": [
        {
          "internalType": "uint128",
          "name": "",
          "type": "uint128"
        }
      ],
      "stateMutability": "view",
      "type": "function"
    },
    {
      "inputs": [
        {
          "internalType": "uint16",
          "name": "",
          "type": "uint16"
        }
      ],
      "name": "dstMultipliers",
      "outputs": [
        {
          "internalType": "uint128",
          "name": "",
          "type": "uint128"
        }
      ],
      "stateMutability": "view",
      "type": "function"
    },
    {
      "inputs": [
        {
          "internalType": "uint16",
          "name": "_dstChainId",
          "type": "uint16"
        }
      ],
      "name": "dstPriceLookup",
      "outputs": [
        {
          "components": [
            {
              "internalType": "uint128",
              "name": "dstPriceRatio",
              "type": "uint128"
            },
            {
              "internalType": "uint128",
              "name": "dstGasPriceInWei",
              "type": "uint128"
            }
          ],
          "internalType": "struct RelayerV2.DstPrice",
          "name": "",
          "type": "tuple"
        }
      ],
      "stateMutability": "view",
      "type": "function"
    },
    {
      "inputs": [
        {
          "internalType": "uint16",
          "name": "",
          "type": "uint16"
        }
      ],
      "name": "dstPriceLookupOld",
      "outputs": [
        {
          "internalType": "uint128",
          "name": "dstPriceRatio",
          "type": "uint128"
        },
        {
          "internalType": "uint128",
          "name": "dstGasPriceInWei",
          "type": "uint128"
        }
      ],
      "stateMutability": "view",
      "type": "function"
    },
    {
      "inputs": [],
      "name": "fpBytes",
      "outputs": [
        {
          "internalType": "uint16",
          "name": "",
          "type": "uint16"
        }
      ],
      "stateMutability": "view",
      "type": "function"
    },
    {
      "inputs": [
        {
          "internalType": "uint16",
          "name": "_dstChainId",
          "type": "uint16"
        },
        {
          "internalType": "uint16",
          "name": "_outboundProofType",
          "type": "uint16"
        },
        {
          "internalType": "address",
          "name": "_userApplication",
          "type": "address"
        },
        {
          "internalType": "uint256",
          "name": "_payloadSize",
          "type": "uint256"
        },
        {
          "internalType": "bytes",
          "name": "_adapterParams",
          "type": "bytes"
        }
      ],
      "name": "getFee",
      "outputs": [
        {
          "internalType": "uint256",
          "name": "",
          "type": "uint256"
        }
      ],
      "stateMutability": "view",
      "type": "function"
    },
    {
      "inputs": [
        {
          "internalType": "address",
          "name": "_uln",
          "type": "address"
        },
        {
          "internalType": "address",
          "name": "_priceFeed",
          "type": "address"
        }
      ],
      "name": "initialize",
      "outputs": [],
      "stateMutability": "nonpayable",
      "type": "function"
    },
    {
      "inputs": [
        {
          "internalType": "address",
          "name": "_relayerAddress",
          "type": "address"
        }
      ],
      "name": "isApproved",
      "outputs": [
        {
          "internalType": "bool",
          "name": "",
          "type": "bool"
        }
      ],
      "stateMutability": "view",
      "type": "function"
    },
    {
      "inputs": [],
      "name": "mptOverhead",
      "outputs": [
        {
          "internalType": "uint16",
          "name": "",
          "type": "uint16"
        }
      ],
      "stateMutability": "view",
      "type": "function"
    },
    {
      "inputs": [],
      "name": "multiplierBps",
      "outputs": [
        {
          "internalType": "uint128",
          "name": "",
          "type": "uint128"
        }
      ],
      "stateMutability": "view",
      "type": "function"
    },
    {
      "inputs": [
        {
          "internalType": "address",
          "name": "_priceFeed",
          "type": "address"
        }
      ],
      "name": "onUpgrade",
      "outputs": [],
      "stateMutability": "nonpayable",
      "type": "function"
    },
    {
      "inputs": [],
      "name": "owner",
      "outputs": [
        {
          "internalType": "address",
          "name": "",
          "type": "address"
        }
      ],
      "stateMutability": "view",
      "type": "function"
    },
    {
      "inputs": [],
      "name": "paused",
      "outputs": [
        {
          "internalType": "bool",
          "name": "",
          "type": "bool"
        }
      ],
      "stateMutability": "view",
      "type": "function"
    },
    {
      "inputs": [
        {
          "internalType": "address",
          "name": "",
          "type": "address"
        }
      ],
      "name": "priceConfigUpdaters",
      "outputs": [
        {
          "internalType": "bool",
          "name": "",
          "type": "bool"
        }
      ],
      "stateMutability": "view",
      "type": "function"
    },
    {
      "inputs": [],
      "name": "priceFeed",
      "outputs": [
        {
          "internalType": "contract ILayerZeroPriceFeed",
          "name": "",
          "type": "address"
        }
      ],
      "stateMutability": "view",
      "type": "function"
    },
    {
      "inputs": [],
      "name": "renounceOwnership",
      "outputs": [],
      "stateMutability": "nonpayable",
      "type": "function"
    },
    {
      "inputs": [
        {
          "internalType": "address",
          "name": "_relayerAddress",
          "type": "address"
        },
        {
          "internalType": "bool",
          "name": "_approve",
          "type": "bool"
        }
      ],
      "name": "setApprovedAddress",
      "outputs": [],
      "stateMutability": "nonpayable",
      "type": "function"
    },
    {
      "inputs": [
        {
          "internalType": "uint16",
          "name": "_chainId",
          "type": "uint16"
        },
        {
          "internalType": "uint16",
          "name": "_outboundProofType",
          "type": "uint16"
        },
        {
          "internalType": "uint128",
          "name": "_dstNativeAmtCap",
          "type": "uint128"
        },
        {
          "internalType": "uint64",
          "name": "_baseGas",
          "type": "uint64"
        },
        {
          "internalType": "uint64",
          "name": "_gasPerByte",
          "type": "uint64"
        }
      ],
      "name": "setDstConfig",
      "outputs": [],
      "stateMutability": "nonpayable",
      "type": "function"
    },
    {
      "inputs": [
        {
          "components": [
            {
              "internalType": "uint16",
              "name": "chainId",
              "type": "uint16"
            },
            {
              "internalType": "uint128",
              "name": "floorMargin",
              "type": "uint128"
            }
          ],
          "internalType": "struct RelayerV2.DstFloorMargin[]",
          "name": "_margins",
          "type": "tuple[]"
        }
      ],
      "name": "setDstFloorMarginsUSD",
      "outputs": [],
      "stateMutability": "nonpayable",
      "type": "function"
    },
    {
      "inputs": [
        {
          "internalType": "uint16",
          "name": "_chainId",
          "type": "uint16"
        },
        {
          "internalType": "uint128",
          "name": "_dstPriceRatio",
          "type": "uint128"
        },
        {
          "internalType": "uint128",
          "name": "_dstGasPriceInWei",
          "type": "uint128"
        }
      ],
      "name": "setDstPrice",
      "outputs": [],
      "stateMutability": "nonpayable",
      "type": "function"
    },
    {
      "inputs": [
        {
          "components": [
            {
              "internalType": "uint16",
              "name": "chainId",
              "type": "uint16"
            },
            {
              "internalType": "uint128",
              "name": "multiplier",
              "type": "uint128"
            }
          ],
          "internalType": "struct RelayerV2.DstMultiplier[]",
          "name": "_multipliers",
          "type": "tuple[]"
        }
      ],
      "name": "setDstPriceMultipliers",
      "outputs": [],
      "stateMutability": "nonpayable",
      "type": "function"
    },
    {
      "inputs": [
        {
          "internalType": "bool",
          "name": "_paused",
          "type": "bool"
        }
      ],
      "name": "setPause",
      "outputs": [],
      "stateMutability": "nonpayable",
      "type": "function"
    },
    {
      "inputs": [
        {
          "internalType": "address",
          "name": "_priceConfigUpdater",
          "type": "address"
        },
        {
          "internalType": "bool",
          "name": "_allow",
          "type": "bool"
        }
      ],
      "name": "setPriceConfigUpdater",
      "outputs": [],
      "stateMutability": "nonpayable",
      "type": "function"
    },
    {
      "inputs": [
        {
          "internalType": "address",
          "name": "_priceFeed",
          "type": "address"
        }
      ],
      "name": "setPriceFeed",
      "outputs": [],
      "stateMutability": "nonpayable",
      "type": "function"
    },
    {
      "inputs": [
        {
          "internalType": "uint128",
          "name": "_multiplierBps",
          "type": "uint128"
        }
      ],
      "name": "setPriceMultiplierBps",
      "outputs": [],
      "stateMutability": "nonpayable",
      "type": "function"
    },
    {
      "inputs": [
        {
          "internalType": "address",
          "name": "_stargateAddress",
          "type": "address"
        }
      ],
      "name": "setStargateAddress",
      "outputs": [],
      "stateMutability": "nonpayable",
      "type": "function"
    },
    {
      "inputs": [],
      "name": "stargateBridgeAddress",
      "outputs": [
        {
          "internalType": "address",
          "name": "",
          "type": "address"
        }
      ],
      "stateMutability": "view",
      "type": "function"
    },
    {
      "inputs": [
        {
          "internalType": "address",
          "name": "newOwner",
          "type": "address"
        }
      ],
      "name": "transferOwnership",
      "outputs": [],
      "stateMutability": "nonpayable",
      "type": "function"
    },
    {
      "inputs": [],
      "name": "uln",
      "outputs": [
        {
          "internalType": "contract ILayerZeroUltraLightNodeV2",
          "name": "",
          "type": "address"
        }
      ],
      "stateMutability": "view",
      "type": "function"
    },
    {
      "inputs": [],
      "name": "validateProofBytes",
      "outputs": [
        {
          "internalType": "uint16",
          "name": "",
          "type": "uint16"
        }
      ],
      "stateMutability": "view",
      "type": "function"
    },
    {
      "inputs": [
        {
          "internalType": "uint16",
          "name": "_srcChainId",
          "type": "uint16"
        },
        {
          "internalType": "address",
          "name": "_dstAddress",
          "type": "address"
        },
        {
          "internalType": "uint256",
          "name": "_gasLimit",
          "type": "uint256"
        },
        {
          "internalType": "bytes32",
          "name": "_blockHash",
          "type": "bytes32"
        },
        {
          "internalType": "bytes32",
          "name": "_data",
          "type": "bytes32"
        },
        {
          "internalType": "bytes",
          "name": "_transactionProof",
          "type": "bytes"
        }
      ],
      "name": "validateTransactionProofV1",
      "outputs": [],
      "stateMutability": "nonpayable",
      "type": "function"
    },
    {
      "inputs": [
        {
          "internalType": "uint16",
          "name": "_srcChainId",
          "type": "uint16"
        },
        {
          "internalType": "address",
          "name": "_dstAddress",
          "type": "address"
        },
        {
          "internalType": "uint256",
          "name": "_gasLimit",
          "type": "uint256"
        },
        {
          "internalType": "bytes32",
          "name": "_blockHash",
          "type": "bytes32"
        },
        {
          "internalType": "bytes32",
          "name": "_data",
          "type": "bytes32"
        },
        {
          "internalType": "bytes",
          "name": "_transactionProof",
          "type": "bytes"
        },
        {
          "internalType": "address payable",
          "name": "_to",
          "type": "address"
        }
      ],
      "name": "validateTransactionProofV2",
      "outputs": [],
      "stateMutability": "payable",
      "type": "function"
    },
    {
      "inputs": [
        {
          "internalType": "address payable",
          "name": "_to",
          "type": "address"
        },
        {
          "internalType": "uint256",
          "name": "_amount",
          "type": "uint256"
        }
      ],
      "name": "withdrawFee",
      "outputs": [],
      "stateMutability": "nonpayable",
      "type": "function"
    },
    {
      "inputs": [
        {
          "internalType": "address",
          "name": "_token",
          "type": "address"
        },
        {
          "internalType": "address",
          "name": "_to",
          "type": "address"
        },
        {
          "internalType": "uint256",
          "name": "_amount",
          "type": "uint256"
        }
      ],
      "name": "withdrawToken",
      "outputs": [],
      "stateMutability": "nonpayable",
      "type": "function"
    }
  ],
  "transactionHash": "0xdc49de4c6aa979af8895d5250c4be75f1ac1be5e266320c2deeff1c4cc4f3941",
  "args": [],
  "numDeployments": 3,
  "solcInputHash": "f6f2afdc103bffd43fe559d2c8478afc",
  "bytecode": "0x608060405234801561001057600080fd5b5060016000556139d4806100256000396000f3fe60806040526004361061026a5760003560e01c8063741bef1a11610153578063b8f8bad4116100cb578063d5f8b0141161007f578063f2fde38b11610064578063f2fde38b146106aa578063fa34c84e146106ca578063fd9be522146106ea5761026a565b8063d5f8b0141461066a578063f136a8741461068a5761026a565b8063bf4dab51116100b0578063bf4dab511461060a578063c03f15291461062a578063c3b04e7f1461064a5761026a565b8063b8f8bad4146105ca578063bedb86fb146105ea5761026a565b80638576db67116101225780638da5cb5b116101075780638da5cb5b1461058b57806398dabd50146105a0578063ac353e04146105b55761026a565b80638576db671461053d5780638644c5781461055d5761026a565b8063741bef1a146104c6578063765a8a54146104db578063801db1fe1461050857806381ba209a146105285761026a565b8063575765e2116101e6578063673448dd116101b55780636c473aff1161019a5780636c473aff1461047c578063715018a614610491578063724e78da146104a65761026a565b8063673448dd1461043a57806369cf4e3a1461045a5761026a565b8063575765e2146103a95780635886ea65146103c95780635c975abb146103f65780636348d269146104185761026a565b8063252f7b011161023d578063485cc95511610222578063485cc9551461033c5780634eeba2501461035c57806355b35249146103895761026a565b8063252f7b01146102fc5780633f1034871461031c5761026a565b806301e336671461026f57806303343f54146102915780630508941e146102b157806323161ff8146102c4575b600080fd5b34801561027b57600080fd5b5061028f61028a366004612fac565b61070a565b005b34801561029d57600080fd5b5061028f6102ac366004612f2d565b61084a565b61028f6102bf3660046131c1565b6108da565b3480156102d057600080fd5b506102e46102df36600461329e565b610adc565b6040516102f393929190613747565b60405180910390f35b34801561030857600080fd5b5061028f61031736600461313f565b610b4a565b34801561032857600080fd5b5061028f610337366004613346565b610c92565b34801561034857600080fd5b5061028f610357366004612f74565b610e2a565b34801561036857600080fd5b5061037c610377366004613125565b611115565b6040516102f39190613707565b34801561039557600080fd5b5061037c6103a4366004613125565b611139565b3480156103b557600080fd5b5061028f6103c4366004612fec565b61115d565b3480156103d557600080fd5b506103e96103e43660046132c7565b611278565b6040516102f3919061387a565b34801561040257600080fd5b5061040b61135d565b6040516102f39190613460565b34801561042457600080fd5b5061042d611366565b6040516102f391906133f1565b34801561044657600080fd5b5061040b610455366004612f2d565b611382565b34801561046657600080fd5b5061046f6113b1565b6040516102f3919061377b565b34801561048857600080fd5b5061042d6113d1565b34801561049d57600080fd5b5061028f6113ed565b3480156104b257600080fd5b5061028f6104c1366004612f2d565b6114ea565b3480156104d257600080fd5b5061042d61157f565b3480156104e757600080fd5b506104fb6104f6366004613125565b6115a0565b6040516102f391906136db565b34801561051457600080fd5b5061028f610523366004612fec565b611692565b34801561053457600080fd5b5061046f6117a1565b34801561054957600080fd5b5061040b610558366004612f2d565b6117c3565b34801561056957600080fd5b5061057d610578366004613125565b6117d8565b6040516102f3929190613724565b34801561059757600080fd5b5061042d611814565b3480156105ac57600080fd5b5061046f611830565b3480156105c157600080fd5b5061037c61184e565b3480156105d657600080fd5b5061028f6105e5366004613256565b611866565b3480156105f657600080fd5b5061028f610605366004613060565b6118b4565b34801561061657600080fd5b5061028f610625366004613020565b611973565b34801561063657600080fd5b506103e96106453660046132c7565b611a84565b34801561065657600080fd5b5061028f6106653660046130ed565b611af6565b34801561067657600080fd5b5061028f610685366004613020565b611b82565b34801561069657600080fd5b5061040b6106a5366004612f2d565b611c93565b3480156106b657600080fd5b5061028f6106c5366004612f2d565b611ca8565b3480156106d657600080fd5b5061028f6106e5366004612f2d565b611e16565b3480156106f657600080fd5b5061028f610705366004612f49565b611fc2565b33610713611814565b73ffffffffffffffffffffffffffffffffffffffff161461075c5761073733611382565b61075c5760405162461bcd60e51b81526004016107539061346b565b60405180910390fd5b6040517f70a0823100000000000000000000000000000000000000000000000000000000815260009073ffffffffffffffffffffffffffffffffffffffff8516906370a08231906107b19030906004016133f1565b60206040518083038186803b1580156107c957600080fd5b505afa1580156107dd573d6000803e3d6000fd5b505050506040513d601f19601f8201168201806040525081019061080191906133b2565b9050808211156108235760405162461bcd60e51b8152600401610753906135a2565b61084473ffffffffffffffffffffffffffffffffffffffff85168484612163565b50505050565b33610853611814565b73ffffffffffffffffffffffffffffffffffffffff16146108935761087733611382565b6108935760405162461bcd60e51b81526004016107539061346b565b606780547fffffffffffffffffffffffff00000000000000000000000000000000000000001673ffffffffffffffffffffffffffffffffffffffff92909216919091179055565b336108e3611814565b73ffffffffffffffffffffffffffffffffffffffff16146109235761090733611382565b6109235760405162461bcd60e51b81526004016107539061346b565b6002600054141561097b576040805162461bcd60e51b815260206004820152601f60248201527f5265656e7472616e637947756172643a207265656e7472616e742063616c6c00604482015290519081900360640190fd5b600260008190555060008173ffffffffffffffffffffffffffffffffffffffff16346040516109a9906133ee565b60006040518083038185875af1925050503d80600081146109e6576040519150601f19603f3d011682016040523d82523d6000602084013e6109eb565b606091505b5050905080610a3857604051349073ffffffffffffffffffffffffffffffffffffffff8416907f2c7a964ca3de5ec1d42d9822f9bbd0eb142a59cc9f855e9d93813b773192c7a390600090a35b6066546040517f987fa2d500000000000000000000000000000000000000000000000000000000815273ffffffffffffffffffffffffffffffffffffffff9091169063987fa2d590610a9a908c908c908c908c908c908c908c9060040161378a565b600060405180830381600087803b158015610ab457600080fd5b505af1158015610ac8573d6000803e3d6000fd5b505060016000555050505050505050505050565b60696020908152600092835260408084209091529082529020546fffffffffffffffffffffffffffffffff81169067ffffffffffffffff7001000000000000000000000000000000008204811691780100000000000000000000000000000000000000000000000090041683565b33610b53611814565b73ffffffffffffffffffffffffffffffffffffffff1614610b9357610b7733611382565b610b935760405162461bcd60e51b81526004016107539061346b565b60026000541415610beb576040805162461bcd60e51b815260206004820152601f60248201527f5265656e7472616e637947756172643a207265656e7472616e742063616c6c00604482015290519081900360640190fd5b60026000556066546040517f987fa2d500000000000000000000000000000000000000000000000000000000815273ffffffffffffffffffffffffffffffffffffffff9091169063987fa2d590610c52908a908a908a908a908a908a908a9060040161378a565b600060405180830381600087803b158015610c6c57600080fd5b505af1158015610c80573d6000803e3d6000fd5b50506001600055505050505050505050565b33610c9b611814565b73ffffffffffffffffffffffffffffffffffffffff1614610cdb57610cbf33611382565b610cdb5760405162461bcd60e51b81526004016107539061346b565b604080516060810182526fffffffffffffffffffffffffffffffff858116825267ffffffffffffffff858116602080850191825286831685870190815261ffff8c8116600090815260698452888120918d16815292529086902094518554925191517fffffffffffffffffffffffffffffffff000000000000000000000000000000009093169416939093177fffffffffffffffff0000000000000000ffffffffffffffffffffffffffffffff16700100000000000000000000000000000000938316939093029290921777ffffffffffffffffffffffffffffffffffffffffffffffff1678010000000000000000000000000000000000000000000000009290911691909102179055517fd053e021dda81c7c2794ff89e320caea5379962d49ed383a3bd0a54ffc4b932f90610e1b9087908790879087908790613814565b60405180910390a15050505050565b6000610e346121f0565b905073ffffffffffffffffffffffffffffffffffffffff8116610e8d5773ffffffffffffffffffffffffffffffffffffffff7fb53127684a568b3173ae13b9f8a6016e243e63b6e8ee1178d6a717850b5d610355610eaf565b3373ffffffffffffffffffffffffffffffffffffffff821614610eaf57600080fd5b600154610100900460ff1680610ec85750610ec8612215565b80610ed6575060015460ff16155b610f115760405162461bcd60e51b815260040180806020018281038252602e815260200180613926602e913960400191505060405180910390fd5b600154610100900460ff16158015610f7657600180547fffffffffffffffffffffffffffffffffffffffffffffffffffffffffffffff007fffffffffffffffffffffffffffffffffffffffffffffffffffffffffffff00ff9091166101001716811790555b610f7e612226565b606680547fffffffffffffffffffffffff00000000000000000000000000000000000000001673ffffffffffffffffffffffffffffffffffffffff8616179055610fc930600161115d565b606c8054606b80547fffffffffffffffffffffff0000000000000000000000000000000000000000ff1661010073ffffffffffffffffffffffffffffffffffffffff881602179055612ee07fffffffffffffffffffffffffffffffff00000000000000000000000000000000909116177fffffffffffffffffffffffffffff0000ffffffffffffffffffffffffffffffff1670a400000000000000000000000000000000177fffffffffffffffffffffffff0000ffffffffffffffffffffffffffffffffffff1672a0000000000000000000000000000000000000177fffffffffffffffffffff0000ffffffffffffffffffffffffffffffffffffffff167501f40000000000000000000000000000000000000000179055801561084457600180547fffffffffffffffffffffffffffffffffffffffffffffffffffffffffffff00ff16905550505050565b606d602052600090815260409020546fffffffffffffffffffffffffffffffff1681565b606e602052600090815260409020546fffffffffffffffffffffffffffffffff1681565b61116561232f565b73ffffffffffffffffffffffffffffffffffffffff16611183611814565b73ffffffffffffffffffffffffffffffffffffffff16146111eb576040805162461bcd60e51b815260206004820181905260248201527f4f776e61626c653a2063616c6c6572206973206e6f7420746865206f776e6572604482015290519081900360640190fd5b73ffffffffffffffffffffffffffffffffffffffff82166000908152606a60205260409081902080547fffffffffffffffffffffffffffffffffffffffffffffffffffffffffffffff0016831515179055517fb10786d0bfa68fb1aa29552d9203e5f545f7c073ff0784da1de1d800986f10239061126c9084908490613438565b60405180910390a15050565b60665460009073ffffffffffffffffffffffffffffffffffffffff1633146112b25760405162461bcd60e51b8152600401610753906135ff565b6127108411156112d45760405162461bcd60e51b8152600401610753906134a2565b60006113198888888888888080601f01602080910402602001604051908101604052809392919081815260200183838082843760009201919091525061233392505050565b90507fdf21c415b78ed2552cc9971249e32a053abce6087a0ae0fbf3f78db5174a34938160405161134a919061387a565b60405180910390a1979650505050505050565b606b5460ff1681565b60675473ffffffffffffffffffffffffffffffffffffffff1681565b73ffffffffffffffffffffffffffffffffffffffff81166000908152606a602052604090205460ff165b919050565b606c547201000000000000000000000000000000000000900461ffff1681565b60665473ffffffffffffffffffffffffffffffffffffffff1681565b6113f561232f565b73ffffffffffffffffffffffffffffffffffffffff16611413611814565b73ffffffffffffffffffffffffffffffffffffffff161461147b576040805162461bcd60e51b815260206004820181905260248201527f4f776e61626c653a2063616c6c6572206973206e6f7420746865206f776e6572604482015290519081900360640190fd5b60345460405160009173ffffffffffffffffffffffffffffffffffffffff16907f8be0079c531659141344cd1fd0a4f28419497f9722a3daafe3b4186f6b6457e0908390a3603480547fffffffffffffffffffffffff0000000000000000000000000000000000000000169055565b336114f3611814565b73ffffffffffffffffffffffffffffffffffffffff16146115335761151733611382565b6115335760405162461bcd60e51b81526004016107539061346b565b606b805473ffffffffffffffffffffffffffffffffffffffff909216610100027fffffffffffffffffffffff0000000000000000000000000000000000000000ff909216919091179055565b606b54610100900473ffffffffffffffffffffffffffffffffffffffff1681565b6115a8612e6a565b606b546040517fe0ad121a000000000000000000000000000000000000000000000000000000008152600091610100900473ffffffffffffffffffffffffffffffffffffffff169063e0ad121a9061160490869060040161377b565b60606040518083038186803b15801561161c57600080fd5b505afa158015611630573d6000803e3d6000fd5b505050506040513d601f19601f82011682018060405250810190611654919061307a565b6040805180820190915281516fffffffffffffffffffffffffffffffff16815260209182015167ffffffffffffffff16918101919091529392505050565b61169a61232f565b73ffffffffffffffffffffffffffffffffffffffff166116b8611814565b73ffffffffffffffffffffffffffffffffffffffff1614611720576040805162461bcd60e51b815260206004820181905260248201527f4f776e61626c653a2063616c6c6572206973206e6f7420746865206f776e6572604482015290519081900360640190fd5b73ffffffffffffffffffffffffffffffffffffffff82166000908152606f60205260409081902080547fffffffffffffffffffffffffffffffffffffffffffffffffffffffffffffff0016831515179055517fde6b048d6c4e63d85fde37ccbe03f4380c6d12cb2a1e9ce9268bbf47a1ef68789061126c9084908490613438565b606c5474010000000000000000000000000000000000000000900461ffff1681565b606f6020526000908152604090205460ff1681565b6068602052600090815260409020546fffffffffffffffffffffffffffffffff8082169170010000000000000000000000000000000090041682565b60345473ffffffffffffffffffffffffffffffffffffffff1690565b606c54700100000000000000000000000000000000900461ffff1681565b606c546fffffffffffffffffffffffffffffffff1681565b3361186f611814565b73ffffffffffffffffffffffffffffffffffffffff16146118af5761189333611382565b6118af5760405162461bcd60e51b81526004016107539061346b565b505050565b6118bc61232f565b73ffffffffffffffffffffffffffffffffffffffff166118da611814565b73ffffffffffffffffffffffffffffffffffffffff1614611942576040805162461bcd60e51b815260206004820181905260248201527f4f776e61626c653a2063616c6c6572206973206e6f7420746865206f776e6572604482015290519081900360640190fd5b606b80547fffffffffffffffffffffffffffffffffffffffffffffffffffffffffffffff0016911515919091179055565b3361197c611814565b73ffffffffffffffffffffffffffffffffffffffff16141580156119b05750336000908152606a602052604090205460ff16155b156119e457336000908152606f602052604090205460ff166119e45760405162461bcd60e51b81526004016107539061356b565b60005b818110156118af57368383838181106119fc57fe5b9050604002019050806020016020810190611a1791906130ed565b606d6000611a286020850185613125565b61ffff168152602081019190915260400160002080547fffffffffffffffffffffffffffffffff00000000000000000000000000000000166fffffffffffffffffffffffffffffffff92909216919091179055506001016119e7565b6000612710841115611aa85760405162461bcd60e51b8152600401610753906134a2565b611aeb8787878787878080601f01602080910402602001604051908101604052809392919081815260200183838082843760009201919091525061233392505050565b979650505050505050565b33611aff611814565b73ffffffffffffffffffffffffffffffffffffffff1614611b3f57611b2333611382565b611b3f5760405162461bcd60e51b81526004016107539061346b565b606c80547fffffffffffffffffffffffffffffffff00000000000000000000000000000000166fffffffffffffffffffffffffffffffff92909216919091179055565b33611b8b611814565b73ffffffffffffffffffffffffffffffffffffffff1614158015611bbf5750336000908152606a602052604090205460ff16155b15611bf357336000908152606f602052604090205460ff16611bf35760405162461bcd60e51b81526004016107539061356b565b60005b818110156118af5736838383818110611c0b57fe5b9050604002019050806020016020810190611c2691906130ed565b606e6000611c376020850185613125565b61ffff168152602081019190915260400160002080547fffffffffffffffffffffffffffffffff00000000000000000000000000000000166fffffffffffffffffffffffffffffffff9290921691909117905550600101611bf6565b606a6020526000908152604090205460ff1681565b611cb061232f565b73ffffffffffffffffffffffffffffffffffffffff16611cce611814565b73ffffffffffffffffffffffffffffffffffffffff1614611d36576040805162461bcd60e51b815260206004820181905260248201527f4f776e61626c653a2063616c6c6572206973206e6f7420746865206f776e6572604482015290519081900360640190fd5b73ffffffffffffffffffffffffffffffffffffffff8116611d885760405162461bcd60e51b81526004018080602001828103825260268152602001806138da6026913960400191505060405180910390fd5b60345460405173ffffffffffffffffffffffffffffffffffffffff8084169216907f8be0079c531659141344cd1fd0a4f28419497f9722a3daafe3b4186f6b6457e090600090a3603480547fffffffffffffffffffffffff00000000000000000000000000000000000000001673ffffffffffffffffffffffffffffffffffffffff92909216919091179055565b6000611e206121f0565b905073ffffffffffffffffffffffffffffffffffffffff8116611e795773ffffffffffffffffffffffffffffffffffffffff7fb53127684a568b3173ae13b9f8a6016e243e63b6e8ee1178d6a717850b5d610355611e9b565b3373ffffffffffffffffffffffffffffffffffffffff821614611e9b57600080fd5b50606c8054606b80547fffffffffffffffffffffff0000000000000000000000000000000000000000ff1661010073ffffffffffffffffffffffffffffffffffffffff959095169490940293909317909255612ee07fffffffffffffffffffffffffffffffff00000000000000000000000000000000909216919091177fffffffffffffffffffffffffffff0000ffffffffffffffffffffffffffffffff1670a400000000000000000000000000000000177fffffffffffffffffffffffff0000ffffffffffffffffffffffffffffffffffff1672a0000000000000000000000000000000000000177fffffffffffffffffffff0000ffffffffffffffffffffffffffffffffffffffff167501f40000000000000000000000000000000000000000179055565b33611fcb611814565b73ffffffffffffffffffffffffffffffffffffffff161461200b57611fef33611382565b61200b5760405162461bcd60e51b81526004016107539061346b565b6066546040517f69412bfa00000000000000000000000000000000000000000000000000000000815260009173ffffffffffffffffffffffffffffffffffffffff16906369412bfa906120629030906004016133f1565b60206040518083038186803b15801561207a57600080fd5b505afa15801561208e573d6000803e3d6000fd5b505050506040513d601f19601f820116820180604052508101906120b291906133b2565b9050808211156120d45760405162461bcd60e51b8152600401610753906135a2565b6066546040517f07b18bde00000000000000000000000000000000000000000000000000000000815273ffffffffffffffffffffffffffffffffffffffff909116906307b18bde9061212c9086908690600401613412565b600060405180830381600087803b15801561214657600080fd5b505af115801561215a573d6000803e3d6000fd5b50505050505050565b6040805173ffffffffffffffffffffffffffffffffffffffff8416602482015260448082018490528251808303909101815260649091019091526020810180517bffffffffffffffffffffffffffffffffffffffffffffffffffffffff167fa9059cbb000000000000000000000000000000000000000000000000000000001790526118af90849061264e565b7fb53127684a568b3173ae13b9f8a6016e243e63b6e8ee1178d6a717850b5d61035490565b60006122203061270c565b15905090565b600154610100900460ff168061223f575061223f612215565b8061224d575060015460ff16155b6122885760405162461bcd60e51b815260040180806020018281038252602e815260200180613926602e913960400191505060405180910390fd5b600154610100900460ff161580156122ed57600180547fffffffffffffffffffffffffffffffffffffffffffffffffffffffffffffff007fffffffffffffffffffffffffffffffffffffffffffffffffffffffffffff00ff9091166101001716811790555b6122f5612712565b6122fd612809565b801561232c57600180547fffffffffffffffffffffffffffffffffffffffffffffffffffffffffffff00ff1690555b50565b3390565b606b5460009060ff16156123595760405162461bcd60e51b815260040161075390613636565b81516022148061236a575060428251115b6123865760405162461bcd60e51b8152600401610753906134d7565b60028201516022830151806123ad5760405162461bcd60e51b81526004016107539061366d565b8161ffff16600114806123c457508161ffff166002145b6123e05760405162461bcd60e51b815260040161075390613534565b61ffff88811660009081526069602090815260408083208b851684529091528120918416600214156124455750604285015181546fffffffffffffffffffffffffffffffff168111156124455760405162461bcd60e51b8152600401610753906136a4565b60008461ffff1660021461247357606c54700100000000000000000000000000000000900461ffff16612499565b606c5461249990700100000000000000000000000000000000900461ffff16602061297e565b905060008a61ffff166002146124d857606c546124d3908a9074010000000000000000000000000000000000000000900461ffff1661297e565b612500565b606c54612500908a907201000000000000000000000000000000000000900461ffff1661297e565b606b549091508c906000908190610100900473ffffffffffffffffffffffffffffffffffffffff16637bc3c9ab84612538888861297e565b8a5461256290700100000000000000000000000000000000900467ffffffffffffffff168d61297e565b6040518463ffffffff1660e01b81526004016125809392919061385e565b604080518083038186803b15801561259757600080fd5b505afa1580156125ab573d6000803e3d6000fd5b505050506040513d601f19601f820116820180604052508101906125cf91906133ca565b90925090506000861561262557606c546126229061271090612616906fffffffffffffffffffffffffffffffff9081169061261c906402540be4009084908e908a166129e1565b90612a3a565b906129e1565b90505b612639816126338686612aa1565b9061297e565b9a505050505050505050505095945050505050565b60006126b0826040518060400160405280602081526020017f5361666545524332303a206c6f772d6c6576656c2063616c6c206661696c65648152508573ffffffffffffffffffffffffffffffffffffffff16612c379092919063ffffffff16565b8051909150156118af578080602001905160208110156126cf57600080fd5b50516118af5760405162461bcd60e51b815260040180806020018281038252602a815260200180613975602a913960400191505060405180910390fd5b3b151590565b600154610100900460ff168061272b575061272b612215565b80612739575060015460ff16155b6127745760405162461bcd60e51b815260040180806020018281038252602e815260200180613926602e913960400191505060405180910390fd5b600154610100900460ff161580156122fd57600180547fffffffffffffffffffffffffffffffffffffffffffffffffffffffffffffff007fffffffffffffffffffffffffffffffffffffffffffffffffffffffffffff00ff909116610100171681179055801561232c57600180547fffffffffffffffffffffffffffffffffffffffffffffffffffffffffffff00ff16905550565b600154610100900460ff16806128225750612822612215565b80612830575060015460ff16155b61286b5760405162461bcd60e51b815260040180806020018281038252602e815260200180613926602e913960400191505060405180910390fd5b600154610100900460ff161580156128d057600180547fffffffffffffffffffffffffffffffffffffffffffffffffffffffffffffff007fffffffffffffffffffffffffffffffffffffffffffffffffffffffffffff00ff9091166101001716811790555b60006128da61232f565b603480547fffffffffffffffffffffffff00000000000000000000000000000000000000001673ffffffffffffffffffffffffffffffffffffffff8316908117909155604051919250906000907f8be0079c531659141344cd1fd0a4f28419497f9722a3daafe3b4186f6b6457e0908290a350801561232c57600180547fffffffffffffffffffffffffffffffffffffffffffffffffffffffffffff00ff16905550565b6000828201838110156129d8576040805162461bcd60e51b815260206004820152601b60248201527f536166654d6174683a206164646974696f6e206f766572666c6f770000000000604482015290519081900360640190fd5b90505b92915050565b6000826129f0575060006129db565b828202828482816129fd57fe5b04146129d85760405162461bcd60e51b81526004018080602001828103825260218152602001806139546021913960400191505060405180910390fd5b6000808211612a90576040805162461bcd60e51b815260206004820152601a60248201527f536166654d6174683a206469766973696f6e206279207a65726f000000000000604482015290519081900360640190fd5b818381612a9957fe5b049392505050565b61ffff82166000908152606d60205260408120546fffffffffffffffffffffffffffffffff1680612ae35750606c546fffffffffffffffffffffffffffffffff165b6000612b07612710612616866fffffffffffffffffffffffffffffffff86166129e1565b90506000606b60019054906101000a900473ffffffffffffffffffffffffffffffffffffffff1673ffffffffffffffffffffffffffffffffffffffff166392807f586040518163ffffffff1660e01b815260040160206040518083038186803b158015612b7357600080fd5b505afa158015612b87573d6000803e3d6000fd5b505050506040513d601f19601f82011682018060405250810190612bab9190613109565b6fffffffffffffffffffffffffffffffff16905080612bce575091506129db9050565b61ffff86166000908152606e6020526040812054670de0b6b3a76400009190612c1a90612c13908590612616906fffffffffffffffffffffffffffffffff16866129e1565b889061297e565b9050838111612c295783612c2b565b805b98975050505050505050565b6060612c468484600085612c50565b90505b9392505050565b606082471015612c915760405162461bcd60e51b81526004018080602001828103825260268152602001806139006026913960400191505060405180910390fd5b612c9a8561270c565b612ceb576040805162461bcd60e51b815260206004820152601d60248201527f416464726573733a2063616c6c20746f206e6f6e2d636f6e7472616374000000604482015290519081900360640190fd5b6000808673ffffffffffffffffffffffffffffffffffffffff1685876040518082805190602001908083835b60208310612d5457805182527fffffffffffffffffffffffffffffffffffffffffffffffffffffffffffffffe09092019160209182019101612d17565b6001836020036101000a03801982511681845116808217855250505050505090500191505060006040518083038185875af1925050503d8060008114612db6576040519150601f19603f3d011682016040523d82523d6000602084013e612dbb565b606091505b5091509150611aeb82828660608315612dd5575081612c49565b825115612de55782518084602001fd5b8160405162461bcd60e51b81526004018080602001828103825283818151815260200191508051906020019080838360005b83811015612e2f578181015183820152602001612e17565b50505050905090810190601f168015612e5c5780820380516001836020036101000a031916815260200191505b509250505060405180910390fd5b604080518082019091526000808252602082015290565b60008083601f840112612e92578182fd5b50813567ffffffffffffffff811115612ea9578182fd5b602083019150836020604083028501011115612ec457600080fd5b9250929050565b803580151581146113ac57600080fd5b60008083601f840112612eec578182fd5b50813567ffffffffffffffff811115612f03578182fd5b602083019150836020828501011115612ec457600080fd5b803561ffff811681146113ac57600080fd5b600060208284031215612f3e578081fd5b81356129d881613883565b60008060408385031215612f5b578081fd5b8235612f6681613883565b946020939093013593505050565b60008060408385031215612f86578182fd5b8235612f9181613883565b91506020830135612fa181613883565b809150509250929050565b600080600060608486031215612fc0578081fd5b8335612fcb81613883565b92506020840135612fdb81613883565b929592945050506040919091013590565b60008060408385031215612ffe578182fd5b823561300981613883565b915061301760208401612ecb565b90509250929050565b60008060208385031215613032578182fd5b823567ffffffffffffffff811115613048578283fd5b61305485828601612e81565b90969095509350505050565b600060208284031215613071578081fd5b612c4982612ecb565b60006060828403121561308b578081fd5b6040516060810181811067ffffffffffffffff821117156130a857fe5b60405282516130b6816138a5565b815260208301516130c6816138c3565b6020820152604083015163ffffffff811681146130e1578283fd5b60408201529392505050565b6000602082840312156130fe578081fd5b81356129d8816138a5565b60006020828403121561311a578081fd5b81516129d8816138a5565b600060208284031215613136578081fd5b612c4982612f1b565b600080600080600080600060c0888a031215613159578485fd5b61316288612f1b565b9650602088013561317281613883565b955060408801359450606088013593506080880135925060a088013567ffffffffffffffff8111156131a2578283fd5b6131ae8a828b01612edb565b989b979a50959850939692959293505050565b60008060008060008060008060e0898b0312156131dc578182fd5b6131e589612f1b565b975060208901356131f581613883565b965060408901359550606089013594506080890135935060a089013567ffffffffffffffff811115613225578283fd5b6132318b828c01612edb565b90945092505060c089013561324581613883565b809150509295985092959890939650565b60008060006060848603121561326a578081fd5b61327384612f1b565b92506020840135613283816138a5565b91506040840135613293816138a5565b809150509250925092565b600080604083850312156132b0578182fd5b6132b983612f1b565b915061301760208401612f1b565b60008060008060008060a087890312156132df578384fd5b6132e887612f1b565b95506132f660208801612f1b565b9450604087013561330681613883565b935060608701359250608087013567ffffffffffffffff811115613328578283fd5b61333489828a01612edb565b979a9699509497509295939492505050565b600080600080600060a0868803121561335d578283fd5b61336686612f1b565b945061337460208701612f1b565b93506040860135613384816138a5565b92506060860135613394816138c3565b915060808601356133a4816138c3565b809150509295509295909350565b6000602082840312156133c3578081fd5b5051919050565b600080604083850312156133dc578182fd5b825191506020830151612fa1816138a5565b90565b73ffffffffffffffffffffffffffffffffffffffff91909116815260200190565b73ffffffffffffffffffffffffffffffffffffffff929092168252602082015260400190565b73ffffffffffffffffffffffffffffffffffffffff9290921682521515602082015260400190565b901515815260200190565b60208082526015908201527f52656c617965723a206e6f7420617070726f7665640000000000000000000000604082015260600190565b6020808252818101527f52656c617965723a205f7061796c6f616453697a6520746f6f6f6f6f20626967604082015260600190565b60208082526026908201527f52656c617965723a2077726f6e67205f61646170746572506172616d6574657260408201527f732073697a650000000000000000000000000000000000000000000000000000606082015260800190565b6020808252601b908201527f52656c617965723a20756e737570706f72746564207478547970650000000000604082015260600190565b60208082526014908201527f52656c617965723a206e6f742075706461746572000000000000000000000000604082015260600190565b60208082526026908201527f52656c617965723a206e6f7420656e6f7567682066656520666f72207769746860408201527f64726177616c0000000000000000000000000000000000000000000000000000606082015260800190565b60208082526014908201527f52656c617965723a20696e76616c696420756c6e000000000000000000000000604082015260600190565b6020808252600d908201527f41646d696e3a2070617573656400000000000000000000000000000000000000604082015260600190565b60208082526014908201527f52656c617965723a2067617320746f6f206c6f77000000000000000000000000604082015260600190565b6020808252601f908201527f52656c617965723a206473744e6174697665416d7420746f6f206c6172676500604082015260600190565b81516fffffffffffffffffffffffffffffffff9081168252602092830151169181019190915260400190565b6fffffffffffffffffffffffffffffffff91909116815260200190565b6fffffffffffffffffffffffffffffffff92831681529116602082015260400190565b6fffffffffffffffffffffffffffffffff93909316835267ffffffffffffffff918216602084015216604082015260600190565b61ffff91909116815260200190565b600061ffff8916825273ffffffffffffffffffffffffffffffffffffffff8816602083015286604083015285606083015284608083015260c060a08301528260c0830152828460e084013781830160e090810191909152601f9092017fffffffffffffffffffffffffffffffffffffffffffffffffffffffffffffffe01601019695505050505050565b61ffff95861681529390941660208401526fffffffffffffffffffffffffffffffff91909116604083015267ffffffffffffffff9081166060830152909116608082015260a00190565b61ffff9390931683526020830191909152604082015260600190565b90815260200190565b73ffffffffffffffffffffffffffffffffffffffff8116811461232c57600080fd5b6fffffffffffffffffffffffffffffffff8116811461232c57600080fd5b67ffffffffffffffff8116811461232c57600080fdfe4f776e61626c653a206e6577206f776e657220697320746865207a65726f2061646472657373416464726573733a20696e73756666696369656e742062616c616e636520666f722063616c6c496e697469616c697a61626c653a20636f6e747261637420697320616c726561647920696e697469616c697a6564536166654d6174683a206d756c7469706c69636174696f6e206f766572666c6f775361666545524332303a204552433230206f7065726174696f6e20646964206e6f742073756363656564a2646970667358221220b7631978b811cdb692592b26767bcd030e4d556e29c0c083526e40c7191e505964736f6c63430007060033",
  "devdoc": {
    "kind": "dev",
    "methods": {
      "owner()": {
        "details": "Returns the address of the current owner."
      },
      "renounceOwnership()": {
        "details": "Leaves the contract without owner. It will not be possible to call `onlyOwner` functions anymore. Can only be called by the current owner. NOTE: Renouncing ownership will leave the contract without an owner, thereby removing any functionality that is only available to the owner."
      },
      "transferOwnership(address)": {
        "details": "Transfers ownership of the contract to a new account (`newOwner`). Can only be called by the current owner."
      }
    },
    "version": 1
  },
  "userdoc": {
    "kind": "user",
    "methods": {},
    "version": 1
  },
  "storageLayout": {
    "storage": [
      {
        "astId": 2233,
        "contract": "contracts/RelayerV2.sol:RelayerV2",
        "label": "_status",
        "offset": 0,
        "slot": "0",
        "type": "t_uint256"
      },
      {
        "astId": 137,
        "contract": "contracts/RelayerV2.sol:RelayerV2",
        "label": "_initialized",
        "offset": 0,
        "slot": "1",
        "type": "t_bool"
      },
      {
        "astId": 140,
        "contract": "contracts/RelayerV2.sol:RelayerV2",
        "label": "_initializing",
        "offset": 1,
        "slot": "1",
        "type": "t_bool"
      },
      {
        "astId": 484,
        "contract": "contracts/RelayerV2.sol:RelayerV2",
        "label": "__gap",
        "offset": 0,
        "slot": "2",
        "type": "t_array(t_uint256)50_storage"
      },
      {
        "astId": 10,
        "contract": "contracts/RelayerV2.sol:RelayerV2",
        "label": "_owner",
        "offset": 0,
        "slot": "52",
        "type": "t_address"
      },
      {
        "astId": 129,
        "contract": "contracts/RelayerV2.sol:RelayerV2",
        "label": "__gap",
        "offset": 0,
        "slot": "53",
        "type": "t_array(t_uint256)49_storage"
      },
      {
        "astId": 6044,
        "contract": "contracts/RelayerV2.sol:RelayerV2",
        "label": "uln",
        "offset": 0,
        "slot": "102",
        "type": "t_contract(ILayerZeroUltraLightNodeV2)17119"
      },
      {
        "astId": 6046,
        "contract": "contracts/RelayerV2.sol:RelayerV2",
        "label": "stargateBridgeAddress",
        "offset": 0,
        "slot": "103",
        "type": "t_address"
      },
      {
        "astId": 6072,
        "contract": "contracts/RelayerV2.sol:RelayerV2",
        "label": "dstPriceLookupOld",
        "offset": 0,
        "slot": "104",
        "type": "t_mapping(t_uint16,t_struct(DstPrice)6051_storage)"
      },
      {
        "astId": 6078,
        "contract": "contracts/RelayerV2.sol:RelayerV2",
        "label": "dstConfigLookup",
        "offset": 0,
        "slot": "105",
        "type": "t_mapping(t_uint16,t_mapping(t_uint16,t_struct(DstConfig)6058_storage))"
      },
      {
        "astId": 6082,
        "contract": "contracts/RelayerV2.sol:RelayerV2",
        "label": "approvedAddresses",
        "offset": 0,
        "slot": "106",
        "type": "t_mapping(t_address,t_bool)"
      },
      {
        "astId": 6132,
        "contract": "contracts/RelayerV2.sol:RelayerV2",
        "label": "paused",
        "offset": 0,
        "slot": "107",
        "type": "t_bool"
      },
      {
        "astId": 6134,
        "contract": "contracts/RelayerV2.sol:RelayerV2",
        "label": "priceFeed",
        "offset": 1,
        "slot": "107",
        "type": "t_contract(ILayerZeroPriceFeed)16727"
      },
      {
        "astId": 6136,
        "contract": "contracts/RelayerV2.sol:RelayerV2",
        "label": "multiplierBps",
        "offset": 0,
        "slot": "108",
        "type": "t_uint128"
      },
      {
        "astId": 6138,
        "contract": "contracts/RelayerV2.sol:RelayerV2",
        "label": "validateProofBytes",
        "offset": 16,
        "slot": "108",
        "type": "t_uint16"
      },
      {
        "astId": 6140,
        "contract": "contracts/RelayerV2.sol:RelayerV2",
        "label": "fpBytes",
        "offset": 18,
        "slot": "108",
        "type": "t_uint16"
      },
      {
        "astId": 6142,
        "contract": "contracts/RelayerV2.sol:RelayerV2",
        "label": "mptOverhead",
        "offset": 20,
        "slot": "108",
        "type": "t_uint16"
      },
      {
        "astId": 6146,
        "contract": "contracts/RelayerV2.sol:RelayerV2",
        "label": "dstMultipliers",
        "offset": 0,
        "slot": "109",
        "type": "t_mapping(t_uint16,t_uint128)"
      },
      {
        "astId": 6150,
        "contract": "contracts/RelayerV2.sol:RelayerV2",
        "label": "dstFloorMarginsUSD",
        "offset": 0,
        "slot": "110",
        "type": "t_mapping(t_uint16,t_uint128)"
      },
      {
        "astId": 6154,
        "contract": "contracts/RelayerV2.sol:RelayerV2",
        "label": "priceConfigUpdaters",
        "offset": 0,
        "slot": "111",
        "type": "t_mapping(t_address,t_bool)"
      }
    ],
    "types": {
      "t_address": {
        "encoding": "inplace",
        "label": "address",
        "numberOfBytes": "20"
      },
      "t_array(t_uint256)49_storage": {
        "base": "t_uint256",
        "encoding": "inplace",
        "label": "uint256[49]",
        "numberOfBytes": "1568"
      },
      "t_array(t_uint256)50_storage": {
        "base": "t_uint256",
        "encoding": "inplace",
        "label": "uint256[50]",
        "numberOfBytes": "1600"
      },
      "t_bool": {
        "encoding": "inplace",
        "label": "bool",
        "numberOfBytes": "1"
      },
      "t_contract(ILayerZeroPriceFeed)16727": {
        "encoding": "inplace",
        "label": "contract ILayerZeroPriceFeed",
        "numberOfBytes": "20"
      },
      "t_contract(ILayerZeroUltraLightNodeV2)17119": {
        "encoding": "inplace",
        "label": "contract ILayerZeroUltraLightNodeV2",
        "numberOfBytes": "20"
      },
      "t_mapping(t_address,t_bool)": {
        "encoding": "mapping",
        "key": "t_address",
        "label": "mapping(address => bool)",
        "numberOfBytes": "32",
        "value": "t_bool"
      },
      "t_mapping(t_uint16,t_mapping(t_uint16,t_struct(DstConfig)6058_storage))": {
        "encoding": "mapping",
        "key": "t_uint16",
        "label": "mapping(uint16 => mapping(uint16 => struct RelayerV2.DstConfig))",
        "numberOfBytes": "32",
        "value": "t_mapping(t_uint16,t_struct(DstConfig)6058_storage)"
      },
      "t_mapping(t_uint16,t_struct(DstConfig)6058_storage)": {
        "encoding": "mapping",
        "key": "t_uint16",
        "label": "mapping(uint16 => struct RelayerV2.DstConfig)",
        "numberOfBytes": "32",
        "value": "t_struct(DstConfig)6058_storage"
      },
      "t_mapping(t_uint16,t_struct(DstPrice)6051_storage)": {
        "encoding": "mapping",
        "key": "t_uint16",
        "label": "mapping(uint16 => struct RelayerV2.DstPrice)",
        "numberOfBytes": "32",
        "value": "t_struct(DstPrice)6051_storage"
      },
      "t_mapping(t_uint16,t_uint128)": {
        "encoding": "mapping",
        "key": "t_uint16",
        "label": "mapping(uint16 => uint128)",
        "numberOfBytes": "32",
        "value": "t_uint128"
      },
      "t_struct(DstConfig)6058_storage": {
        "encoding": "inplace",
        "label": "struct RelayerV2.DstConfig",
        "members": [
          {
            "astId": 6053,
            "contract": "contracts/RelayerV2.sol:RelayerV2",
            "label": "dstNativeAmtCap",
            "offset": 0,
            "slot": "0",
            "type": "t_uint128"
          },
          {
            "astId": 6055,
            "contract": "contracts/RelayerV2.sol:RelayerV2",
            "label": "baseGas",
            "offset": 16,
            "slot": "0",
            "type": "t_uint64"
          },
          {
            "astId": 6057,
            "contract": "contracts/RelayerV2.sol:RelayerV2",
            "label": "gasPerByte",
            "offset": 24,
            "slot": "0",
            "type": "t_uint64"
          }
        ],
        "numberOfBytes": "32"
      },
      "t_struct(DstPrice)6051_storage": {
        "encoding": "inplace",
        "label": "struct RelayerV2.DstPrice",
        "members": [
          {
            "astId": 6048,
            "contract": "contracts/RelayerV2.sol:RelayerV2",
            "label": "dstPriceRatio",
            "offset": 0,
            "slot": "0",
            "type": "t_uint128"
          },
          {
            "astId": 6050,
            "contract": "contracts/RelayerV2.sol:RelayerV2",
            "label": "dstGasPriceInWei",
            "offset": 16,
            "slot": "0",
            "type": "t_uint128"
          }
        ],
        "numberOfBytes": "32"
      },
      "t_uint128": {
        "encoding": "inplace",
        "label": "uint128",
        "numberOfBytes": "16"
      },
      "t_uint16": {
        "encoding": "inplace",
        "label": "uint16",
        "numberOfBytes": "2"
      },
      "t_uint256": {
        "encoding": "inplace",
        "label": "uint256",
        "numberOfBytes": "32"
      },
      "t_uint64": {
        "encoding": "inplace",
        "label": "uint64",
        "numberOfBytes": "8"
      }
    }
  }
}