{
  "address": "0xa78A78a13074eD93aD447a26Ec57121f29E8feC2",
  "abi": [
    {
      "inputs": [
        {
          "internalType": "address",
          "name": "addr",
          "type": "address"
        }
      ],
      "name": "isAddressContract",
      "outputs": [
        {
          "internalType": "bool",
          "name": "",
          "type": "bool"
        }
      ],
      "stateMutability": "view",
      "type": "function"
    }
  ],
  "transactionHash": "0xe3dc2fdc5d0829fa7dd4972a2d87a88b815ae1f53d6f84f5d942ab24222e1359",
  "args": [],
  "numDeployments": 1,
  "solcInputHash": "6aa4c5c759cc9c5cedb50cf12cec1892",
  "bytecode": "0x608060405234801561001057600080fd5b5060ad8061001f6000396000f3fe6080604052348015600f57600080fd5b506004361060285760003560e01c8063b5f9dc9114602d575b600080fd5b605d60048036036020811015604157600080fd5b503573ffffffffffffffffffffffffffffffffffffffff166071565b604080519115158252519081900360200190f35b3b15159056fea2646970667358221220299b79343b119aec70a1bd02160ef1eeea823c6fcb470820b899f1797ef4451364736f6c63430007060033",
  "devdoc": {
    "kind": "dev",
    "methods": {},
    "version": 1
  },
  "userdoc": {
    "kind": "user",
    "methods": {},
    "version": 1
  },
  "storageLayout": {
    "storage": [],
    "types": null
  }
}