{
  "_format": "hh-sol-artifact-1",
  "contractName": "NonceContract",
  "sourceName": "contracts/NonceContract.sol",
  "abi": [
    {
      "inputs": [
        {
          "internalType": "address",
          "name": "_endpoint",
          "type": "address"
        }
      ],
      "stateMutability": "nonpayable",
      "type": "constructor"
    },
    {
      "inputs": [],
      "name": "endpoint",
      "outputs": [
        {
          "internalType": "contract ILayerZeroEndpoint",
          "name": "",
          "type": "address"
        }
      ],
      "stateMutability": "view",
      "type": "function"
    },
    {
      "inputs": [
        {
          "internalType": "uint16",
          "name": "_chainId",
          "type": "uint16"
        },
        {
          "internalType": "address",
          "name": "_ua",
          "type": "address"
        },
        {
          "internalType": "bytes",
          "name": "_path",
          "type": "bytes"
        }
      ],
      "name": "increment",
      "outputs": [
        {
          "internalType": "uint64",
          "name": "",
          "type": "uint64"
        }
      ],
      "stateMutability": "nonpayable",
      "type": "function"
    },
    {
      "inputs": [
        {
          "internalType": "uint16",
          "name": "",
          "type": "uint16"
        },
        {
          "internalType": "bytes",
          "name": "",
          "type": "bytes"
        }
      ],
      "name": "outboundNonce",
      "outputs": [
        {
          "internalType": "uint64",
          "name": "",
          "type": "uint64"
        }
      ],
      "stateMutability": "view",
      "type": "function"
    }
  ],
  "bytecode": "0x60a060405234801561001057600080fd5b506040516104c53803806104c58339818101604052602081101561003357600080fd5b5051606081901b6001600160601b0319166080526001600160a01b031661045961006c600039806101dd528061021a52506104596000f3fe608060405234801561001057600080fd5b50600436106100415760003560e01c80635e280f11146100465780636fe7b67314610077578063c533338f1461012a575b600080fd5b61004e6101db565b6040805173ffffffffffffffffffffffffffffffffffffffff9092168252519081900360200190f35b61010d6004803603606081101561008d57600080fd5b61ffff8235169173ffffffffffffffffffffffffffffffffffffffff602082013516918101906060810160408201356401000000008111156100ce57600080fd5b8201836020820111156100e057600080fd5b8035906020019184600183028401116401000000008311171561010257600080fd5b5090925090506101ff565b6040805167ffffffffffffffff9092168252519081900360200190f35b61010d6004803603604081101561014057600080fd5b61ffff823516919081019060408101602082013564010000000081111561016657600080fd5b82018360208201111561017857600080fd5b8035906020019184600183028401116401000000008311171561019a57600080fd5b91908080601f0160208091040260200160405190810160405280939291908181526020018383808284376000920191909152509295506103bc945050505050565b7f000000000000000000000000000000000000000000000000000000000000000081565b60003373ffffffffffffffffffffffffffffffffffffffff167f000000000000000000000000000000000000000000000000000000000000000073ffffffffffffffffffffffffffffffffffffffff16639c729da1866040518263ffffffff1660e01b8152600401808273ffffffffffffffffffffffffffffffffffffffff16815260200191505060206040518083038186803b15801561029f57600080fd5b505afa1580156102b3573d6000803e3d6000fd5b505050506040513d60208110156102c957600080fd5b505173ffffffffffffffffffffffffffffffffffffffff1614610337576040517f08c379a00000000000000000000000000000000000000000000000000000000081526004018080602001828103825260328152602001806103f26032913960400191505060405180910390fd5b6000808661ffff1661ffff1681526020019081526020016000208383604051808383808284379190910194855250506040516020938190039390930190922080547fffffffffffffffffffffffffffffffffffffffffffffffff00000000000000008116600167ffffffffffffffff9283160191821617909155979650505050505050565b6000602081815292815260409020815180830184018051928152908401929093019190912091525467ffffffffffffffff168156fe4e6f6e6365436f6e74726163743a206d73672e73656e646572206973206e6f742076616c69642073656e646c696272617279a2646970667358221220c1bfb2490cbea6bde5984d565ddc2a5410b5e6cba68523297196b3324e05319f64736f6c63430007060033",
  "linkReferences": {},
  "deployedLinkReferences": {}
}