{
  "address": "0x8363302080e711E0CAb978C081b9e69308d49808",
  "abi": [
    {
      "anonymous": false,
      "inputs": [
        {
          "indexed": false,
          "internalType": "address",
          "name": "addr",
          "type": "address"
        },
        {
          "indexed": false,
          "internalType": "bool",
          "name": "approved",
          "type": "bool"
        }
      ],
      "name": "ApproveAddress",
      "type": "event"
    },
    {
      "anonymous": false,
      "inputs": [
        {
          "indexed": false,
          "internalType": "uint256",
          "name": "totalFee",
          "type": "uint256"
        }
      ],
      "name": "AssignJob",
      "type": "event"
    },
    {
      "anonymous": false,
      "inputs": [
        {
          "indexed": true,
          "internalType": "address",
          "name": "previousOwner",
          "type": "address"
        },
        {
          "indexed": true,
          "internalType": "address",
          "name": "newOwner",
          "type": "address"
        }
      ],
      "name": "OwnershipTransferred",
      "type": "event"
    },
    {
      "anonymous": false,
      "inputs": [
        {
          "indexed": false,
          "internalType": "uint16",
          "name": "chainId",
          "type": "uint16"
        },
        {
          "indexed": false,
          "internalType": "uint16",
          "name": "outboundProofType",
          "type": "uint16"
        },
        {
          "indexed": false,
          "internalType": "uint128",
          "name": "dstNativeAmtCap",
          "type": "uint128"
        },
        {
          "indexed": false,
          "internalType": "uint64",
          "name": "baseGas",
          "type": "uint64"
        },
        {
          "indexed": false,
          "internalType": "uint64",
          "name": "gasPerByte",
          "type": "uint64"
        }
      ],
      "name": "SetDstConfig",
      "type": "event"
    },
    {
      "anonymous": false,
      "inputs": [
        {
          "indexed": false,
          "internalType": "uint16",
          "name": "chainId",
          "type": "uint16"
        },
        {
          "indexed": false,
          "internalType": "uint128",
          "name": "dstPriceRatio",
          "type": "uint128"
        },
        {
          "indexed": false,
          "internalType": "uint128",
          "name": "dstGasPriceInWei",
          "type": "uint128"
        }
      ],
      "name": "SetDstPrice",
      "type": "event"
    },
    {
      "anonymous": false,
      "inputs": [
        {
          "indexed": true,
          "internalType": "address",
          "name": "to",
          "type": "address"
        },
        {
          "indexed": true,
          "internalType": "uint256",
          "name": "quantity",
          "type": "uint256"
        }
      ],
      "name": "ValueTransferFailed",
      "type": "event"
    },
    {
      "anonymous": false,
      "inputs": [
        {
          "indexed": false,
          "internalType": "address",
          "name": "to",
          "type": "address"
        },
        {
          "indexed": false,
          "internalType": "uint256",
          "name": "amount",
          "type": "uint256"
        }
      ],
      "name": "Withdraw",
      "type": "event"
    },
    {
      "inputs": [
        {
          "internalType": "address",
          "name": "",
          "type": "address"
        }
      ],
      "name": "approvedAddresses",
      "outputs": [
        {
          "internalType": "bool",
          "name": "",
          "type": "bool"
        }
      ],
      "stateMutability": "view",
      "type": "function"
    },
    {
      "inputs": [
        {
          "internalType": "uint16",
          "name": "_dstChainId",
          "type": "uint16"
        },
        {
          "internalType": "uint16",
          "name": "_outboundProofType",
          "type": "uint16"
        },
        {
          "internalType": "address",
          "name": "_userApplication",
          "type": "address"
        },
        {
          "internalType": "uint256",
          "name": "_payloadSize",
          "type": "uint256"
        },
        {
          "internalType": "bytes",
          "name": "_adapterParams",
          "type": "bytes"
        }
      ],
      "name": "assignJob",
      "outputs": [
        {
          "internalType": "uint256",
          "name": "",
          "type": "uint256"
        }
      ],
      "stateMutability": "nonpayable",
      "type": "function"
    },
    {
      "inputs": [
        {
          "internalType": "uint16",
          "name": "_legacyChainId",
          "type": "uint16"
        },
        {
          "internalType": "uint16",
          "name": "_outboundProofType",
          "type": "uint16"
        }
      ],
      "name": "dstConfigLookup",
      "outputs": [
        {
          "components": [
            {
              "internalType": "uint128",
              "name": "dstNativeAmtCap",
              "type": "uint128"
            },
            {
              "internalType": "uint64",
              "name": "baseGas",
              "type": "uint64"
            },
            {
              "internalType": "uint64",
              "name": "gasPerByte",
              "type": "uint64"
            }
          ],
          "internalType": "struct ILayerZeroRelayerV2PriceData.DstConfig",
          "name": "",
          "type": "tuple"
        }
      ],
      "stateMutability": "view",
      "type": "function"
    },
    {
      "inputs": [
        {
          "internalType": "uint16",
          "name": "_legacyChainId",
          "type": "uint16"
        }
      ],
      "name": "dstPriceLookup",
      "outputs": [
        {
          "components": [
            {
              "internalType": "uint128",
              "name": "dstPriceRatio",
              "type": "uint128"
            },
            {
              "internalType": "uint128",
              "name": "dstGasPriceInWei",
              "type": "uint128"
            }
          ],
          "internalType": "struct ILayerZeroRelayerV2PriceData.DstPrice",
          "name": "",
          "type": "tuple"
        }
      ],
      "stateMutability": "view",
      "type": "function"
    },
    {
      "inputs": [
        {
          "internalType": "uint16",
          "name": "_dstChainId",
          "type": "uint16"
        },
        {
          "internalType": "uint16",
          "name": "_outboundProofType",
          "type": "uint16"
        },
        {
          "internalType": "address",
          "name": "_userApplication",
          "type": "address"
        },
        {
          "internalType": "uint256",
          "name": "_payloadSize",
          "type": "uint256"
        },
        {
          "internalType": "bytes",
          "name": "_adapterParams",
          "type": "bytes"
        }
      ],
      "name": "getFee",
      "outputs": [
        {
          "internalType": "uint256",
          "name": "",
          "type": "uint256"
        }
      ],
      "stateMutability": "view",
      "type": "function"
    },
    {
      "inputs": [
        {
          "internalType": "uint16",
          "name": "_legacyChainId",
          "type": "uint16"
        }
      ],
      "name": "getV2ChainId",
      "outputs": [
        {
          "internalType": "uint16",
          "name": "",
          "type": "uint16"
        }
      ],
      "stateMutability": "view",
      "type": "function"
    },
    {
      "inputs": [
        {
          "internalType": "address",
          "name": "_ulnRadar",
          "type": "address"
        },
        {
          "internalType": "address",
          "name": "_relayerV2",
          "type": "address"
        }
      ],
      "name": "initialize",
      "outputs": [],
      "stateMutability": "nonpayable",
      "type": "function"
    },
    {
      "inputs": [
        {
          "internalType": "address",
          "name": "_relayerAddress",
          "type": "address"
        }
      ],
      "name": "isApproved",
      "outputs": [
        {
          "internalType": "bool",
          "name": "",
          "type": "bool"
        }
      ],
      "stateMutability": "view",
      "type": "function"
    },
    {
      "inputs": [
        {
          "internalType": "uint16",
          "name": "",
          "type": "uint16"
        }
      ],
      "name": "legacyToV2ChainId",
      "outputs": [
        {
          "internalType": "uint16",
          "name": "",
          "type": "uint16"
        }
      ],
      "stateMutability": "view",
      "type": "function"
    },
    {
      "inputs": [],
      "name": "owner",
      "outputs": [
        {
          "internalType": "address",
          "name": "",
          "type": "address"
        }
      ],
      "stateMutability": "view",
      "type": "function"
    },
    {
      "inputs": [],
      "name": "paused",
      "outputs": [
        {
          "internalType": "bool",
          "name": "",
          "type": "bool"
        }
      ],
      "stateMutability": "view",
      "type": "function"
    },
    {
      "inputs": [],
      "name": "relayerV2",
      "outputs": [
        {
          "internalType": "contract ILayerZeroRelayerV2PriceData",
          "name": "",
          "type": "address"
        }
      ],
      "stateMutability": "view",
      "type": "function"
    },
    {
      "inputs": [],
      "name": "renounceOwnership",
      "outputs": [],
      "stateMutability": "nonpayable",
      "type": "function"
    },
    {
      "inputs": [
        {
          "internalType": "address",
          "name": "_relayerAddress",
          "type": "address"
        },
        {
          "internalType": "bool",
          "name": "_approve",
          "type": "bool"
        }
      ],
      "name": "setApprovedAddress",
      "outputs": [],
      "stateMutability": "nonpayable",
      "type": "function"
    },
    {
      "inputs": [
        {
          "internalType": "uint16",
          "name": "_chainId",
          "type": "uint16"
        },
        {
          "internalType": "uint16",
          "name": "_outboundProofType",
          "type": "uint16"
        },
        {
          "internalType": "uint128",
          "name": "_dstNativeAmtCap",
          "type": "uint128"
        },
        {
          "internalType": "uint64",
          "name": "_baseGas",
          "type": "uint64"
        },
        {
          "internalType": "uint64",
          "name": "_gasPerByte",
          "type": "uint64"
        }
      ],
      "name": "setDstConfig",
      "outputs": [],
      "stateMutability": "nonpayable",
      "type": "function"
    },
    {
      "inputs": [
        {
          "internalType": "uint16",
          "name": "_chainId",
          "type": "uint16"
        },
        {
          "internalType": "uint128",
          "name": "_dstPriceRatio",
          "type": "uint128"
        },
        {
          "internalType": "uint128",
          "name": "_dstGasPriceInWei",
          "type": "uint128"
        }
      ],
      "name": "setDstPrice",
      "outputs": [],
      "stateMutability": "nonpayable",
      "type": "function"
    },
    {
      "inputs": [
        {
          "internalType": "bool",
          "name": "_paused",
          "type": "bool"
        }
      ],
      "name": "setPause",
      "outputs": [],
      "stateMutability": "nonpayable",
      "type": "function"
    },
    {
      "inputs": [
        {
          "internalType": "address",
          "name": "_stargateAddress",
          "type": "address"
        }
      ],
      "name": "setStargateAddress",
      "outputs": [],
      "stateMutability": "nonpayable",
      "type": "function"
    },
    {
      "inputs": [],
      "name": "stargateBridgeAddress",
      "outputs": [
        {
          "internalType": "address",
          "name": "",
          "type": "address"
        }
      ],
      "stateMutability": "view",
      "type": "function"
    },
    {
      "inputs": [
        {
          "internalType": "address",
          "name": "newOwner",
          "type": "address"
        }
      ],
      "name": "transferOwnership",
      "outputs": [],
      "stateMutability": "nonpayable",
      "type": "function"
    },
    {
      "inputs": [],
      "name": "uln",
      "outputs": [
        {
          "internalType": "contract ILayerZeroUltraLightNodeV2",
          "name": "",
          "type": "address"
        }
      ],
      "stateMutability": "view",
      "type": "function"
    },
    {
      "inputs": [
        {
          "internalType": "uint16",
          "name": "_srcChainId",
          "type": "uint16"
        },
        {
          "internalType": "address",
          "name": "_dstAddress",
          "type": "address"
        },
        {
          "internalType": "uint256",
          "name": "_gasLimit",
          "type": "uint256"
        },
        {
          "internalType": "bytes32",
          "name": "_blockHash",
          "type": "bytes32"
        },
        {
          "internalType": "bytes32",
          "name": "_data",
          "type": "bytes32"
        },
        {
          "internalType": "bytes",
          "name": "_transactionProof",
          "type": "bytes"
        }
      ],
      "name": "validateTransactionProofV1",
      "outputs": [],
      "stateMutability": "nonpayable",
      "type": "function"
    },
    {
      "inputs": [
        {
          "internalType": "uint16",
          "name": "_srcChainId",
          "type": "uint16"
        },
        {
          "internalType": "address",
          "name": "_dstAddress",
          "type": "address"
        },
        {
          "internalType": "uint256",
          "name": "_gasLimit",
          "type": "uint256"
        },
        {
          "internalType": "bytes32",
          "name": "_blockHash",
          "type": "bytes32"
        },
        {
          "internalType": "bytes32",
          "name": "_data",
          "type": "bytes32"
        },
        {
          "internalType": "bytes",
          "name": "_transactionProof",
          "type": "bytes"
        },
        {
          "internalType": "address payable",
          "name": "_to",
          "type": "address"
        }
      ],
      "name": "validateTransactionProofV2",
      "outputs": [],
      "stateMutability": "payable",
      "type": "function"
    },
    {
      "inputs": [
        {
          "internalType": "address payable",
          "name": "_to",
          "type": "address"
        },
        {
          "internalType": "uint256",
          "name": "_amount",
          "type": "uint256"
        }
      ],
      "name": "withdrawFee",
      "outputs": [],
      "stateMutability": "nonpayable",
      "type": "function"
    }
  ],
  "transactionHash": "0xb7cc57996e63eea9c6cdfb4533c23a9871bfa5ba625e86eee6f2341d2fbb70d7",
  "args": [],
  "numDeployments": 1,
  "solcInputHash": "92929ce7446f11c816cfe58b2e6011c7",
  "bytecode": "0x608060405234801561001057600080fd5b506001600055612077806100256000396000f3fe60806040526004361061014b5760003560e01c80636c473aff116100b6578063b8f8bad41161006f578063b8f8bad41461039a578063bedb86fb146103ba578063c03f1529146103da578063f136a874146103fa578063f2fde38b1461041a578063fd9be5221461043a5761014b565b80636c473aff146102f957806370d355801461030e578063715018a61461032e578063765a8a54146103435780638da5cb5b14610370578063b0f2c52c146103855761014b565b8063485cc95511610108578063485cc95514610228578063575765e2146102485780635886ea65146102685780635c975abb146102955780636348d269146102b7578063673448dd146102d95761014b565b806303343f54146101505780630508941e14610172578063205569391461018557806323161ff8146101bb578063252f7b01146101e85780633f10348714610208575b600080fd5b34801561015c57600080fd5b5061017061016b3660046117d4565b61045a565b005b610170610180366004611a00565b6104c1565b34801561019157600080fd5b506101a56101a0366004611964565b610676565b6040516101b29190611ee1565b60405180910390f35b3480156101c757600080fd5b506101db6101d6366004611add565b6106c7565b6040516101b29190611e84565b3480156101f457600080fd5b5061017061020336600461197e565b610760565b34801561021457600080fd5b50610170610223366004611b85565b610875565b34801561023457600080fd5b5061017061024336600461181b565b6108b8565b34801561025457600080fd5b50610170610263366004611853565b610a94565b34801561027457600080fd5b50610288610283366004611b06565b610b58565b6040516101b29190611f63565b3480156102a157600080fd5b506102aa610c4d565b6040516101b29190611c54565b3480156102c357600080fd5b506102cc610c56565b6040516101b29190611c0c565b3480156102e557600080fd5b506102aa6102f43660046117d4565b610c65565b34801561030557600080fd5b506102cc610c83565b34801561031a57600080fd5b506101a5610329366004611964565b610c92565b34801561033a57600080fd5b50610170610ca8565b34801561034f57600080fd5b5061036361035e366004611964565b610d54565b6040516101b29190611ebe565b34801561037c57600080fd5b506102cc610de1565b34801561039157600080fd5b506102cc610df0565b3480156103a657600080fd5b506101706103b5366004611a95565b610dff565b3480156103c657600080fd5b506101706103d5366004611887565b610e40565b3480156103e657600080fd5b506102886103f5366004611b06565b610eb5565b34801561040657600080fd5b506102aa6104153660046117d4565b610f44565b34801561042657600080fd5b506101706104353660046117d4565b610f59565b34801561044657600080fd5b506101706104553660046117f0565b61105c565b33610463610de1565b6001600160a01b03161461049f5761047a33610c65565b61049f5760405162461bcd60e51b815260040161049690611c5f565b60405180910390fd5b606880546001600160a01b0319166001600160a01b0392909216919091179055565b336104ca610de1565b6001600160a01b0316146104fd576104e133610c65565b6104fd5760405162461bcd60e51b815260040161049690611c5f565b60026000541415610555576040805162461bcd60e51b815260206004820152601f60248201527f5265656e7472616e637947756172643a207265656e7472616e742063616c6c00604482015290519081900360640190fd5b60026000819055506000816001600160a01b03163460405161057690611c09565b60006040518083038185875af1925050503d80600081146105b3576040519150601f19603f3d011682016040523d82523d6000602084013e6105b8565b606091505b50509050806105f85760405134906001600160a01b038416907f2c7a964ca3de5ec1d42d9822f9bbd0eb142a59cc9f855e9d93813b773192c7a390600090a35b60665460405163987fa2d560e01b81526001600160a01b039091169063987fa2d590610634908c908c908c908c908c908c908c90600401611ef0565b600060405180830381600087803b15801561064e57600080fd5b505af1158015610662573d6000803e3d6000fd5b505060016000555050505050505050505050565b61ffff8082166000908152606b60205260408120549091166106aa5760405162461bcd60e51b815260040161049690611d40565b5061ffff8082166000908152606b6020526040902054165b919050565b6106cf611734565b6067546001600160a01b03166323161ff86106e985610676565b846040518363ffffffff1660e01b8152600401610707929190611f4e565b60606040518083038186803b15801561071f57600080fd5b505afa158015610733573d6000803e3d6000fd5b505050506040513d601f19601f8201168201806040525081019061075791906118a1565b90505b92915050565b33610769610de1565b6001600160a01b03161461079c5761078033610c65565b61079c5760405162461bcd60e51b815260040161049690611c5f565b600260005414156107f4576040805162461bcd60e51b815260206004820152601f60248201527f5265656e7472616e637947756172643a207265656e7472616e742063616c6c00604482015290519081900360640190fd5b600260005560665460405163987fa2d560e01b81526001600160a01b039091169063987fa2d590610835908a908a908a908a908a908a908a90600401611ef0565b600060405180830381600087803b15801561084f57600080fd5b505af1158015610863573d6000803e3d6000fd5b50506001600055505050505050505050565b3361087e610de1565b6001600160a01b0316146108b15761089533610c65565b6108b15760405162461bcd60e51b815260040161049690611c5f565b5050505050565b60006108c26111a4565b90506001600160a01b038116610901576001600160a01b037fb53127684a568b3173ae13b9f8a6016e243e63b6e8ee1178d6a717850b5d610355610916565b336001600160a01b0382161461091657600080fd5b600154610100900460ff168061092f575061092f6111c9565b8061093d575060015460ff16155b6109785760405162461bcd60e51b815260040180806020018281038252602e815260200180611fd3602e913960400191505060405180910390fd5b600154610100900460ff161580156109a2576001805460ff1961ff00199091166101001716811790555b6109aa6111da565b606680546001600160a01b0319166001600160a01b0386161790556109d0306001610a94565b606780546001600160a01b0385166001600160a01b0319909116179055606b6020527fa775687211c2b3346a0f5a2a0e7590e6c1838453e3785e6dd2a8efd6265ddf15805461ffff199081166065179091557fb507b92927105c30ff6e8afc661972d5ba73e86e28bafa70cb531ddda52bdf04805482166066179055600c6000527f7cb4feddbcc8df84643f757126b63c4a4c8d049712222ca86464abd7231ed284805490911660701790558015610a8e576001805461ff00191690555b50505050565b610a9c61128b565b6001600160a01b0316610aad610de1565b6001600160a01b031614610af6576040805162461bcd60e51b81526020600482018190526024820152600080516020612022833981519152604482015290519081900360640190fd5b6001600160a01b03821660009081526069602052604090819020805460ff1916831515179055517fb10786d0bfa68fb1aa29552d9203e5f545f7c073ff0784da1de1d800986f102390610b4c9084908490611c39565b60405180910390a15050565b6066546000906001600160a01b03163314610b855760405162461bcd60e51b815260040161049690611dca565b612710841115610ba75760405162461bcd60e51b815260040161049690611c8e565b600080610bec89898988888080601f01602080910402602001604051908101604052809392919081815260200183838082843760009201919091525061128f92505050565b90925090506000610c07610c00888461147d565b84906114d6565b90507fdf21c415b78ed2552cc9971249e32a053abce6087a0ae0fbf3f78db5174a349381604051610c389190611f63565b60405180910390a19998505050505050505050565b606a5460ff1681565b6068546001600160a01b031681565b6001600160a01b031660009081526069602052604090205460ff1690565b6066546001600160a01b031681565b606b6020526000908152604090205461ffff1681565b610cb061128b565b6001600160a01b0316610cc1610de1565b6001600160a01b031614610d0a576040805162461bcd60e51b81526020600482018190526024820152600080516020612022833981519152604482015290519081900360640190fd5b6034546040516000916001600160a01b0316907f8be0079c531659141344cd1fd0a4f28419497f9722a3daafe3b4186f6b6457e0908390a3603480546001600160a01b0319169055565b610d5c611754565b6067546001600160a01b031663765a8a54610d7684610676565b6040518263ffffffff1660e01b8152600401610d929190611ee1565b604080518083038186803b158015610da957600080fd5b505afa158015610dbd573d6000803e3d6000fd5b505050506040513d601f19601f8201168201806040525081019061075a919061190c565b6034546001600160a01b031690565b6067546001600160a01b031681565b33610e08610de1565b6001600160a01b031614610e3b57610e1f33610c65565b610e3b5760405162461bcd60e51b815260040161049690611c5f565b505050565b610e4861128b565b6001600160a01b0316610e59610de1565b6001600160a01b031614610ea2576040805162461bcd60e51b81526020600482018190526024820152600080516020612022833981519152604482015290519081900360640190fd5b606a805460ff1916911515919091179055565b6000612710841115610ed95760405162461bcd60e51b815260040161049690611c8e565b600080610f1e89898988888080601f01602080910402602001604051908101604052809392919081815260200183838082843760009201919091525061128f92505050565b9092509050610f37610f30878361147d565b83906114d6565b9998505050505050505050565b60696020526000908152604090205460ff1681565b610f6161128b565b6001600160a01b0316610f72610de1565b6001600160a01b031614610fbb576040805162461bcd60e51b81526020600482018190526024820152600080516020612022833981519152604482015290519081900360640190fd5b6001600160a01b0381166110005760405162461bcd60e51b8152600401808060200182810382526026815260200180611fad6026913960400191505060405180910390fd5b6034546040516001600160a01b038084169216907f8be0079c531659141344cd1fd0a4f28419497f9722a3daafe3b4186f6b6457e090600090a3603480546001600160a01b0319166001600160a01b0392909216919091179055565b33611065610de1565b6001600160a01b0316146110985761107c33610c65565b6110985760405162461bcd60e51b815260040161049690611c5f565b6066546040516334a095fd60e11b81526000916001600160a01b0316906369412bfa906110c9903090600401611c0c565b60206040518083038186803b1580156110e157600080fd5b505afa1580156110f5573d6000803e3d6000fd5b505050506040513d601f19601f820116820180604052508101906111199190611bf1565b90508082111561113b5760405162461bcd60e51b815260040161049690611d84565b6066546040516303d8c5ef60e11b81526001600160a01b03909116906307b18bde9061116d9086908690600401611c20565b600060405180830381600087803b15801561118757600080fd5b505af115801561119b573d6000803e3d6000fd5b50505050505050565b7fb53127684a568b3173ae13b9f8a6016e243e63b6e8ee1178d6a717850b5d61035490565b60006111d430611530565b15905090565b600154610100900460ff16806111f357506111f36111c9565b80611201575060015460ff16155b61123c5760405162461bcd60e51b815260040180806020018281038252602e815260200180611fd3602e913960400191505060405180910390fd5b600154610100900460ff16158015611266576001805460ff1961ff00199091166101001716811790555b61126e611536565b6112766115d5565b8015611288576001805461ff00191690555b50565b3390565b606a54600090819060ff16156112b75760405162461bcd60e51b815260040161049690611df8565b8251602214806112c8575060428351115b6112e45760405162461bcd60e51b815260040161049690611cc3565b600283015160228401518061130b5760405162461bcd60e51b815260040161049690611e1f565b8161ffff166001148061132257508161ffff166002145b61133e5760405162461bcd60e51b815260040161049690611d09565b600061134989610d54565b905060006113578a8a6106c7565b905060008461ffff16600214156113a557604288015182516001600160801b03168111156113975760405162461bcd60e51b815260040161049690611e4d565b6113a182826114d6565b9150505b60006113df6113cb86856020015167ffffffffffffffff166114d690919063ffffffff16565b60208601516001600160801b03169061147d565b90506113eb82826114d6565b915061141c6402540be40061141686600001516001600160801b03168561147d90919063ffffffff16565b906116cd565b975061146c6402540be40061141686600001516001600160801b0316611466876040015167ffffffffffffffff1689602001516001600160801b031661147d90919063ffffffff16565b9061147d565b965050505050505094509492505050565b60008261148c5750600061075a565b8282028284828161149957fe5b04146107575760405162461bcd60e51b81526004018080602001828103825260218152602001806120016021913960400191505060405180910390fd5b600082820183811015610757576040805162461bcd60e51b815260206004820152601b60248201527f536166654d6174683a206164646974696f6e206f766572666c6f770000000000604482015290519081900360640190fd5b3b151590565b600154610100900460ff168061154f575061154f6111c9565b8061155d575060015460ff16155b6115985760405162461bcd60e51b815260040180806020018281038252602e815260200180611fd3602e913960400191505060405180910390fd5b600154610100900460ff16158015611276576001805460ff1961ff00199091166101001716811790558015611288576001805461ff001916905550565b600154610100900460ff16806115ee57506115ee6111c9565b806115fc575060015460ff16155b6116375760405162461bcd60e51b815260040180806020018281038252602e815260200180611fd3602e913960400191505060405180910390fd5b600154610100900460ff16158015611661576001805460ff1961ff00199091166101001716811790555b600061166b61128b565b603480546001600160a01b0319166001600160a01b038316908117909155604051919250906000907f8be0079c531659141344cd1fd0a4f28419497f9722a3daafe3b4186f6b6457e0908290a3508015611288576001805461ff001916905550565b6000808211611723576040805162461bcd60e51b815260206004820152601a60248201527f536166654d6174683a206469766973696f6e206279207a65726f000000000000604482015290519081900360640190fd5b81838161172c57fe5b049392505050565b604080516060810182526000808252602082018190529181019190915290565b604080518082019091526000808252602082015290565b803580151581146106c257600080fd5b60008083601f84011261178c578182fd5b50813567ffffffffffffffff8111156117a3578182fd5b6020830191508360208285010111156117bb57600080fd5b9250929050565b803561ffff811681146106c257600080fd5b6000602082840312156117e5578081fd5b813561075781611f6c565b60008060408385031215611802578081fd5b823561180d81611f6c565b946020939093013593505050565b6000806040838503121561182d578182fd5b823561183881611f6c565b9150602083013561184881611f6c565b809150509250929050565b60008060408385031215611865578182fd5b823561187081611f6c565b915061187e6020840161176b565b90509250929050565b600060208284031215611898578081fd5b6107578261176b565b6000606082840312156118b2578081fd5b6040516060810181811067ffffffffffffffff821117156118cf57fe5b60405282516118dd81611f81565b815260208301516118ed81611f96565b6020820152604083015161190081611f96565b60408201529392505050565b60006040828403121561191d578081fd5b6040516040810181811067ffffffffffffffff8211171561193a57fe5b604052825161194881611f81565b8152602083015161195881611f81565b60208201529392505050565b600060208284031215611975578081fd5b610757826117c2565b600080600080600080600060c0888a031215611998578283fd5b6119a1886117c2565b965060208801356119b181611f6c565b955060408801359450606088013593506080880135925060a088013567ffffffffffffffff8111156119e1578283fd5b6119ed8a828b0161177b565b989b979a50959850939692959293505050565b60008060008060008060008060e0898b031215611a1b578081fd5b611a24896117c2565b97506020890135611a3481611f6c565b965060408901359550606089013594506080890135935060a089013567ffffffffffffffff811115611a64578182fd5b611a708b828c0161177b565b90945092505060c0890135611a8481611f6c565b809150509295985092959890939650565b600080600060608486031215611aa9578081fd5b611ab2846117c2565b92506020840135611ac281611f81565b91506040840135611ad281611f81565b809150509250925092565b60008060408385031215611aef578182fd5b611af8836117c2565b915061187e602084016117c2565b60008060008060008060a08789031215611b1e578384fd5b611b27876117c2565b9550611b35602088016117c2565b94506040870135611b4581611f6c565b935060608701359250608087013567ffffffffffffffff811115611b67578283fd5b611b7389828a0161177b565b979a9699509497509295939492505050565b600080600080600060a08688031215611b9c578283fd5b611ba5866117c2565b9450611bb3602087016117c2565b93506040860135611bc381611f81565b92506060860135611bd381611f96565b91506080860135611be381611f96565b809150509295509295909350565b600060208284031215611c02578081fd5b5051919050565b90565b6001600160a01b0391909116815260200190565b6001600160a01b03929092168252602082015260400190565b6001600160a01b039290921682521515602082015260400190565b901515815260200190565b60208082526015908201527414995b185e595c8e881b9bdd08185c1c1c9bdd9959605a1b604082015260600190565b6020808252818101527f52656c617965723a205f7061796c6f616453697a6520746f6f6f6f6f20626967604082015260600190565b60208082526026908201527f52656c617965723a2077726f6e67205f61646170746572506172616d65746572604082015265732073697a6560d01b606082015260800190565b6020808252601b908201527f52656c617965723a20756e737570706f72746564207478547970650000000000604082015260600190565b60208082526024908201527f6765744c6567616379436861696e496428293a206c6f6f6b7570206e6f7420666040820152631bdd5b9960e21b606082015260800190565b60208082526026908201527f52656c617965723a206e6f7420656e6f7567682066656520666f722077697468604082015265191c985dd85b60d21b606082015260800190565b6020808252601490820152732932b630bcb2b91d1034b73b30b634b2103ab63760611b604082015260600190565b6020808252600d908201526c10591b5a5b8e881c185d5cd959609a1b604082015260600190565b60208082526014908201527352656c617965723a2067617320746f6f206c6f7760601b604082015260600190565b6020808252601f908201527f52656c617965723a206473744e6174697665416d7420746f6f206c6172676500604082015260600190565b81516001600160801b0316815260208083015167ffffffffffffffff90811691830191909152604092830151169181019190915260600190565b81516001600160801b039081168252602092830151169181019190915260400190565b61ffff91909116815260200190565b600061ffff8916825260018060a01b038816602083015286604083015285606083015284608083015260c060a08301528260c0830152828460e084013781830160e090810191909152601f909201601f191601019695505050505050565b61ffff92831681529116602082015260400190565b90815260200190565b6001600160a01b038116811461128857600080fd5b6001600160801b038116811461128857600080fd5b67ffffffffffffffff8116811461128857600080fdfe4f776e61626c653a206e6577206f776e657220697320746865207a65726f2061646472657373496e697469616c697a61626c653a20636f6e747261637420697320616c726561647920696e697469616c697a6564536166654d6174683a206d756c7469706c69636174696f6e206f766572666c6f774f776e61626c653a2063616c6c6572206973206e6f7420746865206f776e6572a2646970667358221220d22d6a19b09b063bdb81cc379e55f4693c007cfb71eaf62818d7868f6d7ee03064736f6c63430007060033",
  "devdoc": {
    "kind": "dev",
    "methods": {
      "owner()": {
        "details": "Returns the address of the current owner."
      },
      "renounceOwnership()": {
        "details": "Leaves the contract without owner. It will not be possible to call `onlyOwner` functions anymore. Can only be called by the current owner. NOTE: Renouncing ownership will leave the contract without an owner, thereby removing any functionality that is only available to the owner."
      },
      "transferOwnership(address)": {
        "details": "Transfers ownership of the contract to a new account (`newOwner`). Can only be called by the current owner."
      }
    },
    "version": 1
  },
  "userdoc": {
    "kind": "user",
    "methods": {},
    "version": 1
  },
  "storageLayout": {
    "storage": [
      {
        "astId": 2074,
        "contract": "contracts/RelayerV2Radar.sol:RelayerV2Radar",
        "label": "_status",
        "offset": 0,
        "slot": "0",
        "type": "t_uint256"
      },
      {
        "astId": 137,
        "contract": "contracts/RelayerV2Radar.sol:RelayerV2Radar",
        "label": "_initialized",
        "offset": 0,
        "slot": "1",
        "type": "t_bool"
      },
      {
        "astId": 140,
        "contract": "contracts/RelayerV2Radar.sol:RelayerV2Radar",
        "label": "_initializing",
        "offset": 1,
        "slot": "1",
        "type": "t_bool"
      },
      {
        "astId": 484,
        "contract": "contracts/RelayerV2Radar.sol:RelayerV2Radar",
        "label": "__gap",
        "offset": 0,
        "slot": "2",
        "type": "t_array(t_uint256)50_storage"
      },
      {
        "astId": 10,
        "contract": "contracts/RelayerV2Radar.sol:RelayerV2Radar",
        "label": "_owner",
        "offset": 0,
        "slot": "52",
        "type": "t_address"
      },
      {
        "astId": 129,
        "contract": "contracts/RelayerV2Radar.sol:RelayerV2Radar",
        "label": "__gap",
        "offset": 0,
        "slot": "53",
        "type": "t_array(t_uint256)49_storage"
      },
      {
        "astId": 5774,
        "contract": "contracts/RelayerV2Radar.sol:RelayerV2Radar",
        "label": "uln",
        "offset": 0,
        "slot": "102",
        "type": "t_contract(ILayerZeroUltraLightNodeV2)13475"
      },
      {
        "astId": 5776,
        "contract": "contracts/RelayerV2Radar.sol:RelayerV2Radar",
        "label": "relayerV2",
        "offset": 0,
        "slot": "103",
        "type": "t_contract(ILayerZeroRelayerV2PriceData)13203"
      },
      {
        "astId": 5778,
        "contract": "contracts/RelayerV2Radar.sol:RelayerV2Radar",
        "label": "stargateBridgeAddress",
        "offset": 0,
        "slot": "104",
        "type": "t_address"
      },
      {
        "astId": 5782,
        "contract": "contracts/RelayerV2Radar.sol:RelayerV2Radar",
        "label": "approvedAddresses",
        "offset": 0,
        "slot": "105",
        "type": "t_mapping(t_address,t_bool)"
      },
      {
        "astId": 5826,
        "contract": "contracts/RelayerV2Radar.sol:RelayerV2Radar",
        "label": "paused",
        "offset": 0,
        "slot": "106",
        "type": "t_bool"
      },
      {
        "astId": 5830,
        "contract": "contracts/RelayerV2Radar.sol:RelayerV2Radar",
        "label": "legacyToV2ChainId",
        "offset": 0,
        "slot": "107",
        "type": "t_mapping(t_uint16,t_uint16)"
      }
    ],
    "types": {
      "t_address": {
        "encoding": "inplace",
        "label": "address",
        "numberOfBytes": "20"
      },
      "t_array(t_uint256)49_storage": {
        "base": "t_uint256",
        "encoding": "inplace",
        "label": "uint256[49]",
        "numberOfBytes": "1568"
      },
      "t_array(t_uint256)50_storage": {
        "base": "t_uint256",
        "encoding": "inplace",
        "label": "uint256[50]",
        "numberOfBytes": "1600"
      },
      "t_bool": {
        "encoding": "inplace",
        "label": "bool",
        "numberOfBytes": "1"
      },
      "t_contract(ILayerZeroRelayerV2PriceData)13203": {
        "encoding": "inplace",
        "label": "contract ILayerZeroRelayerV2PriceData",
        "numberOfBytes": "20"
      },
      "t_contract(ILayerZeroUltraLightNodeV2)13475": {
        "encoding": "inplace",
        "label": "contract ILayerZeroUltraLightNodeV2",
        "numberOfBytes": "20"
      },
      "t_mapping(t_address,t_bool)": {
        "encoding": "mapping",
        "key": "t_address",
        "label": "mapping(address => bool)",
        "numberOfBytes": "32",
        "value": "t_bool"
      },
      "t_mapping(t_uint16,t_uint16)": {
        "encoding": "mapping",
        "key": "t_uint16",
        "label": "mapping(uint16 => uint16)",
        "numberOfBytes": "32",
        "value": "t_uint16"
      },
      "t_uint16": {
        "encoding": "inplace",
        "label": "uint16",
        "numberOfBytes": "2"
      },
      "t_uint256": {
        "encoding": "inplace",
        "label": "uint256",
        "numberOfBytes": "32"
      }
    }
  }
}