{
  "address": "0x66A71Dcef29A0fFBDBE3c6a460a3B5BC225Cd675",
  "abi": [
    {
      "inputs": [
        {
          "internalType": "address",
          "name": "_endpoint",
          "type": "address"
        }
      ],
      "stateMutability": "nonpayable",
      "type": "constructor"
    },
    {
      "anonymous": false,
      "inputs": [
        {
          "indexed": false,
          "internalType": "uint16",
          "name": "chainId",
          "type": "uint16"
        },
        {
          "indexed": false,
          "internalType": "address",
          "name": "lib",
          "type": "address"
        }
      ],
      "name": "AddInboundProofLibraryForChain",
      "type": "event"
    },
    {
      "anonymous": false,
      "inputs": [
        {
          "indexed": false,
          "internalType": "address",
          "name": "userApplication",
          "type": "address"
        },
        {
          "indexed": false,
          "internalType": "uint256",
          "name": "configType",
          "type": "uint256"
        },
        {
          "indexed": false,
          "internalType": "bytes",
          "name": "newConfig",
          "type": "bytes"
        }
      ],
      "name": "AppConfigUpdated",
      "type": "event"
    },
    {
      "anonymous": false,
      "inputs": [
        {
          "indexed": false,
          "internalType": "uint16",
          "name": "chainId",
          "type": "uint16"
        },
        {
          "indexed": false,
          "internalType": "uint16",
          "name": "proofType",
          "type": "uint16"
        }
      ],
      "name": "EnableSupportedOutboundProof",
      "type": "event"
    },
    {
      "anonymous": false,
      "inputs": [
        {
          "indexed": false,
          "internalType": "uint16",
          "name": "srcChainId",
          "type": "uint16"
        },
        {
          "indexed": false,
          "internalType": "address",
          "name": "oracle",
          "type": "address"
        },
        {
          "indexed": false,
          "internalType": "uint256",
          "name": "confirmations",
          "type": "uint256"
        },
        {
          "indexed": false,
          "internalType": "bytes32",
          "name": "blockhash",
          "type": "bytes32"
        }
      ],
      "name": "HashReceived",
      "type": "event"
    },
    {
      "anonymous": false,
      "inputs": [
        {
          "indexed": true,
          "internalType": "address",
          "name": "previousOwner",
          "type": "address"
        },
        {
          "indexed": true,
          "internalType": "address",
          "name": "newOwner",
          "type": "address"
        }
      ],
      "name": "OwnershipTransferred",
      "type": "event"
    },
    {
      "anonymous": false,
      "inputs": [
        {
          "indexed": false,
          "internalType": "uint16",
          "name": "chainId",
          "type": "uint16"
        },
        {
          "indexed": false,
          "internalType": "bytes",
          "name": "payload",
          "type": "bytes"
        }
      ],
      "name": "Packet",
      "type": "event"
    },
    {
      "anonymous": false,
      "inputs": [
        {
          "indexed": false,
          "internalType": "uint16",
          "name": "chainId",
          "type": "uint16"
        },
        {
          "indexed": false,
          "internalType": "uint64",
          "name": "nonce",
          "type": "uint64"
        },
        {
          "indexed": false,
          "internalType": "uint16",
          "name": "outboundProofType",
          "type": "uint16"
        },
        {
          "indexed": false,
          "internalType": "bytes",
          "name": "adapterParams",
          "type": "bytes"
        }
      ],
      "name": "RelayerParams",
      "type": "event"
    },
    {
      "anonymous": false,
      "inputs": [
        {
          "indexed": false,
          "internalType": "uint16",
          "name": "chainId",
          "type": "uint16"
        },
        {
          "indexed": false,
          "internalType": "uint256",
          "name": "size",
          "type": "uint256"
        }
      ],
      "name": "SetChainAddressSize",
      "type": "event"
    },
    {
      "anonymous": false,
      "inputs": [
        {
          "indexed": false,
          "internalType": "uint16",
          "name": "chainId",
          "type": "uint16"
        },
        {
          "indexed": false,
          "internalType": "uint16",
          "name": "proofType",
          "type": "uint16"
        },
        {
          "indexed": false,
          "internalType": "bytes",
          "name": "adapterParams",
          "type": "bytes"
        }
      ],
      "name": "SetDefaultAdapterParamsForChainId",
      "type": "event"
    },
    {
      "anonymous": false,
      "inputs": [
        {
          "indexed": false,
          "internalType": "uint16",
          "name": "chainId",
          "type": "uint16"
        },
        {
          "indexed": false,
          "internalType": "uint16",
          "name": "inboundProofLib",
          "type": "uint16"
        },
        {
          "indexed": false,
          "internalType": "uint64",
          "name": "inboundBlockConfirm",
          "type": "uint64"
        },
        {
          "indexed": false,
          "internalType": "address",
          "name": "relayer",
          "type": "address"
        },
        {
          "indexed": false,
          "internalType": "uint16",
          "name": "outboundProofType",
          "type": "uint16"
        },
        {
          "indexed": false,
          "internalType": "uint16",
          "name": "outboundBlockConfirm",
          "type": "uint16"
        },
        {
          "indexed": false,
          "internalType": "address",
          "name": "oracle",
          "type": "address"
        }
      ],
      "name": "SetDefaultConfigForChainId",
      "type": "event"
    },
    {
      "anonymous": false,
      "inputs": [
        {
          "indexed": false,
          "internalType": "address",
          "name": "tokenAddress",
          "type": "address"
        }
      ],
      "name": "SetLayerZeroToken",
      "type": "event"
    },
    {
      "anonymous": false,
      "inputs": [
        {
          "indexed": false,
          "internalType": "address",
          "name": "relayerFeeContract",
          "type": "address"
        }
      ],
      "name": "SetRelayerFeeContract",
      "type": "event"
    },
    {
      "anonymous": false,
      "inputs": [
        {
          "indexed": false,
          "internalType": "uint16",
          "name": "chainId",
          "type": "uint16"
        },
        {
          "indexed": false,
          "internalType": "bytes32",
          "name": "uln",
          "type": "bytes32"
        }
      ],
      "name": "SetRemoteUln",
      "type": "event"
    },
    {
      "anonymous": false,
      "inputs": [
        {
          "indexed": false,
          "internalType": "address",
          "name": "treasuryAddress",
          "type": "address"
        }
      ],
      "name": "SetTreasury",
      "type": "event"
    },
    {
      "anonymous": false,
      "inputs": [
        {
          "indexed": false,
          "internalType": "uint8",
          "name": "_type",
          "type": "uint8"
        },
        {
          "indexed": false,
          "internalType": "address",
          "name": "_owner",
          "type": "address"
        },
        {
          "indexed": false,
          "internalType": "address",
          "name": "_msgSender",
          "type": "address"
        },
        {
          "indexed": false,
          "internalType": "address",
          "name": "_to",
          "type": "address"
        },
        {
          "indexed": false,
          "internalType": "uint256",
          "name": "_amount",
          "type": "uint256"
        }
      ],
      "name": "WithdrawNative",
      "type": "event"
    },
    {
      "anonymous": false,
      "inputs": [
        {
          "indexed": false,
          "internalType": "address",
          "name": "_msgSender",
          "type": "address"
        },
        {
          "indexed": false,
          "internalType": "address",
          "name": "_to",
          "type": "address"
        },
        {
          "indexed": false,
          "internalType": "uint256",
          "name": "_amount",
          "type": "uint256"
        }
      ],
      "name": "WithdrawZRO",
      "type": "event"
    },
    {
      "inputs": [],
      "name": "BP_DENOMINATOR",
      "outputs": [
        {
          "internalType": "uint256",
          "name": "",
          "type": "uint256"
        }
      ],
      "stateMutability": "view",
      "type": "function"
    },
    {
      "inputs": [],
      "name": "CONFIG_TYPE_INBOUND_BLOCK_CONFIRMATIONS",
      "outputs": [
        {
          "internalType": "uint256",
          "name": "",
          "type": "uint256"
        }
      ],
      "stateMutability": "view",
      "type": "function"
    },
    {
      "inputs": [],
      "name": "CONFIG_TYPE_INBOUND_PROOF_LIBRARY_VERSION",
      "outputs": [
        {
          "internalType": "uint256",
          "name": "",
          "type": "uint256"
        }
      ],
      "stateMutability": "view",
      "type": "function"
    },
    {
      "inputs": [],
      "name": "CONFIG_TYPE_ORACLE",
      "outputs": [
        {
          "internalType": "uint256",
          "name": "",
          "type": "uint256"
        }
      ],
      "stateMutability": "view",
      "type": "function"
    },
    {
      "inputs": [],
      "name": "CONFIG_TYPE_OUTBOUND_BLOCK_CONFIRMATIONS",
      "outputs": [
        {
          "internalType": "uint256",
          "name": "",
          "type": "uint256"
        }
      ],
      "stateMutability": "view",
      "type": "function"
    },
    {
      "inputs": [],
      "name": "CONFIG_TYPE_OUTBOUND_PROOF_TYPE",
      "outputs": [
        {
          "internalType": "uint256",
          "name": "",
          "type": "uint256"
        }
      ],
      "stateMutability": "view",
      "type": "function"
    },
    {
      "inputs": [],
      "name": "CONFIG_TYPE_RELAYER",
      "outputs": [
        {
          "internalType": "uint256",
          "name": "",
          "type": "uint256"
        }
      ],
      "stateMutability": "view",
      "type": "function"
    },
    {
      "inputs": [],
      "name": "WITHDRAW_TYPE_ORACLE_QUOTED_FEES",
      "outputs": [
        {
          "internalType": "uint8",
          "name": "",
          "type": "uint8"
        }
      ],
      "stateMutability": "view",
      "type": "function"
    },
    {
      "inputs": [],
      "name": "WITHDRAW_TYPE_RELAYER_QUOTED_FEES",
      "outputs": [
        {
          "internalType": "uint8",
          "name": "",
          "type": "uint8"
        }
      ],
      "stateMutability": "view",
      "type": "function"
    },
    {
      "inputs": [],
      "name": "WITHDRAW_TYPE_TREASURY_PROTOCOL_FEES",
      "outputs": [
        {
          "internalType": "uint8",
          "name": "",
          "type": "uint8"
        }
      ],
      "stateMutability": "view",
      "type": "function"
    },
    {
      "inputs": [
        {
          "internalType": "uint16",
          "name": "_chainId",
          "type": "uint16"
        },
        {
          "internalType": "address",
          "name": "_library",
          "type": "address"
        }
      ],
      "name": "addInboundProofLibraryForChain",
      "outputs": [],
      "stateMutability": "nonpayable",
      "type": "function"
    },
    {
      "inputs": [
        {
          "internalType": "address",
          "name": "",
          "type": "address"
        },
        {
          "internalType": "uint16",
          "name": "",
          "type": "uint16"
        }
      ],
      "name": "appConfig",
      "outputs": [
        {
          "internalType": "uint16",
          "name": "inboundProofLibraryVersion",
          "type": "uint16"
        },
        {
          "internalType": "uint64",
          "name": "inboundBlockConfirmations",
          "type": "uint64"
        },
        {
          "internalType": "address",
          "name": "relayer",
          "type": "address"
        },
        {
          "internalType": "uint16",
          "name": "outboundProofType",
          "type": "uint16"
        },
        {
          "internalType": "uint64",
          "name": "outboundBlockConfirmations",
          "type": "uint64"
        },
        {
          "internalType": "address",
          "name": "oracle",
          "type": "address"
        }
      ],
      "stateMutability": "view",
      "type": "function"
    },
    {
      "inputs": [
        {
          "internalType": "uint16",
          "name": "",
          "type": "uint16"
        }
      ],
      "name": "chainAddressSizeMap",
      "outputs": [
        {
          "internalType": "uint256",
          "name": "",
          "type": "uint256"
        }
      ],
      "stateMutability": "view",
      "type": "function"
    },
    {
      "inputs": [
        {
          "internalType": "uint16",
          "name": "",
          "type": "uint16"
        },
        {
          "internalType": "uint16",
          "name": "",
          "type": "uint16"
        }
      ],
      "name": "defaultAdapterParams",
      "outputs": [
        {
          "internalType": "bytes",
          "name": "",
          "type": "bytes"
        }
      ],
      "stateMutability": "view",
      "type": "function"
    },
    {
      "inputs": [
        {
          "internalType": "uint16",
          "name": "",
          "type": "uint16"
        }
      ],
      "name": "defaultAppConfig",
      "outputs": [
        {
          "internalType": "uint16",
          "name": "inboundProofLibraryVersion",
          "type": "uint16"
        },
        {
          "internalType": "uint64",
          "name": "inboundBlockConfirmations",
          "type": "uint64"
        },
        {
          "internalType": "address",
          "name": "relayer",
          "type": "address"
        },
        {
          "internalType": "uint16",
          "name": "outboundProofType",
          "type": "uint16"
        },
        {
          "internalType": "uint64",
          "name": "outboundBlockConfirmations",
          "type": "uint64"
        },
        {
          "internalType": "address",
          "name": "oracle",
          "type": "address"
        }
      ],
      "stateMutability": "view",
      "type": "function"
    },
    {
      "inputs": [
        {
          "internalType": "uint16",
          "name": "_chainId",
          "type": "uint16"
        },
        {
          "internalType": "uint16",
          "name": "_proofType",
          "type": "uint16"
        }
      ],
      "name": "enableSupportedOutboundProof",
      "outputs": [],
      "stateMutability": "nonpayable",
      "type": "function"
    },
    {
      "inputs": [],
      "name": "endpoint",
      "outputs": [
        {
          "internalType": "contract ILayerZeroEndpoint",
          "name": "",
          "type": "address"
        }
      ],
      "stateMutability": "view",
      "type": "function"
    },
    {
      "inputs": [
        {
          "internalType": "uint16",
          "name": "_chainId",
          "type": "uint16"
        },
        {
          "internalType": "address",
          "name": "_ua",
          "type": "address"
        },
        {
          "internalType": "bytes",
          "name": "_payload",
          "type": "bytes"
        },
        {
          "internalType": "bool",
          "name": "_payInZRO",
          "type": "bool"
        },
        {
          "internalType": "bytes",
          "name": "_adapterParams",
          "type": "bytes"
        }
      ],
      "name": "estimateFees",
      "outputs": [
        {
          "internalType": "uint256",
          "name": "nativeFee",
          "type": "uint256"
        },
        {
          "internalType": "uint256",
          "name": "zroFee",
          "type": "uint256"
        }
      ],
      "stateMutability": "view",
      "type": "function"
    },
    {
      "inputs": [
        {
          "internalType": "uint16",
          "name": "_chainId",
          "type": "uint16"
        },
        {
          "internalType": "address",
          "name": "userApplicationAddress",
          "type": "address"
        }
      ],
      "name": "getAppConfig",
      "outputs": [
        {
          "components": [
            {
              "internalType": "uint16",
              "name": "inboundProofLibraryVersion",
              "type": "uint16"
            },
            {
              "internalType": "uint64",
              "name": "inboundBlockConfirmations",
              "type": "uint64"
            },
            {
              "internalType": "address",
              "name": "relayer",
              "type": "address"
            },
            {
              "internalType": "uint16",
              "name": "outboundProofType",
              "type": "uint16"
            },
            {
              "internalType": "uint64",
              "name": "outboundBlockConfirmations",
              "type": "uint64"
            },
            {
              "internalType": "address",
              "name": "oracle",
              "type": "address"
            }
          ],
          "internalType": "struct UltraLightNode.ApplicationConfiguration",
          "name": "",
          "type": "tuple"
        }
      ],
      "stateMutability": "view",
      "type": "function"
    },
    {
      "inputs": [
        {
          "internalType": "address",
          "name": "_oracle",
          "type": "address"
        },
        {
          "internalType": "uint16",
          "name": "_remoteChainId",
          "type": "uint16"
        },
        {
          "internalType": "bytes32",
          "name": "_lookupHash",
          "type": "bytes32"
        }
      ],
      "name": "getBlockHeaderData",
      "outputs": [
        {
          "components": [
            {
              "internalType": "uint256",
              "name": "confirmations",
              "type": "uint256"
            },
            {
              "internalType": "bytes32",
              "name": "data",
              "type": "bytes32"
            }
          ],
          "internalType": "struct UltraLightNode.BlockData",
          "name": "blockData",
          "type": "tuple"
        }
      ],
      "stateMutability": "view",
      "type": "function"
    },
    {
      "inputs": [
        {
          "internalType": "uint16",
          "name": "_chainId",
          "type": "uint16"
        },
        {
          "internalType": "address",
          "name": "userApplicationAddress",
          "type": "address"
        },
        {
          "internalType": "uint256",
          "name": "_configType",
          "type": "uint256"
        }
      ],
      "name": "getConfig",
      "outputs": [
        {
          "internalType": "bytes",
          "name": "",
          "type": "bytes"
        }
      ],
      "stateMutability": "view",
      "type": "function"
    },
    {
      "inputs": [
        {
          "internalType": "address",
          "name": "",
          "type": "address"
        },
        {
          "internalType": "uint16",
          "name": "",
          "type": "uint16"
        },
        {
          "internalType": "bytes32",
          "name": "",
          "type": "bytes32"
        }
      ],
      "name": "hashLookup",
      "outputs": [
        {
          "internalType": "uint256",
          "name": "confirmations",
          "type": "uint256"
        },
        {
          "internalType": "bytes32",
          "name": "data",
          "type": "bytes32"
        }
      ],
      "stateMutability": "view",
      "type": "function"
    },
    {
      "inputs": [
        {
          "internalType": "uint16",
          "name": "",
          "type": "uint16"
        },
        {
          "internalType": "uint16",
          "name": "",
          "type": "uint16"
        }
      ],
      "name": "inboundProofLibrary",
      "outputs": [
        {
          "internalType": "address",
          "name": "",
          "type": "address"
        }
      ],
      "stateMutability": "view",
      "type": "function"
    },
    {
      "inputs": [],
      "name": "layerZeroToken",
      "outputs": [
        {
          "internalType": "contract IERC20",
          "name": "",
          "type": "address"
        }
      ],
      "stateMutability": "view",
      "type": "function"
    },
    {
      "inputs": [
        {
          "internalType": "uint16",
          "name": "",
          "type": "uint16"
        }
      ],
      "name": "maxInboundProofLibrary",
      "outputs": [
        {
          "internalType": "uint16",
          "name": "",
          "type": "uint16"
        }
      ],
      "stateMutability": "view",
      "type": "function"
    },
    {
      "inputs": [
        {
          "internalType": "address",
          "name": "_oracle",
          "type": "address"
        }
      ],
      "name": "oracleQuotedAmount",
      "outputs": [
        {
          "internalType": "uint256",
          "name": "",
          "type": "uint256"
        }
      ],
      "stateMutability": "view",
      "type": "function"
    },
    {
      "inputs": [
        {
          "internalType": "address",
          "name": "",
          "type": "address"
        }
      ],
      "name": "oracleQuotedFees",
      "outputs": [
        {
          "internalType": "uint256",
          "name": "",
          "type": "uint256"
        }
      ],
      "stateMutability": "view",
      "type": "function"
    },
    {
      "inputs": [],
      "name": "owner",
      "outputs": [
        {
          "internalType": "address",
          "name": "",
          "type": "address"
        }
      ],
      "stateMutability": "view",
      "type": "function"
    },
    {
      "inputs": [
        {
          "internalType": "address",
          "name": "_relayer",
          "type": "address"
        }
      ],
      "name": "relayerQuotedAmount",
      "outputs": [
        {
          "internalType": "uint256",
          "name": "",
          "type": "uint256"
        }
      ],
      "stateMutability": "view",
      "type": "function"
    },
    {
      "inputs": [
        {
          "internalType": "address",
          "name": "",
          "type": "address"
        }
      ],
      "name": "relayerQuotedFees",
      "outputs": [
        {
          "internalType": "uint256",
          "name": "",
          "type": "uint256"
        }
      ],
      "stateMutability": "view",
      "type": "function"
    },
    {
      "inputs": [],
      "name": "renounceOwnership",
      "outputs": [],
      "stateMutability": "nonpayable",
      "type": "function"
    },
    {
      "inputs": [
        {
          "internalType": "address",
          "name": "_ua",
          "type": "address"
        },
        {
          "internalType": "uint64",
          "name": "_nonce",
          "type": "uint64"
        },
        {
          "internalType": "uint16",
          "name": "_chainId",
          "type": "uint16"
        },
        {
          "internalType": "bytes",
          "name": "_destination",
          "type": "bytes"
        },
        {
          "internalType": "bytes",
          "name": "_payload",
          "type": "bytes"
        },
        {
          "internalType": "address payable",
          "name": "_refundAddress",
          "type": "address"
        },
        {
          "internalType": "address",
          "name": "_zroPaymentAddress",
          "type": "address"
        },
        {
          "internalType": "bytes",
          "name": "_adapterParams",
          "type": "bytes"
        }
      ],
      "name": "send",
      "outputs": [],
      "stateMutability": "payable",
      "type": "function"
    },
    {
      "inputs": [
        {
          "internalType": "uint16",
          "name": "_chainId",
          "type": "uint16"
        },
        {
          "internalType": "uint256",
          "name": "_size",
          "type": "uint256"
        }
      ],
      "name": "setChainAddressSize",
      "outputs": [],
      "stateMutability": "nonpayable",
      "type": "function"
    },
    {
      "inputs": [
        {
          "internalType": "uint16",
          "name": "chainId",
          "type": "uint16"
        },
        {
          "internalType": "address",
          "name": "_ua",
          "type": "address"
        },
        {
          "internalType": "uint256",
          "name": "_configType",
          "type": "uint256"
        },
        {
          "internalType": "bytes",
          "name": "_config",
          "type": "bytes"
        }
      ],
      "name": "setConfig",
      "outputs": [],
      "stateMutability": "nonpayable",
      "type": "function"
    },
    {
      "inputs": [
        {
          "internalType": "uint16",
          "name": "_chainId",
          "type": "uint16"
        },
        {
          "internalType": "uint16",
          "name": "_proofType",
          "type": "uint16"
        },
        {
          "internalType": "bytes",
          "name": "_adapterParams",
          "type": "bytes"
        }
      ],
      "name": "setDefaultAdapterParamsForChainId",
      "outputs": [],
      "stateMutability": "nonpayable",
      "type": "function"
    },
    {
      "inputs": [
        {
          "internalType": "uint16",
          "name": "_chainId",
          "type": "uint16"
        },
        {
          "internalType": "uint16",
          "name": "_inboundProofLibraryVersion",
          "type": "uint16"
        },
        {
          "internalType": "uint64",
          "name": "_inboundBlockConfirmations",
          "type": "uint64"
        },
        {
          "internalType": "address",
          "name": "_relayer",
          "type": "address"
        },
        {
          "internalType": "uint16",
          "name": "_outboundProofType",
          "type": "uint16"
        },
        {
          "internalType": "uint16",
          "name": "_outboundBlockConfirmations",
          "type": "uint16"
        },
        {
          "internalType": "address",
          "name": "_oracle",
          "type": "address"
        }
      ],
      "name": "setDefaultConfigForChainId",
      "outputs": [],
      "stateMutability": "nonpayable",
      "type": "function"
    },
    {
      "inputs": [
        {
          "internalType": "address",
          "name": "_layerZeroToken",
          "type": "address"
        }
      ],
      "name": "setLayerZeroToken",
      "outputs": [],
      "stateMutability": "nonpayable",
      "type": "function"
    },
    {
      "inputs": [
        {
          "internalType": "uint16",
          "name": "_remoteChainId",
          "type": "uint16"
        },
        {
          "internalType": "bytes32",
          "name": "_remoteUln",
          "type": "bytes32"
        }
      ],
      "name": "setRemoteUln",
      "outputs": [],
      "stateMutability": "nonpayable",
      "type": "function"
    },
    {
      "inputs": [
        {
          "internalType": "address",
          "name": "_treasury",
          "type": "address"
        }
      ],
      "name": "setTreasury",
      "outputs": [],
      "stateMutability": "nonpayable",
      "type": "function"
    },
    {
      "inputs": [
        {
          "internalType": "uint16",
          "name": "",
          "type": "uint16"
        },
        {
          "internalType": "uint16",
          "name": "",
          "type": "uint16"
        }
      ],
      "name": "supportedOutboundProof",
      "outputs": [
        {
          "internalType": "bool",
          "name": "",
          "type": "bool"
        }
      ],
      "stateMutability": "view",
      "type": "function"
    },
    {
      "inputs": [
        {
          "internalType": "address",
          "name": "newOwner",
          "type": "address"
        }
      ],
      "name": "transferOwnership",
      "outputs": [],
      "stateMutability": "nonpayable",
      "type": "function"
    },
    {
      "inputs": [],
      "name": "treasuryContract",
      "outputs": [
        {
          "internalType": "contract ILayerZeroTreasury",
          "name": "",
          "type": "address"
        }
      ],
      "stateMutability": "view",
      "type": "function"
    },
    {
      "inputs": [],
      "name": "treasuryNativeFees",
      "outputs": [
        {
          "internalType": "uint256",
          "name": "",
          "type": "uint256"
        }
      ],
      "stateMutability": "view",
      "type": "function"
    },
    {
      "inputs": [],
      "name": "treasuryZROFees",
      "outputs": [
        {
          "internalType": "uint256",
          "name": "",
          "type": "uint256"
        }
      ],
      "stateMutability": "view",
      "type": "function"
    },
    {
      "inputs": [
        {
          "internalType": "uint16",
          "name": "",
          "type": "uint16"
        }
      ],
      "name": "ulnLookup",
      "outputs": [
        {
          "internalType": "bytes32",
          "name": "",
          "type": "bytes32"
        }
      ],
      "stateMutability": "view",
      "type": "function"
    },
    {
      "inputs": [
        {
          "internalType": "uint16",
          "name": "_srcChainId",
          "type": "uint16"
        },
        {
          "internalType": "bytes32",
          "name": "_lookupHash",
          "type": "bytes32"
        },
        {
          "internalType": "uint256",
          "name": "_confirmations",
          "type": "uint256"
        },
        {
          "internalType": "bytes32",
          "name": "_data",
          "type": "bytes32"
        }
      ],
      "name": "updateHash",
      "outputs": [],
      "stateMutability": "nonpayable",
      "type": "function"
    },
    {
      "inputs": [
        {
          "internalType": "uint16",
          "name": "_srcChainId",
          "type": "uint16"
        },
        {
          "internalType": "address",
          "name": "_dstAddress",
          "type": "address"
        },
        {
          "internalType": "uint256",
          "name": "_gasLimit",
          "type": "uint256"
        },
        {
          "internalType": "bytes32",
          "name": "_lookupHash",
          "type": "bytes32"
        },
        {
          "internalType": "bytes",
          "name": "_transactionProof",
          "type": "bytes"
        }
      ],
      "name": "validateTransactionProof",
      "outputs": [],
      "stateMutability": "nonpayable",
      "type": "function"
    },
    {
      "inputs": [
        {
          "internalType": "uint8",
          "name": "_type",
          "type": "uint8"
        },
        {
          "internalType": "address",
          "name": "_owner",
          "type": "address"
        },
        {
          "internalType": "address payable",
          "name": "_to",
          "type": "address"
        },
        {
          "internalType": "uint256",
          "name": "_amount",
          "type": "uint256"
        }
      ],
      "name": "withdrawNative",
      "outputs": [],
      "stateMutability": "nonpayable",
      "type": "function"
    },
    {
      "inputs": [
        {
          "internalType": "address",
          "name": "_to",
          "type": "address"
        },
        {
          "internalType": "uint256",
          "name": "_amount",
          "type": "uint256"
        }
      ],
      "name": "withdrawZRO",
      "outputs": [],
      "stateMutability": "nonpayable",
      "type": "function"
    }
  ],
  "transactionHash": "0x089c7919eb76e5b3a7325a01cdd4ad35bdf8cc93a9f086356215551ff63cba43",
  "args": [
    "0x3c2269811836af69497E5F486A85D7316753cf62"
  ],
  "numDeployments": 1,
  "solcInputHash": "a1e1c38c600013c198072c1dbc348301",
  "bytecode": "0x60a06040523480156200001157600080fd5b50604051620058d0380380620058d08339810160408190526200003491620000df565b6001600090815562000045620000db565b600180546001600160a01b0319166001600160a01b038316908117909155604051919250906000907f8be0079c531659141344cd1fd0a4f28419497f9722a3daafe3b4186f6b6457e0908290a3506001600160a01b038116620000c55760405162461bcd60e51b8152600401620000bc906200010f565b60405180910390fd5b60601b6001600160601b03191660805262000159565b3390565b600060208284031215620000f1578081fd5b81516001600160a01b038116811462000108578182fd5b9392505050565b6020808252602a908201527f4c617965725a65726f3a20656e64706f696e742063616e6e6f74206265207a65604082015269726f206164647265737360b01b606082015260800190565b60805160601c61574a62000186600039806114cc5280612591528061260b52806135a7525061574a6000f3fe60806040526004361061031e5760003560e01c80638317814a116101a5578063d56bc64b116100ec578063ebfa08e911610095578063f2fde38b1161006f578063f2fde38b146108a4578063f47a5feb146108c4578063f8e1734c146108d9578063f9dd8e0f146108f95761031e565b8063ebfa08e914610837578063ed28580a14610864578063f0f44260146108845761031e565b8063e6108a82116100c6578063e6108a82146107d7578063ea216c21146107f7578063eb0d4c31146108175761031e565b8063d56bc64b14610777578063db00719b14610797578063ddfdef5a146107b75761031e565b8063a183608c1161014e578063b77d22ad11610128578063b77d22ad14610708578063b8e7e3e01461071d578063d543c7741461074a5761031e565b8063a183608c146106a6578063a4662222146106c6578063abe685cd146106f35761031e565b80638da5cb5b1161017f5780638da5cb5b1461065c578063904d3b8d14610671578063959f5943146106865761031e565b80638317814a146105fc5780638525b7111461061c57806387078f9f1461063c5761031e565b80634d0ca1b4116102695780635e280f1111610212578063715018a6116101ec578063715018a6146105b25780638140666e146105c75780638207f79d146105dc5761031e565b80635e280f111461055d57806361aa19da14610572578063704316e5146105925761031e565b806352d3b5001161024357806352d3b500146105085780635b5a2678146105285780635c0115311461053d5761031e565b80634d0ca1b4146104c05780634d3a0f7c146104d557806352d2871f146104e85761031e565b80632cfacb06116102cb57806331bd2430116102a557806331bd24301461046857806340a7bb101461047d57806349148c37146104ab5761031e565b80632cfacb06146103ff5780632e9959ec146104145780632f813464146104365761031e565b806318da0011116102fc57806318da00111461039d57806322c10776146103b25780632a819bbf146103d25761031e565b806302e72c631461032357806307b9ca7c14610359578063096607f81461037b575b600080fd5b34801561032f57600080fd5b5061034361033e366004614072565b61090e565b60405161035091906148c8565b60405180910390f35b34801561036557600080fd5b5061036e610920565b6040516103509190614813565b34801561038757600080fd5b5061039b6103963660046145e2565b61093c565b005b3480156103a957600080fd5b5061036e610d24565b3480156103be57600080fd5b5061039b6103cd3660046146ab565b610d40565b3480156103de57600080fd5b506103f26103ed366004614562565b610f53565b60405161035091906148fc565b34801561040b57600080fd5b50610343611015565b34801561042057600080fd5b5061042961101a565b60405161035091906155b5565b34801561044257600080fd5b506104566104513660046142fd565b61101f565b60405161035096959493929190615504565b34801561047457600080fd5b506103436110b0565b34801561048957600080fd5b5061049d610498366004614346565b6110b5565b604051610350929190615592565b3480156104b757600080fd5b506103436114c0565b3480156104cc57600080fd5b506104296114c5565b61039b6104e3366004614131565b6114ca565b3480156104f457600080fd5b506103f26105033660046143f1565b611de2565b34801561051457600080fd5b5061039b610523366004614072565b6121a5565b34801561053457600080fd5b506103436122e1565b34801561054957600080fd5b5061039b610558366004614420565b6122e7565b34801561056957600080fd5b5061036e612609565b34801561057e57600080fd5b5061034361058d366004614072565b61262d565b34801561059e57600080fd5b5061039b6105ad366004614528565b612659565b3480156105be57600080fd5b5061039b6126ee565b3480156105d357600080fd5b506103436127eb565b3480156105e857600080fd5b5061039b6105f7366004614319565b6127f0565b34801561060857600080fd5b5061039b61061736600461457f565b6129bc565b34801561062857600080fd5b5061039b610637366004614106565b612ab9565b34801561064857600080fd5b5061039b61065736600461450b565b612bc5565b34801561066857600080fd5b5061036e612ccc565b34801561067d57600080fd5b50610343612ce8565b34801561069257600080fd5b506103436106a13660046142fd565b612ced565b3480156106b257600080fd5b506103436106c1366004614072565b612cff565b3480156106d257600080fd5b506106e66106e1366004614319565b612d11565b60405161035091906151d4565b3480156106ff57600080fd5b50610343612f20565b34801561071457600080fd5b5061034361101a565b34801561072957600080fd5b5061073d6107383660046142fd565b612f26565b6040516103509190615264565b34801561075657600080fd5b5061076a610765366004614562565b612f3c565b60405161035091906148a5565b34801561078357600080fd5b5061049d6107923660046140c6565b612f5c565b3480156107a357600080fd5b5061036e6107b2366004614562565b612f86565b3480156107c357600080fd5b506104566107d236600461408e565b612fb9565b3480156107e357600080fd5b506103436107f2366004614072565b613055565b34801561080357600080fd5b506103436108123660046142fd565b61307d565b34801561082357600080fd5b5061039b610832366004614562565b61308f565b34801561084357600080fd5b506108576108523660046140c6565b613198565b604051610350919061524d565b34801561087057600080fd5b5061039b61087f36600461450b565b6131f9565b34801561089057600080fd5b5061039b61089f366004614072565b613300565b3480156108b057600080fd5b5061039b6108bf366004614072565b613431565b3480156108d057600080fd5b5061034361359f565b3480156108e557600080fd5b5061039b6108f436600461449a565b6135a5565b34801561090557600080fd5b506104296114c0565b60056020526000908152604090205481565b60025473ffffffffffffffffffffffffffffffffffffffff1681565b610944613939565b73ffffffffffffffffffffffffffffffffffffffff16610962612ccc565b73ffffffffffffffffffffffffffffffffffffffff16146109ca576040805162461bcd60e51b815260206004820181905260248201527f4f776e61626c653a2063616c6c6572206973206e6f7420746865206f776e6572604482015290519081900360640190fd5b61ffff8088166000908152600c60205260409020548116908716118015906109f6575060008661ffff16115b610a1b5760405162461bcd60e51b8152600401610a1290614dfb565b60405180910390fd5b60008567ffffffffffffffff1611610a455760405162461bcd60e51b8152600401610a129061511a565b73ffffffffffffffffffffffffffffffffffffffff8416610a785760405162461bcd60e51b8152600401610a1290614acb565b61ffff8088166000908152600d602090815260408083209387168352929052205460ff16610ab85760405162461bcd60e51b8152600401610a129061490f565b60008261ffff1611610adc5760405162461bcd60e51b8152600401610a1290614fa6565b73ffffffffffffffffffffffffffffffffffffffff8116610b0f5760405162461bcd60e51b8152600401610a1290614c19565b6040518060c001604052808761ffff1681526020018667ffffffffffffffff1681526020018573ffffffffffffffffffffffffffffffffffffffff1681526020018461ffff1681526020018361ffff1667ffffffffffffffff1681526020018273ffffffffffffffffffffffffffffffffffffffff16815250600960008961ffff1661ffff16815260200190815260200160002060008201518160000160006101000a81548161ffff021916908361ffff16021790555060208201518160000160026101000a81548167ffffffffffffffff021916908367ffffffffffffffff160217905550604082015181600001600a6101000a81548173ffffffffffffffffffffffffffffffffffffffff021916908373ffffffffffffffffffffffffffffffffffffffff160217905550606082015181600001601e6101000a81548161ffff021916908361ffff16021790555060808201518160010160006101000a81548167ffffffffffffffff021916908367ffffffffffffffff16021790555060a08201518160010160086101000a81548173ffffffffffffffffffffffffffffffffffffffff021916908373ffffffffffffffffffffffffffffffffffffffff1602179055509050507f45bb8a2b6b05457ff80b84be5bf06f2d05069fa8099fcb9d8e34149654b4d5c287878787878787604051610d1397969594939291906154a7565b60405180910390a150505050505050565b60035473ffffffffffffffffffffffffffffffffffffffff1681565b60026000541415610d98576040805162461bcd60e51b815260206004820152601f60248201527f5265656e7472616e637947756172643a207265656e7472616e742063616c6c00604482015290519081900360640190fd5b600260005560ff8416610df15760035473ffffffffffffffffffffffffffffffffffffffff163314610ddc5760405162461bcd60e51b8152600401610a1290614dc4565b600654610de9908261393d565b600655610e7f565b60ff841660011415610e2c5733600090815260046020526040902054610e17908261393d565b33600090815260046020526040902055610e7f565b60ff841660021415610e675733600090815260056020526040902054610e52908261393d565b33600090815260056020526040902055610e7f565b60405162461bcd60e51b8152600401610a1290615003565b60008273ffffffffffffffffffffffffffffffffffffffff1682604051610ea590614792565b60006040518083038185875af1925050503d8060008114610ee2576040519150601f19603f3d011682016040523d82523d6000602084013e610ee7565b606091505b5050905080610f085760405162461bcd60e51b8152600401610a12906149da565b7f163adce0473e267e1db8ecb524c0fcdceda62c3e6f231966bbb252e0104325378585338686604051610f3f9594939291906155c3565b60405180910390a150506001600055505050565b600a6020908152600092835260408084208252918352918190208054825160026001831615610100027fffffffffffffffffffffffffffffffffffffffffffffffffffffffffffffffff0190921691909104601f81018590048502820185019093528281529290919083018282801561100d5780601f10610fe25761010080835404028352916020019161100d565b820191906000526020600020905b815481529060010190602001808311610ff057829003601f168201915b505050505081565b600381565b600181565b6009602052600090815260409020805460019091015461ffff8083169267ffffffffffffffff62010000820481169373ffffffffffffffffffffffffffffffffffffffff6a010000000000000000000084048116947e010000000000000000000000000000000000000000000000000000000000009094049093169291811691680100000000000000009091041686565b600681565b604080516020601f840181900481028201810190925282815260009182918a918a918991859190899089908190840183828082843760009201829052509394506111059250879150869050612d11565b905060008251600014156112825761ffff8681166000908152600a60209081526040808320606087015190941683529281528282208054845160026001831615610100027fffffffffffffffffffffffffffffffffffffffffffffffffffffffffffffffff0190921691909104601f8101849004840282018401909552848152929390918301828280156111da5780601f106111af576101008083540402835291602001916111da565b820191906000526020600020905b8154815290600101906020018083116111bd57829003601f168201915b50505050509050826040015173ffffffffffffffffffffffffffffffffffffffff1663e54a22158885606001518989866040518663ffffffff1660e01b815260040161122a9594939291906153de565b60206040518083038186803b15801561124257600080fd5b505afa158015611256573d6000803e3d6000fd5b505050506040513d601f19601f8201168201806040525081019061127a9190614677565b91505061131e565b816040015173ffffffffffffffffffffffffffffffffffffffff1663e54a22158784606001518888886040518663ffffffff1660e01b81526004016112cb9594939291906153de565b60206040518083038186803b1580156112e357600080fd5b505afa1580156112f7573d6000803e3d6000fd5b505050506040513d601f19601f8201168201806040525081019061131b9190614677565b90505b60a082015160608301516040517f0b4d510700000000000000000000000000000000000000000000000000000000815260009273ffffffffffffffffffffffffffffffffffffffff1691630b4d51079161137c918b91600401615373565b60206040518083038186803b15801561139457600080fd5b505afa1580156113a8573d6000803e3d6000fd5b505050506040513d601f19601f820116820180604052508101906113cc9190614677565b90506000600360009054906101000a900473ffffffffffffffffffffffffffffffffffffffff1673ffffffffffffffffffffffffffffffffffffffff16635cbbbd758e85856040518463ffffffff1660e01b815260040161142f939291906148b0565b60206040518083038186803b15801561144757600080fd5b505afa15801561145b573d6000803e3d6000fd5b505050506040513d601f19601f8201168201806040525081019061147f9190614677565b90508c61148f5780995089611494565b809850885b506114ab9050816114a58b8561399a565b9061399a565b98505050505050505097509795505050505050565b600281565b600081565b7f000000000000000000000000000000000000000000000000000000000000000073ffffffffffffffffffffffffffffffffffffffff16331461151f5760405162461bcd60e51b8152600401610a1290614f6f565b600061152b8a8d612d11565b61ffff8b166000908152601060205260409020549091508c908c908c906115645760405162461bcd60e51b8152600401610a1290614bbc565b6000808560a0015173ffffffffffffffffffffffffffffffffffffffff16630b4d51078488606001516040518363ffffffff1660e01b81526004016115aa929190615373565b60206040518083038186803b1580156115c257600080fd5b505afa1580156115d6573d6000803e3d6000fd5b505050506040513d601f19601f820116820180604052508101906115fa9190614677565b60a087015173ffffffffffffffffffffffffffffffffffffffff16600090815260046020526040902054909150611631908261399a565b60a087015173ffffffffffffffffffffffffffffffffffffffff1660009081526004602052604090819020919091558601518b908861187b5761ffff8581166000908152600a6020908152604080832060608d015190941683529281528282208054845160026001831615610100027fffffffffffffffffffffffffffffffffffffffffffffffffffffffffffffffff0190921691909104601f8101849004840282018401909552848152929390918301828280156117315780601f1061170657610100808354040283529160200191611731565b820191906000526020600020905b81548152906001019060200180831161171457829003601f168201915b5050505060608b01516040517fe54a221500000000000000000000000000000000000000000000000000000000815292935073ffffffffffffffffffffffffffffffffffffffff85169263e54a22159250611796918a918d90899088906004016153de565b60206040518083038186803b1580156117ae57600080fd5b505afa1580156117c2573d6000803e3d6000fd5b505050506040513d601f19601f820116820180604052508101906117e69190614677565b60608a01516040517f3a5fb82a00000000000000000000000000000000000000000000000000000000815291965073ffffffffffffffffffffffffffffffffffffffff841691633a5fb82a91611843918a9190869060040161544f565b600060405180830381600087803b15801561185d57600080fd5b505af1158015611871573d6000803e3d6000fd5b50505050506119a4565b8073ffffffffffffffffffffffffffffffffffffffff1663e54a2215868a606001518a868f8f6040518763ffffffff1660e01b81526004016118c296959493929190615388565b60206040518083038186803b1580156118da57600080fd5b505afa1580156118ee573d6000803e3d6000fd5b505050506040513d601f19601f820116820180604052508101906119129190614677565b60608901516040517f3a5fb82a00000000000000000000000000000000000000000000000000000000815291955073ffffffffffffffffffffffffffffffffffffffff831691633a5fb82a91611971918991908f908f90600401615427565b600060405180830381600087803b15801561198b57600080fd5b505af115801561199f573d6000803e3d6000fd5b505050505b60408089015173ffffffffffffffffffffffffffffffffffffffff166000908152600560205220546119d6908561399a565b6040808a015173ffffffffffffffffffffffffffffffffffffffff166000908152600560205281902091909155606089015190517fb8a7262132db1f61626604a31c3de81dc1a5bb0f1511dfa70d626ab1b88b52c291611a3d9188918a918f908f9061555a565b60405180910390a1506000905073ffffffffffffffffffffffffffffffffffffffff8a161580611a83575060025473ffffffffffffffffffffffffffffffffffffffff16155b6003546040517f5cbbbd7500000000000000000000000000000000000000000000000000000000815291925060009173ffffffffffffffffffffffffffffffffffffffff90911690635cbbbd7590611ae490851590889088906004016148b0565b60206040518083038186803b158015611afc57600080fd5b505afa158015611b10573d6000803e3d6000fd5b505050506040513d601f19601f82011682018060405250810190611b349190614677565b90508015611c04578115611b6357600654611b4f908261399a565b600655611b5c848261399a565b9350611c04565b8673ffffffffffffffffffffffffffffffffffffffff168b73ffffffffffffffffffffffffffffffffffffffff161480611bb2575073ffffffffffffffffffffffffffffffffffffffff8b1632145b611bce5760405162461bcd60e51b8152600401610a1290614b5f565b600254611bf39073ffffffffffffffffffffffffffffffffffffffff168c30846139f4565b600754611c00908261399a565b6007555b50611c119050828261399a565b915050600083858f8f8f8f604051602001611c3196959493929190614795565b60405160208183030381529060405290507fe8d23d927749ec8e512eb885679c2977d57068839d8cca1a85685dbbea0648f68382604051611c739291906152e8565b60405180910390a160a0860151606087015160808801516040517f6653057900000000000000000000000000000000000000000000000000000000815273ffffffffffffffffffffffffffffffffffffffff90931692636653057992611cdd92889260040161547f565b600060405180830381600087803b158015611cf757600080fd5b505af1158015611d0b573d6000803e3d6000fd5b505050505034811115611d305760405162461bcd60e51b8152600401610a1290614a11565b6000611d3c348361393d565b90508015611dcf5760008a73ffffffffffffffffffffffffffffffffffffffff1682604051611d6a90614792565b60006040518083038185875af1925050503d8060008114611da7576040519150601f19603f3d011682016040523d82523d6000602084013e611dac565b606091505b5050905080611dcd5760405162461bcd60e51b8152600401610a1290614b28565b505b5050505050505050505050505050505050565b73ffffffffffffffffffffffffffffffffffffffff8216600090815260086020908152604080832061ffff8716845290915290206060906001831415611e8357805461ffff16611e6d5761ffff808616600090815260096020908152604091829020549151611e5693929092169101615264565b60405160208183030381529060405291505061219e565b8054604051611e569161ffff1690602001615264565b6002831415611ef957805462010000900467ffffffffffffffff16611ed75761ffff8516600090815260096020908152604091829020549151611e569262010000900467ffffffffffffffff1691016155a0565b8054604051611e569162010000900467ffffffffffffffff16906020016155a0565b6003831415611fab5780546a0100000000000000000000900473ffffffffffffffffffffffffffffffffffffffff16611f755761ffff8516600090815260096020908152604091829020549151611e56926a0100000000000000000000900473ffffffffffffffffffffffffffffffffffffffff169101614813565b8054604051611e56916a0100000000000000000000900473ffffffffffffffffffffffffffffffffffffffff1690602001614813565b60048314156120645780547e01000000000000000000000000000000000000000000000000000000000000900461ffff1661202c5761ffff808616600090815260096020908152604091829020549151611e56937e010000000000000000000000000000000000000000000000000000000000009093049092169101615264565b8054604051611e56917e01000000000000000000000000000000000000000000000000000000000000900461ffff1690602001615264565b60058314156120d157600181015467ffffffffffffffff166120b25761ffff8516600090815260096020908152604091829020600101549151611e569267ffffffffffffffff1691016155a0565b6001810154604051611e569167ffffffffffffffff16906020016155a0565b600683141561218657600181015468010000000000000000900473ffffffffffffffffffffffffffffffffffffffff1661214f5761ffff8516600090815260096020908152604091829020600101549151611e569268010000000000000000900473ffffffffffffffffffffffffffffffffffffffff169101614813565b6001810154604051611e569168010000000000000000900473ffffffffffffffffffffffffffffffffffffffff1690602001614813565b60405162461bcd60e51b8152600401610a12906149a3565b9392505050565b6121ad613939565b73ffffffffffffffffffffffffffffffffffffffff166121cb612ccc565b73ffffffffffffffffffffffffffffffffffffffff1614612233576040805162461bcd60e51b815260206004820181905260248201527f4f776e61626c653a2063616c6c6572206973206e6f7420746865206f776e6572604482015290519081900360640190fd5b73ffffffffffffffffffffffffffffffffffffffff81166122665760405162461bcd60e51b8152600401610a1290614a6e565b600280547fffffffffffffffffffffffff00000000000000000000000000000000000000001673ffffffffffffffffffffffffffffffffffffffff83161790556040517f33d644987381deff4408951d55afa136f124e22a7810b163b2aaa3ebef770f64906122d6908390614813565b60405180910390a150565b60065481565b60006122f38787612d11565b604081015190915073ffffffffffffffffffffffffffffffffffffffff16331461232f5760405162461bcd60e51b8152600401610a1290614cad565b612337613e26565b61ffff8089166000818152600b60209081526040808320875190951683529381528382205460a087015173ffffffffffffffffffffffffffffffffffffffff9081168452600f83528584209484529382528483208a84528252939091209085015181549290931692909167ffffffffffffffff90911611156123cb5760405162461bcd60e51b8152600401610a1290615177565b61ffff8a166000908152600e60205260409081902054600183015491517fb71e0f71000000000000000000000000000000000000000000000000000000008152909173ffffffffffffffffffffffffffffffffffffffff85169163b71e0f719161243d918b908b9087906004016148d1565b600060405180830381600087803b15801561245757600080fd5b505af115801561246b573d6000803e3d6000fd5b505050506040513d6000823e601f3d9081017fffffffffffffffffffffffffffffffffffffffffffffffffffffffffffffffe01682016040526124b19190810190614221565b60a081015161ffff8d166000908152601060205260409020549195501492506124ef9150505760405162461bcd60e51b8152600401610a1290615060565b8673ffffffffffffffffffffffffffffffffffffffff16816060015173ffffffffffffffffffffffffffffffffffffffff161461253e5760405162461bcd60e51b8152600401610a1290614c76565b80516080820151606083015160408085015160c086015191517fc2fa481300000000000000000000000000000000000000000000000000000000815273ffffffffffffffffffffffffffffffffffffffff7f0000000000000000000000000000000000000000000000000000000000000000169563c2fa4813956125cd959194909391928e9190600401615305565b600060405180830381600087803b1580156125e757600080fd5b505af11580156125fb573d6000803e3d6000fd5b505050505050505050505050565b7f000000000000000000000000000000000000000000000000000000000000000081565b73ffffffffffffffffffffffffffffffffffffffff81166000908152600460205260409020545b919050565b336000908152600f6020908152604080832061ffff88168452825280832086845290915290208054831161269f5760405162461bcd60e51b8152600401610a1290614d41565b828155600181018290556040517fc5e97f049604c4d8626704341240f021a22cee0d8b66ec306a45344be67733a0906126df90879033908790899061529d565b60405180910390a15050505050565b6126f6613939565b73ffffffffffffffffffffffffffffffffffffffff16612714612ccc565b73ffffffffffffffffffffffffffffffffffffffff161461277c576040805162461bcd60e51b815260206004820181905260248201527f4f776e61626c653a2063616c6c6572206973206e6f7420746865206f776e6572604482015290519081900360640190fd5b60015460405160009173ffffffffffffffffffffffffffffffffffffffff16907f8be0079c531659141344cd1fd0a4f28419497f9722a3daafe3b4186f6b6457e0908390a3600180547fffffffffffffffffffffffff0000000000000000000000000000000000000000169055565b600481565b6127f8613939565b73ffffffffffffffffffffffffffffffffffffffff16612816612ccc565b73ffffffffffffffffffffffffffffffffffffffff161461287e576040805162461bcd60e51b815260206004820181905260248201527f4f776e61626c653a2063616c6c6572206973206e6f7420746865206f776e6572604482015290519081900360640190fd5b73ffffffffffffffffffffffffffffffffffffffff81166128b15760405162461bcd60e51b8152600401610a1290614ce4565b61ffff8281166000908152600c60205260409020548116106128e55760405162461bcd60e51b8152600401610a1290614f12565b61ffff8083166000908152600c60209081526040808320805480861660010186167fffffffffffffffffffffffffffffffffffffffffffffffffffffffffffff00009091161790819055600b835281842094168352929052819020805473ffffffffffffffffffffffffffffffffffffffff84167fffffffffffffffffffffffff0000000000000000000000000000000000000000909116179055517f802d55279d51813cb7a9a98e8fd2d7bec5346cb830901c11b85d1650cb857e9a906129b09084908490615273565b60405180910390a15050565b6129c4613939565b73ffffffffffffffffffffffffffffffffffffffff166129e2612ccc565b73ffffffffffffffffffffffffffffffffffffffff1614612a4a576040805162461bcd60e51b815260206004820181905260248201527f4f776e61626c653a2063616c6c6572206973206e6f7420746865206f776e6572604482015290519081900360640190fd5b61ffff8085166000908152600a60209081526040808320938716835292905220612a75908383613e64565b507f4a5695eee2a74d548d5f5c485a3de99ace99e3b664c8e30a90f49be6ebb5493284848484604051612aab9493929190615427565b60405180910390a150505050565b60026000541415612b11576040805162461bcd60e51b815260206004820152601f60248201527f5265656e7472616e637947756172643a207265656e7472616e742063616c6c00604482015290519081900360640190fd5b600260005560035473ffffffffffffffffffffffffffffffffffffffff163314612b4d5760405162461bcd60e51b8152600401610a129061496c565b600754612b5a908261393d565b600755600254612b819073ffffffffffffffffffffffffffffffffffffffff168383613a8f565b7f3a20c8c3cd1848485ae8261a52398bb9b26f195b717306b3cf7f058e62c095d5338383604051612bb493929190614834565b60405180910390a150506001600055565b612bcd613939565b73ffffffffffffffffffffffffffffffffffffffff16612beb612ccc565b73ffffffffffffffffffffffffffffffffffffffff1614612c53576040805162461bcd60e51b815260206004820181905260248201527f4f776e61626c653a2063616c6c6572206973206e6f7420746865206f776e6572604482015290519081900360640190fd5b61ffff82166000908152600e602052604090205415612c845760405162461bcd60e51b8152600401610a12906150bd565b61ffff82166000908152600e602052604090819020829055517f0611bb2107e385b79ec826fff8ecc1c1248a7aae3c875c96668f8cfbf1734220906129b090849084906152d4565b60015473ffffffffffffffffffffffffffffffffffffffff1690565b600581565b600e6020526000908152604090205481565b60046020526000908152604090205481565b612d19613f0e565b73ffffffffffffffffffffffffffffffffffffffff808316600090815260086020908152604080832061ffff808916808652918452828520835160c0810185528154808416825267ffffffffffffffff6201000082048116838901526a010000000000000000000082048a16838801527e010000000000000000000000000000000000000000000000000000000000009091048416606083015260019092015491821660808201526801000000000000000090910490961660a087015290845260099092529091208251909116612df357805461ffff1682525b602082015167ffffffffffffffff16612e1e57805462010000900467ffffffffffffffff1660208301525b604082015173ffffffffffffffffffffffffffffffffffffffff16612e695780546a0100000000000000000000900473ffffffffffffffffffffffffffffffffffffffff1660408301525b606082015161ffff16612ea45780547e01000000000000000000000000000000000000000000000000000000000000900461ffff1660608301525b608082015167ffffffffffffffff16612ecc57600181015467ffffffffffffffff1660808301525b60a082015173ffffffffffffffffffffffffffffffffffffffff16612f1857600181015468010000000000000000900473ffffffffffffffffffffffffffffffffffffffff1660a08301525b509392505050565b61271081565b600c6020526000908152604090205461ffff1681565b600d60209081526000928352604080842090915290825290205460ff1681565b600f6020908152600093845260408085208252928452828420905282529020805460019091015482565b600b60209081526000928352604080842090915290825290205473ffffffffffffffffffffffffffffffffffffffff1681565b60086020908152600092835260408084209091529082529020805460019091015461ffff8083169267ffffffffffffffff62010000820481169373ffffffffffffffffffffffffffffffffffffffff6a010000000000000000000084048116947e010000000000000000000000000000000000000000000000000000000000009094049093169291811691680100000000000000009091041686565b73ffffffffffffffffffffffffffffffffffffffff1660009081526005602052604090205490565b60106020526000908152604090205481565b613097613939565b73ffffffffffffffffffffffffffffffffffffffff166130b5612ccc565b73ffffffffffffffffffffffffffffffffffffffff161461311d576040805162461bcd60e51b815260206004820181905260248201527f4f776e61626c653a2063616c6c6572206973206e6f7420746865206f776e6572604482015290519081900360640190fd5b61ffff8083166000908152600d60209081526040808320938516835292905281902080547fffffffffffffffffffffffffffffffffffffffffffffffffffffffffffffff00166001179055517fec23bee6f88cfecebb09d6aaaed66f0ce110debc1f61117c8270a7116597df9a906129b09084908490615373565b6131a0613f43565b5073ffffffffffffffffffffffffffffffffffffffff83166000908152600f6020908152604080832061ffff86168452825280832084845282529182902082518084019093528054835260010154908201529392505050565b613201613939565b73ffffffffffffffffffffffffffffffffffffffff1661321f612ccc565b73ffffffffffffffffffffffffffffffffffffffff1614613287576040805162461bcd60e51b815260206004820181905260248201527f4f776e61626c653a2063616c6c6572206973206e6f7420746865206f776e6572604482015290519081900360640190fd5b61ffff8216600090815260106020526040902054156132b85760405162461bcd60e51b8152600401610a1290614eb5565b61ffff821660009081526010602052604090819020829055517f0dad975e1d2fbe771c95cdcc7be9a1e61181de7173abe0a32b8f8f83140873e5906129b090849084906152d4565b613308613939565b73ffffffffffffffffffffffffffffffffffffffff16613326612ccc565b73ffffffffffffffffffffffffffffffffffffffff161461338e576040805162461bcd60e51b815260206004820181905260248201527f4f776e61626c653a2063616c6c6572206973206e6f7420746865206f776e6572604482015290519081900360640190fd5b73ffffffffffffffffffffffffffffffffffffffff81166133c15760405162461bcd60e51b8152600401610a1290614e58565b600380547fffffffffffffffffffffffff00000000000000000000000000000000000000001673ffffffffffffffffffffffffffffffffffffffff83161790556040517fcb7ef3e545f5cdb893f5c568ba710fe08f336375a2d9fd66e161033f8fc09ef3906122d6908390614813565b613439613939565b73ffffffffffffffffffffffffffffffffffffffff16613457612ccc565b73ffffffffffffffffffffffffffffffffffffffff16146134bf576040805162461bcd60e51b815260206004820181905260248201527f4f776e61626c653a2063616c6c6572206973206e6f7420746865206f776e6572604482015290519081900360640190fd5b73ffffffffffffffffffffffffffffffffffffffff81166135115760405162461bcd60e51b815260040180806020018281038252602681526020018061569f6026913960400191505060405180910390fd5b60015460405173ffffffffffffffffffffffffffffffffffffffff8084169216907f8be0079c531659141344cd1fd0a4f28419497f9722a3daafe3b4186f6b6457e090600090a3600180547fffffffffffffffffffffffff00000000000000000000000000000000000000001673ffffffffffffffffffffffffffffffffffffffff92909216919091179055565b60075481565b7f000000000000000000000000000000000000000000000000000000000000000073ffffffffffffffffffffffffffffffffffffffff1633146135fa5760405162461bcd60e51b8152600401610a1290614f6f565b73ffffffffffffffffffffffffffffffffffffffff8416600090815260086020908152604080832061ffff89168452909152902060018414156136b4576000613645838501856142fd565b61ffff8089166000908152600c602052604090205491925090811690821611156136815760405162461bcd60e51b8152600401610a1290614dfb565b81547fffffffffffffffffffffffffffffffffffffffffffffffffffffffffffff00001661ffff919091161781556138f4565b600284141561370b5760006136cb8385018561468f565b825467ffffffffffffffff90911662010000027fffffffffffffffffffffffffffffffffffffffffffff0000000000000000ffff909116178255506138f4565b600384141561377657600061372283850185614072565b825473ffffffffffffffffffffffffffffffffffffffff9091166a0100000000000000000000027fffff0000000000000000000000000000000000000000ffffffffffffffffffff909116178255506138f4565b600484141561383057600061378d838501856142fd565b61ffff8089166000908152600d602090815260408083209385168352929052205490915060ff16806137c1575061ffff8116155b6137dd5760405162461bcd60e51b8152600401610a129061490f565b815461ffff9091167e01000000000000000000000000000000000000000000000000000000000000027dffffffffffffffffffffffffffffffffffffffffffffffffffffffffffff9091161781556138f4565b60058414156138885760006138478385018561468f565b6001830180547fffffffffffffffffffffffffffffffffffffffffffffffff00000000000000001667ffffffffffffffff92909216919091179055506138f4565b600684141561218657600061389f83850185614072565b60018301805473ffffffffffffffffffffffffffffffffffffffff90921668010000000000000000027fffffffff0000000000000000000000000000000000000000ffffffffffffffff909216919091179055505b7ffc01bf86212a14151d51d1be5c2ac64d67d5ec823dfc6f53298d7ce3f3d3d252858585856040516139299493929190614865565b60405180910390a1505050505050565b3390565b600082821115613994576040805162461bcd60e51b815260206004820152601e60248201527f536166654d6174683a207375627472616374696f6e206f766572666c6f770000604482015290519081900360640190fd5b50900390565b60008282018381101561219e576040805162461bcd60e51b815260206004820152601b60248201527f536166654d6174683a206164646974696f6e206f766572666c6f770000000000604482015290519081900360640190fd5b6040805173ffffffffffffffffffffffffffffffffffffffff80861660248301528416604482015260648082018490528251808303909101815260849091019091526020810180517bffffffffffffffffffffffffffffffffffffffffffffffffffffffff167f23b872dd00000000000000000000000000000000000000000000000000000000179052613a89908590613b21565b50505050565b6040805173ffffffffffffffffffffffffffffffffffffffff8416602482015260448082018490528251808303909101815260649091019091526020810180517bffffffffffffffffffffffffffffffffffffffffffffffffffffffff167fa9059cbb00000000000000000000000000000000000000000000000000000000179052613b1c908490613b21565b505050565b6000613b83826040518060400160405280602081526020017f5361666545524332303a206c6f772d6c6576656c2063616c6c206661696c65648152508573ffffffffffffffffffffffffffffffffffffffff16613bdf9092919063ffffffff16565b805190915015613b1c57808060200190516020811015613ba257600080fd5b5051613b1c5760405162461bcd60e51b815260040180806020018281038252602a8152602001806156eb602a913960400191505060405180910390fd5b6060613bee8484600085613bf6565b949350505050565b606082471015613c375760405162461bcd60e51b81526004018080602001828103825260268152602001806156c56026913960400191505060405180910390fd5b613c4085613d7c565b613c91576040805162461bcd60e51b815260206004820152601d60248201527f416464726573733a2063616c6c20746f206e6f6e2d636f6e7472616374000000604482015290519081900360640190fd5b6000808673ffffffffffffffffffffffffffffffffffffffff1685876040518082805190602001908083835b60208310613cfa57805182527fffffffffffffffffffffffffffffffffffffffffffffffffffffffffffffffe09092019160209182019101613cbd565b6001836020036101000a03801982511681845116808217855250505050505090500191505060006040518083038185875af1925050503d8060008114613d5c576040519150601f19603f3d011682016040523d82523d6000602084013e613d61565b606091505b5091509150613d71828286613d82565b979650505050505050565b3b151590565b60608315613d9157508161219e565b825115613da15782518084602001fd5b8160405162461bcd60e51b81526004018080602001828103825283818151815260200191508051906020019080838360005b83811015613deb578181015183820152602001613dd3565b50505050905090810190601f168015613e185780820380516001836020036101000a031916815260200191505b509250505060405180910390fd5b6040805160e08101825260008082526020820181905291810182905260608082018390526080820181905260a082019290925260c081019190915290565b828054600181600116156101000203166002900490600052602060002090601f016020900481019282613e9a5760008555613efe565b82601f10613ed1578280017fffffffffffffffffffffffffffffffffffffffffffffffffffffffffffffff00823516178555613efe565b82800160010185558215613efe579182015b82811115613efe578235825591602001919060010190613ee3565b50613f0a929150613f5a565b5090565b6040805160c081018252600080825260208201819052918101829052606081018290526080810182905260a081019190915290565b604080518082019091526000808252602082015290565b5b80821115613f0a5760008155600101613f5b565b803561265481615653565b805161265481615653565b60008083601f840112613f96578182fd5b50813567ffffffffffffffff811115613fad578182fd5b602083019150836020828501011115613fc557600080fd5b9250929050565b600082601f830112613fdc578081fd5b815167ffffffffffffffff811115613ff057fe5b61402160207fffffffffffffffffffffffffffffffffffffffffffffffffffffffffffffffe0601f84011601615603565b818152846020838601011115614035578283fd5b613bee826020830160208701615627565b803561265481615678565b805161265481615678565b803561265481615688565b805161265481615688565b600060208284031215614083578081fd5b813561219e81615653565b600080604083850312156140a0578081fd5b82356140ab81615653565b915060208301356140bb81615678565b809150509250929050565b6000806000606084860312156140da578081fd5b83356140e581615653565b925060208401356140f581615678565b929592945050506040919091013590565b60008060408385031215614118578182fd5b823561412381615653565b946020939093013593505050565b60008060008060008060008060008060006101008c8e031215614152578687fd5b61415b8c613f6f565b9a5061416960208d0161405c565b995061417760408d01614046565b985067ffffffffffffffff8060608e01351115614192578788fd5b6141a28e60608f01358f01613f85565b909950975060808d01358110156141b7578687fd5b6141c78e60808f01358f01613f85565b90975095506141d860a08e01613f6f565b94506141e660c08e01613f6f565b93508060e08e013511156141f8578283fd5b506142098d60e08e01358e01613f85565b81935080925050509295989b509295989b9093969950565b600060208284031215614232578081fd5b815167ffffffffffffffff80821115614249578283fd5b9083019060e0828603121561425c578283fd5b61426660e0615603565b61426f83614051565b815261427d60208401614051565b602082015261428e60408401614067565b604082015261429f60608401613f7a565b60608201526080830151828111156142b5578485fd5b6142c187828601613fcc565b60808301525060a083015160a082015260c0830151828111156142e2578485fd5b6142ee87828601613fcc565b60c08301525095945050505050565b60006020828403121561430e578081fd5b813561219e81615678565b6000806040838503121561432b578182fd5b823561433681615678565b915060208301356140bb81615653565b600080600080600080600060a0888a031215614360578081fd5b873561436b81615678565b9650602088013561437b81615653565b9550604088013567ffffffffffffffff80821115614397578283fd5b6143a38b838c01613f85565b909750955060608a0135915081151582146143bc578283fd5b909350608089013590808211156143d1578283fd5b506143de8a828b01613f85565b989b979a50959850939692959293505050565b600080600060608486031215614405578081fd5b833561441081615678565b925060208401356140f581615653565b60008060008060008060a08789031215614438578384fd5b863561444381615678565b9550602087013561445381615653565b94506040870135935060608701359250608087013567ffffffffffffffff81111561447c578283fd5b61448889828a01613f85565b979a9699509497509295939492505050565b6000806000806000608086880312156144b1578283fd5b85356144bc81615678565b945060208601356144cc81615653565b935060408601359250606086013567ffffffffffffffff8111156144ee578182fd5b6144fa88828901613f85565b969995985093965092949392505050565b6000806040838503121561451d578182fd5b823561412381615678565b6000806000806080858703121561453d578182fd5b843561454881615678565b966020860135965060408601359560600135945092505050565b60008060408385031215614574578182fd5b82356140ab81615678565b60008060008060608587031215614594578182fd5b843561459f81615678565b935060208501356145af81615678565b9250604085013567ffffffffffffffff8111156145ca578283fd5b6145d687828801613f85565b95989497509550505050565b600080600080600080600060e0888a0312156145fc578081fd5b873561460781615678565b9650602088013561461781615678565b9550604088013561462781615688565b9450606088013561463781615653565b9350608088013561464781615678565b925060a088013561465781615678565b915060c088013561466781615653565b8091505092959891949750929550565b600060208284031215614688578081fd5b5051919050565b6000602082840312156146a0578081fd5b813561219e81615688565b600080600080608085870312156146c0578182fd5b843560ff811681146146d0578283fd5b935060208501356146e081615653565b925060408501356146f081615653565b9396929550929360600135925050565b600082845282826020860137806020848601015260207fffffffffffffffffffffffffffffffffffffffffffffffffffffffffffffffe0601f85011685010190509392505050565b60008151808452614760816020860160208601615627565b601f017fffffffffffffffffffffffffffffffffffffffffffffffffffffffffffffffe0169290920160200192915050565b90565b60007fffffffffffffffff0000000000000000000000000000000000000000000000008860c01b1682527fffffffffffffffffffffffffffffffffffffffff0000000000000000000000008760601b1660088301528486601c840137848201601c81018281528486823750909201601c019182525095945050505050565b73ffffffffffffffffffffffffffffffffffffffff91909116815260200190565b73ffffffffffffffffffffffffffffffffffffffff9384168152919092166020820152604081019190915260600190565b600073ffffffffffffffffffffffffffffffffffffffff861682528460208301526060604083015261489b606083018486614700565b9695505050505050565b901515815260200190565b92151583526020830191909152604082015260600190565b90815260200190565b6000858252606060208301526148eb606083018587614700565b905082604083015295945050505050565b60006020825261219e6020830184614748565b60208082526026908201527f4c617965725a65726f3a20696e76616c6964206f7574626f756e642070726f6f60408201527f6620747970650000000000000000000000000000000000000000000000000000606082015260800190565b60208082526018908201527f4c617965725a65726f3a206f6e6c792074726561737572790000000000000000604082015260600190565b6020808252601e908201527f4c617965725a65726f3a20496e76616c696420636f6e66696720747970650000604082015260600190565b6020808252601a908201527f4c617965725a65726f3a207769746864726177206661696c6564000000000000604082015260600190565b60208082526025908201527f4c617965725a65726f3a206e6f7420656e6f756768206e617469766520666f7260408201527f2066656573000000000000000000000000000000000000000000000000000000606082015260800190565b60208082526031908201527f4c617965725a65726f3a205f6c617965725a65726f546f6b656e2063616e6e6f60408201527f74206265207a65726f2061646472657373000000000000000000000000000000606082015260800190565b60208082526022908201527f4c617965725a65726f3a20696e76616c69642072656c6179657220616464726560408201527f7373000000000000000000000000000000000000000000000000000000000000606082015260800190565b6020808252601b908201527f4c617965725a65726f3a206661696c656420746f20726566756e640000000000604082015260600190565b6020808252602b908201527f4c617965725a65726f3a206d75737420626520706169642062792073656e646560408201527f72206f72206f726967696e000000000000000000000000000000000000000000606082015260800190565b60208082526021908201527f4c617965725a65726f3a20636861696e496420646f6573206e6f74206578697360408201527f7400000000000000000000000000000000000000000000000000000000000000606082015260800190565b60208082526021908201527f4c617965725a65726f3a20696e76616c6964206f7261636c652061646472657360408201527f7300000000000000000000000000000000000000000000000000000000000000606082015260800190565b6020808252601e908201527f4c617965725a65726f3a20696e76616c69642064737420616464726573730000604082015260600190565b6020808252601a908201527f4c617965725a65726f3a20696e76616c69642072656c61796572000000000000604082015260600190565b60208082526029908201527f4c617965725a65726f3a206c6962726172792063616e6e6f74206265207a657260408201527f6f20616464726573730000000000000000000000000000000000000000000000606082015260800190565b60208082526043908201527f4c617965725a65726f3a206f7261636c6520646174612063616e206f6e6c792060408201527f75706461746520696620697420686173206d6f726520636f6e6669726d61746960608201527f6f6e730000000000000000000000000000000000000000000000000000000000608082015260a00190565b60208082526017908201527f4c617965725a65726f3a6f6e6c79207472656173757279000000000000000000604082015260600190565b60208082526030908201527f4c617965725a65726f3a20696e76616c696420696e626f756e642070726f6f6660408201527f206c6962726172792076657273696f6e00000000000000000000000000000000606082015260800190565b6020808252602a908201527f4c617965725a65726f3a2074726561737572792063616e6e6f74206265207a6560408201527f726f206164647265737300000000000000000000000000000000000000000000606082015260800190565b60208082526021908201527f4c617965725a65726f3a2072656d6f746520756c6e20616c726561647920736560408201527f7400000000000000000000000000000000000000000000000000000000000000606082015260800190565b60208082526022908201527f4c617965725a65726f3a2063616e206e6f7420616464206e6577206c6962726160408201527f7279000000000000000000000000000000000000000000000000000000000000606082015260800190565b60208082526018908201527f4c617965725a65726f3a206f6e6c7920656e64706f696e740000000000000000604082015260600190565b6020808252602e908201527f4c617965725a65726f3a20696e76616c6964206f7574626f756e6420626c6f6360408201527f6b20636f6e6669726d6174696f6e000000000000000000000000000000000000606082015260800190565b60208082526024908201527f4c617965725a65726f3a20756e737570706f727465642077697468647261772060408201527f7479706500000000000000000000000000000000000000000000000000000000606082015260800190565b60208082526028908201527f4c617965725a65726f3a205f7061636b65742e756c6e4164647265737320697360408201527f20696e76616c6964000000000000000000000000000000000000000000000000606082015260800190565b60208082526030908201527f4c617965725a65726f3a2072656d6f746520636861696e20616464726573732060408201527f73697a6520616c72656164792073657400000000000000000000000000000000606082015260800190565b6020808252602d908201527f4c617965725a65726f3a20696e76616c696420696e626f756e6420626c6f636b60408201527f20636f6e6669726d6174696f6e00000000000000000000000000000000000000606082015260800190565b60208082526029908201527f4c617965725a65726f3a206e6f7420656e6f75676820626c6f636b20636f6e6660408201527f69726d6174696f6e730000000000000000000000000000000000000000000000606082015260800190565b600060c08201905061ffff808451168352602084015167ffffffffffffffff80821660208601526040860151915073ffffffffffffffffffffffffffffffffffffffff80831660408701528360608801511660608701528160808801511660808701528060a08801511660a08701525050505092915050565b815181526020918201519181019190915260400190565b61ffff91909116815260200190565b61ffff92909216825273ffffffffffffffffffffffffffffffffffffffff16602082015260400190565b61ffff94909416845273ffffffffffffffffffffffffffffffffffffffff9290921660208401526040830152606082015260800190565b61ffff929092168252602082015260400190565b600061ffff8416825260406020830152613bee6040830184614748565b600061ffff8816825260c0602083015261532260c0830188614748565b73ffffffffffffffffffffffffffffffffffffffff8716604084015267ffffffffffffffff8616606084015284608084015282810360a08401526153668185614748565b9998505050505050505050565b61ffff92831681529116602082015260400190565b600061ffff808916835280881660208401525073ffffffffffffffffffffffffffffffffffffffff8616604083015284606083015260a060808301526153d260a083018486614700565b98975050505050505050565b600061ffff808816835280871660208401525073ffffffffffffffffffffffffffffffffffffffff8516604083015283606083015260a06080830152613d7160a0830184614748565b600061ffff80871683528086166020840152506060604083015261489b606083018486614700565b600061ffff8086168352808516602084015250606060408301526154766060830184614748565b95945050505050565b61ffff938416815291909216602082015267ffffffffffffffff909116604082015260600190565b61ffff9788168152958716602087015267ffffffffffffffff94909416604086015273ffffffffffffffffffffffffffffffffffffffff9283166060860152908516608085015290931660a083015290911660c082015260e00190565b61ffff968716815267ffffffffffffffff958616602082015273ffffffffffffffffffffffffffffffffffffffff948516604082015292909516606083015290921660808301529190911660a082015260c00190565b600061ffff808816835267ffffffffffffffff8716602084015280861660408401525060806060830152613d71608083018486614700565b918252602082015260400190565b67ffffffffffffffff91909116815260200190565b60ff91909116815260200190565b60ff95909516855273ffffffffffffffffffffffffffffffffffffffff938416602086015291831660408501529091166060830152608082015260a00190565b60405181810167ffffffffffffffff8111828210171561561f57fe5b604052919050565b60005b8381101561564257818101518382015260200161562a565b83811115613a895750506000910152565b73ffffffffffffffffffffffffffffffffffffffff8116811461567557600080fd5b50565b61ffff8116811461567557600080fd5b67ffffffffffffffff8116811461567557600080fdfe4f776e61626c653a206e6577206f776e657220697320746865207a65726f2061646472657373416464726573733a20696e73756666696369656e742062616c616e636520666f722063616c6c5361666545524332303a204552433230206f7065726174696f6e20646964206e6f742073756363656564a2646970667358221220c4bfc55e84c3d77ca2df7433e929bf0c66f9c72cd7e93453fc448eb8f0bf2c0964736f6c63430007060033",
  "devdoc": {
    "kind": "dev",
    "methods": {
      "owner()": {
        "details": "Returns the address of the current owner."
      },
      "renounceOwnership()": {
        "details": "Leaves the contract without owner. It will not be possible to call `onlyOwner` functions anymore. Can only be called by the current owner. NOTE: Renouncing ownership will leave the contract without an owner, thereby removing any functionality that is only available to the owner."
      },
      "transferOwnership(address)": {
        "details": "Transfers ownership of the contract to a new account (`newOwner`). Can only be called by the current owner."
      }
    },
    "version": 1
  },
  "userdoc": {
    "kind": "user",
    "methods": {},
    "version": 1
  },
  "storageLayout": {
    "storage": [
      {
        "astId": 6093,
        "contract": "contracts/UltraLightNode.sol:UltraLightNode",
        "label": "_status",
        "offset": 0,
        "slot": "0",
        "type": "t_uint256"
      },
      {
        "astId": 4512,
        "contract": "contracts/UltraLightNode.sol:UltraLightNode",
        "label": "_owner",
        "offset": 0,
        "slot": "1",
        "type": "t_address"
      },
      {
        "astId": 8040,
        "contract": "contracts/UltraLightNode.sol:UltraLightNode",
        "label": "layerZeroToken",
        "offset": 0,
        "slot": "2",
        "type": "t_contract(IERC20)5550"
      },
      {
        "astId": 8042,
        "contract": "contracts/UltraLightNode.sol:UltraLightNode",
        "label": "treasuryContract",
        "offset": 0,
        "slot": "3",
        "type": "t_contract(ILayerZeroTreasury)11014"
      },
      {
        "astId": 8058,
        "contract": "contracts/UltraLightNode.sol:UltraLightNode",
        "label": "oracleQuotedFees",
        "offset": 0,
        "slot": "4",
        "type": "t_mapping(t_address,t_uint256)"
      },
      {
        "astId": 8062,
        "contract": "contracts/UltraLightNode.sol:UltraLightNode",
        "label": "relayerQuotedFees",
        "offset": 0,
        "slot": "5",
        "type": "t_mapping(t_address,t_uint256)"
      },
      {
        "astId": 8064,
        "contract": "contracts/UltraLightNode.sol:UltraLightNode",
        "label": "treasuryNativeFees",
        "offset": 0,
        "slot": "6",
        "type": "t_uint256"
      },
      {
        "astId": 8066,
        "contract": "contracts/UltraLightNode.sol:UltraLightNode",
        "label": "treasuryZROFees",
        "offset": 0,
        "slot": "7",
        "type": "t_uint256"
      },
      {
        "astId": 8072,
        "contract": "contracts/UltraLightNode.sol:UltraLightNode",
        "label": "appConfig",
        "offset": 0,
        "slot": "8",
        "type": "t_mapping(t_address,t_mapping(t_uint16,t_struct(ApplicationConfiguration)8038_storage))"
      },
      {
        "astId": 8076,
        "contract": "contracts/UltraLightNode.sol:UltraLightNode",
        "label": "defaultAppConfig",
        "offset": 0,
        "slot": "9",
        "type": "t_mapping(t_uint16,t_struct(ApplicationConfiguration)8038_storage)"
      },
      {
        "astId": 8082,
        "contract": "contracts/UltraLightNode.sol:UltraLightNode",
        "label": "defaultAdapterParams",
        "offset": 0,
        "slot": "10",
        "type": "t_mapping(t_uint16,t_mapping(t_uint16,t_bytes_storage))"
      },
      {
        "astId": 8088,
        "contract": "contracts/UltraLightNode.sol:UltraLightNode",
        "label": "inboundProofLibrary",
        "offset": 0,
        "slot": "11",
        "type": "t_mapping(t_uint16,t_mapping(t_uint16,t_address))"
      },
      {
        "astId": 8092,
        "contract": "contracts/UltraLightNode.sol:UltraLightNode",
        "label": "maxInboundProofLibrary",
        "offset": 0,
        "slot": "12",
        "type": "t_mapping(t_uint16,t_uint16)"
      },
      {
        "astId": 8098,
        "contract": "contracts/UltraLightNode.sol:UltraLightNode",
        "label": "supportedOutboundProof",
        "offset": 0,
        "slot": "13",
        "type": "t_mapping(t_uint16,t_mapping(t_uint16,t_bool))"
      },
      {
        "astId": 8102,
        "contract": "contracts/UltraLightNode.sol:UltraLightNode",
        "label": "chainAddressSizeMap",
        "offset": 0,
        "slot": "14",
        "type": "t_mapping(t_uint16,t_uint256)"
      },
      {
        "astId": 8110,
        "contract": "contracts/UltraLightNode.sol:UltraLightNode",
        "label": "hashLookup",
        "offset": 0,
        "slot": "15",
        "type": "t_mapping(t_address,t_mapping(t_uint16,t_mapping(t_bytes32,t_struct(BlockData)8007_storage)))"
      },
      {
        "astId": 8114,
        "contract": "contracts/UltraLightNode.sol:UltraLightNode",
        "label": "ulnLookup",
        "offset": 0,
        "slot": "16",
        "type": "t_mapping(t_uint16,t_bytes32)"
      }
    ],
    "types": {
      "t_address": {
        "encoding": "inplace",
        "label": "address",
        "numberOfBytes": "20"
      },
      "t_bool": {
        "encoding": "inplace",
        "label": "bool",
        "numberOfBytes": "1"
      },
      "t_bytes32": {
        "encoding": "inplace",
        "label": "bytes32",
        "numberOfBytes": "32"
      },
      "t_bytes_storage": {
        "encoding": "bytes",
        "label": "bytes",
        "numberOfBytes": "32"
      },
      "t_contract(IERC20)5550": {
        "encoding": "inplace",
        "label": "contract IERC20",
        "numberOfBytes": "20"
      },
      "t_contract(ILayerZeroTreasury)11014": {
        "encoding": "inplace",
        "label": "contract ILayerZeroTreasury",
        "numberOfBytes": "20"
      },
      "t_mapping(t_address,t_mapping(t_uint16,t_mapping(t_bytes32,t_struct(BlockData)8007_storage)))": {
        "encoding": "mapping",
        "key": "t_address",
        "label": "mapping(address => mapping(uint16 => mapping(bytes32 => struct UltraLightNode.BlockData)))",
        "numberOfBytes": "32",
        "value": "t_mapping(t_uint16,t_mapping(t_bytes32,t_struct(BlockData)8007_storage))"
      },
      "t_mapping(t_address,t_mapping(t_uint16,t_struct(ApplicationConfiguration)8038_storage))": {
        "encoding": "mapping",
        "key": "t_address",
        "label": "mapping(address => mapping(uint16 => struct UltraLightNode.ApplicationConfiguration))",
        "numberOfBytes": "32",
        "value": "t_mapping(t_uint16,t_struct(ApplicationConfiguration)8038_storage)"
      },
      "t_mapping(t_address,t_uint256)": {
        "encoding": "mapping",
        "key": "t_address",
        "label": "mapping(address => uint256)",
        "numberOfBytes": "32",
        "value": "t_uint256"
      },
      "t_mapping(t_bytes32,t_struct(BlockData)8007_storage)": {
        "encoding": "mapping",
        "key": "t_bytes32",
        "label": "mapping(bytes32 => struct UltraLightNode.BlockData)",
        "numberOfBytes": "32",
        "value": "t_struct(BlockData)8007_storage"
      },
      "t_mapping(t_uint16,t_address)": {
        "encoding": "mapping",
        "key": "t_uint16",
        "label": "mapping(uint16 => address)",
        "numberOfBytes": "32",
        "value": "t_address"
      },
      "t_mapping(t_uint16,t_bool)": {
        "encoding": "mapping",
        "key": "t_uint16",
        "label": "mapping(uint16 => bool)",
        "numberOfBytes": "32",
        "value": "t_bool"
      },
      "t_mapping(t_uint16,t_bytes32)": {
        "encoding": "mapping",
        "key": "t_uint16",
        "label": "mapping(uint16 => bytes32)",
        "numberOfBytes": "32",
        "value": "t_bytes32"
      },
      "t_mapping(t_uint16,t_bytes_storage)": {
        "encoding": "mapping",
        "key": "t_uint16",
        "label": "mapping(uint16 => bytes)",
        "numberOfBytes": "32",
        "value": "t_bytes_storage"
      },
      "t_mapping(t_uint16,t_mapping(t_bytes32,t_struct(BlockData)8007_storage))": {
        "encoding": "mapping",
        "key": "t_uint16",
        "label": "mapping(uint16 => mapping(bytes32 => struct UltraLightNode.BlockData))",
        "numberOfBytes": "32",
        "value": "t_mapping(t_bytes32,t_struct(BlockData)8007_storage)"
      },
      "t_mapping(t_uint16,t_mapping(t_uint16,t_address))": {
        "encoding": "mapping",
        "key": "t_uint16",
        "label": "mapping(uint16 => mapping(uint16 => address))",
        "numberOfBytes": "32",
        "value": "t_mapping(t_uint16,t_address)"
      },
      "t_mapping(t_uint16,t_mapping(t_uint16,t_bool))": {
        "encoding": "mapping",
        "key": "t_uint16",
        "label": "mapping(uint16 => mapping(uint16 => bool))",
        "numberOfBytes": "32",
        "value": "t_mapping(t_uint16,t_bool)"
      },
      "t_mapping(t_uint16,t_mapping(t_uint16,t_bytes_storage))": {
        "encoding": "mapping",
        "key": "t_uint16",
        "label": "mapping(uint16 => mapping(uint16 => bytes))",
        "numberOfBytes": "32",
        "value": "t_mapping(t_uint16,t_bytes_storage)"
      },
      "t_mapping(t_uint16,t_struct(ApplicationConfiguration)8038_storage)": {
        "encoding": "mapping",
        "key": "t_uint16",
        "label": "mapping(uint16 => struct UltraLightNode.ApplicationConfiguration)",
        "numberOfBytes": "32",
        "value": "t_struct(ApplicationConfiguration)8038_storage"
      },
      "t_mapping(t_uint16,t_uint16)": {
        "encoding": "mapping",
        "key": "t_uint16",
        "label": "mapping(uint16 => uint16)",
        "numberOfBytes": "32",
        "value": "t_uint16"
      },
      "t_mapping(t_uint16,t_uint256)": {
        "encoding": "mapping",
        "key": "t_uint16",
        "label": "mapping(uint16 => uint256)",
        "numberOfBytes": "32",
        "value": "t_uint256"
      },
      "t_struct(ApplicationConfiguration)8038_storage": {
        "encoding": "inplace",
        "label": "struct UltraLightNode.ApplicationConfiguration",
        "members": [
          {
            "astId": 8027,
            "contract": "contracts/UltraLightNode.sol:UltraLightNode",
            "label": "inboundProofLibraryVersion",
            "offset": 0,
            "slot": "0",
            "type": "t_uint16"
          },
          {
            "astId": 8029,
            "contract": "contracts/UltraLightNode.sol:UltraLightNode",
            "label": "inboundBlockConfirmations",
            "offset": 2,
            "slot": "0",
            "type": "t_uint64"
          },
          {
            "astId": 8031,
            "contract": "contracts/UltraLightNode.sol:UltraLightNode",
            "label": "relayer",
            "offset": 10,
            "slot": "0",
            "type": "t_address"
          },
          {
            "astId": 8033,
            "contract": "contracts/UltraLightNode.sol:UltraLightNode",
            "label": "outboundProofType",
            "offset": 30,
            "slot": "0",
            "type": "t_uint16"
          },
          {
            "astId": 8035,
            "contract": "contracts/UltraLightNode.sol:UltraLightNode",
            "label": "outboundBlockConfirmations",
            "offset": 0,
            "slot": "1",
            "type": "t_uint64"
          },
          {
            "astId": 8037,
            "contract": "contracts/UltraLightNode.sol:UltraLightNode",
            "label": "oracle",
            "offset": 8,
            "slot": "1",
            "type": "t_address"
          }
        ],
        "numberOfBytes": "64"
      },
      "t_struct(BlockData)8007_storage": {
        "encoding": "inplace",
        "label": "struct UltraLightNode.BlockData",
        "members": [
          {
            "astId": 8004,
            "contract": "contracts/UltraLightNode.sol:UltraLightNode",
            "label": "confirmations",
            "offset": 0,
            "slot": "0",
            "type": "t_uint256"
          },
          {
            "astId": 8006,
            "contract": "contracts/UltraLightNode.sol:UltraLightNode",
            "label": "data",
            "offset": 0,
            "slot": "1",
            "type": "t_bytes32"
          }
        ],
        "numberOfBytes": "64"
      },
      "t_uint16": {
        "encoding": "inplace",
        "label": "uint16",
        "numberOfBytes": "2"
      },
      "t_uint256": {
        "encoding": "inplace",
        "label": "uint256",
        "numberOfBytes": "32"
      },
      "t_uint64": {
        "encoding": "inplace",
        "label": "uint64",
        "numberOfBytes": "8"
      }
    }
  }
}