{
  "_format": "hh-sol-artifact-1",
  "contractName": "CounterPrecrimeView",
  "sourceName": "contracts/precrime/example/view/CounterPrecrimeView.sol",
  "abi": [
    {
      "inputs": [
        {
          "internalType": "uint16",
          "name": "_localChainId",
          "type": "uint16"
        },
        {
          "internalType": "address",
          "name": "_counterView",
          "type": "address"
        }
      ],
      "stateMutability": "nonpayable",
      "type": "constructor"
    },
    {
      "inputs": [],
      "name": "CODE_MISS_SIMULATE_RESULT",
      "outputs": [
        {
          "internalType": "uint16",
          "name": "",
          "type": "uint16"
        }
      ],
      "stateMutability": "view",
      "type": "function"
    },
    {
      "inputs": [],
      "name": "CODE_PACKETS_OVERSIZE",
      "outputs": [
        {
          "internalType": "uint16",
          "name": "",
          "type": "uint16"
        }
      ],
      "stateMutability": "view",
      "type": "function"
    },
    {
      "inputs": [],
      "name": "CODE_PACKETS_UNSORTED",
      "outputs": [
        {
          "internalType": "uint16",
          "name": "",
          "type": "uint16"
        }
      ],
      "stateMutability": "view",
      "type": "function"
    },
    {
      "inputs": [],
      "name": "CODE_PRECRIME_FAILURE",
      "outputs": [
        {
          "internalType": "uint16",
          "name": "",
          "type": "uint16"
        }
      ],
      "stateMutability": "view",
      "type": "function"
    },
    {
      "inputs": [],
      "name": "CODE_SUCCESS",
      "outputs": [
        {
          "internalType": "uint16",
          "name": "",
          "type": "uint16"
        }
      ],
      "stateMutability": "view",
      "type": "function"
    },
    {
      "inputs": [],
      "name": "CONFIG_VERSION",
      "outputs": [
        {
          "internalType": "uint16",
          "name": "",
          "type": "uint16"
        }
      ],
      "stateMutability": "view",
      "type": "function"
    },
    {
      "inputs": [],
      "name": "PRECRIME_VERSION",
      "outputs": [
        {
          "internalType": "uint16",
          "name": "",
          "type": "uint16"
        }
      ],
      "stateMutability": "view",
      "type": "function"
    },
    {
      "inputs": [],
      "name": "counterView",
      "outputs": [
        {
          "internalType": "contract CounterView",
          "name": "",
          "type": "address"
        }
      ],
      "stateMutability": "view",
      "type": "function"
    },
    {
      "inputs": [
        {
          "components": [
            {
              "internalType": "uint16",
              "name": "srcChainId",
              "type": "uint16"
            },
            {
              "internalType": "bytes32",
              "name": "srcAddress",
              "type": "bytes32"
            },
            {
              "internalType": "uint64",
              "name": "nonce",
              "type": "uint64"
            },
            {
              "internalType": "bytes",
              "name": "payload",
              "type": "bytes"
            }
          ],
          "internalType": "struct IPreCrimeBase.Packet[]",
          "name": "_packets",
          "type": "tuple[]"
        }
      ],
      "name": "getConfig",
      "outputs": [
        {
          "internalType": "bytes",
          "name": "",
          "type": "bytes"
        }
      ],
      "stateMutability": "view",
      "type": "function"
    },
    {
      "inputs": [],
      "name": "localChainId",
      "outputs": [
        {
          "internalType": "uint16",
          "name": "",
          "type": "uint16"
        }
      ],
      "stateMutability": "view",
      "type": "function"
    },
    {
      "inputs": [],
      "name": "maxBatchSize",
      "outputs": [
        {
          "internalType": "uint64",
          "name": "",
          "type": "uint64"
        }
      ],
      "stateMutability": "view",
      "type": "function"
    },
    {
      "inputs": [
        {
          "components": [
            {
              "internalType": "uint16",
              "name": "srcChainId",
              "type": "uint16"
            },
            {
              "internalType": "bytes32",
              "name": "srcAddress",
              "type": "bytes32"
            },
            {
              "internalType": "uint64",
              "name": "nonce",
              "type": "uint64"
            },
            {
              "internalType": "bytes",
              "name": "payload",
              "type": "bytes"
            }
          ],
          "internalType": "struct IPreCrimeBase.Packet[]",
          "name": "_packets",
          "type": "tuple[]"
        },
        {
          "internalType": "bytes[]",
          "name": "_simulation",
          "type": "bytes[]"
        }
      ],
      "name": "precrime",
      "outputs": [
        {
          "internalType": "uint16",
          "name": "code",
          "type": "uint16"
        },
        {
          "internalType": "bytes",
          "name": "reason",
          "type": "bytes"
        }
      ],
      "stateMutability": "view",
      "type": "function"
    },
    {
      "inputs": [],
      "name": "precrimeAdmin",
      "outputs": [
        {
          "internalType": "address",
          "name": "",
          "type": "address"
        }
      ],
      "stateMutability": "view",
      "type": "function"
    },
    {
      "inputs": [
        {
          "internalType": "uint256",
          "name": "",
          "type": "uint256"
        }
      ],
      "name": "remoteChainIds",
      "outputs": [
        {
          "internalType": "uint16",
          "name": "",
          "type": "uint16"
        }
      ],
      "stateMutability": "view",
      "type": "function"
    },
    {
      "inputs": [
        {
          "internalType": "uint256",
          "name": "",
          "type": "uint256"
        }
      ],
      "name": "remotePrecrimeAddresses",
      "outputs": [
        {
          "internalType": "bytes32",
          "name": "",
          "type": "bytes32"
        }
      ],
      "stateMutability": "view",
      "type": "function"
    },
    {
      "inputs": [
        {
          "internalType": "address",
          "name": "_counterView",
          "type": "address"
        }
      ],
      "name": "setCounterView",
      "outputs": [],
      "stateMutability": "nonpayable",
      "type": "function"
    },
    {
      "inputs": [
        {
          "internalType": "uint64",
          "name": "_maxBatchSize",
          "type": "uint64"
        }
      ],
      "name": "setMaxBatchSize",
      "outputs": [],
      "stateMutability": "nonpayable",
      "type": "function"
    },
    {
      "inputs": [
        {
          "internalType": "address",
          "name": "_precrimeAdmin",
          "type": "address"
        }
      ],
      "name": "setPrecrimeAdmin",
      "outputs": [],
      "stateMutability": "nonpayable",
      "type": "function"
    },
    {
      "inputs": [
        {
          "internalType": "uint16[]",
          "name": "_remoteChainIds",
          "type": "uint16[]"
        },
        {
          "internalType": "bytes32[]",
          "name": "_remotePrecrimeAddresses",
          "type": "bytes32[]"
        }
      ],
      "name": "setRemotePrecrimeAddresses",
      "outputs": [],
      "stateMutability": "nonpayable",
      "type": "function"
    },
    {
      "inputs": [
        {
          "components": [
            {
              "internalType": "uint16",
              "name": "srcChainId",
              "type": "uint16"
            },
            {
              "internalType": "bytes32",
              "name": "srcAddress",
              "type": "bytes32"
            },
            {
              "internalType": "uint64",
              "name": "nonce",
              "type": "uint64"
            },
            {
              "internalType": "bytes",
              "name": "payload",
              "type": "bytes"
            }
          ],
          "internalType": "struct IPreCrimeBase.Packet[]",
          "name": "_packets",
          "type": "tuple[]"
        }
      ],
      "name": "simulate",
      "outputs": [
        {
          "internalType": "uint16",
          "name": "code",
          "type": "uint16"
        },
        {
          "internalType": "bytes",
          "name": "data",
          "type": "bytes"
        }
      ],
      "stateMutability": "view",
      "type": "function"
    },
    {
      "inputs": [],
      "name": "version",
      "outputs": [
        {
          "internalType": "uint16",
          "name": "",
          "type": "uint16"
        }
      ],
      "stateMutability": "pure",
      "type": "function"
    }
  ],
  "bytecode": "0x60a06040523480156200001157600080fd5b50604051620027e8380380620027e883398101604081905262000034916200009f565b60f09190911b6001600160f01b03191660805260008054600180546001600160a01b0319166001600160a01b0390941693909317909255600a600160401b600160e01b0319909216336801000000000000000002176001600160401b031916919091179055620000ec565b60008060408385031215620000b2578182fd5b825161ffff81168114620000c4578283fd5b60208401519092506001600160a01b0381168114620000e1578182fd5b809150509250929050565b60805160f01c6126c56200012360003980610417528061086d5280610c3f528061114952806112e8528061135f52506126c56000f3fe608060405234801561001057600080fd5b50600436106101775760003560e01c806354fd4d50116100d8578063afea44ef1161008c578063ec67df3011610066578063ec67df301461029d578063f0099e2a146102be578063f95d1404146102d157610177565b8063afea44ef1461026f578063bb96836814610282578063c6be4b9b1461029557610177565b806392d99a7f116100bd57806392d99a7f146102295780639590dc9d1461023c5780639eb51f5b1461025c57610177565b806354fd4d50146102195780635b056da51461022157610177565b80632913daa01161012f57806334e300971161011457806334e30097146101f1578063472641c1146101f15780634e0ab1ab146101f957610177565b80632913daa0146101d45780632ce909c6146101e957610177565b80631046c46a116101605780631046c46a146101a257806317c9efb0146101b7578063224227cd146101bf57610177565b80630638fb641461017c5780630e735a631461019a575b600080fd5b6101846102d9565b6040516101919190612447565b60405180910390f35b6101846102de565b6101b56101b0366004611a5e565b6102e3565b005b610184610390565b6101c7610395565b6040516101919190611f8d565b6101dc6103b1565b6040516101919190612473565b6101c76103c1565b6101846103e9565b61020c610207366004611d26565b6103ee565b6040516101919190612337565b61018461040f565b610184610415565b6101b5610237366004611a5e565b610439565b61024f61024a366004611a7a565b6104e9565b6040516101919190612340565b61018461026a366004611d26565b610541565b6101b561027d366004611d3e565b610579565b6101b5610290366004611b23565b610611565b6101846106d5565b6102b06102ab366004611aba565b6106da565b604051610191929190612456565b6102b06102cc366004611a7a565b610831565b6101846108b7565b600281565b600381565b60005468010000000000000000900473ffffffffffffffffffffffffffffffffffffffff163314610349576040517f08c379a000000000000000000000000000000000000000000000000000000000815260040161034090612353565b60405180910390fd5b600180547fffffffffffffffffffffffff00000000000000000000000000000000000000001673ffffffffffffffffffffffffffffffffffffffff92909216919091179055565b600081565b60015473ffffffffffffffffffffffffffffffffffffffff1681565b60005467ffffffffffffffff1681565b60005468010000000000000000900473ffffffffffffffffffffffffffffffffffffffff1681565b600181565b600381815481106103fe57600080fd5b600091825260209091200154905081565b61271190565b7f000000000000000000000000000000000000000000000000000000000000000081565b60005468010000000000000000900473ffffffffffffffffffffffffffffffffffffffff163314610496576040517f08c379a000000000000000000000000000000000000000000000000000000000815260040161034090612353565b6000805473ffffffffffffffffffffffffffffffffffffffff90921668010000000000000000027fffffffff0000000000000000000000000000000000000000ffffffffffffffff909216919091179055565b60606000806104f885856108bd565b60005482516040519395509193506105279260019267ffffffffffffffff909216919086908690602001611ecd565b604051602081830303815290604052925050505b92915050565b6002818154811061055157600080fd5b9060005260206000209060109182820401919006600202915054906101000a900461ffff1681565b60005468010000000000000000900473ffffffffffffffffffffffffffffffffffffffff1633146105d6576040517f08c379a000000000000000000000000000000000000000000000000000000000815260040161034090612353565b600080547fffffffffffffffffffffffffffffffffffffffffffffffff00000000000000001667ffffffffffffffff92909216919091179055565b60005468010000000000000000900473ffffffffffffffffffffffffffffffffffffffff16331461066e576040517f08c379a000000000000000000000000000000000000000000000000000000000815260040161034090612353565b80518251146106a9576040517f08c379a0000000000000000000000000000000000000000000000000000000008152600401610340906123c1565b81516106bc90600290602085019061163d565b5080516106d09060039060208401906116e6565b505050565b600481565b60006060818367ffffffffffffffff811180156106f657600080fd5b5060405190808252806020026020018201604052801561072a57816020015b60608152602001906001900390816107155790505b50905060008467ffffffffffffffff8111801561074657600080fd5b50604051908082528060200260200182016040528015610770578160200160208202803683370190505b50905060005b858110156107f55760008088888481811061078d57fe5b905060200281019061079f9190612488565b8101906107ac9190611ce2565b91509150818484815181106107bd57fe5b602002602001019061ffff16908161ffff1681525050808584815181106107e057fe5b60209081029190910101525050600101610776565b50610801888883610b61565b909450925061ffff841615610817575050610828565b61082082610cf3565b909450925050505b94509492505050565b6000606061083f8484610dc9565b909250905061ffff821615610853576108b0565b61085d8484610f5b565b909250905061ffff82166108b0577f00000000000000000000000000000000000000000000000000000000000000008160405160200161089e929190612456565b60405160208183030381529060405290505b9250929050565b61271181565b6060808261099e57600260038180548060200260200160405190810160405280929190818152602001828054801561093c57602002820191906000526020600020906000905b82829054906101000a900461ffff1661ffff16815260200190600201906020826001010492830192600103820291508084116109035790505b505050505091508080548060200260200160405190810160405280929190818152602001828054801561098e57602002820191906000526020600020905b81548152602001906001019080831161097a575b50505050509050915091506108b0565b60006109b26109ad8587612576565b6111a0565b905061ffff811615610b59578061ffff1667ffffffffffffffff811180156109d957600080fd5b50604051908082528060200260200182016040528015610a03578160200160208202803683370190505b50925060008161ffff1667ffffffffffffffff81118015610a2357600080fd5b50604051908082528060200260200182016040528015610a4d578160200160208202803683370190505b50925060005b60025461ffff82161015610b565760005b61ffff8116871115610b4d57600088888361ffff16818110610a8257fe5b9050602002810190610a9491906124eb565b610aa2906020810190611cc6565b90508061ffff1660028461ffff1681548110610aba57fe5b60009182526020909120601082040154600f9091166002026101000a900461ffff161415610b445780878581518110610aef57fe5b602002602001019061ffff16908161ffff168152505060038361ffff1681548110610b1657fe5b9060005260206000200154868581518110610b2d57fe5b602090810291909101015250600190920191610b4d565b50600101610a64565b50600101610a53565b50505b509250929050565b600060608315610c30576000610b7786866108bd565b50905060005b8151811015610c2d576000805b8651811015610bda57838381518110610b9f57fe5b602002602001015161ffff16878281518110610bb757fe5b602002602001015161ffff161415610bd25760019150610bda565b600101610b8a565b5080610c245760046040518060400160405280602081526020017f6d697373696e672072656d6f74652073696d756c6174696f6e20726573756c7481525094509450505050610ceb565b50600101610b7d565b50505b6000805b8451811015610c91577f000000000000000000000000000000000000000000000000000000000000000061ffff16858281518110610c6e57fe5b602002602001015161ffff161415610c895760019150610c91565b600101610c34565b5080610cd657505060408051808201909152601f81527f6d697373696e67206c6f63616c2073696d756c6174696f6e20726573756c7400602082015260049150610ceb565b50506040805160208101909152600080825291505b935093915050565b60006060600080610d038561123d565b915091506000805b83602001516020015151811015610d845760008460200151602001518281518110610d3257fe5b602002602001015190506000610d4c858360000151611352565b9050610d58828261144e565b909850965061ffff881615610d7257505050505050610dc4565b60400151929092019150600101610d0b565b50610d938360200151826114ba565b909550935061ffff851615610daa57505050610dc4565b600060405180602001604052806000815250945094505050505b915091565b6000805460609067ffffffffffffffff16831115610e0a576002604051602001610df290611e52565b604051602081830303815290604052915091506108b0565b8215610f415760008080805b86811015610f3c576000888883818110610e2c57fe5b9050602002810190610e3e91906124eb565b610e47906125c4565b90508461ffff16816000015161ffff16141580610e68575083816020015114155b15610ee057805160208201516040830151919650945092506000610e8b826114ee565b60010190508067ffffffffffffffff168467ffffffffffffffff1614610eda576003604051602001610ebc90611e7b565b604051602081830303815290604052975097505050505050506108b0565b50610f33565b8260010192508267ffffffffffffffff16816040015167ffffffffffffffff1614610f33576003604051602001610f1690611ea4565b6040516020818303038152906040529650965050505050506108b0565b50600101610e16565b505050505b505060408051602081019091526000808252909250929050565b6001546040517fab2b35ec000000000000000000000000000000000000000000000000000000008152600091606091839173ffffffffffffffffffffffffffffffffffffffff169063ab2b35ec90610fb890600290600401611fae565b60006040518083038186803b158015610fd057600080fd5b505afa158015610fe4573d6000803e3d6000fd5b505050506040513d6000823e601f3d9081017fffffffffffffffffffffffffffffffffffffffffffffffffffffffffffffffe016820160405261102a9190810190611bff565b905060005b8481101561113957600086868381811061104557fe5b905060200281019061105791906124eb565b611060906125c4565b60015481516040517f0e0ac9d700000000000000000000000000000000000000000000000000000000815292935073ffffffffffffffffffffffffffffffffffffffff90911691630e0ac9d7916110bc918791906004016123f8565b60006040518083038186803b1580156110d457600080fd5b505afa1580156110e8573d6000803e3d6000fd5b505050506040513d6000823e601f3d9081017fffffffffffffffffffffffffffffffffffffffffffffffffffffffffffffffe016820160405261112e9190810190611bff565b92505060010161102f565b50600060405180604001604052807f000000000000000000000000000000000000000000000000000000000000000061ffff16815260200183815250604051602001611185919061241e565b60405160208183030381529060405292509250509250929050565b6000805b60025461ffff821610156112375760005b83518161ffff16101561122e57838161ffff16815181106111d257fe5b60200260200101516000015161ffff1660028361ffff16815481106111f357fe5b60009182526020909120601082040154600f9091166002026101000a900461ffff1614156112265760019092019161122e565b6001016111b5565b506001016111a4565b50919050565b611245611721565b6060825167ffffffffffffffff8111801561125f57600080fd5b5060405190808252806020026020018201604052801561129957816020015b611286611721565b81526020019060019003908161127e5790505b50905060005b835181101561134c578381815181106112b457fe5b60200260200101518060200190518101906112cf9190611c3a565b8282815181106112db57fe5b60200260200101819052507f000000000000000000000000000000000000000000000000000000000000000061ffff1682828151811061131757fe5b60200260200101516000015161ffff1614156113445781818151811061133957fe5b602002602001015192505b60010161129f565b50915091565b61135a611744565b61ffff7f00000000000000000000000000000000000000000000000000000000000000001660005b845181101561141b57600085828151811061139957fe5b602002602001015190508461ffff16816000015161ffff1614156114125760005b8160200151602001515181101561141057600082602001516020015182815181106113e157fe5b6020026020010151905084816000015161ffff16141561140757945061053b9350505050565b506001016113ba565b505b50600101611382565b506040517f08c379a00000000000000000000000000000000000000000000000000000000081526004016103409061238a565b6000606082604001518460200151111561148657600160405180606001604052806026815260200161266a60269139915091506108b0565b826020015184604001511115610f4157600160405180606001604052806026815260200161261c60269139915091506108b0565b600060608284600001511115610f4157600160405180606001604052806028815260200161264260289139915091506108b0565b600080600160009054906101000a900473ffffffffffffffffffffffffffffffffffffffff1673ffffffffffffffffffffffffffffffffffffffff166361bc221a6040518163ffffffff1660e01b815260040160206040518083038186803b15801561155957600080fd5b505afa15801561156d573d6000803e3d6000fd5b505050506040513d601f19601f820116820180604052508101906115919190611be3565b83516040517f58b46b3100000000000000000000000000000000000000000000000000000000815291925073ffffffffffffffffffffffffffffffffffffffff8316916358b46b31916115e691600401612447565b60206040518083038186803b1580156115fe57600080fd5b505afa158015611612573d6000803e3d6000fd5b505050506040513d601f19601f820116820180604052508101906116369190611d5a565b9392505050565b82805482825590600052602060002090600f016010900481019282156116d65791602002820160005b838211156116a657835183826101000a81548161ffff021916908361ffff1602179055509260200192600201602081600101049283019260010302611666565b80156116d45782816101000a81549061ffff02191690556002016020816001010492830192600103026116a6565b505b506116e2929150611769565b5090565b8280548282559060005260206000209081019282156116d6579160200282015b828111156116d6578251825591602001919060010190611706565b6040518060400160405280600061ffff16815260200161173f61177e565b905290565b6040518060600160405280600061ffff16815260200160008152602001600081525090565b5b808211156116e2576000815560010161176a565b604051806040016040528060008152602001606081525090565b600082601f8301126117a8578081fd5b813560206117bd6117b88361254c565b612528565b82815281810190858301838502870184018810156117d9578586fd5b855b858110156117f7578135845292840192908401906001016117db565b5090979650505050505050565b60008083601f840112611815578182fd5b50813567ffffffffffffffff81111561182c578182fd5b60208301915083602080830285010111156108b057600080fd5b600082601f830112611856578081fd5b813567ffffffffffffffff81111561186a57fe5b61189b60207fffffffffffffffffffffffffffffffffffffffffffffffffffffffffffffffe0601f84011601612528565b8181528460208386010111156118af578283fd5b816020850160208301379081016020019190915292915050565b600060408083850312156118db578182fd5b805181810167ffffffffffffffff82821081831117156118f757fe5b8184528294508551835260209150818601518181111561191657600080fd5b8601601f8101881361192757600080fd5b80516119356117b88261254c565b818152848101908386016060808502860188018d101561195457600080fd5b60009550855b858110156119b45781838f031215611970578687fd5b8a518281018181108a8211171561198357fe5b8c528351611990816125f5565b8152838a01518a8201528b8401518c8201528552938801939181019160010161195a565b5050508086880152505050505050505092915050565b6000608082840312156119db578081fd5b6040516080810167ffffffffffffffff82821081831117156119f957fe5b8160405282935084359150611a0d826125f5565b8183526020850135602084015260408501359150611a2a82612605565b8160408401526060850135915080821115611a4457600080fd5b50611a5185828601611846565b6060830152505092915050565b600060208284031215611a6f578081fd5b8135611636816125d0565b60008060208385031215611a8c578081fd5b823567ffffffffffffffff811115611aa2578182fd5b611aae85828601611804565b90969095509350505050565b60008060008060408587031215611acf578182fd5b843567ffffffffffffffff80821115611ae6578384fd5b611af288838901611804565b90965094506020870135915080821115611b0a578384fd5b50611b1787828801611804565b95989497509550505050565b60008060408385031215611b35578182fd5b823567ffffffffffffffff80821115611b4c578384fd5b818501915085601f830112611b5f578384fd5b81356020611b6f6117b88361254c565b82815281810190858301838502870184018b1015611b8b578889fd5b8896505b84871015611bb6578035611ba2816125f5565b835260019690960195918301918301611b8f565b5096505086013592505080821115611bcc578283fd5b50611bd985828601611798565b9150509250929050565b600060208284031215611bf4578081fd5b8151611636816125d0565b600060208284031215611c10578081fd5b815167ffffffffffffffff811115611c26578182fd5b611c32848285016118c9565b949350505050565b600060208284031215611c4b578081fd5b815167ffffffffffffffff80821115611c62578283fd5b9083019060408286031215611c75578283fd5b604051604081018181108382111715611c8a57fe5b6040528251611c98816125f5565b8152602083015182811115611cab578485fd5b611cb7878286016118c9565b60208301525095945050505050565b600060208284031215611cd7578081fd5b8135611636816125f5565b60008060408385031215611cf4578182fd5b8235611cff816125f5565b9150602083013567ffffffffffffffff811115611d1a578182fd5b611bd985828601611846565b600060208284031215611d37578081fd5b5035919050565b600060208284031215611d4f578081fd5b813561163681612605565b600060208284031215611d6b578081fd5b815161163681612605565b60008151808452815b81811015611d9b57602081850181015186830182015201611d7f565b81811115611dac5782602083870101525b50601f017fffffffffffffffffffffffffffffffffffffffffffffffffffffffffffffffe0169290920160200192915050565b600060408084018351855260208085015183828801528281518085526060945084890191508383019250865b81811015611e3c578351805161ffff1684528581015186850152870151878401529284019291850191600101611e0b565b509098975050505050505050565b61ffff169052565b7f7061636b6574732073697a6520657863656564206c696d6974656400000000008152601b0190565b7f736b697070656420696e626f756e644e6f6e636520666f7262696464656e00008152601e0190565b7f756e736f72746564207061636b65747300000000000000000000000000000000815260100190565b60007fffff0000000000000000000000000000000000000000000000000000000000008760f01b1682527fffffffffffffffff0000000000000000000000000000000000000000000000008660c01b16600283015284600a830152602a820184516020808701845b83811015611f5557815161ffff1685529382019390820190600101611f35565b50508551818701939250845b81811015611f7d57845184529382019392820192600101611f61565b50919a9950505050505050505050565b73ffffffffffffffffffffffffffffffffffffffff91909116815260200190565b60006020808301818452808554611fc58184612337565b9150611fd08761256a565b9250845b81600f8201101561212357835461ffff611ff085828416611e4a565b612001878601828460101c16611e4a565b604061201381870183858b1c16611e4a565b6060612026818801848660301c16611e4a565b60806120388189018587861c16611e4a565b60a0925061204d838901858760501c16611e4a565b60c061205f818a018688861c16611e4a565b60e09250612074838a01868860701c16611e4a565b6120866101008a018688851c16611e4a565b6120996101208a01868860901c16611e4a565b6120ab6101408a018688871c16611e4a565b6120be6101608a01868860b01c16611e4a565b6120d06101808a018688841c16611e4a565b50506120e56101a08801848660d01c16611e4a565b6120f76101c088018486841c16611e4a565b50505061210b6101e085018260f01c611e4a565b50600193909301926102009290920191601001611fd4565b925492818110156121445761213c8361ffff8616611e4a565b918401916001015b818110156121655761215d8361ffff8660101c16611e4a565b918401916001015b818110156121855761217d8361ffff86881c16611e4a565b918401916001015b818110156121a65761219e8361ffff8660301c16611e4a565b918401916001015b818110156121c7576121bf8361ffff8660401c16611e4a565b918401916001015b818110156121e8576121e08361ffff8660501c16611e4a565b918401916001015b81811015612209576122018361ffff8660601c16611e4a565b918401916001015b8181101561222a576122228361ffff8660701c16611e4a565b918401916001015b8181101561224b576122438361ffff8660801c16611e4a565b918401916001015b8181101561226c576122648361ffff8660901c16611e4a565b918401916001015b8181101561228d576122858361ffff8660a01c16611e4a565b918401916001015b818110156122ae576122a68361ffff8660b01c16611e4a565b918401916001015b818110156122cf576122c78361ffff8660c01c16611e4a565b918401916001015b818110156122f0576122e88361ffff8660d01c16611e4a565b918401916001015b81811015612311576123098361ffff8660e01c16611e4a565b918401916001015b8181101561232b57612326838560f01c611e4a565b918401915b50909695505050505050565b90815260200190565b6000602082526116366020830184611d76565b6020808252600a908201527f6f6e6c792061646d696e00000000000000000000000000000000000000000000604082015260600190565b6020808252601f908201527f5072656372696d653a20636f756e74207374617465206e6f7420666f756e6400604082015260600190565b60208082526016908201527f5072656372696d653a20696e76616c69642073697a6500000000000000000000604082015260600190565b60006040825261240b6040830185611ddf565b905061ffff831660208301529392505050565b60006020825261ffff83511660208301526020830151604080840152611c326060840182611ddf565b61ffff91909116815260200190565b600061ffff8416825260406020830152611c326040830184611d76565b67ffffffffffffffff91909116815260200190565b60008083357fffffffffffffffffffffffffffffffffffffffffffffffffffffffffffffffe18436030181126124bc578283fd5b83018035915067ffffffffffffffff8211156124d6578283fd5b6020019150368190038213156108b057600080fd5b600082357fffffffffffffffffffffffffffffffffffffffffffffffffffffffffffffff8183360301811261251e578182fd5b9190910192915050565b60405181810167ffffffffffffffff8111828210171561254457fe5b604052919050565b600067ffffffffffffffff82111561256057fe5b5060209081020190565b60009081526020902090565b60006125846117b88461254c565b8381526020808201919084845b878110156125b8576125a636833589016119ca565b85529382019390820190600101612591565b50919695505050505050565b600061053b36836119ca565b73ffffffffffffffffffffffffffffffffffffffff811681146125f257600080fd5b50565b61ffff811681146125f257600080fd5b67ffffffffffffffff811681146125f257600080fdfe5072656372696d653a206f7574626f756e64436f756e74203e20696e626f756e64436f756e745072656372696d653a20746f74616c436f756e74203e2073756d206f7574626f756e64436f756e745072656372696d653a20696e626f756e64436f756e74203e206f7574626f756e64436f756e74a264697066735822122012516f7908e468a3c466df1fd423f16fc80f6913c14024a24f02bc8a01133f9b64736f6c63430007060033",
  "linkReferences": {},
  "deployedLinkReferences": {}
}