{
  "_format": "hh-sol-artifact-1",
  "contractName": "CounterView",
  "sourceName": "contracts/precrime/example/view/CounterView.sol",
  "abi": [
    {
      "inputs": [
        {
          "internalType": "address",
          "name": "_counter",
          "type": "address"
        }
      ],
      "stateMutability": "nonpayable",
      "type": "constructor"
    },
    {
      "inputs": [],
      "name": "counter",
      "outputs": [
        {
          "internalType": "contract CounterV",
          "name": "",
          "type": "address"
        }
      ],
      "stateMutability": "view",
      "type": "function"
    },
    {
      "inputs": [
        {
          "internalType": "uint16[]",
          "name": "peers",
          "type": "uint16[]"
        }
      ],
      "name": "getCountState",
      "outputs": [
        {
          "components": [
            {
              "internalType": "uint256",
              "name": "totalCount",
              "type": "uint256"
            },
            {
              "components": [
                {
                  "internalType": "uint16",
                  "name": "eid",
                  "type": "uint16"
                },
                {
                  "internalType": "uint256",
                  "name": "inboundCount",
                  "type": "uint256"
                },
                {
                  "internalType": "uint256",
                  "name": "outboundCount",
                  "type": "uint256"
                }
              ],
              "internalType": "struct CounterView.ChainPathCount[]",
              "name": "chainPathCounts",
              "type": "tuple[]"
            }
          ],
          "internalType": "struct CounterView.CountState",
          "name": "",
          "type": "tuple"
        }
      ],
      "stateMutability": "view",
      "type": "function"
    },
    {
      "inputs": [
        {
          "components": [
            {
              "internalType": "uint256",
              "name": "totalCount",
              "type": "uint256"
            },
            {
              "components": [
                {
                  "internalType": "uint16",
                  "name": "eid",
                  "type": "uint16"
                },
                {
                  "internalType": "uint256",
                  "name": "inboundCount",
                  "type": "uint256"
                },
                {
                  "internalType": "uint256",
                  "name": "outboundCount",
                  "type": "uint256"
                }
              ],
              "internalType": "struct CounterView.ChainPathCount[]",
              "name": "chainPathCounts",
              "type": "tuple[]"
            }
          ],
          "internalType": "struct CounterView.CountState",
          "name": "countState",
          "type": "tuple"
        },
        {
          "internalType": "uint16",
          "name": "_srcChainId",
          "type": "uint16"
        }
      ],
      "name": "lzReceive",
      "outputs": [
        {
          "components": [
            {
              "internalType": "uint256",
              "name": "totalCount",
              "type": "uint256"
            },
            {
              "components": [
                {
                  "internalType": "uint16",
                  "name": "eid",
                  "type": "uint16"
                },
                {
                  "internalType": "uint256",
                  "name": "inboundCount",
                  "type": "uint256"
                },
                {
                  "internalType": "uint256",
                  "name": "outboundCount",
                  "type": "uint256"
                }
              ],
              "internalType": "struct CounterView.ChainPathCount[]",
              "name": "chainPathCounts",
              "type": "tuple[]"
            }
          ],
          "internalType": "struct CounterView.CountState",
          "name": "",
          "type": "tuple"
        }
      ],
      "stateMutability": "pure",
      "type": "function"
    }
  ],
  "bytecode": "0x608060405234801561001057600080fd5b506040516107df3803806107df83398101604081905261002f91610054565b600080546001600160a01b0319166001600160a01b0392909216919091179055610082565b600060208284031215610065578081fd5b81516001600160a01b038116811461007b578182fd5b9392505050565b61074e806100916000396000f3fe608060405234801561001057600080fd5b50600436106100415760003560e01c80630e0ac9d71461004657806361bc221a1461006f578063ab2b35ec14610084575b600080fd5b6100596100543660046104de565b610097565b6040516100669190610671565b60405180910390f35b610077610129565b6040516100669190610650565b61005961009236600461046f565b610145565b61009f610419565b60005b836020015151811015610121576000846020015182815181106100c157fe5b602002602001015190508361ffff16816000015161ffff161415610118578451600190810186526020808301805190920190915285015180518291908490811061010757fe5b602002602001018190525050610121565b506001016100a2565b509192915050565b60005473ffffffffffffffffffffffffffffffffffffffff1681565b61014d610419565b60008267ffffffffffffffff8111801561016657600080fd5b506040519080825280602002602001820160405280156101a057816020015b61018d610433565b8152602001906001900390816101855790505b50905060005b8381101561035f5760008585838181106101bc57fe5b90506020020160208101906101d19190610617565b6040805160608101825261ffff8316815260005491517f56a4728900000000000000000000000000000000000000000000000000000000815292935091602083019173ffffffffffffffffffffffffffffffffffffffff16906356a472899061023e9086906004016106e5565b60206040518083038186803b15801561025657600080fd5b505afa15801561026a573d6000803e3d6000fd5b505050506040513d601f19601f8201168201806040525081019061028e9190610638565b81526000546040517f622f17f600000000000000000000000000000000000000000000000000000000815260209092019173ffffffffffffffffffffffffffffffffffffffff9091169063622f17f6906102ec9086906004016106e5565b60206040518083038186803b15801561030457600080fd5b505afa158015610318573d6000803e3d6000fd5b505050506040513d601f19601f8201168201806040525081019061033c9190610638565b81525083838151811061034b57fe5b6020908102919091010152506001016101a6565b5060408051808201808352600080547f34eafb11000000000000000000000000000000000000000000000000000000009092529251829173ffffffffffffffffffffffffffffffffffffffff16906334eafb1190604480850191602091818703018186803b1580156103d057600080fd5b505afa1580156103e4573d6000803e3d6000fd5b505050506040513d601f19601f820116820180604052508101906104089190610638565b815260200192909252509392505050565b604051806040016040528060008152602001606081525090565b6040518060600160405280600061ffff16815260200160008152602001600081525090565b803561ffff8116811461046a57600080fd5b919050565b60008060208385031215610481578182fd5b823567ffffffffffffffff80821115610498578384fd5b818501915085601f8301126104ab578384fd5b8135818111156104b9578485fd5b86602080830285010111156104cc578485fd5b60209290920196919550909350505050565b60008060408084860312156104f1578283fd5b833567ffffffffffffffff80821115610508578485fd5b818601915082828803121561051b578485fd5b8251838101818110838211171561052e57fe5b84528235815260208084013583811115610546578788fd5b80850194505088601f85011261055a578687fd5b83358381111561056657fe5b61057382838302016106f4565b818152828101908684016060808502890186018e1015610591578b8cfd5b8b98505b848910156105f15780828f0312156105ab578b8cfd5b89518181018181108a821117156105be57fe5b8b526105c983610458565b815282870135878201528a8301358b8201528452600198909801979285019290810190610595565b50508084860152505050819650610609818901610458565b955050505050509250929050565b600060208284031215610628578081fd5b61063182610458565b9392505050565b600060208284031215610649578081fd5b5051919050565b73ffffffffffffffffffffffffffffffffffffffff91909116815260200190565b600060208083526060808401855183860152828601516040808188015282825180855260808901915086840194508793505b808410156106d8578451805161ffff1683528781015188840152830151838301529386019360019390930192908501906106a3565b5098975050505050505050565b61ffff91909116815260200190565b60405181810167ffffffffffffffff8111828210171561071057fe5b60405291905056fea2646970667358221220a1b8a2cf4a899d4d18529d7d8e62e338a78e13dab844ca351162c7b0b9bb9a1364736f6c63430007060033",
  "linkReferences": {},
  "deployedLinkReferences": {}
}