{
  "address": "0xDe0099b20F4d5596aA2C5D5a0b510abBB7a315E1",
  "abi": [
    {
      "anonymous": false,
      "inputs": [
        {
          "indexed": true,
          "internalType": "address",
          "name": "previousOwner",
          "type": "address"
        },
        {
          "indexed": true,
          "internalType": "address",
          "name": "newOwner",
          "type": "address"
        }
      ],
      "name": "OwnershipTransferred",
      "type": "event"
    },
    {
      "inputs": [],
      "name": "PRICE_RATIO_DENOMINATOR",
      "outputs": [
        {
          "internalType": "uint128",
          "name": "",
          "type": "uint128"
        }
      ],
      "stateMutability": "view",
      "type": "function"
    },
    {
      "inputs": [],
      "name": "arbitrumPriceExt",
      "outputs": [
        {
          "internalType": "uint64",
          "name": "gasPerL2Tx",
          "type": "uint64"
        },
        {
          "internalType": "uint32",
          "name": "gasPerL1CallDataByte",
          "type": "uint32"
        }
      ],
      "stateMutability": "view",
      "type": "function"
    },
    {
      "inputs": [
        {
          "internalType": "uint16",
          "name": "",
          "type": "uint16"
        }
      ],
      "name": "defaultModelPrice",
      "outputs": [
        {
          "internalType": "uint128",
          "name": "priceRatio",
          "type": "uint128"
        },
        {
          "internalType": "uint64",
          "name": "gasPriceInUnit",
          "type": "uint64"
        },
        {
          "internalType": "uint32",
          "name": "gasPerByte",
          "type": "uint32"
        }
      ],
      "stateMutability": "view",
      "type": "function"
    },
    {
      "inputs": [
        {
          "internalType": "uint16",
          "name": "_dstChainId",
          "type": "uint16"
        },
        {
          "internalType": "uint256",
          "name": "_callDataSize",
          "type": "uint256"
        },
        {
          "internalType": "uint256",
          "name": "_gas",
          "type": "uint256"
        }
      ],
      "name": "estimateFeeByChain",
      "outputs": [
        {
          "internalType": "uint256",
          "name": "fee",
          "type": "uint256"
        },
        {
          "internalType": "uint128",
          "name": "priceRatio",
          "type": "uint128"
        }
      ],
      "stateMutability": "view",
      "type": "function"
    },
    {
      "inputs": [
        {
          "internalType": "uint16",
          "name": "_dstChainId",
          "type": "uint16"
        },
        {
          "internalType": "uint256",
          "name": "_callDataSize",
          "type": "uint256"
        },
        {
          "internalType": "uint256",
          "name": "_gas",
          "type": "uint256"
        }
      ],
      "name": "estimateFeeWithArbitrumModel",
      "outputs": [
        {
          "internalType": "uint256",
          "name": "fee",
          "type": "uint256"
        },
        {
          "internalType": "uint128",
          "name": "priceRatio",
          "type": "uint128"
        }
      ],
      "stateMutability": "view",
      "type": "function"
    },
    {
      "inputs": [
        {
          "internalType": "uint16",
          "name": "_dstChainId",
          "type": "uint16"
        },
        {
          "internalType": "uint256",
          "name": "_callDataSize",
          "type": "uint256"
        },
        {
          "internalType": "uint256",
          "name": "_gas",
          "type": "uint256"
        }
      ],
      "name": "estimateFeeWithDefaultModel",
      "outputs": [
        {
          "internalType": "uint256",
          "name": "fee",
          "type": "uint256"
        },
        {
          "internalType": "uint128",
          "name": "priceRatio",
          "type": "uint128"
        }
      ],
      "stateMutability": "view",
      "type": "function"
    },
    {
      "inputs": [
        {
          "internalType": "uint16",
          "name": "_dstChainId",
          "type": "uint16"
        },
        {
          "internalType": "uint256",
          "name": "_callDataSize",
          "type": "uint256"
        },
        {
          "internalType": "uint256",
          "name": "_gas",
          "type": "uint256"
        }
      ],
      "name": "estimateFeeWithOptimismModel",
      "outputs": [
        {
          "internalType": "uint256",
          "name": "fee",
          "type": "uint256"
        },
        {
          "internalType": "uint128",
          "name": "priceRatio",
          "type": "uint128"
        }
      ],
      "stateMutability": "view",
      "type": "function"
    },
    {
      "inputs": [
        {
          "internalType": "uint16",
          "name": "_dstChainId",
          "type": "uint16"
        }
      ],
      "name": "getPrice",
      "outputs": [
        {
          "components": [
            {
              "internalType": "uint128",
              "name": "priceRatio",
              "type": "uint128"
            },
            {
              "internalType": "uint64",
              "name": "gasPriceInUnit",
              "type": "uint64"
            },
            {
              "internalType": "uint32",
              "name": "gasPerByte",
              "type": "uint32"
            }
          ],
          "internalType": "struct ILayerZeroPriceFeed.Price",
          "name": "price",
          "type": "tuple"
        }
      ],
      "stateMutability": "view",
      "type": "function"
    },
    {
      "inputs": [],
      "name": "getPriceRatioDenominator",
      "outputs": [
        {
          "internalType": "uint128",
          "name": "",
          "type": "uint128"
        }
      ],
      "stateMutability": "view",
      "type": "function"
    },
    {
      "inputs": [
        {
          "internalType": "address",
          "name": "_priceUpdater",
          "type": "address"
        }
      ],
      "name": "initialize",
      "outputs": [],
      "stateMutability": "nonpayable",
      "type": "function"
    },
    {
      "inputs": [],
      "name": "onUpgrade",
      "outputs": [],
      "stateMutability": "nonpayable",
      "type": "function"
    },
    {
      "inputs": [],
      "name": "owner",
      "outputs": [
        {
          "internalType": "address",
          "name": "",
          "type": "address"
        }
      ],
      "stateMutability": "view",
      "type": "function"
    },
    {
      "inputs": [
        {
          "internalType": "address",
          "name": "",
          "type": "address"
        }
      ],
      "name": "priceUpdater",
      "outputs": [
        {
          "internalType": "bool",
          "name": "",
          "type": "bool"
        }
      ],
      "stateMutability": "view",
      "type": "function"
    },
    {
      "inputs": [],
      "name": "renounceOwnership",
      "outputs": [],
      "stateMutability": "nonpayable",
      "type": "function"
    },
    {
      "inputs": [
        {
          "components": [
            {
              "internalType": "uint16",
              "name": "chainId",
              "type": "uint16"
            },
            {
              "components": [
                {
                  "internalType": "uint128",
                  "name": "priceRatio",
                  "type": "uint128"
                },
                {
                  "internalType": "uint64",
                  "name": "gasPriceInUnit",
                  "type": "uint64"
                },
                {
                  "internalType": "uint32",
                  "name": "gasPerByte",
                  "type": "uint32"
                }
              ],
              "internalType": "struct ILayerZeroPriceFeed.Price",
              "name": "price",
              "type": "tuple"
            }
          ],
          "internalType": "struct ILayerZeroPriceFeed.UpdatePrice[]",
          "name": "_price",
          "type": "tuple[]"
        }
      ],
      "name": "setPrice",
      "outputs": [],
      "stateMutability": "nonpayable",
      "type": "function"
    },
    {
      "inputs": [
        {
          "components": [
            {
              "internalType": "uint16",
              "name": "chainId",
              "type": "uint16"
            },
            {
              "components": [
                {
                  "internalType": "uint128",
                  "name": "priceRatio",
                  "type": "uint128"
                },
                {
                  "internalType": "uint64",
                  "name": "gasPriceInUnit",
                  "type": "uint64"
                },
                {
                  "internalType": "uint32",
                  "name": "gasPerByte",
                  "type": "uint32"
                }
              ],
              "internalType": "struct ILayerZeroPriceFeed.Price",
              "name": "price",
              "type": "tuple"
            },
            {
              "components": [
                {
                  "internalType": "uint64",
                  "name": "gasPerL2Tx",
                  "type": "uint64"
                },
                {
                  "internalType": "uint32",
                  "name": "gasPerL1CallDataByte",
                  "type": "uint32"
                }
              ],
              "internalType": "struct ILayerZeroPriceFeed.ArbitrumPriceExt",
              "name": "extend",
              "type": "tuple"
            }
          ],
          "internalType": "struct ILayerZeroPriceFeed.UpdatePriceExt[]",
          "name": "_price",
          "type": "tuple[]"
        }
      ],
      "name": "setPriceForArbitrum",
      "outputs": [],
      "stateMutability": "nonpayable",
      "type": "function"
    },
    {
      "inputs": [
        {
          "internalType": "uint128",
          "name": "_denominator",
          "type": "uint128"
        }
      ],
      "name": "setPriceRatioDenominator",
      "outputs": [],
      "stateMutability": "nonpayable",
      "type": "function"
    },
    {
      "inputs": [
        {
          "internalType": "address",
          "name": "_addr",
          "type": "address"
        },
        {
          "internalType": "bool",
          "name": "_active",
          "type": "bool"
        }
      ],
      "name": "setPriceUpdater",
      "outputs": [],
      "stateMutability": "nonpayable",
      "type": "function"
    },
    {
      "inputs": [
        {
          "internalType": "address",
          "name": "newOwner",
          "type": "address"
        }
      ],
      "name": "transferOwnership",
      "outputs": [],
      "stateMutability": "nonpayable",
      "type": "function"
    }
  ],
  "transactionHash": "0x6b3ffdf515dc69cd8bf5bfa632857fcf17a6ba15ce273258b1fea04575b38956",
  "args": [],
  "numDeployments": 2,
  "solcInputHash": "f111316770cea15a6be35e67be40137e",
  "bytecode": "0x608060405234801561001057600080fd5b50611e98806100206000396000f3fe608060405234801561001057600080fd5b50600436106101515760003560e01c80638da5cb5b116100cd578063d350ad2511610081578063e15d16e811610066578063e15d16e8146102ae578063f2fde38b146102c1578063ff37b496146102d457610151565b8063d350ad251461027b578063e0ad121a1461028e57610151565b8063ab1518ab116100b2578063ab1518ab1461024d578063c184032714610260578063c4d66de81461026857610151565b80638da5cb5b146102165780638f7002d21461022b57610151565b806352a7251011610124578063715018a611610109578063715018a6146101cd5780637bc3c9ab146101d55780638ca2fb08146101f657610151565b806352a72510146101a7578063711746e2146101ba57610151565b806315527af6146101565780631824a46b1461016b57806336a5beba146101735780633c04741e14610192575b600080fd5b610169610164366004611aac565b6102e7565b005b610169610450565b61017b610507565b604051610189929190611dcd565b60405180910390f35b61019a61052b565b6040516101899190611d56565b6101696101b5366004611a72565b610543565b6101696101c8366004611b1c565b610641565b6101696106ea565b6101e86101e3366004611c13565b610801565b604051610189929190611dad565b610209610204366004611a51565b6108bf565b6040516101899190611c9a565b61021e6108d4565b6040516101899190611c79565b61023e610239366004611bf9565b6108f0565b60405161018993929190611d73565b6101e861025b366004611c13565b610957565b61019a610b11565b610169610276366004611a51565b610b29565b610169610289366004611bdf565b610d48565b6102a161029c366004611bf9565b610e33565b6040516101899190611d13565b6101e86102bc366004611c13565b610ec3565b6101696102cf366004611a51565b610f93565b6101e86102e2366004611c13565b611135565b336102f06108d4565b73ffffffffffffffffffffffffffffffffffffffff161461035d573360009081526066602052604090205460ff1661035d576040517f08c379a000000000000000000000000000000000000000000000000000000000815260040161035490611ca5565b60405180910390fd5b60005b8181101561044b573683838381811061037557fe5b60c0029190910191506103a790506103906020830183611bf9565b6103a236849003840160208501611b7a565b611242565b60006103b960a0830160808401611c5f565b905060006103cd60c0840160a08501611c45565b6068805463ffffffff90921668010000000000000000027fffffffffffffffffffffffffffffffffffffffff00000000ffffffffffffffff67ffffffffffffffff9095167fffffffffffffffffffffffffffffffffffffffffffffffff00000000000000009093169290921793909316179091555050600101610360565b505050565b600061045a61135e565b905073ffffffffffffffffffffffffffffffffffffffff81166104b35773ffffffffffffffffffffffffffffffffffffffff7fb53127684a568b3173ae13b9f8a6016e243e63b6e8ee1178d6a717850b5d6103556104d5565b3373ffffffffffffffffffffffffffffffffffffffff8216146104d557600080fd5b50606580547fffffffffffffffffffffffffffffffff00000000000000000000000000000000166402540be400179055565b60685467ffffffffffffffff81169068010000000000000000900463ffffffff1682565b6065546fffffffffffffffffffffffffffffffff1681565b61054b611383565b73ffffffffffffffffffffffffffffffffffffffff166105696108d4565b73ffffffffffffffffffffffffffffffffffffffff16146105eb57604080517f08c379a000000000000000000000000000000000000000000000000000000000815260206004820181905260248201527f4f776e61626c653a2063616c6c6572206973206e6f7420746865206f776e6572604482015290519081900360640190fd5b73ffffffffffffffffffffffffffffffffffffffff91909116600090815260666020526040902080547fffffffffffffffffffffffffffffffffffffffffffffffffffffffffffffff0016911515919091179055565b3361064a6108d4565b73ffffffffffffffffffffffffffffffffffffffff16146106ae573360009081526066602052604090205460ff166106ae576040517f08c379a000000000000000000000000000000000000000000000000000000000815260040161035490611ca5565b60005b8181101561044b57368383838181106106c657fe5b6080029190910191506106e190506103906020830183611bf9565b506001016106b1565b6106f2611383565b73ffffffffffffffffffffffffffffffffffffffff166107106108d4565b73ffffffffffffffffffffffffffffffffffffffff161461079257604080517f08c379a000000000000000000000000000000000000000000000000000000000815260206004820181905260248201527f4f776e61626c653a2063616c6c6572206973206e6f7420746865206f776e6572604482015290519081900360640190fd5b60335460405160009173ffffffffffffffffffffffffffffffffffffffff16907f8be0079c531659141344cd1fd0a4f28419497f9722a3daafe3b4186f6b6457e0908390a3603380547fffffffffffffffffffffffff0000000000000000000000000000000000000000169055565b6000808461ffff16606e148061081c57508461ffff1661279f145b8061082c57508461ffff16614eaf145b156108455761083c858585611135565b915091506108b7565b8461ffff16606f148061085d57508461ffff16612794145b8061086d57508461ffff16614ea4145b8061087c57508461ffff166097145b8061088c57508461ffff166127a7145b8061089c57508461ffff16614eb7145b156108ac5761083c858585610957565b61083c858585610ec3565b935093915050565b60666020526000908152604090205460ff1681565b60335473ffffffffffffffffffffffffffffffffffffffff1690565b6067602052600090815260409020546fffffffffffffffffffffffffffffffff811690700100000000000000000000000000000000810467ffffffffffffffff16907801000000000000000000000000000000000000000000000000900463ffffffff1683565b600080600061096586611387565b61ffff811660009081526067602052604081208054929350916109bd90610c74906109b7908a9063ffffffff780100000000000000000000000000000000000000000000000090910481169061146116565b906114dd565b82549091506000906109ee908390700100000000000000000000000000000000900467ffffffffffffffff16611461565b61ffff8a166000908152606760205260408120805492935091610a38908b9063ffffffff780100000000000000000000000000000000000000000000000090910481169061146116565b8254909150600090610a7290700100000000000000000000000000000000900467ffffffffffffffff16610a6c848d6114dd565b90611461565b6065548754919250600091610aa8916fffffffffffffffffffffffffffffffff90811691610aa291899116611461565b90611551565b6065548554919250600091610ad8916fffffffffffffffffffffffffffffffff90811691610aa291879116611461565b90506000610ae683836114dd565b9554959f6fffffffffffffffffffffffffffffffff9096169e50949c50505050505050505050505050565b6065546fffffffffffffffffffffffffffffffff1690565b6000610b3361135e565b905073ffffffffffffffffffffffffffffffffffffffff8116610b8c5773ffffffffffffffffffffffffffffffffffffffff7fb53127684a568b3173ae13b9f8a6016e243e63b6e8ee1178d6a717850b5d610355610bae565b3373ffffffffffffffffffffffffffffffffffffffff821614610bae57600080fd5b600054610100900460ff1680610bc75750610bc76115d2565b80610bd5575060005460ff16155b610c2a576040517f08c379a000000000000000000000000000000000000000000000000000000000815260040180806020018281038252602e815260200180611e14602e913960400191505060405180910390fd5b600054610100900460ff16158015610c9057600080547fffffffffffffffffffffffffffffffffffffffffffffffffffffffffffffff007fffffffffffffffffffffffffffffffffffffffffffffffffffffffffffff00ff909116610100171660011790555b610c986115e3565b73ffffffffffffffffffffffffffffffffffffffff8316600090815260666020526040902080547fffffffffffffffffffffffffffffffffffffffffffffffffffffffffffffff00166001179055606580547fffffffffffffffffffffffffffffffff00000000000000000000000000000000166402540be400179055801561044b57600080547fffffffffffffffffffffffffffffffffffffffffffffffffffffffffffff00ff169055505050565b610d50611383565b73ffffffffffffffffffffffffffffffffffffffff16610d6e6108d4565b73ffffffffffffffffffffffffffffffffffffffff1614610df057604080517f08c379a000000000000000000000000000000000000000000000000000000000815260206004820181905260248201527f4f776e61626c653a2063616c6c6572206973206e6f7420746865206f776e6572604482015290519081900360640190fd5b606580547fffffffffffffffffffffffffffffffff00000000000000000000000000000000166fffffffffffffffffffffffffffffffff92909216919091179055565b610e3b6119af565b5061ffff16600090815260676020908152604091829020825160608101845290546fffffffffffffffffffffffffffffffff81168252700100000000000000000000000000000000810467ffffffffffffffff1692820192909252780100000000000000000000000000000000000000000000000090910463ffffffff169181019190915290565b61ffff8316600090815260676020526040812080548291908290610f0e90879063ffffffff780100000000000000000000000000000000000000000000000090910481169061146116565b8254909150600090610f4290700100000000000000000000000000000000900467ffffffffffffffff16610a6c84896114dd565b6065548454919250610f6f916fffffffffffffffffffffffffffffffff91821691610aa291859116611461565b925492986fffffffffffffffffffffffffffffffff90931697509195505050505050565b610f9b611383565b73ffffffffffffffffffffffffffffffffffffffff16610fb96108d4565b73ffffffffffffffffffffffffffffffffffffffff161461103b57604080517f08c379a000000000000000000000000000000000000000000000000000000000815260206004820181905260248201527f4f776e61626c653a2063616c6c6572206973206e6f7420746865206f776e6572604482015290519081900360640190fd5b73ffffffffffffffffffffffffffffffffffffffff81166110a7576040517f08c379a0000000000000000000000000000000000000000000000000000000008152600401808060200182810382526026815260200180611dee6026913960400191505060405180910390fd5b60335460405173ffffffffffffffffffffffffffffffffffffffff8084169216907f8be0079c531659141344cd1fd0a4f28419497f9722a3daafe3b4186f6b6457e090600090a3603380547fffffffffffffffffffffffff00000000000000000000000000000000000000001673ffffffffffffffffffffffffffffffffffffffff92909216919091179055565b61ffff83166000908152606760205260408120606854829190829061117190879063ffffffff6801000000000000000090910481169061146116565b82549091506000906111aa90889063ffffffff780100000000000000000000000000000000000000000000000090910481169061146116565b83546068549192506000916111f09167ffffffffffffffff700100000000000000000000000000000000909104811691610a6c9186916109b791899183918f91166114dd565b606554855491925061121d916fffffffffffffffffffffffffffffffff91821691610aa291859116611461565b935493996fffffffffffffffffffffffffffffffff9094169850929650505050505050565b805160208083015160409384015184516060810186526fffffffffffffffffffffffffffffffff948516815267ffffffffffffffff92831681850190815263ffffffff92831682880190815261ffff909816600090815260679095529590932092518354955196519091167801000000000000000000000000000000000000000000000000027fffffffff00000000ffffffffffffffffffffffffffffffffffffffffffffffff96909216700100000000000000000000000000000000027fffffffffffffffff0000000000000000ffffffffffffffffffffffffffffffff919094167fffffffffffffffffffffffffffffffff0000000000000000000000000000000090951694909417939093169190911792909216179055565b7fb53127684a568b3173ae13b9f8a6016e243e63b6e8ee1178d6a717850b5d61035490565b3390565b60008161ffff16606e14806113a057508161ffff16606f145b806113af57508161ffff166097145b156113bc5750606561145c565b8161ffff1661279414806113d557508161ffff1661279f145b806113e557508161ffff166127a7145b156113f3575061278961145c565b8161ffff16614ea4148061140c57508161ffff16614eaf145b8061141c57508161ffff16614eb7145b1561142a5750614e9961145c565b6040517f08c379a000000000000000000000000000000000000000000000000000000000815260040161035490611cdc565b919050565b600082611470575060006114d7565b8282028284828161147d57fe5b04146114d4576040517f08c379a0000000000000000000000000000000000000000000000000000000008152600401808060200182810382526021815260200180611e426021913960400191505060405180910390fd5b90505b92915050565b6000828201838110156114d457604080517f08c379a000000000000000000000000000000000000000000000000000000000815260206004820152601b60248201527f536166654d6174683a206164646974696f6e206f766572666c6f770000000000604482015290519081900360640190fd5b60008082116115c157604080517f08c379a000000000000000000000000000000000000000000000000000000000815260206004820152601a60248201527f536166654d6174683a206469766973696f6e206279207a65726f000000000000604482015290519081900360640190fd5b8183816115ca57fe5b049392505050565b60006115dd30611707565b15905090565b600054610100900460ff16806115fc57506115fc6115d2565b8061160a575060005460ff16155b61165f576040517f08c379a000000000000000000000000000000000000000000000000000000000815260040180806020018281038252602e815260200180611e14602e913960400191505060405180910390fd5b600054610100900460ff161580156116c557600080547fffffffffffffffffffffffffffffffffffffffffffffffffffffffffffffff007fffffffffffffffffffffffffffffffffffffffffffffffffffffffffffff00ff909116610100171660011790555b6116cd61170d565b6116d561181f565b801561170457600080547fffffffffffffffffffffffffffffffffffffffffffffffffffffffffffff00ff1690555b50565b3b151590565b600054610100900460ff168061172657506117266115d2565b80611734575060005460ff16155b611789576040517f08c379a000000000000000000000000000000000000000000000000000000000815260040180806020018281038252602e815260200180611e14602e913960400191505060405180910390fd5b600054610100900460ff161580156116d557600080547fffffffffffffffffffffffffffffffffffffffffffffffffffffffffffffff007fffffffffffffffffffffffffffffffffffffffffffffffffffffffffffff00ff90911661010017166001179055801561170457600080547fffffffffffffffffffffffffffffffffffffffffffffffffffffffffffff00ff16905550565b600054610100900460ff168061183857506118386115d2565b80611846575060005460ff16155b61189b576040517f08c379a000000000000000000000000000000000000000000000000000000000815260040180806020018281038252602e815260200180611e14602e913960400191505060405180910390fd5b600054610100900460ff1615801561190157600080547fffffffffffffffffffffffffffffffffffffffffffffffffffffffffffffff007fffffffffffffffffffffffffffffffffffffffffffffffffffffffffffff00ff909116610100171660011790555b600061190b611383565b603380547fffffffffffffffffffffffff00000000000000000000000000000000000000001673ffffffffffffffffffffffffffffffffffffffff8316908117909155604051919250906000907f8be0079c531659141344cd1fd0a4f28419497f9722a3daafe3b4186f6b6457e0908290a350801561170457600080547fffffffffffffffffffffffffffffffffffffffffffffffffffffffffffff00ff16905550565b604080516060810182526000808252602082018190529181019190915290565b803573ffffffffffffffffffffffffffffffffffffffff8116811461145c57600080fd5b80356fffffffffffffffffffffffffffffffff8116811461145c57600080fd5b803561ffff8116811461145c57600080fd5b803563ffffffff8116811461145c57600080fd5b803567ffffffffffffffff8116811461145c57600080fd5b600060208284031215611a62578081fd5b611a6b826119cf565b9392505050565b60008060408385031215611a84578081fd5b611a8d836119cf565b915060208301358015158114611aa1578182fd5b809150509250929050565b60008060208385031215611abe578182fd5b823567ffffffffffffffff80821115611ad5578384fd5b818501915085601f830112611ae8578384fd5b813581811115611af6578485fd5b86602060c083028501011115611b0a578485fd5b60209290920196919550909350505050565b60008060208385031215611b2e578182fd5b823567ffffffffffffffff80821115611b45578384fd5b818501915085601f830112611b58578384fd5b813581811115611b66578485fd5b866020608083028501011115611b0a578485fd5b600060608284031215611b8b578081fd5b6040516060810181811067ffffffffffffffff82111715611ba857fe5b604052611bb4836119f3565b8152611bc260208401611a39565b6020820152611bd360408401611a25565b60408201529392505050565b600060208284031215611bf0578081fd5b611a6b826119f3565b600060208284031215611c0a578081fd5b611a6b82611a13565b600080600060608486031215611c27578081fd5b611c3084611a13565b95602085013595506040909401359392505050565b600060208284031215611c56578081fd5b611a6b82611a25565b600060208284031215611c70578081fd5b611a6b82611a39565b73ffffffffffffffffffffffffffffffffffffffff91909116815260200190565b901515815260200190565b6020808252601c908201527f5072696365466565643a206e6f74207072696365207570646174657200000000604082015260600190565b6020808252601e908201527f5072696365466565643a20756e6b6e6f776e206c3220636861696e2069640000604082015260600190565b81516fffffffffffffffffffffffffffffffff16815260208083015167ffffffffffffffff169082015260409182015163ffffffff169181019190915260600190565b6fffffffffffffffffffffffffffffffff91909116815260200190565b6fffffffffffffffffffffffffffffffff93909316835267ffffffffffffffff91909116602083015263ffffffff16604082015260600190565b9182526fffffffffffffffffffffffffffffffff16602082015260400190565b67ffffffffffffffff92909216825263ffffffff1660208201526040019056fe4f776e61626c653a206e6577206f776e657220697320746865207a65726f2061646472657373496e697469616c697a61626c653a20636f6e747261637420697320616c726561647920696e697469616c697a6564536166654d6174683a206d756c7469706c69636174696f6e206f766572666c6f77a2646970667358221220f4e3ed078be4efbf632d5230bdf7b05ddda28f7c70c881e715b9e686209fa1cc64736f6c63430007060033",
  "devdoc": {
    "kind": "dev",
    "methods": {
      "owner()": {
        "details": "Returns the address of the current owner."
      },
      "renounceOwnership()": {
        "details": "Leaves the contract without owner. It will not be possible to call `onlyOwner` functions anymore. Can only be called by the current owner. NOTE: Renouncing ownership will leave the contract without an owner, thereby removing any functionality that is only available to the owner."
      },
      "transferOwnership(address)": {
        "details": "Transfers ownership of the contract to a new account (`newOwner`). Can only be called by the current owner."
      }
    },
    "version": 1
  },
  "userdoc": {
    "kind": "user",
    "methods": {},
    "version": 1
  },
  "storageLayout": {
    "storage": [
      {
        "astId": 137,
        "contract": "contracts/PriceFeed.sol:PriceFeed",
        "label": "_initialized",
        "offset": 0,
        "slot": "0",
        "type": "t_bool"
      },
      {
        "astId": 140,
        "contract": "contracts/PriceFeed.sol:PriceFeed",
        "label": "_initializing",
        "offset": 1,
        "slot": "0",
        "type": "t_bool"
      },
      {
        "astId": 484,
        "contract": "contracts/PriceFeed.sol:PriceFeed",
        "label": "__gap",
        "offset": 0,
        "slot": "1",
        "type": "t_array(t_uint256)50_storage"
      },
      {
        "astId": 10,
        "contract": "contracts/PriceFeed.sol:PriceFeed",
        "label": "_owner",
        "offset": 0,
        "slot": "51",
        "type": "t_address"
      },
      {
        "astId": 129,
        "contract": "contracts/PriceFeed.sol:PriceFeed",
        "label": "__gap",
        "offset": 0,
        "slot": "52",
        "type": "t_array(t_uint256)49_storage"
      },
      {
        "astId": 4689,
        "contract": "contracts/PriceFeed.sol:PriceFeed",
        "label": "PRICE_RATIO_DENOMINATOR",
        "offset": 0,
        "slot": "101",
        "type": "t_uint128"
      },
      {
        "astId": 4693,
        "contract": "contracts/PriceFeed.sol:PriceFeed",
        "label": "priceUpdater",
        "offset": 0,
        "slot": "102",
        "type": "t_mapping(t_address,t_bool)"
      },
      {
        "astId": 4697,
        "contract": "contracts/PriceFeed.sol:PriceFeed",
        "label": "defaultModelPrice",
        "offset": 0,
        "slot": "103",
        "type": "t_mapping(t_uint16,t_struct(Price)16281_storage)"
      },
      {
        "astId": 4699,
        "contract": "contracts/PriceFeed.sol:PriceFeed",
        "label": "arbitrumPriceExt",
        "offset": 0,
        "slot": "104",
        "type": "t_struct(ArbitrumPriceExt)16291_storage"
      }
    ],
    "types": {
      "t_address": {
        "encoding": "inplace",
        "label": "address",
        "numberOfBytes": "20"
      },
      "t_array(t_uint256)49_storage": {
        "base": "t_uint256",
        "encoding": "inplace",
        "label": "uint256[49]",
        "numberOfBytes": "1568"
      },
      "t_array(t_uint256)50_storage": {
        "base": "t_uint256",
        "encoding": "inplace",
        "label": "uint256[50]",
        "numberOfBytes": "1600"
      },
      "t_bool": {
        "encoding": "inplace",
        "label": "bool",
        "numberOfBytes": "1"
      },
      "t_mapping(t_address,t_bool)": {
        "encoding": "mapping",
        "key": "t_address",
        "label": "mapping(address => bool)",
        "numberOfBytes": "32",
        "value": "t_bool"
      },
      "t_mapping(t_uint16,t_struct(Price)16281_storage)": {
        "encoding": "mapping",
        "key": "t_uint16",
        "label": "mapping(uint16 => struct ILayerZeroPriceFeed.Price)",
        "numberOfBytes": "32",
        "value": "t_struct(Price)16281_storage"
      },
      "t_struct(ArbitrumPriceExt)16291_storage": {
        "encoding": "inplace",
        "label": "struct ILayerZeroPriceFeed.ArbitrumPriceExt",
        "members": [
          {
            "astId": 16288,
            "contract": "contracts/PriceFeed.sol:PriceFeed",
            "label": "gasPerL2Tx",
            "offset": 0,
            "slot": "0",
            "type": "t_uint64"
          },
          {
            "astId": 16290,
            "contract": "contracts/PriceFeed.sol:PriceFeed",
            "label": "gasPerL1CallDataByte",
            "offset": 8,
            "slot": "0",
            "type": "t_uint32"
          }
        ],
        "numberOfBytes": "32"
      },
      "t_struct(Price)16281_storage": {
        "encoding": "inplace",
        "label": "struct ILayerZeroPriceFeed.Price",
        "members": [
          {
            "astId": 16276,
            "contract": "contracts/PriceFeed.sol:PriceFeed",
            "label": "priceRatio",
            "offset": 0,
            "slot": "0",
            "type": "t_uint128"
          },
          {
            "astId": 16278,
            "contract": "contracts/PriceFeed.sol:PriceFeed",
            "label": "gasPriceInUnit",
            "offset": 16,
            "slot": "0",
            "type": "t_uint64"
          },
          {
            "astId": 16280,
            "contract": "contracts/PriceFeed.sol:PriceFeed",
            "label": "gasPerByte",
            "offset": 24,
            "slot": "0",
            "type": "t_uint32"
          }
        ],
        "numberOfBytes": "32"
      },
      "t_uint128": {
        "encoding": "inplace",
        "label": "uint128",
        "numberOfBytes": "16"
      },
      "t_uint16": {
        "encoding": "inplace",
        "label": "uint16",
        "numberOfBytes": "2"
      },
      "t_uint256": {
        "encoding": "inplace",
        "label": "uint256",
        "numberOfBytes": "32"
      },
      "t_uint32": {
        "encoding": "inplace",
        "label": "uint32",
        "numberOfBytes": "4"
      },
      "t_uint64": {
        "encoding": "inplace",
        "label": "uint64",
        "numberOfBytes": "8"
      }
    }
  }
}