{
  "address": "0xE86B3dc50ceC24e8A277A6749c1c9299DA8BcE71",
  "abi": [
    {
      "inputs": [
        {
          "internalType": "address",
          "name": "_endpoint",
          "type": "address"
        }
      ],
      "stateMutability": "nonpayable",
      "type": "constructor"
    },
    {
      "anonymous": false,
      "inputs": [
        {
          "indexed": true,
          "internalType": "address",
          "name": "previousOwner",
          "type": "address"
        },
        {
          "indexed": true,
          "internalType": "address",
          "name": "newOwner",
          "type": "address"
        }
      ],
      "name": "OwnershipTransferred",
      "type": "event"
    },
    {
      "stateMutability": "payable",
      "type": "fallback"
    },
    {
      "inputs": [
        {
          "internalType": "uint16",
          "name": "_dstChainId",
          "type": "uint16"
        },
        {
          "internalType": "bytes",
          "name": "_payload",
          "type": "bytes"
        },
        {
          "internalType": "address payable",
          "name": "_refundAddress",
          "type": "address"
        },
        {
          "internalType": "address",
          "name": "_zroPaymentAddress",
          "type": "address"
        },
        {
          "internalType": "bytes",
          "name": "_adapterParams",
          "type": "bytes"
        }
      ],
      "name": "_incrementCounter",
      "outputs": [],
      "stateMutability": "payable",
      "type": "function"
    },
    {
      "inputs": [
        {
          "internalType": "address",
          "name": "token",
          "type": "address"
        },
        {
          "internalType": "address",
          "name": "spender",
          "type": "address"
        },
        {
          "internalType": "uint256",
          "name": "amount",
          "type": "uint256"
        }
      ],
      "name": "approveTokenSpender",
      "outputs": [],
      "stateMutability": "nonpayable",
      "type": "function"
    },
    {
      "inputs": [],
      "name": "endpoint",
      "outputs": [
        {
          "internalType": "contract ILayerZeroEndpoint",
          "name": "",
          "type": "address"
        }
      ],
      "stateMutability": "view",
      "type": "function"
    },
    {
      "inputs": [
        {
          "internalType": "uint16",
          "name": "_srcChainId",
          "type": "uint16"
        },
        {
          "internalType": "bytes",
          "name": "_srcAddress",
          "type": "bytes"
        }
      ],
      "name": "forceResumeReceive",
      "outputs": [],
      "stateMutability": "nonpayable",
      "type": "function"
    },
    {
      "inputs": [
        {
          "internalType": "uint16",
          "name": "",
          "type": "uint16"
        },
        {
          "internalType": "uint16",
          "name": "_chainId",
          "type": "uint16"
        },
        {
          "internalType": "address",
          "name": "",
          "type": "address"
        },
        {
          "internalType": "uint256",
          "name": "_configType",
          "type": "uint256"
        }
      ],
      "name": "getConfig",
      "outputs": [
        {
          "internalType": "bytes",
          "name": "",
          "type": "bytes"
        }
      ],
      "stateMutability": "view",
      "type": "function"
    },
    {
      "inputs": [],
      "name": "getCounter",
      "outputs": [
        {
          "internalType": "uint256",
          "name": "",
          "type": "uint256"
        }
      ],
      "stateMutability": "view",
      "type": "function"
    },
    {
      "inputs": [
        {
          "internalType": "uint16",
          "name": "remoteChainId",
          "type": "uint16"
        }
      ],
      "name": "getOracle",
      "outputs": [
        {
          "internalType": "address",
          "name": "_oracle",
          "type": "address"
        }
      ],
      "stateMutability": "view",
      "type": "function"
    },
    {
      "inputs": [],
      "name": "getReceiveVersion",
      "outputs": [
        {
          "internalType": "uint16",
          "name": "",
          "type": "uint16"
        }
      ],
      "stateMutability": "view",
      "type": "function"
    },
    {
      "inputs": [],
      "name": "getSendVersion",
      "outputs": [
        {
          "internalType": "uint16",
          "name": "",
          "type": "uint16"
        }
      ],
      "stateMutability": "view",
      "type": "function"
    },
    {
      "inputs": [
        {
          "internalType": "uint16",
          "name": "_dstChainId",
          "type": "uint16"
        },
        {
          "internalType": "bytes",
          "name": "_adapterParams",
          "type": "bytes"
        },
        {
          "internalType": "bytes",
          "name": "payload",
          "type": "bytes"
        }
      ],
      "name": "incrementCounter",
      "outputs": [],
      "stateMutability": "payable",
      "type": "function"
    },
    {
      "inputs": [
        {
          "internalType": "uint16",
          "name": "_srcChainId",
          "type": "uint16"
        },
        {
          "internalType": "bytes",
          "name": "_fromAddress",
          "type": "bytes"
        },
        {
          "internalType": "uint64",
          "name": "",
          "type": "uint64"
        },
        {
          "internalType": "bytes",
          "name": "_payload",
          "type": "bytes"
        }
      ],
      "name": "lzReceive",
      "outputs": [],
      "stateMutability": "nonpayable",
      "type": "function"
    },
    {
      "inputs": [],
      "name": "messageCounter",
      "outputs": [
        {
          "internalType": "uint256",
          "name": "",
          "type": "uint256"
        }
      ],
      "stateMutability": "view",
      "type": "function"
    },
    {
      "inputs": [
        {
          "internalType": "uint16[]",
          "name": "_dstChainIds",
          "type": "uint16[]"
        },
        {
          "internalType": "bytes",
          "name": "_adapterParams",
          "type": "bytes"
        },
        {
          "internalType": "bytes",
          "name": "payload",
          "type": "bytes"
        }
      ],
      "name": "multiIncrementCounter",
      "outputs": [],
      "stateMutability": "payable",
      "type": "function"
    },
    {
      "inputs": [],
      "name": "owner",
      "outputs": [
        {
          "internalType": "address",
          "name": "",
          "type": "address"
        }
      ],
      "stateMutability": "view",
      "type": "function"
    },
    {
      "inputs": [],
      "name": "payInZRO",
      "outputs": [
        {
          "internalType": "bool",
          "name": "",
          "type": "bool"
        }
      ],
      "stateMutability": "view",
      "type": "function"
    },
    {
      "inputs": [
        {
          "internalType": "address",
          "name": "",
          "type": "address"
        }
      ],
      "name": "remoteAddressCounter",
      "outputs": [
        {
          "internalType": "uint256",
          "name": "",
          "type": "uint256"
        }
      ],
      "stateMutability": "view",
      "type": "function"
    },
    {
      "inputs": [],
      "name": "renounceOwnership",
      "outputs": [],
      "stateMutability": "nonpayable",
      "type": "function"
    },
    {
      "inputs": [
        {
          "internalType": "uint16",
          "name": "",
          "type": "uint16"
        },
        {
          "internalType": "uint16",
          "name": "_chainId",
          "type": "uint16"
        },
        {
          "internalType": "uint256",
          "name": "_configType",
          "type": "uint256"
        },
        {
          "internalType": "bytes",
          "name": "_config",
          "type": "bytes"
        }
      ],
      "name": "setConfig",
      "outputs": [],
      "stateMutability": "nonpayable",
      "type": "function"
    },
    {
      "inputs": [
        {
          "internalType": "uint16",
          "name": "remoteChainId",
          "type": "uint16"
        },
        {
          "internalType": "uint16",
          "name": "confirmations",
          "type": "uint16"
        }
      ],
      "name": "setInboundConfirmations",
      "outputs": [],
      "stateMutability": "nonpayable",
      "type": "function"
    },
    {
      "inputs": [
        {
          "internalType": "uint16",
          "name": "dstChainId",
          "type": "uint16"
        },
        {
          "internalType": "address",
          "name": "oracle",
          "type": "address"
        }
      ],
      "name": "setOracle",
      "outputs": [],
      "stateMutability": "nonpayable",
      "type": "function"
    },
    {
      "inputs": [
        {
          "internalType": "uint16",
          "name": "remoteChainId",
          "type": "uint16"
        },
        {
          "internalType": "uint16",
          "name": "confirmations",
          "type": "uint16"
        }
      ],
      "name": "setOutboundConfirmations",
      "outputs": [],
      "stateMutability": "nonpayable",
      "type": "function"
    },
    {
      "inputs": [
        {
          "internalType": "bool",
          "name": "_payInZRO",
          "type": "bool"
        }
      ],
      "name": "setPayInZRO",
      "outputs": [],
      "stateMutability": "nonpayable",
      "type": "function"
    },
    {
      "inputs": [
        {
          "internalType": "uint16",
          "name": "version",
          "type": "uint16"
        }
      ],
      "name": "setReceiveVersion",
      "outputs": [],
      "stateMutability": "nonpayable",
      "type": "function"
    },
    {
      "inputs": [
        {
          "internalType": "uint16",
          "name": "dstChainId",
          "type": "uint16"
        },
        {
          "internalType": "address",
          "name": "relayer",
          "type": "address"
        }
      ],
      "name": "setRelayer",
      "outputs": [],
      "stateMutability": "nonpayable",
      "type": "function"
    },
    {
      "inputs": [
        {
          "internalType": "uint16",
          "name": "version",
          "type": "uint16"
        }
      ],
      "name": "setSendVersion",
      "outputs": [],
      "stateMutability": "nonpayable",
      "type": "function"
    },
    {
      "inputs": [
        {
          "internalType": "uint16",
          "name": "_srcChainId",
          "type": "uint16"
        },
        {
          "internalType": "bytes",
          "name": "_srcAddress",
          "type": "bytes"
        }
      ],
      "name": "setTrustedRemote",
      "outputs": [],
      "stateMutability": "nonpayable",
      "type": "function"
    },
    {
      "inputs": [
        {
          "internalType": "address",
          "name": "newOwner",
          "type": "address"
        }
      ],
      "name": "transferOwnership",
      "outputs": [],
      "stateMutability": "nonpayable",
      "type": "function"
    },
    {
      "inputs": [
        {
          "internalType": "uint16",
          "name": "",
          "type": "uint16"
        }
      ],
      "name": "trustedRemoteLookup",
      "outputs": [
        {
          "internalType": "bytes",
          "name": "",
          "type": "bytes"
        }
      ],
      "stateMutability": "view",
      "type": "function"
    },
    {
      "stateMutability": "payable",
      "type": "receive"
    }
  ],
  "transactionHash": "0xfdbbf66dff830a41c437247577763d48e2615a5b1e352103e8cc72687d281fc0",
  "args": [
    "0xf69186dfBa60DdB133E91E9A4B5673624293d8F8"
  ],
  "numDeployments": 1,
  "solcInputHash": "9101e5e3dc3fbc957d6bf765a6752882",
  "bytecode": "0x60806040523480156200001157600080fd5b50604051620029be380380620029be8339810160408190526200003491620000b4565b600062000040620000b0565b600080546001600160a01b0319166001600160a01b0383169081178255604051929350917f8be0079c531659141344cd1fd0a4f28419497f9722a3daafe3b4186f6b6457e0908290a350600380546001600160a01b0319166001600160a01b0392909216919091179055620000e4565b3390565b600060208284031215620000c6578081fd5b81516001600160a01b0381168114620000dd578182fd5b9392505050565b6128ca80620000f46000396000f3fe6080604052600436106101ba5760003560e01c8063715018a6116100ec578063cf5d14711161008a578063eb8d72b711610064578063eb8d72b7146104dd578063f0211f16146104fd578063f2fde38b1461051d578063f5ecbdbc1461053d57610210565b8063cf5d147114610488578063d7d3c3b91461049d578063e2f28824146104bd57610210565b80638ada066e116100c65780638ada066e1461041e5780638da5cb5b14610433578063b7e0f7ba14610448578063cbed8b9c1461046857610210565b8063715018a6146103ba5780637533d788146103cf5780637af9ce73146103fc57610210565b806342d65a8d1161015957806354a5beda1161013357806354a5beda1461034357806355ebce6a146103655780635e280f11146103785780636df653711461039a57610210565b806342d65a8d146102d8578063492e527e146102f8578063529c75881461031857610210565b806311b02b651161019557806311b02b65146102725780632b2257dc1461028557806333cd8070146102a557806341e63d13146102b857610210565b80621d35671461021257806307e0db171461023257806310ddb1371461025257610210565b36610210576103e8341080156101d1575034600a14155b610210576040517f08c379a000000000000000000000000000000000000000000000000000000000815260040161020790612564565b60405180910390fd5b005b34801561021e57600080fd5b5061021061022d3660046121fd565b61055d565b34801561023e57600080fd5b5061021061024d36600461201d565b61075d565b34801561025e57600080fd5b5061021061026d36600461201d565b6107e8565b610210610280366004612160565b61083e565b34801561029157600080fd5b506102106102a0366004612289565b610996565b6102106102b3366004611ebb565b610abc565b3480156102c457600080fd5b506102106102d3366004611f7b565b610cde565b3480156102e457600080fd5b506102106102f336600461208d565b610dd0565b34801561030457600080fd5b50610210610313366004612055565b610dd5565b34801561032457600080fd5b5061032d610efc565b60405161033a9190612792565b60405180910390f35b34801561034f57600080fd5b50610358610f02565b60405161033a919061261e565b6102106103733660046120e0565b610fae565b34801561038457600080fd5b5061038d611056565b60405161033a9190612491565b3480156103a657600080fd5b506102106103b5366004612289565b611072565b3480156103c657600080fd5b50610210611134565b3480156103db57600080fd5b506103ef6103ea36600461201d565b61124b565b60405161033a91906124e3565b34801561040857600080fd5b50610411611304565b60405161033a91906124d8565b34801561042a57600080fd5b5061032d611325565b34801561043f57600080fd5b5061038d61132b565b34801561045457600080fd5b5061032d610463366004611e58565b611347565b34801561047457600080fd5b50610210610483366004612306565b611359565b34801561049457600080fd5b50610358611464565b3480156104a957600080fd5b506102106104b8366004611e7b565b6114bb565b3480156104c957600080fd5b5061038d6104d836600461201d565b61160f565b3480156104e957600080fd5b506102106104f836600461208d565b611762565b34801561050957600080fd5b50610210610518366004612055565b611828565b34801561052957600080fd5b50610210610538366004611e58565b611887565b34801561054957600080fd5b506103ef6105583660046122b6565b611a28565b60035473ffffffffffffffffffffffffffffffffffffffff16331461058157600080fd5b61058b8484611b74565b60148301516040516105c1907f666600000000000000000000000000000000000000000000000000000000000090602001612448565b60405160208183030381529060405280519060200120826040516020016105e89190612475565b60405160208183030381529060405280519060200120148061067557507f6666000000000000000000000000000000000000000000000000000000000000604051602001610636919061241b565b604051602081830303815290604052805190602001208260405160200161065d9190612475565b60405160208183030381529060405280519060200120145b1561072357600354604080516020808201835260008083528351918201845280825292517fc2fa481300000000000000000000000000000000000000000000000000000000815273ffffffffffffffffffffffffffffffffffffffff9094169363c2fa4813936106f0936001939092849182916004016124f6565b600060405180830381600087803b15801561070a57600080fd5b505af115801561071e573d6000803e3d6000fd5b505050505b73ffffffffffffffffffffffffffffffffffffffff1660009081526002602052604090208054600190810190915580548101905550505050565b6003546040517f07e0db1700000000000000000000000000000000000000000000000000000000815273ffffffffffffffffffffffffffffffffffffffff909116906307e0db17906107b390849060040161261e565b600060405180830381600087803b1580156107cd57600080fd5b505af11580156107e1573d6000803e3d6000fd5b5050505050565b6003546040517f10ddb13700000000000000000000000000000000000000000000000000000000815273ffffffffffffffffffffffffffffffffffffffff909116906310ddb137906107b390849060040161261e565b61ffff851660009081526004602090815260408083208054825160026001831615610100027fffffffffffffffffffffffffffffffffffffffffffffffffffffffffffffffff0190921691909104601f8101859004850282018501909352828152929091908301828280156108f45780601f106108c9576101008083540402835291602001916108f4565b820191906000526020600020905b8154815290600101906020018083116108d757829003601f168201915b50506003546040517fc580310000000000000000000000000000000000000000000000000000000000815294955073ffffffffffffffffffffffffffffffffffffffff169363c5803100935034925061095c91508a9086908b908b908b908b90600401612681565b6000604051808303818588803b15801561097557600080fd5b505af1158015610989573d6000803e3d6000fd5b5050505050505050505050565b6003546040517f096568f600000000000000000000000000000000000000000000000000000000815273ffffffffffffffffffffffffffffffffffffffff9091169063cbed8b9c90829063096568f6906109f4903090600401612491565b60206040518083038186803b158015610a0c57600080fd5b505afa158015610a20573d6000803e3d6000fd5b505050506040513d601f19601f82011682018060405250810190610a449190612039565b84600585604051602001610a58919061261e565b6040516020818303038152906040526040518563ffffffff1660e01b8152600401610a869493929190612722565b600060405180830381600087803b158015610aa057600080fd5b505af1158015610ab4573d6000803e3d6000fd5b505050505050565b60008686808060200260200160405190810160405280939291908181526020018383602002808284376000920182905250604080516020601f8c018190048102820181019092528a8152959650909493508992508891508190840183828082843760009201829052509394503493925050505b8351811015610ca457600354845160009173ffffffffffffffffffffffffffffffffffffffff16906340a7bb1090879085908110610b6957fe5b6020026020010151308a8a600360149054906101000a900460ff168a6040518763ffffffff1660e01b8152600401610ba69695949392919061262d565b604080518083038186803b158015610bbd57600080fd5b505afa158015610bd1573d6000803e3d6000fd5b505050506040513d601f19601f82011682018060405250810190610bf59190612366565b509050610c028382611c86565b60035490935060009074010000000000000000000000000000000000000000900460ff16610c31576000610c33565b305b9050610c9a8c8c85818110610c4457fe5b9050602002016020810190610c59919061201d565b89898080601f0160208091040260200160405190810160405280939291908181526020018383808284376000920191909152503392508691508a905061083e565b5050600101610b2f565b50604051339082156108fc029083906000818181858888f19350505050158015610cd2573d6000803e3d6000fd5b50505050505050505050565b610ce6611cfd565b73ffffffffffffffffffffffffffffffffffffffff16610d0461132b565b73ffffffffffffffffffffffffffffffffffffffff1614610d8657604080517f08c379a000000000000000000000000000000000000000000000000000000000815260206004820181905260248201527f4f776e61626c653a2063616c6c6572206973206e6f7420746865206f776e6572604482015290519081900360640190fd5b6003805491151574010000000000000000000000000000000000000000027fffffffffffffffffffffff00ffffffffffffffffffffffffffffffffffffffff909216919091179055565b505050565b6003546040517f096568f600000000000000000000000000000000000000000000000000000000815260069173ffffffffffffffffffffffffffffffffffffffff169063cbed8b9c90829063096568f690610e34903090600401612491565b60206040518083038186803b158015610e4c57600080fd5b505afa158015610e60573d6000803e3d6000fd5b505050506040513d601f19601f82011682018060405250810190610e849190612039565b858486604051602001610e979190612491565b6040516020818303038152906040526040518563ffffffff1660e01b8152600401610ec59493929190612722565b600060405180830381600087803b158015610edf57600080fd5b505af1158015610ef3573d6000803e3d6000fd5b50505050505050565b60015481565b6003546040517f096568f600000000000000000000000000000000000000000000000000000000815260009173ffffffffffffffffffffffffffffffffffffffff169063096568f690610f59903090600401612491565b60206040518083038186803b158015610f7157600080fd5b505afa158015610f85573d6000803e3d6000fd5b505050506040513d601f19601f82011682018060405250810190610fa99190612039565b905090565b60035460009074010000000000000000000000000000000000000000900460ff16610fda576000610fdc565b305b9050610ab48684848080601f01602080910402602001604051908101604052809392919081815260200183838082843760009201919091525050604080516020601f8c018190048102820181019092528a8152339350879250908b908b908190840183828082843760009201919091525061083e92505050565b60035473ffffffffffffffffffffffffffffffffffffffff1681565b6003546040517f096568f600000000000000000000000000000000000000000000000000000000815273ffffffffffffffffffffffffffffffffffffffff9091169063cbed8b9c90829063096568f6906110d0903090600401612491565b60206040518083038186803b1580156110e857600080fd5b505afa1580156110fc573d6000803e3d6000fd5b505050506040513d601f19601f820116820180604052508101906111209190612039565b84600285604051602001610a58919061261e565b61113c611cfd565b73ffffffffffffffffffffffffffffffffffffffff1661115a61132b565b73ffffffffffffffffffffffffffffffffffffffff16146111dc57604080517f08c379a000000000000000000000000000000000000000000000000000000000815260206004820181905260248201527f4f776e61626c653a2063616c6c6572206973206e6f7420746865206f776e6572604482015290519081900360640190fd5b6000805460405173ffffffffffffffffffffffffffffffffffffffff909116907f8be0079c531659141344cd1fd0a4f28419497f9722a3daafe3b4186f6b6457e0908390a3600080547fffffffffffffffffffffffff0000000000000000000000000000000000000000169055565b60046020908152600091825260409182902080548351601f60027fffffffffffffffffffffffffffffffffffffffffffffffffffffffffffffffff610100600186161502019093169290920491820184900484028101840190945280845290918301828280156112fc5780601f106112d1576101008083540402835291602001916112fc565b820191906000526020600020905b8154815290600101906020018083116112df57829003601f168201915b505050505081565b60035474010000000000000000000000000000000000000000900460ff1681565b60015490565b60005473ffffffffffffffffffffffffffffffffffffffff1690565b60026020526000908152604090205481565b6003546040517f096568f600000000000000000000000000000000000000000000000000000000815273ffffffffffffffffffffffffffffffffffffffff9091169063cbed8b9c90829063096568f6906113b7903090600401612491565b60206040518083038186803b1580156113cf57600080fd5b505afa1580156113e3573d6000803e3d6000fd5b505050506040513d601f19601f820116820180604052508101906114079190612039565b868686866040518663ffffffff1660e01b815260040161142b959493929190612759565b600060405180830381600087803b15801561144557600080fd5b505af1158015611459573d6000803e3d6000fd5b505050505050505050565b6003546040517fda1a7c9a00000000000000000000000000000000000000000000000000000000815260009173ffffffffffffffffffffffffffffffffffffffff169063da1a7c9a90610f59903090600401612491565b6114c3611cfd565b73ffffffffffffffffffffffffffffffffffffffff166114e161132b565b73ffffffffffffffffffffffffffffffffffffffff161461156357604080517f08c379a000000000000000000000000000000000000000000000000000000000815260206004820181905260248201527f4f776e61626c653a2063616c6c6572206973206e6f7420746865206f776e6572604482015290519081900360640190fd5b6040517f095ea7b300000000000000000000000000000000000000000000000000000000815273ffffffffffffffffffffffffffffffffffffffff84169063095ea7b3906115b790859085906004016124b2565b602060405180830381600087803b1580156115d157600080fd5b505af11580156115e5573d6000803e3d6000fd5b505050506040513d601f19601f820116820180604052508101906116099190611f97565b50505050565b6003546040517f096568f6000000000000000000000000000000000000000000000000000000008152600091829173ffffffffffffffffffffffffffffffffffffffff9091169063f5ecbdbc90829063096568f690611672903090600401612491565b60206040518083038186803b15801561168a57600080fd5b505afa15801561169e573d6000803e3d6000fd5b505050506040513d601f19601f820116820180604052508101906116c29190612039565b853060066040518563ffffffff1660e01b81526004016116e594939291906126e8565b60006040518083038186803b1580156116fd57600080fd5b505afa158015611711573d6000803e3d6000fd5b505050506040513d6000823e601f3d9081017fffffffffffffffffffffffffffffffffffffffffffffffffffffffffffffffe01682016040526117579190810190611fb3565b602001519392505050565b61176a611cfd565b73ffffffffffffffffffffffffffffffffffffffff1661178861132b565b73ffffffffffffffffffffffffffffffffffffffff161461180a57604080517f08c379a000000000000000000000000000000000000000000000000000000000815260206004820181905260248201527f4f776e61626c653a2063616c6c6572206973206e6f7420746865206f776e6572604482015290519081900360640190fd5b61ffff83166000908152600460205260409020611609908383611d01565b600380546040517f096568f600000000000000000000000000000000000000000000000000000000815273ffffffffffffffffffffffffffffffffffffffff9091169063cbed8b9c90829063096568f690610e34903090600401612491565b61188f611cfd565b73ffffffffffffffffffffffffffffffffffffffff166118ad61132b565b73ffffffffffffffffffffffffffffffffffffffff161461192f57604080517f08c379a000000000000000000000000000000000000000000000000000000000815260206004820181905260248201527f4f776e61626c653a2063616c6c6572206973206e6f7420746865206f776e6572604482015290519081900360640190fd5b73ffffffffffffffffffffffffffffffffffffffff811661199b576040517f08c379a000000000000000000000000000000000000000000000000000000000815260040180806020018281038252602681526020018061286f6026913960400191505060405180910390fd5b6000805460405173ffffffffffffffffffffffffffffffffffffffff808516939216917f8be0079c531659141344cd1fd0a4f28419497f9722a3daafe3b4186f6b6457e091a3600080547fffffffffffffffffffffffff00000000000000000000000000000000000000001673ffffffffffffffffffffffffffffffffffffffff92909216919091179055565b6003546040517f096568f600000000000000000000000000000000000000000000000000000000815260609173ffffffffffffffffffffffffffffffffffffffff169063f5ecbdbc90829063096568f690611a87903090600401612491565b60206040518083038186803b158015611a9f57600080fd5b505afa158015611ab3573d6000803e3d6000fd5b505050506040513d601f19601f82011682018060405250810190611ad79190612039565b8630866040518563ffffffff1660e01b8152600401611af994939291906126e8565b60006040518083038186803b158015611b1157600080fd5b505afa158015611b25573d6000803e3d6000fd5b505050506040513d6000823e601f3d9081017fffffffffffffffffffffffffffffffffffffffffffffffffffffffffffffffe0168201604052611b6b9190810190611fb3565b95945050505050565b61ffff821660009081526004602090815260408083208054825160026001831615610100027fffffffffffffffffffffffffffffffffffffffffffffffffffffffffffffffff0190921691909104601f810185900485028201850190935282815292909190830182828015611c2a5780601f10611bff57610100808354040283529160200191611c2a565b820191906000526020600020905b815481529060010190602001808311611c0d57829003601f168201915b505050505090508051600014158015611c50575080805190602001208280519060200120145b610dd0576040517f08c379a0000000000000000000000000000000000000000000000000000000008152600401610207906125e7565b600082821115611cf757604080517f08c379a000000000000000000000000000000000000000000000000000000000815260206004820152601e60248201527f536166654d6174683a207375627472616374696f6e206f766572666c6f770000604482015290519081900360640190fd5b50900390565b3390565b828054600181600116156101000203166002900490600052602060002090601f016020900481019282611d375760008555611d9b565b82601f10611d6e578280017fffffffffffffffffffffffffffffffffffffffffffffffffffffffffffffff00823516178555611d9b565b82800160010185558215611d9b579182015b82811115611d9b578235825591602001919060010190611d80565b50611da7929150611dab565b5090565b5b80821115611da75760008155600101611dac565b60008083601f840112611dd1578182fd5b50813567ffffffffffffffff811115611de8578182fd5b602083019150836020828501011115611e0057600080fd5b9250929050565b600082601f830112611e17578081fd5b8135611e2a611e25826127bf565b61279b565b818152846020838601011115611e3e578283fd5b816020850160208301379081016020019190915292915050565b600060208284031215611e69578081fd5b8135611e748161282b565b9392505050565b600080600060608486031215611e8f578182fd5b8335611e9a8161282b565b92506020840135611eaa8161282b565b929592945050506040919091013590565b60008060008060008060608789031215611ed3578182fd5b863567ffffffffffffffff80821115611eea578384fd5b818901915089601f830112611efd578384fd5b813581811115611f0b578485fd5b8a60208083028501011115611f1e578485fd5b602092830198509650908801359080821115611f38578384fd5b611f448a838b01611dc0565b90965094506040890135915080821115611f5c578384fd5b50611f6989828a01611dc0565b979a9699509497509295939492505050565b600060208284031215611f8c578081fd5b8135611e7481612850565b600060208284031215611fa8578081fd5b8151611e7481612850565b600060208284031215611fc4578081fd5b815167ffffffffffffffff811115611fda578182fd5b8201601f81018413611fea578182fd5b8051611ff8611e25826127bf565b81815285602083850101111561200c578384fd5b611b6b8260208301602086016127ff565b60006020828403121561202e578081fd5b8135611e748161285e565b60006020828403121561204a578081fd5b8151611e748161285e565b60008060408385031215612067578182fd5b82356120728161285e565b915060208301356120828161282b565b809150509250929050565b6000806000604084860312156120a1578283fd5b83356120ac8161285e565b9250602084013567ffffffffffffffff8111156120c7578283fd5b6120d386828701611dc0565b9497909650939450505050565b6000806000806000606086880312156120f7578081fd5b85356121028161285e565b9450602086013567ffffffffffffffff8082111561211e578283fd5b61212a89838a01611dc0565b90965094506040880135915080821115612142578283fd5b5061214f88828901611dc0565b969995985093965092949392505050565b600080600080600060a08688031215612177578283fd5b85356121828161285e565b9450602086013567ffffffffffffffff8082111561219e578485fd5b6121aa89838a01611e07565b9550604088013591506121bc8261282b565b9093506060870135906121ce8261282b565b909250608087013590808211156121e3578283fd5b506121f088828901611e07565b9150509295509295909350565b60008060008060808587031215612212578182fd5b843561221d8161285e565b9350602085013567ffffffffffffffff80821115612239578384fd5b61224588838901611e07565b945060408701359150808216821461225b578384fd5b90925060608601359080821115612270578283fd5b5061227d87828801611e07565b91505092959194509250565b6000806040838503121561229b578182fd5b82356122a68161285e565b915060208301356120828161285e565b600080600080608085870312156122cb578182fd5b84356122d68161285e565b935060208501356122e68161285e565b925060408501356122f68161282b565b9396929550929360600135925050565b60008060008060006080868803121561231d578283fd5b85356123288161285e565b945060208601356123388161285e565b935060408601359250606086013567ffffffffffffffff81111561235a578182fd5b61214f88828901611dc0565b60008060408385031215612378578182fd5b505080516020909101519092909150565b600082845282826020860137806020848601015260207fffffffffffffffffffffffffffffffffffffffffffffffffffffffffffffffe0601f85011685010190509392505050565b600081518084526123e98160208601602086016127ff565b601f017fffffffffffffffffffffffffffffffffffffffffffffffffffffffffffffffe0169290920160200192915050565b7fffffffffffffffffffff00000000000000000000000000000000000000000000919091168152600a0190565b7fffff00000000000000000000000000000000000000000000000000000000000091909116815260020190565b600082516124878184602087016127ff565b9190910192915050565b73ffffffffffffffffffffffffffffffffffffffff91909116815260200190565b73ffffffffffffffffffffffffffffffffffffffff929092168252602082015260400190565b901515815260200190565b600060208252611e7460208301846123d1565b600061ffff8816825260c0602083015261251360c08301886123d1565b73ffffffffffffffffffffffffffffffffffffffff8716604084015267ffffffffffffffff8616606084015284608084015282810360a084015261255781856123d1565b9998505050505050505050565b60208082526044908201527f44696420796f75206d65616e20746f2073656e64206120626c6f636b6564206160408201527f6d6f756e74202d20636865636b20726563656976652829202f2066616c6c626160608201527f636b282900000000000000000000000000000000000000000000000000000000608082015260a00190565b6020808252601d908201527f736f7572636520636f756e746572206973206e6f742074727573746564000000604082015260600190565b61ffff91909116815260200190565b600061ffff8816825273ffffffffffffffffffffffffffffffffffffffff8716602083015260a0604083015261266760a083018688612389565b8415156060840152828103608084015261255781856123d1565b600061ffff8816825260c0602083015261269e60c08301886123d1565b82810360408401526126b081886123d1565b73ffffffffffffffffffffffffffffffffffffffff87811660608601528616608085015283810360a0850152905061255781856123d1565b61ffff948516815292909316602083015273ffffffffffffffffffffffffffffffffffffffff166040820152606081019190915260800190565b600061ffff80871683528086166020840152508360408301526080606083015261274f60808301846123d1565b9695505050505050565b600061ffff808816835280871660208401525084604083015260806060830152612787608083018486612389565b979650505050505050565b90815260200190565b60405181810167ffffffffffffffff811182821017156127b757fe5b604052919050565b600067ffffffffffffffff8211156127d357fe5b50601f017fffffffffffffffffffffffffffffffffffffffffffffffffffffffffffffffe01660200190565b60005b8381101561281a578181015183820152602001612802565b838111156116095750506000910152565b73ffffffffffffffffffffffffffffffffffffffff8116811461284d57600080fd5b50565b801515811461284d57600080fd5b61ffff8116811461284d57600080fdfe4f776e61626c653a206e6577206f776e657220697320746865207a65726f2061646472657373a2646970667358221220845fc66c6647c38803cf09fb1c42ab7f6a9cc9ddffffdae5871973b5b4a1692164736f6c63430007060033",
  "devdoc": {
    "kind": "dev",
    "methods": {
      "owner()": {
        "details": "Returns the address of the current owner."
      },
      "renounceOwnership()": {
        "details": "Leaves the contract without owner. It will not be possible to call `onlyOwner` functions anymore. Can only be called by the current owner. NOTE: Renouncing ownership will leave the contract without an owner, thereby removing any functionality that is only available to the owner."
      },
      "transferOwnership(address)": {
        "details": "Transfers ownership of the contract to a new account (`newOwner`). Can only be called by the current owner."
      }
    },
    "version": 1
  },
  "userdoc": {
    "kind": "user",
    "methods": {},
    "version": 1
  },
  "storageLayout": {
    "storage": [
      {
        "astId": 2484,
        "contract": "contracts/mocks/OmniCounter.sol:OmniCounter",
        "label": "_owner",
        "offset": 0,
        "slot": "0",
        "type": "t_address"
      },
      {
        "astId": 14985,
        "contract": "contracts/mocks/OmniCounter.sol:OmniCounter",
        "label": "messageCounter",
        "offset": 0,
        "slot": "1",
        "type": "t_uint256"
      },
      {
        "astId": 14989,
        "contract": "contracts/mocks/OmniCounter.sol:OmniCounter",
        "label": "remoteAddressCounter",
        "offset": 0,
        "slot": "2",
        "type": "t_mapping(t_address,t_uint256)"
      },
      {
        "astId": 14991,
        "contract": "contracts/mocks/OmniCounter.sol:OmniCounter",
        "label": "endpoint",
        "offset": 0,
        "slot": "3",
        "type": "t_contract(ILayerZeroEndpoint)13290"
      },
      {
        "astId": 14993,
        "contract": "contracts/mocks/OmniCounter.sol:OmniCounter",
        "label": "payInZRO",
        "offset": 20,
        "slot": "3",
        "type": "t_bool"
      },
      {
        "astId": 14997,
        "contract": "contracts/mocks/OmniCounter.sol:OmniCounter",
        "label": "trustedRemoteLookup",
        "offset": 0,
        "slot": "4",
        "type": "t_mapping(t_uint16,t_bytes_storage)"
      }
    ],
    "types": {
      "t_address": {
        "encoding": "inplace",
        "label": "address",
        "numberOfBytes": "20"
      },
      "t_bool": {
        "encoding": "inplace",
        "label": "bool",
        "numberOfBytes": "1"
      },
      "t_bytes_storage": {
        "encoding": "bytes",
        "label": "bytes",
        "numberOfBytes": "32"
      },
      "t_contract(ILayerZeroEndpoint)13290": {
        "encoding": "inplace",
        "label": "contract ILayerZeroEndpoint",
        "numberOfBytes": "20"
      },
      "t_mapping(t_address,t_uint256)": {
        "encoding": "mapping",
        "key": "t_address",
        "label": "mapping(address => uint256)",
        "numberOfBytes": "32",
        "value": "t_uint256"
      },
      "t_mapping(t_uint16,t_bytes_storage)": {
        "encoding": "mapping",
        "key": "t_uint16",
        "label": "mapping(uint16 => bytes)",
        "numberOfBytes": "32",
        "value": "t_bytes_storage"
      },
      "t_uint16": {
        "encoding": "inplace",
        "label": "uint16",
        "numberOfBytes": "2"
      },
      "t_uint256": {
        "encoding": "inplace",
        "label": "uint256",
        "numberOfBytes": "32"
      }
    }
  }
}