{
  "_format": "hh-sol-artifact-1",
  "contractName": "UltraLightNodeV2Radar",
  "sourceName": "contracts/UltraLightNodeV2Radar.sol",
  "abi": [
    {
      "inputs": [
        {
          "internalType": "address",
          "name": "_endpoint",
          "type": "address"
        },
        {
          "internalType": "address",
          "name": "_nonceContract",
          "type": "address"
        },
        {
          "internalType": "uint16",
          "name": "_localChainId",
          "type": "uint16"
        },
        {
          "internalType": "address",
          "name": "_dappRadar",
          "type": "address"
        }
      ],
      "stateMutability": "nonpayable",
      "type": "constructor"
    },
    {
      "anonymous": false,
      "inputs": [
        {
          "indexed": true,
          "internalType": "uint16",
          "name": "chainId",
          "type": "uint16"
        },
        {
          "indexed": false,
          "internalType": "address",
          "name": "lib",
          "type": "address"
        }
      ],
      "name": "AddInboundProofLibraryForChain",
      "type": "event"
    },
    {
      "anonymous": false,
      "inputs": [
        {
          "indexed": true,
          "internalType": "address",
          "name": "userApplication",
          "type": "address"
        },
        {
          "indexed": true,
          "internalType": "uint256",
          "name": "configType",
          "type": "uint256"
        },
        {
          "indexed": false,
          "internalType": "bytes",
          "name": "newConfig",
          "type": "bytes"
        }
      ],
      "name": "AppConfigUpdated",
      "type": "event"
    },
    {
      "anonymous": false,
      "inputs": [
        {
          "indexed": true,
          "internalType": "uint16",
          "name": "chainId",
          "type": "uint16"
        },
        {
          "indexed": false,
          "internalType": "uint16",
          "name": "proofType",
          "type": "uint16"
        }
      ],
      "name": "EnableSupportedOutboundProof",
      "type": "event"
    },
    {
      "anonymous": false,
      "inputs": [
        {
          "indexed": true,
          "internalType": "uint16",
          "name": "srcChainId",
          "type": "uint16"
        },
        {
          "indexed": true,
          "internalType": "address",
          "name": "oracle",
          "type": "address"
        },
        {
          "indexed": false,
          "internalType": "bytes32",
          "name": "lookupHash",
          "type": "bytes32"
        },
        {
          "indexed": false,
          "internalType": "bytes32",
          "name": "blockData",
          "type": "bytes32"
        },
        {
          "indexed": false,
          "internalType": "uint256",
          "name": "confirmations",
          "type": "uint256"
        }
      ],
      "name": "HashReceived",
      "type": "event"
    },
    {
      "anonymous": false,
      "inputs": [
        {
          "indexed": true,
          "internalType": "uint16",
          "name": "srcChainId",
          "type": "uint16"
        },
        {
          "indexed": false,
          "internalType": "bytes",
          "name": "srcAddress",
          "type": "bytes"
        },
        {
          "indexed": true,
          "internalType": "address",
          "name": "dstAddress",
          "type": "address"
        },
        {
          "indexed": false,
          "internalType": "uint64",
          "name": "nonce",
          "type": "uint64"
        },
        {
          "indexed": false,
          "internalType": "bytes32",
          "name": "payloadHash",
          "type": "bytes32"
        }
      ],
      "name": "InvalidDst",
      "type": "event"
    },
    {
      "anonymous": false,
      "inputs": [
        {
          "indexed": true,
          "internalType": "address",
          "name": "previousOwner",
          "type": "address"
        },
        {
          "indexed": true,
          "internalType": "address",
          "name": "newOwner",
          "type": "address"
        }
      ],
      "name": "OwnershipTransferred",
      "type": "event"
    },
    {
      "anonymous": false,
      "inputs": [
        {
          "indexed": false,
          "internalType": "bytes",
          "name": "payload",
          "type": "bytes"
        }
      ],
      "name": "Packet",
      "type": "event"
    },
    {
      "anonymous": false,
      "inputs": [
        {
          "indexed": true,
          "internalType": "uint16",
          "name": "srcChainId",
          "type": "uint16"
        },
        {
          "indexed": false,
          "internalType": "bytes",
          "name": "srcAddress",
          "type": "bytes"
        },
        {
          "indexed": true,
          "internalType": "address",
          "name": "dstAddress",
          "type": "address"
        },
        {
          "indexed": false,
          "internalType": "uint64",
          "name": "nonce",
          "type": "uint64"
        },
        {
          "indexed": false,
          "internalType": "bytes32",
          "name": "payloadHash",
          "type": "bytes32"
        }
      ],
      "name": "PacketReceived",
      "type": "event"
    },
    {
      "anonymous": false,
      "inputs": [
        {
          "indexed": false,
          "internalType": "bytes",
          "name": "adapterParams",
          "type": "bytes"
        },
        {
          "indexed": false,
          "internalType": "uint16",
          "name": "outboundProofType",
          "type": "uint16"
        }
      ],
      "name": "RelayerParams",
      "type": "event"
    },
    {
      "anonymous": false,
      "inputs": [
        {
          "indexed": true,
          "internalType": "uint16",
          "name": "chainId",
          "type": "uint16"
        },
        {
          "indexed": false,
          "internalType": "uint256",
          "name": "size",
          "type": "uint256"
        }
      ],
      "name": "SetChainAddressSize",
      "type": "event"
    },
    {
      "anonymous": false,
      "inputs": [
        {
          "indexed": true,
          "internalType": "uint16",
          "name": "chainId",
          "type": "uint16"
        },
        {
          "indexed": true,
          "internalType": "uint16",
          "name": "proofType",
          "type": "uint16"
        },
        {
          "indexed": false,
          "internalType": "bytes",
          "name": "adapterParams",
          "type": "bytes"
        }
      ],
      "name": "SetDefaultAdapterParamsForChainId",
      "type": "event"
    },
    {
      "anonymous": false,
      "inputs": [
        {
          "indexed": true,
          "internalType": "uint16",
          "name": "chainId",
          "type": "uint16"
        },
        {
          "indexed": false,
          "internalType": "uint16",
          "name": "inboundProofLib",
          "type": "uint16"
        },
        {
          "indexed": false,
          "internalType": "uint64",
          "name": "inboundBlockConfirm",
          "type": "uint64"
        },
        {
          "indexed": false,
          "internalType": "address",
          "name": "relayer",
          "type": "address"
        },
        {
          "indexed": false,
          "internalType": "uint16",
          "name": "outboundProofType",
          "type": "uint16"
        },
        {
          "indexed": false,
          "internalType": "uint64",
          "name": "outboundBlockConfirm",
          "type": "uint64"
        },
        {
          "indexed": false,
          "internalType": "address",
          "name": "oracle",
          "type": "address"
        }
      ],
      "name": "SetDefaultConfigForChainId",
      "type": "event"
    },
    {
      "anonymous": false,
      "inputs": [
        {
          "indexed": true,
          "internalType": "address",
          "name": "tokenAddress",
          "type": "address"
        }
      ],
      "name": "SetLayerZeroToken",
      "type": "event"
    },
    {
      "anonymous": false,
      "inputs": [
        {
          "indexed": true,
          "internalType": "uint16",
          "name": "chainId",
          "type": "uint16"
        },
        {
          "indexed": false,
          "internalType": "bytes32",
          "name": "uln",
          "type": "bytes32"
        }
      ],
      "name": "SetRemoteUln",
      "type": "event"
    },
    {
      "anonymous": false,
      "inputs": [
        {
          "indexed": true,
          "internalType": "address",
          "name": "treasuryAddress",
          "type": "address"
        }
      ],
      "name": "SetTreasury",
      "type": "event"
    },
    {
      "anonymous": false,
      "inputs": [
        {
          "indexed": true,
          "internalType": "address",
          "name": "msgSender",
          "type": "address"
        },
        {
          "indexed": true,
          "internalType": "address",
          "name": "to",
          "type": "address"
        },
        {
          "indexed": false,
          "internalType": "uint256",
          "name": "amount",
          "type": "uint256"
        }
      ],
      "name": "WithdrawNative",
      "type": "event"
    },
    {
      "anonymous": false,
      "inputs": [
        {
          "indexed": true,
          "internalType": "address",
          "name": "msgSender",
          "type": "address"
        },
        {
          "indexed": true,
          "internalType": "address",
          "name": "to",
          "type": "address"
        },
        {
          "indexed": false,
          "internalType": "uint256",
          "name": "amount",
          "type": "uint256"
        }
      ],
      "name": "WithdrawZRO",
      "type": "event"
    },
    {
      "inputs": [],
      "name": "CONFIG_TYPE_INBOUND_BLOCK_CONFIRMATIONS",
      "outputs": [
        {
          "internalType": "uint256",
          "name": "",
          "type": "uint256"
        }
      ],
      "stateMutability": "view",
      "type": "function"
    },
    {
      "inputs": [],
      "name": "CONFIG_TYPE_INBOUND_PROOF_LIBRARY_VERSION",
      "outputs": [
        {
          "internalType": "uint256",
          "name": "",
          "type": "uint256"
        }
      ],
      "stateMutability": "view",
      "type": "function"
    },
    {
      "inputs": [],
      "name": "CONFIG_TYPE_ORACLE",
      "outputs": [
        {
          "internalType": "uint256",
          "name": "",
          "type": "uint256"
        }
      ],
      "stateMutability": "view",
      "type": "function"
    },
    {
      "inputs": [],
      "name": "CONFIG_TYPE_OUTBOUND_BLOCK_CONFIRMATIONS",
      "outputs": [
        {
          "internalType": "uint256",
          "name": "",
          "type": "uint256"
        }
      ],
      "stateMutability": "view",
      "type": "function"
    },
    {
      "inputs": [],
      "name": "CONFIG_TYPE_OUTBOUND_PROOF_TYPE",
      "outputs": [
        {
          "internalType": "uint256",
          "name": "",
          "type": "uint256"
        }
      ],
      "stateMutability": "view",
      "type": "function"
    },
    {
      "inputs": [],
      "name": "CONFIG_TYPE_RELAYER",
      "outputs": [
        {
          "internalType": "uint256",
          "name": "",
          "type": "uint256"
        }
      ],
      "stateMutability": "view",
      "type": "function"
    },
    {
      "inputs": [
        {
          "internalType": "address",
          "name": "_address",
          "type": "address"
        }
      ],
      "name": "accruedNativeFee",
      "outputs": [
        {
          "internalType": "uint256",
          "name": "",
          "type": "uint256"
        }
      ],
      "stateMutability": "view",
      "type": "function"
    },
    {
      "inputs": [
        {
          "internalType": "uint16",
          "name": "_chainId",
          "type": "uint16"
        },
        {
          "internalType": "address",
          "name": "_library",
          "type": "address"
        }
      ],
      "name": "addInboundProofLibraryForChain",
      "outputs": [],
      "stateMutability": "nonpayable",
      "type": "function"
    },
    {
      "inputs": [
        {
          "internalType": "address",
          "name": "",
          "type": "address"
        },
        {
          "internalType": "uint16",
          "name": "",
          "type": "uint16"
        }
      ],
      "name": "appConfig",
      "outputs": [
        {
          "internalType": "uint16",
          "name": "inboundProofLibraryVersion",
          "type": "uint16"
        },
        {
          "internalType": "uint64",
          "name": "inboundBlockConfirmations",
          "type": "uint64"
        },
        {
          "internalType": "address",
          "name": "relayer",
          "type": "address"
        },
        {
          "internalType": "uint16",
          "name": "outboundProofType",
          "type": "uint16"
        },
        {
          "internalType": "uint64",
          "name": "outboundBlockConfirmations",
          "type": "uint64"
        },
        {
          "internalType": "address",
          "name": "oracle",
          "type": "address"
        }
      ],
      "stateMutability": "view",
      "type": "function"
    },
    {
      "inputs": [
        {
          "internalType": "uint16",
          "name": "",
          "type": "uint16"
        }
      ],
      "name": "chainAddressSizeMap",
      "outputs": [
        {
          "internalType": "uint256",
          "name": "",
          "type": "uint256"
        }
      ],
      "stateMutability": "view",
      "type": "function"
    },
    {
      "inputs": [],
      "name": "dappRadar",
      "outputs": [
        {
          "internalType": "address",
          "name": "",
          "type": "address"
        }
      ],
      "stateMutability": "view",
      "type": "function"
    },
    {
      "inputs": [],
      "name": "decommission",
      "outputs": [],
      "stateMutability": "nonpayable",
      "type": "function"
    },
    {
      "inputs": [],
      "name": "decommissioned",
      "outputs": [
        {
          "internalType": "bool",
          "name": "",
          "type": "bool"
        }
      ],
      "stateMutability": "view",
      "type": "function"
    },
    {
      "inputs": [
        {
          "internalType": "uint16",
          "name": "",
          "type": "uint16"
        },
        {
          "internalType": "uint16",
          "name": "",
          "type": "uint16"
        }
      ],
      "name": "defaultAdapterParams",
      "outputs": [
        {
          "internalType": "bytes",
          "name": "",
          "type": "bytes"
        }
      ],
      "stateMutability": "view",
      "type": "function"
    },
    {
      "inputs": [
        {
          "internalType": "uint16",
          "name": "",
          "type": "uint16"
        }
      ],
      "name": "defaultAppConfig",
      "outputs": [
        {
          "internalType": "uint16",
          "name": "inboundProofLibraryVersion",
          "type": "uint16"
        },
        {
          "internalType": "uint64",
          "name": "inboundBlockConfirmations",
          "type": "uint64"
        },
        {
          "internalType": "address",
          "name": "relayer",
          "type": "address"
        },
        {
          "internalType": "uint16",
          "name": "outboundProofType",
          "type": "uint16"
        },
        {
          "internalType": "uint64",
          "name": "outboundBlockConfirmations",
          "type": "uint64"
        },
        {
          "internalType": "address",
          "name": "oracle",
          "type": "address"
        }
      ],
      "stateMutability": "view",
      "type": "function"
    },
    {
      "inputs": [
        {
          "internalType": "uint16",
          "name": "_chainId",
          "type": "uint16"
        },
        {
          "internalType": "uint16",
          "name": "_proofType",
          "type": "uint16"
        }
      ],
      "name": "enableSupportedOutboundProof",
      "outputs": [],
      "stateMutability": "nonpayable",
      "type": "function"
    },
    {
      "inputs": [],
      "name": "endpoint",
      "outputs": [
        {
          "internalType": "contract ILayerZeroEndpoint",
          "name": "",
          "type": "address"
        }
      ],
      "stateMutability": "view",
      "type": "function"
    },
    {
      "inputs": [
        {
          "internalType": "uint16",
          "name": "_dstChainId",
          "type": "uint16"
        },
        {
          "internalType": "address",
          "name": "_ua",
          "type": "address"
        },
        {
          "internalType": "bytes",
          "name": "_payload",
          "type": "bytes"
        },
        {
          "internalType": "bool",
          "name": "_payInZRO",
          "type": "bool"
        },
        {
          "internalType": "bytes",
          "name": "_adapterParams",
          "type": "bytes"
        }
      ],
      "name": "estimateFees",
      "outputs": [
        {
          "internalType": "uint256",
          "name": "nativeFee",
          "type": "uint256"
        },
        {
          "internalType": "uint256",
          "name": "zroFee",
          "type": "uint256"
        }
      ],
      "stateMutability": "view",
      "type": "function"
    },
    {
      "inputs": [
        {
          "internalType": "uint16",
          "name": "_remoteChainId",
          "type": "uint16"
        },
        {
          "internalType": "address",
          "name": "_ua",
          "type": "address"
        }
      ],
      "name": "getAppConfig",
      "outputs": [
        {
          "components": [
            {
              "internalType": "uint16",
              "name": "inboundProofLibraryVersion",
              "type": "uint16"
            },
            {
              "internalType": "uint64",
              "name": "inboundBlockConfirmations",
              "type": "uint64"
            },
            {
              "internalType": "address",
              "name": "relayer",
              "type": "address"
            },
            {
              "internalType": "uint16",
              "name": "outboundProofType",
              "type": "uint16"
            },
            {
              "internalType": "uint64",
              "name": "outboundBlockConfirmations",
              "type": "uint64"
            },
            {
              "internalType": "address",
              "name": "oracle",
              "type": "address"
            }
          ],
          "internalType": "struct ILayerZeroUltraLightNodeV2.ApplicationConfiguration",
          "name": "",
          "type": "tuple"
        }
      ],
      "stateMutability": "view",
      "type": "function"
    },
    {
      "inputs": [
        {
          "internalType": "uint16",
          "name": "_remoteChainId",
          "type": "uint16"
        },
        {
          "internalType": "address",
          "name": "_ua",
          "type": "address"
        },
        {
          "internalType": "uint256",
          "name": "_configType",
          "type": "uint256"
        }
      ],
      "name": "getConfig",
      "outputs": [
        {
          "internalType": "bytes",
          "name": "",
          "type": "bytes"
        }
      ],
      "stateMutability": "view",
      "type": "function"
    },
    {
      "inputs": [
        {
          "internalType": "uint16",
          "name": "_chainId",
          "type": "uint16"
        },
        {
          "internalType": "bytes",
          "name": "_path",
          "type": "bytes"
        }
      ],
      "name": "getOutboundNonce",
      "outputs": [
        {
          "internalType": "uint64",
          "name": "",
          "type": "uint64"
        }
      ],
      "stateMutability": "view",
      "type": "function"
    },
    {
      "inputs": [
        {
          "internalType": "address",
          "name": "",
          "type": "address"
        },
        {
          "internalType": "uint16",
          "name": "",
          "type": "uint16"
        },
        {
          "internalType": "bytes32",
          "name": "",
          "type": "bytes32"
        },
        {
          "internalType": "bytes32",
          "name": "",
          "type": "bytes32"
        }
      ],
      "name": "hashLookup",
      "outputs": [
        {
          "internalType": "uint256",
          "name": "",
          "type": "uint256"
        }
      ],
      "stateMutability": "view",
      "type": "function"
    },
    {
      "inputs": [
        {
          "internalType": "address",
          "name": "",
          "type": "address"
        }
      ],
      "name": "inboundNonceCap",
      "outputs": [
        {
          "internalType": "uint64",
          "name": "",
          "type": "uint64"
        }
      ],
      "stateMutability": "view",
      "type": "function"
    },
    {
      "inputs": [
        {
          "internalType": "uint16",
          "name": "",
          "type": "uint16"
        },
        {
          "internalType": "uint16",
          "name": "",
          "type": "uint16"
        }
      ],
      "name": "inboundProofLibrary",
      "outputs": [
        {
          "internalType": "address",
          "name": "",
          "type": "address"
        }
      ],
      "stateMutability": "view",
      "type": "function"
    },
    {
      "inputs": [
        {
          "internalType": "uint16",
          "name": "_srcChainId",
          "type": "uint16"
        },
        {
          "internalType": "address",
          "name": "_srcRadarAddress",
          "type": "address"
        },
        {
          "internalType": "uint256",
          "name": "_gasLimitPerCall",
          "type": "uint256"
        },
        {
          "internalType": "uint256",
          "name": "_steps",
          "type": "uint256"
        }
      ],
      "name": "incrementRadarInboundNonce",
      "outputs": [],
      "stateMutability": "nonpayable",
      "type": "function"
    },
    {
      "inputs": [
        {
          "internalType": "uint16",
          "name": "_dstChainId",
          "type": "uint16"
        },
        {
          "internalType": "address",
          "name": "_dstRadarAddress",
          "type": "address"
        }
      ],
      "name": "initRadarOutboundNonce",
      "outputs": [],
      "stateMutability": "nonpayable",
      "type": "function"
    },
    {
      "inputs": [],
      "name": "layerZeroToken",
      "outputs": [
        {
          "internalType": "contract IERC20",
          "name": "",
          "type": "address"
        }
      ],
      "stateMutability": "view",
      "type": "function"
    },
    {
      "inputs": [],
      "name": "localChainId",
      "outputs": [
        {
          "internalType": "uint16",
          "name": "",
          "type": "uint16"
        }
      ],
      "stateMutability": "view",
      "type": "function"
    },
    {
      "inputs": [
        {
          "internalType": "uint16",
          "name": "",
          "type": "uint16"
        }
      ],
      "name": "maxInboundProofLibrary",
      "outputs": [
        {
          "internalType": "uint16",
          "name": "",
          "type": "uint16"
        }
      ],
      "stateMutability": "view",
      "type": "function"
    },
    {
      "inputs": [
        {
          "internalType": "address",
          "name": "",
          "type": "address"
        }
      ],
      "name": "nativeFees",
      "outputs": [
        {
          "internalType": "uint256",
          "name": "",
          "type": "uint256"
        }
      ],
      "stateMutability": "view",
      "type": "function"
    },
    {
      "inputs": [],
      "name": "nonceContract",
      "outputs": [
        {
          "internalType": "contract NonceContractRadar",
          "name": "",
          "type": "address"
        }
      ],
      "stateMutability": "view",
      "type": "function"
    },
    {
      "inputs": [
        {
          "internalType": "uint16",
          "name": "",
          "type": "uint16"
        }
      ],
      "name": "outboundNonceSet",
      "outputs": [
        {
          "internalType": "bool",
          "name": "",
          "type": "bool"
        }
      ],
      "stateMutability": "view",
      "type": "function"
    },
    {
      "inputs": [],
      "name": "owner",
      "outputs": [
        {
          "internalType": "address",
          "name": "",
          "type": "address"
        }
      ],
      "stateMutability": "view",
      "type": "function"
    },
    {
      "inputs": [],
      "name": "renounceOwnership",
      "outputs": [],
      "stateMutability": "nonpayable",
      "type": "function"
    },
    {
      "inputs": [
        {
          "internalType": "address",
          "name": "_ua",
          "type": "address"
        },
        {
          "internalType": "uint64",
          "name": "",
          "type": "uint64"
        },
        {
          "internalType": "uint16",
          "name": "_dstChainId",
          "type": "uint16"
        },
        {
          "internalType": "bytes",
          "name": "_path",
          "type": "bytes"
        },
        {
          "internalType": "bytes",
          "name": "_payload",
          "type": "bytes"
        },
        {
          "internalType": "address payable",
          "name": "_refundAddress",
          "type": "address"
        },
        {
          "internalType": "address",
          "name": "_zroPaymentAddress",
          "type": "address"
        },
        {
          "internalType": "bytes",
          "name": "_adapterParams",
          "type": "bytes"
        }
      ],
      "name": "send",
      "outputs": [],
      "stateMutability": "payable",
      "type": "function"
    },
    {
      "inputs": [
        {
          "internalType": "uint16",
          "name": "_chainId",
          "type": "uint16"
        },
        {
          "internalType": "uint256",
          "name": "_size",
          "type": "uint256"
        }
      ],
      "name": "setChainAddressSize",
      "outputs": [],
      "stateMutability": "nonpayable",
      "type": "function"
    },
    {
      "inputs": [
        {
          "internalType": "uint16",
          "name": "_remoteChainId",
          "type": "uint16"
        },
        {
          "internalType": "address",
          "name": "_ua",
          "type": "address"
        },
        {
          "internalType": "uint256",
          "name": "_configType",
          "type": "uint256"
        },
        {
          "internalType": "bytes",
          "name": "_config",
          "type": "bytes"
        }
      ],
      "name": "setConfig",
      "outputs": [],
      "stateMutability": "nonpayable",
      "type": "function"
    },
    {
      "inputs": [
        {
          "internalType": "uint16",
          "name": "_chainId",
          "type": "uint16"
        },
        {
          "internalType": "uint16",
          "name": "_proofType",
          "type": "uint16"
        },
        {
          "internalType": "bytes",
          "name": "_adapterParams",
          "type": "bytes"
        }
      ],
      "name": "setDefaultAdapterParamsForChainId",
      "outputs": [],
      "stateMutability": "nonpayable",
      "type": "function"
    },
    {
      "inputs": [
        {
          "internalType": "uint16",
          "name": "_chainId",
          "type": "uint16"
        },
        {
          "internalType": "uint16",
          "name": "_inboundProofLibraryVersion",
          "type": "uint16"
        },
        {
          "internalType": "uint64",
          "name": "_inboundBlockConfirmations",
          "type": "uint64"
        },
        {
          "internalType": "address",
          "name": "_relayer",
          "type": "address"
        },
        {
          "internalType": "uint16",
          "name": "_outboundProofType",
          "type": "uint16"
        },
        {
          "internalType": "uint64",
          "name": "_outboundBlockConfirmations",
          "type": "uint64"
        },
        {
          "internalType": "address",
          "name": "_oracle",
          "type": "address"
        }
      ],
      "name": "setDefaultConfigForChainId",
      "outputs": [],
      "stateMutability": "nonpayable",
      "type": "function"
    },
    {
      "inputs": [
        {
          "internalType": "address",
          "name": "_layerZeroToken",
          "type": "address"
        }
      ],
      "name": "setLayerZeroToken",
      "outputs": [],
      "stateMutability": "nonpayable",
      "type": "function"
    },
    {
      "inputs": [
        {
          "internalType": "uint16",
          "name": "_remoteChainId",
          "type": "uint16"
        },
        {
          "internalType": "bytes32",
          "name": "_remoteUln",
          "type": "bytes32"
        }
      ],
      "name": "setRemoteUln",
      "outputs": [],
      "stateMutability": "nonpayable",
      "type": "function"
    },
    {
      "inputs": [
        {
          "internalType": "address",
          "name": "_treasury",
          "type": "address"
        }
      ],
      "name": "setTreasury",
      "outputs": [],
      "stateMutability": "nonpayable",
      "type": "function"
    },
    {
      "inputs": [
        {
          "internalType": "uint16",
          "name": "",
          "type": "uint16"
        },
        {
          "internalType": "uint16",
          "name": "",
          "type": "uint16"
        }
      ],
      "name": "supportedOutboundProof",
      "outputs": [
        {
          "internalType": "bool",
          "name": "",
          "type": "bool"
        }
      ],
      "stateMutability": "view",
      "type": "function"
    },
    {
      "inputs": [
        {
          "internalType": "address",
          "name": "newOwner",
          "type": "address"
        }
      ],
      "name": "transferOwnership",
      "outputs": [],
      "stateMutability": "nonpayable",
      "type": "function"
    },
    {
      "inputs": [],
      "name": "treasuryContract",
      "outputs": [
        {
          "internalType": "contract ILayerZeroTreasury",
          "name": "",
          "type": "address"
        }
      ],
      "stateMutability": "view",
      "type": "function"
    },
    {
      "inputs": [],
      "name": "treasuryZROFees",
      "outputs": [
        {
          "internalType": "uint256",
          "name": "",
          "type": "uint256"
        }
      ],
      "stateMutability": "view",
      "type": "function"
    },
    {
      "inputs": [
        {
          "internalType": "uint16",
          "name": "",
          "type": "uint16"
        }
      ],
      "name": "ulnLookup",
      "outputs": [
        {
          "internalType": "bytes32",
          "name": "",
          "type": "bytes32"
        }
      ],
      "stateMutability": "view",
      "type": "function"
    },
    {
      "inputs": [
        {
          "internalType": "uint16",
          "name": "_srcChainId",
          "type": "uint16"
        },
        {
          "internalType": "bytes32",
          "name": "_lookupHash",
          "type": "bytes32"
        },
        {
          "internalType": "uint256",
          "name": "_confirmations",
          "type": "uint256"
        },
        {
          "internalType": "bytes32",
          "name": "_blockData",
          "type": "bytes32"
        }
      ],
      "name": "updateHash",
      "outputs": [],
      "stateMutability": "nonpayable",
      "type": "function"
    },
    {
      "inputs": [
        {
          "internalType": "uint16",
          "name": "_srcChainId",
          "type": "uint16"
        },
        {
          "internalType": "address",
          "name": "_dstAddress",
          "type": "address"
        },
        {
          "internalType": "uint256",
          "name": "_gasLimit",
          "type": "uint256"
        },
        {
          "internalType": "bytes32",
          "name": "_lookupHash",
          "type": "bytes32"
        },
        {
          "internalType": "bytes32",
          "name": "_blockData",
          "type": "bytes32"
        },
        {
          "internalType": "bytes",
          "name": "_transactionProof",
          "type": "bytes"
        }
      ],
      "name": "validateTransactionProof",
      "outputs": [],
      "stateMutability": "nonpayable",
      "type": "function"
    },
    {
      "inputs": [
        {
          "internalType": "address payable",
          "name": "_to",
          "type": "address"
        },
        {
          "internalType": "uint256",
          "name": "_amount",
          "type": "uint256"
        }
      ],
      "name": "withdrawNative",
      "outputs": [],
      "stateMutability": "nonpayable",
      "type": "function"
    },
    {
      "inputs": [
        {
          "internalType": "address",
          "name": "_to",
          "type": "address"
        },
        {
          "internalType": "uint256",
          "name": "_amount",
          "type": "uint256"
        }
      ],
      "name": "withdrawZRO",
      "outputs": [],
      "stateMutability": "nonpayable",
      "type": "function"
    }
  ],
  "bytecode": "0x6101006040523480156200001257600080fd5b50604051620060d8380380620060d883398101604081905262000035916200014c565b60016000908155620000466200012b565b600180546001600160a01b0319166001600160a01b038316908117909155604051919250906000907f8be0079c531659141344cd1fd0a4f28419497f9722a3daafe3b4186f6b6457e0908290a3506001600160a01b038416620000c65760405162461bcd60e51b8152600401620000bd90620001af565b60405180910390fd5b6001600160a01b038316620000ef5760405162461bcd60e51b8152600401620000bd90620001f9565b60f09190911b6001600160f01b03191660a052606092831b6001600160601b031990811660805291831b821660c05290911b1660e05262000248565b3390565b80516001600160a01b03811681146200014757600080fd5b919050565b6000806000806080858703121562000162578384fd5b6200016d856200012f565b93506200017d602086016200012f565b9250604085015161ffff8116811462000194578283fd5b9150620001a4606086016200012f565b905092959194509250565b6020808252602a908201527f4c617965725a65726f3a20656e64706f696e742063616e6e6f74206265207a65604082015269726f206164647265737360b01b606082015260800190565b6020808252602f908201527f4c617965725a65726f3a206e6f6e6365436f6e74726163742063616e6e6f742060408201526e6265207a65726f206164647265737360881b606082015260800190565b60805160601c60a05160f01c60c05160601c60e05160601c615df4620002e460003980610cef5280610ea952806113fb52806120d352806123c6528061248b5280612aaa52508061095952806115ce52806124f15280612ff25250806117d85280611d0a5280612d69525080610bb35280610d625280610e7852806113b35280611d2e52806123975280612ef652806135865250615df46000f3fe6080604052600436106103345760003560e01c80637f068c0f116101b0578063b8e7e3e0116100ec578063eb0d4c3111610095578063f2fde38b1161006f578063f2fde38b146108e2578063f47a5feb14610902578063f58589a214610917578063f8e1734c1461093757610334565b8063eb0d4c3114610882578063ed28580a146108a2578063f0f44260146108c257610334565b8063db00719b116100c6578063db00719b14610822578063ddfdef5a14610842578063ea216c211461086257610334565b8063b8e7e3e0146107c2578063b9a99bed146107e2578063d543c7741461080257610334565b80638da5cb5b11610159578063959f594311610133578063959f594314610740578063987fa2d514610760578063a466222214610780578063b77d22ad146107ad57610334565b80638da5cb5b14610701578063904d3b8d1461071657806394e17ef91461072b57610334565b80638317814a1161018a5780638317814a146106a15780638525b711146106c157806387078f9f146106e157610334565b80637f068c0f146106575780638140666e1461066c5780638207f79d1461068157610334565b806352d2871f1161027f57806369412bfa11610228578063704316e511610202578063704316e5146105e2578063715018a614610602578063759c5b3b14610617578063775453731461063757610334565b806369412bfa1461058d5780636a14ac82146105ad5780636d510126146105cd57610334565b80635af7956c116102595780635af7956c146105295780635b056da5146105565780635e280f111461057857610334565b806352d2871f146104bc57806352d3b500146104dc57806357983548146104fc57610334565b80632cfacb06116102e157806340a7bb10116102bb57806340a7bb101461046657806349148c37146104945780634d3a0f7c146104a957610334565b80632cfacb06146103fd5780632f8134641461041f57806331bd24301461045157610334565b80630fcbae37116103125780630fcbae371461039b57806318da0011146103bb5780632a819bbf146103d057610334565b806302bd97431461033957806307b18bde1461036457806307b9ca7c14610386575b600080fd5b34801561034557600080fd5b5061034e610957565b60405161035b9190614e28565b60405180910390f35b34801561037057600080fd5b5061038461037f366004614578565b61097b565b005b34801561039257600080fd5b5061034e610b05565b3480156103a757600080fd5b506103846103b6366004614a14565b610b14565b3480156103c757600080fd5b5061034e610f1d565b3480156103dc57600080fd5b506103f06103eb366004614aee565b610f2c565b60405161035b9190614ebd565b34801561040957600080fd5b50610412610fee565b60405161035b9190614e5f565b34801561042b57600080fd5b5061043f61043a3660046147fe565b610ff3565b60405161035b96959493929190615c4c565b34801561045d57600080fd5b50610412611077565b34801561047257600080fd5b50610486610481366004614847565b61107c565b60405161035b929190615c95565b3480156104a057600080fd5b506104126113ac565b6103846104b7366004614632565b6113b1565b3480156104c857600080fd5b506103f06104d73660046148f2565b611871565b3480156104e857600080fd5b506103846104f736600461455c565b611bdb565b34801561050857600080fd5b5061051c61051736600461455c565b611cd7565b60405161035b9190615ca3565b34801561053557600080fd5b506105496105443660046147fe565b611cf3565b60405161035b9190614e3c565b34801561056257600080fd5b5061056b611d08565b60405161035b9190615aa6565b34801561058457600080fd5b5061034e611d2c565b34801561059957600080fd5b506104126105a836600461455c565b611d50565b3480156105b957600080fd5b506103846105c8366004614b6e565b611d6f565b3480156105d957600080fd5b5061034e6120d1565b3480156105ee57600080fd5b506103846105fd366004614a61565b6120f5565b34801561060e57600080fd5b506103846121ba565b34801561062357600080fd5b506104126106323660046145db565b612290565b34801561064357600080fd5b5061038461065236600461481a565b6122bc565b34801561066357600080fd5b50610384612558565b34801561067857600080fd5b506104126125f9565b34801561068d57600080fd5b5061038461069c36600461481a565b6125fe565b3480156106ad57600080fd5b506103846106bc366004614b0b565b612797565b3480156106cd57600080fd5b506103846106dc366004614620565b612880565b3480156106ed57600080fd5b506103846106fc366004614a44565b612982565b34801561070d57600080fd5b5061034e612a79565b34801561072257600080fd5b50610412612a88565b34801561073757600080fd5b50610549612a8d565b34801561074c57600080fd5b5061041261075b3660046147fe565b612a96565b34801561076c57600080fd5b5061038461077b366004614932565b612aa8565b34801561078c57600080fd5b506107a061079b36600461481a565b612f92565b60405161035b9190615a3a565b3480156107b957600080fd5b50610412612fa4565b3480156107ce57600080fd5b5061056b6107dd3660046147fe565b612fa9565b3480156107ee57600080fd5b5061051c6107fd366004614a9b565b612fbf565b34801561080e57600080fd5b5061054961081d366004614aee565b613083565b34801561082e57600080fd5b5061034e61083d366004614aee565b6130a3565b34801561084e57600080fd5b5061043f61085d3660046145a3565b6130c9565b34801561086e57600080fd5b5061041261087d3660046147fe565b613158565b34801561088e57600080fd5b5061038461089d366004614aee565b61316a565b3480156108ae57600080fd5b506103846108bd366004614a44565b613258565b3480156108ce57600080fd5b506103846108dd36600461455c565b613343565b3480156108ee57600080fd5b506103846108fd36600461455c565b61343f565b34801561090e57600080fd5b5061041261356c565b34801561092357600080fd5b5061041261093236600461455c565b613572565b34801561094357600080fd5b506103846109523660046149a3565b613584565b7f000000000000000000000000000000000000000000000000000000000000000081565b600260005414156109d3576040805162461bcd60e51b815260206004820152601f60248201527f5265656e7472616e637947756172643a207265656e7472616e742063616c6c00604482015290519081900360640190fd5b60026000556001600160a01b038216610a075760405162461bcd60e51b81526004016109fe906150e1565b60405180910390fd5b33600090815260046020526040902054610a2190826138eb565b336000908152600460205260408082209290925590516001600160a01b038416908390610a4d90614d5d565b60006040518083038185875af1925050503d8060008114610a8a576040519150601f19603f3d011682016040523d82523d6000602084013e610a8f565b606091505b5050905080610ab05760405162461bcd60e51b81526004016109fe9061504d565b826001600160a01b0316336001600160a01b03167f3bfd26201736b5cb14a562ab3cfc2bef76901726e3a78483d6288af47131e1d984604051610af39190614e5f565b60405180910390a35050600160005550565b6002546001600160a01b031681565b610b1c613948565b6001600160a01b0316610b2d612a79565b6001600160a01b031614610b88576040805162461bcd60e51b815260206004820181905260248201527f4f776e61626c653a2063616c6c6572206973206e6f7420746865206f776e6572604482015290519081900360640190fd5b6001600160a01b03831660009081526011602052604090205467ffffffffffffffff16610cea5760007f00000000000000000000000000000000000000000000000000000000000000006001600160a01b031663fdc07c708686604051602001610bf29190614ca9565b6040516020818303038152906040526040518363ffffffff1660e01b8152600401610c1e929190615b25565b60206040518083038186803b158015610c3657600080fd5b505afa158015610c4a573d6000803e3d6000fd5b505050506040513d601f19601f82011682018060405250810190610c6e9190614c37565b905060008167ffffffffffffffff1611610c9a5760405162461bcd60e51b81526004016109fe906156ad565b6001600160a01b038416600090815260116020526040902080547fffffffffffffffffffffffffffffffffffffffffffffffff00000000000000001667ffffffffffffffff929092169190911790555b6000837f0000000000000000000000000000000000000000000000000000000000000000604051602001610d1f929190614cd9565b60408051601f19818403018152908290527ffdc07c7000000000000000000000000000000000000000000000000000000000825291506000906001600160a01b037f0000000000000000000000000000000000000000000000000000000000000000169063fdc07c7090610d999089908690600401615b25565b60206040518083038186803b158015610db157600080fd5b505afa158015610dc5573d6000803e3d6000fd5b505050506040513d601f19601f82011682018060405250810190610de99190614c37565b6001600160a01b03861660009081526011602052604081205491925067ffffffffffffffff909116905b84811015610f135760019092019167ffffffffffffffff8083169084161115610e3b57610f13565b604080516020810182526000815290517fc2fa48130000000000000000000000000000000000000000000000000000000081526001600160a01b037f0000000000000000000000000000000000000000000000000000000000000000169163c2fa481391610ed5918c9189917f0000000000000000000000000000000000000000000000000000000000000000918a918e91600401615b42565b600060405180830381600087803b158015610eef57600080fd5b505af1158015610f03573d6000803e3d6000fd5b505060019092019150610e139050565b5050505050505050565b6003546001600160a01b031681565b60086020908152600092835260408084208252918352918190208054825160026001831615610100027fffffffffffffffffffffffffffffffffffffffffffffffffffffffffffffffff0190921691909104601f810185900485028201850190935282815292909190830182828015610fe65780601f10610fbb57610100808354040283529160200191610fe6565b820191906000526020600020905b815481529060010190602001808311610fc957829003601f168201915b505050505081565b600381565b6007602052600090815260409020805460019091015461ffff8083169267ffffffffffffffff6201000082048116936001600160a01b036a010000000000000000000084048116947e010000000000000000000000000000000000000000000000000000000000009094049093169291811691680100000000000000009091041686565b600681565b600080600061108b8a8a61394c565b9050606084156110d45785858080601f0160208091040260200160405190810160405280939291908181526020018383808284376000920191909152509293506111a392505050565b61ffff808c166000908152600860209081526040808320606087015190941683529281529082902080548351601f60027fffffffffffffffffffffffffffffffffffffffffffffffffffffffffffffffff6101006001861615020190931692909204918201849004840281018401909452808452909183018282801561119b5780601f106111705761010080835404028352916020019161119b565b820191906000526020600020905b81548152906001019060200180831161117e57829003601f168201915b505050505090505b600082604001516001600160a01b031663c03f15298d85606001518e8e8e9050876040518663ffffffff1660e01b81526004016111e4959493929190615bda565b60206040518083038186803b1580156111fc57600080fd5b505afa158015611210573d6000803e3d6000fd5b505050506040513d601f19601f820116820180604052508101906112349190614c03565b905060008b905060008460a001516001600160a01b0316635553fb8e8f87606001518860800151866040518563ffffffff1660e01b815260040161127b9493929190615c16565b60206040518083038186803b15801561129357600080fd5b505afa1580156112a7573d6000803e3d6000fd5b505050506040513d601f19601f820116820180604052508101906112cb9190614c03565b6003546040517f5cbbbd750000000000000000000000000000000000000000000000000000000081529192506000916001600160a01b0390911690635cbbbd759061131e908e9088908790600401614e47565b60206040518083038186803b15801561133657600080fd5b505afa15801561134a573d6000803e3d6000fd5b505050506040513d601f19601f8201168201806040525081019061136e9190614c03565b90508a61137e5780975087611383565b809650865b50611398826113928a87613b17565b90613b17565b975050505050505097509795505050505050565b600281565b7f00000000000000000000000000000000000000000000000000000000000000006001600160a01b031633146113f95760405162461bcd60e51b81526004016109fe906157fb565b7f00000000000000000000000000000000000000000000000000000000000000006001600160a01b03168b6001600160a01b03161461144a5760405162461bcd60e51b81526004016109fe906158ec565b600f5460ff161561146d5760405162461bcd60e51b81526004016109fe906157c4565b61ffff89166000908152600e60205260409020548b908a906114a15760405162461bcd60e51b81526004016109fe90614f82565b61ffff81166000908152600c60205260408120546060919080158015906114ca5750601481018c145b6114e65760405162461bcd60e51b81526004016109fe9061588f565b6000808e8e8080601f01602080910402602001604051908101604052809392919081815260200183838082843760009201919091525050505083810160140151925090506001600160a01b03878116908316146115555760405162461bcd60e51b81526004016109fe906153eb565b8e8e600090859261156893929190615cdc565b8080601f016020809104026020016040519081016040528093929190818152602001838380828437600092019190915250506040517f6fe7b673000000000000000000000000000000000000000000000000000000008152929750506001600160a01b037f00000000000000000000000000000000000000000000000000000000000000001691636fe7b67391506116089089908b908690600401615ad2565b602060405180830381600087803b15801561162257600080fd5b505af1158015611636573d6000803e3d6000fd5b505050506040513d601f19601f8201168201806040525081019061165a9190614c37565b935050505060008a8a8080601f01602080910402602001604051908101604052809392919081815260200183838082843760009201829052509394506116a6925087915088905061394c565b905060006116ee86838986518d8d8080601f016020809104026020016040519081016040528093929190818152602001838380828437600092019190915250613b7192505050565b905060006116fd87848a613d4b565b9050600061170d83838b8f613e05565b9050600061171f826113928686613b17565b9050348111156117415760405162461bcd60e51b81526004016109fe90615084565b600061174d34836138eb565b905080156117d35760008f6001600160a01b03168260405161176e90614d5d565b60006040518083038185875af1925050503d80600081146117ab576040519150601f19603f3d011682016040523d82523d6000602084013e6117b0565b606091505b50509050806117d15760405162461bcd60e51b81526004016109fe906151f8565b505b6000887f00000000000000000000000000000000000000000000000000000000000000008d8d8d8c60405160200161181096959493929190614d60565b60405160208183030381529060405290507fe9bded5f24a4168e4f3bf44e00298c993b22376aad8c58c7dda9718a54cbea82816040516118509190614ebd565b60405180910390a15050505050505050505050505050505050505050505050565b6001600160a01b038216600090815260066020908152604080832061ffff871684529091529020606090600183141561190557805461ffff166118ef5761ffff8086166000908152600760209081526040918290205491516118d893929092169101615aa6565b604051602081830303815290604052915050611bd4565b80546040516118d89161ffff1690602001615aa6565b600283141561197b57805462010000900467ffffffffffffffff166119595761ffff85166000908152600760209081526040918290205491516118d89262010000900467ffffffffffffffff169101615ca3565b80546040516118d89162010000900467ffffffffffffffff1690602001615ca3565b6003831415611a065780546a010000000000000000000090046001600160a01b03166119dd5761ffff85166000908152600760209081526040918290205491516118d8926a010000000000000000000090046001600160a01b03169101614e28565b80546040516118d8916a010000000000000000000090046001600160a01b031690602001614e28565b6004831415611abf5780547e01000000000000000000000000000000000000000000000000000000000000900461ffff16611a875761ffff8086166000908152600760209081526040918290205491516118d8937e010000000000000000000000000000000000000000000000000000000000009093049092169101615aa6565b80546040516118d8917e01000000000000000000000000000000000000000000000000000000000000900461ffff1690602001615aa6565b6005831415611b2c57600181015467ffffffffffffffff16611b0d5761ffff85166000908152600760209081526040918290206001015491516118d89267ffffffffffffffff169101615ca3565b60018101546040516118d89167ffffffffffffffff1690602001615ca3565b6006831415611bba5760018101546801000000000000000090046001600160a01b0316611b905761ffff85166000908152600760209081526040918290206001015491516118d8926801000000000000000090046001600160a01b03169101614e28565b60018101546040516118d8916801000000000000000090046001600160a01b031690602001614e28565b60405162461bcd60e51b81526004016109fe90615016565b505b9392505050565b611be3613948565b6001600160a01b0316611bf4612a79565b6001600160a01b031614611c4f576040805162461bcd60e51b815260206004820181905260248201527f4f776e61626c653a2063616c6c6572206973206e6f7420746865206f776e6572604482015290519081900360640190fd5b6001600160a01b038116611c755760405162461bcd60e51b81526004016109fe9061513e565b600280547fffffffffffffffffffffffff0000000000000000000000000000000000000000166001600160a01b0383169081179091556040517f33d644987381deff4408951d55afa136f124e22a7810b163b2aaa3ebef770f6490600090a250565b60116020526000908152604090205467ffffffffffffffff1681565b60106020526000908152604090205460ff1681565b7f000000000000000000000000000000000000000000000000000000000000000081565b7f000000000000000000000000000000000000000000000000000000000000000081565b6001600160a01b0381166000908152600460205260409020545b919050565b611d77613948565b6001600160a01b0316611d88612a79565b6001600160a01b031614611de3576040805162461bcd60e51b815260206004820181905260248201527f4f776e61626c653a2063616c6c6572206973206e6f7420746865206f776e6572604482015290519081900360640190fd5b61ffff8088166000908152600a6020526040902054811690871611801590611e0f575060008661ffff16115b611e2b5760405162461bcd60e51b81526004016109fe90615596565b60008567ffffffffffffffff1611611e555760405162461bcd60e51b81526004016109fe90615980565b6001600160a01b038416611e7b5760405162461bcd60e51b81526004016109fe9061519b565b61ffff8088166000908152600b602090815260408083209387168352929052205460ff16611ebb5760405162461bcd60e51b81526004016109fe90614f25565b60008267ffffffffffffffff1611611ee55760405162461bcd60e51b81526004016109fe90615832565b6001600160a01b038116611f0b5760405162461bcd60e51b81526004016109fe906152c3565b6040518060c001604052808761ffff1681526020018667ffffffffffffffff168152602001856001600160a01b031681526020018461ffff1681526020018367ffffffffffffffff168152602001826001600160a01b0316815250600760008961ffff1661ffff16815260200190815260200160002060008201518160000160006101000a81548161ffff021916908361ffff16021790555060208201518160000160026101000a81548167ffffffffffffffff021916908367ffffffffffffffff160217905550604082015181600001600a6101000a8154816001600160a01b0302191690836001600160a01b03160217905550606082015181600001601e6101000a81548161ffff021916908361ffff16021790555060808201518160010160006101000a81548167ffffffffffffffff021916908367ffffffffffffffff16021790555060a08201518160010160086101000a8154816001600160a01b0302191690836001600160a01b031602179055509050508661ffff167f5a76432853a0871c4e780def7f3ffc7912339b53f022ac31127fe5ff84a36fa18787878787876040516120c096959493929190615c4c565b60405180910390a250505050505050565b7f000000000000000000000000000000000000000000000000000000000000000081565b336000908152600d6020908152604080832061ffff88168452825280832086845282528083208484529091529020548281106121435760405162461bcd60e51b81526004016109fe906154dc565b336000818152600d6020908152604080832061ffff8a1680855290835281842089855283528184208785529092529182902086905590517f74bbc026808dcba59692d6a8bb20596849ca718e10e2432c6cdf48af865bc5d9906121ab90889087908990614e68565b60405180910390a35050505050565b6121c2613948565b6001600160a01b03166121d3612a79565b6001600160a01b03161461222e576040805162461bcd60e51b815260206004820181905260248201527f4f776e61626c653a2063616c6c6572206973206e6f7420746865206f776e6572604482015290519081900360640190fd5b6001546040516000916001600160a01b0316907f8be0079c531659141344cd1fd0a4f28419497f9722a3daafe3b4186f6b6457e0908390a3600180547fffffffffffffffffffffffff0000000000000000000000000000000000000000169055565b600d60209081526000948552604080862082529385528385208152918452828420909152825290205481565b6122c4613948565b6001600160a01b03166122d5612a79565b6001600160a01b031614612330576040805162461bcd60e51b815260206004820181905260248201527f4f776e61626c653a2063616c6c6572206973206e6f7420746865206f776e6572604482015290519081900360640190fd5b61ffff821660009081526010602052604090205460ff16156123645760405162461bcd60e51b81526004016109fe90615422565b6040517f7a1457480000000000000000000000000000000000000000000000000000000081526000906001600160a01b037f00000000000000000000000000000000000000000000000000000000000000001690637a145748906123ee9086907f000000000000000000000000000000000000000000000000000000000000000090600401615ab5565b60206040518083038186803b15801561240657600080fd5b505afa15801561241a573d6000803e3d6000fd5b505050506040513d601f19601f8201168201806040525081019061243e9190614c37565b61ffff8416600090815260106020908152604080832080547fffffffffffffffffffffffffffffffffffffffffffffffffffffffffffffff001660011790555192935090916124b19185917f00000000000000000000000000000000000000000000000000000000000000009101614cd9565b60408051601f19818403018152908290527f3461ff5600000000000000000000000000000000000000000000000000000000825291506001600160a01b037f00000000000000000000000000000000000000000000000000000000000000001690633461ff569061252a90879085908790600401615ba3565b600060405180830381600087803b15801561254457600080fd5b505af1158015610f13573d6000803e3d6000fd5b612560613948565b6001600160a01b0316612571612a79565b6001600160a01b0316146125cc576040805162461bcd60e51b815260206004820181905260248201527f4f776e61626c653a2063616c6c6572206973206e6f7420746865206f776e6572604482015290519081900360640190fd5b600f80547fffffffffffffffffffffffffffffffffffffffffffffffffffffffffffffff00166001179055565b600481565b612606613948565b6001600160a01b0316612617612a79565b6001600160a01b031614612672576040805162461bcd60e51b815260206004820181905260248201527f4f776e61626c653a2063616c6c6572206973206e6f7420746865206f776e6572604482015290519081900360640190fd5b6001600160a01b0381166126985760405162461bcd60e51b81526004016109fe9061547f565b61ffff8083166000908152600a602052604090205481169081106126ce5760405162461bcd60e51b81526004016109fe90615767565b61ffff8381166000818152600a6020908152604080832080547fffffffffffffffffffffffffffffffffffffffffffffffffffffffffffff00001660019790970195861696871790556009825280832095835294905283902080547fffffffffffffffffffffffff0000000000000000000000000000000000000000166001600160a01b03861617905591519091907f802d55279d51813cb7a9a98e8fd2d7bec5346cb830901c11b85d1650cb857e9a9061278a908590614e28565b60405180910390a2505050565b61279f613948565b6001600160a01b03166127b0612a79565b6001600160a01b03161461280b576040805162461bcd60e51b815260206004820181905260248201527f4f776e61626c653a2063616c6c6572206973206e6f7420746865206f776e6572604482015290519081900360640190fd5b61ffff8085166000908152600860209081526040808320938716835292905220612836908383614345565b508261ffff168461ffff167f4a5695eee2a74d548d5f5c485a3de99ace99e3b664c8e30a90f49be6ebb549328484604051612872929190614ea9565b60405180910390a350505050565b600260005414156128d8576040805162461bcd60e51b815260206004820152601f60248201527f5265656e7472616e637947756172643a207265656e7472616e742063616c6c00604482015290519081900360640190fd5b60026000556003546001600160a01b031633146129075760405162461bcd60e51b81526004016109fe90614fdf565b60055461291490826138eb565b60055560025461292e906001600160a01b03168383613f6f565b816001600160a01b0316336001600160a01b03167f3a20c8c3cd1848485ae8261a52398bb9b26f195b717306b3cf7f058e62c095d5836040516129719190614e5f565b60405180910390a350506001600055565b61298a613948565b6001600160a01b031661299b612a79565b6001600160a01b0316146129f6576040805162461bcd60e51b815260206004820181905260248201527f4f776e61626c653a2063616c6c6572206973206e6f7420746865206f776e6572604482015290519081900360640190fd5b61ffff82166000908152600c602052604090205415612a275760405162461bcd60e51b81526004016109fe90615923565b61ffff82166000818152600c602052604090819020839055517f0611bb2107e385b79ec826fff8ecc1c1248a7aae3c875c96668f8cfbf173422090612a6d908490614e5f565b60405180910390a25050565b6001546001600160a01b031690565b600581565b600f5460ff1681565b600c6020526000908152604090205481565b7f00000000000000000000000000000000000000000000000000000000000000006001600160a01b0316866001600160a01b031614612af95760405162461bcd60e51b81526004016109fe906158ec565b600f5460ff1615612b1c5760405162461bcd60e51b81526004016109fe906157c4565b6000612b28888861394c565b60408101519091506001600160a01b03163314612b575760405162461bcd60e51b81526004016109fe906153b4565b612b5f6143ef565b61ffff89166000908152600c602052604090205480612b905760405162461bcd60e51b81526004016109fe9061588f565b60a08301516001600160a01b03166000908152600d6020908152604080832061ffff8e16845282528083208a845282528083208984529091529020548015801590612be95750836020015167ffffffffffffffff168110155b612c055760405162461bcd60e51b81526004016109fe906159dd565b61ffff808c166000908152600960209081526040808320885190941683529290528190205490517fb71e0f710000000000000000000000000000000000000000000000000000000081526001600160a01b0390911690819063b71e0f7190612c77908b908b908b908990600401614e7e565b600060405180830381600087803b158015612c9157600080fd5b505af1158015612ca5573d6000803e3d6000fd5b505050506040513d6000823e601f3d908101601f19168201604052612ccd9190810190614722565b60a081015161ffff8e166000908152600e6020526040902054919550149150508015612cfc575060a082015115155b612d185760405162461bcd60e51b81526004016109fe90615320565b8961ffff16826000015161ffff1614612d435760405162461bcd60e51b81526004016109fe9061537d565b8082608001515114612d675760405162461bcd60e51b81526004016109fe906155f3565b7f000000000000000000000000000000000000000000000000000000000000000061ffff16826020015161ffff1614612db25760405162461bcd60e51b81526004016109fe9061555f565b886001600160a01b031682606001516001600160a01b031614612de75760405162461bcd60e51b81526004016109fe9061528c565b612df089613ff4565b612e615781606001516001600160a01b0316826000015161ffff167fa2786598bd84ae4a299103996359e6cb4333404583256079dfc279386baf5832846080015185604001518660c0015180519060200120604051612e5193929190614ef6565b60405180910390a3505050612f89565b600082608001518360600151604051602001612e7e929190614d13565b604051602081830303815290604052905082606001516001600160a01b0316836000015161ffff167f2bd2d8a84b748439fd50d79a49502b4eb5faa25b864da6a9ab5c150704be9a4d856080015186604001518760c0015180519060200120604051612eec93929190614ef6565b60405180910390a37f00000000000000000000000000000000000000000000000000000000000000006001600160a01b031663c2fa48138c838d87604001518e8960c001516040518763ffffffff1660e01b8152600401612f5296959493929190615b42565b600060405180830381600087803b158015612f6c57600080fd5b505af1158015612f80573d6000803e3d6000fd5b50505050505050505b50505050505050565b612f9a61442d565b611bd4838361394c565b600181565b600a6020526000908152604090205461ffff1681565b6040517fc533338f0000000000000000000000000000000000000000000000000000000081526000906001600160a01b037f0000000000000000000000000000000000000000000000000000000000000000169063c533338f9061302b90879087908790600401615b07565b60206040518083038186803b15801561304357600080fd5b505afa158015613057573d6000803e3d6000fd5b505050506040513d601f19601f8201168201806040525081019061307b9190614c37565b949350505050565b600b60209081526000928352604080842090915290825290205460ff1681565b60096020908152600092835260408084209091529082529020546001600160a01b031681565b60066020908152600092835260408084209091529082529020805460019091015461ffff8083169267ffffffffffffffff6201000082048116936001600160a01b036a010000000000000000000084048116947e010000000000000000000000000000000000000000000000000000000000009094049093169291811691680100000000000000009091041686565b600e6020526000908152604090205481565b613172613948565b6001600160a01b0316613183612a79565b6001600160a01b0316146131de576040805162461bcd60e51b815260206004820181905260248201527f4f776e61626c653a2063616c6c6572206973206e6f7420746865206f776e6572604482015290519081900360640190fd5b61ffff8083166000818152600b60209081526040808320948616835293905282902080547fffffffffffffffffffffffffffffffffffffffffffffffffffffffffffffff0016600117905590517fec23bee6f88cfecebb09d6aaaed66f0ce110debc1f61117c8270a7116597df9a90612a6d908490615aa6565b613260613948565b6001600160a01b0316613271612a79565b6001600160a01b0316146132cc576040805162461bcd60e51b815260206004820181905260248201527f4f776e61626c653a2063616c6c6572206973206e6f7420746865206f776e6572604482015290519081900360640190fd5b61ffff82166000908152600e6020526040902054156132fd5760405162461bcd60e51b81526004016109fe9061570a565b61ffff82166000818152600e602052604090819020839055517f0dad975e1d2fbe771c95cdcc7be9a1e61181de7173abe0a32b8f8f83140873e590612a6d908490614e5f565b61334b613948565b6001600160a01b031661335c612a79565b6001600160a01b0316146133b7576040805162461bcd60e51b815260206004820181905260248201527f4f776e61626c653a2063616c6c6572206973206e6f7420746865206f776e6572604482015290519081900360640190fd5b6001600160a01b0381166133dd5760405162461bcd60e51b81526004016109fe90615650565b600380547fffffffffffffffffffffffff0000000000000000000000000000000000000000166001600160a01b0383169081179091556040517fcb7ef3e545f5cdb893f5c568ba710fe08f336375a2d9fd66e161033f8fc09ef390600090a250565b613447613948565b6001600160a01b0316613458612a79565b6001600160a01b0316146134b3576040805162461bcd60e51b815260206004820181905260248201527f4f776e61626c653a2063616c6c6572206973206e6f7420746865206f776e6572604482015290519081900360640190fd5b6001600160a01b0381166134f85760405162461bcd60e51b8152600401808060200182810382526026815260200180615d6f6026913960400191505060405180910390fd5b6001546040516001600160a01b038084169216907f8be0079c531659141344cd1fd0a4f28419497f9722a3daafe3b4186f6b6457e090600090a3600180547fffffffffffffffffffffffff0000000000000000000000000000000000000000166001600160a01b0392909216919091179055565b60055481565b60046020526000908152604090205481565b7f00000000000000000000000000000000000000000000000000000000000000006001600160a01b031633146135cc5760405162461bcd60e51b81526004016109fe906157fb565b6001600160a01b038416600090815260066020908152604080832061ffff891684529091529020600184141561367957600061360a838501856147fe565b61ffff8089166000908152600a602052604090205491925090811690821611156136465760405162461bcd60e51b81526004016109fe90615596565b81547fffffffffffffffffffffffffffffffffffffffffffffffffffffffffffff00001661ffff9190911617815561389f565b60028414156136d057600061369083850185614c1b565b825467ffffffffffffffff90911662010000027fffffffffffffffffffffffffffffffffffffffffffff0000000000000000ffff9091161782555061389f565b600384141561372e5760006136e78385018561455c565b82546001600160a01b039091166a0100000000000000000000027fffff0000000000000000000000000000000000000000ffffffffffffffffffff9091161782555061389f565b60048414156137e8576000613745838501856147fe565b61ffff8089166000908152600b602090815260408083209385168352929052205490915060ff1680613779575061ffff8116155b6137955760405162461bcd60e51b81526004016109fe90614f25565b815461ffff9091167e01000000000000000000000000000000000000000000000000000000000000027dffffffffffffffffffffffffffffffffffffffffffffffffffffffffffff90911617815561389f565b60058414156138405760006137ff83850185614c1b565b6001830180547fffffffffffffffffffffffffffffffffffffffffffffffff00000000000000001667ffffffffffffffff929092169190911790555061389f565b6006841415611bba5760006138578385018561455c565b6001830180546001600160a01b0390921668010000000000000000027fffffffff0000000000000000000000000000000000000000ffffffffffffffff909216919091179055505b83856001600160a01b03167ffc01bf86212a14151d51d1be5c2ac64d67d5ec823dfc6f53298d7ce3f3d3d25285856040516138db929190614ea9565b60405180910390a3505050505050565b600082821115613942576040805162461bcd60e51b815260206004820152601e60248201527f536166654d6174683a207375627472616374696f6e206f766572666c6f770000604482015290519081900360640190fd5b50900390565b3390565b61395461442d565b6001600160a01b03808316600090815260066020908152604080832061ffff808916808652918452828520835160c0810185528154808416825267ffffffffffffffff6201000082048116838901526a010000000000000000000082048a16838801527e010000000000000000000000000000000000000000000000000000000000009091048416606083015260019092015491821660808201526801000000000000000090910490961660a087015290845260079092529091208251909116613a2157805461ffff1682525b602082015167ffffffffffffffff16613a4c57805462010000900467ffffffffffffffff1660208301525b60408201516001600160a01b0316613a7d5780546a010000000000000000000090046001600160a01b031660408301525b606082015161ffff16613ab85780547e01000000000000000000000000000000000000000000000000000000000000900461ffff1660608301525b608082015167ffffffffffffffff16613ae057600181015467ffffffffffffffff1660808301525b60a08201516001600160a01b0316611bd257600101546801000000000000000090046001600160a01b031660a08201529392505050565b600082820183811015611bd4576040805162461bcd60e51b815260206004820152601b60248201527f536166654d6174683a206164646974696f6e206f766572666c6f770000000000604482015290519081900360640190fd5b6000815160001415613c4c5761ffff808716600090815260086020908152604080832060608a015190941683529281529082902080548351601f60027fffffffffffffffffffffffffffffffffffffffffffffffffffffffffffffffff61010060018616150201909316929092049182018490048402810184019094528084529091830182828015613c445780601f10613c1957610100808354040283529160200191613c44565b820191906000526020600020905b815481529060010190602001808311613c2757829003601f168201915b505050505091505b604080860151606087015191517f5886ea65000000000000000000000000000000000000000000000000000000008152909182916001600160a01b03831691635886ea6591613ca5918c918b908b908b90600401615bda565b602060405180830381600087803b158015613cbf57600080fd5b505af1158015613cd3573d6000803e3d6000fd5b505050506040513d601f19601f82011682018060405250810190613cf79190614c03565b9250613d038284613ffa565b7fb0c632f55f1e1b3b2c3d82f41ee4716bb4c00f0f5d84cdafc141581bb8757a4f848860600151604051613d38929190614ed0565b60405180910390a1505095945050505050565b60a0820151606083015160808401516040517fc5e193cd000000000000000000000000000000000000000000000000000000008152600093926001600160a01b0384169263c5e193cd92613da7928a9290918990600401615c16565b602060405180830381600087803b158015613dc157600080fd5b505af1158015613dd5573d6000803e3d6000fd5b505050506040513d601f19601f82011682018060405250810190613df99190614c03565b9150611bd28183613ffa565b6000806001600160a01b0383161580613e2757506002546001600160a01b0316155b6003546040517f5cbbbd750000000000000000000000000000000000000000000000000000000081529192506000916001600160a01b0390911690635cbbbd7590613e7b908515908b908b90600401614e47565b60206040518083038186803b158015613e9357600080fd5b505afa158015613ea7573d6000803e3d6000fd5b505050506040513d601f19601f82011682018060405250810190613ecb9190614c03565b90508015613f65578115613ef8576003546001600160a01b0316613eef8183613ffa565b81935050613f65565b846001600160a01b0316846001600160a01b03161480613f2057506001600160a01b03841632145b613f3c5760405162461bcd60e51b81526004016109fe9061522f565b600254613f54906001600160a01b031685308461403d565b600554613f619082613b17565b6005555b5050949350505050565b604080516001600160a01b038416602482015260448082018490528251808303909101815260649091019091526020810180517bffffffffffffffffffffffffffffffffffffffffffffffffffffffff167fa9059cbb00000000000000000000000000000000000000000000000000000000179052613fef9084906140cb565b505050565b3b151590565b6001600160a01b03821660009081526004602052604090205461401d9082613b17565b6001600160a01b0390921660009081526004602052604090209190915550565b604080516001600160a01b0380861660248301528416604482015260648082018490528251808303909101815260849091019091526020810180517bffffffffffffffffffffffffffffffffffffffffffffffffffffffff167f23b872dd000000000000000000000000000000000000000000000000000000001790526140c59085906140cb565b50505050565b6000614120826040518060400160405280602081526020017f5361666545524332303a206c6f772d6c6576656c2063616c6c206661696c6564815250856001600160a01b031661417c9092919063ffffffff16565b805190915015613fef5780806020019051602081101561413f57600080fd5b5051613fef5760405162461bcd60e51b815260040180806020018281038252602a815260200180615d95602a913960400191505060405180910390fd5b606061307b84846000858561419085613ff4565b6141e1576040805162461bcd60e51b815260206004820152601d60248201527f416464726573733a2063616c6c20746f206e6f6e2d636f6e7472616374000000604482015290519081900360640190fd5b600080866001600160a01b031685876040518082805190602001908083835b6020831061421f5780518252601f199092019160209182019101614200565b6001836020036101000a03801982511681845116808217855250505050505090500191505060006040518083038185875af1925050503d8060008114614281576040519150601f19603f3d011682016040523d82523d6000602084013e614286565b606091505b50915091506142968282866142a1565b979650505050505050565b606083156142b0575081611bd4565b8251156142c05782518084602001fd5b8160405162461bcd60e51b81526004018080602001828103825283818151815260200191508051906020019080838360005b8381101561430a5781810151838201526020016142f2565b50505050905090810190601f1680156143375780820380516001836020036101000a031916815260200191505b509250505060405180910390fd5b828054600181600116156101000203166002900490600052602060002090601f01602090048101928261437b57600085556143df565b82601f106143b2578280017fffffffffffffffffffffffffffffffffffffffffffffffffffffffffffffff008235161785556143df565b828001600101855582156143df579182015b828111156143df5782358255916020019190600101906143c4565b506143eb929150614462565b5090565b6040805160e08101825260008082526020820181905291810182905260608082018390526080820181905260a082019290925260c081019190915290565b6040805160c081018252600080825260208201819052918101829052606081018290526080810182905260a081019190915290565b5b808211156143eb5760008155600101614463565b8035611d6a81615d30565b8051611d6a81615d30565b60008083601f84011261449e578182fd5b50813567ffffffffffffffff8111156144b5578182fd5b6020830191508360208285010111156144cd57600080fd5b9250929050565b600082601f8301126144e4578081fd5b815167ffffffffffffffff8111156144f857fe5b61450b6020601f19601f84011601615cb8565b81815284602083860101111561451f578283fd5b61307b826020830160208701615d04565b8035611d6a81615d48565b8051611d6a81615d48565b8035611d6a81615d58565b8051611d6a81615d58565b60006020828403121561456d578081fd5b8135611bd481615d30565b6000806040838503121561458a578081fd5b823561459581615d30565b946020939093013593505050565b600080604083850312156145b5578182fd5b82356145c081615d30565b915060208301356145d081615d48565b809150509250929050565b600080600080608085870312156145f0578182fd5b84356145fb81615d30565b9350602085013561460b81615d48565b93969395505050506040820135916060013590565b6000806040838503121561458a578182fd5b60008060008060008060008060008060006101008c8e031215614653578687fd5b61465c8c614477565b9a5061466a60208d01614546565b995061467860408d01614530565b985067ffffffffffffffff8060608e01351115614693578788fd5b6146a38e60608f01358f0161448d565b909950975060808d01358110156146b8578687fd5b6146c88e60808f01358f0161448d565b90975095506146d960a08e01614477565b94506146e760c08e01614477565b93508060e08e013511156146f9578283fd5b5061470a8d60e08e01358e0161448d565b81935080925050509295989b509295989b9093969950565b600060208284031215614733578081fd5b815167ffffffffffffffff8082111561474a578283fd5b9083019060e0828603121561475d578283fd5b61476760e0615cb8565b6147708361453b565b815261477e6020840161453b565b602082015261478f60408401614551565b60408201526147a060608401614482565b60608201526080830151828111156147b6578485fd5b6147c2878286016144d4565b60808301525060a083015160a082015260c0830151828111156147e3578485fd5b6147ef878286016144d4565b60c08301525095945050505050565b60006020828403121561480f578081fd5b8135611bd481615d48565b6000806040838503121561482c578182fd5b823561483781615d48565b915060208301356145d081615d30565b600080600080600080600060a0888a031215614861578081fd5b873561486c81615d48565b9650602088013561487c81615d30565b9550604088013567ffffffffffffffff80821115614898578283fd5b6148a48b838c0161448d565b909750955060608a0135915081151582146148bd578283fd5b909350608089013590808211156148d2578283fd5b506148df8a828b0161448d565b989b979a50959850939692959293505050565b600080600060608486031215614906578081fd5b833561491181615d48565b9250602084013561492181615d30565b929592945050506040919091013590565b600080600080600080600060c0888a03121561494c578081fd5b873561495781615d48565b9650602088013561496781615d30565b955060408801359450606088013593506080880135925060a088013567ffffffffffffffff811115614997578182fd5b6148df8a828b0161448d565b6000806000806000608086880312156149ba578283fd5b85356149c581615d48565b945060208601356149d581615d30565b935060408601359250606086013567ffffffffffffffff8111156149f7578182fd5b614a038882890161448d565b969995985093965092949392505050565b60008060008060808587031215614a29578182fd5b8435614a3481615d48565b9350602085013561460b81615d30565b60008060408385031215614a56578182fd5b823561459581615d48565b60008060008060808587031215614a76578182fd5b8435614a8181615d48565b966020860135965060408601359560600135945092505050565b600080600060408486031215614aaf578081fd5b8335614aba81615d48565b9250602084013567ffffffffffffffff811115614ad5578182fd5b614ae18682870161448d565b9497909650939450505050565b60008060408385031215614b00578182fd5b82356145c081615d48565b60008060008060608587031215614b20578182fd5b8435614b2b81615d48565b93506020850135614b3b81615d48565b9250604085013567ffffffffffffffff811115614b56578283fd5b614b628782880161448d565b95989497509550505050565b600080600080600080600060e0888a031215614b88578081fd5b8735614b9381615d48565b96506020880135614ba381615d48565b95506040880135614bb381615d58565b94506060880135614bc381615d30565b93506080880135614bd381615d48565b925060a0880135614be381615d58565b915060c0880135614bf381615d30565b8091505092959891949750929550565b600060208284031215614c14578081fd5b5051919050565b600060208284031215614c2c578081fd5b8135611bd481615d58565b600060208284031215614c48578081fd5b8151611bd481615d58565b60008284528282602086013780602084860101526020601f19601f85011685010190509392505050565b60008151808452614c95816020860160208601615d04565b601f01601f19169290920160200192915050565b60609190911b7fffffffffffffffffffffffffffffffffffffffff00000000000000000000000016815260140190565b7fffffffffffffffffffffffffffffffffffffffff000000000000000000000000606093841b811682529190921b16601482015260280190565b60008351614d25818460208801615d04565b60609390931b7fffffffffffffffffffffffffffffffffffffffff000000000000000000000000169190920190815260140192915050565b90565b60007fffffffffffffffff0000000000000000000000000000000000000000000000008860c01b1682527fffff000000000000000000000000000000000000000000000000000000000000808860f01b1660088401527fffffffffffffffffffffffffffffffffffffffff0000000000000000000000008760601b16600a840152808660f01b16601e840152508351614e00816020850160208801615d04565b80830190508351614e18816020840160208801615d04565b0160200198975050505050505050565b6001600160a01b0391909116815260200190565b901515815260200190565b92151583526020830191909152604082015260600190565b90815260200190565b9283526020830191909152604082015260600190565b600085825260606020830152614e98606083018587614c53565b905082604083015295945050505050565b60006020825261307b602083018486614c53565b600060208252611bd46020830184614c7d565b600060408252614ee36040830185614c7d565b905061ffff831660208301529392505050565b600060608252614f096060830186614c7d565b67ffffffffffffffff9490941660208301525060400152919050565b60208082526026908201527f4c617965725a65726f3a20696e76616c6964206f7574626f756e642070726f6f60408201527f6620747970650000000000000000000000000000000000000000000000000000606082015260800190565b60208082526024908201527f4c617965725a65726f3a20647374436861696e496420646f6573206e6f74206560408201527f7869737400000000000000000000000000000000000000000000000000000000606082015260800190565b60208082526018908201527f4c617965725a65726f3a206f6e6c792074726561737572790000000000000000604082015260600190565b6020808252601e908201527f4c617965725a65726f3a20496e76616c696420636f6e66696720747970650000604082015260600190565b6020808252601a908201527f4c617965725a65726f3a207769746864726177206661696c6564000000000000604082015260600190565b60208082526025908201527f4c617965725a65726f3a206e6f7420656e6f756768206e617469766520666f7260408201527f2066656573000000000000000000000000000000000000000000000000000000606082015260800190565b60208082526025908201527f4c617965725a65726f3a205f746f2063616e6e6f74206265207a65726f20616460408201527f6472657373000000000000000000000000000000000000000000000000000000606082015260800190565b60208082526031908201527f4c617965725a65726f3a205f6c617965725a65726f546f6b656e2063616e6e6f60408201527f74206265207a65726f2061646472657373000000000000000000000000000000606082015260800190565b60208082526022908201527f4c617965725a65726f3a20696e76616c69642072656c6179657220616464726560408201527f7373000000000000000000000000000000000000000000000000000000000000606082015260800190565b6020808252601b908201527f4c617965725a65726f3a206661696c656420746f20726566756e640000000000604082015260600190565b6020808252602b908201527f4c617965725a65726f3a206d75737420626520706169642062792073656e646560408201527f72206f72206f726967696e000000000000000000000000000000000000000000606082015260800190565b6020808252601d908201527f4c617965725a65726f3a20696e76616c69642064737441646472657373000000604082015260600190565b60208082526021908201527f4c617965725a65726f3a20696e76616c6964206f7261636c652061646472657360408201527f7300000000000000000000000000000000000000000000000000000000000000606082015260800190565b60208082526025908201527f4c617965725a65726f3a20696e76616c6964205f7061636b65742e756c6e416460408201527f6472657373000000000000000000000000000000000000000000000000000000606082015260800190565b6020808252601e908201527f4c617965725a65726f3a20696e76616c696420737263436861696e2049640000604082015260600190565b6020808252601a908201527f4c617965725a65726f3a20696e76616c69642072656c61796572000000000000604082015260600190565b6020808252601a908201527f4c617965725a65726f3a2077726f6e6720706174682064617461000000000000604082015260600190565b60208082526026908201527f4c617965725a65726f3a20646170705261646172206e6f6e636520616c72656160408201527f6479207365740000000000000000000000000000000000000000000000000000606082015260800190565b60208082526029908201527f4c617965725a65726f3a206c6962726172792063616e6e6f74206265207a657260408201527f6f20616464726573730000000000000000000000000000000000000000000000606082015260800190565b60208082526043908201527f4c617965725a65726f3a206f7261636c6520646174612063616e206f6e6c792060408201527f75706461746520696620697420686173206d6f726520636f6e6669726d61746960608201527f6f6e730000000000000000000000000000000000000000000000000000000000608082015260a00190565b6020808252601e908201527f4c617965725a65726f3a20696e76616c696420647374436861696e2049640000604082015260600190565b60208082526030908201527f4c617965725a65726f3a20696e76616c696420696e626f756e642070726f6f6660408201527f206c6962726172792076657273696f6e00000000000000000000000000000000606082015260800190565b60208082526022908201527f4c617965725a65726f3a20696e76616c6964207372634164647265737320736960408201527f7a65000000000000000000000000000000000000000000000000000000000000606082015260800190565b6020808252602a908201527f4c617965725a65726f3a2074726561737572792063616e6e6f74206265207a6560408201527f726f206164647265737300000000000000000000000000000000000000000000606082015260800190565b60208082526023908201527f4c617965725a65726f3a206e6f74206c6567616379207261646172206164647260408201527f6573730000000000000000000000000000000000000000000000000000000000606082015260800190565b60208082526021908201527f4c617965725a65726f3a2072656d6f746520756c6e20616c726561647920736560408201527f7400000000000000000000000000000000000000000000000000000000000000606082015260800190565b60208082526022908201527f4c617965725a65726f3a2063616e206e6f7420616464206e6577206c6962726160408201527f7279000000000000000000000000000000000000000000000000000000000000606082015260800190565b60208082526019908201527f4c617965725a65726f3a206465636f6d6d697373696f6e656400000000000000604082015260600190565b60208082526018908201527f4c617965725a65726f3a206f6e6c7920656e64706f696e740000000000000000604082015260600190565b6020808252602e908201527f4c617965725a65726f3a20696e76616c6964206f7574626f756e6420626c6f6360408201527f6b20636f6e6669726d6174696f6e000000000000000000000000000000000000606082015260800190565b60208082526028908201527f4c617965725a65726f3a20696e636f72726563742072656d6f7465206164647260408201527f6573732073697a65000000000000000000000000000000000000000000000000606082015260800190565b60208082526019908201527f4c617965725a65726f3a206f6e6c792064617070526164617200000000000000604082015260600190565b60208082526030908201527f4c617965725a65726f3a2072656d6f746520636861696e20616464726573732060408201527f73697a6520616c72656164792073657400000000000000000000000000000000606082015260800190565b6020808252602d908201527f4c617965725a65726f3a20696e76616c696420696e626f756e6420626c6f636b60408201527f20636f6e6669726d6174696f6e00000000000000000000000000000000000000606082015260800190565b60208082526029908201527f4c617965725a65726f3a206e6f7420656e6f75676820626c6f636b20636f6e6660408201527f69726d6174696f6e730000000000000000000000000000000000000000000000606082015260800190565b600060c08201905061ffff808451168352602084015167ffffffffffffffff8082166020860152604086015191506001600160a01b0380831660408701528360608801511660608701528160808801511660808701528060a08801511660a08701525050505092915050565b61ffff91909116815260200190565b61ffff9290921682526001600160a01b0316602082015260400190565b600061ffff851682526001600160a01b038416602083015260606040830152615afe6060830184614c7d565b95945050505050565b600061ffff8516825260406020830152615afe604083018486614c53565b600061ffff841682526040602083015261307b6040830184614c7d565b600061ffff8816825260c06020830152615b5f60c0830188614c7d565b6001600160a01b038716604084015267ffffffffffffffff8616606084015284608084015282810360a0840152615b968185614c7d565b9998505050505050505050565b600061ffff8516825260606020830152615bc06060830185614c7d565b905067ffffffffffffffff83166040830152949350505050565b600061ffff80881683528087166020840152506001600160a01b038516604083015283606083015260a0608083015261429660a0830184614c7d565b61ffff948516815292909316602083015267ffffffffffffffff1660408201526001600160a01b03909116606082015260800190565b61ffff968716815267ffffffffffffffff95861660208201526001600160a01b03948516604082015292909516606083015290921660808301529190911660a082015260c00190565b918252602082015260400190565b67ffffffffffffffff91909116815260200190565b60405181810167ffffffffffffffff81118282101715615cd457fe5b604052919050565b60008085851115615ceb578182fd5b83861115615cf7578182fd5b5050820193919092039150565b60005b83811015615d1f578181015183820152602001615d07565b838111156140c55750506000910152565b6001600160a01b0381168114615d4557600080fd5b50565b61ffff81168114615d4557600080fd5b67ffffffffffffffff81168114615d4557600080fdfe4f776e61626c653a206e6577206f776e657220697320746865207a65726f20616464726573735361666545524332303a204552433230206f7065726174696f6e20646964206e6f742073756363656564a26469706673582212207ebb07bc803d4777652f3cefdfaba993ec251527e30600f1f8ff41fd8ef2905164736f6c63430007060033",
  "linkReferences": {},
  "deployedLinkReferences": {}
}