{
  "address": "0x89acA20831317c6dff2A348a1e4f3D37a48bC498",
  "abi": [
    {
      "inputs": [
        {
          "internalType": "address",
          "name": "_stargateBridgeAddress",
          "type": "address"
        },
        {
          "internalType": "address",
          "name": "_stargateTokenAddress",
          "type": "address"
        }
      ],
      "stateMutability": "nonpayable",
      "type": "constructor"
    },
    {
      "inputs": [
        {
          "internalType": "bytes",
          "name": "data",
          "type": "bytes"
        },
        {
          "internalType": "uint256",
          "name": "sizeOfSrcAddress",
          "type": "uint256"
        },
        {
          "internalType": "bytes32",
          "name": "ulnAddress",
          "type": "bytes32"
        }
      ],
      "name": "getPacket",
      "outputs": [
        {
          "components": [
            {
              "internalType": "uint16",
              "name": "srcChainId",
              "type": "uint16"
            },
            {
              "internalType": "uint16",
              "name": "dstChainId",
              "type": "uint16"
            },
            {
              "internalType": "uint64",
              "name": "nonce",
              "type": "uint64"
            },
            {
              "internalType": "address",
              "name": "dstAddress",
              "type": "address"
            },
            {
              "internalType": "bytes",
              "name": "srcAddress",
              "type": "bytes"
            },
            {
              "internalType": "bytes32",
              "name": "ulnAddress",
              "type": "bytes32"
            },
            {
              "internalType": "bytes",
              "name": "payload",
              "type": "bytes"
            }
          ],
          "internalType": "struct LayerZeroPacket.Packet",
          "name": "",
          "type": "tuple"
        }
      ],
      "stateMutability": "pure",
      "type": "function"
    },
    {
      "inputs": [],
      "name": "getProofType",
      "outputs": [
        {
          "internalType": "uint8",
          "name": "",
          "type": "uint8"
        }
      ],
      "stateMutability": "view",
      "type": "function"
    },
    {
      "inputs": [],
      "name": "getUtilsVersion",
      "outputs": [
        {
          "internalType": "uint8",
          "name": "",
          "type": "uint8"
        }
      ],
      "stateMutability": "view",
      "type": "function"
    },
    {
      "inputs": [
        {
          "internalType": "bytes32",
          "name": "",
          "type": "bytes32"
        },
        {
          "internalType": "uint256[]",
          "name": "",
          "type": "uint256[]"
        },
        {
          "internalType": "uint256",
          "name": "",
          "type": "uint256"
        },
        {
          "internalType": "bytes[]",
          "name": "proof",
          "type": "bytes[]"
        }
      ],
      "name": "getVerifyLog",
      "outputs": [
        {
          "components": [
            {
              "internalType": "bytes32",
              "name": "contractAddress",
              "type": "bytes32"
            },
            {
              "internalType": "bytes32",
              "name": "topicZeroSig",
              "type": "bytes32"
            },
            {
              "internalType": "bytes",
              "name": "data",
              "type": "bytes"
            }
          ],
          "internalType": "struct IValidationLibraryHelperV2.ULNLog",
          "name": "log",
          "type": "tuple"
        }
      ],
      "stateMutability": "pure",
      "type": "function"
    },
    {
      "inputs": [],
      "name": "proofType",
      "outputs": [
        {
          "internalType": "uint8",
          "name": "",
          "type": "uint8"
        }
      ],
      "stateMutability": "view",
      "type": "function"
    },
    {
      "inputs": [
        {
          "internalType": "bytes",
          "name": "_payload",
          "type": "bytes"
        }
      ],
      "name": "secureStgPayload",
      "outputs": [
        {
          "internalType": "bytes",
          "name": "",
          "type": "bytes"
        }
      ],
      "stateMutability": "view",
      "type": "function"
    },
    {
      "inputs": [
        {
          "internalType": "bytes",
          "name": "_payload",
          "type": "bytes"
        }
      ],
      "name": "secureStgTokenPayload",
      "outputs": [
        {
          "internalType": "bytes",
          "name": "",
          "type": "bytes"
        }
      ],
      "stateMutability": "pure",
      "type": "function"
    },
    {
      "inputs": [],
      "name": "stargateBridgeAddress",
      "outputs": [
        {
          "internalType": "address",
          "name": "",
          "type": "address"
        }
      ],
      "stateMutability": "view",
      "type": "function"
    },
    {
      "inputs": [],
      "name": "stargateTokenAddress",
      "outputs": [
        {
          "internalType": "address",
          "name": "",
          "type": "address"
        }
      ],
      "stateMutability": "view",
      "type": "function"
    },
    {
      "inputs": [],
      "name": "utilsVersion",
      "outputs": [
        {
          "internalType": "uint8",
          "name": "",
          "type": "uint8"
        }
      ],
      "stateMutability": "view",
      "type": "function"
    },
    {
      "inputs": [
        {
          "internalType": "bytes32",
          "name": "_packetHash",
          "type": "bytes32"
        },
        {
          "internalType": "bytes",
          "name": "_transactionProof",
          "type": "bytes"
        },
        {
          "internalType": "uint256",
          "name": "_remoteAddressSize",
          "type": "uint256"
        }
      ],
      "name": "validateProof",
      "outputs": [
        {
          "components": [
            {
              "internalType": "uint16",
              "name": "srcChainId",
              "type": "uint16"
            },
            {
              "internalType": "uint16",
              "name": "dstChainId",
              "type": "uint16"
            },
            {
              "internalType": "uint64",
              "name": "nonce",
              "type": "uint64"
            },
            {
              "internalType": "address",
              "name": "dstAddress",
              "type": "address"
            },
            {
              "internalType": "bytes",
              "name": "srcAddress",
              "type": "bytes"
            },
            {
              "internalType": "bytes32",
              "name": "ulnAddress",
              "type": "bytes32"
            },
            {
              "internalType": "bytes",
              "name": "payload",
              "type": "bytes"
            }
          ],
          "internalType": "struct LayerZeroPacket.Packet",
          "name": "packet",
          "type": "tuple"
        }
      ],
      "stateMutability": "view",
      "type": "function"
    }
  ],
  "transactionHash": "0xbd7ec4d5b002b09d334a143c09e4a7405f24f9f494b6abd65b92e85dc329a1d3",
  "args": [
    "0x0000000000000000000000000000000000000000",
    "0x0000000000000000000000000000000000000000"
  ],
  "numDeployments": 1,
  "solcInputHash": "a2843b8df13e498a9443a167db46d2a3",
  "bytecode": "0x60c06040526000805461ff001960ff199091166002171661010017905534801561002857600080fd5b5060405161123238038061123283398101604081905261004791610081565b6001600160601b0319606092831b8116608052911b1660a0526100b3565b80516001600160a01b038116811461007c57600080fd5b919050565b60008060408385031215610093578182fd5b61009c83610065565b91506100aa60208401610065565b90509250929050565b60805160601c60a05160601c61114c6100e66000398061037e52806103e75250806101f0528061032d525061114c6000f3fe608060405234801561001057600080fd5b50600436106100b95760003560e01c80636348d26911610081578063d633ad611161005b578063d633ad6114610174578063e965c1921461017c578063ea455df914610184576100b9565b80636348d269146101445780639bcd850f14610159578063b71e0f7114610161576100b9565b806305af5d35146100be5780630f222e65146100dc5780632ff20449146100fc57806347713b391461011c5780635711c2a814610124575b600080fd5b6100c6610197565b6040516100d39190610fcc565b60405180910390f35b6100ef6100ea366004610b66565b6101a0565b6040516100d39190610f9d565b61010f61010a366004610cdb565b6101b2565b6040516100d39190610f0d565b6100c66101cd565b610137610132366004610c63565b6101db565b6040516100d39190610e5e565b61014c6101ee565b6040516100d39190610e4a565b6100c6610212565b61010f61016f366004610be6565b61021b565b6100c66103d7565b61014c6103e5565b610137610192366004610c63565b610409565b60005460ff1681565b6101a8610957565b9695505050505050565b6101ba610976565b6101c5848484610414565b949350505050565b600054610100900460ff1681565b60606101e6826105ad565b90505b919050565b7f000000000000000000000000000000000000000000000000000000000000000081565b60005460ff1690565b610223610976565b6000821161024c5760405162461bcd60e51b815260040161024390610ed6565b60405180910390fd5b6020831180156102725750848484604051610268929190610e3a565b6040518091039020145b61028e5760405162461bcd60e51b815260040161024390610e93565b600061029d60208286886110c2565b8080601f016020809104026020016040519081016040528093929190818152602001838380828437600092019190915250505060208083015192935061032991506102eb908790818a6110c2565b8080601f0160208091040260200160405190810160405280939291908181526020018383808284376000920191909152508892508591506104149050565b92507f00000000000000000000000000000000000000000000000000000000000000006001600160a01b031683606001516001600160a01b0316141561037c576103768360c001516105ad565b60c08401525b7f00000000000000000000000000000000000000000000000000000000000000006001600160a01b031683606001516001600160a01b031614156103cd576103c78360c00151610692565b60c08401525b5050949350505050565b600054610100900460ff1690565b7f000000000000000000000000000000000000000000000000000000000000000081565b60606101e682610692565b61041c610976565b8351600061042b85602061072f565b905080821015610482576040805162461bcd60e51b815260206004820152601f60248201527f4c617965725a65726f5061636b65743a20696e76616c6964207061636b657400604482015290519081900360640190fd5b6008860151600a870151868801600c8101516020909101518486039392919061ffff83166104f7576040805162461bcd60e51b815260206004820152601f60248201527f4c617965725a65726f5061636b65743a20696e76616c6964207061636b657400604482015290519081900360640190fd5b6104ff6109b4565b610509818c610792565b506105198160008e602a8f6107cc565b506105226109b4565b8615610550576105328188610792565b5061054e60008e6105448b602061072f565b849291908b6107cc565b505b6040805160e08101825261ffff968716815294909516602085015267ffffffffffffffff909516938301939093526001600160a01b031660608201529051608082015260a08101879052905160c082015293505050509392505050565b6020810151606090600160ff8216141561068b576000806000806000806000898060200190518101906105e09190610d27565b9750975097509750975097509750506000815111156106835781516000901561060a575060148201515b803b80610680576000826040516020016106249190610e1d565b60408051601f198184030181526020838101835260008085529251919450919261065c928f928f928f928f928f928f928b9201610fda565b60408051601f198184030181529190529c506101e99b505050505050505050505050565b50505b505050505050505b5090919050565b6060600080838060200190518101906106ab9190610c96565b91509150600080835111156106c1575060148201515b6001600160a01b0381166107265760405161dead906000906106e7908390602001610e1d565b6040516020818303038152906040529050808460405160200161070b929190610e71565b604051602081830303815290604052955050505050506101e9565b50929392505050565b600082820183811015610789576040805162461bcd60e51b815260206004820152601b60248201527f536166654d6174683a206164646974696f6e206f766572666c6f770000000000604482015290519081900360640190fd5b90505b92915050565b61079a6109b4565b60208206156107af5760208206602003820191505b506020828101829052604080518085526000815290920101905290565b6107d46109b4565b856020015182860111156107fe576107fe866107f6886020015188860161086a565b600202610881565b60008087518051886020830101935080898701111561081d5788860182525b5050508484015b602084106108435780518252601f199093019260209182019101610824565b51815160001960208690036101000a01908116901991909116179052508495945050505050565b60008183111561087b57508161078c565b50919050565b815161088d8383610792565b50610898838261089e565b50505050565b6108a66109b4565b610789838460000151518485516108bb6109b4565b82518211156108c957600080fd5b846020015182850111156108eb576108eb856107f6876020015187860161086a565b60008086518051876020830101935080888701111561090a5787860182525b505050602084015b602084106109315780518252601f199093019260209182019101610912565b51815160001960208690036101000a019081169019919091161790525083949350505050565b6040805160608082018352600080835260208301529181019190915290565b6040805160e08101825260008082526020820181905291810182905260608082018390526080820181905260a082019290925260c081019190915290565b604051806040016040528060608152602001600081525090565b60008083601f8401126109df578081fd5b50813567ffffffffffffffff8111156109f6578182fd5b6020830191508360208083028501011115610a1057600080fd5b9250929050565b600082601f830112610a27578081fd5b8135610a3a610a35826110a0565b61107c565b818152846020838601011115610a4e578283fd5b816020850160208301379081016020019190915292915050565b600082601f830112610a78578081fd5b8151610a86610a35826110a0565b818152846020838601011115610a9a578283fd5b6101c58260208301602087016110ea565b600060408284031215610abc578081fd5b6040516040810181811067ffffffffffffffff82111715610ad957fe5b604052825181526020928301519281019290925250919050565b600060c08284031215610b04578081fd5b60405160c0810181811067ffffffffffffffff82111715610b2157fe5b8060405250809150825181526020830151602082015260408301516040820152606083015160608201526080830151608082015260a083015160a08201525092915050565b60008060008060008060808789031215610b7e578182fd5b86359550602087013567ffffffffffffffff80821115610b9c578384fd5b610ba88a838b016109ce565b9097509550604089013594506060890135915080821115610bc7578384fd5b50610bd489828a016109ce565b979a9699509497509295939492505050565b60008060008060608587031215610bfb578384fd5b84359350602085013567ffffffffffffffff80821115610c19578485fd5b818701915087601f830112610c2c578485fd5b813581811115610c3a578586fd5b886020828501011115610c4b578586fd5b95986020929092019750949560400135945092505050565b600060208284031215610c74578081fd5b813567ffffffffffffffff811115610c8a578182fd5b6101c584828501610a17565b60008060408385031215610ca8578182fd5b825167ffffffffffffffff811115610cbe578283fd5b610cca85828601610a68565b925050602083015190509250929050565b600080600060608486031215610cef578283fd5b833567ffffffffffffffff811115610d05578384fd5b610d1186828701610a17565b9660208601359650604090950135949350505050565b6000806000806000806000806101c0898b031215610d43578182fd5b885160ff81168114610d53578283fd5b80985050602089015196506040890151955060608901519450610d798a60808b01610aab565b9350610d888a60c08b01610af3565b925061018089015167ffffffffffffffff80821115610da5578384fd5b610db18c838d01610a68565b93506101a08b0151915080821115610dc7578283fd5b50610dd48b828c01610a68565b9150509295985092959890939650565b6001600160a01b03169052565b60008151808452610e098160208601602086016110ea565b601f01601f19169290920160200192915050565b60609190911b6bffffffffffffffffffffffff1916815260140190565b6000828483379101908152919050565b6001600160a01b0391909116815260200190565b6000602082526107896020830184610df1565b600060408252610e846040830185610df1565b90508260208301529392505050565b60208082526023908201527f50726f6f664c69623a20696e76616c6964207472616e73616374696f6e20707260408201526237b7b360e91b606082015260800190565b6020808252601e908201527f50726f6f664c69623a20696e76616c696420616464726573732073697a650000604082015260600190565b60006020825261ffff8084511660208401528060208501511660408401525067ffffffffffffffff60408401511660608301526060830151610f526080840182610de4565b50608083015160e060a0840152610f6d610100840182610df1565b905060a084015160c084015260c0840151601f198483030160e0850152610f948282610df1565b95945050505050565b600060208252825160208301526020830151604083015260408301516060808401526101c56080840182610df1565b60ff91909116815260200190565b60006101c060ff8b16835289602084015288604084015287606084015286516080840152602087015160a0840152855160c0840152602086015160e084015260408601516101008401526060860151610120840152608086015161014084015260a08601516101608401528061018084015261105881840186610df1565b90508281036101a084015261106d8185610df1565b9b9a5050505050505050505050565b60405181810167ffffffffffffffff8111828210171561109857fe5b604052919050565b600067ffffffffffffffff8211156110b457fe5b50601f01601f191660200190565b600080858511156110d1578182fd5b838611156110dd578182fd5b5050820193919092039150565b60005b838110156111055781810151838201526020016110ed565b83811115610898575050600091015256fea2646970667358221220190cd5f56baf26d0a975306c50568d6e5e76e89e3c51b37b7d3bae2b7b4a280464736f6c63430007060033",
  "devdoc": {
    "kind": "dev",
    "methods": {},
    "version": 1
  },
  "userdoc": {
    "kind": "user",
    "methods": {},
    "version": 1
  },
  "storageLayout": {
    "storage": [
      {
        "astId": 27383,
        "contract": "contracts/proof/FPValidator.sol:FPValidator",
        "label": "proofType",
        "offset": 0,
        "slot": "0",
        "type": "t_uint8"
      },
      {
        "astId": 27386,
        "contract": "contracts/proof/FPValidator.sol:FPValidator",
        "label": "utilsVersion",
        "offset": 1,
        "slot": "0",
        "type": "t_uint8"
      }
    ],
    "types": {
      "t_uint8": {
        "encoding": "inplace",
        "label": "uint8",
        "numberOfBytes": "1"
      }
    }
  }
}