{
  "_format": "hh-sol-artifact-1",
  "contractName": "MPTValidator01",
  "sourceName": "contracts/proof/MPTValidator01.sol",
  "abi": [
    {
      "inputs": [
        {
          "internalType": "address",
          "name": "_stargateBridgeAddress",
          "type": "address"
        },
        {
          "internalType": "address",
          "name": "_stargateTokenAddress",
          "type": "address"
        }
      ],
      "stateMutability": "nonpayable",
      "type": "constructor"
    },
    {
      "inputs": [],
      "name": "PACKET_SIGNATURE",
      "outputs": [
        {
          "internalType": "bytes32",
          "name": "",
          "type": "bytes32"
        }
      ],
      "stateMutability": "view",
      "type": "function"
    },
    {
      "inputs": [
        {
          "internalType": "bytes",
          "name": "data",
          "type": "bytes"
        },
        {
          "internalType": "uint256",
          "name": "sizeOfSrcAddress",
          "type": "uint256"
        },
        {
          "internalType": "bytes32",
          "name": "ulnAddress",
          "type": "bytes32"
        }
      ],
      "name": "getPacket",
      "outputs": [
        {
          "components": [
            {
              "internalType": "uint16",
              "name": "srcChainId",
              "type": "uint16"
            },
            {
              "internalType": "uint16",
              "name": "dstChainId",
              "type": "uint16"
            },
            {
              "internalType": "uint64",
              "name": "nonce",
              "type": "uint64"
            },
            {
              "internalType": "address",
              "name": "dstAddress",
              "type": "address"
            },
            {
              "internalType": "bytes",
              "name": "srcAddress",
              "type": "bytes"
            },
            {
              "internalType": "bytes32",
              "name": "ulnAddress",
              "type": "bytes32"
            },
            {
              "internalType": "bytes",
              "name": "payload",
              "type": "bytes"
            }
          ],
          "internalType": "struct LayerZeroPacket.Packet",
          "name": "",
          "type": "tuple"
        }
      ],
      "stateMutability": "pure",
      "type": "function"
    },
    {
      "inputs": [],
      "name": "getProofType",
      "outputs": [
        {
          "internalType": "uint8",
          "name": "",
          "type": "uint8"
        }
      ],
      "stateMutability": "view",
      "type": "function"
    },
    {
      "inputs": [],
      "name": "getUtilsVersion",
      "outputs": [
        {
          "internalType": "uint8",
          "name": "",
          "type": "uint8"
        }
      ],
      "stateMutability": "view",
      "type": "function"
    },
    {
      "inputs": [
        {
          "internalType": "bytes32",
          "name": "hashRoot",
          "type": "bytes32"
        },
        {
          "internalType": "uint256[]",
          "name": "receiptSlotIndex",
          "type": "uint256[]"
        },
        {
          "internalType": "uint256",
          "name": "logIndex",
          "type": "uint256"
        },
        {
          "internalType": "bytes[]",
          "name": "proof",
          "type": "bytes[]"
        }
      ],
      "name": "getVerifyLog",
      "outputs": [
        {
          "components": [
            {
              "internalType": "bytes32",
              "name": "contractAddress",
              "type": "bytes32"
            },
            {
              "internalType": "bytes32",
              "name": "topicZeroSig",
              "type": "bytes32"
            },
            {
              "internalType": "bytes",
              "name": "data",
              "type": "bytes"
            }
          ],
          "internalType": "struct IValidationLibraryHelperV2.ULNLog",
          "name": "",
          "type": "tuple"
        }
      ],
      "stateMutability": "pure",
      "type": "function"
    },
    {
      "inputs": [],
      "name": "proofType",
      "outputs": [
        {
          "internalType": "uint8",
          "name": "",
          "type": "uint8"
        }
      ],
      "stateMutability": "view",
      "type": "function"
    },
    {
      "inputs": [
        {
          "internalType": "bytes",
          "name": "_payload",
          "type": "bytes"
        }
      ],
      "name": "secureStgPayload",
      "outputs": [
        {
          "internalType": "bytes",
          "name": "",
          "type": "bytes"
        }
      ],
      "stateMutability": "view",
      "type": "function"
    },
    {
      "inputs": [
        {
          "internalType": "bytes",
          "name": "_payload",
          "type": "bytes"
        }
      ],
      "name": "secureStgTokenPayload",
      "outputs": [
        {
          "internalType": "bytes",
          "name": "",
          "type": "bytes"
        }
      ],
      "stateMutability": "pure",
      "type": "function"
    },
    {
      "inputs": [],
      "name": "stargateBridgeAddress",
      "outputs": [
        {
          "internalType": "address",
          "name": "",
          "type": "address"
        }
      ],
      "stateMutability": "view",
      "type": "function"
    },
    {
      "inputs": [],
      "name": "stargateTokenAddress",
      "outputs": [
        {
          "internalType": "address",
          "name": "",
          "type": "address"
        }
      ],
      "stateMutability": "view",
      "type": "function"
    },
    {
      "inputs": [],
      "name": "utilsVersion",
      "outputs": [
        {
          "internalType": "uint8",
          "name": "",
          "type": "uint8"
        }
      ],
      "stateMutability": "view",
      "type": "function"
    },
    {
      "inputs": [
        {
          "internalType": "bytes32",
          "name": "_receiptsRoot",
          "type": "bytes32"
        },
        {
          "internalType": "bytes",
          "name": "_transactionProof",
          "type": "bytes"
        },
        {
          "internalType": "uint256",
          "name": "_remoteAddressSize",
          "type": "uint256"
        }
      ],
      "name": "validateProof",
      "outputs": [
        {
          "components": [
            {
              "internalType": "uint16",
              "name": "srcChainId",
              "type": "uint16"
            },
            {
              "internalType": "uint16",
              "name": "dstChainId",
              "type": "uint16"
            },
            {
              "internalType": "uint64",
              "name": "nonce",
              "type": "uint64"
            },
            {
              "internalType": "address",
              "name": "dstAddress",
              "type": "address"
            },
            {
              "internalType": "bytes",
              "name": "srcAddress",
              "type": "bytes"
            },
            {
              "internalType": "bytes32",
              "name": "ulnAddress",
              "type": "bytes32"
            },
            {
              "internalType": "bytes",
              "name": "payload",
              "type": "bytes"
            }
          ],
          "internalType": "struct LayerZeroPacket.Packet",
          "name": "packet",
          "type": "tuple"
        }
      ],
      "stateMutability": "view",
      "type": "function"
    }
  ],
  "bytecode": "0x60c060405260008054600160ff199091161761ff0019166104001790553480156200002957600080fd5b5060405162001e5238038062001e528339810160408190526200004c9162000088565b6001600160601b0319606092831b8116608052911b1660a052620000bf565b80516001600160a01b03811681146200008357600080fd5b919050565b600080604083850312156200009b578182fd5b620000a6836200006b565b9150620000b6602084016200006b565b90509250929050565b60805160601c60a05160601c611d5f620000f360003980610373528061041c52508061022b52806103085250611d5f6000f3fe608060405234801561001057600080fd5b50600436106100d45760003560e01c80639bcd850f11610081578063d633ad611161005b578063d633ad61146101a4578063e965c192146101ac578063ea455df9146101b4576100d4565b80639bcd850f14610174578063b71e0f711461017c578063be9d395e1461018f576100d4565b806347713b39116100b257806347713b39146101375780635711c2a81461013f5780636348d2691461015f576100d4565b806305af5d35146100d95780630f222e65146100f75780632ff2044914610117575b600080fd5b6100e16101c7565b6040516100ee9190611b7f565b60405180910390f35b61010a61010536600461166f565b6101d0565b6040516100ee9190611b50565b61012a6101253660046117d8565b6101ed565b6040516100ee9190611ac9565b6100e1610208565b61015261014d366004611760565b610216565b6040516100ee9190611981565b610167610229565b6040516100ee9190611957565b6100e161024d565b61012a61018a3660046116e3565b610256565b6101976103e8565b6040516100ee9190611978565b6100e161040c565b61016761041a565b6101526101c2366004611760565b61043e565b60005460ff1681565b6101d8611349565b6101e485858585610449565b95945050505050565b6101f5611368565b6102008484846105aa565b949350505050565b600054610100900460ff1681565b6060610221826106ff565b90505b919050565b7f000000000000000000000000000000000000000000000000000000000000000081565b60005460ff1690565b61025e611368565b600082116102875760405162461bcd60e51b815260040161027e90611a92565b60405180910390fd5b6000808061029786880188611605565b92509250925060006102ab89848487610449565b60208101519091507fe9bded5f24a4168e4f3bf44e00298c993b22376aad8c58c7dda9718a54cbea82146102f15760405162461bcd60e51b815260040161027e90611a24565b61030481604001518783600001516105aa565b94507f000000000000000000000000000000000000000000000000000000000000000073ffffffffffffffffffffffffffffffffffffffff16856060015173ffffffffffffffffffffffffffffffffffffffff1614156103715761036b8560c001516106ff565b60c08601525b7f000000000000000000000000000000000000000000000000000000000000000073ffffffffffffffffffffffffffffffffffffffff16856060015173ffffffffffffffffffffffffffffffffffffffff1614156103dc576103d68560c001516107e4565b60c08601525b50505050949350505050565b7fe9bded5f24a4168e4f3bf44e00298c993b22376aad8c58c7dda9718a54cbea8281565b600054610100900460ff1690565b7f000000000000000000000000000000000000000000000000000000000000000081565b6060610221826107e4565b610451611349565b81518451146104725760405162461bcd60e51b815260040161027e906119b6565b60008251116104935760405162461bcd60e51b815260040161027e90611a5b565b61049b6113a6565b606060005b845181101561052d578481815181106104b557fe5b60200260200101519150818051906020012088146104e55760405162461bcd60e51b815260040161027e906119ed565b61050b8782815181106104f457fe5b60200260200101516105058461088e565b90610902565b925060018551038110156105255761052283610a70565b97505b6001016104a0565b50600061053e600361050585610b59565b9050600061055461054f8389610902565b610be5565b905061055e611349565b61056f61056a83610c77565b610a70565b815261058261056a600061050585610c77565b602082015261059861059383610c77565b610d0d565b60408201529998505050505050505050565b6105b2611368565b60408401516048850151604a860151858701604c81015160609091015161ffff8316610625576040805162461bcd60e51b815260206004820152601f60248201527f4c617965725a65726f5061636b65743a20696e76616c6964207061636b657400604482015290519081900360640190fd5b61062d6113c0565b610637818a610e06565b506106478160008c606a8d610e40565b5060006106558a6020610efc565b905060006106638883610f5d565b905061066d6113c0565b6106778183610e06565b5061069360008e610689866060610efc565b8492919086610e40565b506040805160e08101825261ffff988916815296909716602087015267ffffffffffffffff909716958501959095525073ffffffffffffffffffffffffffffffffffffffff909116606083015251608082015260a08101869052915160c0830152509150509392505050565b6020810151606090600160ff821614156107dd576000806000806000806000898060200190518101906107329190611824565b9750975097509750975097509750506000815111156107d55781516000901561075c575060148201515b803b806107d2576000826040516020016107769190611927565b60408051601f19818403018152602083810183526000808552925191945091926107ae928f928f928f928f928f928f928b9201611b8d565b60408051601f198184030181529190529c506102249b505050505050505050505050565b50505b505050505050505b5090919050565b6060600080838060200190518101906107fd9190611793565b9150915060008083511115610813575060148201515b73ffffffffffffffffffffffffffffffffffffffff81166108855760405161dead90600090610846908390602001611927565b6040516020818303038152906040529050808460405160200161086a929190611994565b60405160208183030381529060405295505050505050610224565b50929392505050565b6108966113a6565b602082018051835160009190911a9080158015906108b7575060c060ff8316105b156108e657600192909201917fffffffffffffffffffffffffffffffffffffffffffffffffffffffffffffffff015b6040805180820190915290815260208101929092525092915050565b61090a6113a6565b61091383610fba565b61094e5760405162461bcd60e51b8152600401808060200182810382526021815260200180611ce86021913960400191505060405180910390fd5b61095783610ff4565b82106109aa576040805162461bcd60e51b815260206004820152601660248201527f524c50206974656d206f7574206f6620626f756e647300000000000000000000604482015290519081900360640190fd5b82516020840151908101906000906109c19061104c565b60208601510190506000805b858110156109ec576109de836110eb565b9283019291506001016109cd565b506109f6826110eb565b9050828183011115610a4f576040805162461bcd60e51b815260206004820152601160248201527f524c50206974656d206f766572666c6f77000000000000000000000000000000604482015290519081900360640190fd5b60405180604001604052808281526020018381525093505050505b92915050565b805160009015801590610a8557508151602110155b610ad6576040805162461bcd60e51b815260206004820181905260248201527f524c504465636f64657220746f55696e7420696e76616c6964206c656e677468604482015290519081900360640190fd5b6000610ae5836020015161104c565b90508083600001511015610b2a5760405162461bcd60e51b8152600401808060200182810382526028815260200180611cc06028913960400191505060405180910390fd5b825160208085015183018051928490039291831015610b5057826020036101000a820491505b50949350505050565b610b616113a6565b6000610b70836020015161104c565b60208401518451908201805192935060009290921a91908015801590610b99575060c060ff8416105b15610bc857600191909101907fffffffffffffffffffffffffffffffffffffffffffffffffffffffffffffffff015b604080518082019091529081526020810191909152949350505050565b610bed6113da565b610bf682610fba565b610c47576040805162461bcd60e51b815260206004820152601f60248201527f524c504465636f646572206974657261746f72206973206e6f74206c69737400604482015290519081900360640190fd5b6000610c56836020015161104c565b60208085015160408051808201909152868152920190820152915050919050565b610c7f6113a6565b610c88826111c0565b610cd9576040805162461bcd60e51b815260206004820152601f60248201527f524c504465636f646572206974657261746f7220686173206e6f206e65787400604482015290519081900360640190fd5b60208201516000610ce9826110eb565b80830160209586015260408051808201909152908152938401919091525090919050565b8051606090610d4d5760405162461bcd60e51b8152600401808060200182810382526021815260200180611d096021913960400191505060405180910390fd5b6000610d5c836020015161104c565b90508083600001511015610da15760405162461bcd60e51b8152600401808060200182810382526028815260200180611cc06028913960400191505060405180910390fd5b825181900360008167ffffffffffffffff81118015610dbf57600080fd5b506040519080825280601f01601f191660200182016040528015610dea576020820181803683370190505b5090506000816020019050610b508487602001510182856111d5565b610e0e6113c0565b6020820615610e235760208206602003820191505b506020828101829052604080518085526000815290920101905290565b610e486113c0565b85602001518286011115610e7257610e7286610e6a886020015188860161123e565b600202611255565b600080875180518860208301019350808987011115610e915788860182525b5050508484015b60208410610eb75780518252601f199093019260209182019101610e98565b5181517fffffffffffffffffffffffffffffffffffffffffffffffffffffffffffffffff60208690036101000a01908116901991909116179052508495945050505050565b600082820183811015610f56576040805162461bcd60e51b815260206004820152601b60248201527f536166654d6174683a206164646974696f6e206f766572666c6f770000000000604482015290519081900360640190fd5b9392505050565b600082821115610fb4576040805162461bcd60e51b815260206004820152601e60248201527f536166654d6174683a207375627472616374696f6e206f766572666c6f770000604482015290519081900360640190fd5b50900390565b8051600090610fcb57506000610224565b6020820151805160001a9060c0821015610fea57600092505050610224565b5060019392505050565b805160009061100557506000610224565b600080611015846020015161104c565b602085015185519181019250015b8082101561104357611034826110eb565b60019093019290910190611023565b50909392505050565b8051600090811a6080811015611066576000915050610224565b60b8811080611081575060c08110801590611081575060f881105b15611090576001915050610224565b60c08110156110c2577fffffffffffffffffffffffffffffffffffffffffffffffffffffffffffffff4a019050610224565b7fffffffffffffffffffffffffffffffffffffffffffffffffffffffffffffff0a019050610224565b80516000908190811a608081101561110657600191506111b9565b60b8811015611139577fffffffffffffffffffffffffffffffffffffffffffffffffffffffffffffff81810191506111b9565b60c08110156111665760b78103600185019450806020036101000a855104600182018101935050506111b9565b60f8811015611199577fffffffffffffffffffffffffffffffffffffffffffffffffffffffffffffff41810191506111b9565b60f78103600185019450806020036101000a855104600182018101935050505b5092915050565b80518051602091820151919092015191011190565b806111df57611239565b5b602081106111ff578251825260209283019290910190601f19016111e0565b8251825160208390036101000a7fffffffffffffffffffffffffffffffffffffffffffffffffffffffffffffffff01801990921691161782525b505050565b60008183111561124f575081610a6a565b50919050565b81516112618383610e06565b5061126c8382611272565b50505050565b61127a6113c0565b610f568384600001515184855161128f6113c0565b825182111561129d57600080fd5b846020015182850111156112bf576112bf85610e6a876020015187860161123e565b6000808651805187602083010193508088870111156112de5787860182525b505050602084015b602084106113055780518252601f1990930192602091820191016112e6565b5181517fffffffffffffffffffffffffffffffffffffffffffffffffffffffffffffffff60208690036101000a019081169019919091161790525083949350505050565b6040805160608082018352600080835260208301529181019190915290565b6040805160e08101825260008082526020820181905291810182905260608082018390526080820181905260a082019290925260c081019190915290565b604051806040016040528060008152602001600081525090565b604051806040016040528060608152602001600081525090565b60405180604001604052806113ed6113a6565b8152602001600081525090565b600082601f83011261140a578081fd5b8135602061141f61141a83611c53565b611c2f565b82815281810190858301855b8581101561145457611442898684358b01016114bb565b8452928401929084019060010161142b565b5090979650505050505050565b600082601f830112611471578081fd5b8135602061148161141a83611c53565b828152818101908583018385028701840188101561149d578586fd5b855b858110156114545781358452928401929084019060010161149f565b600082601f8301126114cb578081fd5b81356114d961141a82611c71565b8181528460208386010111156114ed578283fd5b816020850160208301379081016020019190915292915050565b600082601f830112611517578081fd5b815161152561141a82611c71565b818152846020838601011115611539578283fd5b610200826020830160208701611c93565b60006040828403121561155b578081fd5b6040516040810181811067ffffffffffffffff8211171561157857fe5b604052825181526020928301519281019290925250919050565b600060c082840312156115a3578081fd5b60405160c0810181811067ffffffffffffffff821117156115c057fe5b8060405250809150825181526020830151602082015260408301516040820152606083015160608201526080830151608082015260a083015160a08201525092915050565b600080600060608486031215611619578283fd5b833567ffffffffffffffff80821115611630578485fd5b61163c878388016113fa565b94506020860135915080821115611651578384fd5b5061165e86828701611461565b925050604084013590509250925092565b60008060008060808587031215611684578081fd5b84359350602085013567ffffffffffffffff808211156116a2578283fd5b6116ae88838901611461565b94506040870135935060608701359150808211156116ca578283fd5b506116d7878288016113fa565b91505092959194509250565b600080600080606085870312156116f8578384fd5b84359350602085013567ffffffffffffffff80821115611716578485fd5b818701915087601f830112611729578485fd5b813581811115611737578586fd5b886020828501011115611748578586fd5b95986020929092019750949560400135945092505050565b600060208284031215611771578081fd5b813567ffffffffffffffff811115611787578182fd5b610200848285016114bb565b600080604083850312156117a5578182fd5b825167ffffffffffffffff8111156117bb578283fd5b6117c785828601611507565b925050602083015190509250929050565b6000806000606084860312156117ec578283fd5b833567ffffffffffffffff811115611802578384fd5b61180e868287016114bb565b9660208601359650604090950135949350505050565b6000806000806000806000806101c0898b031215611840578586fd5b885160ff81168114611850578687fd5b809850506020890151965060408901519550606089015194506118768a60808b0161154a565b93506118858a60c08b01611592565b925061018089015167ffffffffffffffff808211156118a2578384fd5b6118ae8c838d01611507565b93506101a08b01519150808211156118c4578283fd5b506118d18b828c01611507565b9150509295985092959890939650565b73ffffffffffffffffffffffffffffffffffffffff169052565b60008151808452611913816020860160208601611c93565b601f01601f19169290920160200192915050565b60609190911b7fffffffffffffffffffffffffffffffffffffffff00000000000000000000000016815260140190565b73ffffffffffffffffffffffffffffffffffffffff91909116815260200190565b90815260200190565b600060208252610f5660208301846118fb565b6000604082526119a760408301856118fb565b90508260208301529392505050565b6020808252601c908201527f50726f6f664c69623a20696e76616c69642070726f6f662073697a6500000000604082015260600190565b6020808252601a908201527f50726f6f664c69623a20696e76616c696420686173686c696e6b000000000000604082015260600190565b6020808252601f908201527f50726f6f664c69623a207061636b6574206e6f74207265636f676e697a656400604082015260600190565b6020808252601d908201527f50726f6f664c69623a2070726f6f662073697a65206d757374203e2030000000604082015260600190565b6020808252601e908201527f50726f6f664c69623a20696e76616c696420616464726573732073697a650000604082015260600190565b60006020825261ffff8084511660208401528060208501511660408401525067ffffffffffffffff60408401511660608301526060830151611b0e60808401826118e1565b50608083015160e060a0840152611b296101008401826118fb565b905060a084015160c084015260c0840151601f198483030160e08501526101e482826118fb565b6000602082528251602083015260208301516040830152604083015160608084015261020060808401826118fb565b60ff91909116815260200190565b60006101c060ff8b16835289602084015288604084015287606084015286516080840152602087015160a0840152855160c0840152602086015160e084015260408601516101008401526060860151610120840152608086015161014084015260a086015161016084015280610180840152611c0b818401866118fb565b90508281036101a0840152611c2081856118fb565b9b9a5050505050505050505050565b60405181810167ffffffffffffffff81118282101715611c4b57fe5b604052919050565b600067ffffffffffffffff821115611c6757fe5b5060209081020190565b600067ffffffffffffffff821115611c8557fe5b50601f01601f191660200190565b60005b83811015611cae578181015183820152602001611c96565b8381111561126c575050600091015256fe524c504465636f6465723a20696e76616c696420524c50206974656d206f66667365742073697a65524c504465636f646572206974657261746f72206973206e6f742061206c697374524c504465636f64657220746f427974657320696e76616c6964206c656e677468a2646970667358221220106f7d50599a8a4577b48aeaf7160923ff702f6336e36ff3611dc5f5806ccf2664736f6c63430007060033",
  "linkReferences": {},
  "deployedLinkReferences": {}
}