{
  "_format": "hh-sol-artifact-1",
  "contractName": "RelayerV2Radar",
  "sourceName": "contracts/RelayerV2Radar.sol",
  "abi": [
    {
      "anonymous": false,
      "inputs": [
        {
          "indexed": false,
          "internalType": "address",
          "name": "addr",
          "type": "address"
        },
        {
          "indexed": false,
          "internalType": "bool",
          "name": "approved",
          "type": "bool"
        }
      ],
      "name": "ApproveAddress",
      "type": "event"
    },
    {
      "anonymous": false,
      "inputs": [
        {
          "indexed": false,
          "internalType": "uint256",
          "name": "totalFee",
          "type": "uint256"
        }
      ],
      "name": "AssignJob",
      "type": "event"
    },
    {
      "anonymous": false,
      "inputs": [
        {
          "indexed": true,
          "internalType": "address",
          "name": "previousOwner",
          "type": "address"
        },
        {
          "indexed": true,
          "internalType": "address",
          "name": "newOwner",
          "type": "address"
        }
      ],
      "name": "OwnershipTransferred",
      "type": "event"
    },
    {
      "anonymous": false,
      "inputs": [
        {
          "indexed": false,
          "internalType": "uint16",
          "name": "chainId",
          "type": "uint16"
        },
        {
          "indexed": false,
          "internalType": "uint16",
          "name": "outboundProofType",
          "type": "uint16"
        },
        {
          "indexed": false,
          "internalType": "uint128",
          "name": "dstNativeAmtCap",
          "type": "uint128"
        },
        {
          "indexed": false,
          "internalType": "uint64",
          "name": "baseGas",
          "type": "uint64"
        },
        {
          "indexed": false,
          "internalType": "uint64",
          "name": "gasPerByte",
          "type": "uint64"
        }
      ],
      "name": "SetDstConfig",
      "type": "event"
    },
    {
      "anonymous": false,
      "inputs": [
        {
          "indexed": false,
          "internalType": "uint16",
          "name": "chainId",
          "type": "uint16"
        },
        {
          "indexed": false,
          "internalType": "uint128",
          "name": "dstPriceRatio",
          "type": "uint128"
        },
        {
          "indexed": false,
          "internalType": "uint128",
          "name": "dstGasPriceInWei",
          "type": "uint128"
        }
      ],
      "name": "SetDstPrice",
      "type": "event"
    },
    {
      "anonymous": false,
      "inputs": [
        {
          "indexed": true,
          "internalType": "address",
          "name": "to",
          "type": "address"
        },
        {
          "indexed": true,
          "internalType": "uint256",
          "name": "quantity",
          "type": "uint256"
        }
      ],
      "name": "ValueTransferFailed",
      "type": "event"
    },
    {
      "anonymous": false,
      "inputs": [
        {
          "indexed": false,
          "internalType": "address",
          "name": "to",
          "type": "address"
        },
        {
          "indexed": false,
          "internalType": "uint256",
          "name": "amount",
          "type": "uint256"
        }
      ],
      "name": "Withdraw",
      "type": "event"
    },
    {
      "inputs": [
        {
          "internalType": "address",
          "name": "",
          "type": "address"
        }
      ],
      "name": "approvedAddresses",
      "outputs": [
        {
          "internalType": "bool",
          "name": "",
          "type": "bool"
        }
      ],
      "stateMutability": "view",
      "type": "function"
    },
    {
      "inputs": [
        {
          "internalType": "uint16",
          "name": "_dstChainId",
          "type": "uint16"
        },
        {
          "internalType": "uint16",
          "name": "_outboundProofType",
          "type": "uint16"
        },
        {
          "internalType": "address",
          "name": "_userApplication",
          "type": "address"
        },
        {
          "internalType": "uint256",
          "name": "_payloadSize",
          "type": "uint256"
        },
        {
          "internalType": "bytes",
          "name": "_adapterParams",
          "type": "bytes"
        }
      ],
      "name": "assignJob",
      "outputs": [
        {
          "internalType": "uint256",
          "name": "",
          "type": "uint256"
        }
      ],
      "stateMutability": "nonpayable",
      "type": "function"
    },
    {
      "inputs": [
        {
          "internalType": "uint16",
          "name": "_legacyChainId",
          "type": "uint16"
        },
        {
          "internalType": "uint16",
          "name": "_outboundProofType",
          "type": "uint16"
        }
      ],
      "name": "dstConfigLookup",
      "outputs": [
        {
          "components": [
            {
              "internalType": "uint128",
              "name": "dstNativeAmtCap",
              "type": "uint128"
            },
            {
              "internalType": "uint64",
              "name": "baseGas",
              "type": "uint64"
            },
            {
              "internalType": "uint64",
              "name": "gasPerByte",
              "type": "uint64"
            }
          ],
          "internalType": "struct ILayerZeroRelayerV2PriceData.DstConfig",
          "name": "",
          "type": "tuple"
        }
      ],
      "stateMutability": "view",
      "type": "function"
    },
    {
      "inputs": [
        {
          "internalType": "uint16",
          "name": "_legacyChainId",
          "type": "uint16"
        }
      ],
      "name": "dstPriceLookup",
      "outputs": [
        {
          "components": [
            {
              "internalType": "uint128",
              "name": "dstPriceRatio",
              "type": "uint128"
            },
            {
              "internalType": "uint128",
              "name": "dstGasPriceInWei",
              "type": "uint128"
            }
          ],
          "internalType": "struct ILayerZeroRelayerV2PriceData.DstPrice",
          "name": "",
          "type": "tuple"
        }
      ],
      "stateMutability": "view",
      "type": "function"
    },
    {
      "inputs": [],
      "name": "fpBytes",
      "outputs": [
        {
          "internalType": "uint16",
          "name": "",
          "type": "uint16"
        }
      ],
      "stateMutability": "view",
      "type": "function"
    },
    {
      "inputs": [
        {
          "internalType": "uint16",
          "name": "_dstChainId",
          "type": "uint16"
        },
        {
          "internalType": "uint16",
          "name": "_outboundProofType",
          "type": "uint16"
        },
        {
          "internalType": "address",
          "name": "_userApplication",
          "type": "address"
        },
        {
          "internalType": "uint256",
          "name": "_payloadSize",
          "type": "uint256"
        },
        {
          "internalType": "bytes",
          "name": "_adapterParams",
          "type": "bytes"
        }
      ],
      "name": "getFee",
      "outputs": [
        {
          "internalType": "uint256",
          "name": "",
          "type": "uint256"
        }
      ],
      "stateMutability": "view",
      "type": "function"
    },
    {
      "inputs": [
        {
          "internalType": "uint16",
          "name": "_legacyChainId",
          "type": "uint16"
        }
      ],
      "name": "getV2ChainId",
      "outputs": [
        {
          "internalType": "uint16",
          "name": "",
          "type": "uint16"
        }
      ],
      "stateMutability": "view",
      "type": "function"
    },
    {
      "inputs": [
        {
          "internalType": "address",
          "name": "_ulnRadar",
          "type": "address"
        },
        {
          "internalType": "address",
          "name": "_relayerV2",
          "type": "address"
        },
        {
          "internalType": "address",
          "name": "_priceFeed",
          "type": "address"
        }
      ],
      "name": "initialize",
      "outputs": [],
      "stateMutability": "nonpayable",
      "type": "function"
    },
    {
      "inputs": [
        {
          "internalType": "address",
          "name": "_relayerAddress",
          "type": "address"
        }
      ],
      "name": "isApproved",
      "outputs": [
        {
          "internalType": "bool",
          "name": "",
          "type": "bool"
        }
      ],
      "stateMutability": "view",
      "type": "function"
    },
    {
      "inputs": [
        {
          "internalType": "uint16",
          "name": "",
          "type": "uint16"
        }
      ],
      "name": "legacyToV2ChainId",
      "outputs": [
        {
          "internalType": "uint16",
          "name": "",
          "type": "uint16"
        }
      ],
      "stateMutability": "view",
      "type": "function"
    },
    {
      "inputs": [],
      "name": "mptOverhead",
      "outputs": [
        {
          "internalType": "uint16",
          "name": "",
          "type": "uint16"
        }
      ],
      "stateMutability": "view",
      "type": "function"
    },
    {
      "inputs": [],
      "name": "multiplierBps",
      "outputs": [
        {
          "internalType": "uint128",
          "name": "",
          "type": "uint128"
        }
      ],
      "stateMutability": "view",
      "type": "function"
    },
    {
      "inputs": [
        {
          "internalType": "address",
          "name": "_priceFeed",
          "type": "address"
        }
      ],
      "name": "onUpgrade",
      "outputs": [],
      "stateMutability": "nonpayable",
      "type": "function"
    },
    {
      "inputs": [],
      "name": "owner",
      "outputs": [
        {
          "internalType": "address",
          "name": "",
          "type": "address"
        }
      ],
      "stateMutability": "view",
      "type": "function"
    },
    {
      "inputs": [],
      "name": "paused",
      "outputs": [
        {
          "internalType": "bool",
          "name": "",
          "type": "bool"
        }
      ],
      "stateMutability": "view",
      "type": "function"
    },
    {
      "inputs": [],
      "name": "priceFeed",
      "outputs": [
        {
          "internalType": "contract ILayerZeroPriceFeed",
          "name": "",
          "type": "address"
        }
      ],
      "stateMutability": "view",
      "type": "function"
    },
    {
      "inputs": [],
      "name": "relayerV2",
      "outputs": [
        {
          "internalType": "contract ILayerZeroRelayerV2PriceData",
          "name": "",
          "type": "address"
        }
      ],
      "stateMutability": "view",
      "type": "function"
    },
    {
      "inputs": [],
      "name": "renounceOwnership",
      "outputs": [],
      "stateMutability": "nonpayable",
      "type": "function"
    },
    {
      "inputs": [
        {
          "internalType": "address",
          "name": "_relayerAddress",
          "type": "address"
        },
        {
          "internalType": "bool",
          "name": "_approve",
          "type": "bool"
        }
      ],
      "name": "setApprovedAddress",
      "outputs": [],
      "stateMutability": "nonpayable",
      "type": "function"
    },
    {
      "inputs": [
        {
          "internalType": "uint16",
          "name": "_chainId",
          "type": "uint16"
        },
        {
          "internalType": "uint16",
          "name": "_outboundProofType",
          "type": "uint16"
        },
        {
          "internalType": "uint128",
          "name": "_dstNativeAmtCap",
          "type": "uint128"
        },
        {
          "internalType": "uint64",
          "name": "_baseGas",
          "type": "uint64"
        },
        {
          "internalType": "uint64",
          "name": "_gasPerByte",
          "type": "uint64"
        }
      ],
      "name": "setDstConfig",
      "outputs": [],
      "stateMutability": "nonpayable",
      "type": "function"
    },
    {
      "inputs": [
        {
          "internalType": "uint16",
          "name": "_chainId",
          "type": "uint16"
        },
        {
          "internalType": "uint128",
          "name": "_dstPriceRatio",
          "type": "uint128"
        },
        {
          "internalType": "uint128",
          "name": "_dstGasPriceInWei",
          "type": "uint128"
        }
      ],
      "name": "setDstPrice",
      "outputs": [],
      "stateMutability": "nonpayable",
      "type": "function"
    },
    {
      "inputs": [
        {
          "internalType": "bool",
          "name": "_paused",
          "type": "bool"
        }
      ],
      "name": "setPause",
      "outputs": [],
      "stateMutability": "nonpayable",
      "type": "function"
    },
    {
      "inputs": [
        {
          "internalType": "address",
          "name": "_priceFeed",
          "type": "address"
        }
      ],
      "name": "setPriceFeed",
      "outputs": [],
      "stateMutability": "nonpayable",
      "type": "function"
    },
    {
      "inputs": [
        {
          "internalType": "uint128",
          "name": "_multiplierBps",
          "type": "uint128"
        }
      ],
      "name": "setPriceMultiplierBps",
      "outputs": [],
      "stateMutability": "nonpayable",
      "type": "function"
    },
    {
      "inputs": [
        {
          "internalType": "address",
          "name": "_stargateAddress",
          "type": "address"
        }
      ],
      "name": "setStargateAddress",
      "outputs": [],
      "stateMutability": "nonpayable",
      "type": "function"
    },
    {
      "inputs": [],
      "name": "stargateBridgeAddress",
      "outputs": [
        {
          "internalType": "address",
          "name": "",
          "type": "address"
        }
      ],
      "stateMutability": "view",
      "type": "function"
    },
    {
      "inputs": [
        {
          "internalType": "address",
          "name": "newOwner",
          "type": "address"
        }
      ],
      "name": "transferOwnership",
      "outputs": [],
      "stateMutability": "nonpayable",
      "type": "function"
    },
    {
      "inputs": [],
      "name": "uln",
      "outputs": [
        {
          "internalType": "contract ILayerZeroUltraLightNodeV2",
          "name": "",
          "type": "address"
        }
      ],
      "stateMutability": "view",
      "type": "function"
    },
    {
      "inputs": [],
      "name": "validateProofBytes",
      "outputs": [
        {
          "internalType": "uint16",
          "name": "",
          "type": "uint16"
        }
      ],
      "stateMutability": "view",
      "type": "function"
    },
    {
      "inputs": [
        {
          "internalType": "uint16",
          "name": "_srcChainId",
          "type": "uint16"
        },
        {
          "internalType": "address",
          "name": "_dstAddress",
          "type": "address"
        },
        {
          "internalType": "uint256",
          "name": "_gasLimit",
          "type": "uint256"
        },
        {
          "internalType": "bytes32",
          "name": "_blockHash",
          "type": "bytes32"
        },
        {
          "internalType": "bytes32",
          "name": "_data",
          "type": "bytes32"
        },
        {
          "internalType": "bytes",
          "name": "_transactionProof",
          "type": "bytes"
        }
      ],
      "name": "validateTransactionProofV1",
      "outputs": [],
      "stateMutability": "nonpayable",
      "type": "function"
    },
    {
      "inputs": [
        {
          "internalType": "uint16",
          "name": "_srcChainId",
          "type": "uint16"
        },
        {
          "internalType": "address",
          "name": "_dstAddress",
          "type": "address"
        },
        {
          "internalType": "uint256",
          "name": "_gasLimit",
          "type": "uint256"
        },
        {
          "internalType": "bytes32",
          "name": "_blockHash",
          "type": "bytes32"
        },
        {
          "internalType": "bytes32",
          "name": "_data",
          "type": "bytes32"
        },
        {
          "internalType": "bytes",
          "name": "_transactionProof",
          "type": "bytes"
        },
        {
          "internalType": "address payable",
          "name": "_to",
          "type": "address"
        }
      ],
      "name": "validateTransactionProofV2",
      "outputs": [],
      "stateMutability": "payable",
      "type": "function"
    },
    {
      "inputs": [
        {
          "internalType": "address payable",
          "name": "_to",
          "type": "address"
        },
        {
          "internalType": "uint256",
          "name": "_amount",
          "type": "uint256"
        }
      ],
      "name": "withdrawFee",
      "outputs": [],
      "stateMutability": "nonpayable",
      "type": "function"
    }
  ],
  "bytecode": "0x608060405234801561001057600080fd5b5060016000556128c7806100256000396000f3fe6080604052600436106101e35760003560e01c8063741bef1a11610102578063bedb86fb11610095578063f136a87411610064578063f136a87414610548578063f2fde38b14610568578063fa34c84e14610588578063fd9be522146105a8576101e3565b8063bedb86fb146104c8578063c03f1529146104e8578063c0c53b8b14610508578063c3b04e7f14610528576101e3565b806398dabd50116100d157806398dabd501461045c578063ac353e0414610471578063b0f2c52c14610493578063b8f8bad4146104a8576101e3565b8063741bef1a146103f0578063765a8a541461040557806381ba209a146104325780638da5cb5b14610447576101e3565b80635c975abb1161017a5780636c473aff116101495780636c473aff1461038657806370d355801461039b578063715018a6146103bb578063724e78da146103d0576101e3565b80635c975abb1461030d5780636348d2691461032f578063673448dd1461035157806369cf4e3a14610371576101e3565b8063252f7b01116101b6578063252f7b01146102805780633f103487146102a0578063575765e2146102c05780635886ea65146102e0576101e3565b806303343f54146101e85780630508941e1461020a578063205569391461021d57806323161ff814610253575b600080fd5b3480156101f457600080fd5b50610208610203366004611f0e565b6105c8565b005b610208610218366004612168565b610647565b34801561022957600080fd5b5061023d6102383660046120cc565b610815565b60405161024a919061270d565b60405180910390f35b34801561025f57600080fd5b5061027361026e36600461223a565b610866565b60405161024a9190612681565b34801561028c57600080fd5b5061020861029b3660046120e6565b6108ff565b3480156102ac57600080fd5b506102086102bb3660046122e2565b610a2d565b3480156102cc57600080fd5b506102086102db366004611f9f565b610a70565b3480156102ec57600080fd5b506103006102fb366004612263565b610b46565b60405161024a91906127ca565b34801561031957600080fd5b50610322610c1e565b60405161024a91906123e0565b34801561033b57600080fd5b50610344610c27565b60405161024a9190612398565b34801561035d57600080fd5b5061032261036c366004611f0e565b610c36565b34801561037d57600080fd5b5061023d610c54565b34801561039257600080fd5b50610344610c74565b3480156103a757600080fd5b5061023d6103b63660046120cc565b610c83565b3480156103c757600080fd5b50610208610c99565b3480156103dc57600080fd5b506102086103eb366004611f0e565b610d6f565b3480156103fc57600080fd5b50610344610de5565b34801561041157600080fd5b506104256104203660046120cc565b610df4565b60405161024a91906126c4565b34801561043e57600080fd5b5061023d610e81565b34801561045357600080fd5b50610344610ea3565b34801561046857600080fd5b5061023d610eb2565b34801561047d57600080fd5b50610486610ed0565b60405161024a91906126f0565b34801561049f57600080fd5b50610344610ee8565b3480156104b457600080fd5b506102086104c33660046121fd565b610ef7565b3480156104d457600080fd5b506102086104e3366004611fd3565b610f38565b3480156104f457600080fd5b50610300610503366004612263565b610fbf565b34801561051457600080fd5b50610208610523366004611f55565b611031565b34801561053457600080fd5b506102086105433660046120b0565b61131e565b34801561055457600080fd5b50610322610563366004611f0e565b61139d565b34801561057457600080fd5b50610208610583366004611f0e565b6113b2565b34801561059457600080fd5b506102086105a3366004611f0e565b6114df565b3480156105b457600080fd5b506102086105c3366004611f2a565b611650565b336105d1610ea3565b6001600160a01b03161461060d576105e833610c36565b61060d5760405162461bcd60e51b8152600401610604906123eb565b60405180910390fd5b606880547fffffffffffffffffffffffff0000000000000000000000000000000000000000166001600160a01b0392909216919091179055565b33610650610ea3565b6001600160a01b0316146106835761066733610c36565b6106835760405162461bcd60e51b8152600401610604906123eb565b600260005414156106db576040805162461bcd60e51b815260206004820152601f60248201527f5265656e7472616e637947756172643a207265656e7472616e742063616c6c00604482015290519081900360640190fd5b60026000819055506000816001600160a01b0316346040516106fc90612395565b60006040518083038185875af1925050503d8060008114610739576040519150601f19603f3d011682016040523d82523d6000602084013e61073e565b606091505b505090508061077e5760405134906001600160a01b038416907f2c7a964ca3de5ec1d42d9822f9bbd0eb142a59cc9f855e9d93813b773192c7a390600090a35b6066546040517f987fa2d50000000000000000000000000000000000000000000000000000000081526001600160a01b039091169063987fa2d5906107d3908c908c908c908c908c908c908c9060040161271c565b600060405180830381600087803b1580156107ed57600080fd5b505af1158015610801573d6000803e3d6000fd5b505060016000555050505050505050505050565b61ffff8082166000908152606b60205260408120549091166108495760405162461bcd60e51b8152600401610604906124eb565b5061ffff8082166000908152606b6020526040902054165b919050565b61086e611e6e565b6067546001600160a01b03166323161ff861088885610815565b846040518363ffffffff1660e01b81526004016108a6929190612799565b60606040518083038186803b1580156108be57600080fd5b505afa1580156108d2573d6000803e3d6000fd5b505050506040513d601f19601f820116820180604052508101906108f69190611fed565b90505b92915050565b33610908610ea3565b6001600160a01b03161461093b5761091f33610c36565b61093b5760405162461bcd60e51b8152600401610604906123eb565b60026000541415610993576040805162461bcd60e51b815260206004820152601f60248201527f5265656e7472616e637947756172643a207265656e7472616e742063616c6c00604482015290519081900360640190fd5b60026000556066546040517f987fa2d50000000000000000000000000000000000000000000000000000000081526001600160a01b039091169063987fa2d5906109ed908a908a908a908a908a908a908a9060040161271c565b600060405180830381600087803b158015610a0757600080fd5b505af1158015610a1b573d6000803e3d6000fd5b50506001600055505050505050505050565b33610a36610ea3565b6001600160a01b031614610a6957610a4d33610c36565b610a695760405162461bcd60e51b8152600401610604906123eb565b5050505050565b610a786117ca565b6001600160a01b0316610a89610ea3565b6001600160a01b031614610ae4576040805162461bcd60e51b815260206004820181905260248201527f4f776e61626c653a2063616c6c6572206973206e6f7420746865206f776e6572604482015290519081900360640190fd5b6001600160a01b03821660009081526069602052604090819020805460ff1916831515179055517fb10786d0bfa68fb1aa29552d9203e5f545f7c073ff0784da1de1d800986f102390610b3a90849084906123c5565b60405180910390a15050565b6066546000906001600160a01b03163314610b735760405162461bcd60e51b8152600401610604906125a5565b612710841115610b955760405162461bcd60e51b815260040161060490612422565b6000610bda8888888888888080601f0160208091040260200160405190810160405280939291908181526020018383808284376000920191909152506117ce92505050565b90507fdf21c415b78ed2552cc9971249e32a053abce6087a0ae0fbf3f78db5174a349381604051610c0b91906127ca565b60405180910390a1979650505050505050565b606a5460ff1681565b6068546001600160a01b031681565b6001600160a01b031660009081526069602052604090205460ff1690565b606d547201000000000000000000000000000000000000900461ffff1681565b6066546001600160a01b031681565b606b6020526000908152604090205461ffff1681565b610ca16117ca565b6001600160a01b0316610cb2610ea3565b6001600160a01b031614610d0d576040805162461bcd60e51b815260206004820181905260248201527f4f776e61626c653a2063616c6c6572206973206e6f7420746865206f776e6572604482015290519081900360640190fd5b6034546040516000916001600160a01b0316907f8be0079c531659141344cd1fd0a4f28419497f9722a3daafe3b4186f6b6457e0908390a3603480547fffffffffffffffffffffffff0000000000000000000000000000000000000000169055565b33610d78610ea3565b6001600160a01b031614610dab57610d8f33610c36565b610dab5760405162461bcd60e51b8152600401610604906123eb565b606c80547fffffffffffffffffffffffff0000000000000000000000000000000000000000166001600160a01b0392909216919091179055565b606c546001600160a01b031681565b610dfc611e8e565b6067546001600160a01b031663765a8a54610e1684610815565b6040518263ffffffff1660e01b8152600401610e32919061270d565b604080518083038186803b158015610e4957600080fd5b505afa158015610e5d573d6000803e3d6000fd5b505050506040513d601f19601f820116820180604052508101906108f99190612058565b606d5474010000000000000000000000000000000000000000900461ffff1681565b6034546001600160a01b031690565b606d54700100000000000000000000000000000000900461ffff1681565b606d546fffffffffffffffffffffffffffffffff1681565b6067546001600160a01b031681565b33610f00610ea3565b6001600160a01b031614610f3357610f1733610c36565b610f335760405162461bcd60e51b8152600401610604906123eb565b505050565b610f406117ca565b6001600160a01b0316610f51610ea3565b6001600160a01b031614610fac576040805162461bcd60e51b815260206004820181905260248201527f4f776e61626c653a2063616c6c6572206973206e6f7420746865206f776e6572604482015290519081900360640190fd5b606a805460ff1916911515919091179055565b6000612710841115610fe35760405162461bcd60e51b815260040161060490612422565b6110268787878787878080601f0160208091040260200160405190810160405280939291908181526020018383808284376000920191909152506117ce92505050565b979650505050505050565b600061103b611ab8565b90506001600160a01b03811661107a576001600160a01b037fb53127684a568b3173ae13b9f8a6016e243e63b6e8ee1178d6a717850b5d61035561108f565b336001600160a01b0382161461108f57600080fd5b600154610100900460ff16806110a857506110a8611add565b806110b6575060015460ff16155b6110f15760405162461bcd60e51b815260040180806020018281038252602e815260200180612843602e913960400191505060405180910390fd5b600154610100900460ff1615801561111b576001805460ff1961ff00199091166101001716811790555b611123611aee565b606680547fffffffffffffffffffffffff0000000000000000000000000000000000000000166001600160a01b038716179055611161306001610a70565b606780547fffffffffffffffffffffffff00000000000000000000000000000000000000009081166001600160a01b0387811691909117909255606b6020527fa775687211c2b3346a0f5a2a0e7590e6c1838453e3785e6dd2a8efd6265ddf15805460657fffffffffffffffffffffffffffffffffffffffffffffffffffffffffffff0000918216179091557fb507b92927105c30ff6e8afc661972d5ba73e86e28bafa70cb531ddda52bdf0480546066908316179055600c6000527f7cb4feddbcc8df84643f757126b63c4a4c8d049712222ca86464abd7231ed284805460709216919091179055606c8054909116918516919091179055606d80547fffffffffffffffffffffffffffff0000ffffffffffffffffffffffffffffffff1670a400000000000000000000000000000000177fffffffffffffffffffffffff0000ffffffffffffffffffffffffffffffffffff1672a0000000000000000000000000000000000000177fffffffffffffffffffff0000ffffffffffffffffffffffffffffffffffffffff167501f400000000000000000000000000000000000000001790558015610a69576001805461ff00191690555050505050565b33611327610ea3565b6001600160a01b03161461135a5761133e33610c36565b61135a5760405162461bcd60e51b8152600401610604906123eb565b606d80547fffffffffffffffffffffffffffffffff00000000000000000000000000000000166fffffffffffffffffffffffffffffffff92909216919091179055565b60696020526000908152604090205460ff1681565b6113ba6117ca565b6001600160a01b03166113cb610ea3565b6001600160a01b031614611426576040805162461bcd60e51b815260206004820181905260248201527f4f776e61626c653a2063616c6c6572206973206e6f7420746865206f776e6572604482015290519081900360640190fd5b6001600160a01b03811661146b5760405162461bcd60e51b815260040180806020018281038252602681526020018061281d6026913960400191505060405180910390fd5b6034546040516001600160a01b038084169216907f8be0079c531659141344cd1fd0a4f28419497f9722a3daafe3b4186f6b6457e090600090a3603480547fffffffffffffffffffffffff0000000000000000000000000000000000000000166001600160a01b0392909216919091179055565b60006114e9611ab8565b90506001600160a01b038116611528576001600160a01b037fb53127684a568b3173ae13b9f8a6016e243e63b6e8ee1178d6a717850b5d61035561153d565b336001600160a01b0382161461153d57600080fd5b50606d8054606c80547fffffffffffffffffffffffff0000000000000000000000000000000000000000166001600160a01b039490941693909317909255612ee07fffffffffffffffffffffffffffffffff00000000000000000000000000000000909216919091177fffffffffffffffffffffffffffff0000ffffffffffffffffffffffffffffffff1670a400000000000000000000000000000000177fffffffffffffffffffffffff0000ffffffffffffffffffffffffffffffffffff1672a0000000000000000000000000000000000000177fffffffffffffffffffff0000ffffffffffffffffffffffffffffffffffffffff167501f40000000000000000000000000000000000000000179055565b33611659610ea3565b6001600160a01b03161461168c5761167033610c36565b61168c5760405162461bcd60e51b8152600401610604906123eb565b6066546040517f69412bfa0000000000000000000000000000000000000000000000000000000081526000916001600160a01b0316906369412bfa906116d6903090600401612398565b60206040518083038186803b1580156116ee57600080fd5b505afa158015611702573d6000803e3d6000fd5b505050506040513d601f19601f82011682018060405250810190611726919061234e565b9050808211156117485760405162461bcd60e51b815260040161060490612548565b6066546040517f07b18bde0000000000000000000000000000000000000000000000000000000081526001600160a01b03909116906307b18bde9061179390869086906004016123ac565b600060405180830381600087803b1580156117ad57600080fd5b505af11580156117c1573d6000803e3d6000fd5b50505050505050565b3390565b606a5460009060ff16156117f45760405162461bcd60e51b8152600401610604906125dc565b815160221480611805575060428251115b6118215760405162461bcd60e51b815260040161060490612457565b60028201516022830151806118485760405162461bcd60e51b815260040161060490612613565b8161ffff166001148061185f57508161ffff166002145b61187b5760405162461bcd60e51b8152600401610604906124b4565b60006118878989610866565b905060008361ffff16600214156118d15750604285015181516fffffffffffffffffffffffffffffffff168111156118d15760405162461bcd60e51b81526004016106049061264a565b60008461ffff166002146118ff57606d54700100000000000000000000000000000000900461ffff16611925565b606d5461192590700100000000000000000000000000000000900461ffff166020611b9f565b905060008a61ffff1660021461196457606d5461195f908a9074010000000000000000000000000000000000000000900461ffff16611b9f565b611982565b606d547201000000000000000000000000000000000000900461ffff165b905060006119908383611b9f565b606c549091508d9060009081906001600160a01b0316637bc3c9ab6119b485610815565b60208b015187906119cf9067ffffffffffffffff168e611b9f565b6040518463ffffffff1660e01b81526004016119ed939291906127ae565b604080518083038186803b158015611a0457600080fd5b505afa158015611a18573d6000803e3d6000fd5b505050506040513d601f19601f82011682018060405250810190611a3c9190612366565b90925090506000611a6e6402540be400611a688a6fffffffffffffffffffffffffffffffff8616611bf9565b90611c52565b606d54909150611aa29061271090611a68906fffffffffffffffffffffffffffffffff16611a9c8786611b9f565b90611bf9565b9b50505050505050505050505095945050505050565b7fb53127684a568b3173ae13b9f8a6016e243e63b6e8ee1178d6a717850b5d61035490565b6000611ae830611cb9565b15905090565b600154610100900460ff1680611b075750611b07611add565b80611b15575060015460ff16155b611b505760405162461bcd60e51b815260040180806020018281038252602e815260200180612843602e913960400191505060405180910390fd5b600154610100900460ff16158015611b7a576001805460ff1961ff00199091166101001716811790555b611b82611cbf565b611b8a611d5e565b8015611b9c576001805461ff00191690555b50565b6000828201838110156108f6576040805162461bcd60e51b815260206004820152601b60248201527f536166654d6174683a206164646974696f6e206f766572666c6f770000000000604482015290519081900360640190fd5b600082611c08575060006108f9565b82820282848281611c1557fe5b04146108f65760405162461bcd60e51b81526004018080602001828103825260218152602001806128716021913960400191505060405180910390fd5b6000808211611ca8576040805162461bcd60e51b815260206004820152601a60248201527f536166654d6174683a206469766973696f6e206279207a65726f000000000000604482015290519081900360640190fd5b818381611cb157fe5b049392505050565b3b151590565b600154610100900460ff1680611cd85750611cd8611add565b80611ce6575060015460ff16155b611d215760405162461bcd60e51b815260040180806020018281038252602e815260200180612843602e913960400191505060405180910390fd5b600154610100900460ff16158015611b8a576001805460ff1961ff00199091166101001716811790558015611b9c576001805461ff001916905550565b600154610100900460ff1680611d775750611d77611add565b80611d85575060015460ff16155b611dc05760405162461bcd60e51b815260040180806020018281038252602e815260200180612843602e913960400191505060405180910390fd5b600154610100900460ff16158015611dea576001805460ff1961ff00199091166101001716811790555b6000611df46117ca565b603480547fffffffffffffffffffffffff0000000000000000000000000000000000000000166001600160a01b038316908117909155604051919250906000907f8be0079c531659141344cd1fd0a4f28419497f9722a3daafe3b4186f6b6457e0908290a3508015611b9c576001805461ff001916905550565b604080516060810182526000808252602082018190529181019190915290565b604080518082019091526000808252602082015290565b8035801515811461086157600080fd5b60008083601f840112611ec6578182fd5b50813567ffffffffffffffff811115611edd578182fd5b602083019150836020828501011115611ef557600080fd5b9250929050565b803561ffff8116811461086157600080fd5b600060208284031215611f1f578081fd5b81356108f6816127d3565b60008060408385031215611f3c578081fd5b8235611f47816127d3565b946020939093013593505050565b600080600060608486031215611f69578081fd5b8335611f74816127d3565b92506020840135611f84816127d3565b91506040840135611f94816127d3565b809150509250925092565b60008060408385031215611fb1578182fd5b8235611fbc816127d3565b9150611fca60208401611ea5565b90509250929050565b600060208284031215611fe4578081fd5b6108f682611ea5565b600060608284031215611ffe578081fd5b6040516060810181811067ffffffffffffffff8211171561201b57fe5b6040528251612029816127e8565b8152602083015161203981612806565b6020820152604083015161204c81612806565b60408201529392505050565b600060408284031215612069578081fd5b6040516040810181811067ffffffffffffffff8211171561208657fe5b6040528251612094816127e8565b815260208301516120a4816127e8565b60208201529392505050565b6000602082840312156120c1578081fd5b81356108f6816127e8565b6000602082840312156120dd578081fd5b6108f682611efc565b600080600080600080600060c0888a031215612100578283fd5b61210988611efc565b96506020880135612119816127d3565b955060408801359450606088013593506080880135925060a088013567ffffffffffffffff811115612149578283fd5b6121558a828b01611eb5565b989b979a50959850939692959293505050565b60008060008060008060008060e0898b031215612183578182fd5b61218c89611efc565b9750602089013561219c816127d3565b965060408901359550606089013594506080890135935060a089013567ffffffffffffffff8111156121cc578283fd5b6121d88b828c01611eb5565b90945092505060c08901356121ec816127d3565b809150509295985092959890939650565b600080600060608486031215612211578081fd5b61221a84611efc565b9250602084013561222a816127e8565b91506040840135611f94816127e8565b6000806040838503121561224c578182fd5b61225583611efc565b9150611fca60208401611efc565b60008060008060008060a0878903121561227b578384fd5b61228487611efc565b955061229260208801611efc565b945060408701356122a2816127d3565b935060608701359250608087013567ffffffffffffffff8111156122c4578283fd5b6122d089828a01611eb5565b979a9699509497509295939492505050565b600080600080600060a086880312156122f9578283fd5b61230286611efc565b945061231060208701611efc565b93506040860135612320816127e8565b9250606086013561233081612806565b9150608086013561234081612806565b809150509295509295909350565b60006020828403121561235f578081fd5b5051919050565b60008060408385031215612378578182fd5b82519150602083015161238a816127e8565b809150509250929050565b90565b6001600160a01b0391909116815260200190565b6001600160a01b03929092168252602082015260400190565b6001600160a01b039290921682521515602082015260400190565b901515815260200190565b60208082526015908201527f52656c617965723a206e6f7420617070726f7665640000000000000000000000604082015260600190565b6020808252818101527f52656c617965723a205f7061796c6f616453697a6520746f6f6f6f6f20626967604082015260600190565b60208082526026908201527f52656c617965723a2077726f6e67205f61646170746572506172616d6574657260408201527f732073697a650000000000000000000000000000000000000000000000000000606082015260800190565b6020808252601b908201527f52656c617965723a20756e737570706f72746564207478547970650000000000604082015260600190565b60208082526024908201527f6765744c6567616379436861696e496428293a206c6f6f6b7570206e6f74206660408201527f6f756e6400000000000000000000000000000000000000000000000000000000606082015260800190565b60208082526026908201527f52656c617965723a206e6f7420656e6f7567682066656520666f72207769746860408201527f64726177616c0000000000000000000000000000000000000000000000000000606082015260800190565b60208082526014908201527f52656c617965723a20696e76616c696420756c6e000000000000000000000000604082015260600190565b6020808252600d908201527f41646d696e3a2070617573656400000000000000000000000000000000000000604082015260600190565b60208082526014908201527f52656c617965723a2067617320746f6f206c6f77000000000000000000000000604082015260600190565b6020808252601f908201527f52656c617965723a206473744e6174697665416d7420746f6f206c6172676500604082015260600190565b81516fffffffffffffffffffffffffffffffff16815260208083015167ffffffffffffffff90811691830191909152604092830151169181019190915260600190565b81516fffffffffffffffffffffffffffffffff9081168252602092830151169181019190915260400190565b6fffffffffffffffffffffffffffffffff91909116815260200190565b61ffff91909116815260200190565b600061ffff891682526001600160a01b038816602083015286604083015285606083015284608083015260c060a08301528260c0830152828460e084013781830160e090810191909152601f9092017fffffffffffffffffffffffffffffffffffffffffffffffffffffffffffffffe01601019695505050505050565b61ffff92831681529116602082015260400190565b61ffff9390931683526020830191909152604082015260600190565b90815260200190565b6001600160a01b0381168114611b9c57600080fd5b6fffffffffffffffffffffffffffffffff81168114611b9c57600080fd5b67ffffffffffffffff81168114611b9c57600080fdfe4f776e61626c653a206e6577206f776e657220697320746865207a65726f2061646472657373496e697469616c697a61626c653a20636f6e747261637420697320616c726561647920696e697469616c697a6564536166654d6174683a206d756c7469706c69636174696f6e206f766572666c6f77a26469706673582212203fcdf5ef09b7efcf6d0979730a9ea50582930eec715399be2f094f18d3e4366c64736f6c63430007060033",
  "linkReferences": {},
  "deployedLinkReferences": {}
}