{
  "_format": "hh-sol-artifact-1",
  "contractName": "MPTValidatorV2",
  "sourceName": "contracts/proof/MPTValidatorV2.sol",
  "abi": [
    {
      "inputs": [],
      "name": "PACKET_SIGNATURE",
      "outputs": [
        {
          "internalType": "bytes32",
          "name": "",
          "type": "bytes32"
        }
      ],
      "stateMutability": "view",
      "type": "function"
    },
    {
      "inputs": [
        {
          "internalType": "bytes",
          "name": "data",
          "type": "bytes"
        },
        {
          "internalType": "uint16",
          "name": "srcChain",
          "type": "uint16"
        },
        {
          "internalType": "uint256",
          "name": "sizeOfSrcAddress",
          "type": "uint256"
        },
        {
          "internalType": "bytes32",
          "name": "ulnAddress",
          "type": "bytes32"
        }
      ],
      "name": "getPacket",
      "outputs": [
        {
          "components": [
            {
              "internalType": "uint16",
              "name": "srcChainId",
              "type": "uint16"
            },
            {
              "internalType": "uint16",
              "name": "dstChainId",
              "type": "uint16"
            },
            {
              "internalType": "uint64",
              "name": "nonce",
              "type": "uint64"
            },
            {
              "internalType": "address",
              "name": "dstAddress",
              "type": "address"
            },
            {
              "internalType": "bytes",
              "name": "srcAddress",
              "type": "bytes"
            },
            {
              "internalType": "bytes32",
              "name": "ulnAddress",
              "type": "bytes32"
            },
            {
              "internalType": "bytes",
              "name": "payload",
              "type": "bytes"
            }
          ],
          "internalType": "struct LayerZeroPacket.Packet",
          "name": "",
          "type": "tuple"
        }
      ],
      "stateMutability": "pure",
      "type": "function"
    },
    {
      "inputs": [
        {
          "internalType": "bytes32",
          "name": "hashRoot",
          "type": "bytes32"
        },
        {
          "internalType": "uint256[]",
          "name": "receiptSlotIndex",
          "type": "uint256[]"
        },
        {
          "internalType": "uint256",
          "name": "logIndex",
          "type": "uint256"
        },
        {
          "internalType": "bytes[]",
          "name": "proof",
          "type": "bytes[]"
        }
      ],
      "name": "getVerifyLog",
      "outputs": [
        {
          "components": [
            {
              "internalType": "bytes32",
              "name": "contractAddress",
              "type": "bytes32"
            },
            {
              "internalType": "bytes32",
              "name": "topicZeroSig",
              "type": "bytes32"
            },
            {
              "internalType": "bytes",
              "name": "data",
              "type": "bytes"
            }
          ],
          "internalType": "struct MPTValidatorV2.ULNLog",
          "name": "",
          "type": "tuple"
        }
      ],
      "stateMutability": "pure",
      "type": "function"
    },
    {
      "inputs": [
        {
          "internalType": "bytes32",
          "name": "_receiptsRoot",
          "type": "bytes32"
        },
        {
          "internalType": "bytes",
          "name": "_transactionProof",
          "type": "bytes"
        },
        {
          "internalType": "uint256",
          "name": "_remoteAddressSize",
          "type": "uint256"
        }
      ],
      "name": "validateProof",
      "outputs": [
        {
          "components": [
            {
              "internalType": "uint16",
              "name": "srcChainId",
              "type": "uint16"
            },
            {
              "internalType": "uint16",
              "name": "dstChainId",
              "type": "uint16"
            },
            {
              "internalType": "uint64",
              "name": "nonce",
              "type": "uint64"
            },
            {
              "internalType": "address",
              "name": "dstAddress",
              "type": "address"
            },
            {
              "internalType": "bytes",
              "name": "srcAddress",
              "type": "bytes"
            },
            {
              "internalType": "bytes32",
              "name": "ulnAddress",
              "type": "bytes32"
            },
            {
              "internalType": "bytes",
              "name": "payload",
              "type": "bytes"
            }
          ],
          "internalType": "struct LayerZeroPacket.Packet",
          "name": "packet",
          "type": "tuple"
        }
      ],
      "stateMutability": "pure",
      "type": "function"
    }
  ],
  "bytecode": "0x608060405234801561001057600080fd5b506115c0806100206000396000f3fe608060405234801561001057600080fd5b506004361061004c5760003560e01c80630f222e6514610051578063b71e0f711461007a578063be9d395e1461009a578063e0cabadd146100af575b600080fd5b61006461005f366004611148565b6100c2565b60405161007191906114a7565b60405180910390f35b61008d6100883660046111bc565b6100df565b6040516100719190611420565b6100a261017f565b6040516100719190611372565b61008d6100bd366004611239565b6101a3565b6100ca610f5f565b6100d6858585856101b7565b95945050505050565b6100e7610f7e565b60008080806100f887890189611294565b9350935093509350600061010e8a8484876101b7565b60208101519091507fe8d23d927749ec8e512eb885679c2977d57068839d8cca1a85685dbbea0648f61461015d5760405162461bcd60e51b8152600401610154906113e9565b60405180910390fd5b6101718160400151868984600001516102fd565b9a9950505050505050505050565b7fe8d23d927749ec8e512eb885679c2977d57068839d8cca1a85685dbbea0648f681565b6101ab610f7e565b6100d6858585856102fd565b6101bf610f5f565b81518451146101e05760405162461bcd60e51b81526004016101549061137b565b6101e8610fbc565b606060005b845181101561027a5784818151811061020257fe5b60200260200101519150818051906020012088146102325760405162461bcd60e51b8152600401610154906113b2565b61025887828151811061024157fe5b6020026020010151610252846103f3565b9061046b565b925060018551038110156102725761026f836105d9565b97505b6001016101ed565b50600061028b6003610252856106c2565b905060006102a161029c838961046b565b61074e565b90506102ab610f5f565b6102bc6102b7836107e0565b6105d9565b81526102d56102b760006102cf856107e0565b90610876565b60208201526102eb6102e6836107e0565b610923565b60408201529998505050505050505050565b610305610f7e565b602085015160608601516068870151858801607c01519190610325610fd6565b61032f8189610a1c565b5061033f8160008c60888c610a56565b50600061035789610351866014610b12565b90610b12565b9050610361610fd6565b61036b8183610a1c565b5061038760008d61037d8d609c610b6f565b8492919086610a56565b506040805160e08101825261ffff808e16825298909816602089015267ffffffffffffffff909416938701939093525073ffffffffffffffffffffffffffffffffffffffff9093166060850152915160808401525060a082018490525160c08201529050949350505050565b6103fb610fbc565b602082018051835160009190911a90801580159061041c575060c060ff8316105b1561044b57600192909201917fffffffffffffffffffffffffffffffffffffffffffffffffffffffffffffffff015b60405180604001604052808281526020018481525093505050505b919050565b610473610fbc565b61047c83610bd0565b6104b75760405162461bcd60e51b81526004018080602001828103825260218152602001806115496021913960400191505060405180910390fd5b6104c083610c0a565b8210610513576040805162461bcd60e51b815260206004820152601660248201527f524c50206974656d206f7574206f6620626f756e647300000000000000000000604482015290519081900360640190fd5b825160208401519081019060009061052a90610c62565b60208601510190506000805b858110156105555761054783610d01565b928301929150600101610536565b5061055f82610d01565b90508281830111156105b8576040805162461bcd60e51b815260206004820152601160248201527f524c50206974656d206f766572666c6f77000000000000000000000000000000604482015290519081900360640190fd5b60405180604001604052808281526020018381525093505050505b92915050565b8051600090158015906105ee57508151602110155b61063f576040805162461bcd60e51b815260206004820181905260248201527f524c504465636f64657220746f55696e7420696e76616c6964206c656e677468604482015290519081900360640190fd5b600061064e8360200151610c62565b905080836000015110156106935760405162461bcd60e51b81526004018080602001828103825260288152602001806115216028913960400191505060405180910390fd5b8251602080850151830180519284900392918310156106b957826020036101000a820491505b50949350505050565b6106ca610fbc565b60006106d98360200151610c62565b60208401518451908201805192935060009290921a91908015801590610702575060c060ff8416105b1561073157600191909101907fffffffffffffffffffffffffffffffffffffffffffffffffffffffffffffffff015b604080518082019091529081526020810191909152949350505050565b610756610ff0565b61075f82610bd0565b6107b0576040805162461bcd60e51b815260206004820152601f60248201527f524c504465636f646572206974657261746f72206973206e6f74206c69737400604482015290519081900360640190fd5b60006107bf8360200151610c62565b60208085015160408051808201909152868152920190820152915050919050565b6107e8610fbc565b6107f182610dd6565b610842576040805162461bcd60e51b815260206004820152601f60248201527f524c504465636f646572206974657261746f7220686173206e6f206e65787400604482015290519081900360640190fd5b6020820151600061085282610d01565b80830160209586015260408051808201909152908152938401919091525090919050565b61087e610fbc565b61088783610bd0565b6108c25760405162461bcd60e51b81526004018080602001828103825260218152602001806115496021913960400191505060405180910390fd5b60006108d18460200151610c62565b60208501510190506000805b848110156108fc576108ee83610d01565b9283019291506001016108dd565b5061090682610d01565b604080518082019091529081526020810192909252509392505050565b80516060906109635760405162461bcd60e51b815260040180806020018281038252602181526020018061156a6021913960400191505060405180910390fd5b60006109728360200151610c62565b905080836000015110156109b75760405162461bcd60e51b81526004018080602001828103825260288152602001806115216028913960400191505060405180910390fd5b825181900360008167ffffffffffffffff811180156109d557600080fd5b506040519080825280601f01601f191660200182016040528015610a00576020820181803683370190505b50905060008160200190506106b9848760200151018285610deb565b610a24610fd6565b6020820615610a395760208206602003820191505b506020828101829052604080518085526000815290920101905290565b610a5e610fd6565b85602001518286011115610a8857610a8886610a808860200151888601610e54565b600202610e6b565b600080875180518860208301019350808987011115610aa75788860182525b5050508484015b60208410610acd5780518252601f199093019260209182019101610aae565b5181517fffffffffffffffffffffffffffffffffffffffffffffffffffffffffffffffff60208690036101000a01908116901991909116179052508495945050505050565b600082821115610b69576040805162461bcd60e51b815260206004820152601e60248201527f536166654d6174683a207375627472616374696f6e206f766572666c6f770000604482015290519081900360640190fd5b50900390565b600082820183811015610bc9576040805162461bcd60e51b815260206004820152601b60248201527f536166654d6174683a206164646974696f6e206f766572666c6f770000000000604482015290519081900360640190fd5b9392505050565b8051600090610be157506000610466565b6020820151805160001a9060c0821015610c0057600092505050610466565b5060019392505050565b8051600090610c1b57506000610466565b600080610c2b8460200151610c62565b602085015185519181019250015b80821015610c5957610c4a82610d01565b60019093019290910190610c39565b50909392505050565b8051600090811a6080811015610c7c576000915050610466565b60b8811080610c97575060c08110801590610c97575060f881105b15610ca6576001915050610466565b60c0811015610cd8577fffffffffffffffffffffffffffffffffffffffffffffffffffffffffffffff4a019050610466565b7fffffffffffffffffffffffffffffffffffffffffffffffffffffffffffffff0a019050610466565b80516000908190811a6080811015610d1c5760019150610dcf565b60b8811015610d4f577fffffffffffffffffffffffffffffffffffffffffffffffffffffffffffffff8181019150610dcf565b60c0811015610d7c5760b78103600185019450806020036101000a85510460018201810193505050610dcf565b60f8811015610daf577fffffffffffffffffffffffffffffffffffffffffffffffffffffffffffffff4181019150610dcf565b60f78103600185019450806020036101000a855104600182018101935050505b5092915050565b80518051602091820151919092015191011190565b80610df557610e4f565b5b60208110610e15578251825260209283019290910190601f1901610df6565b8251825160208390036101000a7fffffffffffffffffffffffffffffffffffffffffffffffffffffffffffffffff01801990921691161782525b505050565b600081831115610e655750816105d3565b50919050565b8151610e778383610a1c565b50610e828382610e88565b50505050565b610e90610fd6565b610bc983846000015151848551610ea5610fd6565b8251821115610eb357600080fd5b84602001518285011115610ed557610ed585610a808760200151878601610e54565b600080865180518760208301019350808887011115610ef45787860182525b505050602084015b60208410610f1b5780518252601f199093019260209182019101610efc565b5181517fffffffffffffffffffffffffffffffffffffffffffffffffffffffffffffffff60208690036101000a019081169019919091161790525083949350505050565b6040805160608082018352600080835260208301529181019190915290565b6040805160e08101825260008082526020820181905291810182905260608082018390526080820181905260a082019290925260c081019190915290565b604051806040016040528060008152602001600081525090565b604051806040016040528060608152602001600081525090565b6040518060400160405280611003610fbc565b8152602001600081525090565b600082601f830112611020578081fd5b8135602061103561103083611502565b6114de565b82815281810190858301855b8581101561106a57611058898684358b01016110d1565b84529284019290840190600101611041565b5090979650505050505050565b600082601f830112611087578081fd5b8135602061109761103083611502565b82815281810190858301838502870184018810156110b3578586fd5b855b8581101561106a578135845292840192908401906001016110b5565b600082601f8301126110e1578081fd5b813567ffffffffffffffff8111156110f557fe5b6111086020601f19601f840116016114de565b81815284602083860101111561111c578283fd5b816020850160208301379081016020019190915292915050565b803561ffff8116811461046657600080fd5b6000806000806080858703121561115d578384fd5b84359350602085013567ffffffffffffffff8082111561117b578485fd5b61118788838901611077565b94506040870135935060608701359150808211156111a3578283fd5b506111b087828801611010565b91505092959194509250565b600080600080606085870312156111d1578384fd5b84359350602085013567ffffffffffffffff808211156111ef578485fd5b818701915087601f830112611202578485fd5b813581811115611210578586fd5b886020828501011115611221578586fd5b95986020929092019750949560400135945092505050565b6000806000806080858703121561124e578384fd5b843567ffffffffffffffff811115611264578485fd5b611270878288016110d1565b94505061127f60208601611136565b93969395505050506040820135916060013590565b600080600080608085870312156112a9578384fd5b6112b285611136565b9350602085013567ffffffffffffffff808211156112ce578485fd5b6112da88838901611010565b945060408701359150808211156112ef578384fd5b506112fc87828801611077565b949793965093946060013593505050565b73ffffffffffffffffffffffffffffffffffffffff169052565b60008151808452815b8181101561134c57602081850181015186830182015201611330565b8181111561135d5782602083870101525b50601f01601f19169290920160200192915050565b90815260200190565b6020808252601c908201527f50726f6f664c69623a20696e76616c69642070726f6f662073697a6500000000604082015260600190565b6020808252601a908201527f50726f6f664c69623a20696e76616c696420686173686c696e6b000000000000604082015260600190565b6020808252601f908201527f50726f6f664c69623a207061636b6574206e6f74207265636f676e697a656400604082015260600190565b60006020825261ffff8084511660208401528060208501511660408401525067ffffffffffffffff60408401511660608301526060830151611465608084018261130d565b50608083015160e060a0840152611480610100840182611327565b905060a084015160c084015260c0840151601f198483030160e08501526100d68282611327565b600060208252825160208301526020830151604083015260408301516060808401526114d66080840182611327565b949350505050565b60405181810167ffffffffffffffff811182821017156114fa57fe5b604052919050565b600067ffffffffffffffff82111561151657fe5b506020908102019056fe524c504465636f6465723a20696e76616c696420524c50206974656d206f66667365742073697a65524c504465636f646572206974657261746f72206973206e6f742061206c697374524c504465636f64657220746f427974657320696e76616c6964206c656e677468a264697066735822122087fad397dac6dabf7a45643dfce6c4ce4af83b8486ada0e4640f7fd4ac36a32464736f6c63430007060033",
  "linkReferences": {},
  "deployedLinkReferences": {}
}