{
  "_format": "hh-sol-artifact-1",
  "contractName": "AltTokenUA",
  "sourceName": "contracts/example/AltTokenUA.sol",
  "abi": [
    {
      "inputs": [
        {
          "internalType": "address",
          "name": "_endpoint",
          "type": "address"
        },
        {
          "internalType": "address",
          "name": "_feeToken",
          "type": "address"
        },
        {
          "internalType": "address",
          "name": "_feeHandler",
          "type": "address"
        }
      ],
      "stateMutability": "nonpayable",
      "type": "constructor"
    },
    {
      "inputs": [],
      "name": "endpoint",
      "outputs": [
        {
          "internalType": "contract ILayerZeroEndpoint",
          "name": "",
          "type": "address"
        }
      ],
      "stateMutability": "view",
      "type": "function"
    },
    {
      "inputs": [],
      "name": "feeHandler",
      "outputs": [
        {
          "internalType": "address",
          "name": "",
          "type": "address"
        }
      ],
      "stateMutability": "view",
      "type": "function"
    },
    {
      "inputs": [],
      "name": "feeToken",
      "outputs": [
        {
          "internalType": "contract IERC20",
          "name": "",
          "type": "address"
        }
      ],
      "stateMutability": "view",
      "type": "function"
    },
    {
      "inputs": [
        {
          "internalType": "uint16",
          "name": "_srcChainId",
          "type": "uint16"
        },
        {
          "internalType": "bytes",
          "name": "_fromAddress",
          "type": "bytes"
        },
        {
          "internalType": "uint64",
          "name": "",
          "type": "uint64"
        },
        {
          "internalType": "bytes",
          "name": "_payload",
          "type": "bytes"
        }
      ],
      "name": "lzReceive",
      "outputs": [],
      "stateMutability": "nonpayable",
      "type": "function"
    },
    {
      "inputs": [
        {
          "internalType": "uint16",
          "name": "_dstChainId",
          "type": "uint16"
        },
        {
          "internalType": "address",
          "name": "_dstAddress",
          "type": "address"
        },
        {
          "internalType": "bytes",
          "name": "_payload",
          "type": "bytes"
        },
        {
          "internalType": "bytes",
          "name": "_adapterParams",
          "type": "bytes"
        },
        {
          "internalType": "uint256",
          "name": "_fee",
          "type": "uint256"
        }
      ],
      "name": "send",
      "outputs": [],
      "stateMutability": "payable",
      "type": "function"
    }
  ],
  "bytecode": "0x608060405234801561001057600080fd5b5060405161077b38038061077b8339818101604052606081101561003357600080fd5b5080516020820151604090920151600080546001600160a01b039384166001600160a01b03199182161790915560018054948416948216949094179093556002805492909116919092161790556106ec8061008f6000396000f3fe6080604052600436106100595760003560e01c80635e280f11116100435780635e280f11146101f5578063647846a51461020a578063d120b3db1461021f57610059565b80621d35671461005e5780633c93adee146101b7575b600080fd5b34801561006a57600080fd5b506101b56004803603608081101561008157600080fd5b61ffff82351691908101906040810160208201356401000000008111156100a757600080fd5b8201836020820111156100b957600080fd5b803590602001918460018302840111640100000000831117156100db57600080fd5b91908080601f016020809104026020016040519081016040528093929190818152602001838380828437600092019190915250929567ffffffffffffffff85351695909490935060408101925060200135905064010000000081111561014057600080fd5b82018360208201111561015257600080fd5b8035906020019184600183028401116401000000008311171561017457600080fd5b91908080601f016020809104026020016040519081016040528093929190818152602001838380828437600092019190915250929550610374945050505050565b005b3480156101c357600080fd5b506101cc61037a565b6040805173ffffffffffffffffffffffffffffffffffffffff9092168252519081900360200190f35b34801561020157600080fd5b506101cc610396565b34801561021657600080fd5b506101cc6103b2565b6101b5600480360360a081101561023557600080fd5b61ffff8235169173ffffffffffffffffffffffffffffffffffffffff6020820135169181019060608101604082013564010000000081111561027657600080fd5b82018360208201111561028857600080fd5b803590602001918460018302840111640100000000831117156102aa57600080fd5b91908080601f01602080910402602001604051908101604052809392919081815260200183838082843760009201919091525092959493602081019350359150506401000000008111156102fd57600080fd5b82018360208201111561030f57600080fd5b8035906020019184600183028401116401000000008311171561033157600080fd5b91908080601f01602080910402602001604051908101604052809392919081815260200183838082843760009201919091525092955050913592506103ce915050565b50505050565b60025473ffffffffffffffffffffffffffffffffffffffff1681565b60005473ffffffffffffffffffffffffffffffffffffffff1681565b60015473ffffffffffffffffffffffffffffffffffffffff1681565b600154600254604080517f23b872dd00000000000000000000000000000000000000000000000000000000815233600482015273ffffffffffffffffffffffffffffffffffffffff928316602482015260448101859052905191909216916323b872dd9160648083019260209291908290030181600087803b15801561045357600080fd5b505af1158015610467573d6000803e3d6000fd5b505050506040513d602081101561047d57600080fd5b505060408051606086811b7fffffffffffffffffffffffffffffffffffffffff000000000000000000000000166020808401919091523090911b6034830152825180830360280181526048830193849052600080547fc58031000000000000000000000000000000000000000000000000000000000090955261ffff8a16604c85019081523360ac860181905260cc860183905260c0606c8701908152845161010c8801528451949773ffffffffffffffffffffffffffffffffffffffff169663c5803100968e968a968e9690948e9491939092608c83019260ec81019261012c90910191908b01908083838b5b8381101561058357818101518382015260200161056b565b50505050905090810190601f1680156105b05780820380516001836020036101000a031916815260200191505b5084810383528851815288516020918201918a019080838360005b838110156105e35781810151838201526020016105cb565b50505050905090810190601f1680156106105780820380516001836020036101000a031916815260200191505b50848103825285518152855160209182019187019080838360005b8381101561064357818101518382015260200161062b565b50505050905090810190601f1680156106705780820380516001836020036101000a031916815260200191505b509950505050505050505050600060405180830381600087803b15801561069657600080fd5b505af11580156106aa573d6000803e3d6000fd5b5050505050505050505056fea264697066735822122090425e0a7759f750952ebcf5654c31c4636f322a10c9765a42529252c03912c064736f6c63430007060033",
  "linkReferences": {},
  "deployedLinkReferences": {}
}