{
  "_format": "hh-sol-artifact-1",
  "contractName": "MPTValidator",
  "sourceName": "contracts/proof/MPTValidator.sol",
  "abi": [
    {
      "inputs": [],
      "name": "PACKET_SIGNATURE",
      "outputs": [
        {
          "internalType": "bytes32",
          "name": "",
          "type": "bytes32"
        }
      ],
      "stateMutability": "view",
      "type": "function"
    },
    {
      "inputs": [
        {
          "internalType": "bytes32",
          "name": "hashRoot",
          "type": "bytes32"
        },
        {
          "internalType": "uint256",
          "name": "receiptSlotIndex",
          "type": "uint256"
        },
        {
          "internalType": "uint256",
          "name": "logIndex",
          "type": "uint256"
        },
        {
          "internalType": "bytes[]",
          "name": "proof",
          "type": "bytes[]"
        },
        {
          "internalType": "uint256[]",
          "name": "pointers",
          "type": "uint256[]"
        }
      ],
      "name": "getVerifyLog",
      "outputs": [
        {
          "components": [
            {
              "internalType": "bytes32",
              "name": "contractAddress",
              "type": "bytes32"
            },
            {
              "internalType": "bytes32",
              "name": "topicZeroSig",
              "type": "bytes32"
            },
            {
              "internalType": "bytes",
              "name": "data",
              "type": "bytes"
            }
          ],
          "internalType": "struct MPTValidator.ULNLog",
          "name": "",
          "type": "tuple"
        }
      ],
      "stateMutability": "pure",
      "type": "function"
    },
    {
      "inputs": [
        {
          "internalType": "bytes32",
          "name": "_receiptsRoot",
          "type": "bytes32"
        },
        {
          "internalType": "bytes",
          "name": "_transactionProof",
          "type": "bytes"
        },
        {
          "internalType": "uint256",
          "name": "_remoteAddressSize",
          "type": "uint256"
        }
      ],
      "name": "validateProof",
      "outputs": [
        {
          "components": [
            {
              "internalType": "uint16",
              "name": "srcChainId",
              "type": "uint16"
            },
            {
              "internalType": "uint16",
              "name": "dstChainId",
              "type": "uint16"
            },
            {
              "internalType": "uint64",
              "name": "nonce",
              "type": "uint64"
            },
            {
              "internalType": "address",
              "name": "dstAddress",
              "type": "address"
            },
            {
              "internalType": "bytes",
              "name": "srcAddress",
              "type": "bytes"
            },
            {
              "internalType": "bytes32",
              "name": "ulnAddress",
              "type": "bytes32"
            },
            {
              "internalType": "bytes",
              "name": "payload",
              "type": "bytes"
            }
          ],
          "internalType": "struct LayerZeroPacket.Packet",
          "name": "packet",
          "type": "tuple"
        }
      ],
      "stateMutability": "pure",
      "type": "function"
    }
  ],
  "bytecode": "0x608060405234801561001057600080fd5b50611469806100206000396000f3fe608060405234801561001057600080fd5b50600436106100415760003560e01c8063b71e0f7114610046578063be9d395e1461006f578063fa3ebe1314610084575b600080fd5b610059610054366004611060565b6100a4565b60405161006691906112c0565b60405180910390f35b610077610163565b604051610066919061124b565b6100976100923660046110dd565b610187565b6040516100669190611350565b6100ac610e8e565b6000808080806100be888a018a61115b565b9450945094509450945060006100d78b848488886101a6565b60208101519091507fe8d23d927749ec8e512eb885679c2977d57068839d8cca1a85685dbbea0648f614610140576040517f08c379a000000000000000000000000000000000000000000000000000000000815260040161013790611254565b60405180910390fd5b6101548160400151878a8460000151610306565b9b9a5050505050505050505050565b7fe8d23d927749ec8e512eb885679c2977d57068839d8cca1a85685dbbea0648f681565b61018f610ecc565b61019c86868686866101a6565b9695505050505050565b6101ae610ecc565b6000606060005b8551811015610245578581815181106101ca57fe5b6020026020010151915081805190602001208914610214576040517f08c379a000000000000000000000000000000000000000000000000000000000815260040161013790611289565b845181101561023d5784818151811061022957fe5b602002602001015192506020838301015198505b6001016101b5565b506000610259610254836103fc565b610474565b805190915060009061026b908a610520565b9050610279610254826105e9565b915061028482610675565b5061028e82610675565b5061029882610675565b506102af610254896102a985610675565b90610520565b91506102b9610ecc565b6102ca6102c584610675565b610725565b81526102dd6102c560006102a986610675565b60208201526102f36102ee84610675565b610842565b60408201529a9950505050505050505050565b61030e610e8e565b602085015160608601516068870151858801607c0151919061032e610eeb565b610338818961096f565b506103488160008c60888c6109a9565b5060006103608961035a866014610a65565b90610a65565b905061036a610eeb565b610374818361096f565b5061039060008d6103868d609c610adc565b84929190866109a9565b506040805160e08101825261ffff808e16825298909816602089015267ffffffffffffffff909416938701939093525073ffffffffffffffffffffffffffffffffffffffff9093166060850152915160808401525060a082018490525160c08201529050949350505050565b610404610f05565b602082018051835160009190911a908015801590610425575060c060ff8316105b1561045457600192909201917fffffffffffffffffffffffffffffffffffffffffffffffffffffffffffffffff015b60405180604001604052808281526020018481525093505050505b919050565b61047c610f1f565b61048582610b57565b6104f057604080517f08c379a000000000000000000000000000000000000000000000000000000000815260206004820152601f60248201527f524c504465636f646572206974657261746f72206973206e6f74206c69737400604482015290519081900360640190fd5b60006104ff8360200151610b91565b60208085015160408051808201909152868152920190820152915050919050565b610528610f05565b61053183610b57565b610586576040517f08c379a00000000000000000000000000000000000000000000000000000000081526004018080602001828103825260218152602001806113f26021913960400191505060405180910390fd5b60006105958460200151610b91565b60208501510190506000805b848110156105c0576105b283610c30565b9283019291506001016105a1565b506105ca82610c30565b6040805180820190915290815260208101929092525090505b92915050565b6105f1610f05565b60006106008360200151610b91565b60208401518451908201805192935060009290921a91908015801590610629575060c060ff8416105b1561065857600191909101907fffffffffffffffffffffffffffffffffffffffffffffffffffffffffffffffff015b604080518082019091529081526020810191909152949350505050565b61067d610f05565b61068682610d05565b6106f157604080517f08c379a000000000000000000000000000000000000000000000000000000000815260206004820152601f60248201527f524c504465636f646572206974657261746f7220686173206e6f206e65787400604482015290519081900360640190fd5b6020820151600061070182610c30565b80830160209586015260408051808201909152908152938401919091525090919050565b80516000901580159061073a57508151602110155b6107a557604080517f08c379a000000000000000000000000000000000000000000000000000000000815260206004820181905260248201527f524c504465636f64657220746f55696e7420696e76616c6964206c656e677468604482015290519081900360640190fd5b60006107b48360200151610b91565b90508083600001511015610813576040517f08c379a00000000000000000000000000000000000000000000000000000000081526004018080602001828103825260288152602001806113ca6028913960400191505060405180910390fd5b82516020808501518301805192849003929183101561083957826020036101000a820491505b50949350505050565b805160609061089c576040517f08c379a00000000000000000000000000000000000000000000000000000000081526004018080602001828103825260218152602001806114136021913960400191505060405180910390fd5b60006108ab8360200151610b91565b9050808360000151101561090a576040517f08c379a00000000000000000000000000000000000000000000000000000000081526004018080602001828103825260288152602001806113ca6028913960400191505060405180910390fd5b825181900360008167ffffffffffffffff8111801561092857600080fd5b506040519080825280601f01601f191660200182016040528015610953576020820181803683370190505b5090506000816020019050610839848760200151018285610d1a565b610977610eeb565b602082061561098c5760208206602003820191505b506020828101829052604080518085526000815290920101905290565b6109b1610eeb565b856020015182860111156109db576109db866109d38860200151888601610d83565b600202610d9a565b6000808751805188602083010193508089870111156109fa5788860182525b5050508484015b60208410610a205780518252601f199093019260209182019101610a01565b5181517fffffffffffffffffffffffffffffffffffffffffffffffffffffffffffffffff60208690036101000a01908116901991909116179052508495945050505050565b600082821115610ad657604080517f08c379a000000000000000000000000000000000000000000000000000000000815260206004820152601e60248201527f536166654d6174683a207375627472616374696f6e206f766572666c6f770000604482015290519081900360640190fd5b50900390565b600082820183811015610b5057604080517f08c379a000000000000000000000000000000000000000000000000000000000815260206004820152601b60248201527f536166654d6174683a206164646974696f6e206f766572666c6f770000000000604482015290519081900360640190fd5b9392505050565b8051600090610b685750600061046f565b6020820151805160001a9060c0821015610b875760009250505061046f565b5060019392505050565b8051600090811a6080811015610bab57600091505061046f565b60b8811080610bc6575060c08110801590610bc6575060f881105b15610bd557600191505061046f565b60c0811015610c07577fffffffffffffffffffffffffffffffffffffffffffffffffffffffffffffff4a01905061046f565b7fffffffffffffffffffffffffffffffffffffffffffffffffffffffffffffff0a01905061046f565b80516000908190811a6080811015610c4b5760019150610cfe565b60b8811015610c7e577fffffffffffffffffffffffffffffffffffffffffffffffffffffffffffffff8181019150610cfe565b60c0811015610cab5760b78103600185019450806020036101000a85510460018201810193505050610cfe565b60f8811015610cde577fffffffffffffffffffffffffffffffffffffffffffffffffffffffffffffff4181019150610cfe565b60f78103600185019450806020036101000a855104600182018101935050505b5092915050565b80518051602091820151919092015191011190565b80610d2457610d7e565b5b60208110610d44578251825260209283019290910190601f1901610d25565b8251825160208390036101000a7fffffffffffffffffffffffffffffffffffffffffffffffffffffffffffffffff01801990921691161782525b505050565b600081831115610d945750816105e3565b50919050565b8151610da6838361096f565b50610db18382610db7565b50505050565b610dbf610eeb565b610b5083846000015151848551610dd4610eeb565b8251821115610de257600080fd5b84602001518285011115610e0457610e04856109d38760200151878601610d83565b600080865180518760208301019350808887011115610e235787860182525b505050602084015b60208410610e4a5780518252601f199093019260209182019101610e2b565b5181517fffffffffffffffffffffffffffffffffffffffffffffffffffffffffffffffff60208690036101000a019081169019919091161790525083949350505050565b6040805160e08101825260008082526020820181905291810182905260608082018390526080820181905260a082019290925260c081019190915290565b6040805160608082018352600080835260208301529181019190915290565b604051806040016040528060608152602001600081525090565b604051806040016040528060008152602001600081525090565b6040518060400160405280610f32610f05565b8152602001600081525090565b6000601f8381840112610f50578182fd5b82356020610f65610f60836113ab565b611387565b82815281810190868301865b85811015610feb57813589018a603f820112610f8b578889fd5b85810135604067ffffffffffffffff821115610fa357fe5b610fb488601f198c85011601611387565b8281528d82848601011115610fc7578b8cfd5b828285018a83013791820188018b9052508552509284019290840190600101610f71565b509098975050505050505050565b600082601f830112611009578081fd5b81356020611019610f60836113ab565b8281528181019085830183850287018401881015611035578586fd5b855b8581101561105357813584529284019290840190600101611037565b5090979650505050505050565b60008060008060608587031215611075578384fd5b84359350602085013567ffffffffffffffff80821115611093578485fd5b818701915087601f8301126110a6578485fd5b8135818111156110b4578586fd5b8860208285010111156110c5578586fd5b95986020929092019750949560400135945092505050565b600080600080600060a086880312156110f4578081fd5b853594506020860135935060408601359250606086013567ffffffffffffffff80821115611120578283fd5b61112c89838a01610f3f565b93506080880135915080821115611141578283fd5b5061114e88828901610ff9565b9150509295509295909350565b600080600080600060a08688031215611172578081fd5b853561ffff81168114611183578182fd5b9450602086013567ffffffffffffffff8082111561119f578283fd5b6111ab89838a01610f3f565b955060408801359150808211156111c0578283fd5b506111cd88828901610ff9565b9598949750949560608101359550608001359392505050565b73ffffffffffffffffffffffffffffffffffffffff169052565b60008151808452815b8181101561122557602081850181015186830182015201611209565b818111156112365782602083870101525b50601f01601f19169290920160200192915050565b90815260200190565b6020808252818101527f4c617965725a65726f3a207061636b6574206e6f74207265636f676e697a6564604082015260600190565b6020808252601b908201527f4c617965725a65726f3a20696e76616c696420686173686c696e6b0000000000604082015260600190565b60006020825261ffff8084511660208401528060208501511660408401525067ffffffffffffffff6040840151166060830152606083015161130560808401826111e6565b50608083015160e060a0840152611320610100840182611200565b905060a084015160c084015260c0840151601f198483030160e08501526113478282611200565b95945050505050565b6000602082528251602083015260208301516040830152604083015160608084015261137f6080840182611200565b949350505050565b60405181810167ffffffffffffffff811182821017156113a357fe5b604052919050565b600067ffffffffffffffff8211156113bf57fe5b506020908102019056fe524c504465636f6465723a20696e76616c696420524c50206974656d206f66667365742073697a65524c504465636f646572206974657261746f72206973206e6f742061206c697374524c504465636f64657220746f427974657320696e76616c6964206c656e677468a26469706673582212202aa35137ff2c5a8faa726691263d9b7e776e173183f0dc12cbd584184ff914d964736f6c63430007060033",
  "linkReferences": {},
  "deployedLinkReferences": {}
}