{
  "address": "0xDcc1A1a26807c687300A63A72eF111F6fe994068",
  "abi": [
    {
      "inputs": [
        {
          "internalType": "address",
          "name": "_ulnv2",
          "type": "address"
        }
      ],
      "stateMutability": "nonpayable",
      "type": "constructor"
    },
    {
      "anonymous": false,
      "inputs": [
        {
          "indexed": false,
          "internalType": "bool",
          "name": "feeEnabled",
          "type": "bool"
        }
      ],
      "name": "FeeEnabled",
      "type": "event"
    },
    {
      "anonymous": false,
      "inputs": [
        {
          "indexed": false,
          "internalType": "uint256",
          "name": "bp",
          "type": "uint256"
        }
      ],
      "name": "NativeBP",
      "type": "event"
    },
    {
      "anonymous": false,
      "inputs": [
        {
          "indexed": true,
          "internalType": "address",
          "name": "previousOwner",
          "type": "address"
        },
        {
          "indexed": true,
          "internalType": "address",
          "name": "newOwner",
          "type": "address"
        }
      ],
      "name": "OwnershipTransferred",
      "type": "event"
    },
    {
      "anonymous": false,
      "inputs": [
        {
          "indexed": false,
          "internalType": "bool",
          "name": "zroEnabled",
          "type": "bool"
        }
      ],
      "name": "ZroEnabled",
      "type": "event"
    },
    {
      "anonymous": false,
      "inputs": [
        {
          "indexed": false,
          "internalType": "uint256",
          "name": "zroFee",
          "type": "uint256"
        }
      ],
      "name": "ZroFee",
      "type": "event"
    },
    {
      "inputs": [],
      "name": "feeEnabled",
      "outputs": [
        {
          "internalType": "bool",
          "name": "",
          "type": "bool"
        }
      ],
      "stateMutability": "view",
      "type": "function"
    },
    {
      "inputs": [
        {
          "internalType": "bool",
          "name": "payInZro",
          "type": "bool"
        },
        {
          "internalType": "uint256",
          "name": "relayerFee",
          "type": "uint256"
        },
        {
          "internalType": "uint256",
          "name": "oracleFee",
          "type": "uint256"
        }
      ],
      "name": "getFees",
      "outputs": [
        {
          "internalType": "uint256",
          "name": "",
          "type": "uint256"
        }
      ],
      "stateMutability": "view",
      "type": "function"
    },
    {
      "inputs": [],
      "name": "nativeBP",
      "outputs": [
        {
          "internalType": "uint256",
          "name": "",
          "type": "uint256"
        }
      ],
      "stateMutability": "view",
      "type": "function"
    },
    {
      "inputs": [],
      "name": "owner",
      "outputs": [
        {
          "internalType": "address",
          "name": "",
          "type": "address"
        }
      ],
      "stateMutability": "view",
      "type": "function"
    },
    {
      "inputs": [],
      "name": "renounceOwnership",
      "outputs": [],
      "stateMutability": "nonpayable",
      "type": "function"
    },
    {
      "inputs": [
        {
          "internalType": "bool",
          "name": "_feeEnabled",
          "type": "bool"
        }
      ],
      "name": "setFeeEnabled",
      "outputs": [],
      "stateMutability": "nonpayable",
      "type": "function"
    },
    {
      "inputs": [
        {
          "internalType": "uint256",
          "name": "_nativeBP",
          "type": "uint256"
        }
      ],
      "name": "setNativeBP",
      "outputs": [],
      "stateMutability": "nonpayable",
      "type": "function"
    },
    {
      "inputs": [
        {
          "internalType": "bool",
          "name": "_zroEnabled",
          "type": "bool"
        }
      ],
      "name": "setZroEnabled",
      "outputs": [],
      "stateMutability": "nonpayable",
      "type": "function"
    },
    {
      "inputs": [
        {
          "internalType": "uint256",
          "name": "_zroFee",
          "type": "uint256"
        }
      ],
      "name": "setZroFee",
      "outputs": [],
      "stateMutability": "nonpayable",
      "type": "function"
    },
    {
      "inputs": [
        {
          "internalType": "address",
          "name": "newOwner",
          "type": "address"
        }
      ],
      "name": "transferOwnership",
      "outputs": [],
      "stateMutability": "nonpayable",
      "type": "function"
    },
    {
      "inputs": [],
      "name": "uln",
      "outputs": [
        {
          "internalType": "contract ILayerZeroUltraLightNodeV2",
          "name": "",
          "type": "address"
        }
      ],
      "stateMutability": "view",
      "type": "function"
    },
    {
      "inputs": [
        {
          "internalType": "address payable",
          "name": "_to",
          "type": "address"
        },
        {
          "internalType": "uint256",
          "name": "_amount",
          "type": "uint256"
        }
      ],
      "name": "withdrawNativeFromULN",
      "outputs": [],
      "stateMutability": "nonpayable",
      "type": "function"
    },
    {
      "inputs": [
        {
          "internalType": "address",
          "name": "_to",
          "type": "address"
        },
        {
          "internalType": "uint256",
          "name": "_amount",
          "type": "uint256"
        }
      ],
      "name": "withdrawZROFromULN",
      "outputs": [],
      "stateMutability": "nonpayable",
      "type": "function"
    },
    {
      "inputs": [],
      "name": "zroEnabled",
      "outputs": [
        {
          "internalType": "bool",
          "name": "",
          "type": "bool"
        }
      ],
      "stateMutability": "view",
      "type": "function"
    },
    {
      "inputs": [],
      "name": "zroFee",
      "outputs": [
        {
          "internalType": "uint256",
          "name": "",
          "type": "uint256"
        }
      ],
      "stateMutability": "view",
      "type": "function"
    }
  ],
  "transactionHash": "0x4ef013732e0544c58314cc9d959cac0ce05372cd947d29fd16a3b613df6c0269",
  "args": [
    "0xbE4fB271cfB7bcbB47EA9573321c7bfe309fc220"
  ],
  "numDeployments": 1,
  "solcInputHash": "29436b776c0d676f6ac3d2c6c69869cf",
  "bytecode": "0x608060405234801561001057600080fd5b50604051610bfb380380610bfb8339818101604052602081101561003357600080fd5b5051600061003f6100b6565b600080546001600160a01b0319166001600160a01b0383169081178255604051929350917f8be0079c531659141344cd1fd0a4f28419497f9722a3daafe3b4186f6b6457e0908290a350600380546001600160a01b03909216620100000262010000600160b01b03199092169190911790556100ba565b3390565b610b32806100c96000396000f3fe608060405234801561001057600080fd5b50600436106100f55760003560e01c80638da5cb5b11610097578063baead4cc11610066578063baead4cc1461022d578063d684b2531461024a578063d935d12314610269578063f2fde38b14610271576100f5565b80638da5cb5b146101f957806396a141a014610201578063a771ebc714610209578063af406aa514610225576100f5565b80636c473aff116100d35780636c473aff14610184578063715018a6146101a85780637ba20ccf146101b05780638c616397146101cd576100f5565b80630db474fa146100fa5780633c5ac8f71461011b5780635cbbbd7514610147575b600080fd5b6101196004803603602081101561011057600080fd5b50351515610297565b005b6101196004803603604081101561013157600080fd5b506001600160a01b038135169060200135610340565b6101726004803603606081101561015d57600080fd5b5080351515906020810135906040013561041a565b60408051918252519081900360200190f35b61018c6104d0565b604080516001600160a01b039092168252519081900360200190f35b6101196104e5565b610119600480360360208110156101c657600080fd5b5035610591565b610119600480360360408110156101e357600080fd5b506001600160a01b03813516906020013561062e565b61018c6106ec565b6101726106fb565b610211610701565b604080519115158252519081900360200190f35b61017261070a565b6101196004803603602081101561024357600080fd5b5035610710565b6101196004803603602081101561026057600080fd5b503515156107ad565b61021161085e565b6101196004803603602081101561028757600080fd5b50356001600160a01b031661086c565b61029f61096e565b6001600160a01b03166102b06106ec565b6001600160a01b0316146102f9576040805162461bcd60e51b81526020600482018190526024820152600080516020610add833981519152604482015290519081900360640190fd5b6003805482151560ff19909116811790915560408051918252517fe97fa32ceb811a18d1b14115b17ae0034db328b2e2ca987d9922cbf47b03fad69181900360200190a150565b61034861096e565b6001600160a01b03166103596106ec565b6001600160a01b0316146103a2576040805162461bcd60e51b81526020600482018190526024820152600080516020610add833981519152604482015290519081900360640190fd5b600354604080516303d8c5ef60e11b81526001600160a01b03858116600483015260248201859052915162010000909304909116916307b18bde9160448082019260009290919082900301818387803b1580156103fe57600080fd5b505af1158015610412573d6000803e3d6000fd5b505050505050565b60035460009060ff16156104c557831561049357600354610100900460ff1661048a576040805162461bcd60e51b815260206004820152601d60248201527f4c617965725a65726f3a205a524f206973206e6f7420656e61626c6564000000604482015290519081900360640190fd5b506002546104c9565b6104be6127106104b86001546104b2868861097290919063ffffffff16565b906109d5565b90610a2e565b90506104c9565b5060005b9392505050565b6003546201000090046001600160a01b031681565b6104ed61096e565b6001600160a01b03166104fe6106ec565b6001600160a01b031614610547576040805162461bcd60e51b81526020600482018190526024820152600080516020610add833981519152604482015290519081900360640190fd5b600080546040516001600160a01b03909116907f8be0079c531659141344cd1fd0a4f28419497f9722a3daafe3b4186f6b6457e0908390a3600080546001600160a01b0319169055565b61059961096e565b6001600160a01b03166105aa6106ec565b6001600160a01b0316146105f3576040805162461bcd60e51b81526020600482018190526024820152600080516020610add833981519152604482015290519081900360640190fd5b60028190556040805182815290517f804d99c2291bc4a6be11ff016f65cfc644f8d488ef55a5318d0217a1fdc4e9fd9181900360200190a150565b61063661096e565b6001600160a01b03166106476106ec565b6001600160a01b031614610690576040805162461bcd60e51b81526020600482018190526024820152600080516020610add833981519152604482015290519081900360640190fd5b60035460408051638525b71160e01b81526001600160a01b0385811660048301526024820185905291516201000090930490911691638525b7119160448082019260009290919082900301818387803b1580156103fe57600080fd5b6000546001600160a01b031690565b60015481565b60035460ff1681565b60025481565b61071861096e565b6001600160a01b03166107296106ec565b6001600160a01b031614610772576040805162461bcd60e51b81526020600482018190526024820152600080516020610add833981519152604482015290519081900360640190fd5b60018190556040805182815290517ff2a316ed322d32481373e7ed416bc6c1ec2afcfa3bf2f1df9eb4300e1a9620e39181900360200190a150565b6107b561096e565b6001600160a01b03166107c66106ec565b6001600160a01b03161461080f576040805162461bcd60e51b81526020600482018190526024820152600080516020610add833981519152604482015290519081900360640190fd5b60038054821515610100810261ff00199092169190911790915560408051918252517f279d3ec34d7b325d10d4b9d6c63464877a6fe6ac3997f7508bdb3b9d2d5050b39181900360200190a150565b600354610100900460ff1681565b61087461096e565b6001600160a01b03166108856106ec565b6001600160a01b0316146108ce576040805162461bcd60e51b81526020600482018190526024820152600080516020610add833981519152604482015290519081900360640190fd5b6001600160a01b0381166109135760405162461bcd60e51b8152600401808060200182810382526026815260200180610a966026913960400191505060405180910390fd5b600080546040516001600160a01b03808516939216917f8be0079c531659141344cd1fd0a4f28419497f9722a3daafe3b4186f6b6457e091a3600080546001600160a01b0319166001600160a01b0392909216919091179055565b3390565b6000828201838110156109cc576040805162461bcd60e51b815260206004820152601b60248201527f536166654d6174683a206164646974696f6e206f766572666c6f770000000000604482015290519081900360640190fd5b90505b92915050565b6000826109e4575060006109cf565b828202828482816109f157fe5b04146109cc5760405162461bcd60e51b8152600401808060200182810382526021815260200180610abc6021913960400191505060405180910390fd5b6000808211610a84576040805162461bcd60e51b815260206004820152601a60248201527f536166654d6174683a206469766973696f6e206279207a65726f000000000000604482015290519081900360640190fd5b818381610a8d57fe5b04939250505056fe4f776e61626c653a206e6577206f776e657220697320746865207a65726f2061646472657373536166654d6174683a206d756c7469706c69636174696f6e206f766572666c6f774f776e61626c653a2063616c6c6572206973206e6f7420746865206f776e6572a2646970667358221220b284d18970d833b13db6c0f5bf8c212b821977482ecc710d2a7e57107861182264736f6c63430007060033",
  "devdoc": {
    "kind": "dev",
    "methods": {
      "owner()": {
        "details": "Returns the address of the current owner."
      },
      "renounceOwnership()": {
        "details": "Leaves the contract without owner. It will not be possible to call `onlyOwner` functions anymore. Can only be called by the current owner. NOTE: Renouncing ownership will leave the contract without an owner, thereby removing any functionality that is only available to the owner."
      },
      "transferOwnership(address)": {
        "details": "Transfers ownership of the contract to a new account (`newOwner`). Can only be called by the current owner."
      }
    },
    "version": 1
  },
  "userdoc": {
    "kind": "user",
    "methods": {},
    "version": 1
  },
  "storageLayout": {
    "storage": [
      {
        "astId": 493,
        "contract": "contracts/TreasuryV2Radar.sol:TreasuryV2Radar",
        "label": "_owner",
        "offset": 0,
        "slot": "0",
        "type": "t_address"
      },
      {
        "astId": 6818,
        "contract": "contracts/TreasuryV2Radar.sol:TreasuryV2Radar",
        "label": "nativeBP",
        "offset": 0,
        "slot": "1",
        "type": "t_uint256"
      },
      {
        "astId": 6820,
        "contract": "contracts/TreasuryV2Radar.sol:TreasuryV2Radar",
        "label": "zroFee",
        "offset": 0,
        "slot": "2",
        "type": "t_uint256"
      },
      {
        "astId": 6822,
        "contract": "contracts/TreasuryV2Radar.sol:TreasuryV2Radar",
        "label": "feeEnabled",
        "offset": 0,
        "slot": "3",
        "type": "t_bool"
      },
      {
        "astId": 6824,
        "contract": "contracts/TreasuryV2Radar.sol:TreasuryV2Radar",
        "label": "zroEnabled",
        "offset": 1,
        "slot": "3",
        "type": "t_bool"
      },
      {
        "astId": 6826,
        "contract": "contracts/TreasuryV2Radar.sol:TreasuryV2Radar",
        "label": "uln",
        "offset": 2,
        "slot": "3",
        "type": "t_contract(ILayerZeroUltraLightNodeV2)13665"
      }
    ],
    "types": {
      "t_address": {
        "encoding": "inplace",
        "label": "address",
        "numberOfBytes": "20"
      },
      "t_bool": {
        "encoding": "inplace",
        "label": "bool",
        "numberOfBytes": "1"
      },
      "t_contract(ILayerZeroUltraLightNodeV2)13665": {
        "encoding": "inplace",
        "label": "contract ILayerZeroUltraLightNodeV2",
        "numberOfBytes": "20"
      },
      "t_uint256": {
        "encoding": "inplace",
        "label": "uint256",
        "numberOfBytes": "32"
      }
    }
  }
}