{
  "address": "0x5f0d086EBB8D2315388F44b52659C3370dc8e065",
  "abi": [
    {
      "inputs": [
        {
          "internalType": "address",
          "name": "_endpoint",
          "type": "address"
        }
      ],
      "stateMutability": "nonpayable",
      "type": "constructor"
    },
    {
      "anonymous": false,
      "inputs": [
        {
          "indexed": true,
          "internalType": "bytes32",
          "name": "message",
          "type": "bytes32"
        }
      ],
      "name": "Message",
      "type": "event"
    },
    {
      "inputs": [],
      "name": "endpoint",
      "outputs": [
        {
          "internalType": "contract ILayerZeroEndpoint",
          "name": "",
          "type": "address"
        }
      ],
      "stateMutability": "view",
      "type": "function"
    },
    {
      "inputs": [
        {
          "internalType": "uint16",
          "name": "",
          "type": "uint16"
        },
        {
          "internalType": "bytes",
          "name": "_fromAddress",
          "type": "bytes"
        },
        {
          "internalType": "uint64",
          "name": "",
          "type": "uint64"
        },
        {
          "internalType": "bytes",
          "name": "_payload",
          "type": "bytes"
        }
      ],
      "name": "lzReceive",
      "outputs": [],
      "stateMutability": "nonpayable",
      "type": "function"
    },
    {
      "inputs": [],
      "name": "messageComplete",
      "outputs": [
        {
          "internalType": "bool",
          "name": "",
          "type": "bool"
        }
      ],
      "stateMutability": "view",
      "type": "function"
    },
    {
      "inputs": [
        {
          "internalType": "uint256",
          "name": "gasAmountForDst",
          "type": "uint256"
        },
        {
          "internalType": "uint16[]",
          "name": "chainIds",
          "type": "uint16[]"
        },
        {
          "internalType": "bytes[]",
          "name": "dstAddresses",
          "type": "bytes[]"
        }
      ],
      "name": "sendFirstMessage",
      "outputs": [],
      "stateMutability": "payable",
      "type": "function"
    }
  ],
  "transactionHash": "0xa14e319bd8cd2696ba0f17cd267d41ab7e51f830c4a98bdac2571e041d10419e",
  "args": [
    "0xf69186dfBa60DdB133E91E9A4B5673624293d8F8"
  ],
  "numDeployments": 1,
  "solcInputHash": "93dbef87ce2871a69f63185467af4c3b",
  "bytecode": "0x608060405234801561001057600080fd5b5060405161087d38038061087d83398101604081905261002f9161005a565b600080546001600160a01b0390921661010002610100600160a81b0319909216919091179055610088565b60006020828403121561006b578081fd5b81516001600160a01b0381168114610081578182fd5b9392505050565b6107e6806100976000396000f3fe60806040526004361061003e5760003560e01c80621d35671461004357806306aaa907146100655780635e280f111461009057806362da05cb146100b2575b600080fd5b34801561004f57600080fd5b5061006361005e366004610471565b6100c5565b005b34801561007157600080fd5b5061007a610150565b6040516100879190610619565b60405180910390f35b34801561009c57600080fd5b506100a5610159565b6040516100879190610624565b6100636100c03660046104fb565b61017a565b600054610100900473ffffffffffffffffffffffffffffffffffffffff1633146100ee57600080fd5b602081015160405181907f0e0baaba014023df9b5d9440d5ceb3bb339a70cf93635321b1e4e2e03832a71990600090a25050600080547fffffffffffffffffffffffffffffffffffffffffffffffffffffffffffffff00166001179055505050565b60005460ff1681565b600054610100900473ffffffffffffffffffffffffffffffffffffffff1681565b60005460ff16156101c0576040517f08c379a00000000000000000000000000000000000000000000000000000000081526004016101b790610645565b60405180910390fd5b6040516001906000906101d990839089906020016105e4565b604080517fffffffffffffffffffffffffffffffffffffffffffffffffffffffffffffffe08184030181529082905291507f54455354494e47000000000000000000000000000000000000000000000000009060009061023d9083906020016105db565b604080517fffffffffffffffffffffffffffffffffffffffffffffffffffffffffffffffe0818403018152919052905086600081348161027957fe5b04905060005b8981101561034f57600054610100900473ffffffffffffffffffffffffffffffffffffffff1663c5803100838d8d858181106102b757fe5b90506020020160208101906102cc9190610450565b8c8c868181106102d857fe5b90506020028101906102ea919061074d565b893360008e6040518963ffffffff1660e01b815260040161031197969594939291906106a2565b6000604051808303818588803b15801561032a57600080fd5b505af115801561033e573d6000803e3d6000fd5b50506001909301925061027f915050565b505050505050505050505050565b60008083601f84011261036e578081fd5b50813567ffffffffffffffff811115610385578182fd5b602083019150836020808302850101111561039f57600080fd5b9250929050565b600082601f8301126103b6578081fd5b813567ffffffffffffffff808211156103cb57fe5b60405160207fffffffffffffffffffffffffffffffffffffffffffffffffffffffffffffffe0601f850116820101818110838211171561040757fe5b60405282815284830160200186101561041e578384fd5b82602086016020830137918201602001929092529392505050565b803561ffff8116811461044b57600080fd5b919050565b600060208284031215610461578081fd5b61046a82610439565b9392505050565b60008060008060808587031215610486578283fd5b61048f85610439565b9350602085013567ffffffffffffffff808211156104ab578485fd5b6104b7888389016103a6565b94506040870135915080821682146104cd578384fd5b909250606086013590808211156104e2578283fd5b506104ef878288016103a6565b91505092959194509250565b600080600080600060608688031215610512578081fd5b85359450602086013567ffffffffffffffff80821115610530578283fd5b61053c89838a0161035d565b90965094506040880135915080821115610554578283fd5b506105618882890161035d565b969995985093965092949392505050565b60008151808452815b818110156105975760208185018101518683018201520161057b565b818111156105a85782602083870101525b50601f017fffffffffffffffffffffffffffffffffffffffffffffffffffffffffffffffe0169290920160200192915050565b90815260200190565b60f09290921b7fffff000000000000000000000000000000000000000000000000000000000000168252600282015260220190565b901515815260200190565b73ffffffffffffffffffffffffffffffffffffffff91909116815260200190565b60208082526034908201527f546865206669727374206d657373616765206f66204c617965725a65726f206860408201527f617320616c7265616479206265656e2073656e74000000000000000000000000606082015260800190565b600061ffff8916825260c060208301528660c0830152868860e08401378060e088840101527fffffffffffffffffffffffffffffffffffffffffffffffffffffffffffffffe0601f880116820160e083820301604084015261070760e0820188610572565b73ffffffffffffffffffffffffffffffffffffffff87811660608601528616608085015283810360a0850152905061073f8185610572565b9a9950505050505050505050565b60008083357fffffffffffffffffffffffffffffffffffffffffffffffffffffffffffffffe1843603018112610781578283fd5b83018035915067ffffffffffffffff82111561079b578283fd5b60200191503681900382131561039f57600080fdfea26469706673582212200635a2cdd8b210fcb77bdd992a2c9b929f20628667b61ff4f0ce614dfcb6303964736f6c63430007060033",
  "devdoc": {
    "kind": "dev",
    "methods": {},
    "version": 1
  },
  "userdoc": {
    "kind": "user",
    "methods": {},
    "version": 1
  },
  "storageLayout": {
    "storage": [
      {
        "astId": 11120,
        "contract": "contracts/mocks/GIN.sol:GIN",
        "label": "messageComplete",
        "offset": 0,
        "slot": "0",
        "type": "t_bool"
      },
      {
        "astId": 11122,
        "contract": "contracts/mocks/GIN.sol:GIN",
        "label": "endpoint",
        "offset": 1,
        "slot": "0",
        "type": "t_contract(ILayerZeroEndpoint)10862"
      }
    ],
    "types": {
      "t_bool": {
        "encoding": "inplace",
        "label": "bool",
        "numberOfBytes": "1"
      },
      "t_contract(ILayerZeroEndpoint)10862": {
        "encoding": "inplace",
        "label": "contract ILayerZeroEndpoint",
        "numberOfBytes": "20"
      }
    }
  }
}