{
  "address": "0x98098B5b92bB443FE3b1065dFa666C9D0C59F323",
  "abi": [
    {
      "inputs": [
        {
          "internalType": "address",
          "name": "_endpoint",
          "type": "address"
        }
      ],
      "stateMutability": "nonpayable",
      "type": "constructor"
    },
    {
      "anonymous": false,
      "inputs": [
        {
          "indexed": true,
          "internalType": "address",
          "name": "previousOwner",
          "type": "address"
        },
        {
          "indexed": true,
          "internalType": "address",
          "name": "newOwner",
          "type": "address"
        }
      ],
      "name": "OwnershipTransferred",
      "type": "event"
    },
    {
      "stateMutability": "payable",
      "type": "fallback"
    },
    {
      "inputs": [
        {
          "internalType": "uint16",
          "name": "_dstChainId",
          "type": "uint16"
        },
        {
          "internalType": "bytes",
          "name": "_payload",
          "type": "bytes"
        },
        {
          "internalType": "address payable",
          "name": "_refundAddress",
          "type": "address"
        },
        {
          "internalType": "address",
          "name": "_zroPaymentAddress",
          "type": "address"
        },
        {
          "internalType": "bytes",
          "name": "_adapterParams",
          "type": "bytes"
        }
      ],
      "name": "_incrementCounter",
      "outputs": [],
      "stateMutability": "payable",
      "type": "function"
    },
    {
      "inputs": [
        {
          "internalType": "address",
          "name": "token",
          "type": "address"
        },
        {
          "internalType": "address",
          "name": "spender",
          "type": "address"
        },
        {
          "internalType": "uint256",
          "name": "amount",
          "type": "uint256"
        }
      ],
      "name": "approveTokenSpender",
      "outputs": [],
      "stateMutability": "nonpayable",
      "type": "function"
    },
    {
      "inputs": [],
      "name": "endpoint",
      "outputs": [
        {
          "internalType": "contract ILayerZeroEndpoint",
          "name": "",
          "type": "address"
        }
      ],
      "stateMutability": "view",
      "type": "function"
    },
    {
      "inputs": [
        {
          "internalType": "uint16",
          "name": "_srcChainId",
          "type": "uint16"
        },
        {
          "internalType": "bytes",
          "name": "_srcAddress",
          "type": "bytes"
        }
      ],
      "name": "forceResumeReceive",
      "outputs": [],
      "stateMutability": "nonpayable",
      "type": "function"
    },
    {
      "inputs": [
        {
          "internalType": "uint16",
          "name": "",
          "type": "uint16"
        },
        {
          "internalType": "uint16",
          "name": "_chainId",
          "type": "uint16"
        },
        {
          "internalType": "address",
          "name": "",
          "type": "address"
        },
        {
          "internalType": "uint256",
          "name": "_configType",
          "type": "uint256"
        }
      ],
      "name": "getConfig",
      "outputs": [
        {
          "internalType": "bytes",
          "name": "",
          "type": "bytes"
        }
      ],
      "stateMutability": "view",
      "type": "function"
    },
    {
      "inputs": [],
      "name": "getCounter",
      "outputs": [
        {
          "internalType": "uint256",
          "name": "",
          "type": "uint256"
        }
      ],
      "stateMutability": "view",
      "type": "function"
    },
    {
      "inputs": [],
      "name": "getReceiveVersion",
      "outputs": [
        {
          "internalType": "uint16",
          "name": "",
          "type": "uint16"
        }
      ],
      "stateMutability": "view",
      "type": "function"
    },
    {
      "inputs": [],
      "name": "getSendVersion",
      "outputs": [
        {
          "internalType": "uint16",
          "name": "",
          "type": "uint16"
        }
      ],
      "stateMutability": "view",
      "type": "function"
    },
    {
      "inputs": [
        {
          "internalType": "uint16",
          "name": "_dstChainId",
          "type": "uint16"
        },
        {
          "internalType": "bytes",
          "name": "_adapterParams",
          "type": "bytes"
        },
        {
          "internalType": "bytes",
          "name": "payload",
          "type": "bytes"
        }
      ],
      "name": "incrementCounter",
      "outputs": [],
      "stateMutability": "payable",
      "type": "function"
    },
    {
      "inputs": [
        {
          "internalType": "uint16",
          "name": "_srcChainId",
          "type": "uint16"
        },
        {
          "internalType": "bytes",
          "name": "_fromAddress",
          "type": "bytes"
        },
        {
          "internalType": "uint64",
          "name": "",
          "type": "uint64"
        },
        {
          "internalType": "bytes",
          "name": "_payload",
          "type": "bytes"
        }
      ],
      "name": "lzReceive",
      "outputs": [],
      "stateMutability": "nonpayable",
      "type": "function"
    },
    {
      "inputs": [],
      "name": "messageCounter",
      "outputs": [
        {
          "internalType": "uint256",
          "name": "",
          "type": "uint256"
        }
      ],
      "stateMutability": "view",
      "type": "function"
    },
    {
      "inputs": [
        {
          "internalType": "uint16[]",
          "name": "_dstChainIds",
          "type": "uint16[]"
        },
        {
          "internalType": "bytes",
          "name": "_adapterParams",
          "type": "bytes"
        },
        {
          "internalType": "bytes",
          "name": "payload",
          "type": "bytes"
        }
      ],
      "name": "multiIncrementCounter",
      "outputs": [],
      "stateMutability": "payable",
      "type": "function"
    },
    {
      "inputs": [],
      "name": "owner",
      "outputs": [
        {
          "internalType": "address",
          "name": "",
          "type": "address"
        }
      ],
      "stateMutability": "view",
      "type": "function"
    },
    {
      "inputs": [],
      "name": "payInZRO",
      "outputs": [
        {
          "internalType": "bool",
          "name": "",
          "type": "bool"
        }
      ],
      "stateMutability": "view",
      "type": "function"
    },
    {
      "inputs": [
        {
          "internalType": "address",
          "name": "",
          "type": "address"
        }
      ],
      "name": "remoteAddressCounter",
      "outputs": [
        {
          "internalType": "uint256",
          "name": "",
          "type": "uint256"
        }
      ],
      "stateMutability": "view",
      "type": "function"
    },
    {
      "inputs": [],
      "name": "renounceOwnership",
      "outputs": [],
      "stateMutability": "nonpayable",
      "type": "function"
    },
    {
      "inputs": [
        {
          "internalType": "uint16",
          "name": "",
          "type": "uint16"
        },
        {
          "internalType": "uint16",
          "name": "_chainId",
          "type": "uint16"
        },
        {
          "internalType": "uint256",
          "name": "_configType",
          "type": "uint256"
        },
        {
          "internalType": "bytes",
          "name": "_config",
          "type": "bytes"
        }
      ],
      "name": "setConfig",
      "outputs": [],
      "stateMutability": "nonpayable",
      "type": "function"
    },
    {
      "inputs": [
        {
          "internalType": "uint16",
          "name": "remoteChainId",
          "type": "uint16"
        },
        {
          "internalType": "uint16",
          "name": "confirmations",
          "type": "uint16"
        }
      ],
      "name": "setInboundConfirmations",
      "outputs": [],
      "stateMutability": "nonpayable",
      "type": "function"
    },
    {
      "inputs": [
        {
          "internalType": "uint16",
          "name": "dstChainId",
          "type": "uint16"
        },
        {
          "internalType": "address",
          "name": "oracle",
          "type": "address"
        }
      ],
      "name": "setOracle",
      "outputs": [],
      "stateMutability": "nonpayable",
      "type": "function"
    },
    {
      "inputs": [
        {
          "internalType": "uint16",
          "name": "remoteChainId",
          "type": "uint16"
        },
        {
          "internalType": "uint16",
          "name": "confirmations",
          "type": "uint16"
        }
      ],
      "name": "setOutboundConfirmations",
      "outputs": [],
      "stateMutability": "nonpayable",
      "type": "function"
    },
    {
      "inputs": [
        {
          "internalType": "bool",
          "name": "_payInZRO",
          "type": "bool"
        }
      ],
      "name": "setPayInZRO",
      "outputs": [],
      "stateMutability": "nonpayable",
      "type": "function"
    },
    {
      "inputs": [
        {
          "internalType": "uint16",
          "name": "version",
          "type": "uint16"
        }
      ],
      "name": "setReceiveVersion",
      "outputs": [],
      "stateMutability": "nonpayable",
      "type": "function"
    },
    {
      "inputs": [
        {
          "internalType": "uint16",
          "name": "dstChainId",
          "type": "uint16"
        },
        {
          "internalType": "address",
          "name": "relayer",
          "type": "address"
        }
      ],
      "name": "setRelayer",
      "outputs": [],
      "stateMutability": "nonpayable",
      "type": "function"
    },
    {
      "inputs": [
        {
          "internalType": "uint16",
          "name": "version",
          "type": "uint16"
        }
      ],
      "name": "setSendVersion",
      "outputs": [],
      "stateMutability": "nonpayable",
      "type": "function"
    },
    {
      "inputs": [
        {
          "internalType": "uint16",
          "name": "_srcChainId",
          "type": "uint16"
        },
        {
          "internalType": "bytes",
          "name": "_srcAddress",
          "type": "bytes"
        }
      ],
      "name": "setTrustedRemote",
      "outputs": [],
      "stateMutability": "nonpayable",
      "type": "function"
    },
    {
      "inputs": [
        {
          "internalType": "address",
          "name": "newOwner",
          "type": "address"
        }
      ],
      "name": "transferOwnership",
      "outputs": [],
      "stateMutability": "nonpayable",
      "type": "function"
    },
    {
      "inputs": [
        {
          "internalType": "uint16",
          "name": "",
          "type": "uint16"
        }
      ],
      "name": "trustedRemoteLookup",
      "outputs": [
        {
          "internalType": "bytes",
          "name": "",
          "type": "bytes"
        }
      ],
      "stateMutability": "view",
      "type": "function"
    },
    {
      "stateMutability": "payable",
      "type": "receive"
    }
  ],
  "transactionHash": "0x7c6face0fb6504087090139d9b13cc76b663b5dfaa9b89054a6afbc13a3ffe64",
  "args": [
    "0xd682ECF100f6F4284138AA925348633B0611Ae21"
  ],
  "numDeployments": 1,
  "solcInputHash": "6f06e3209ee8689a407cf69d89ff23fe",
  "bytecode": "0x60806040523480156200001157600080fd5b5060405162002840380380620028408339810160408190526200003491620000b4565b600062000040620000b0565b600080546001600160a01b0319166001600160a01b0383169081178255604051929350917f8be0079c531659141344cd1fd0a4f28419497f9722a3daafe3b4186f6b6457e0908290a350600380546001600160a01b0319166001600160a01b0392909216919091179055620000e4565b3390565b600060208284031215620000c6578081fd5b81516001600160a01b0381168114620000dd578182fd5b9392505050565b61274c80620000f46000396000f3fe6080604052600436106101af5760003560e01c80636df65371116100ec578063cbed8b9c1161008a578063eb8d72b711610064578063eb8d72b7146104b2578063f0211f16146104d2578063f2fde38b146104f2578063f5ecbdbc1461051257610205565b8063cbed8b9c1461045d578063cf5d14711461047d578063d7d3c3b91461049257610205565b80637af9ce73116100c65780637af9ce73146103f15780638ada066e146104135780638da5cb5b14610428578063b7e0f7ba1461043d57610205565b80636df653711461038f578063715018a6146103af5780637533d788146103c457610205565b806341e63d1311610159578063529c758811610133578063529c75881461030d57806354a5beda1461033857806355ebce6a1461035a5780635e280f111461036d57610205565b806341e63d13146102ad57806342d65a8d146102cd578063492e527e146102ed57610205565b806311b02b651161018a57806311b02b65146102675780632b2257dc1461027a57806333cd80701461029a57610205565b80621d35671461020757806307e0db171461022757806310ddb1371461024757610205565b36610205576103e8341080156101c6575034600a14155b610205576040517f08c379a00000000000000000000000000000000000000000000000000000000081526004016101fc906123e6565b60405180910390fd5b005b34801561021357600080fd5b5061020561022236600461207f565b610532565b34801561023357600080fd5b50610205610242366004611e9f565b610732565b34801561025357600080fd5b50610205610262366004611e9f565b6107bd565b610205610275366004611fe2565b610813565b34801561028657600080fd5b5061020561029536600461210b565b61096b565b6102056102a8366004611d3d565b610a91565b3480156102b957600080fd5b506102056102c8366004611dfd565b610cb3565b3480156102d957600080fd5b506102056102e8366004611f0f565b610da5565b3480156102f957600080fd5b50610205610308366004611ed7565b610daa565b34801561031957600080fd5b50610322610ed1565b60405161032f9190612614565b60405180910390f35b34801561034457600080fd5b5061034d610ed7565b60405161032f91906124a0565b610205610368366004611f62565b610f83565b34801561037957600080fd5b5061038261102b565b60405161032f9190612313565b34801561039b57600080fd5b506102056103aa36600461210b565b611047565b3480156103bb57600080fd5b50610205611109565b3480156103d057600080fd5b506103e46103df366004611e9f565b611220565b60405161032f9190612365565b3480156103fd57600080fd5b506104066112d9565b60405161032f919061235a565b34801561041f57600080fd5b506103226112fa565b34801561043457600080fd5b50610382611300565b34801561044957600080fd5b50610322610458366004611cda565b61131c565b34801561046957600080fd5b50610205610478366004612188565b61132e565b34801561048957600080fd5b5061034d611439565b34801561049e57600080fd5b506102056104ad366004611cfd565b611490565b3480156104be57600080fd5b506102056104cd366004611f0f565b6115e4565b3480156104de57600080fd5b506102056104ed366004611ed7565b6116aa565b3480156104fe57600080fd5b5061020561050d366004611cda565b611709565b34801561051e57600080fd5b506103e461052d366004612138565b6118aa565b60035473ffffffffffffffffffffffffffffffffffffffff16331461055657600080fd5b61056084846119f6565b6014830151604051610596907f6666000000000000000000000000000000000000000000000000000000000000906020016122ca565b60405160208183030381529060405280519060200120826040516020016105bd91906122f7565b60405160208183030381529060405280519060200120148061064a57507f666600000000000000000000000000000000000000000000000000000000000060405160200161060b919061229d565b604051602081830303815290604052805190602001208260405160200161063291906122f7565b60405160208183030381529060405280519060200120145b156106f857600354604080516020808201835260008083528351918201845280825292517fc2fa481300000000000000000000000000000000000000000000000000000000815273ffffffffffffffffffffffffffffffffffffffff9094169363c2fa4813936106c593600193909284918291600401612378565b600060405180830381600087803b1580156106df57600080fd5b505af11580156106f3573d6000803e3d6000fd5b505050505b73ffffffffffffffffffffffffffffffffffffffff1660009081526002602052604090208054600190810190915580548101905550505050565b6003546040517f07e0db1700000000000000000000000000000000000000000000000000000000815273ffffffffffffffffffffffffffffffffffffffff909116906307e0db17906107889084906004016124a0565b600060405180830381600087803b1580156107a257600080fd5b505af11580156107b6573d6000803e3d6000fd5b5050505050565b6003546040517f10ddb13700000000000000000000000000000000000000000000000000000000815273ffffffffffffffffffffffffffffffffffffffff909116906310ddb137906107889084906004016124a0565b61ffff851660009081526004602090815260408083208054825160026001831615610100027fffffffffffffffffffffffffffffffffffffffffffffffffffffffffffffffff0190921691909104601f8101859004850282018501909352828152929091908301828280156108c95780601f1061089e576101008083540402835291602001916108c9565b820191906000526020600020905b8154815290600101906020018083116108ac57829003601f168201915b50506003546040517fc580310000000000000000000000000000000000000000000000000000000000815294955073ffffffffffffffffffffffffffffffffffffffff169363c5803100935034925061093191508a9086908b908b908b908b90600401612503565b6000604051808303818588803b15801561094a57600080fd5b505af115801561095e573d6000803e3d6000fd5b5050505050505050505050565b6003546040517f096568f600000000000000000000000000000000000000000000000000000000815273ffffffffffffffffffffffffffffffffffffffff9091169063cbed8b9c90829063096568f6906109c9903090600401612313565b60206040518083038186803b1580156109e157600080fd5b505afa1580156109f5573d6000803e3d6000fd5b505050506040513d601f19601f82011682018060405250810190610a199190611ebb565b84600585604051602001610a2d91906124a0565b6040516020818303038152906040526040518563ffffffff1660e01b8152600401610a5b94939291906125a4565b600060405180830381600087803b158015610a7557600080fd5b505af1158015610a89573d6000803e3d6000fd5b505050505050565b60008686808060200260200160405190810160405280939291908181526020018383602002808284376000920182905250604080516020601f8c018190048102820181019092528a8152959650909493508992508891508190840183828082843760009201829052509394503493925050505b8351811015610c7957600354845160009173ffffffffffffffffffffffffffffffffffffffff16906340a7bb1090879085908110610b3e57fe5b6020026020010151308a8a600360149054906101000a900460ff168a6040518763ffffffff1660e01b8152600401610b7b969594939291906124af565b604080518083038186803b158015610b9257600080fd5b505afa158015610ba6573d6000803e3d6000fd5b505050506040513d601f19601f82011682018060405250810190610bca91906121e8565b509050610bd78382611b08565b60035490935060009074010000000000000000000000000000000000000000900460ff16610c06576000610c08565b305b9050610c6f8c8c85818110610c1957fe5b9050602002016020810190610c2e9190611e9f565b89898080601f0160208091040260200160405190810160405280939291908181526020018383808284376000920191909152503392508691508a9050610813565b5050600101610b04565b50604051339082156108fc029083906000818181858888f19350505050158015610ca7573d6000803e3d6000fd5b50505050505050505050565b610cbb611b7f565b73ffffffffffffffffffffffffffffffffffffffff16610cd9611300565b73ffffffffffffffffffffffffffffffffffffffff1614610d5b57604080517f08c379a000000000000000000000000000000000000000000000000000000000815260206004820181905260248201527f4f776e61626c653a2063616c6c6572206973206e6f7420746865206f776e6572604482015290519081900360640190fd5b6003805491151574010000000000000000000000000000000000000000027fffffffffffffffffffffff00ffffffffffffffffffffffffffffffffffffffff909216919091179055565b505050565b6003546040517f096568f600000000000000000000000000000000000000000000000000000000815260069173ffffffffffffffffffffffffffffffffffffffff169063cbed8b9c90829063096568f690610e09903090600401612313565b60206040518083038186803b158015610e2157600080fd5b505afa158015610e35573d6000803e3d6000fd5b505050506040513d601f19601f82011682018060405250810190610e599190611ebb565b858486604051602001610e6c9190612313565b6040516020818303038152906040526040518563ffffffff1660e01b8152600401610e9a94939291906125a4565b600060405180830381600087803b158015610eb457600080fd5b505af1158015610ec8573d6000803e3d6000fd5b50505050505050565b60015481565b6003546040517f096568f600000000000000000000000000000000000000000000000000000000815260009173ffffffffffffffffffffffffffffffffffffffff169063096568f690610f2e903090600401612313565b60206040518083038186803b158015610f4657600080fd5b505afa158015610f5a573d6000803e3d6000fd5b505050506040513d601f19601f82011682018060405250810190610f7e9190611ebb565b905090565b60035460009074010000000000000000000000000000000000000000900460ff16610faf576000610fb1565b305b9050610a898684848080601f01602080910402602001604051908101604052809392919081815260200183838082843760009201919091525050604080516020601f8c018190048102820181019092528a8152339350879250908b908b908190840183828082843760009201919091525061081392505050565b60035473ffffffffffffffffffffffffffffffffffffffff1681565b6003546040517f096568f600000000000000000000000000000000000000000000000000000000815273ffffffffffffffffffffffffffffffffffffffff9091169063cbed8b9c90829063096568f6906110a5903090600401612313565b60206040518083038186803b1580156110bd57600080fd5b505afa1580156110d1573d6000803e3d6000fd5b505050506040513d601f19601f820116820180604052508101906110f59190611ebb565b84600285604051602001610a2d91906124a0565b611111611b7f565b73ffffffffffffffffffffffffffffffffffffffff1661112f611300565b73ffffffffffffffffffffffffffffffffffffffff16146111b157604080517f08c379a000000000000000000000000000000000000000000000000000000000815260206004820181905260248201527f4f776e61626c653a2063616c6c6572206973206e6f7420746865206f776e6572604482015290519081900360640190fd5b6000805460405173ffffffffffffffffffffffffffffffffffffffff909116907f8be0079c531659141344cd1fd0a4f28419497f9722a3daafe3b4186f6b6457e0908390a3600080547fffffffffffffffffffffffff0000000000000000000000000000000000000000169055565b60046020908152600091825260409182902080548351601f60027fffffffffffffffffffffffffffffffffffffffffffffffffffffffffffffffff610100600186161502019093169290920491820184900484028101840190945280845290918301828280156112d15780601f106112a6576101008083540402835291602001916112d1565b820191906000526020600020905b8154815290600101906020018083116112b457829003601f168201915b505050505081565b60035474010000000000000000000000000000000000000000900460ff1681565b60015490565b60005473ffffffffffffffffffffffffffffffffffffffff1690565b60026020526000908152604090205481565b6003546040517f096568f600000000000000000000000000000000000000000000000000000000815273ffffffffffffffffffffffffffffffffffffffff9091169063cbed8b9c90829063096568f69061138c903090600401612313565b60206040518083038186803b1580156113a457600080fd5b505afa1580156113b8573d6000803e3d6000fd5b505050506040513d601f19601f820116820180604052508101906113dc9190611ebb565b868686866040518663ffffffff1660e01b81526004016114009594939291906125db565b600060405180830381600087803b15801561141a57600080fd5b505af115801561142e573d6000803e3d6000fd5b505050505050505050565b6003546040517fda1a7c9a00000000000000000000000000000000000000000000000000000000815260009173ffffffffffffffffffffffffffffffffffffffff169063da1a7c9a90610f2e903090600401612313565b611498611b7f565b73ffffffffffffffffffffffffffffffffffffffff166114b6611300565b73ffffffffffffffffffffffffffffffffffffffff161461153857604080517f08c379a000000000000000000000000000000000000000000000000000000000815260206004820181905260248201527f4f776e61626c653a2063616c6c6572206973206e6f7420746865206f776e6572604482015290519081900360640190fd5b6040517f095ea7b300000000000000000000000000000000000000000000000000000000815273ffffffffffffffffffffffffffffffffffffffff84169063095ea7b39061158c9085908590600401612334565b602060405180830381600087803b1580156115a657600080fd5b505af11580156115ba573d6000803e3d6000fd5b505050506040513d601f19601f820116820180604052508101906115de9190611e19565b50505050565b6115ec611b7f565b73ffffffffffffffffffffffffffffffffffffffff1661160a611300565b73ffffffffffffffffffffffffffffffffffffffff161461168c57604080517f08c379a000000000000000000000000000000000000000000000000000000000815260206004820181905260248201527f4f776e61626c653a2063616c6c6572206973206e6f7420746865206f776e6572604482015290519081900360640190fd5b61ffff831660009081526004602052604090206115de908383611b83565b600380546040517f096568f600000000000000000000000000000000000000000000000000000000815273ffffffffffffffffffffffffffffffffffffffff9091169063cbed8b9c90829063096568f690610e09903090600401612313565b611711611b7f565b73ffffffffffffffffffffffffffffffffffffffff1661172f611300565b73ffffffffffffffffffffffffffffffffffffffff16146117b157604080517f08c379a000000000000000000000000000000000000000000000000000000000815260206004820181905260248201527f4f776e61626c653a2063616c6c6572206973206e6f7420746865206f776e6572604482015290519081900360640190fd5b73ffffffffffffffffffffffffffffffffffffffff811661181d576040517f08c379a00000000000000000000000000000000000000000000000000000000081526004018080602001828103825260268152602001806126f16026913960400191505060405180910390fd5b6000805460405173ffffffffffffffffffffffffffffffffffffffff808516939216917f8be0079c531659141344cd1fd0a4f28419497f9722a3daafe3b4186f6b6457e091a3600080547fffffffffffffffffffffffff00000000000000000000000000000000000000001673ffffffffffffffffffffffffffffffffffffffff92909216919091179055565b6003546040517f096568f600000000000000000000000000000000000000000000000000000000815260609173ffffffffffffffffffffffffffffffffffffffff169063f5ecbdbc90829063096568f690611909903090600401612313565b60206040518083038186803b15801561192157600080fd5b505afa158015611935573d6000803e3d6000fd5b505050506040513d601f19601f820116820180604052508101906119599190611ebb565b8630866040518563ffffffff1660e01b815260040161197b949392919061256a565b60006040518083038186803b15801561199357600080fd5b505afa1580156119a7573d6000803e3d6000fd5b505050506040513d6000823e601f3d9081017fffffffffffffffffffffffffffffffffffffffffffffffffffffffffffffffe01682016040526119ed9190810190611e35565b95945050505050565b61ffff821660009081526004602090815260408083208054825160026001831615610100027fffffffffffffffffffffffffffffffffffffffffffffffffffffffffffffffff0190921691909104601f810185900485028201850190935282815292909190830182828015611aac5780601f10611a8157610100808354040283529160200191611aac565b820191906000526020600020905b815481529060010190602001808311611a8f57829003601f168201915b505050505090508051600014158015611ad2575080805190602001208280519060200120145b610da5576040517f08c379a00000000000000000000000000000000000000000000000000000000081526004016101fc90612469565b600082821115611b7957604080517f08c379a000000000000000000000000000000000000000000000000000000000815260206004820152601e60248201527f536166654d6174683a207375627472616374696f6e206f766572666c6f770000604482015290519081900360640190fd5b50900390565b3390565b828054600181600116156101000203166002900490600052602060002090601f016020900481019282611bb95760008555611c1d565b82601f10611bf0578280017fffffffffffffffffffffffffffffffffffffffffffffffffffffffffffffff00823516178555611c1d565b82800160010185558215611c1d579182015b82811115611c1d578235825591602001919060010190611c02565b50611c29929150611c2d565b5090565b5b80821115611c295760008155600101611c2e565b60008083601f840112611c53578182fd5b50813567ffffffffffffffff811115611c6a578182fd5b602083019150836020828501011115611c8257600080fd5b9250929050565b600082601f830112611c99578081fd5b8135611cac611ca782612641565b61261d565b818152846020838601011115611cc0578283fd5b816020850160208301379081016020019190915292915050565b600060208284031215611ceb578081fd5b8135611cf6816126ad565b9392505050565b600080600060608486031215611d11578182fd5b8335611d1c816126ad565b92506020840135611d2c816126ad565b929592945050506040919091013590565b60008060008060008060608789031215611d55578182fd5b863567ffffffffffffffff80821115611d6c578384fd5b818901915089601f830112611d7f578384fd5b813581811115611d8d578485fd5b8a60208083028501011115611da0578485fd5b602092830198509650908801359080821115611dba578384fd5b611dc68a838b01611c42565b90965094506040890135915080821115611dde578384fd5b50611deb89828a01611c42565b979a9699509497509295939492505050565b600060208284031215611e0e578081fd5b8135611cf6816126d2565b600060208284031215611e2a578081fd5b8151611cf6816126d2565b600060208284031215611e46578081fd5b815167ffffffffffffffff811115611e5c578182fd5b8201601f81018413611e6c578182fd5b8051611e7a611ca782612641565b818152856020838501011115611e8e578384fd5b6119ed826020830160208601612681565b600060208284031215611eb0578081fd5b8135611cf6816126e0565b600060208284031215611ecc578081fd5b8151611cf6816126e0565b60008060408385031215611ee9578182fd5b8235611ef4816126e0565b91506020830135611f04816126ad565b809150509250929050565b600080600060408486031215611f23578283fd5b8335611f2e816126e0565b9250602084013567ffffffffffffffff811115611f49578283fd5b611f5586828701611c42565b9497909650939450505050565b600080600080600060608688031215611f79578081fd5b8535611f84816126e0565b9450602086013567ffffffffffffffff80821115611fa0578283fd5b611fac89838a01611c42565b90965094506040880135915080821115611fc4578283fd5b50611fd188828901611c42565b969995985093965092949392505050565b600080600080600060a08688031215611ff9578283fd5b8535612004816126e0565b9450602086013567ffffffffffffffff80821115612020578485fd5b61202c89838a01611c89565b95506040880135915061203e826126ad565b909350606087013590612050826126ad565b90925060808701359080821115612065578283fd5b5061207288828901611c89565b9150509295509295909350565b60008060008060808587031215612094578182fd5b843561209f816126e0565b9350602085013567ffffffffffffffff808211156120bb578384fd5b6120c788838901611c89565b94506040870135915080821682146120dd578384fd5b909250606086013590808211156120f2578283fd5b506120ff87828801611c89565b91505092959194509250565b6000806040838503121561211d578182fd5b8235612128816126e0565b91506020830135611f04816126e0565b6000806000806080858703121561214d578182fd5b8435612158816126e0565b93506020850135612168816126e0565b92506040850135612178816126ad565b9396929550929360600135925050565b60008060008060006080868803121561219f578283fd5b85356121aa816126e0565b945060208601356121ba816126e0565b935060408601359250606086013567ffffffffffffffff8111156121dc578182fd5b611fd188828901611c42565b600080604083850312156121fa578182fd5b505080516020909101519092909150565b600082845282826020860137806020848601015260207fffffffffffffffffffffffffffffffffffffffffffffffffffffffffffffffe0601f85011685010190509392505050565b6000815180845261226b816020860160208601612681565b601f017fffffffffffffffffffffffffffffffffffffffffffffffffffffffffffffffe0169290920160200192915050565b7fffffffffffffffffffff00000000000000000000000000000000000000000000919091168152600a0190565b7fffff00000000000000000000000000000000000000000000000000000000000091909116815260020190565b60008251612309818460208701612681565b9190910192915050565b73ffffffffffffffffffffffffffffffffffffffff91909116815260200190565b73ffffffffffffffffffffffffffffffffffffffff929092168252602082015260400190565b901515815260200190565b600060208252611cf66020830184612253565b600061ffff8816825260c0602083015261239560c0830188612253565b73ffffffffffffffffffffffffffffffffffffffff8716604084015267ffffffffffffffff8616606084015284608084015282810360a08401526123d98185612253565b9998505050505050505050565b60208082526044908201527f44696420796f75206d65616e20746f2073656e64206120626c6f636b6564206160408201527f6d6f756e74202d20636865636b20726563656976652829202f2066616c6c626160608201527f636b282900000000000000000000000000000000000000000000000000000000608082015260a00190565b6020808252601d908201527f736f7572636520636f756e746572206973206e6f742074727573746564000000604082015260600190565b61ffff91909116815260200190565b600061ffff8816825273ffffffffffffffffffffffffffffffffffffffff8716602083015260a060408301526124e960a08301868861220b565b841515606084015282810360808401526123d98185612253565b600061ffff8816825260c0602083015261252060c0830188612253565b82810360408401526125328188612253565b73ffffffffffffffffffffffffffffffffffffffff87811660608601528616608085015283810360a085015290506123d98185612253565b61ffff948516815292909316602083015273ffffffffffffffffffffffffffffffffffffffff166040820152606081019190915260800190565b600061ffff8087168352808616602084015250836040830152608060608301526125d16080830184612253565b9695505050505050565b600061ffff80881683528087166020840152508460408301526080606083015261260960808301848661220b565b979650505050505050565b90815260200190565b60405181810167ffffffffffffffff8111828210171561263957fe5b604052919050565b600067ffffffffffffffff82111561265557fe5b50601f017fffffffffffffffffffffffffffffffffffffffffffffffffffffffffffffffe01660200190565b60005b8381101561269c578181015183820152602001612684565b838111156115de5750506000910152565b73ffffffffffffffffffffffffffffffffffffffff811681146126cf57600080fd5b50565b80151581146126cf57600080fd5b61ffff811681146126cf57600080fdfe4f776e61626c653a206e6577206f776e657220697320746865207a65726f2061646472657373a26469706673582212206b77d341459ae7fa4930570f93983c05a444a34c07d60f3e1fcc37002ff85c5b64736f6c63430007060033",
  "devdoc": {
    "kind": "dev",
    "methods": {
      "owner()": {
        "details": "Returns the address of the current owner."
      },
      "renounceOwnership()": {
        "details": "Leaves the contract without owner. It will not be possible to call `onlyOwner` functions anymore. Can only be called by the current owner. NOTE: Renouncing ownership will leave the contract without an owner, thereby removing any functionality that is only available to the owner."
      },
      "transferOwnership(address)": {
        "details": "Transfers ownership of the contract to a new account (`newOwner`). Can only be called by the current owner."
      }
    },
    "version": 1
  },
  "userdoc": {
    "kind": "user",
    "methods": {},
    "version": 1
  },
  "storageLayout": {
    "storage": [
      {
        "astId": 2484,
        "contract": "contracts/mocks/OmniCounter.sol:OmniCounter",
        "label": "_owner",
        "offset": 0,
        "slot": "0",
        "type": "t_address"
      },
      {
        "astId": 14485,
        "contract": "contracts/mocks/OmniCounter.sol:OmniCounter",
        "label": "messageCounter",
        "offset": 0,
        "slot": "1",
        "type": "t_uint256"
      },
      {
        "astId": 14489,
        "contract": "contracts/mocks/OmniCounter.sol:OmniCounter",
        "label": "remoteAddressCounter",
        "offset": 0,
        "slot": "2",
        "type": "t_mapping(t_address,t_uint256)"
      },
      {
        "astId": 14491,
        "contract": "contracts/mocks/OmniCounter.sol:OmniCounter",
        "label": "endpoint",
        "offset": 0,
        "slot": "3",
        "type": "t_contract(ILayerZeroEndpoint)12790"
      },
      {
        "astId": 14493,
        "contract": "contracts/mocks/OmniCounter.sol:OmniCounter",
        "label": "payInZRO",
        "offset": 20,
        "slot": "3",
        "type": "t_bool"
      },
      {
        "astId": 14497,
        "contract": "contracts/mocks/OmniCounter.sol:OmniCounter",
        "label": "trustedRemoteLookup",
        "offset": 0,
        "slot": "4",
        "type": "t_mapping(t_uint16,t_bytes_storage)"
      }
    ],
    "types": {
      "t_address": {
        "encoding": "inplace",
        "label": "address",
        "numberOfBytes": "20"
      },
      "t_bool": {
        "encoding": "inplace",
        "label": "bool",
        "numberOfBytes": "1"
      },
      "t_bytes_storage": {
        "encoding": "bytes",
        "label": "bytes",
        "numberOfBytes": "32"
      },
      "t_contract(ILayerZeroEndpoint)12790": {
        "encoding": "inplace",
        "label": "contract ILayerZeroEndpoint",
        "numberOfBytes": "20"
      },
      "t_mapping(t_address,t_uint256)": {
        "encoding": "mapping",
        "key": "t_address",
        "label": "mapping(address => uint256)",
        "numberOfBytes": "32",
        "value": "t_uint256"
      },
      "t_mapping(t_uint16,t_bytes_storage)": {
        "encoding": "mapping",
        "key": "t_uint16",
        "label": "mapping(uint16 => bytes)",
        "numberOfBytes": "32",
        "value": "t_bytes_storage"
      },
      "t_uint16": {
        "encoding": "inplace",
        "label": "uint16",
        "numberOfBytes": "2"
      },
      "t_uint256": {
        "encoding": "inplace",
        "label": "uint256",
        "numberOfBytes": "32"
      }
    }
  }
}