{
  "address": "0xEE2fB60deF5788c2B640166d774b0B20759F1e3b",
  "abi": [
    {
      "anonymous": false,
      "inputs": [
        {
          "indexed": false,
          "internalType": "address",
          "name": "addr",
          "type": "address"
        },
        {
          "indexed": false,
          "internalType": "bool",
          "name": "approved",
          "type": "bool"
        }
      ],
      "name": "ApproveAddress",
      "type": "event"
    },
    {
      "anonymous": false,
      "inputs": [
        {
          "indexed": false,
          "internalType": "uint256",
          "name": "totalFee",
          "type": "uint256"
        }
      ],
      "name": "AssignJob",
      "type": "event"
    },
    {
      "anonymous": false,
      "inputs": [
        {
          "indexed": true,
          "internalType": "address",
          "name": "previousOwner",
          "type": "address"
        },
        {
          "indexed": true,
          "internalType": "address",
          "name": "newOwner",
          "type": "address"
        }
      ],
      "name": "OwnershipTransferred",
      "type": "event"
    },
    {
      "anonymous": false,
      "inputs": [
        {
          "indexed": false,
          "internalType": "uint16",
          "name": "chainId",
          "type": "uint16"
        },
        {
          "indexed": false,
          "internalType": "uint16",
          "name": "outboundProofType",
          "type": "uint16"
        },
        {
          "indexed": false,
          "internalType": "uint128",
          "name": "dstNativeAmtCap",
          "type": "uint128"
        },
        {
          "indexed": false,
          "internalType": "uint64",
          "name": "baseGas",
          "type": "uint64"
        },
        {
          "indexed": false,
          "internalType": "uint64",
          "name": "gasPerByte",
          "type": "uint64"
        }
      ],
      "name": "SetDstConfig",
      "type": "event"
    },
    {
      "anonymous": false,
      "inputs": [
        {
          "indexed": false,
          "internalType": "uint16",
          "name": "chainId",
          "type": "uint16"
        },
        {
          "indexed": false,
          "internalType": "uint128",
          "name": "dstPriceRatio",
          "type": "uint128"
        },
        {
          "indexed": false,
          "internalType": "uint128",
          "name": "dstGasPriceInWei",
          "type": "uint128"
        }
      ],
      "name": "SetDstPrice",
      "type": "event"
    },
    {
      "anonymous": false,
      "inputs": [
        {
          "indexed": true,
          "internalType": "address",
          "name": "to",
          "type": "address"
        },
        {
          "indexed": true,
          "internalType": "uint256",
          "name": "quantity",
          "type": "uint256"
        }
      ],
      "name": "ValueTransferFailed",
      "type": "event"
    },
    {
      "anonymous": false,
      "inputs": [
        {
          "indexed": false,
          "internalType": "address",
          "name": "to",
          "type": "address"
        },
        {
          "indexed": false,
          "internalType": "uint256",
          "name": "amount",
          "type": "uint256"
        }
      ],
      "name": "Withdraw",
      "type": "event"
    },
    {
      "inputs": [
        {
          "internalType": "address",
          "name": "",
          "type": "address"
        }
      ],
      "name": "approvedAddresses",
      "outputs": [
        {
          "internalType": "bool",
          "name": "",
          "type": "bool"
        }
      ],
      "stateMutability": "view",
      "type": "function"
    },
    {
      "inputs": [
        {
          "internalType": "uint16",
          "name": "_dstChainId",
          "type": "uint16"
        },
        {
          "internalType": "uint16",
          "name": "_outboundProofType",
          "type": "uint16"
        },
        {
          "internalType": "address",
          "name": "_userApplication",
          "type": "address"
        },
        {
          "internalType": "uint256",
          "name": "_payloadSize",
          "type": "uint256"
        },
        {
          "internalType": "bytes",
          "name": "_adapterParams",
          "type": "bytes"
        }
      ],
      "name": "assignJob",
      "outputs": [
        {
          "internalType": "uint256",
          "name": "",
          "type": "uint256"
        }
      ],
      "stateMutability": "nonpayable",
      "type": "function"
    },
    {
      "inputs": [
        {
          "internalType": "uint16",
          "name": "",
          "type": "uint16"
        },
        {
          "internalType": "uint16",
          "name": "",
          "type": "uint16"
        }
      ],
      "name": "dstConfigLookup",
      "outputs": [
        {
          "internalType": "uint128",
          "name": "dstNativeAmtCap",
          "type": "uint128"
        },
        {
          "internalType": "uint64",
          "name": "baseGas",
          "type": "uint64"
        },
        {
          "internalType": "uint64",
          "name": "gasPerByte",
          "type": "uint64"
        }
      ],
      "stateMutability": "view",
      "type": "function"
    },
    {
      "inputs": [
        {
          "internalType": "uint16",
          "name": "",
          "type": "uint16"
        }
      ],
      "name": "dstPriceLookup",
      "outputs": [
        {
          "internalType": "uint128",
          "name": "dstPriceRatio",
          "type": "uint128"
        },
        {
          "internalType": "uint128",
          "name": "dstGasPriceInWei",
          "type": "uint128"
        }
      ],
      "stateMutability": "view",
      "type": "function"
    },
    {
      "inputs": [
        {
          "internalType": "uint16",
          "name": "_dstChainId",
          "type": "uint16"
        },
        {
          "internalType": "uint16",
          "name": "_outboundProofType",
          "type": "uint16"
        },
        {
          "internalType": "address",
          "name": "_userApplication",
          "type": "address"
        },
        {
          "internalType": "uint256",
          "name": "_payloadSize",
          "type": "uint256"
        },
        {
          "internalType": "bytes",
          "name": "_adapterParams",
          "type": "bytes"
        }
      ],
      "name": "getFee",
      "outputs": [
        {
          "internalType": "uint256",
          "name": "",
          "type": "uint256"
        }
      ],
      "stateMutability": "view",
      "type": "function"
    },
    {
      "inputs": [
        {
          "internalType": "address",
          "name": "_uln",
          "type": "address"
        }
      ],
      "name": "initialize",
      "outputs": [],
      "stateMutability": "nonpayable",
      "type": "function"
    },
    {
      "inputs": [
        {
          "internalType": "address",
          "name": "_relayerAddress",
          "type": "address"
        }
      ],
      "name": "isApproved",
      "outputs": [
        {
          "internalType": "bool",
          "name": "",
          "type": "bool"
        }
      ],
      "stateMutability": "view",
      "type": "function"
    },
    {
      "inputs": [],
      "name": "owner",
      "outputs": [
        {
          "internalType": "address",
          "name": "",
          "type": "address"
        }
      ],
      "stateMutability": "view",
      "type": "function"
    },
    {
      "inputs": [],
      "name": "paused",
      "outputs": [
        {
          "internalType": "bool",
          "name": "",
          "type": "bool"
        }
      ],
      "stateMutability": "view",
      "type": "function"
    },
    {
      "inputs": [],
      "name": "renounceOwnership",
      "outputs": [],
      "stateMutability": "nonpayable",
      "type": "function"
    },
    {
      "inputs": [
        {
          "internalType": "address",
          "name": "_relayerAddress",
          "type": "address"
        },
        {
          "internalType": "bool",
          "name": "_approve",
          "type": "bool"
        }
      ],
      "name": "setApprovedAddress",
      "outputs": [],
      "stateMutability": "nonpayable",
      "type": "function"
    },
    {
      "inputs": [
        {
          "internalType": "uint16",
          "name": "_chainId",
          "type": "uint16"
        },
        {
          "internalType": "uint16",
          "name": "_outboundProofType",
          "type": "uint16"
        },
        {
          "internalType": "uint128",
          "name": "_dstNativeAmtCap",
          "type": "uint128"
        },
        {
          "internalType": "uint64",
          "name": "_baseGas",
          "type": "uint64"
        },
        {
          "internalType": "uint64",
          "name": "_gasPerByte",
          "type": "uint64"
        }
      ],
      "name": "setDstConfig",
      "outputs": [],
      "stateMutability": "nonpayable",
      "type": "function"
    },
    {
      "inputs": [
        {
          "internalType": "uint16",
          "name": "_chainId",
          "type": "uint16"
        },
        {
          "internalType": "uint128",
          "name": "_dstPriceRatio",
          "type": "uint128"
        },
        {
          "internalType": "uint128",
          "name": "_dstGasPriceInWei",
          "type": "uint128"
        }
      ],
      "name": "setDstPrice",
      "outputs": [],
      "stateMutability": "nonpayable",
      "type": "function"
    },
    {
      "inputs": [
        {
          "internalType": "bool",
          "name": "_paused",
          "type": "bool"
        }
      ],
      "name": "setPause",
      "outputs": [],
      "stateMutability": "nonpayable",
      "type": "function"
    },
    {
      "inputs": [
        {
          "internalType": "address",
          "name": "_stargateAddress",
          "type": "address"
        }
      ],
      "name": "setStargateAddress",
      "outputs": [],
      "stateMutability": "nonpayable",
      "type": "function"
    },
    {
      "inputs": [],
      "name": "stargateBridgeAddress",
      "outputs": [
        {
          "internalType": "address",
          "name": "",
          "type": "address"
        }
      ],
      "stateMutability": "view",
      "type": "function"
    },
    {
      "inputs": [
        {
          "internalType": "address",
          "name": "newOwner",
          "type": "address"
        }
      ],
      "name": "transferOwnership",
      "outputs": [],
      "stateMutability": "nonpayable",
      "type": "function"
    },
    {
      "inputs": [],
      "name": "uln",
      "outputs": [
        {
          "internalType": "contract ILayerZeroUltraLightNodeV2",
          "name": "",
          "type": "address"
        }
      ],
      "stateMutability": "view",
      "type": "function"
    },
    {
      "inputs": [
        {
          "internalType": "uint16",
          "name": "_srcChainId",
          "type": "uint16"
        },
        {
          "internalType": "address",
          "name": "_dstAddress",
          "type": "address"
        },
        {
          "internalType": "uint256",
          "name": "_gasLimit",
          "type": "uint256"
        },
        {
          "internalType": "bytes32",
          "name": "_blockHash",
          "type": "bytes32"
        },
        {
          "internalType": "bytes32",
          "name": "_data",
          "type": "bytes32"
        },
        {
          "internalType": "bytes",
          "name": "_transactionProof",
          "type": "bytes"
        }
      ],
      "name": "validateTransactionProofV1",
      "outputs": [],
      "stateMutability": "nonpayable",
      "type": "function"
    },
    {
      "inputs": [
        {
          "internalType": "uint16",
          "name": "_srcChainId",
          "type": "uint16"
        },
        {
          "internalType": "address",
          "name": "_dstAddress",
          "type": "address"
        },
        {
          "internalType": "uint256",
          "name": "_gasLimit",
          "type": "uint256"
        },
        {
          "internalType": "bytes32",
          "name": "_blockHash",
          "type": "bytes32"
        },
        {
          "internalType": "bytes32",
          "name": "_data",
          "type": "bytes32"
        },
        {
          "internalType": "bytes",
          "name": "_transactionProof",
          "type": "bytes"
        },
        {
          "internalType": "address payable",
          "name": "_to",
          "type": "address"
        }
      ],
      "name": "validateTransactionProofV2",
      "outputs": [],
      "stateMutability": "payable",
      "type": "function"
    },
    {
      "inputs": [
        {
          "internalType": "address payable",
          "name": "_to",
          "type": "address"
        },
        {
          "internalType": "uint256",
          "name": "_amount",
          "type": "uint256"
        }
      ],
      "name": "withdrawFee",
      "outputs": [],
      "stateMutability": "nonpayable",
      "type": "function"
    }
  ],
  "transactionHash": "0xf071c5869faffbdb2458fcb41122c58200c7456517921aa2cfda0230afb0c020",
  "args": [],
  "numDeployments": 1,
  "solcInputHash": "6d925d3acff3cc14c693f07a242deaca",
  "bytecode": "0x608060405234801561001057600080fd5b5060016000556127ce806100256000396000f3fe60806040526004361061016a5760003560e01c80636c473aff116100cb578063bedb86fb1161007f578063f136a87411610059578063f136a874146107cf578063f2fde38b1461080f578063fd9be5221461084f5761016a565b8063bedb86fb146106b0578063c03f1529146106dc578063c4d66de81461078f5761016a565b8063765a8a54116100b0578063765a8a54146105de5780638da5cb5b1461064d578063b8f8bad4146106625761016a565b80636c473aff146105b4578063715018a6146105c95761016a565b8063575765e2116101225780635c975abb116101075780635c975abb1461050d5780636348d26914610536578063673448dd146105745761016a565b8063575765e2146104005780635886ea65146104485761016a565b806323161ff81161015357806323161ff814610270578063252f7b01146102e25780633f103487146103985761016a565b806303343f541461016f5780630508941e146101b1575b600080fd5b34801561017b57600080fd5b506101af6004803603602081101561019257600080fd5b503573ffffffffffffffffffffffffffffffffffffffff16610895565b005b6101af600480360360e08110156101c757600080fd5b61ffff8235169173ffffffffffffffffffffffffffffffffffffffff602082013516916040820135916060810135916080820135919081019060c0810160a082013564010000000081111561021b57600080fd5b82018360208201111561022d57600080fd5b8035906020019184600183028401116401000000008311171561024f57600080fd5b91935091503573ffffffffffffffffffffffffffffffffffffffff16610974565b34801561027c57600080fd5b506102a66004803603604081101561029357600080fd5b5061ffff81358116916020013516610c37565b604080516fffffffffffffffffffffffffffffffff909416845267ffffffffffffffff9283166020850152911682820152519081900360600190f35b3480156102ee57600080fd5b506101af600480360360c081101561030557600080fd5b61ffff8235169173ffffffffffffffffffffffffffffffffffffffff602082013516916040820135916060810135916080820135919081019060c0810160a082013564010000000081111561035957600080fd5b82018360208201111561036b57600080fd5b8035906020019184600183028401116401000000008311171561038d57600080fd5b509092509050610ca5565b3480156103a457600080fd5b506101af600480360360a08110156103bb57600080fd5b5061ffff81358116916020810135909116906fffffffffffffffffffffffffffffffff6040820135169067ffffffffffffffff60608201358116916080013516610eae565b34801561040c57600080fd5b506101af6004803603604081101561042357600080fd5b5073ffffffffffffffffffffffffffffffffffffffff813516906020013515156110e7565b34801561045457600080fd5b506104fb600480360360a081101561046b57600080fd5b61ffff823581169260208101359091169173ffffffffffffffffffffffffffffffffffffffff6040830135169160608101359181019060a0810160808201356401000000008111156104bc57600080fd5b8201836020820111156104ce57600080fd5b803590602001918460018302840111640100000000831117156104f057600080fd5b50909250905061121e565b60408051918252519081900360200190f35b34801561051957600080fd5b5061052261134b565b604080519115158252519081900360200190f35b34801561054257600080fd5b5061054b611354565b6040805173ffffffffffffffffffffffffffffffffffffffff9092168252519081900360200190f35b34801561058057600080fd5b506105226004803603602081101561059757600080fd5b503573ffffffffffffffffffffffffffffffffffffffff16611370565b3480156105c057600080fd5b5061054b61139b565b3480156105d557600080fd5b506101af6113b7565b3480156105ea57600080fd5b5061060c6004803603602081101561060157600080fd5b503561ffff166114ce565b60405180836fffffffffffffffffffffffffffffffff168152602001826fffffffffffffffffffffffffffffffff1681526020019250505060405180910390f35b34801561065957600080fd5b5061054b61150a565b34801561066e57600080fd5b506101af6004803603606081101561068557600080fd5b5061ffff813516906fffffffffffffffffffffffffffffffff60208201358116916040013516611526565b3480156106bc57600080fd5b506101af600480360360208110156106d357600080fd5b50351515611688565b3480156106e857600080fd5b506104fb600480360360a08110156106ff57600080fd5b61ffff823581169260208101359091169173ffffffffffffffffffffffffffffffffffffffff6040830135169160608101359181019060a08101608082013564010000000081111561075057600080fd5b82018360208201111561076257600080fd5b8035906020019184600183028401116401000000008311171561078457600080fd5b509092509050611761565b34801561079b57600080fd5b506101af600480360360208110156107b257600080fd5b503573ffffffffffffffffffffffffffffffffffffffff166117ce565b3480156107db57600080fd5b50610522600480360360208110156107f257600080fd5b503573ffffffffffffffffffffffffffffffffffffffff166119bb565b34801561081b57600080fd5b506101af6004803603602081101561083257600080fd5b503573ffffffffffffffffffffffffffffffffffffffff166119d0565b34801561085b57600080fd5b506101af6004803603604081101561087257600080fd5b5073ffffffffffffffffffffffffffffffffffffffff8135169060200135611b72565b3361089e61150a565b73ffffffffffffffffffffffffffffffffffffffff161461092d576108c233611370565b61092d57604080517f08c379a000000000000000000000000000000000000000000000000000000000815260206004820152601560248201527f52656c617965723a206e6f7420617070726f7665640000000000000000000000604482015290519081900360640190fd5b606780547fffffffffffffffffffffffff00000000000000000000000000000000000000001673ffffffffffffffffffffffffffffffffffffffff92909216919091179055565b3361097d61150a565b73ffffffffffffffffffffffffffffffffffffffff1614610a0c576109a133611370565b610a0c57604080517f08c379a000000000000000000000000000000000000000000000000000000000815260206004820152601560248201527f52656c617965723a206e6f7420617070726f7665640000000000000000000000604482015290519081900360640190fd5b60026000541415610a7e57604080517f08c379a000000000000000000000000000000000000000000000000000000000815260206004820152601f60248201527f5265656e7472616e637947756172643a207265656e7472616e742063616c6c00604482015290519081900360640190fd5b6002600090815560405173ffffffffffffffffffffffffffffffffffffffff83169034908381818185875af1925050503d8060008114610ada576040519150601f19603f3d011682016040523d82523d6000602084013e610adf565b606091505b5050905080610b2c57604051349073ffffffffffffffffffffffffffffffffffffffff8416907f2c7a964ca3de5ec1d42d9822f9bbd0eb142a59cc9f855e9d93813b773192c7a390600090a35b606660009054906101000a900473ffffffffffffffffffffffffffffffffffffffff1673ffffffffffffffffffffffffffffffffffffffff1663987fa2d58a8a8a8a8a8a8a6040518863ffffffff1660e01b8152600401808861ffff1681526020018773ffffffffffffffffffffffffffffffffffffffff168152602001868152602001858152602001848152602001806020018281038252848482818152602001925080828437600081840152601f19601f82011690508083019250505098505050505050505050600060405180830381600087803b158015610c0f57600080fd5b505af1158015610c23573d6000803e3d6000fd5b505060016000555050505050505050505050565b60696020908152600092835260408084209091529082529020546fffffffffffffffffffffffffffffffff81169067ffffffffffffffff7001000000000000000000000000000000008204811691780100000000000000000000000000000000000000000000000090041683565b33610cae61150a565b73ffffffffffffffffffffffffffffffffffffffff1614610d3d57610cd233611370565b610d3d57604080517f08c379a000000000000000000000000000000000000000000000000000000000815260206004820152601560248201527f52656c617965723a206e6f7420617070726f7665640000000000000000000000604482015290519081900360640190fd5b60026000541415610daf57604080517f08c379a000000000000000000000000000000000000000000000000000000000815260206004820152601f60248201527f5265656e7472616e637947756172643a207265656e7472616e742063616c6c00604482015290519081900360640190fd5b60026000556066546040517f987fa2d500000000000000000000000000000000000000000000000000000000815261ffff89166004820190815273ffffffffffffffffffffffffffffffffffffffff898116602484015260448301899052606483018890526084830187905260c060a4840190815260c4840186905293169263987fa2d5928b928b928b928b928b928b928b92919060e401848480828437600081840152601f19601f82011690508083019250505098505050505050505050600060405180830381600087803b158015610e8857600080fd5b505af1158015610e9c573d6000803e3d6000fd5b50506001600055505050505050505050565b33610eb761150a565b73ffffffffffffffffffffffffffffffffffffffff1614610f4657610edb33611370565b610f4657604080517f08c379a000000000000000000000000000000000000000000000000000000000815260206004820152601560248201527f52656c617965723a206e6f7420617070726f7665640000000000000000000000604482015290519081900360640190fd5b6040518060600160405280846fffffffffffffffffffffffffffffffff1681526020018367ffffffffffffffff1681526020018267ffffffffffffffff16815250606960008761ffff1661ffff16815260200190815260200160002060008661ffff1661ffff16815260200190815260200160002060008201518160000160006101000a8154816fffffffffffffffffffffffffffffffff02191690836fffffffffffffffffffffffffffffffff16021790555060208201518160000160106101000a81548167ffffffffffffffff021916908367ffffffffffffffff16021790555060408201518160000160186101000a81548167ffffffffffffffff021916908367ffffffffffffffff1602179055509050507fd053e021dda81c7c2794ff89e320caea5379962d49ed383a3bd0a54ffc4b932f8585858585604051808661ffff1681526020018561ffff168152602001846fffffffffffffffffffffffffffffffff1681526020018367ffffffffffffffff1681526020018267ffffffffffffffff1681526020019550505050505060405180910390a15050505050565b6110ef611d9a565b73ffffffffffffffffffffffffffffffffffffffff1661110d61150a565b73ffffffffffffffffffffffffffffffffffffffff161461118f57604080517f08c379a000000000000000000000000000000000000000000000000000000000815260206004820181905260248201527f4f776e61626c653a2063616c6c6572206973206e6f7420746865206f776e6572604482015290519081900360640190fd5b73ffffffffffffffffffffffffffffffffffffffff82166000818152606a602090815260409182902080547fffffffffffffffffffffffffffffffffffffffffffffffffffffffffffffff001685151590811790915582519384529083015280517fb10786d0bfa68fb1aa29552d9203e5f545f7c073ff0784da1de1d800986f10239281900390910190a15050565b60665460009073ffffffffffffffffffffffffffffffffffffffff1633146112a757604080517f08c379a000000000000000000000000000000000000000000000000000000000815260206004820152601460248201527f52656c617965723a20696e76616c696420756c6e000000000000000000000000604482015290519081900360640190fd5b6000806112ec89898988888080601f016020809104026020016040519081016040528093929190818152602001838380828437600092019190915250611d9e92505050565b909250905060006113076113008884612167565b84906121e3565b6040805182815290519192507fdf21c415b78ed2552cc9971249e32a053abce6087a0ae0fbf3f78db5174a3493919081900360200190a19998505050505050505050565b606b5460ff1681565b60675473ffffffffffffffffffffffffffffffffffffffff1681565b73ffffffffffffffffffffffffffffffffffffffff166000908152606a602052604090205460ff1690565b60665473ffffffffffffffffffffffffffffffffffffffff1681565b6113bf611d9a565b73ffffffffffffffffffffffffffffffffffffffff166113dd61150a565b73ffffffffffffffffffffffffffffffffffffffff161461145f57604080517f08c379a000000000000000000000000000000000000000000000000000000000815260206004820181905260248201527f4f776e61626c653a2063616c6c6572206973206e6f7420746865206f776e6572604482015290519081900360640190fd5b60345460405160009173ffffffffffffffffffffffffffffffffffffffff16907f8be0079c531659141344cd1fd0a4f28419497f9722a3daafe3b4186f6b6457e0908390a3603480547fffffffffffffffffffffffff0000000000000000000000000000000000000000169055565b6068602052600090815260409020546fffffffffffffffffffffffffffffffff8082169170010000000000000000000000000000000090041682565b60345473ffffffffffffffffffffffffffffffffffffffff1690565b3361152f61150a565b73ffffffffffffffffffffffffffffffffffffffff16146115be5761155333611370565b6115be57604080517f08c379a000000000000000000000000000000000000000000000000000000000815260206004820152601560248201527f52656c617965723a206e6f7420617070726f7665640000000000000000000000604482015290519081900360640190fd5b6040805180820182526fffffffffffffffffffffffffffffffff808516808352848216602080850182815261ffff8a166000818152606884528890209651875492518716700100000000000000000000000000000000029087167fffffffffffffffffffffffffffffffff0000000000000000000000000000000090931692909217909516179094558451928352928201528083019190915290517fa812e6d95f70b4a1555cf2cfcc53d6aa10ca827ef87ce47a0e145eebc0c19a3c9181900360600190a1505050565b611690611d9a565b73ffffffffffffffffffffffffffffffffffffffff166116ae61150a565b73ffffffffffffffffffffffffffffffffffffffff161461173057604080517f08c379a000000000000000000000000000000000000000000000000000000000815260206004820181905260248201527f4f776e61626c653a2063616c6c6572206973206e6f7420746865206f776e6572604482015290519081900360640190fd5b606b80547fffffffffffffffffffffffffffffffffffffffffffffffffffffffffffffff0016911515919091179055565b60008060006117a889898988888080601f016020809104026020016040519081016040528093929190818152602001838380828437600092019190915250611d9e92505050565b90925090506117c16117ba8783612167565b83906121e3565b9998505050505050505050565b60006117d8612257565b905073ffffffffffffffffffffffffffffffffffffffff81166118315773ffffffffffffffffffffffffffffffffffffffff7fb53127684a568b3173ae13b9f8a6016e243e63b6e8ee1178d6a717850b5d610355611853565b3373ffffffffffffffffffffffffffffffffffffffff82161461185357600080fd5b600154610100900460ff168061186c575061186c61227c565b8061187a575060015460ff16155b6118cf576040517f08c379a000000000000000000000000000000000000000000000000000000000815260040180806020018281038252602e815260200180612724602e913960400191505060405180910390fd5b600154610100900460ff1615801561193457600180547fffffffffffffffffffffffffffffffffffffffffffffffffffffffffffffff007fffffffffffffffffffffffffffffffffffffffffffffffffffffffffffff00ff9091166101001716811790555b61193c61228d565b606680547fffffffffffffffffffffffff00000000000000000000000000000000000000001673ffffffffffffffffffffffffffffffffffffffff85161790556119873060016110e7565b80156119b657600180547fffffffffffffffffffffffffffffffffffffffffffffffffffffffffffff00ff1690555b505050565b606a6020526000908152604090205460ff1681565b6119d8611d9a565b73ffffffffffffffffffffffffffffffffffffffff166119f661150a565b73ffffffffffffffffffffffffffffffffffffffff1614611a7857604080517f08c379a000000000000000000000000000000000000000000000000000000000815260206004820181905260248201527f4f776e61626c653a2063616c6c6572206973206e6f7420746865206f776e6572604482015290519081900360640190fd5b73ffffffffffffffffffffffffffffffffffffffff8116611ae4576040517f08c379a00000000000000000000000000000000000000000000000000000000081526004018080602001828103825260268152602001806126fe6026913960400191505060405180910390fd5b60345460405173ffffffffffffffffffffffffffffffffffffffff8084169216907f8be0079c531659141344cd1fd0a4f28419497f9722a3daafe3b4186f6b6457e090600090a3603480547fffffffffffffffffffffffff00000000000000000000000000000000000000001673ffffffffffffffffffffffffffffffffffffffff92909216919091179055565b33611b7b61150a565b73ffffffffffffffffffffffffffffffffffffffff1614611c0a57611b9f33611370565b611c0a57604080517f08c379a000000000000000000000000000000000000000000000000000000000815260206004820152601560248201527f52656c617965723a206e6f7420617070726f7665640000000000000000000000604482015290519081900360640190fd5b606654604080517f69412bfa000000000000000000000000000000000000000000000000000000008152306004820152905160009273ffffffffffffffffffffffffffffffffffffffff16916369412bfa916024808301926020929190829003018186803b158015611c7b57600080fd5b505afa158015611c8f573d6000803e3d6000fd5b505050506040513d6020811015611ca557600080fd5b5051905080821115611d02576040517f08c379a00000000000000000000000000000000000000000000000000000000081526004018080602001828103825260268152602001806127736026913960400191505060405180910390fd5b606654604080517f07b18bde00000000000000000000000000000000000000000000000000000000815273ffffffffffffffffffffffffffffffffffffffff868116600483015260248201869052915191909216916307b18bde91604480830192600092919082900301818387803b158015611d7d57600080fd5b505af1158015611d91573d6000803e3d6000fd5b50505050505050565b3390565b606b54600090819060ff1615611e1557604080517f08c379a000000000000000000000000000000000000000000000000000000000815260206004820152600d60248201527f41646d696e3a2070617573656400000000000000000000000000000000000000604482015290519081900360640190fd5b825160221480611e26575060428351115b611e7b576040517f08c379a00000000000000000000000000000000000000000000000000000000081526004018080602001828103825260268152602001806126d86026913960400191505060405180910390fd5b6002830151602284015180611ef157604080517f08c379a000000000000000000000000000000000000000000000000000000000815260206004820152601460248201527f52656c617965723a2067617320746f6f206c6f77000000000000000000000000604482015290519081900360640190fd5b8161ffff1660011480611f0857508161ffff166002145b611f7357604080517f08c379a000000000000000000000000000000000000000000000000000000000815260206004820152601b60248201527f52656c617965723a20756e737570706f72746564207478547970650000000000604482015290519081900360640190fd5b61ffff8881166000908152606860209081526040808320606983528184208c861685529092528220909290919085166002141561203f57604288015182546fffffffffffffffffffffffffffffffff1681111561203157604080517f08c379a000000000000000000000000000000000000000000000000000000000815260206004820152601f60248201527f52656c617965723a206473744e6174697665416d7420746f6f206c6172676500604482015290519081900360640190fd5b61203b82826121e3565b9150505b815460009061209e9061207090700100000000000000000000000000000000900467ffffffffffffffff16876121e3565b855470010000000000000000000000000000000090046fffffffffffffffffffffffffffffffff1690612167565b90506120aa82826121e3565b84549092506120dd906402540be400906120d79085906fffffffffffffffffffffffffffffffff16612167565b906123b0565b84548454919950612156916402540be400916120d7916fffffffffffffffffffffffffffffffff8083169261215092700100000000000000000000000000000000909104909116907801000000000000000000000000000000000000000000000000900467ffffffffffffffff16612167565b90612167565b965050505050505094509492505050565b600082612176575060006121dd565b8282028284828161218357fe5b04146121da576040517f08c379a00000000000000000000000000000000000000000000000000000000081526004018080602001828103825260218152602001806127526021913960400191505060405180910390fd5b90505b92915050565b6000828201838110156121da57604080517f08c379a000000000000000000000000000000000000000000000000000000000815260206004820152601b60248201527f536166654d6174683a206164646974696f6e206f766572666c6f770000000000604482015290519081900360640190fd5b7fb53127684a568b3173ae13b9f8a6016e243e63b6e8ee1178d6a717850b5d61035490565b600061228730612431565b15905090565b600154610100900460ff16806122a657506122a661227c565b806122b4575060015460ff16155b612309576040517f08c379a000000000000000000000000000000000000000000000000000000000815260040180806020018281038252602e815260200180612724602e913960400191505060405180910390fd5b600154610100900460ff1615801561236e57600180547fffffffffffffffffffffffffffffffffffffffffffffffffffffffffffffff007fffffffffffffffffffffffffffffffffffffffffffffffffffffffffffff00ff9091166101001716811790555b612376612437565b61237e612548565b80156123ad57600180547fffffffffffffffffffffffffffffffffffffffffffffffffffffffffffff00ff1690555b50565b600080821161242057604080517f08c379a000000000000000000000000000000000000000000000000000000000815260206004820152601a60248201527f536166654d6174683a206469766973696f6e206279207a65726f000000000000604482015290519081900360640190fd5b81838161242957fe5b049392505050565b3b151590565b600154610100900460ff1680612450575061245061227c565b8061245e575060015460ff16155b6124b3576040517f08c379a000000000000000000000000000000000000000000000000000000000815260040180806020018281038252602e815260200180612724602e913960400191505060405180910390fd5b600154610100900460ff1615801561237e57600180547fffffffffffffffffffffffffffffffffffffffffffffffffffffffffffffff007fffffffffffffffffffffffffffffffffffffffffffffffffffffffffffff00ff90911661010017168117905580156123ad57600180547fffffffffffffffffffffffffffffffffffffffffffffffffffffffffffff00ff16905550565b600154610100900460ff1680612561575061256161227c565b8061256f575060015460ff16155b6125c4576040517f08c379a000000000000000000000000000000000000000000000000000000000815260040180806020018281038252602e815260200180612724602e913960400191505060405180910390fd5b600154610100900460ff1615801561262957600180547fffffffffffffffffffffffffffffffffffffffffffffffffffffffffffffff007fffffffffffffffffffffffffffffffffffffffffffffffffffffffffffff00ff9091166101001716811790555b6000612633611d9a565b603480547fffffffffffffffffffffffff00000000000000000000000000000000000000001673ffffffffffffffffffffffffffffffffffffffff8316908117909155604051919250906000907f8be0079c531659141344cd1fd0a4f28419497f9722a3daafe3b4186f6b6457e0908290a35080156123ad57600180547fffffffffffffffffffffffffffffffffffffffffffffffffffffffffffff00ff1690555056fe52656c617965723a2077726f6e67205f61646170746572506172616d65746572732073697a654f776e61626c653a206e6577206f776e657220697320746865207a65726f2061646472657373496e697469616c697a61626c653a20636f6e747261637420697320616c726561647920696e697469616c697a6564536166654d6174683a206d756c7469706c69636174696f6e206f766572666c6f7752656c617965723a206e6f7420656e6f7567682066656520666f72207769746864726177616ca264697066735822122028c0fb6954ad70a0e1ee2aac53ec8af441b093ee3726cd3f288acea03e0961b864736f6c63430007060033",
  "devdoc": {
    "kind": "dev",
    "methods": {
      "owner()": {
        "details": "Returns the address of the current owner."
      },
      "renounceOwnership()": {
        "details": "Leaves the contract without owner. It will not be possible to call `onlyOwner` functions anymore. Can only be called by the current owner. NOTE: Renouncing ownership will leave the contract without an owner, thereby removing any functionality that is only available to the owner."
      },
      "transferOwnership(address)": {
        "details": "Transfers ownership of the contract to a new account (`newOwner`). Can only be called by the current owner."
      }
    },
    "version": 1
  },
  "userdoc": {
    "kind": "user",
    "methods": {},
    "version": 1
  },
  "storageLayout": {
    "storage": [
      {
        "astId": 4065,
        "contract": "contracts/RelayerV2.sol:RelayerV2",
        "label": "_status",
        "offset": 0,
        "slot": "0",
        "type": "t_uint256"
      },
      {
        "astId": 2128,
        "contract": "contracts/RelayerV2.sol:RelayerV2",
        "label": "_initialized",
        "offset": 0,
        "slot": "1",
        "type": "t_bool"
      },
      {
        "astId": 2131,
        "contract": "contracts/RelayerV2.sol:RelayerV2",
        "label": "_initializing",
        "offset": 1,
        "slot": "1",
        "type": "t_bool"
      },
      {
        "astId": 2475,
        "contract": "contracts/RelayerV2.sol:RelayerV2",
        "label": "__gap",
        "offset": 0,
        "slot": "2",
        "type": "t_array(t_uint256)50_storage"
      },
      {
        "astId": 2001,
        "contract": "contracts/RelayerV2.sol:RelayerV2",
        "label": "_owner",
        "offset": 0,
        "slot": "52",
        "type": "t_address"
      },
      {
        "astId": 2120,
        "contract": "contracts/RelayerV2.sol:RelayerV2",
        "label": "__gap",
        "offset": 0,
        "slot": "53",
        "type": "t_array(t_uint256)49_storage"
      },
      {
        "astId": 7026,
        "contract": "contracts/RelayerV2.sol:RelayerV2",
        "label": "uln",
        "offset": 0,
        "slot": "102",
        "type": "t_contract(ILayerZeroUltraLightNodeV2)13800"
      },
      {
        "astId": 7028,
        "contract": "contracts/RelayerV2.sol:RelayerV2",
        "label": "stargateBridgeAddress",
        "offset": 0,
        "slot": "103",
        "type": "t_address"
      },
      {
        "astId": 7044,
        "contract": "contracts/RelayerV2.sol:RelayerV2",
        "label": "dstPriceLookup",
        "offset": 0,
        "slot": "104",
        "type": "t_mapping(t_uint16,t_struct(DstPrice)7033_storage)"
      },
      {
        "astId": 7050,
        "contract": "contracts/RelayerV2.sol:RelayerV2",
        "label": "dstConfigLookup",
        "offset": 0,
        "slot": "105",
        "type": "t_mapping(t_uint16,t_mapping(t_uint16,t_struct(DstConfig)7040_storage))"
      },
      {
        "astId": 7054,
        "contract": "contracts/RelayerV2.sol:RelayerV2",
        "label": "approvedAddresses",
        "offset": 0,
        "slot": "106",
        "type": "t_mapping(t_address,t_bool)"
      },
      {
        "astId": 7098,
        "contract": "contracts/RelayerV2.sol:RelayerV2",
        "label": "paused",
        "offset": 0,
        "slot": "107",
        "type": "t_bool"
      }
    ],
    "types": {
      "t_address": {
        "encoding": "inplace",
        "label": "address",
        "numberOfBytes": "20"
      },
      "t_array(t_uint256)49_storage": {
        "base": "t_uint256",
        "encoding": "inplace",
        "label": "uint256[49]",
        "numberOfBytes": "1568"
      },
      "t_array(t_uint256)50_storage": {
        "base": "t_uint256",
        "encoding": "inplace",
        "label": "uint256[50]",
        "numberOfBytes": "1600"
      },
      "t_bool": {
        "encoding": "inplace",
        "label": "bool",
        "numberOfBytes": "1"
      },
      "t_contract(ILayerZeroUltraLightNodeV2)13800": {
        "encoding": "inplace",
        "label": "contract ILayerZeroUltraLightNodeV2",
        "numberOfBytes": "20"
      },
      "t_mapping(t_address,t_bool)": {
        "encoding": "mapping",
        "key": "t_address",
        "label": "mapping(address => bool)",
        "numberOfBytes": "32",
        "value": "t_bool"
      },
      "t_mapping(t_uint16,t_mapping(t_uint16,t_struct(DstConfig)7040_storage))": {
        "encoding": "mapping",
        "key": "t_uint16",
        "label": "mapping(uint16 => mapping(uint16 => struct RelayerV2.DstConfig))",
        "numberOfBytes": "32",
        "value": "t_mapping(t_uint16,t_struct(DstConfig)7040_storage)"
      },
      "t_mapping(t_uint16,t_struct(DstConfig)7040_storage)": {
        "encoding": "mapping",
        "key": "t_uint16",
        "label": "mapping(uint16 => struct RelayerV2.DstConfig)",
        "numberOfBytes": "32",
        "value": "t_struct(DstConfig)7040_storage"
      },
      "t_mapping(t_uint16,t_struct(DstPrice)7033_storage)": {
        "encoding": "mapping",
        "key": "t_uint16",
        "label": "mapping(uint16 => struct RelayerV2.DstPrice)",
        "numberOfBytes": "32",
        "value": "t_struct(DstPrice)7033_storage"
      },
      "t_struct(DstConfig)7040_storage": {
        "encoding": "inplace",
        "label": "struct RelayerV2.DstConfig",
        "members": [
          {
            "astId": 7035,
            "contract": "contracts/RelayerV2.sol:RelayerV2",
            "label": "dstNativeAmtCap",
            "offset": 0,
            "slot": "0",
            "type": "t_uint128"
          },
          {
            "astId": 7037,
            "contract": "contracts/RelayerV2.sol:RelayerV2",
            "label": "baseGas",
            "offset": 16,
            "slot": "0",
            "type": "t_uint64"
          },
          {
            "astId": 7039,
            "contract": "contracts/RelayerV2.sol:RelayerV2",
            "label": "gasPerByte",
            "offset": 24,
            "slot": "0",
            "type": "t_uint64"
          }
        ],
        "numberOfBytes": "32"
      },
      "t_struct(DstPrice)7033_storage": {
        "encoding": "inplace",
        "label": "struct RelayerV2.DstPrice",
        "members": [
          {
            "astId": 7030,
            "contract": "contracts/RelayerV2.sol:RelayerV2",
            "label": "dstPriceRatio",
            "offset": 0,
            "slot": "0",
            "type": "t_uint128"
          },
          {
            "astId": 7032,
            "contract": "contracts/RelayerV2.sol:RelayerV2",
            "label": "dstGasPriceInWei",
            "offset": 16,
            "slot": "0",
            "type": "t_uint128"
          }
        ],
        "numberOfBytes": "32"
      },
      "t_uint128": {
        "encoding": "inplace",
        "label": "uint128",
        "numberOfBytes": "16"
      },
      "t_uint16": {
        "encoding": "inplace",
        "label": "uint16",
        "numberOfBytes": "2"
      },
      "t_uint256": {
        "encoding": "inplace",
        "label": "uint256",
        "numberOfBytes": "32"
      },
      "t_uint64": {
        "encoding": "inplace",
        "label": "uint64",
        "numberOfBytes": "8"
      }
    }
  }
}