{
  "address": "0xD47D901055b9ca54D4e5438C33B7a288ab0100ad",
  "abi": [
    {
      "inputs": [
        {
          "internalType": "address",
          "name": "addr",
          "type": "address"
        }
      ],
      "name": "isAddressContract",
      "outputs": [
        {
          "internalType": "bool",
          "name": "",
          "type": "bool"
        }
      ],
      "stateMutability": "view",
      "type": "function"
    }
  ],
  "transactionHash": "0x677cd4d5e88c940675fb5e51eee9c56cde3e2b60c10bb1cc89f8df630330adc4",
  "args": [],
  "numDeployments": 1,
  "solcInputHash": "6e9fb5d113f8b24035e38f4a7f41a54c",
  "bytecode": "0x608060405234801561001057600080fd5b5060ad8061001f6000396000f3fe6080604052348015600f57600080fd5b506004361060285760003560e01c8063b5f9dc9114602d575b600080fd5b605d60048036036020811015604157600080fd5b503573ffffffffffffffffffffffffffffffffffffffff166071565b604080519115158252519081900360200190f35b3b15159056fea2646970667358221220c08d7487580443d0776a4f1db0285c09b3f961baffadc698373a4c563a0a1a7564736f6c63430007060033",
  "devdoc": {
    "kind": "dev",
    "methods": {},
    "version": 1
  },
  "userdoc": {
    "kind": "user",
    "methods": {},
    "version": 1
  },
  "storageLayout": {
    "storage": [],
    "types": null
  }
}