{
  "address": "0x7C6d8c996d28C33cB6B91d487d1FC2DBC922F050",
  "abi": [
    {
      "inputs": [
        {
          "internalType": "address",
          "name": "_stargateBridgeAddress",
          "type": "address"
        },
        {
          "internalType": "address",
          "name": "_stargateTokenAddress",
          "type": "address"
        }
      ],
      "stateMutability": "nonpayable",
      "type": "constructor"
    },
    {
      "inputs": [
        {
          "internalType": "bytes",
          "name": "data",
          "type": "bytes"
        },
        {
          "internalType": "uint256",
          "name": "sizeOfSrcAddress",
          "type": "uint256"
        },
        {
          "internalType": "bytes32",
          "name": "ulnAddress",
          "type": "bytes32"
        }
      ],
      "name": "getPacket",
      "outputs": [
        {
          "components": [
            {
              "internalType": "uint16",
              "name": "srcChainId",
              "type": "uint16"
            },
            {
              "internalType": "uint16",
              "name": "dstChainId",
              "type": "uint16"
            },
            {
              "internalType": "uint64",
              "name": "nonce",
              "type": "uint64"
            },
            {
              "internalType": "address",
              "name": "dstAddress",
              "type": "address"
            },
            {
              "internalType": "bytes",
              "name": "srcAddress",
              "type": "bytes"
            },
            {
              "internalType": "bytes32",
              "name": "ulnAddress",
              "type": "bytes32"
            },
            {
              "internalType": "bytes",
              "name": "payload",
              "type": "bytes"
            }
          ],
          "internalType": "struct LayerZeroPacket.Packet",
          "name": "",
          "type": "tuple"
        }
      ],
      "stateMutability": "pure",
      "type": "function"
    },
    {
      "inputs": [],
      "name": "getUtilsVersion",
      "outputs": [
        {
          "internalType": "uint8",
          "name": "",
          "type": "uint8"
        }
      ],
      "stateMutability": "view",
      "type": "function"
    },
    {
      "inputs": [
        {
          "internalType": "bytes32",
          "name": "_packetHash",
          "type": "bytes32"
        },
        {
          "internalType": "uint256[]",
          "name": "",
          "type": "uint256[]"
        },
        {
          "internalType": "uint256",
          "name": "",
          "type": "uint256"
        },
        {
          "internalType": "bytes[]",
          "name": "proof",
          "type": "bytes[]"
        }
      ],
      "name": "getVerifyLog",
      "outputs": [
        {
          "components": [
            {
              "internalType": "bytes32",
              "name": "contractAddress",
              "type": "bytes32"
            },
            {
              "internalType": "bytes32",
              "name": "topicZeroSig",
              "type": "bytes32"
            },
            {
              "internalType": "bytes",
              "name": "data",
              "type": "bytes"
            }
          ],
          "internalType": "struct IValidationLibraryHelperV2.ULNLog",
          "name": "",
          "type": "tuple"
        }
      ],
      "stateMutability": "pure",
      "type": "function"
    },
    {
      "inputs": [
        {
          "internalType": "bytes",
          "name": "_payload",
          "type": "bytes"
        }
      ],
      "name": "secureStgPayload",
      "outputs": [
        {
          "internalType": "bytes",
          "name": "",
          "type": "bytes"
        }
      ],
      "stateMutability": "view",
      "type": "function"
    },
    {
      "inputs": [
        {
          "internalType": "bytes",
          "name": "_payload",
          "type": "bytes"
        }
      ],
      "name": "secureStgTokenPayload",
      "outputs": [
        {
          "internalType": "bytes",
          "name": "",
          "type": "bytes"
        }
      ],
      "stateMutability": "pure",
      "type": "function"
    },
    {
      "inputs": [],
      "name": "stargateBridgeAddress",
      "outputs": [
        {
          "internalType": "address",
          "name": "",
          "type": "address"
        }
      ],
      "stateMutability": "view",
      "type": "function"
    },
    {
      "inputs": [],
      "name": "stargateTokenAddress",
      "outputs": [
        {
          "internalType": "address",
          "name": "",
          "type": "address"
        }
      ],
      "stateMutability": "view",
      "type": "function"
    },
    {
      "inputs": [],
      "name": "utilsVersion",
      "outputs": [
        {
          "internalType": "uint8",
          "name": "",
          "type": "uint8"
        }
      ],
      "stateMutability": "view",
      "type": "function"
    },
    {
      "inputs": [
        {
          "internalType": "bytes32",
          "name": "_packetHash",
          "type": "bytes32"
        },
        {
          "internalType": "bytes",
          "name": "_transactionProof",
          "type": "bytes"
        },
        {
          "internalType": "uint256",
          "name": "_remoteAddressSize",
          "type": "uint256"
        }
      ],
      "name": "validateProof",
      "outputs": [
        {
          "components": [
            {
              "internalType": "uint16",
              "name": "srcChainId",
              "type": "uint16"
            },
            {
              "internalType": "uint16",
              "name": "dstChainId",
              "type": "uint16"
            },
            {
              "internalType": "uint64",
              "name": "nonce",
              "type": "uint64"
            },
            {
              "internalType": "address",
              "name": "dstAddress",
              "type": "address"
            },
            {
              "internalType": "bytes",
              "name": "srcAddress",
              "type": "bytes"
            },
            {
              "internalType": "bytes32",
              "name": "ulnAddress",
              "type": "bytes32"
            },
            {
              "internalType": "bytes",
              "name": "payload",
              "type": "bytes"
            }
          ],
          "internalType": "struct LayerZeroPacket.Packet",
          "name": "packet",
          "type": "tuple"
        }
      ],
      "stateMutability": "view",
      "type": "function"
    }
  ],
  "transactionHash": "0xc00811f75d729561f3b4033dc87c9ae2ed64435c1b7cf5e3fb46f116f3a6061f",
  "args": [
    "0xa6f6aDc6C755D29d4F358FCcDF9117Bb2fD276CE",
    "0x6baeEB421D0BD4bb23A3eaF3A64D72cc18F992DD"
  ],
  "numDeployments": 1,
  "solcInputHash": "712a5ed4317e8bf60247fabbe03d3c8e",
  "bytecode": "0x60c06040526000805460ff1916600117905534801561001d57600080fd5b5060405161163038038061163083398101604081905261003c91610076565b6001600160601b0319606092831b8116608052911b1660a0526100a8565b80516001600160a01b038116811461007157600080fd5b919050565b60008060408385031215610088578182fd5b6100918361005a565b915061009f6020840161005a565b90509250929050565b60805160601c60a05160601c6115556100db6000398061051b528061059952508061035152806104b052506115556000f3fe608060405234801561001057600080fd5b50600436106100a35760003560e01c80636348d26911610076578063d633ad611161005b578063d633ad611461014e578063e965c19214610156578063ea455df91461015e576100a3565b80636348d26914610126578063b71e0f711461013b576100a3565b80630f222e65146100a85780632ff20449146100d157806347713b39146100f15780635711c2a814610106575b600080fd5b6100bb6100b6366004610e34565b610171565b6040516100c89190611325565b60405180910390f35b6100e46100df366004610fa9565b610318565b6040516100c89190611277565b6100f9610333565b6040516100c89190611354565b610119610114366004610f31565b61033c565b6040516100c89190611177565b61012e61034f565b6040516100c89190611156565b6100e4610149366004610eb4565b610373565b6100f961058e565b61012e610597565b61011961016c366004610f31565b6105bb565b610179610c25565b6001821480156101a9575060208383600081811061019357fe5b90506020028101906101a59190611404565b9050115b80156101e8575086838360008181106101be57fe5b90506020028101906101d09190611404565b6040516101de929190611146565b6040518091039020145b610227576040517f08c379a000000000000000000000000000000000000000000000000000000000815260040161021e90611209565b60405180910390fd5b60008383600081811061023657fe5b90506020028101906102489190611404565b610257916020916000916114cb565b8080601f016020809104026020016040519081016040528093929190818152602001838380828437600092019190915250505050602081015190915061029b610c25565b81815260006020820181905286908690816102b257fe5b90506020028101906102c49190611404565b6102d29160209082906114cb565b8080601f01602080910402602001604051908101604052809392919081815260200183838082843760009201919091525050505060408201529998505050505050505050565b610320610c44565b61032b8484846105c6565b949350505050565b60005460ff1681565b6060610347826107a0565b90505b919050565b7f000000000000000000000000000000000000000000000000000000000000000081565b61037b610c44565b600082116103b5576040517f08c379a000000000000000000000000000000000000000000000000000000000815260040161021e90611240565b6020831180156103db57508484846040516103d1929190611146565b6040518091039020145b610411576040517f08c379a000000000000000000000000000000000000000000000000000000000815260040161021e906111ac565b600061042060208286886114cb565b8080601f01602080910402602001604051908101604052809392919081815260200183838082843760009201919091525050506020808301519293506104ac915061046e908790818a6114cb565b8080601f0160208091040260200160405190810160405280939291908181526020018383808284376000920191909152508892508591506105c69050565b92507f000000000000000000000000000000000000000000000000000000000000000073ffffffffffffffffffffffffffffffffffffffff16836060015173ffffffffffffffffffffffffffffffffffffffff161415610519576105138360c001516107a0565b60c08401525b7f000000000000000000000000000000000000000000000000000000000000000073ffffffffffffffffffffffffffffffffffffffff16836060015173ffffffffffffffffffffffffffffffffffffffff1614156105845761057e8360c001516108c1565b60c08401525b5050949350505050565b60005460ff1690565b7f000000000000000000000000000000000000000000000000000000000000000081565b6060610347826108c1565b6105ce610c44565b835160006105dd85602061096b565b90508082101561064e57604080517f08c379a000000000000000000000000000000000000000000000000000000000815260206004820152601f60248201527f4c617965725a65726f5061636b65743a20696e76616c6964207061636b657400604482015290519081900360640190fd5b6008860151600a870151868801600c8101516020909101518486039392919061ffff83166106dd57604080517f08c379a000000000000000000000000000000000000000000000000000000000815260206004820152601f60248201527f4c617965725a65726f5061636b65743a20696e76616c6964207061636b657400604482015290519081900360640190fd5b6106e5610c82565b6106ef818c6109e8565b506106ff8160008e602a8f610a22565b50610708610c82565b86156107365761071881886109e8565b5061073460008e61072a8b602061096b565b849291908b610a22565b505b6040805160e08101825261ffff968716815294909516602085015267ffffffffffffffff9095169383019390935273ffffffffffffffffffffffffffffffffffffffff1660608201529051608082015260a08101879052905160c082015293505050509392505050565b6020810151606090600160ff821614156108ba576000806000806000806000898060200190518101906107d39190610ff5565b9750975097509750975097509750506000815111156108b2578151600090156107fd575060148201515b803b806108af576000826040516020016108179190611116565b604080517fffffffffffffffffffffffffffffffffffffffffffffffffffffffffffffffe08184030181526020838101835260008085529251919450919261086d928f928f928f928f928f928f928b9201611362565b604080517fffffffffffffffffffffffffffffffffffffffffffffffffffffffffffffffe08184030181529190529c5061034a9b505050505050505050505050565b50505b505050505050505b5090919050565b6060600080838060200190518101906108da9190610f64565b91509150600080835111156108f0575060148201515b73ffffffffffffffffffffffffffffffffffffffff81166109625760405161dead90600090610923908390602001611116565b6040516020818303038152906040529050808460405160200161094792919061118a565b6040516020818303038152906040529550505050505061034a565b50929392505050565b6000828201838110156109df57604080517f08c379a000000000000000000000000000000000000000000000000000000000815260206004820152601b60248201527f536166654d6174683a206164646974696f6e206f766572666c6f770000000000604482015290519081900360640190fd5b90505b92915050565b6109f0610c82565b6020820615610a055760208206602003820191505b506020828101829052604080518085526000815290920101905290565b610a2a610c82565b85602001518286011115610a5457610a5486610a4c8860200151888601610afc565b600202610b13565b600080875180518860208301019350808987011115610a735788860182525b5050508484015b60208410610ab757805182527fffffffffffffffffffffffffffffffffffffffffffffffffffffffffffffffe09093019260209182019101610a7a565b5181517fffffffffffffffffffffffffffffffffffffffffffffffffffffffffffffffff60208690036101000a01908116901991909116179052508495945050505050565b600081831115610b0d5750816109e2565b50919050565b8151610b1f83836109e8565b50610b2a8382610b30565b50505050565b610b38610c82565b6109df83846000015151848551610b4d610c82565b8251821115610b5b57600080fd5b84602001518285011115610b7d57610b7d85610a4c8760200151878601610afc565b600080865180518760208301019350808887011115610b9c5787860182525b505050602084015b60208410610be157805182527fffffffffffffffffffffffffffffffffffffffffffffffffffffffffffffffe09093019260209182019101610ba4565b5181517fffffffffffffffffffffffffffffffffffffffffffffffffffffffffffffffff60208690036101000a019081169019919091161790525083949350505050565b6040805160608082018352600080835260208301529181019190915290565b6040805160e08101825260008082526020820181905291810182905260608082018390526080820181905260a082019290925260c081019190915290565b604051806040016040528060608152602001600081525090565b60008083601f840112610cad578081fd5b50813567ffffffffffffffff811115610cc4578182fd5b6020830191508360208083028501011115610cde57600080fd5b9250929050565b600082601f830112610cf5578081fd5b8135610d08610d038261148b565b611467565b818152846020838601011115610d1c578283fd5b816020850160208301379081016020019190915292915050565b600082601f830112610d46578081fd5b8151610d54610d038261148b565b818152846020838601011115610d68578283fd5b61032b8260208301602087016114f3565b600060408284031215610d8a578081fd5b6040516040810181811067ffffffffffffffff82111715610da757fe5b604052825181526020928301519281019290925250919050565b600060c08284031215610dd2578081fd5b60405160c0810181811067ffffffffffffffff82111715610def57fe5b8060405250809150825181526020830151602082015260408301516040820152606083015160608201526080830151608082015260a083015160a08201525092915050565b60008060008060008060808789031215610e4c578182fd5b86359550602087013567ffffffffffffffff80821115610e6a578384fd5b610e768a838b01610c9c565b9097509550604089013594506060890135915080821115610e95578384fd5b50610ea289828a01610c9c565b979a9699509497509295939492505050565b60008060008060608587031215610ec9578384fd5b84359350602085013567ffffffffffffffff80821115610ee7578485fd5b818701915087601f830112610efa578485fd5b813581811115610f08578586fd5b886020828501011115610f19578586fd5b95986020929092019750949560400135945092505050565b600060208284031215610f42578081fd5b813567ffffffffffffffff811115610f58578182fd5b61032b84828501610ce5565b60008060408385031215610f76578182fd5b825167ffffffffffffffff811115610f8c578283fd5b610f9885828601610d36565b925050602083015190509250929050565b600080600060608486031215610fbd578283fd5b833567ffffffffffffffff811115610fd3578384fd5b610fdf86828701610ce5565b9660208601359650604090950135949350505050565b6000806000806000806000806101c0898b031215611011578182fd5b885160ff81168114611021578283fd5b809850506020890151965060408901519550606089015194506110478a60808b01610d79565b93506110568a60c08b01610dc1565b925061018089015167ffffffffffffffff80821115611073578384fd5b61107f8c838d01610d36565b93506101a08b0151915080821115611095578283fd5b506110a28b828c01610d36565b9150509295985092959890939650565b73ffffffffffffffffffffffffffffffffffffffff169052565b600081518084526110e48160208601602086016114f3565b601f017fffffffffffffffffffffffffffffffffffffffffffffffffffffffffffffffe0169290920160200192915050565b60609190911b7fffffffffffffffffffffffffffffffffffffffff00000000000000000000000016815260140190565b6000828483379101908152919050565b73ffffffffffffffffffffffffffffffffffffffff91909116815260200190565b6000602082526109df60208301846110cc565b60006040825261119d60408301856110cc565b90508260208301529392505050565b60208082526023908201527f50726f6f664c69623a20696e76616c6964207472616e73616374696f6e20707260408201527f6f6f660000000000000000000000000000000000000000000000000000000000606082015260800190565b60208082526017908201527f50726f6f664c69623a20696e76616c69642070726f6f66000000000000000000604082015260600190565b6020808252601e908201527f50726f6f664c69623a20696e76616c696420616464726573732073697a650000604082015260600190565b60006020825261ffff8084511660208401528060208501511660408401525067ffffffffffffffff604084015116606083015260608301516112bc60808401826110b2565b50608083015160e060a08401526112d76101008401826110cc565b905060a084015160c084015260c08401517fffffffffffffffffffffffffffffffffffffffffffffffffffffffffffffffe08483030160e085015261131c82826110cc565b95945050505050565b6000602082528251602083015260208301516040830152604083015160608084015261032b60808401826110cc565b60ff91909116815260200190565b60006101c060ff8b16835289602084015288604084015287606084015286516080840152602087015160a0840152855160c0840152602086015160e084015260408601516101008401526060860151610120840152608086015161014084015260a0860151610160840152806101808401526113e0818401866110cc565b90508281036101a08401526113f581856110cc565b9b9a5050505050505050505050565b60008083357fffffffffffffffffffffffffffffffffffffffffffffffffffffffffffffffe1843603018112611438578283fd5b83018035915067ffffffffffffffff821115611452578283fd5b602001915036819003821315610cde57600080fd5b60405181810167ffffffffffffffff8111828210171561148357fe5b604052919050565b600067ffffffffffffffff82111561149f57fe5b50601f017fffffffffffffffffffffffffffffffffffffffffffffffffffffffffffffffe01660200190565b600080858511156114da578182fd5b838611156114e6578182fd5b5050820193919092039150565b60005b8381101561150e5781810151838201526020016114f6565b83811115610b2a575050600091015256fea2646970667358221220cf9dbe452de7da09e0046c718ab10ecadb2712d025f9984859001378da1c842664736f6c63430007060033",
  "devdoc": {
    "kind": "dev",
    "methods": {},
    "version": 1
  },
  "userdoc": {
    "kind": "user",
    "methods": {},
    "version": 1
  },
  "storageLayout": {
    "storage": [
      {
        "astId": 16116,
        "contract": "contracts/proof/FPValidator.sol:FPValidator",
        "label": "utilsVersion",
        "offset": 0,
        "slot": "0",
        "type": "t_uint8"
      }
    ],
    "types": {
      "t_uint8": {
        "encoding": "inplace",
        "label": "uint8",
        "numberOfBytes": "1"
      }
    }
  }
}