{
  "address": "0xc123b5d9d106753859FB4DcEBE0725b447309471",
  "abi": [
    {
      "inputs": [
        {
          "internalType": "address",
          "name": "_endpoint",
          "type": "address"
        },
        {
          "internalType": "address",
          "name": "_nonceContract",
          "type": "address"
        },
        {
          "internalType": "uint16",
          "name": "_localChainId",
          "type": "uint16"
        }
      ],
      "stateMutability": "nonpayable",
      "type": "constructor"
    },
    {
      "anonymous": false,
      "inputs": [
        {
          "indexed": true,
          "internalType": "uint16",
          "name": "chainId",
          "type": "uint16"
        },
        {
          "indexed": false,
          "internalType": "address",
          "name": "lib",
          "type": "address"
        },
        {
          "indexed": false,
          "internalType": "uint16",
          "name": "proofType",
          "type": "uint16"
        }
      ],
      "name": "AddInboundProofLibraryForChain",
      "type": "event"
    },
    {
      "anonymous": false,
      "inputs": [
        {
          "indexed": true,
          "internalType": "address",
          "name": "userApplication",
          "type": "address"
        },
        {
          "indexed": true,
          "internalType": "uint256",
          "name": "configType",
          "type": "uint256"
        },
        {
          "indexed": false,
          "internalType": "bytes",
          "name": "newConfig",
          "type": "bytes"
        }
      ],
      "name": "AppConfigUpdated",
      "type": "event"
    },
    {
      "anonymous": false,
      "inputs": [
        {
          "indexed": true,
          "internalType": "uint16",
          "name": "chainId",
          "type": "uint16"
        },
        {
          "indexed": false,
          "internalType": "uint16",
          "name": "proofType",
          "type": "uint16"
        }
      ],
      "name": "EnableSupportedOutboundProof",
      "type": "event"
    },
    {
      "anonymous": false,
      "inputs": [
        {
          "indexed": true,
          "internalType": "uint16",
          "name": "srcChainId",
          "type": "uint16"
        },
        {
          "indexed": true,
          "internalType": "address",
          "name": "oracle",
          "type": "address"
        },
        {
          "indexed": false,
          "internalType": "bytes32",
          "name": "lookupHash",
          "type": "bytes32"
        },
        {
          "indexed": false,
          "internalType": "bytes32",
          "name": "blockData",
          "type": "bytes32"
        },
        {
          "indexed": false,
          "internalType": "uint256",
          "name": "confirmations",
          "type": "uint256"
        }
      ],
      "name": "HashReceived",
      "type": "event"
    },
    {
      "anonymous": false,
      "inputs": [
        {
          "indexed": true,
          "internalType": "uint16",
          "name": "srcChainId",
          "type": "uint16"
        },
        {
          "indexed": false,
          "internalType": "bytes",
          "name": "srcAddress",
          "type": "bytes"
        },
        {
          "indexed": true,
          "internalType": "address",
          "name": "dstAddress",
          "type": "address"
        },
        {
          "indexed": false,
          "internalType": "uint64",
          "name": "nonce",
          "type": "uint64"
        },
        {
          "indexed": false,
          "internalType": "bytes32",
          "name": "payloadHash",
          "type": "bytes32"
        }
      ],
      "name": "InvalidDst",
      "type": "event"
    },
    {
      "anonymous": false,
      "inputs": [
        {
          "indexed": true,
          "internalType": "address",
          "name": "previousOwner",
          "type": "address"
        },
        {
          "indexed": true,
          "internalType": "address",
          "name": "newOwner",
          "type": "address"
        }
      ],
      "name": "OwnershipTransferred",
      "type": "event"
    },
    {
      "anonymous": false,
      "inputs": [
        {
          "indexed": false,
          "internalType": "bytes",
          "name": "payload",
          "type": "bytes"
        }
      ],
      "name": "Packet",
      "type": "event"
    },
    {
      "anonymous": false,
      "inputs": [
        {
          "indexed": true,
          "internalType": "uint16",
          "name": "srcChainId",
          "type": "uint16"
        },
        {
          "indexed": false,
          "internalType": "bytes",
          "name": "srcAddress",
          "type": "bytes"
        },
        {
          "indexed": true,
          "internalType": "address",
          "name": "dstAddress",
          "type": "address"
        },
        {
          "indexed": false,
          "internalType": "uint64",
          "name": "nonce",
          "type": "uint64"
        },
        {
          "indexed": false,
          "internalType": "bytes32",
          "name": "payloadHash",
          "type": "bytes32"
        }
      ],
      "name": "PacketReceived",
      "type": "event"
    },
    {
      "anonymous": false,
      "inputs": [
        {
          "indexed": false,
          "internalType": "bytes",
          "name": "adapterParams",
          "type": "bytes"
        },
        {
          "indexed": false,
          "internalType": "uint16",
          "name": "outboundProofType",
          "type": "uint16"
        }
      ],
      "name": "RelayerParams",
      "type": "event"
    },
    {
      "anonymous": false,
      "inputs": [
        {
          "indexed": true,
          "internalType": "uint16",
          "name": "chainId",
          "type": "uint16"
        },
        {
          "indexed": false,
          "internalType": "uint256",
          "name": "size",
          "type": "uint256"
        }
      ],
      "name": "SetChainAddressSize",
      "type": "event"
    },
    {
      "anonymous": false,
      "inputs": [
        {
          "indexed": true,
          "internalType": "uint16",
          "name": "chainId",
          "type": "uint16"
        },
        {
          "indexed": true,
          "internalType": "uint16",
          "name": "proofType",
          "type": "uint16"
        },
        {
          "indexed": false,
          "internalType": "bytes",
          "name": "adapterParams",
          "type": "bytes"
        }
      ],
      "name": "SetDefaultAdapterParamsForChainId",
      "type": "event"
    },
    {
      "anonymous": false,
      "inputs": [
        {
          "indexed": true,
          "internalType": "uint16",
          "name": "chainId",
          "type": "uint16"
        },
        {
          "indexed": false,
          "internalType": "uint16",
          "name": "inboundProofLib",
          "type": "uint16"
        },
        {
          "indexed": false,
          "internalType": "uint64",
          "name": "inboundBlockConfirm",
          "type": "uint64"
        },
        {
          "indexed": false,
          "internalType": "address",
          "name": "relayer",
          "type": "address"
        },
        {
          "indexed": false,
          "internalType": "uint16",
          "name": "outboundProofType",
          "type": "uint16"
        },
        {
          "indexed": false,
          "internalType": "uint64",
          "name": "outboundBlockConfirm",
          "type": "uint64"
        },
        {
          "indexed": false,
          "internalType": "address",
          "name": "oracle",
          "type": "address"
        }
      ],
      "name": "SetDefaultConfigForChainId",
      "type": "event"
    },
    {
      "anonymous": false,
      "inputs": [
        {
          "indexed": true,
          "internalType": "address",
          "name": "tokenAddress",
          "type": "address"
        }
      ],
      "name": "SetLayerZeroToken",
      "type": "event"
    },
    {
      "anonymous": false,
      "inputs": [
        {
          "indexed": true,
          "internalType": "uint16",
          "name": "chainId",
          "type": "uint16"
        },
        {
          "indexed": false,
          "internalType": "bytes32",
          "name": "uln",
          "type": "bytes32"
        }
      ],
      "name": "SetRemoteUln",
      "type": "event"
    },
    {
      "anonymous": false,
      "inputs": [
        {
          "indexed": true,
          "internalType": "address",
          "name": "treasuryAddress",
          "type": "address"
        }
      ],
      "name": "SetTreasury",
      "type": "event"
    },
    {
      "anonymous": false,
      "inputs": [
        {
          "indexed": true,
          "internalType": "address",
          "name": "msgSender",
          "type": "address"
        },
        {
          "indexed": true,
          "internalType": "address",
          "name": "to",
          "type": "address"
        },
        {
          "indexed": false,
          "internalType": "uint256",
          "name": "amount",
          "type": "uint256"
        }
      ],
      "name": "WithdrawNative",
      "type": "event"
    },
    {
      "anonymous": false,
      "inputs": [
        {
          "indexed": true,
          "internalType": "address",
          "name": "msgSender",
          "type": "address"
        },
        {
          "indexed": true,
          "internalType": "address",
          "name": "to",
          "type": "address"
        },
        {
          "indexed": false,
          "internalType": "uint256",
          "name": "amount",
          "type": "uint256"
        }
      ],
      "name": "WithdrawZRO",
      "type": "event"
    },
    {
      "inputs": [],
      "name": "CONFIG_TYPE_INBOUND_BLOCK_CONFIRMATIONS",
      "outputs": [
        {
          "internalType": "uint256",
          "name": "",
          "type": "uint256"
        }
      ],
      "stateMutability": "view",
      "type": "function"
    },
    {
      "inputs": [],
      "name": "CONFIG_TYPE_INBOUND_PROOF_LIBRARY_VERSION",
      "outputs": [
        {
          "internalType": "uint256",
          "name": "",
          "type": "uint256"
        }
      ],
      "stateMutability": "view",
      "type": "function"
    },
    {
      "inputs": [],
      "name": "CONFIG_TYPE_ORACLE",
      "outputs": [
        {
          "internalType": "uint256",
          "name": "",
          "type": "uint256"
        }
      ],
      "stateMutability": "view",
      "type": "function"
    },
    {
      "inputs": [],
      "name": "CONFIG_TYPE_OUTBOUND_BLOCK_CONFIRMATIONS",
      "outputs": [
        {
          "internalType": "uint256",
          "name": "",
          "type": "uint256"
        }
      ],
      "stateMutability": "view",
      "type": "function"
    },
    {
      "inputs": [],
      "name": "CONFIG_TYPE_OUTBOUND_PROOF_TYPE",
      "outputs": [
        {
          "internalType": "uint256",
          "name": "",
          "type": "uint256"
        }
      ],
      "stateMutability": "view",
      "type": "function"
    },
    {
      "inputs": [],
      "name": "CONFIG_TYPE_RELAYER",
      "outputs": [
        {
          "internalType": "uint256",
          "name": "",
          "type": "uint256"
        }
      ],
      "stateMutability": "view",
      "type": "function"
    },
    {
      "inputs": [
        {
          "internalType": "address",
          "name": "_address",
          "type": "address"
        }
      ],
      "name": "accruedNativeFee",
      "outputs": [
        {
          "internalType": "uint256",
          "name": "",
          "type": "uint256"
        }
      ],
      "stateMutability": "view",
      "type": "function"
    },
    {
      "inputs": [
        {
          "internalType": "uint16",
          "name": "_chainId",
          "type": "uint16"
        },
        {
          "internalType": "address",
          "name": "_library",
          "type": "address"
        },
        {
          "internalType": "uint16",
          "name": "_proofType",
          "type": "uint16"
        }
      ],
      "name": "addInboundProofLibraryForChain",
      "outputs": [],
      "stateMutability": "nonpayable",
      "type": "function"
    },
    {
      "inputs": [
        {
          "internalType": "address",
          "name": "",
          "type": "address"
        },
        {
          "internalType": "uint16",
          "name": "",
          "type": "uint16"
        }
      ],
      "name": "appConfig",
      "outputs": [
        {
          "internalType": "uint16",
          "name": "inboundProofLibraryVersion",
          "type": "uint16"
        },
        {
          "internalType": "uint64",
          "name": "inboundBlockConfirmations",
          "type": "uint64"
        },
        {
          "internalType": "address",
          "name": "relayer",
          "type": "address"
        },
        {
          "internalType": "uint16",
          "name": "outboundProofType",
          "type": "uint16"
        },
        {
          "internalType": "uint64",
          "name": "outboundBlockConfirmations",
          "type": "uint64"
        },
        {
          "internalType": "address",
          "name": "oracle",
          "type": "address"
        }
      ],
      "stateMutability": "view",
      "type": "function"
    },
    {
      "inputs": [
        {
          "internalType": "uint16",
          "name": "",
          "type": "uint16"
        }
      ],
      "name": "chainAddressSizeMap",
      "outputs": [
        {
          "internalType": "uint256",
          "name": "",
          "type": "uint256"
        }
      ],
      "stateMutability": "view",
      "type": "function"
    },
    {
      "inputs": [
        {
          "internalType": "uint16",
          "name": "",
          "type": "uint16"
        },
        {
          "internalType": "uint16",
          "name": "",
          "type": "uint16"
        }
      ],
      "name": "defaultAdapterParams",
      "outputs": [
        {
          "internalType": "bytes",
          "name": "",
          "type": "bytes"
        }
      ],
      "stateMutability": "view",
      "type": "function"
    },
    {
      "inputs": [
        {
          "internalType": "uint16",
          "name": "",
          "type": "uint16"
        }
      ],
      "name": "defaultAppConfig",
      "outputs": [
        {
          "internalType": "uint16",
          "name": "inboundProofLibraryVersion",
          "type": "uint16"
        },
        {
          "internalType": "uint64",
          "name": "inboundBlockConfirmations",
          "type": "uint64"
        },
        {
          "internalType": "address",
          "name": "relayer",
          "type": "address"
        },
        {
          "internalType": "uint16",
          "name": "outboundProofType",
          "type": "uint16"
        },
        {
          "internalType": "uint64",
          "name": "outboundBlockConfirmations",
          "type": "uint64"
        },
        {
          "internalType": "address",
          "name": "oracle",
          "type": "address"
        }
      ],
      "stateMutability": "view",
      "type": "function"
    },
    {
      "inputs": [
        {
          "internalType": "uint16",
          "name": "_chainId",
          "type": "uint16"
        },
        {
          "internalType": "uint16",
          "name": "_proofType",
          "type": "uint16"
        }
      ],
      "name": "enableSupportedOutboundProof",
      "outputs": [],
      "stateMutability": "nonpayable",
      "type": "function"
    },
    {
      "inputs": [],
      "name": "endpoint",
      "outputs": [
        {
          "internalType": "contract ILayerZeroEndpoint",
          "name": "",
          "type": "address"
        }
      ],
      "stateMutability": "view",
      "type": "function"
    },
    {
      "inputs": [
        {
          "internalType": "uint16",
          "name": "_dstChainId",
          "type": "uint16"
        },
        {
          "internalType": "address",
          "name": "_ua",
          "type": "address"
        },
        {
          "internalType": "bytes",
          "name": "_payload",
          "type": "bytes"
        },
        {
          "internalType": "bool",
          "name": "_payInZRO",
          "type": "bool"
        },
        {
          "internalType": "bytes",
          "name": "_adapterParams",
          "type": "bytes"
        }
      ],
      "name": "estimateFees",
      "outputs": [
        {
          "internalType": "uint256",
          "name": "nativeFee",
          "type": "uint256"
        },
        {
          "internalType": "uint256",
          "name": "zroFee",
          "type": "uint256"
        }
      ],
      "stateMutability": "view",
      "type": "function"
    },
    {
      "inputs": [
        {
          "internalType": "uint16",
          "name": "_remoteChainId",
          "type": "uint16"
        },
        {
          "internalType": "address",
          "name": "_ua",
          "type": "address"
        }
      ],
      "name": "getAppConfig",
      "outputs": [
        {
          "components": [
            {
              "internalType": "uint16",
              "name": "inboundProofLibraryVersion",
              "type": "uint16"
            },
            {
              "internalType": "uint64",
              "name": "inboundBlockConfirmations",
              "type": "uint64"
            },
            {
              "internalType": "address",
              "name": "relayer",
              "type": "address"
            },
            {
              "internalType": "uint16",
              "name": "outboundProofType",
              "type": "uint16"
            },
            {
              "internalType": "uint64",
              "name": "outboundBlockConfirmations",
              "type": "uint64"
            },
            {
              "internalType": "address",
              "name": "oracle",
              "type": "address"
            }
          ],
          "internalType": "struct ILayerZeroUltraLightNodeV2.ApplicationConfiguration",
          "name": "",
          "type": "tuple"
        }
      ],
      "stateMutability": "view",
      "type": "function"
    },
    {
      "inputs": [
        {
          "internalType": "uint16",
          "name": "_remoteChainId",
          "type": "uint16"
        },
        {
          "internalType": "address",
          "name": "_ua",
          "type": "address"
        },
        {
          "internalType": "uint256",
          "name": "_configType",
          "type": "uint256"
        }
      ],
      "name": "getConfig",
      "outputs": [
        {
          "internalType": "bytes",
          "name": "",
          "type": "bytes"
        }
      ],
      "stateMutability": "view",
      "type": "function"
    },
    {
      "inputs": [
        {
          "internalType": "uint16",
          "name": "_chainId",
          "type": "uint16"
        },
        {
          "internalType": "bytes",
          "name": "_path",
          "type": "bytes"
        }
      ],
      "name": "getOutboundNonce",
      "outputs": [
        {
          "internalType": "uint64",
          "name": "",
          "type": "uint64"
        }
      ],
      "stateMutability": "view",
      "type": "function"
    },
    {
      "inputs": [
        {
          "internalType": "address",
          "name": "",
          "type": "address"
        },
        {
          "internalType": "uint16",
          "name": "",
          "type": "uint16"
        },
        {
          "internalType": "bytes32",
          "name": "",
          "type": "bytes32"
        },
        {
          "internalType": "bytes32",
          "name": "",
          "type": "bytes32"
        }
      ],
      "name": "hashLookup",
      "outputs": [
        {
          "internalType": "uint256",
          "name": "",
          "type": "uint256"
        }
      ],
      "stateMutability": "view",
      "type": "function"
    },
    {
      "inputs": [
        {
          "internalType": "uint16",
          "name": "",
          "type": "uint16"
        },
        {
          "internalType": "uint16",
          "name": "",
          "type": "uint16"
        }
      ],
      "name": "inboundProofLibrary",
      "outputs": [
        {
          "internalType": "address",
          "name": "",
          "type": "address"
        }
      ],
      "stateMutability": "view",
      "type": "function"
    },
    {
      "inputs": [
        {
          "internalType": "uint16",
          "name": "",
          "type": "uint16"
        },
        {
          "internalType": "uint16",
          "name": "",
          "type": "uint16"
        }
      ],
      "name": "inboundProofLibraryType",
      "outputs": [
        {
          "internalType": "uint16",
          "name": "",
          "type": "uint16"
        }
      ],
      "stateMutability": "view",
      "type": "function"
    },
    {
      "inputs": [],
      "name": "layerZeroToken",
      "outputs": [
        {
          "internalType": "contract IERC20",
          "name": "",
          "type": "address"
        }
      ],
      "stateMutability": "view",
      "type": "function"
    },
    {
      "inputs": [],
      "name": "localChainId",
      "outputs": [
        {
          "internalType": "uint16",
          "name": "",
          "type": "uint16"
        }
      ],
      "stateMutability": "view",
      "type": "function"
    },
    {
      "inputs": [
        {
          "internalType": "uint16",
          "name": "",
          "type": "uint16"
        }
      ],
      "name": "maxInboundProofLibrary",
      "outputs": [
        {
          "internalType": "uint16",
          "name": "",
          "type": "uint16"
        }
      ],
      "stateMutability": "view",
      "type": "function"
    },
    {
      "inputs": [
        {
          "internalType": "address",
          "name": "",
          "type": "address"
        }
      ],
      "name": "nativeFees",
      "outputs": [
        {
          "internalType": "uint256",
          "name": "",
          "type": "uint256"
        }
      ],
      "stateMutability": "view",
      "type": "function"
    },
    {
      "inputs": [],
      "name": "nonceContract",
      "outputs": [
        {
          "internalType": "contract NonceContract",
          "name": "",
          "type": "address"
        }
      ],
      "stateMutability": "view",
      "type": "function"
    },
    {
      "inputs": [],
      "name": "owner",
      "outputs": [
        {
          "internalType": "address",
          "name": "",
          "type": "address"
        }
      ],
      "stateMutability": "view",
      "type": "function"
    },
    {
      "inputs": [],
      "name": "renounceOwnership",
      "outputs": [],
      "stateMutability": "nonpayable",
      "type": "function"
    },
    {
      "inputs": [
        {
          "internalType": "address",
          "name": "_ua",
          "type": "address"
        },
        {
          "internalType": "uint64",
          "name": "",
          "type": "uint64"
        },
        {
          "internalType": "uint16",
          "name": "_dstChainId",
          "type": "uint16"
        },
        {
          "internalType": "bytes",
          "name": "_path",
          "type": "bytes"
        },
        {
          "internalType": "bytes",
          "name": "_payload",
          "type": "bytes"
        },
        {
          "internalType": "address payable",
          "name": "_refundAddress",
          "type": "address"
        },
        {
          "internalType": "address",
          "name": "_zroPaymentAddress",
          "type": "address"
        },
        {
          "internalType": "bytes",
          "name": "_adapterParams",
          "type": "bytes"
        }
      ],
      "name": "send",
      "outputs": [],
      "stateMutability": "payable",
      "type": "function"
    },
    {
      "inputs": [
        {
          "internalType": "uint16",
          "name": "_chainId",
          "type": "uint16"
        },
        {
          "internalType": "uint256",
          "name": "_size",
          "type": "uint256"
        }
      ],
      "name": "setChainAddressSize",
      "outputs": [],
      "stateMutability": "nonpayable",
      "type": "function"
    },
    {
      "inputs": [
        {
          "internalType": "uint16",
          "name": "_remoteChainId",
          "type": "uint16"
        },
        {
          "internalType": "address",
          "name": "_ua",
          "type": "address"
        },
        {
          "internalType": "uint256",
          "name": "_configType",
          "type": "uint256"
        },
        {
          "internalType": "bytes",
          "name": "_config",
          "type": "bytes"
        }
      ],
      "name": "setConfig",
      "outputs": [],
      "stateMutability": "nonpayable",
      "type": "function"
    },
    {
      "inputs": [
        {
          "internalType": "uint16",
          "name": "_chainId",
          "type": "uint16"
        },
        {
          "internalType": "uint16",
          "name": "_proofType",
          "type": "uint16"
        },
        {
          "internalType": "bytes",
          "name": "_adapterParams",
          "type": "bytes"
        }
      ],
      "name": "setDefaultAdapterParamsForChainId",
      "outputs": [],
      "stateMutability": "nonpayable",
      "type": "function"
    },
    {
      "inputs": [
        {
          "internalType": "uint16",
          "name": "_chainId",
          "type": "uint16"
        },
        {
          "internalType": "uint16",
          "name": "_inboundProofLibraryVersion",
          "type": "uint16"
        },
        {
          "internalType": "uint64",
          "name": "_inboundBlockConfirmations",
          "type": "uint64"
        },
        {
          "internalType": "address",
          "name": "_relayer",
          "type": "address"
        },
        {
          "internalType": "uint16",
          "name": "_outboundProofType",
          "type": "uint16"
        },
        {
          "internalType": "uint64",
          "name": "_outboundBlockConfirmations",
          "type": "uint64"
        },
        {
          "internalType": "address",
          "name": "_oracle",
          "type": "address"
        }
      ],
      "name": "setDefaultConfigForChainId",
      "outputs": [],
      "stateMutability": "nonpayable",
      "type": "function"
    },
    {
      "inputs": [
        {
          "internalType": "address",
          "name": "_layerZeroToken",
          "type": "address"
        }
      ],
      "name": "setLayerZeroToken",
      "outputs": [],
      "stateMutability": "nonpayable",
      "type": "function"
    },
    {
      "inputs": [
        {
          "internalType": "uint16",
          "name": "_remoteChainId",
          "type": "uint16"
        },
        {
          "internalType": "bytes32",
          "name": "_remoteUln",
          "type": "bytes32"
        }
      ],
      "name": "setRemoteUln",
      "outputs": [],
      "stateMutability": "nonpayable",
      "type": "function"
    },
    {
      "inputs": [
        {
          "internalType": "address",
          "name": "_treasury",
          "type": "address"
        }
      ],
      "name": "setTreasury",
      "outputs": [],
      "stateMutability": "nonpayable",
      "type": "function"
    },
    {
      "inputs": [
        {
          "internalType": "uint16",
          "name": "",
          "type": "uint16"
        },
        {
          "internalType": "uint16",
          "name": "",
          "type": "uint16"
        }
      ],
      "name": "supportedOutboundProof",
      "outputs": [
        {
          "internalType": "bool",
          "name": "",
          "type": "bool"
        }
      ],
      "stateMutability": "view",
      "type": "function"
    },
    {
      "inputs": [
        {
          "internalType": "address",
          "name": "newOwner",
          "type": "address"
        }
      ],
      "name": "transferOwnership",
      "outputs": [],
      "stateMutability": "nonpayable",
      "type": "function"
    },
    {
      "inputs": [],
      "name": "treasuryContract",
      "outputs": [
        {
          "internalType": "contract ILayerZeroTreasury",
          "name": "",
          "type": "address"
        }
      ],
      "stateMutability": "view",
      "type": "function"
    },
    {
      "inputs": [],
      "name": "treasuryZROFees",
      "outputs": [
        {
          "internalType": "uint256",
          "name": "",
          "type": "uint256"
        }
      ],
      "stateMutability": "view",
      "type": "function"
    },
    {
      "inputs": [
        {
          "internalType": "uint16",
          "name": "",
          "type": "uint16"
        }
      ],
      "name": "ulnLookup",
      "outputs": [
        {
          "internalType": "bytes32",
          "name": "",
          "type": "bytes32"
        }
      ],
      "stateMutability": "view",
      "type": "function"
    },
    {
      "inputs": [
        {
          "internalType": "uint16",
          "name": "_srcChainId",
          "type": "uint16"
        },
        {
          "internalType": "bytes32",
          "name": "_lookupHash",
          "type": "bytes32"
        },
        {
          "internalType": "uint256",
          "name": "_confirmations",
          "type": "uint256"
        },
        {
          "internalType": "bytes32",
          "name": "_blockData",
          "type": "bytes32"
        }
      ],
      "name": "updateHash",
      "outputs": [],
      "stateMutability": "nonpayable",
      "type": "function"
    },
    {
      "inputs": [
        {
          "internalType": "uint16",
          "name": "_srcChainId",
          "type": "uint16"
        },
        {
          "internalType": "address",
          "name": "_dstAddress",
          "type": "address"
        },
        {
          "internalType": "uint256",
          "name": "_gasLimit",
          "type": "uint256"
        },
        {
          "internalType": "bytes32",
          "name": "_lookupHash",
          "type": "bytes32"
        },
        {
          "internalType": "bytes32",
          "name": "_blockData",
          "type": "bytes32"
        },
        {
          "internalType": "bytes",
          "name": "_transactionProof",
          "type": "bytes"
        }
      ],
      "name": "validateTransactionProof",
      "outputs": [],
      "stateMutability": "nonpayable",
      "type": "function"
    },
    {
      "inputs": [
        {
          "internalType": "address payable",
          "name": "_to",
          "type": "address"
        },
        {
          "internalType": "uint256",
          "name": "_amount",
          "type": "uint256"
        }
      ],
      "name": "withdrawNative",
      "outputs": [],
      "stateMutability": "nonpayable",
      "type": "function"
    },
    {
      "inputs": [
        {
          "internalType": "address",
          "name": "_to",
          "type": "address"
        },
        {
          "internalType": "uint256",
          "name": "_amount",
          "type": "uint256"
        }
      ],
      "name": "withdrawZRO",
      "outputs": [],
      "stateMutability": "nonpayable",
      "type": "function"
    }
  ],
  "transactionHash": "0x43436db5ff7c98dd80cfd4baa135d5c2e19fd829df0999cc8fdb2d471d8c118d",
  "args": [
    "0xD8397B7d3997Aa7Da5474E2EB955857CF9D4080D",
    "0x70F9A7940bD92743CBbEFF4ffFD0d9260dA14118",
    20109
  ],
  "numDeployments": 1,
  "solcInputHash": "6f06e3209ee8689a407cf69d89ff23fe",
  "bytecode": "0x60e06040523480156200001157600080fd5b5060405162005c0738038062005c0783398101604081905262000034916200013f565b60016000908155620000456200011e565b600180546001600160a01b0319166001600160a01b038316908117909155604051919250906000907f8be0079c531659141344cd1fd0a4f28419497f9722a3daafe3b4186f6b6457e0908290a3506001600160a01b038316620000c55760405162461bcd60e51b8152600401620000bc9062000191565b60405180910390fd5b6001600160a01b038216620000ee5760405162461bcd60e51b8152600401620000bc90620001db565b60f01b6001600160f01b03191660a052606091821b6001600160601b0319908116608052911b1660c0526200022a565b3390565b80516001600160a01b03811681146200013a57600080fd5b919050565b60008060006060848603121562000154578283fd5b6200015f8462000122565b92506200016f6020850162000122565b9150604084015161ffff8116811462000186578182fd5b809150509250925092565b6020808252602a908201527f4c617965725a65726f3a20656e64706f696e742063616e6e6f74206265207a65604082015269726f206164647265737360b01b606082015260800190565b6020808252602f908201527f4c617965725a65726f3a206e6f6e6365436f6e74726163742063616e6e6f742060408201526e6265207a65726f206164647265737360881b606082015260800190565b60805160601c60a05160f01c60c05160601c6159846200028360003980610878528061111852806129bd52508061132e52806118be52806126e6525080610f4a52806118e252806128a7528061301452506159846000f3fe6080604052600436106102f25760003560e01c80638525b7111161018f578063d543c774116100e1578063f0f442601161008a578063f58589a211610064578063f58589a214610816578063f8e1734c14610836578063f944114b14610856576102f2565b8063f0f44260146107c1578063f2fde38b146107e1578063f47a5feb14610801576102f2565b8063ea216c21116100bb578063ea216c2114610761578063eb0d4c3114610781578063ed28580a146107a1576102f2565b8063d543c774146106f4578063db00719b14610721578063ddfdef5a14610741576102f2565b8063959f594311610143578063b77d22ad1161011d578063b77d22ad14610692578063b8e7e3e0146106a7578063b9a99bed146106c7576102f2565b8063959f594314610625578063987fa2d514610645578063a466222214610665576102f2565b80638ac1ead5116101745780638ac1ead5146105db5780638da5cb5b146105fb578063904d3b8d14610610576102f2565b80638525b7111461059b57806387078f9f146105bb576102f2565b806352d2871f116102485780636a14ac82116101fc578063759c5b3b116101d6578063759c5b3b146105465780638140666e146105665780638317814a1461057b576102f2565b80636a14ac82146104f1578063704316e514610511578063715018a614610531576102f2565b80635b056da51161022d5780635b056da51461049a5780635e280f11146104bc57806369412bfa146104d1576102f2565b806352d2871f1461045a57806352d3b5001461047a576102f2565b80632cfacb06116102aa57806340a7bb101161028457806340a7bb101461040457806349148c37146104325780634d3a0f7c14610447576102f2565b80632cfacb061461039b5780632f813464146103bd57806331bd2430146103ef576102f2565b806307b9ca7c116102db57806307b9ca7c1461034457806318da0011146103595780632a819bbf1461036e576102f2565b806302bd9743146102f757806307b18bde14610322575b600080fd5b34801561030357600080fd5b5061030c610876565b6040516103199190614a51565b60405180910390f35b34801561032e57600080fd5b5061034261033d3660046141b5565b61089a565b005b34801561035057600080fd5b5061030c610a58565b34801561036557600080fd5b5061030c610a74565b34801561037a57600080fd5b5061038e610389366004614745565b610a90565b6040516103199190614b1d565b3480156103a757600080fd5b506103b0610b52565b6040516103199190614abf565b3480156103c957600080fd5b506103dd6103d836600461443b565b610b57565b604051610319969594939291906157c2565b3480156103fb57600080fd5b506103b0610be8565b34801561041057600080fd5b5061042461041f366004614484565b610bed565b604051610319929190615818565b34801561043e57600080fd5b506103b0610f43565b61034261045536600461426f565b610f48565b34801561046657600080fd5b5061038e610475366004614579565b6113c7565b34801561048657600080fd5b50610342610495366004614199565b61178c565b3480156104a657600080fd5b506104af6118bc565b60405161031991906155eb565b3480156104c857600080fd5b5061030c6118e0565b3480156104dd57600080fd5b506103b06104ec366004614199565b611904565b3480156104fd57600080fd5b5061034261050c3660046147c5565b611930565b34801561051d57600080fd5b5061034261052c3660046146b8565b611d14565b34801561053d57600080fd5b50610342611dd9565b34801561055257600080fd5b506103b0610561366004614218565b611ed6565b34801561057257600080fd5b506103b0611f02565b34801561058757600080fd5b50610342610596366004614762565b611f07565b3480156105a757600080fd5b506103426105b636600461425d565b61200a565b3480156105c757600080fd5b506103426105d636600461469b565b612140565b3480156105e757600080fd5b506103426105f636600461452f565b612251565b34801561060757600080fd5b5061030c612446565b34801561061c57600080fd5b506103b0612462565b34801561063157600080fd5b506103b061064036600461443b565b612467565b34801561065157600080fd5b506103426106603660046145b9565b612479565b34801561067157600080fd5b50610685610680366004614457565b612950565b6040516103199190615572565b34801561069e57600080fd5b506103b0612962565b3480156106b357600080fd5b506104af6106c236600461443b565b612967565b3480156106d357600080fd5b506106e76106e23660046146f2565b61297d565b6040516103199190615826565b34801561070057600080fd5b5061071461070f366004614745565b612a4e565b6040516103199190614a9c565b34801561072d57600080fd5b5061030c61073c366004614745565b612a6e565b34801561074d57600080fd5b506103dd61075c3660046141e0565b612aa1565b34801561076d57600080fd5b506103b061077c36600461443b565b612b3d565b34801561078d57600080fd5b5061034261079c366004614745565b612b4f565b3480156107ad57600080fd5b506103426107bc36600461469b565b612c57565b3480156107cd57600080fd5b506103426107dc366004614199565b612d5c565b3480156107ed57600080fd5b506103426107fc366004614199565b612e8c565b34801561080d57600080fd5b506103b0612ffa565b34801561082257600080fd5b506103b0610831366004614199565b613000565b34801561084257600080fd5b5061034261085136600461462a565b613012565b34801561086257600080fd5b506104af610871366004614745565b6133ba565b7f000000000000000000000000000000000000000000000000000000000000000081565b600260005414156108f2576040805162461bcd60e51b815260206004820152601f60248201527f5265656e7472616e637947756172643a207265656e7472616e742063616c6c00604482015290519081900360640190fd5b600260005573ffffffffffffffffffffffffffffffffffffffff82166109335760405162461bcd60e51b815260040161092a90614d41565b60405180910390fd5b3360009081526004602052604090205461094d90826133db565b3360009081526004602052604080822092909255905173ffffffffffffffffffffffffffffffffffffffff841690839061098690614986565b60006040518083038185875af1925050503d80600081146109c3576040519150601f19603f3d011682016040523d82523d6000602084013e6109c8565b606091505b50509050806109e95760405162461bcd60e51b815260040161092a90614cad565b8273ffffffffffffffffffffffffffffffffffffffff163373ffffffffffffffffffffffffffffffffffffffff167f3bfd26201736b5cb14a562ab3cfc2bef76901726e3a78483d6288af47131e1d984604051610a469190614abf565b60405180910390a35050600160005550565b60025473ffffffffffffffffffffffffffffffffffffffff1681565b60035473ffffffffffffffffffffffffffffffffffffffff1681565b60086020908152600092835260408084208252918352918190208054825160026001831615610100027fffffffffffffffffffffffffffffffffffffffffffffffffffffffffffffffff0190921691909104601f810185900485028201850190935282815292909190830182828015610b4a5780601f10610b1f57610100808354040283529160200191610b4a565b820191906000526020600020905b815481529060010190602001808311610b2d57829003601f168201915b505050505081565b600381565b6007602052600090815260409020805460019091015461ffff8083169267ffffffffffffffff62010000820481169373ffffffffffffffffffffffffffffffffffffffff6a010000000000000000000084048116947e010000000000000000000000000000000000000000000000000000000000009094049093169291811691680100000000000000009091041686565b600681565b6000806000610bfc8a8a613438565b905060608415610c455785858080601f016020809104026020016040519081016040528093929190818152602001838380828437600092019190915250929350610d1492505050565b61ffff808c166000908152600860209081526040808320606087015190941683529281529082902080548351601f60027fffffffffffffffffffffffffffffffffffffffffffffffffffffffffffffffff61010060018616150201909316929092049182018490048402810184019094528084529091830182828015610d0c5780601f10610ce157610100808354040283529160200191610d0c565b820191906000526020600020905b815481529060010190602001808311610cef57829003601f168201915b505050505090505b6000826040015173ffffffffffffffffffffffffffffffffffffffff1663fe29909d8d85606001518e8e8e886040518763ffffffff1660e01b8152600401610d61969594939291906156c8565b60206040518083038186803b158015610d7957600080fd5b505afa158015610d8d573d6000803e3d6000fd5b505050506040513d601f19601f82011682018060405250810190610db1919061485a565b905060008b905060008460a0015173ffffffffffffffffffffffffffffffffffffffff16635553fb8e8f87606001518860800151866040518563ffffffff1660e01b8152600401610e05949392919061577f565b60206040518083038186803b158015610e1d57600080fd5b505afa158015610e31573d6000803e3d6000fd5b505050506040513d601f19601f82011682018060405250810190610e55919061485a565b6003546040517f5cbbbd7500000000000000000000000000000000000000000000000000000000815291925060009173ffffffffffffffffffffffffffffffffffffffff90911690635cbbbd7590610eb5908e9088908790600401614aa7565b60206040518083038186803b158015610ecd57600080fd5b505afa158015610ee1573d6000803e3d6000fd5b505050506040513d601f19601f82011682018060405250810190610f05919061485a565b90508a610f155780975087610f1a565b809650865b50610f2f82610f298a87613644565b90613644565b975050505050505097509795505050505050565b600281565b7f000000000000000000000000000000000000000000000000000000000000000073ffffffffffffffffffffffffffffffffffffffff163314610f9d5760405162461bcd60e51b815260040161092a9061536a565b61ffff89166000908152600f60205260409020548b908a90610fd15760405162461bcd60e51b815260040161092a90614be2565b61ffff81166000908152600d6020526040812054606091908015801590610ffa5750601481018c145b6110165760405162461bcd60e51b815260040161092a906153fe565b6000808e8e8080601f016020809104026020016040519081016040528093929190818152602001838380828437600092019190915250505050838101601401519250905073ffffffffffffffffffffffffffffffffffffffff878116908316146110925760405162461bcd60e51b815260040161092a9061504b565b8e8e60009085926110a59392919061585f565b8080601f016020809104026020016040519081016040528093929190818152602001838380828437600092019190915250506040517f6fe7b6730000000000000000000000000000000000000000000000000000000081529297505073ffffffffffffffffffffffffffffffffffffffff7f00000000000000000000000000000000000000000000000000000000000000001691636fe7b67391506111529089908b9086906004016155fa565b602060405180830381600087803b15801561116c57600080fd5b505af1158015611180573d6000803e3d6000fd5b505050506040513d601f19601f820116820180604052508101906111a4919061488e565b935050505060008a8a8080601f01602080910402602001604051908101604052809392919081815260200183838082843760009201829052509394506111f09250879150889050613438565b90506000611237868389868d8d8080601f01602080910402602001604051908101604052809392919081815260200183838082843760009201919091525061369e92505050565b9050600061124687848a613885565b9050600061125683838b8f61394c565b9050600061126882610f298686613644565b90503481111561128a5760405162461bcd60e51b815260040161092a90614ce4565b600061129634836133db565b905080156113295760008f73ffffffffffffffffffffffffffffffffffffffff16826040516112c490614986565b60006040518083038185875af1925050503d8060008114611301576040519150601f19603f3d011682016040523d82523d6000602084013e611306565b606091505b50509050806113275760405162461bcd60e51b815260040161092a90614e58565b505b6000887f00000000000000000000000000000000000000000000000000000000000000008d8d8d8c60405160200161136696959493929190614989565b60405160208183030381529060405290507fe9bded5f24a4168e4f3bf44e00298c993b22376aad8c58c7dda9718a54cbea82816040516113a69190614b1d565b60405180910390a15050505050505050505050505050505050505050505050565b73ffffffffffffffffffffffffffffffffffffffff8216600090815260066020908152604080832061ffff871684529091529020606090600183141561146857805461ffff166114525761ffff80861660009081526007602090815260409182902054915161143b939290921691016155eb565b604051602081830303815290604052915050611785565b805460405161143b9161ffff16906020016155eb565b60028314156114de57805462010000900467ffffffffffffffff166114bc5761ffff851660009081526007602090815260409182902054915161143b9262010000900467ffffffffffffffff169101615826565b805460405161143b9162010000900467ffffffffffffffff1690602001615826565b60038314156115905780546a0100000000000000000000900473ffffffffffffffffffffffffffffffffffffffff1661155a5761ffff851660009081526007602090815260409182902054915161143b926a0100000000000000000000900473ffffffffffffffffffffffffffffffffffffffff169101614a51565b805460405161143b916a0100000000000000000000900473ffffffffffffffffffffffffffffffffffffffff1690602001614a51565b60048314156116495780547e01000000000000000000000000000000000000000000000000000000000000900461ffff166116115761ffff80861660009081526007602090815260409182902054915161143b937e0100000000000000000000000000000000000000000000000000000000000090930490921691016155eb565b805460405161143b917e01000000000000000000000000000000000000000000000000000000000000900461ffff16906020016155eb565b60058314156116b657600181015467ffffffffffffffff166116975761ffff851660009081526007602090815260409182902060010154915161143b9267ffffffffffffffff169101615826565b600181015460405161143b9167ffffffffffffffff1690602001615826565b600683141561176b57600181015468010000000000000000900473ffffffffffffffffffffffffffffffffffffffff166117345761ffff851660009081526007602090815260409182902060010154915161143b9268010000000000000000900473ffffffffffffffffffffffffffffffffffffffff169101614a51565b600181015460405161143b9168010000000000000000900473ffffffffffffffffffffffffffffffffffffffff1690602001614a51565b60405162461bcd60e51b815260040161092a90614c76565b505b9392505050565b611794613b1e565b73ffffffffffffffffffffffffffffffffffffffff166117b2612446565b73ffffffffffffffffffffffffffffffffffffffff161461181a576040805162461bcd60e51b815260206004820181905260248201527f4f776e61626c653a2063616c6c6572206973206e6f7420746865206f776e6572604482015290519081900360640190fd5b73ffffffffffffffffffffffffffffffffffffffff811661184d5760405162461bcd60e51b815260040161092a90614d9e565b600280547fffffffffffffffffffffffff00000000000000000000000000000000000000001673ffffffffffffffffffffffffffffffffffffffff83169081179091556040517f33d644987381deff4408951d55afa136f124e22a7810b163b2aaa3ebef770f6490600090a250565b7f000000000000000000000000000000000000000000000000000000000000000081565b7f000000000000000000000000000000000000000000000000000000000000000081565b73ffffffffffffffffffffffffffffffffffffffff81166000908152600460205260409020545b919050565b611938613b1e565b73ffffffffffffffffffffffffffffffffffffffff16611956612446565b73ffffffffffffffffffffffffffffffffffffffff16146119be576040805162461bcd60e51b815260206004820181905260248201527f4f776e61626c653a2063616c6c6572206973206e6f7420746865206f776e6572604482015290519081900360640190fd5b61ffff8088166000908152600b60205260409020548116908716118015906119ea575060008661ffff16115b611a065760405162461bcd60e51b815260040161092a90615199565b60008567ffffffffffffffff1611611a305760405162461bcd60e51b815260040161092a906154b8565b73ffffffffffffffffffffffffffffffffffffffff8416611a635760405162461bcd60e51b815260040161092a90614dfb565b61ffff8088166000908152600c602090815260408083209387168352929052205460ff16611aa35760405162461bcd60e51b815260040161092a90614b85565b60008267ffffffffffffffff1611611acd5760405162461bcd60e51b815260040161092a906153a1565b73ffffffffffffffffffffffffffffffffffffffff8116611b005760405162461bcd60e51b815260040161092a90614f23565b6040518060c001604052808761ffff1681526020018667ffffffffffffffff1681526020018573ffffffffffffffffffffffffffffffffffffffff1681526020018461ffff1681526020018367ffffffffffffffff1681526020018273ffffffffffffffffffffffffffffffffffffffff16815250600760008961ffff1661ffff16815260200190815260200160002060008201518160000160006101000a81548161ffff021916908361ffff16021790555060208201518160000160026101000a81548167ffffffffffffffff021916908367ffffffffffffffff160217905550604082015181600001600a6101000a81548173ffffffffffffffffffffffffffffffffffffffff021916908373ffffffffffffffffffffffffffffffffffffffff160217905550606082015181600001601e6101000a81548161ffff021916908361ffff16021790555060808201518160010160006101000a81548167ffffffffffffffff021916908367ffffffffffffffff16021790555060a08201518160010160086101000a81548173ffffffffffffffffffffffffffffffffffffffff021916908373ffffffffffffffffffffffffffffffffffffffff1602179055509050508661ffff167f5a76432853a0871c4e780def7f3ffc7912339b53f022ac31127fe5ff84a36fa1878787878787604051611d03969594939291906157c2565b60405180910390a250505050505050565b336000908152600e6020908152604080832061ffff8816845282528083208684528252808320848452909152902054828110611d625760405162461bcd60e51b815260040161092a906150df565b336000818152600e6020908152604080832061ffff8a1680855290835281842089855283528184208785529092529182902086905590517f74bbc026808dcba59692d6a8bb20596849ca718e10e2432c6cdf48af865bc5d990611dca90889087908990614ac8565b60405180910390a35050505050565b611de1613b1e565b73ffffffffffffffffffffffffffffffffffffffff16611dff612446565b73ffffffffffffffffffffffffffffffffffffffff1614611e67576040805162461bcd60e51b815260206004820181905260248201527f4f776e61626c653a2063616c6c6572206973206e6f7420746865206f776e6572604482015290519081900360640190fd5b60015460405160009173ffffffffffffffffffffffffffffffffffffffff16907f8be0079c531659141344cd1fd0a4f28419497f9722a3daafe3b4186f6b6457e0908390a3600180547fffffffffffffffffffffffff0000000000000000000000000000000000000000169055565b600e60209081526000948552604080862082529385528385208152918452828420909152825290205481565b600481565b611f0f613b1e565b73ffffffffffffffffffffffffffffffffffffffff16611f2d612446565b73ffffffffffffffffffffffffffffffffffffffff1614611f95576040805162461bcd60e51b815260206004820181905260248201527f4f776e61626c653a2063616c6c6572206973206e6f7420746865206f776e6572604482015290519081900360640190fd5b61ffff8085166000908152600860209081526040808320938716835292905220611fc0908383613f64565b508261ffff168461ffff167f4a5695eee2a74d548d5f5c485a3de99ace99e3b664c8e30a90f49be6ebb549328484604051611ffc929190614b09565b60405180910390a350505050565b60026000541415612062576040805162461bcd60e51b815260206004820152601f60248201527f5265656e7472616e637947756172643a207265656e7472616e742063616c6c00604482015290519081900360640190fd5b600260005560035473ffffffffffffffffffffffffffffffffffffffff16331461209e5760405162461bcd60e51b815260040161092a90614c3f565b6005546120ab90826133db565b6005556002546120d29073ffffffffffffffffffffffffffffffffffffffff168383613b22565b8173ffffffffffffffffffffffffffffffffffffffff163373ffffffffffffffffffffffffffffffffffffffff167f3a20c8c3cd1848485ae8261a52398bb9b26f195b717306b3cf7f058e62c095d58360405161212f9190614abf565b60405180910390a350506001600055565b612148613b1e565b73ffffffffffffffffffffffffffffffffffffffff16612166612446565b73ffffffffffffffffffffffffffffffffffffffff16146121ce576040805162461bcd60e51b815260206004820181905260248201527f4f776e61626c653a2063616c6c6572206973206e6f7420746865206f776e6572604482015290519081900360640190fd5b61ffff82166000908152600d6020526040902054156121ff5760405162461bcd60e51b815260040161092a9061545b565b61ffff82166000818152600d602052604090819020839055517f0611bb2107e385b79ec826fff8ecc1c1248a7aae3c875c96668f8cfbf173422090612245908490614abf565b60405180910390a25050565b612259613b1e565b73ffffffffffffffffffffffffffffffffffffffff16612277612446565b73ffffffffffffffffffffffffffffffffffffffff16146122df576040805162461bcd60e51b815260206004820181905260248201527f4f776e61626c653a2063616c6c6572206973206e6f7420746865206f776e6572604482015290519081900360640190fd5b73ffffffffffffffffffffffffffffffffffffffff82166123125760405162461bcd60e51b815260040161092a90615082565b61ffff8084166000908152600b602052604090205481169081106123485760405162461bcd60e51b815260040161092a9061530d565b61ffff8085166000818152600b60209081526040808320805460019097018681167fffffffffffffffffffffffffffffffffffffffffffffffffffffffffffff00009889168117909255600984528285208286528452828520805473ffffffffffffffffffffffffffffffffffffffff8c167fffffffffffffffffffffffff0000000000000000000000000000000000000000909116179055858552600a84528285209185529252918290208054948716949095169390931790935591519091907fc342528dcb5efc175a60fe15a91d6d6840e40a5ae75dd21509db1fc65ad41832906124389086908690614a72565b60405180910390a250505050565b60015473ffffffffffffffffffffffffffffffffffffffff1690565b600581565b600d6020526000908152604090205481565b60006124858888613438565b604081015190915073ffffffffffffffffffffffffffffffffffffffff1633146124c15760405162461bcd60e51b815260040161092a90615014565b6124c961400e565b61ffff89166000818152600d602090815260408083205460a087015173ffffffffffffffffffffffffffffffffffffffff168452600e83528184209484529382528083208a84528252808320898452909152902054801580159061253b5750836020015167ffffffffffffffff168110155b6125575760405162461bcd60e51b815260040161092a90615515565b61ffff808c166000908152600960209081526040808320885190941683529290528190205490517fb71e0f7100000000000000000000000000000000000000000000000000000000815273ffffffffffffffffffffffffffffffffffffffff90911690819063b71e0f71906125d6908b908b908b908990600401614ade565b600060405180830381600087803b1580156125f057600080fd5b505af1158015612604573d6000803e3d6000fd5b505050506040513d6000823e601f3d9081017fffffffffffffffffffffffffffffffffffffffffffffffffffffffffffffffe016820160405261264a919081019061435f565b60a081015161ffff8e166000908152600f6020526040902054919550149150508015612679575060a082015115155b6126955760405162461bcd60e51b815260040161092a90614f80565b8961ffff16826000015161ffff16146126c05760405162461bcd60e51b815260040161092a90614fdd565b80826080015151146126e45760405162461bcd60e51b815260040161092a906151f6565b7f000000000000000000000000000000000000000000000000000000000000000061ffff16826020015161ffff161461272f5760405162461bcd60e51b815260040161092a90615162565b8873ffffffffffffffffffffffffffffffffffffffff16826060015173ffffffffffffffffffffffffffffffffffffffff161461277e5760405162461bcd60e51b815260040161092a90614eec565b61278789613bb4565b61280557816060015173ffffffffffffffffffffffffffffffffffffffff16826000015161ffff167fa2786598bd84ae4a299103996359e6cb4333404583256079dfc279386baf5832846080015185604001518660c00151805190602001206040516127f593929190614b56565b60405180910390a3505050612947565b60008260800151836060015160405160200161282292919061493c565b6040516020818303038152906040529050826060015173ffffffffffffffffffffffffffffffffffffffff16836000015161ffff167f2bd2d8a84b748439fd50d79a49502b4eb5faa25b864da6a9ab5c150704be9a4d856080015186604001518760c001518051906020012060405161289d93929190614b56565b60405180910390a37f000000000000000000000000000000000000000000000000000000000000000073ffffffffffffffffffffffffffffffffffffffff1663c2fa48138c838d87604001518e8960c001516040518763ffffffff1660e01b81526004016129109695949392919061565a565b600060405180830381600087803b15801561292a57600080fd5b505af115801561293e573d6000803e3d6000fd5b50505050505050505b50505050505050565b61295861404c565b6117858383613438565b600181565b600b6020526000908152604090205461ffff1681565b6040517fc533338f00000000000000000000000000000000000000000000000000000000815260009073ffffffffffffffffffffffffffffffffffffffff7f0000000000000000000000000000000000000000000000000000000000000000169063c533338f906129f69087908790879060040161563c565b60206040518083038186803b158015612a0e57600080fd5b505afa158015612a22573d6000803e3d6000fd5b505050506040513d601f19601f82011682018060405250810190612a46919061488e565b949350505050565b600c60209081526000928352604080842090915290825290205460ff1681565b600960209081526000928352604080842090915290825290205473ffffffffffffffffffffffffffffffffffffffff1681565b60066020908152600092835260408084209091529082529020805460019091015461ffff8083169267ffffffffffffffff62010000820481169373ffffffffffffffffffffffffffffffffffffffff6a010000000000000000000084048116947e010000000000000000000000000000000000000000000000000000000000009094049093169291811691680100000000000000009091041686565b600f6020526000908152604090205481565b612b57613b1e565b73ffffffffffffffffffffffffffffffffffffffff16612b75612446565b73ffffffffffffffffffffffffffffffffffffffff1614612bdd576040805162461bcd60e51b815260206004820181905260248201527f4f776e61626c653a2063616c6c6572206973206e6f7420746865206f776e6572604482015290519081900360640190fd5b61ffff8083166000818152600c60209081526040808320948616835293905282902080547fffffffffffffffffffffffffffffffffffffffffffffffffffffffffffffff0016600117905590517fec23bee6f88cfecebb09d6aaaed66f0ce110debc1f61117c8270a7116597df9a906122459084906155eb565b612c5f613b1e565b73ffffffffffffffffffffffffffffffffffffffff16612c7d612446565b73ffffffffffffffffffffffffffffffffffffffff1614612ce5576040805162461bcd60e51b815260206004820181905260248201527f4f776e61626c653a2063616c6c6572206973206e6f7420746865206f776e6572604482015290519081900360640190fd5b61ffff82166000908152600f602052604090205415612d165760405162461bcd60e51b815260040161092a906152b0565b61ffff82166000818152600f602052604090819020839055517f0dad975e1d2fbe771c95cdcc7be9a1e61181de7173abe0a32b8f8f83140873e590612245908490614abf565b612d64613b1e565b73ffffffffffffffffffffffffffffffffffffffff16612d82612446565b73ffffffffffffffffffffffffffffffffffffffff1614612dea576040805162461bcd60e51b815260206004820181905260248201527f4f776e61626c653a2063616c6c6572206973206e6f7420746865206f776e6572604482015290519081900360640190fd5b73ffffffffffffffffffffffffffffffffffffffff8116612e1d5760405162461bcd60e51b815260040161092a90615253565b600380547fffffffffffffffffffffffff00000000000000000000000000000000000000001673ffffffffffffffffffffffffffffffffffffffff83169081179091556040517fcb7ef3e545f5cdb893f5c568ba710fe08f336375a2d9fd66e161033f8fc09ef390600090a250565b612e94613b1e565b73ffffffffffffffffffffffffffffffffffffffff16612eb2612446565b73ffffffffffffffffffffffffffffffffffffffff1614612f1a576040805162461bcd60e51b815260206004820181905260248201527f4f776e61626c653a2063616c6c6572206973206e6f7420746865206f776e6572604482015290519081900360640190fd5b73ffffffffffffffffffffffffffffffffffffffff8116612f6c5760405162461bcd60e51b81526004018080602001828103825260268152602001806158ff6026913960400191505060405180910390fd5b60015460405173ffffffffffffffffffffffffffffffffffffffff8084169216907f8be0079c531659141344cd1fd0a4f28419497f9722a3daafe3b4186f6b6457e090600090a3600180547fffffffffffffffffffffffff00000000000000000000000000000000000000001673ffffffffffffffffffffffffffffffffffffffff92909216919091179055565b60055481565b60046020526000908152604090205481565b7f000000000000000000000000000000000000000000000000000000000000000073ffffffffffffffffffffffffffffffffffffffff1633146130675760405162461bcd60e51b815260040161092a9061536a565b73ffffffffffffffffffffffffffffffffffffffff8416600090815260066020908152604080832061ffff89168452909152902060018414156131215760006130b28385018561443b565b61ffff8089166000908152600b602052604090205491925090811690821611156130ee5760405162461bcd60e51b815260040161092a90615199565b81547fffffffffffffffffffffffffffffffffffffffffffffffffffffffffffff00001661ffff91909116178155613361565b600284141561317857600061313883850185614872565b825467ffffffffffffffff90911662010000027fffffffffffffffffffffffffffffffffffffffffffff0000000000000000ffff90911617825550613361565b60038414156131e357600061318f83850185614199565b825473ffffffffffffffffffffffffffffffffffffffff9091166a0100000000000000000000027fffff0000000000000000000000000000000000000000ffffffffffffffffffff90911617825550613361565b600484141561329d5760006131fa8385018561443b565b61ffff8089166000908152600c602090815260408083209385168352929052205490915060ff168061322e575061ffff8116155b61324a5760405162461bcd60e51b815260040161092a90614b85565b815461ffff9091167e01000000000000000000000000000000000000000000000000000000000000027dffffffffffffffffffffffffffffffffffffffffffffffffffffffffffff909116178155613361565b60058414156132f55760006132b483850185614872565b6001830180547fffffffffffffffffffffffffffffffffffffffffffffffff00000000000000001667ffffffffffffffff9290921691909117905550613361565b600684141561176b57600061330c83850185614199565b60018301805473ffffffffffffffffffffffffffffffffffffffff90921668010000000000000000027fffffffff0000000000000000000000000000000000000000ffffffffffffffff909216919091179055505b838573ffffffffffffffffffffffffffffffffffffffff167ffc01bf86212a14151d51d1be5c2ac64d67d5ec823dfc6f53298d7ce3f3d3d25285856040516133aa929190614b09565b60405180910390a3505050505050565b600a60209081526000928352604080842090915290825290205461ffff1681565b600082821115613432576040805162461bcd60e51b815260206004820152601e60248201527f536166654d6174683a207375627472616374696f6e206f766572666c6f770000604482015290519081900360640190fd5b50900390565b61344061404c565b73ffffffffffffffffffffffffffffffffffffffff808316600090815260066020908152604080832061ffff808916808652918452828520835160c0810185528154808416825267ffffffffffffffff6201000082048116838901526a010000000000000000000082048a16838801527e010000000000000000000000000000000000000000000000000000000000009091048416606083015260019092015491821660808201526801000000000000000090910490961660a08701529084526007909252909120825190911661351a57805461ffff1682525b602082015167ffffffffffffffff1661354557805462010000900467ffffffffffffffff1660208301525b604082015173ffffffffffffffffffffffffffffffffffffffff166135905780546a0100000000000000000000900473ffffffffffffffffffffffffffffffffffffffff1660408301525b606082015161ffff166135cb5780547e01000000000000000000000000000000000000000000000000000000000000900461ffff1660608301525b608082015167ffffffffffffffff166135f357600181015467ffffffffffffffff1660808301525b60a082015173ffffffffffffffffffffffffffffffffffffffff16611783576001015468010000000000000000900473ffffffffffffffffffffffffffffffffffffffff1660a08201529392505050565b600082820183811015611785576040805162461bcd60e51b815260206004820152601b60248201527f536166654d6174683a206164646974696f6e206f766572666c6f770000000000604482015290519081900360640190fd5b60008151600014156137795761ffff808716600090815260086020908152604080832060608a015190941683529281529082902080548351601f60027fffffffffffffffffffffffffffffffffffffffffffffffffffffffffffffffff610100600186161502019093169290920491820184900484028101840190945280845290918301828280156137715780601f1061374657610100808354040283529160200191613771565b820191906000526020600020905b81548152906001019060200180831161375457829003601f168201915b505050505091505b604080860151606087015191517fdbc652800000000000000000000000000000000000000000000000000000000081529091829173ffffffffffffffffffffffffffffffffffffffff83169163dbc65280916137df918c918b908b908b9060040161571e565b602060405180830381600087803b1580156137f957600080fd5b505af115801561380d573d6000803e3d6000fd5b505050506040513d601f19601f82011682018060405250810190613831919061485a565b925061383d8284613bba565b7fb0c632f55f1e1b3b2c3d82f41ee4716bb4c00f0f5d84cdafc141581bb8757a4f848860600151604051613872929190614b30565b60405180910390a1505095945050505050565b60a0820151606083015160808401516040517fc5e193cd0000000000000000000000000000000000000000000000000000000081526000939273ffffffffffffffffffffffffffffffffffffffff84169263c5e193cd926138ee928a929091899060040161577f565b602060405180830381600087803b15801561390857600080fd5b505af115801561391c573d6000803e3d6000fd5b505050506040513d601f19601f82011682018060405250810190613940919061485a565b91506117838183613bba565b60008073ffffffffffffffffffffffffffffffffffffffff83161580613988575060025473ffffffffffffffffffffffffffffffffffffffff16155b6003546040517f5cbbbd7500000000000000000000000000000000000000000000000000000000815291925060009173ffffffffffffffffffffffffffffffffffffffff90911690635cbbbd75906139e9908515908b908b90600401614aa7565b60206040518083038186803b158015613a0157600080fd5b505afa158015613a15573d6000803e3d6000fd5b505050506040513d601f19601f82011682018060405250810190613a39919061485a565b90508015613b14578115613a735760035473ffffffffffffffffffffffffffffffffffffffff16613a6a8183613bba565b81935050613b14565b8473ffffffffffffffffffffffffffffffffffffffff168473ffffffffffffffffffffffffffffffffffffffff161480613ac2575073ffffffffffffffffffffffffffffffffffffffff841632145b613ade5760405162461bcd60e51b815260040161092a90614e8f565b600254613b039073ffffffffffffffffffffffffffffffffffffffff16853084613c17565b600554613b109082613644565b6005555b5050949350505050565b3390565b6040805173ffffffffffffffffffffffffffffffffffffffff8416602482015260448082018490528251808303909101815260649091019091526020810180517bffffffffffffffffffffffffffffffffffffffffffffffffffffffff167fa9059cbb00000000000000000000000000000000000000000000000000000000179052613baf908490613cb2565b505050565b3b151590565b73ffffffffffffffffffffffffffffffffffffffff8216600090815260046020526040902054613bea9082613644565b73ffffffffffffffffffffffffffffffffffffffff90921660009081526004602052604090209190915550565b6040805173ffffffffffffffffffffffffffffffffffffffff80861660248301528416604482015260648082018490528251808303909101815260849091019091526020810180517bffffffffffffffffffffffffffffffffffffffffffffffffffffffff167f23b872dd00000000000000000000000000000000000000000000000000000000179052613cac908590613cb2565b50505050565b6000613d14826040518060400160405280602081526020017f5361666545524332303a206c6f772d6c6576656c2063616c6c206661696c65648152508573ffffffffffffffffffffffffffffffffffffffff16613d709092919063ffffffff16565b805190915015613baf57808060200190516020811015613d3357600080fd5b5051613baf5760405162461bcd60e51b815260040180806020018281038252602a815260200180615925602a913960400191505060405180910390fd5b6060612a46848460008585613d8485613bb4565b613dd5576040805162461bcd60e51b815260206004820152601d60248201527f416464726573733a2063616c6c20746f206e6f6e2d636f6e7472616374000000604482015290519081900360640190fd5b6000808673ffffffffffffffffffffffffffffffffffffffff1685876040518082805190602001908083835b60208310613e3e57805182527fffffffffffffffffffffffffffffffffffffffffffffffffffffffffffffffe09092019160209182019101613e01565b6001836020036101000a03801982511681845116808217855250505050505090500191505060006040518083038185875af1925050503d8060008114613ea0576040519150601f19603f3d011682016040523d82523d6000602084013e613ea5565b606091505b5091509150613eb5828286613ec0565b979650505050505050565b60608315613ecf575081611785565b825115613edf5782518084602001fd5b8160405162461bcd60e51b81526004018080602001828103825283818151815260200191508051906020019080838360005b83811015613f29578181015183820152602001613f11565b50505050905090810190601f168015613f565780820380516001836020036101000a031916815260200191505b509250505060405180910390fd5b828054600181600116156101000203166002900490600052602060002090601f016020900481019282613f9a5760008555613ffe565b82601f10613fd1578280017fffffffffffffffffffffffffffffffffffffffffffffffffffffffffffffff00823516178555613ffe565b82800160010185558215613ffe579182015b82811115613ffe578235825591602001919060010190613fe3565b5061400a929150614081565b5090565b6040805160e08101825260008082526020820181905291810182905260608082018390526080820181905260a082019290925260c081019190915290565b6040805160c081018252600080825260208201819052918101829052606081018290526080810182905260a081019190915290565b5b8082111561400a5760008155600101614082565b803561192b816158b3565b805161192b816158b3565b60008083601f8401126140bd578182fd5b50813567ffffffffffffffff8111156140d4578182fd5b6020830191508360208285010111156140ec57600080fd5b9250929050565b600082601f830112614103578081fd5b815167ffffffffffffffff81111561411757fe5b61414860207fffffffffffffffffffffffffffffffffffffffffffffffffffffffffffffffe0601f8401160161583b565b81815284602083860101111561415c578283fd5b612a46826020830160208701615887565b803561192b816158d8565b805161192b816158d8565b803561192b816158e8565b805161192b816158e8565b6000602082840312156141aa578081fd5b8135611785816158b3565b600080604083850312156141c7578081fd5b82356141d2816158b3565b946020939093013593505050565b600080604083850312156141f2578182fd5b82356141fd816158b3565b9150602083013561420d816158d8565b809150509250929050565b6000806000806080858703121561422d578182fd5b8435614238816158b3565b93506020850135614248816158d8565b93969395505050506040820135916060013590565b600080604083850312156141c7578182fd5b60008060008060008060008060008060006101008c8e031215614290578687fd5b6142998c614096565b9a506142a760208d01614183565b99506142b560408d0161416d565b985067ffffffffffffffff8060608e013511156142d0578788fd5b6142e08e60608f01358f016140ac565b909950975060808d01358110156142f5578687fd5b6143058e60808f01358f016140ac565b909750955061431660a08e01614096565b945061432460c08e01614096565b93508060e08e01351115614336578283fd5b506143478d60e08e01358e016140ac565b81935080925050509295989b509295989b9093969950565b600060208284031215614370578081fd5b815167ffffffffffffffff80821115614387578283fd5b9083019060e0828603121561439a578283fd5b6143a460e061583b565b6143ad83614178565b81526143bb60208401614178565b60208201526143cc6040840161418e565b60408201526143dd606084016140a1565b60608201526080830151828111156143f3578485fd5b6143ff878286016140f3565b60808301525060a083015160a082015260c083015182811115614420578485fd5b61442c878286016140f3565b60c08301525095945050505050565b60006020828403121561444c578081fd5b8135611785816158d8565b60008060408385031215614469578182fd5b8235614474816158d8565b9150602083013561420d816158b3565b600080600080600080600060a0888a03121561449e578081fd5b87356144a9816158d8565b965060208801356144b9816158b3565b9550604088013567ffffffffffffffff808211156144d5578283fd5b6144e18b838c016140ac565b909750955060608a0135915081151582146144fa578283fd5b9093506080890135908082111561450f578283fd5b5061451c8a828b016140ac565b989b979a50959850939692959293505050565b600080600060608486031215614543578081fd5b833561454e816158d8565b9250602084013561455e816158b3565b9150604084013561456e816158d8565b809150509250925092565b60008060006060848603121561458d578081fd5b8335614598816158d8565b925060208401356145a8816158b3565b929592945050506040919091013590565b600080600080600080600060c0888a0312156145d3578081fd5b87356145de816158d8565b965060208801356145ee816158b3565b955060408801359450606088013593506080880135925060a088013567ffffffffffffffff81111561461e578182fd5b61451c8a828b016140ac565b600080600080600060808688031215614641578283fd5b853561464c816158d8565b9450602086013561465c816158b3565b935060408601359250606086013567ffffffffffffffff81111561467e578182fd5b61468a888289016140ac565b969995985093965092949392505050565b600080604083850312156146ad578182fd5b82356141d2816158d8565b600080600080608085870312156146cd578182fd5b84356146d8816158d8565b966020860135965060408601359560600135945092505050565b600080600060408486031215614706578081fd5b8335614711816158d8565b9250602084013567ffffffffffffffff81111561472c578182fd5b614738868287016140ac565b9497909650939450505050565b60008060408385031215614757578182fd5b82356141fd816158d8565b60008060008060608587031215614777578182fd5b8435614782816158d8565b93506020850135614792816158d8565b9250604085013567ffffffffffffffff8111156147ad578283fd5b6147b9878288016140ac565b95989497509550505050565b600080600080600080600060e0888a0312156147df578081fd5b87356147ea816158d8565b965060208801356147fa816158d8565b9550604088013561480a816158e8565b9450606088013561481a816158b3565b9350608088013561482a816158d8565b925060a088013561483a816158e8565b915060c088013561484a816158b3565b8091505092959891949750929550565b60006020828403121561486b578081fd5b5051919050565b600060208284031215614883578081fd5b8135611785816158e8565b60006020828403121561489f578081fd5b8151611785816158e8565b600082845282826020860137806020848601015260207fffffffffffffffffffffffffffffffffffffffffffffffffffffffffffffffe0601f85011685010190509392505050565b6000815180845261490a816020860160208601615887565b601f017fffffffffffffffffffffffffffffffffffffffffffffffffffffffffffffffe0169290920160200192915050565b6000835161494e818460208801615887565b60609390931b7fffffffffffffffffffffffffffffffffffffffff000000000000000000000000169190920190815260140192915050565b90565b60007fffffffffffffffff0000000000000000000000000000000000000000000000008860c01b1682527fffff000000000000000000000000000000000000000000000000000000000000808860f01b1660088401527fffffffffffffffffffffffffffffffffffffffff0000000000000000000000008760601b16600a840152808660f01b16601e840152508351614a29816020850160208801615887565b80830190508351614a41816020840160208801615887565b0160200198975050505050505050565b73ffffffffffffffffffffffffffffffffffffffff91909116815260200190565b73ffffffffffffffffffffffffffffffffffffffff92909216825261ffff16602082015260400190565b901515815260200190565b92151583526020830191909152604082015260600190565b90815260200190565b9283526020830191909152604082015260600190565b600085825260606020830152614af86060830185876148aa565b905082604083015295945050505050565b600060208252612a466020830184866148aa565b60006020825261178560208301846148f2565b600060408252614b4360408301856148f2565b905061ffff831660208301529392505050565b600060608252614b6960608301866148f2565b67ffffffffffffffff9490941660208301525060400152919050565b60208082526026908201527f4c617965725a65726f3a20696e76616c6964206f7574626f756e642070726f6f60408201527f6620747970650000000000000000000000000000000000000000000000000000606082015260800190565b60208082526024908201527f4c617965725a65726f3a20647374436861696e496420646f6573206e6f74206560408201527f7869737400000000000000000000000000000000000000000000000000000000606082015260800190565b60208082526018908201527f4c617965725a65726f3a206f6e6c792074726561737572790000000000000000604082015260600190565b6020808252601e908201527f4c617965725a65726f3a20496e76616c696420636f6e66696720747970650000604082015260600190565b6020808252601a908201527f4c617965725a65726f3a207769746864726177206661696c6564000000000000604082015260600190565b60208082526025908201527f4c617965725a65726f3a206e6f7420656e6f756768206e617469766520666f7260408201527f2066656573000000000000000000000000000000000000000000000000000000606082015260800190565b60208082526025908201527f4c617965725a65726f3a205f746f2063616e6e6f74206265207a65726f20616460408201527f6472657373000000000000000000000000000000000000000000000000000000606082015260800190565b60208082526031908201527f4c617965725a65726f3a205f6c617965725a65726f546f6b656e2063616e6e6f60408201527f74206265207a65726f2061646472657373000000000000000000000000000000606082015260800190565b60208082526022908201527f4c617965725a65726f3a20696e76616c69642072656c6179657220616464726560408201527f7373000000000000000000000000000000000000000000000000000000000000606082015260800190565b6020808252601b908201527f4c617965725a65726f3a206661696c656420746f20726566756e640000000000604082015260600190565b6020808252602b908201527f4c617965725a65726f3a206d75737420626520706169642062792073656e646560408201527f72206f72206f726967696e000000000000000000000000000000000000000000606082015260800190565b6020808252601d908201527f4c617965725a65726f3a20696e76616c69642064737441646472657373000000604082015260600190565b60208082526021908201527f4c617965725a65726f3a20696e76616c6964206f7261636c652061646472657360408201527f7300000000000000000000000000000000000000000000000000000000000000606082015260800190565b60208082526025908201527f4c617965725a65726f3a20696e76616c6964205f7061636b65742e756c6e416460408201527f6472657373000000000000000000000000000000000000000000000000000000606082015260800190565b6020808252601e908201527f4c617965725a65726f3a20696e76616c696420737263436861696e2049640000604082015260600190565b6020808252601a908201527f4c617965725a65726f3a20696e76616c69642072656c61796572000000000000604082015260600190565b6020808252601a908201527f4c617965725a65726f3a2077726f6e6720706174682064617461000000000000604082015260600190565b60208082526029908201527f4c617965725a65726f3a206c6962726172792063616e6e6f74206265207a657260408201527f6f20616464726573730000000000000000000000000000000000000000000000606082015260800190565b60208082526043908201527f4c617965725a65726f3a206f7261636c6520646174612063616e206f6e6c792060408201527f75706461746520696620697420686173206d6f726520636f6e6669726d61746960608201527f6f6e730000000000000000000000000000000000000000000000000000000000608082015260a00190565b6020808252601e908201527f4c617965725a65726f3a20696e76616c696420647374436861696e2049640000604082015260600190565b60208082526030908201527f4c617965725a65726f3a20696e76616c696420696e626f756e642070726f6f6660408201527f206c6962726172792076657273696f6e00000000000000000000000000000000606082015260800190565b60208082526022908201527f4c617965725a65726f3a20696e76616c6964207372634164647265737320736960408201527f7a65000000000000000000000000000000000000000000000000000000000000606082015260800190565b6020808252602a908201527f4c617965725a65726f3a2074726561737572792063616e6e6f74206265207a6560408201527f726f206164647265737300000000000000000000000000000000000000000000606082015260800190565b60208082526021908201527f4c617965725a65726f3a2072656d6f746520756c6e20616c726561647920736560408201527f7400000000000000000000000000000000000000000000000000000000000000606082015260800190565b60208082526022908201527f4c617965725a65726f3a2063616e206e6f7420616464206e6577206c6962726160408201527f7279000000000000000000000000000000000000000000000000000000000000606082015260800190565b60208082526018908201527f4c617965725a65726f3a206f6e6c7920656e64706f696e740000000000000000604082015260600190565b6020808252602e908201527f4c617965725a65726f3a20696e76616c6964206f7574626f756e6420626c6f6360408201527f6b20636f6e6669726d6174696f6e000000000000000000000000000000000000606082015260800190565b60208082526028908201527f4c617965725a65726f3a20696e636f72726563742072656d6f7465206164647260408201527f6573732073697a65000000000000000000000000000000000000000000000000606082015260800190565b60208082526030908201527f4c617965725a65726f3a2072656d6f746520636861696e20616464726573732060408201527f73697a6520616c72656164792073657400000000000000000000000000000000606082015260800190565b6020808252602d908201527f4c617965725a65726f3a20696e76616c696420696e626f756e6420626c6f636b60408201527f20636f6e6669726d6174696f6e00000000000000000000000000000000000000606082015260800190565b60208082526029908201527f4c617965725a65726f3a206e6f7420656e6f75676820626c6f636b20636f6e6660408201527f69726d6174696f6e730000000000000000000000000000000000000000000000606082015260800190565b600060c08201905061ffff808451168352602084015167ffffffffffffffff80821660208601526040860151915073ffffffffffffffffffffffffffffffffffffffff80831660408701528360608801511660608701528160808801511660808701528060a08801511660a08701525050505092915050565b61ffff91909116815260200190565b600061ffff8516825273ffffffffffffffffffffffffffffffffffffffff841660208301526060604083015261563360608301846148f2565b95945050505050565b600061ffff85168252604060208301526156336040830184866148aa565b600061ffff8816825260c0602083015261567760c08301886148f2565b73ffffffffffffffffffffffffffffffffffffffff8716604084015267ffffffffffffffff8616606084015284608084015282810360a08401526156bb81856148f2565b9998505050505050505050565b600061ffff808916835280881660208401525073ffffffffffffffffffffffffffffffffffffffff8616604083015260a0606083015261570c60a0830185876148aa565b82810360808401526156bb81856148f2565b600061ffff808816835280871660208401525073ffffffffffffffffffffffffffffffffffffffff8516604083015260a0606083015261576160a08301856148f2565b828103608084015261577381856148f2565b98975050505050505050565b61ffff948516815292909316602083015267ffffffffffffffff16604082015273ffffffffffffffffffffffffffffffffffffffff909116606082015260800190565b61ffff968716815267ffffffffffffffff958616602082015273ffffffffffffffffffffffffffffffffffffffff948516604082015292909516606083015290921660808301529190911660a082015260c00190565b918252602082015260400190565b67ffffffffffffffff91909116815260200190565b60405181810167ffffffffffffffff8111828210171561585757fe5b604052919050565b6000808585111561586e578182fd5b8386111561587a578182fd5b5050820193919092039150565b60005b838110156158a257818101518382015260200161588a565b83811115613cac5750506000910152565b73ffffffffffffffffffffffffffffffffffffffff811681146158d557600080fd5b50565b61ffff811681146158d557600080fd5b67ffffffffffffffff811681146158d557600080fdfe4f776e61626c653a206e6577206f776e657220697320746865207a65726f20616464726573735361666545524332303a204552433230206f7065726174696f6e20646964206e6f742073756363656564a26469706673582212200d9b96a923dccbd875cb125d0c728761b0344cf02d68423e06d94897900a188d64736f6c63430007060033",
  "devdoc": {
    "kind": "dev",
    "methods": {
      "owner()": {
        "details": "Returns the address of the current owner."
      },
      "renounceOwnership()": {
        "details": "Leaves the contract without owner. It will not be possible to call `onlyOwner` functions anymore. Can only be called by the current owner. NOTE: Renouncing ownership will leave the contract without an owner, thereby removing any functionality that is only available to the owner."
      },
      "transferOwnership(address)": {
        "details": "Transfers ownership of the contract to a new account (`newOwner`). Can only be called by the current owner."
      }
    },
    "version": 1
  },
  "userdoc": {
    "kind": "user",
    "methods": {},
    "version": 1
  },
  "storageLayout": {
    "storage": [
      {
        "astId": 4065,
        "contract": "contracts/UltraLightNodeV2.sol:UltraLightNodeV2",
        "label": "_status",
        "offset": 0,
        "slot": "0",
        "type": "t_uint256"
      },
      {
        "astId": 2484,
        "contract": "contracts/UltraLightNodeV2.sol:UltraLightNodeV2",
        "label": "_owner",
        "offset": 0,
        "slot": "1",
        "type": "t_address"
      },
      {
        "astId": 9959,
        "contract": "contracts/UltraLightNodeV2.sol:UltraLightNodeV2",
        "label": "layerZeroToken",
        "offset": 0,
        "slot": "2",
        "type": "t_contract(IERC20)3522"
      },
      {
        "astId": 9961,
        "contract": "contracts/UltraLightNodeV2.sol:UltraLightNodeV2",
        "label": "treasuryContract",
        "offset": 0,
        "slot": "3",
        "type": "t_contract(ILayerZeroTreasury)13034"
      },
      {
        "astId": 9965,
        "contract": "contracts/UltraLightNodeV2.sol:UltraLightNodeV2",
        "label": "nativeFees",
        "offset": 0,
        "slot": "4",
        "type": "t_mapping(t_address,t_uint256)"
      },
      {
        "astId": 9967,
        "contract": "contracts/UltraLightNodeV2.sol:UltraLightNodeV2",
        "label": "treasuryZROFees",
        "offset": 0,
        "slot": "5",
        "type": "t_uint256"
      },
      {
        "astId": 9973,
        "contract": "contracts/UltraLightNodeV2.sol:UltraLightNodeV2",
        "label": "appConfig",
        "offset": 0,
        "slot": "6",
        "type": "t_mapping(t_address,t_mapping(t_uint16,t_struct(ApplicationConfiguration)13165_storage))"
      },
      {
        "astId": 9977,
        "contract": "contracts/UltraLightNodeV2.sol:UltraLightNodeV2",
        "label": "defaultAppConfig",
        "offset": 0,
        "slot": "7",
        "type": "t_mapping(t_uint16,t_struct(ApplicationConfiguration)13165_storage)"
      },
      {
        "astId": 9983,
        "contract": "contracts/UltraLightNodeV2.sol:UltraLightNodeV2",
        "label": "defaultAdapterParams",
        "offset": 0,
        "slot": "8",
        "type": "t_mapping(t_uint16,t_mapping(t_uint16,t_bytes_storage))"
      },
      {
        "astId": 9989,
        "contract": "contracts/UltraLightNodeV2.sol:UltraLightNodeV2",
        "label": "inboundProofLibrary",
        "offset": 0,
        "slot": "9",
        "type": "t_mapping(t_uint16,t_mapping(t_uint16,t_address))"
      },
      {
        "astId": 9995,
        "contract": "contracts/UltraLightNodeV2.sol:UltraLightNodeV2",
        "label": "inboundProofLibraryType",
        "offset": 0,
        "slot": "10",
        "type": "t_mapping(t_uint16,t_mapping(t_uint16,t_uint16))"
      },
      {
        "astId": 9999,
        "contract": "contracts/UltraLightNodeV2.sol:UltraLightNodeV2",
        "label": "maxInboundProofLibrary",
        "offset": 0,
        "slot": "11",
        "type": "t_mapping(t_uint16,t_uint16)"
      },
      {
        "astId": 10005,
        "contract": "contracts/UltraLightNodeV2.sol:UltraLightNodeV2",
        "label": "supportedOutboundProof",
        "offset": 0,
        "slot": "12",
        "type": "t_mapping(t_uint16,t_mapping(t_uint16,t_bool))"
      },
      {
        "astId": 10009,
        "contract": "contracts/UltraLightNodeV2.sol:UltraLightNodeV2",
        "label": "chainAddressSizeMap",
        "offset": 0,
        "slot": "13",
        "type": "t_mapping(t_uint16,t_uint256)"
      },
      {
        "astId": 10019,
        "contract": "contracts/UltraLightNodeV2.sol:UltraLightNodeV2",
        "label": "hashLookup",
        "offset": 0,
        "slot": "14",
        "type": "t_mapping(t_address,t_mapping(t_uint16,t_mapping(t_bytes32,t_mapping(t_bytes32,t_uint256))))"
      },
      {
        "astId": 10023,
        "contract": "contracts/UltraLightNodeV2.sol:UltraLightNodeV2",
        "label": "ulnLookup",
        "offset": 0,
        "slot": "15",
        "type": "t_mapping(t_uint16,t_bytes32)"
      }
    ],
    "types": {
      "t_address": {
        "encoding": "inplace",
        "label": "address",
        "numberOfBytes": "20"
      },
      "t_bool": {
        "encoding": "inplace",
        "label": "bool",
        "numberOfBytes": "1"
      },
      "t_bytes32": {
        "encoding": "inplace",
        "label": "bytes32",
        "numberOfBytes": "32"
      },
      "t_bytes_storage": {
        "encoding": "bytes",
        "label": "bytes",
        "numberOfBytes": "32"
      },
      "t_contract(IERC20)3522": {
        "encoding": "inplace",
        "label": "contract IERC20",
        "numberOfBytes": "20"
      },
      "t_contract(ILayerZeroTreasury)13034": {
        "encoding": "inplace",
        "label": "contract ILayerZeroTreasury",
        "numberOfBytes": "20"
      },
      "t_mapping(t_address,t_mapping(t_uint16,t_mapping(t_bytes32,t_mapping(t_bytes32,t_uint256))))": {
        "encoding": "mapping",
        "key": "t_address",
        "label": "mapping(address => mapping(uint16 => mapping(bytes32 => mapping(bytes32 => uint256))))",
        "numberOfBytes": "32",
        "value": "t_mapping(t_uint16,t_mapping(t_bytes32,t_mapping(t_bytes32,t_uint256)))"
      },
      "t_mapping(t_address,t_mapping(t_uint16,t_struct(ApplicationConfiguration)13165_storage))": {
        "encoding": "mapping",
        "key": "t_address",
        "label": "mapping(address => mapping(uint16 => struct ILayerZeroUltraLightNodeV2.ApplicationConfiguration))",
        "numberOfBytes": "32",
        "value": "t_mapping(t_uint16,t_struct(ApplicationConfiguration)13165_storage)"
      },
      "t_mapping(t_address,t_uint256)": {
        "encoding": "mapping",
        "key": "t_address",
        "label": "mapping(address => uint256)",
        "numberOfBytes": "32",
        "value": "t_uint256"
      },
      "t_mapping(t_bytes32,t_mapping(t_bytes32,t_uint256))": {
        "encoding": "mapping",
        "key": "t_bytes32",
        "label": "mapping(bytes32 => mapping(bytes32 => uint256))",
        "numberOfBytes": "32",
        "value": "t_mapping(t_bytes32,t_uint256)"
      },
      "t_mapping(t_bytes32,t_uint256)": {
        "encoding": "mapping",
        "key": "t_bytes32",
        "label": "mapping(bytes32 => uint256)",
        "numberOfBytes": "32",
        "value": "t_uint256"
      },
      "t_mapping(t_uint16,t_address)": {
        "encoding": "mapping",
        "key": "t_uint16",
        "label": "mapping(uint16 => address)",
        "numberOfBytes": "32",
        "value": "t_address"
      },
      "t_mapping(t_uint16,t_bool)": {
        "encoding": "mapping",
        "key": "t_uint16",
        "label": "mapping(uint16 => bool)",
        "numberOfBytes": "32",
        "value": "t_bool"
      },
      "t_mapping(t_uint16,t_bytes32)": {
        "encoding": "mapping",
        "key": "t_uint16",
        "label": "mapping(uint16 => bytes32)",
        "numberOfBytes": "32",
        "value": "t_bytes32"
      },
      "t_mapping(t_uint16,t_bytes_storage)": {
        "encoding": "mapping",
        "key": "t_uint16",
        "label": "mapping(uint16 => bytes)",
        "numberOfBytes": "32",
        "value": "t_bytes_storage"
      },
      "t_mapping(t_uint16,t_mapping(t_bytes32,t_mapping(t_bytes32,t_uint256)))": {
        "encoding": "mapping",
        "key": "t_uint16",
        "label": "mapping(uint16 => mapping(bytes32 => mapping(bytes32 => uint256)))",
        "numberOfBytes": "32",
        "value": "t_mapping(t_bytes32,t_mapping(t_bytes32,t_uint256))"
      },
      "t_mapping(t_uint16,t_mapping(t_uint16,t_address))": {
        "encoding": "mapping",
        "key": "t_uint16",
        "label": "mapping(uint16 => mapping(uint16 => address))",
        "numberOfBytes": "32",
        "value": "t_mapping(t_uint16,t_address)"
      },
      "t_mapping(t_uint16,t_mapping(t_uint16,t_bool))": {
        "encoding": "mapping",
        "key": "t_uint16",
        "label": "mapping(uint16 => mapping(uint16 => bool))",
        "numberOfBytes": "32",
        "value": "t_mapping(t_uint16,t_bool)"
      },
      "t_mapping(t_uint16,t_mapping(t_uint16,t_bytes_storage))": {
        "encoding": "mapping",
        "key": "t_uint16",
        "label": "mapping(uint16 => mapping(uint16 => bytes))",
        "numberOfBytes": "32",
        "value": "t_mapping(t_uint16,t_bytes_storage)"
      },
      "t_mapping(t_uint16,t_mapping(t_uint16,t_uint16))": {
        "encoding": "mapping",
        "key": "t_uint16",
        "label": "mapping(uint16 => mapping(uint16 => uint16))",
        "numberOfBytes": "32",
        "value": "t_mapping(t_uint16,t_uint16)"
      },
      "t_mapping(t_uint16,t_struct(ApplicationConfiguration)13165_storage)": {
        "encoding": "mapping",
        "key": "t_uint16",
        "label": "mapping(uint16 => struct ILayerZeroUltraLightNodeV2.ApplicationConfiguration)",
        "numberOfBytes": "32",
        "value": "t_struct(ApplicationConfiguration)13165_storage"
      },
      "t_mapping(t_uint16,t_uint16)": {
        "encoding": "mapping",
        "key": "t_uint16",
        "label": "mapping(uint16 => uint16)",
        "numberOfBytes": "32",
        "value": "t_uint16"
      },
      "t_mapping(t_uint16,t_uint256)": {
        "encoding": "mapping",
        "key": "t_uint16",
        "label": "mapping(uint16 => uint256)",
        "numberOfBytes": "32",
        "value": "t_uint256"
      },
      "t_struct(ApplicationConfiguration)13165_storage": {
        "encoding": "inplace",
        "label": "struct ILayerZeroUltraLightNodeV2.ApplicationConfiguration",
        "members": [
          {
            "astId": 13154,
            "contract": "contracts/UltraLightNodeV2.sol:UltraLightNodeV2",
            "label": "inboundProofLibraryVersion",
            "offset": 0,
            "slot": "0",
            "type": "t_uint16"
          },
          {
            "astId": 13156,
            "contract": "contracts/UltraLightNodeV2.sol:UltraLightNodeV2",
            "label": "inboundBlockConfirmations",
            "offset": 2,
            "slot": "0",
            "type": "t_uint64"
          },
          {
            "astId": 13158,
            "contract": "contracts/UltraLightNodeV2.sol:UltraLightNodeV2",
            "label": "relayer",
            "offset": 10,
            "slot": "0",
            "type": "t_address"
          },
          {
            "astId": 13160,
            "contract": "contracts/UltraLightNodeV2.sol:UltraLightNodeV2",
            "label": "outboundProofType",
            "offset": 30,
            "slot": "0",
            "type": "t_uint16"
          },
          {
            "astId": 13162,
            "contract": "contracts/UltraLightNodeV2.sol:UltraLightNodeV2",
            "label": "outboundBlockConfirmations",
            "offset": 0,
            "slot": "1",
            "type": "t_uint64"
          },
          {
            "astId": 13164,
            "contract": "contracts/UltraLightNodeV2.sol:UltraLightNodeV2",
            "label": "oracle",
            "offset": 8,
            "slot": "1",
            "type": "t_address"
          }
        ],
        "numberOfBytes": "64"
      },
      "t_uint16": {
        "encoding": "inplace",
        "label": "uint16",
        "numberOfBytes": "2"
      },
      "t_uint256": {
        "encoding": "inplace",
        "label": "uint256",
        "numberOfBytes": "32"
      },
      "t_uint64": {
        "encoding": "inplace",
        "label": "uint64",
        "numberOfBytes": "8"
      }
    }
  }
}