{
  "_format": "hh-sol-artifact-1",
  "contractName": "MPTValidatorV5",
  "sourceName": "contracts/proof/MPTValidatorV5.sol",
  "abi": [
    {
      "inputs": [
        {
          "internalType": "address",
          "name": "_stargateBridgeAddress",
          "type": "address"
        },
        {
          "internalType": "address",
          "name": "_stgTokenAddress",
          "type": "address"
        },
        {
          "internalType": "uint16",
          "name": "_localChainId",
          "type": "uint16"
        },
        {
          "internalType": "address",
          "name": "_ulnAddress",
          "type": "address"
        },
        {
          "internalType": "address",
          "name": "_relayerAddress",
          "type": "address"
        }
      ],
      "stateMutability": "nonpayable",
      "type": "constructor"
    },
    {
      "inputs": [],
      "name": "PACKET_SIGNATURE",
      "outputs": [
        {
          "internalType": "bytes32",
          "name": "",
          "type": "bytes32"
        }
      ],
      "stateMutability": "view",
      "type": "function"
    },
    {
      "inputs": [
        {
          "components": [
            {
              "internalType": "uint16",
              "name": "srcChainId",
              "type": "uint16"
            },
            {
              "internalType": "uint16",
              "name": "dstChainId",
              "type": "uint16"
            },
            {
              "internalType": "uint64",
              "name": "nonce",
              "type": "uint64"
            },
            {
              "internalType": "address",
              "name": "dstAddress",
              "type": "address"
            },
            {
              "internalType": "bytes",
              "name": "srcAddress",
              "type": "bytes"
            },
            {
              "internalType": "bytes32",
              "name": "ulnAddress",
              "type": "bytes32"
            },
            {
              "internalType": "bytes",
              "name": "payload",
              "type": "bytes"
            }
          ],
          "internalType": "struct LayerZeroPacket.Packet",
          "name": "packet",
          "type": "tuple"
        },
        {
          "internalType": "bytes32",
          "name": "blockHash",
          "type": "bytes32"
        },
        {
          "internalType": "bytes32",
          "name": "receiptsRoot",
          "type": "bytes32"
        }
      ],
      "name": "assertMessagePath",
      "outputs": [],
      "stateMutability": "view",
      "type": "function"
    },
    {
      "inputs": [
        {
          "internalType": "bytes",
          "name": "data",
          "type": "bytes"
        },
        {
          "internalType": "uint16",
          "name": "srcChain",
          "type": "uint16"
        },
        {
          "internalType": "uint256",
          "name": "sizeOfSrcAddress",
          "type": "uint256"
        },
        {
          "internalType": "bytes32",
          "name": "ulnAddress",
          "type": "bytes32"
        }
      ],
      "name": "getPacket",
      "outputs": [
        {
          "components": [
            {
              "internalType": "uint16",
              "name": "srcChainId",
              "type": "uint16"
            },
            {
              "internalType": "uint16",
              "name": "dstChainId",
              "type": "uint16"
            },
            {
              "internalType": "uint64",
              "name": "nonce",
              "type": "uint64"
            },
            {
              "internalType": "address",
              "name": "dstAddress",
              "type": "address"
            },
            {
              "internalType": "bytes",
              "name": "srcAddress",
              "type": "bytes"
            },
            {
              "internalType": "bytes32",
              "name": "ulnAddress",
              "type": "bytes32"
            },
            {
              "internalType": "bytes",
              "name": "payload",
              "type": "bytes"
            }
          ],
          "internalType": "struct LayerZeroPacket.Packet",
          "name": "",
          "type": "tuple"
        }
      ],
      "stateMutability": "pure",
      "type": "function"
    },
    {
      "inputs": [],
      "name": "getUtilsVersion",
      "outputs": [
        {
          "internalType": "uint8",
          "name": "",
          "type": "uint8"
        }
      ],
      "stateMutability": "view",
      "type": "function"
    },
    {
      "inputs": [
        {
          "internalType": "bytes32",
          "name": "hashRoot",
          "type": "bytes32"
        },
        {
          "internalType": "uint256[]",
          "name": "receiptSlotIndex",
          "type": "uint256[]"
        },
        {
          "internalType": "uint256",
          "name": "logIndex",
          "type": "uint256"
        },
        {
          "internalType": "bytes[]",
          "name": "proof",
          "type": "bytes[]"
        }
      ],
      "name": "getVerifyLog",
      "outputs": [
        {
          "components": [
            {
              "internalType": "bytes32",
              "name": "contractAddress",
              "type": "bytes32"
            },
            {
              "internalType": "bytes32",
              "name": "topicZeroSig",
              "type": "bytes32"
            },
            {
              "internalType": "bytes",
              "name": "data",
              "type": "bytes"
            }
          ],
          "internalType": "struct IValidationLibraryHelper.ULNLog",
          "name": "",
          "type": "tuple"
        }
      ],
      "stateMutability": "pure",
      "type": "function"
    },
    {
      "inputs": [],
      "name": "localChainId",
      "outputs": [
        {
          "internalType": "uint16",
          "name": "",
          "type": "uint16"
        }
      ],
      "stateMutability": "view",
      "type": "function"
    },
    {
      "inputs": [],
      "name": "relayerAddress",
      "outputs": [
        {
          "internalType": "address",
          "name": "",
          "type": "address"
        }
      ],
      "stateMutability": "view",
      "type": "function"
    },
    {
      "inputs": [
        {
          "internalType": "bytes",
          "name": "_payload",
          "type": "bytes"
        }
      ],
      "name": "secureStgPayload",
      "outputs": [
        {
          "internalType": "bytes",
          "name": "",
          "type": "bytes"
        }
      ],
      "stateMutability": "view",
      "type": "function"
    },
    {
      "inputs": [
        {
          "internalType": "bytes",
          "name": "_payload",
          "type": "bytes"
        }
      ],
      "name": "secureStgTokenPayload",
      "outputs": [
        {
          "internalType": "bytes",
          "name": "",
          "type": "bytes"
        }
      ],
      "stateMutability": "pure",
      "type": "function"
    },
    {
      "inputs": [],
      "name": "stargateBridgeAddress",
      "outputs": [
        {
          "internalType": "address",
          "name": "",
          "type": "address"
        }
      ],
      "stateMutability": "view",
      "type": "function"
    },
    {
      "inputs": [],
      "name": "stgTokenAddress",
      "outputs": [
        {
          "internalType": "address",
          "name": "",
          "type": "address"
        }
      ],
      "stateMutability": "view",
      "type": "function"
    },
    {
      "inputs": [],
      "name": "uln",
      "outputs": [
        {
          "internalType": "contract IUltraLightNode",
          "name": "",
          "type": "address"
        }
      ],
      "stateMutability": "view",
      "type": "function"
    },
    {
      "inputs": [],
      "name": "utilsVersion",
      "outputs": [
        {
          "internalType": "uint8",
          "name": "",
          "type": "uint8"
        }
      ],
      "stateMutability": "view",
      "type": "function"
    },
    {
      "inputs": [
        {
          "internalType": "bytes32",
          "name": "_receiptsRoot",
          "type": "bytes32"
        },
        {
          "internalType": "bytes",
          "name": "_transactionProof",
          "type": "bytes"
        },
        {
          "internalType": "uint256",
          "name": "_remoteAddressSize",
          "type": "uint256"
        }
      ],
      "name": "validateProof",
      "outputs": [
        {
          "components": [
            {
              "internalType": "uint16",
              "name": "srcChainId",
              "type": "uint16"
            },
            {
              "internalType": "uint16",
              "name": "dstChainId",
              "type": "uint16"
            },
            {
              "internalType": "uint64",
              "name": "nonce",
              "type": "uint64"
            },
            {
              "internalType": "address",
              "name": "dstAddress",
              "type": "address"
            },
            {
              "internalType": "bytes",
              "name": "srcAddress",
              "type": "bytes"
            },
            {
              "internalType": "bytes32",
              "name": "ulnAddress",
              "type": "bytes32"
            },
            {
              "internalType": "bytes",
              "name": "payload",
              "type": "bytes"
            }
          ],
          "internalType": "struct LayerZeroPacket.Packet",
          "name": "",
          "type": "tuple"
        }
      ],
      "stateMutability": "view",
      "type": "function"
    }
  ],
  "bytecode": "0x6101206040526000805460ff191660031790553480156200001f57600080fd5b50604051620025ba380380620025ba8339810160408190526200004291620000a3565b606094851b6001600160601b031990811660805293851b841660a05260f09290921b6001600160f01b03191660e052831b82166101005290911b1660c05262000119565b80516001600160a01b03811681146200009e57600080fd5b919050565b600080600080600060a08688031215620000bb578081fd5b620000c68662000086565b9450620000d66020870162000086565b9350604086015161ffff81168114620000ed578182fd5b9250620000fd6060870162000086565b91506200010d6080870162000086565b90509295509295909350565b60805160601c60a05160601c60c05160601c60e05160f01c6101005160601c61243462000186600039806102d252806107d352806108a252508061028a5280610743525080610226528061092a52508061024a52806104375250806102ae52806103cc52506124346000f3fe608060405234801561001057600080fd5b50600436106100ea5760003560e01c80636c473aff1161008c578063be9d395e11610066578063be9d395e146101c4578063d633ad61146101d9578063e0cabadd146101e1578063ea455df9146101f4576100ea565b80636c473aff1461018757806378d823f71461018f578063b71e0f71146101a4576100ea565b806347713b39116100c857806347713b39146101355780635711c2a81461014a5780635b056da51461016a5780636348d2691461017f576100ea565b80630f222e65146100ef57806318a7cca8146101185780633fc18d4c1461012d575b600080fd5b6101026100fd366004611954565b610207565b60405161010f91906121b0565b60405180910390f35b610120610224565b60405161010f9190611e5d565b610120610248565b61013d61026c565b60405161010f9190612218565b61015d610158366004611a45565b610275565b60405161010f9190611eb9565b610172610288565b60405161010f91906121df565b6101206102ac565b6101206102d0565b6101a261019d366004611bb8565b6102f4565b005b6101b76101b23660046119c8565b610304565b60405161010f9190612129565b6101cc6104af565b60405161010f9190611eb0565b61013d6104d3565b6101b76101ef366004611a78565b6104dc565b61015d610202366004611a45565b6104f0565b61020f61164e565b61021b858585856104fb565b95945050505050565b7f000000000000000000000000000000000000000000000000000000000000000081565b7f000000000000000000000000000000000000000000000000000000000000000081565b60005460ff1681565b60606102808261065c565b90505b919050565b7f000000000000000000000000000000000000000000000000000000000000000081565b7f000000000000000000000000000000000000000000000000000000000000000081565b7f000000000000000000000000000000000000000000000000000000000000000081565b6102ff838383610741565b505050565b61030c61166d565b600082116103355760405162461bcd60e51b815260040161032c906120f2565b60405180910390fd5b600080808080610347888a018a611ca5565b94509450945094509450600061035f8b8484876104fb565b60208101519091507fe8d23d927749ec8e512eb885679c2977d57068839d8cca1a85685dbbea0648f6146103a55760405162461bcd60e51b815260040161032c90611f93565b805160408201516000916103bd919089908c906109f3565b90506103ca81878e610741565b7f000000000000000000000000000000000000000000000000000000000000000073ffffffffffffffffffffffffffffffffffffffff16816060015173ffffffffffffffffffffffffffffffffffffffff1614156104355761042f8160c0015161065c565b60c08201525b7f000000000000000000000000000000000000000000000000000000000000000073ffffffffffffffffffffffffffffffffffffffff16816060015173ffffffffffffffffffffffffffffffffffffffff1614156104a05761049a8160c00151610ae9565b60c08201525b9b9a5050505050505050505050565b7fe8d23d927749ec8e512eb885679c2977d57068839d8cca1a85685dbbea0648f681565b60005460ff1690565b6104e461166d565b61021b858585856109f3565b606061028082610ae9565b61050361164e565b81518451146105245760405162461bcd60e51b815260040161032c90611eee565b60008251116105455760405162461bcd60e51b815260040161032c9061205e565b61054d6116ab565b606060005b84518110156105df5784818151811061056757fe5b60200260200101519150818051906020012088146105975760405162461bcd60e51b815260040161032c90611f5c565b6105bd8782815181106105a657fe5b60200260200101516105b784610b93565b90610c07565b925060018551038110156105d7576105d483610d75565b97505b600101610552565b5060006105f060036105b785610e5e565b905060006106066106018389610c07565b610eea565b905061061061164e565b61062161061c83610f7c565b610d75565b815261063461061c60006105b785610f7c565b602082015261064a61064583610f7c565b611012565b60408201529998505050505050505050565b6020810151606090600160ff8216141561073a5760008060008060008060008980602001905181019061068f9190611d2a565b975097509750975097509750975050600081511115610732578151600090156106b9575060148201515b803b8061072f576000826040516020016106d39190611e2d565b60408051601f198184030181526020838101835260008085529251919450919261070b928f928f928f928f928f928f928b9201612226565b60408051601f198184030181529190529c506102839b505050505050505050505050565b50505b505050505050505b5090919050565b7f000000000000000000000000000000000000000000000000000000000000000061ffff16836020015161ffff161461078c5760405162461bcd60e51b815260040161032c90611fca565b825160608401516040517fa466222200000000000000000000000000000000000000000000000000000000815260009273ffffffffffffffffffffffffffffffffffffffff7f0000000000000000000000000000000000000000000000000000000000000000169263a4662222926108089291906004016121ee565b60c06040518083038186803b15801561082057600080fd5b505afa158015610834573d6000803e3d6000fd5b505050506040513d601f19601f820116820180604052508101906108589190611b1a565b60a081015185516040517febfa08e900000000000000000000000000000000000000000000000000000000815292935060009273ffffffffffffffffffffffffffffffffffffffff7f0000000000000000000000000000000000000000000000000000000000000000169263ebfa08e9926108d7928990600401611e7e565b604080518083038186803b1580156108ee57600080fd5b505afa158015610902573d6000803e3d6000fd5b505050506040513d601f19601f82011682018060405250810190610926919061186d565b90507f000000000000000000000000000000000000000000000000000000000000000073ffffffffffffffffffffffffffffffffffffffff16826040015173ffffffffffffffffffffffffffffffffffffffff16146109975760405162461bcd60e51b815260040161032c90612027565b828160200151146109ba5760405162461bcd60e51b815260040161032c90611f25565b816020015167ffffffffffffffff16816000015110156109ec5760405162461bcd60e51b815260040161032c90612095565b5050505050565b6109fb61166d565b602085015160608601516068870151858801607c01519190610a1b6116c5565b610a25818961110b565b50610a358160008c60888c611145565b506000610a4d89610a4786601c611201565b90611201565b9050610a576116c5565b610a61818361110b565b50610a7d60008d610a738d609c61125e565b8492919086611145565b506040805160e08101825261ffff808e16825298909816602089015267ffffffffffffffff909416938701939093525073ffffffffffffffffffffffffffffffffffffffff9093166060850152915160808401525060a082018490525160c08201529050949350505050565b606060008083806020019051810190610b029190611ad5565b9150915060008083511115610b18575060148201515b73ffffffffffffffffffffffffffffffffffffffff8116610b8a5760405161dead90600090610b4b908390602001611e2d565b60405160208183030381529060405290508084604051602001610b6f929190611ecc565b60405160208183030381529060405295505050505050610283565b50929392505050565b610b9b6116ab565b602082018051835160009190911a908015801590610bbc575060c060ff8316105b15610beb57600192909201917fffffffffffffffffffffffffffffffffffffffffffffffffffffffffffffffff015b6040805180820190915290815260208101929092525092915050565b610c0f6116ab565b610c18836112bf565b610c535760405162461bcd60e51b81526004018080602001828103825260218152602001806123bd6021913960400191505060405180910390fd5b610c5c836112f9565b8210610caf576040805162461bcd60e51b815260206004820152601660248201527f524c50206974656d206f7574206f6620626f756e647300000000000000000000604482015290519081900360640190fd5b8251602084015190810190600090610cc690611351565b60208601510190506000805b85811015610cf157610ce3836113f0565b928301929150600101610cd2565b50610cfb826113f0565b9050828183011115610d54576040805162461bcd60e51b815260206004820152601160248201527f524c50206974656d206f766572666c6f77000000000000000000000000000000604482015290519081900360640190fd5b60405180604001604052808281526020018381525093505050505b92915050565b805160009015801590610d8a57508151602110155b610ddb576040805162461bcd60e51b815260206004820181905260248201527f524c504465636f64657220746f55696e7420696e76616c6964206c656e677468604482015290519081900360640190fd5b6000610dea8360200151611351565b90508083600001511015610e2f5760405162461bcd60e51b81526004018080602001828103825260288152602001806123956028913960400191505060405180910390fd5b825160208085015183018051928490039291831015610e5557826020036101000a820491505b50949350505050565b610e666116ab565b6000610e758360200151611351565b60208401518451908201805192935060009290921a91908015801590610e9e575060c060ff8416105b15610ecd57600191909101907fffffffffffffffffffffffffffffffffffffffffffffffffffffffffffffffff015b604080518082019091529081526020810191909152949350505050565b610ef26116df565b610efb826112bf565b610f4c576040805162461bcd60e51b815260206004820152601f60248201527f524c504465636f646572206974657261746f72206973206e6f74206c69737400604482015290519081900360640190fd5b6000610f5b8360200151611351565b60208085015160408051808201909152868152920190820152915050919050565b610f846116ab565b610f8d826114c5565b610fde576040805162461bcd60e51b815260206004820152601f60248201527f524c504465636f646572206974657261746f7220686173206e6f206e65787400604482015290519081900360640190fd5b60208201516000610fee826113f0565b80830160209586015260408051808201909152908152938401919091525090919050565b80516060906110525760405162461bcd60e51b81526004018080602001828103825260218152602001806123de6021913960400191505060405180910390fd5b60006110618360200151611351565b905080836000015110156110a65760405162461bcd60e51b81526004018080602001828103825260288152602001806123956028913960400191505060405180910390fd5b825181900360008167ffffffffffffffff811180156110c457600080fd5b506040519080825280601f01601f1916602001820160405280156110ef576020820181803683370190505b5090506000816020019050610e558487602001510182856114da565b6111136116c5565b60208206156111285760208206602003820191505b506020828101829052604080518085526000815290920101905290565b61114d6116c5565b85602001518286011115611177576111778661116f8860200151888601611543565b60020261155a565b6000808751805188602083010193508089870111156111965788860182525b5050508484015b602084106111bc5780518252601f19909301926020918201910161119d565b5181517fffffffffffffffffffffffffffffffffffffffffffffffffffffffffffffffff60208690036101000a01908116901991909116179052508495945050505050565b600082821115611258576040805162461bcd60e51b815260206004820152601e60248201527f536166654d6174683a207375627472616374696f6e206f766572666c6f770000604482015290519081900360640190fd5b50900390565b6000828201838110156112b8576040805162461bcd60e51b815260206004820152601b60248201527f536166654d6174683a206164646974696f6e206f766572666c6f770000000000604482015290519081900360640190fd5b9392505050565b80516000906112d057506000610283565b6020820151805160001a9060c08210156112ef57600092505050610283565b5060019392505050565b805160009061130a57506000610283565b60008061131a8460200151611351565b602085015185519181019250015b8082101561134857611339826113f0565b60019093019290910190611328565b50909392505050565b8051600090811a608081101561136b576000915050610283565b60b8811080611386575060c08110801590611386575060f881105b15611395576001915050610283565b60c08110156113c7577fffffffffffffffffffffffffffffffffffffffffffffffffffffffffffffff4a019050610283565b7fffffffffffffffffffffffffffffffffffffffffffffffffffffffffffffff0a019050610283565b80516000908190811a608081101561140b57600191506114be565b60b881101561143e577fffffffffffffffffffffffffffffffffffffffffffffffffffffffffffffff81810191506114be565b60c081101561146b5760b78103600185019450806020036101000a855104600182018101935050506114be565b60f881101561149e577fffffffffffffffffffffffffffffffffffffffffffffffffffffffffffffff41810191506114be565b60f78103600185019450806020036101000a855104600182018101935050505b5092915050565b80518051602091820151919092015191011190565b806114e4576102ff565b5b60208110611504578251825260209283019290910190601f19016114e5565b915181516020939093036101000a7fffffffffffffffffffffffffffffffffffffffffffffffffffffffffffffffff0180199091169216919091179052565b600081831115611554575081610d6f565b50919050565b8151611566838361110b565b506115718382611577565b50505050565b61157f6116c5565b6112b8838460000151518485516115946116c5565b82518211156115a257600080fd5b846020015182850111156115c4576115c48561116f8760200151878601611543565b6000808651805187602083010193508088870111156115e35787860182525b505050602084015b6020841061160a5780518252601f1990930192602091820191016115eb565b5181517fffffffffffffffffffffffffffffffffffffffffffffffffffffffffffffffff60208690036101000a019081169019919091161790525083949350505050565b6040805160608082018352600080835260208301529181019190915290565b6040805160e08101825260008082526020820181905291810182905260608082018390526080820181905260a082019290925260c081019190915290565b604051806040016040528060008152602001600081525090565b604051806040016040528060608152602001600081525090565b60405180604001604052806116f26116ab565b8152602001600081525090565b803561028381612349565b805161028381612349565b600082601f830112611725578081fd5b8135602061173a611735836122dd565b6122b9565b82815281810190858301855b8581101561176f5761175d898684358b01016117d6565b84529284019290840190600101611746565b5090979650505050505050565b600082601f83011261178c578081fd5b8135602061179c611735836122dd565b82815281810190858301838502870184018810156117b8578586fd5b855b8581101561176f578135845292840192908401906001016117ba565b600082601f8301126117e6578081fd5b81356117f4611735826122fb565b818152846020838601011115611808578283fd5b816020850160208301379081016020019190915292915050565b600082601f830112611832578081fd5b8151611840611735826122fb565b818152846020838601011115611854578283fd5b61186582602083016020870161231d565b949350505050565b60006040828403121561187e578081fd5b6040516040810181811067ffffffffffffffff8211171561189b57fe5b604052825181526020928301519281019290925250919050565b600060c082840312156118c6578081fd5b60405160c0810181811067ffffffffffffffff821117156118e357fe5b8060405250809150825181526020830151602082015260408301516040820152606083015160608201526080830151608082015260a083015160a08201525092915050565b80356102838161236e565b80516102838161236e565b80356102838161237e565b80516102838161237e565b60008060008060808587031215611969578384fd5b84359350602085013567ffffffffffffffff80821115611987578485fd5b6119938883890161177c565b94506040870135935060608701359150808211156119af578283fd5b506119bc87828801611715565b91505092959194509250565b600080600080606085870312156119dd578182fd5b84359350602085013567ffffffffffffffff808211156119fb578384fd5b818701915087601f830112611a0e578384fd5b813581811115611a1c578485fd5b886020828501011115611a2d578485fd5b95986020929092019750949560400135945092505050565b600060208284031215611a56578081fd5b813567ffffffffffffffff811115611a6c578182fd5b611865848285016117d6565b60008060008060808587031215611a8d578182fd5b843567ffffffffffffffff811115611aa3578283fd5b611aaf878288016117d6565b9450506020850135611ac08161236e565b93969395505050506040820135916060013590565b60008060408385031215611ae7578182fd5b825167ffffffffffffffff811115611afd578283fd5b611b0985828601611822565b925050602083015190509250929050565b600060c08284031215611b2b578081fd5b60405160c0810181811067ffffffffffffffff82111715611b4857fe5b6040528251611b568161236e565b81526020830151611b668161237e565b60208201526040830151611b7981612349565b6040820152611b8a60608401611933565b6060820152611b9b60808401611949565b6080820152611bac60a0840161170a565b60a08201529392505050565b600080600060608486031215611bcc578081fd5b833567ffffffffffffffff80821115611be3578283fd5b9085019060e08288031215611bf6578283fd5b611c0060e06122b9565b611c0983611928565b8152611c1760208401611928565b6020820152611c286040840161193e565b6040820152611c39606084016116ff565b6060820152608083013582811115611c4f578485fd5b611c5b898286016117d6565b60808301525060a083013560a082015260c083013582811115611c7c578485fd5b611c88898286016117d6565b60c083015250976020870135975060409096013595945050505050565b600080600080600060a08688031215611cbc578283fd5b8535611cc78161236e565b945060208601359350604086013567ffffffffffffffff80821115611cea578485fd5b611cf689838a01611715565b94506060880135915080821115611d0b578283fd5b50611d188882890161177c565b95989497509295608001359392505050565b6000806000806000806000806101c0898b031215611d46578586fd5b885160ff81168114611d56578687fd5b80985050602089015196506040890151955060608901519450611d7c8a60808b0161186d565b9350611d8b8a60c08b016118b5565b925061018089015167ffffffffffffffff80821115611da8578384fd5b611db48c838d01611822565b93506101a08b0151915080821115611dca578283fd5b50611dd78b828c01611822565b9150509295985092959890939650565b73ffffffffffffffffffffffffffffffffffffffff169052565b60008151808452611e1981602086016020860161231d565b601f01601f19169290920160200192915050565b60609190911b7fffffffffffffffffffffffffffffffffffffffff00000000000000000000000016815260140190565b73ffffffffffffffffffffffffffffffffffffffff91909116815260200190565b73ffffffffffffffffffffffffffffffffffffffff93909316835261ffff919091166020830152604082015260600190565b90815260200190565b6000602082526112b86020830184611e01565b600060408252611edf6040830185611e01565b90508260208301529392505050565b6020808252601c908201527f50726f6f664c69623a20696e76616c69642070726f6f662073697a6500000000604082015260600190565b6020808252601e908201527f50726f6f664c69623a20696e76616c6964207265636569707420726f6f740000604082015260600190565b6020808252601a908201527f50726f6f664c69623a20696e76616c696420686173686c696e6b000000000000604082015260600190565b6020808252601f908201527f50726f6f664c69623a207061636b6574206e6f74207265636f676e697a656400604082015260600190565b60208082526026908201527f50726f6f664c69623a20696e76616c69642064657374696e6174696f6e20636860408201527f61696e2049440000000000000000000000000000000000000000000000000000606082015260800190565b60208082526019908201527f50726f6f664c69623a20696e76616c69642072656c6179657200000000000000604082015260600190565b6020808252601d908201527f50726f6f664c69623a2070726f6f662073697a65206d757374203e2030000000604082015260600190565b60208082526028908201527f50726f6f664c69623a206e6f7420656e6f75676820626c6f636b20636f6e666960408201527f726d6174696f6e73000000000000000000000000000000000000000000000000606082015260800190565b6020808252601e908201527f50726f6f664c69623a20696e76616c696420616464726573732073697a650000604082015260600190565b60006020825261ffff8084511660208401528060208501511660408401525067ffffffffffffffff6040840151166060830152606083015161216e6080840182611de7565b50608083015160e060a0840152612189610100840182611e01565b905060a084015160c084015260c0840151601f198483030160e085015261021b8282611e01565b600060208252825160208301526020830151604083015260408301516060808401526118656080840182611e01565b61ffff91909116815260200190565b61ffff92909216825273ffffffffffffffffffffffffffffffffffffffff16602082015260400190565b60ff91909116815260200190565b60006101c060ff8b16835289602084015288604084015287606084015286516080840152602087015160a0840152855160c0840152602086015160e084015260408601516101008401526060860151610120840152608086015161014084015260a0860151610160840152806101808401526122a481840186611e01565b90508281036101a08401526104a08185611e01565b60405181810167ffffffffffffffff811182821017156122d557fe5b604052919050565b600067ffffffffffffffff8211156122f157fe5b5060209081020190565b600067ffffffffffffffff82111561230f57fe5b50601f01601f191660200190565b60005b83811015612338578181015183820152602001612320565b838111156115715750506000910152565b73ffffffffffffffffffffffffffffffffffffffff8116811461236b57600080fd5b50565b61ffff8116811461236b57600080fd5b67ffffffffffffffff8116811461236b57600080fdfe524c504465636f6465723a20696e76616c696420524c50206974656d206f66667365742073697a65524c504465636f646572206974657261746f72206973206e6f742061206c697374524c504465636f64657220746f427974657320696e76616c6964206c656e677468a26469706673582212204ee08a964aaa42a9af7440eb3bcde0f569374d8d8e0b403b86121ea39aaceed464736f6c63430007060033",
  "linkReferences": {},
  "deployedLinkReferences": {}
}