{
  "_format": "hh-sol-artifact-1",
  "contractName": "MPTValidatorV4",
  "sourceName": "contracts/proof/MPTValidatorV4.sol",
  "abi": [
    {
      "inputs": [
        {
          "internalType": "address",
          "name": "_stargateBridgeAddress",
          "type": "address"
        },
        {
          "internalType": "address",
          "name": "_stgTokenAddress",
          "type": "address"
        },
        {
          "internalType": "uint16",
          "name": "_localChainId",
          "type": "uint16"
        },
        {
          "internalType": "address",
          "name": "_ulnAddress",
          "type": "address"
        }
      ],
      "stateMutability": "nonpayable",
      "type": "constructor"
    },
    {
      "inputs": [],
      "name": "PACKET_SIGNATURE",
      "outputs": [
        {
          "internalType": "bytes32",
          "name": "",
          "type": "bytes32"
        }
      ],
      "stateMutability": "view",
      "type": "function"
    },
    {
      "inputs": [
        {
          "components": [
            {
              "internalType": "uint16",
              "name": "srcChainId",
              "type": "uint16"
            },
            {
              "internalType": "uint16",
              "name": "dstChainId",
              "type": "uint16"
            },
            {
              "internalType": "uint64",
              "name": "nonce",
              "type": "uint64"
            },
            {
              "internalType": "address",
              "name": "dstAddress",
              "type": "address"
            },
            {
              "internalType": "bytes",
              "name": "srcAddress",
              "type": "bytes"
            },
            {
              "internalType": "bytes32",
              "name": "ulnAddress",
              "type": "bytes32"
            },
            {
              "internalType": "bytes",
              "name": "payload",
              "type": "bytes"
            }
          ],
          "internalType": "struct LayerZeroPacket.Packet",
          "name": "packet",
          "type": "tuple"
        },
        {
          "internalType": "bytes32",
          "name": "blockHash",
          "type": "bytes32"
        },
        {
          "internalType": "bytes32",
          "name": "receiptsRoot",
          "type": "bytes32"
        }
      ],
      "name": "assertMessagePath",
      "outputs": [],
      "stateMutability": "view",
      "type": "function"
    },
    {
      "inputs": [
        {
          "internalType": "bytes",
          "name": "data",
          "type": "bytes"
        },
        {
          "internalType": "uint16",
          "name": "srcChain",
          "type": "uint16"
        },
        {
          "internalType": "uint256",
          "name": "sizeOfSrcAddress",
          "type": "uint256"
        },
        {
          "internalType": "bytes32",
          "name": "ulnAddress",
          "type": "bytes32"
        }
      ],
      "name": "getPacket",
      "outputs": [
        {
          "components": [
            {
              "internalType": "uint16",
              "name": "srcChainId",
              "type": "uint16"
            },
            {
              "internalType": "uint16",
              "name": "dstChainId",
              "type": "uint16"
            },
            {
              "internalType": "uint64",
              "name": "nonce",
              "type": "uint64"
            },
            {
              "internalType": "address",
              "name": "dstAddress",
              "type": "address"
            },
            {
              "internalType": "bytes",
              "name": "srcAddress",
              "type": "bytes"
            },
            {
              "internalType": "bytes32",
              "name": "ulnAddress",
              "type": "bytes32"
            },
            {
              "internalType": "bytes",
              "name": "payload",
              "type": "bytes"
            }
          ],
          "internalType": "struct LayerZeroPacket.Packet",
          "name": "",
          "type": "tuple"
        }
      ],
      "stateMutability": "pure",
      "type": "function"
    },
    {
      "inputs": [],
      "name": "getUtilsVersion",
      "outputs": [
        {
          "internalType": "uint8",
          "name": "",
          "type": "uint8"
        }
      ],
      "stateMutability": "view",
      "type": "function"
    },
    {
      "inputs": [
        {
          "internalType": "bytes32",
          "name": "hashRoot",
          "type": "bytes32"
        },
        {
          "internalType": "uint256[]",
          "name": "receiptSlotIndex",
          "type": "uint256[]"
        },
        {
          "internalType": "uint256",
          "name": "logIndex",
          "type": "uint256"
        },
        {
          "internalType": "bytes[]",
          "name": "proof",
          "type": "bytes[]"
        }
      ],
      "name": "getVerifyLog",
      "outputs": [
        {
          "components": [
            {
              "internalType": "bytes32",
              "name": "contractAddress",
              "type": "bytes32"
            },
            {
              "internalType": "bytes32",
              "name": "topicZeroSig",
              "type": "bytes32"
            },
            {
              "internalType": "bytes",
              "name": "data",
              "type": "bytes"
            }
          ],
          "internalType": "struct IValidationLibraryHelper.ULNLog",
          "name": "",
          "type": "tuple"
        }
      ],
      "stateMutability": "pure",
      "type": "function"
    },
    {
      "inputs": [],
      "name": "localChainId",
      "outputs": [
        {
          "internalType": "uint16",
          "name": "",
          "type": "uint16"
        }
      ],
      "stateMutability": "view",
      "type": "function"
    },
    {
      "inputs": [
        {
          "internalType": "bytes",
          "name": "_payload",
          "type": "bytes"
        }
      ],
      "name": "secureStgPayload",
      "outputs": [
        {
          "internalType": "bytes",
          "name": "",
          "type": "bytes"
        }
      ],
      "stateMutability": "view",
      "type": "function"
    },
    {
      "inputs": [
        {
          "internalType": "bytes",
          "name": "_payload",
          "type": "bytes"
        }
      ],
      "name": "secureStgTokenPayload",
      "outputs": [
        {
          "internalType": "bytes",
          "name": "",
          "type": "bytes"
        }
      ],
      "stateMutability": "pure",
      "type": "function"
    },
    {
      "inputs": [],
      "name": "stargateBridgeAddress",
      "outputs": [
        {
          "internalType": "address",
          "name": "",
          "type": "address"
        }
      ],
      "stateMutability": "view",
      "type": "function"
    },
    {
      "inputs": [],
      "name": "stgTokenAddress",
      "outputs": [
        {
          "internalType": "address",
          "name": "",
          "type": "address"
        }
      ],
      "stateMutability": "view",
      "type": "function"
    },
    {
      "inputs": [],
      "name": "uln",
      "outputs": [
        {
          "internalType": "contract IUltraLightNode",
          "name": "",
          "type": "address"
        }
      ],
      "stateMutability": "view",
      "type": "function"
    },
    {
      "inputs": [],
      "name": "utilsVersion",
      "outputs": [
        {
          "internalType": "uint8",
          "name": "",
          "type": "uint8"
        }
      ],
      "stateMutability": "view",
      "type": "function"
    },
    {
      "inputs": [
        {
          "internalType": "bytes32",
          "name": "_receiptsRoot",
          "type": "bytes32"
        },
        {
          "internalType": "bytes",
          "name": "_transactionProof",
          "type": "bytes"
        },
        {
          "internalType": "uint256",
          "name": "_remoteAddressSize",
          "type": "uint256"
        }
      ],
      "name": "validateProof",
      "outputs": [
        {
          "components": [
            {
              "internalType": "uint16",
              "name": "srcChainId",
              "type": "uint16"
            },
            {
              "internalType": "uint16",
              "name": "dstChainId",
              "type": "uint16"
            },
            {
              "internalType": "uint64",
              "name": "nonce",
              "type": "uint64"
            },
            {
              "internalType": "address",
              "name": "dstAddress",
              "type": "address"
            },
            {
              "internalType": "bytes",
              "name": "srcAddress",
              "type": "bytes"
            },
            {
              "internalType": "bytes32",
              "name": "ulnAddress",
              "type": "bytes32"
            },
            {
              "internalType": "bytes",
              "name": "payload",
              "type": "bytes"
            }
          ],
          "internalType": "struct LayerZeroPacket.Packet",
          "name": "",
          "type": "tuple"
        }
      ],
      "stateMutability": "view",
      "type": "function"
    }
  ],
  "bytecode": "0x6101006040526000805460ff191660031790553480156200001f57600080fd5b50604051620024b0380380620024b083398101604081905262000042916200009b565b606093841b6001600160601b031990811660805292841b831660a05260f09190911b6001600160f01b03191660c05290911b1660e052620000fe565b80516001600160a01b03811681146200009657600080fd5b919050565b60008060008060808587031215620000b1578384fd5b620000bc856200007e565b9350620000cc602086016200007e565b9250604085015161ffff81168114620000e3578283fd5b9150620000f3606086016200007e565b905092959194509250565b60805160601c60a05160601c60c05160f01c60e05160601c612357620001596000398061029b528061079c528061086b525080610253528061070c5250806102135280610400525080610277528061039552506123576000f3fe608060405234801561001057600080fd5b50600436106100df5760003560e01c80636c473aff1161008c578063be9d395e11610066578063be9d395e146101b1578063d633ad61146101c6578063e0cabadd146101ce578063ea455df9146101e1576100df565b80636c473aff1461017457806378d823f71461017c578063b71e0f7114610191576100df565b80635711c2a8116100bd5780635711c2a8146101375780635b056da5146101575780636348d2691461016c576100df565b80630f222e65146100e45780633fc18d4c1461010d57806347713b3914610122575b600080fd5b6100f76100f23660046118ae565b6101f4565b60405161010491906120d3565b60405180910390f35b610115610211565b6040516101049190611db7565b61012a610235565b604051610104919061213b565b61014a61014536600461199f565b61023e565b6040516101049190611e13565b61015f610251565b6040516101049190612102565b610115610275565b610115610299565b61018f61018a366004611b12565b6102bd565b005b6101a461019f366004611922565b6102cd565b604051610104919061204c565b6101b9610478565b6040516101049190611e0a565b61012a61049c565b6101a46101dc3660046119d2565b6104a5565b61014a6101ef36600461199f565b6104b9565b6101fc6115a8565b610208858585856104c4565b95945050505050565b7f000000000000000000000000000000000000000000000000000000000000000081565b60005460ff1681565b606061024982610625565b90505b919050565b7f000000000000000000000000000000000000000000000000000000000000000081565b7f000000000000000000000000000000000000000000000000000000000000000081565b7f000000000000000000000000000000000000000000000000000000000000000081565b6102c883838361070a565b505050565b6102d56115c7565b600082116102fe5760405162461bcd60e51b81526004016102f590612015565b60405180910390fd5b600080808080610310888a018a611bff565b9450945094509450945060006103288b8484876104c4565b60208101519091507fe8d23d927749ec8e512eb885679c2977d57068839d8cca1a85685dbbea0648f61461036e5760405162461bcd60e51b81526004016102f590611eed565b80516040820151600091610386919089908c9061094d565b905061039381878e61070a565b7f000000000000000000000000000000000000000000000000000000000000000073ffffffffffffffffffffffffffffffffffffffff16816060015173ffffffffffffffffffffffffffffffffffffffff1614156103fe576103f88160c00151610625565b60c08201525b7f000000000000000000000000000000000000000000000000000000000000000073ffffffffffffffffffffffffffffffffffffffff16816060015173ffffffffffffffffffffffffffffffffffffffff161415610469576104638160c00151610a43565b60c08201525b9b9a5050505050505050505050565b7fe8d23d927749ec8e512eb885679c2977d57068839d8cca1a85685dbbea0648f681565b60005460ff1690565b6104ad6115c7565b6102088585858561094d565b606061024982610a43565b6104cc6115a8565b81518451146104ed5760405162461bcd60e51b81526004016102f590611e48565b600082511161050e5760405162461bcd60e51b81526004016102f590611f81565b610516611605565b606060005b84518110156105a85784818151811061053057fe5b60200260200101519150818051906020012088146105605760405162461bcd60e51b81526004016102f590611eb6565b61058687828151811061056f57fe5b602002602001015161058084610aed565b90610b61565b925060018551038110156105a05761059d83610ccf565b97505b60010161051b565b5060006105b9600361058085610db8565b905060006105cf6105ca8389610b61565b610e44565b90506105d96115a8565b6105ea6105e583610ed6565b610ccf565b81526105fd6105e5600061058085610ed6565b602082015261061361060e83610ed6565b610f6c565b60408201529998505050505050505050565b6020810151606090600160ff82161415610703576000806000806000806000898060200190518101906106589190611c84565b9750975097509750975097509750506000815111156106fb57815160009015610682575060148201515b803b806106f85760008260405160200161069c9190611d87565b60408051601f19818403018152602083810183526000808552925191945091926106d4928f928f928f928f928f928f928b9201612149565b60408051601f198184030181529190529c5061024c9b505050505050505050505050565b50505b505050505050505b5090919050565b7f000000000000000000000000000000000000000000000000000000000000000061ffff16836020015161ffff16146107555760405162461bcd60e51b81526004016102f590611f24565b825160608401516040517fa466222200000000000000000000000000000000000000000000000000000000815260009273ffffffffffffffffffffffffffffffffffffffff7f0000000000000000000000000000000000000000000000000000000000000000169263a4662222926107d1929190600401612111565b60c06040518083038186803b1580156107e957600080fd5b505afa1580156107fd573d6000803e3d6000fd5b505050506040513d601f19601f820116820180604052508101906108219190611a74565b60a081015185516040517febfa08e900000000000000000000000000000000000000000000000000000000815292935060009273ffffffffffffffffffffffffffffffffffffffff7f0000000000000000000000000000000000000000000000000000000000000000169263ebfa08e9926108a0928990600401611dd8565b604080518083038186803b1580156108b757600080fd5b505afa1580156108cb573d6000803e3d6000fd5b505050506040513d601f19601f820116820180604052508101906108ef91906117c7565b9050828160200151146109145760405162461bcd60e51b81526004016102f590611e7f565b816020015167ffffffffffffffff16816000015110156109465760405162461bcd60e51b81526004016102f590611fb8565b5050505050565b6109556115c7565b602085015160608601516068870151858801607c0151919061097561161f565b61097f8189611065565b5061098f8160008c60888c61109f565b5060006109a7896109a186601c61115b565b9061115b565b90506109b161161f565b6109bb8183611065565b506109d760008d6109cd8d609c6111b8565b849291908661109f565b506040805160e08101825261ffff808e16825298909816602089015267ffffffffffffffff909416938701939093525073ffffffffffffffffffffffffffffffffffffffff9093166060850152915160808401525060a082018490525160c08201529050949350505050565b606060008083806020019051810190610a5c9190611a2f565b9150915060008083511115610a72575060148201515b73ffffffffffffffffffffffffffffffffffffffff8116610ae45760405161dead90600090610aa5908390602001611d87565b60405160208183030381529060405290508084604051602001610ac9929190611e26565b6040516020818303038152906040529550505050505061024c565b50929392505050565b610af5611605565b602082018051835160009190911a908015801590610b16575060c060ff8316105b15610b4557600192909201917fffffffffffffffffffffffffffffffffffffffffffffffffffffffffffffffff015b6040805180820190915290815260208101929092525092915050565b610b69611605565b610b7283611219565b610bad5760405162461bcd60e51b81526004018080602001828103825260218152602001806122e06021913960400191505060405180910390fd5b610bb683611253565b8210610c09576040805162461bcd60e51b815260206004820152601660248201527f524c50206974656d206f7574206f6620626f756e647300000000000000000000604482015290519081900360640190fd5b8251602084015190810190600090610c20906112ab565b60208601510190506000805b85811015610c4b57610c3d8361134a565b928301929150600101610c2c565b50610c558261134a565b9050828183011115610cae576040805162461bcd60e51b815260206004820152601160248201527f524c50206974656d206f766572666c6f77000000000000000000000000000000604482015290519081900360640190fd5b60405180604001604052808281526020018381525093505050505b92915050565b805160009015801590610ce457508151602110155b610d35576040805162461bcd60e51b815260206004820181905260248201527f524c504465636f64657220746f55696e7420696e76616c6964206c656e677468604482015290519081900360640190fd5b6000610d4483602001516112ab565b90508083600001511015610d895760405162461bcd60e51b81526004018080602001828103825260288152602001806122b86028913960400191505060405180910390fd5b825160208085015183018051928490039291831015610daf57826020036101000a820491505b50949350505050565b610dc0611605565b6000610dcf83602001516112ab565b60208401518451908201805192935060009290921a91908015801590610df8575060c060ff8416105b15610e2757600191909101907fffffffffffffffffffffffffffffffffffffffffffffffffffffffffffffffff015b604080518082019091529081526020810191909152949350505050565b610e4c611639565b610e5582611219565b610ea6576040805162461bcd60e51b815260206004820152601f60248201527f524c504465636f646572206974657261746f72206973206e6f74206c69737400604482015290519081900360640190fd5b6000610eb583602001516112ab565b60208085015160408051808201909152868152920190820152915050919050565b610ede611605565b610ee78261141f565b610f38576040805162461bcd60e51b815260206004820152601f60248201527f524c504465636f646572206974657261746f7220686173206e6f206e65787400604482015290519081900360640190fd5b60208201516000610f488261134a565b80830160209586015260408051808201909152908152938401919091525090919050565b8051606090610fac5760405162461bcd60e51b81526004018080602001828103825260218152602001806123016021913960400191505060405180910390fd5b6000610fbb83602001516112ab565b905080836000015110156110005760405162461bcd60e51b81526004018080602001828103825260288152602001806122b86028913960400191505060405180910390fd5b825181900360008167ffffffffffffffff8111801561101e57600080fd5b506040519080825280601f01601f191660200182016040528015611049576020820181803683370190505b5090506000816020019050610daf848760200151018285611434565b61106d61161f565b60208206156110825760208206602003820191505b506020828101829052604080518085526000815290920101905290565b6110a761161f565b856020015182860111156110d1576110d1866110c9886020015188860161149d565b6002026114b4565b6000808751805188602083010193508089870111156110f05788860182525b5050508484015b602084106111165780518252601f1990930192602091820191016110f7565b5181517fffffffffffffffffffffffffffffffffffffffffffffffffffffffffffffffff60208690036101000a01908116901991909116179052508495945050505050565b6000828211156111b2576040805162461bcd60e51b815260206004820152601e60248201527f536166654d6174683a207375627472616374696f6e206f766572666c6f770000604482015290519081900360640190fd5b50900390565b600082820183811015611212576040805162461bcd60e51b815260206004820152601b60248201527f536166654d6174683a206164646974696f6e206f766572666c6f770000000000604482015290519081900360640190fd5b9392505050565b805160009061122a5750600061024c565b6020820151805160001a9060c08210156112495760009250505061024c565b5060019392505050565b80516000906112645750600061024c565b60008061127484602001516112ab565b602085015185519181019250015b808210156112a2576112938261134a565b60019093019290910190611282565b50909392505050565b8051600090811a60808110156112c557600091505061024c565b60b88110806112e0575060c081108015906112e0575060f881105b156112ef57600191505061024c565b60c0811015611321577fffffffffffffffffffffffffffffffffffffffffffffffffffffffffffffff4a01905061024c565b7fffffffffffffffffffffffffffffffffffffffffffffffffffffffffffffff0a01905061024c565b80516000908190811a60808110156113655760019150611418565b60b8811015611398577fffffffffffffffffffffffffffffffffffffffffffffffffffffffffffffff8181019150611418565b60c08110156113c55760b78103600185019450806020036101000a85510460018201810193505050611418565b60f88110156113f8577fffffffffffffffffffffffffffffffffffffffffffffffffffffffffffffff4181019150611418565b60f78103600185019450806020036101000a855104600182018101935050505b5092915050565b80518051602091820151919092015191011190565b8061143e576102c8565b5b6020811061145e578251825260209283019290910190601f190161143f565b915181516020939093036101000a7fffffffffffffffffffffffffffffffffffffffffffffffffffffffffffffffff0180199091169216919091179052565b6000818311156114ae575081610cc9565b50919050565b81516114c08383611065565b506114cb83826114d1565b50505050565b6114d961161f565b611212838460000151518485516114ee61161f565b82518211156114fc57600080fd5b8460200151828501111561151e5761151e856110c9876020015187860161149d565b60008086518051876020830101935080888701111561153d5787860182525b505050602084015b602084106115645780518252601f199093019260209182019101611545565b5181517fffffffffffffffffffffffffffffffffffffffffffffffffffffffffffffffff60208690036101000a019081169019919091161790525083949350505050565b6040805160608082018352600080835260208301529181019190915290565b6040805160e08101825260008082526020820181905291810182905260608082018390526080820181905260a082019290925260c081019190915290565b604051806040016040528060008152602001600081525090565b604051806040016040528060608152602001600081525090565b604051806040016040528061164c611605565b8152602001600081525090565b803561024c8161226c565b805161024c8161226c565b600082601f83011261167f578081fd5b8135602061169461168f83612200565b6121dc565b82815281810190858301855b858110156116c9576116b7898684358b0101611730565b845292840192908401906001016116a0565b5090979650505050505050565b600082601f8301126116e6578081fd5b813560206116f661168f83612200565b8281528181019085830183850287018401881015611712578586fd5b855b858110156116c957813584529284019290840190600101611714565b600082601f830112611740578081fd5b813561174e61168f8261221e565b818152846020838601011115611762578283fd5b816020850160208301379081016020019190915292915050565b600082601f83011261178c578081fd5b815161179a61168f8261221e565b8181528460208386010111156117ae578283fd5b6117bf826020830160208701612240565b949350505050565b6000604082840312156117d8578081fd5b6040516040810181811067ffffffffffffffff821117156117f557fe5b604052825181526020928301519281019290925250919050565b600060c08284031215611820578081fd5b60405160c0810181811067ffffffffffffffff8211171561183d57fe5b8060405250809150825181526020830151602082015260408301516040820152606083015160608201526080830151608082015260a083015160a08201525092915050565b803561024c81612291565b805161024c81612291565b803561024c816122a1565b805161024c816122a1565b600080600080608085870312156118c3578384fd5b84359350602085013567ffffffffffffffff808211156118e1578485fd5b6118ed888389016116d6565b9450604087013593506060870135915080821115611909578283fd5b506119168782880161166f565b91505092959194509250565b60008060008060608587031215611937578182fd5b84359350602085013567ffffffffffffffff80821115611955578384fd5b818701915087601f830112611968578384fd5b813581811115611976578485fd5b886020828501011115611987578485fd5b95986020929092019750949560400135945092505050565b6000602082840312156119b0578081fd5b813567ffffffffffffffff8111156119c6578182fd5b6117bf84828501611730565b600080600080608085870312156119e7578182fd5b843567ffffffffffffffff8111156119fd578283fd5b611a0987828801611730565b9450506020850135611a1a81612291565b93969395505050506040820135916060013590565b60008060408385031215611a41578182fd5b825167ffffffffffffffff811115611a57578283fd5b611a638582860161177c565b925050602083015190509250929050565b600060c08284031215611a85578081fd5b60405160c0810181811067ffffffffffffffff82111715611aa257fe5b6040528251611ab081612291565b81526020830151611ac0816122a1565b60208201526040830151611ad38161226c565b6040820152611ae46060840161188d565b6060820152611af5608084016118a3565b6080820152611b0660a08401611664565b60a08201529392505050565b600080600060608486031215611b26578081fd5b833567ffffffffffffffff80821115611b3d578283fd5b9085019060e08288031215611b50578283fd5b611b5a60e06121dc565b611b6383611882565b8152611b7160208401611882565b6020820152611b8260408401611898565b6040820152611b9360608401611659565b6060820152608083013582811115611ba9578485fd5b611bb589828601611730565b60808301525060a083013560a082015260c083013582811115611bd6578485fd5b611be289828601611730565b60c083015250976020870135975060409096013595945050505050565b600080600080600060a08688031215611c16578283fd5b8535611c2181612291565b945060208601359350604086013567ffffffffffffffff80821115611c44578485fd5b611c5089838a0161166f565b94506060880135915080821115611c65578283fd5b50611c72888289016116d6565b95989497509295608001359392505050565b6000806000806000806000806101c0898b031215611ca0578586fd5b885160ff81168114611cb0578687fd5b80985050602089015196506040890151955060608901519450611cd68a60808b016117c7565b9350611ce58a60c08b0161180f565b925061018089015167ffffffffffffffff80821115611d02578384fd5b611d0e8c838d0161177c565b93506101a08b0151915080821115611d24578283fd5b50611d318b828c0161177c565b9150509295985092959890939650565b73ffffffffffffffffffffffffffffffffffffffff169052565b60008151808452611d73816020860160208601612240565b601f01601f19169290920160200192915050565b60609190911b7fffffffffffffffffffffffffffffffffffffffff00000000000000000000000016815260140190565b73ffffffffffffffffffffffffffffffffffffffff91909116815260200190565b73ffffffffffffffffffffffffffffffffffffffff93909316835261ffff919091166020830152604082015260600190565b90815260200190565b6000602082526112126020830184611d5b565b600060408252611e396040830185611d5b565b90508260208301529392505050565b6020808252601c908201527f50726f6f664c69623a20696e76616c69642070726f6f662073697a6500000000604082015260600190565b6020808252601e908201527f50726f6f664c69623a20696e76616c6964207265636569707420726f6f740000604082015260600190565b6020808252601a908201527f50726f6f664c69623a20696e76616c696420686173686c696e6b000000000000604082015260600190565b6020808252601f908201527f50726f6f664c69623a207061636b6574206e6f74207265636f676e697a656400604082015260600190565b60208082526026908201527f50726f6f664c69623a20696e76616c69642064657374696e6174696f6e20636860408201527f61696e2049440000000000000000000000000000000000000000000000000000606082015260800190565b6020808252601d908201527f50726f6f664c69623a2070726f6f662073697a65206d757374203e2030000000604082015260600190565b60208082526028908201527f50726f6f664c69623a206e6f7420656e6f75676820626c6f636b20636f6e666960408201527f726d6174696f6e73000000000000000000000000000000000000000000000000606082015260800190565b6020808252601e908201527f50726f6f664c69623a20696e76616c696420616464726573732073697a650000604082015260600190565b60006020825261ffff8084511660208401528060208501511660408401525067ffffffffffffffff604084015116606083015260608301516120916080840182611d41565b50608083015160e060a08401526120ac610100840182611d5b565b905060a084015160c084015260c0840151601f198483030160e08501526102088282611d5b565b600060208252825160208301526020830151604083015260408301516060808401526117bf6080840182611d5b565b61ffff91909116815260200190565b61ffff92909216825273ffffffffffffffffffffffffffffffffffffffff16602082015260400190565b60ff91909116815260200190565b60006101c060ff8b16835289602084015288604084015287606084015286516080840152602087015160a0840152855160c0840152602086015160e084015260408601516101008401526060860151610120840152608086015161014084015260a0860151610160840152806101808401526121c781840186611d5b565b90508281036101a08401526104698185611d5b565b60405181810167ffffffffffffffff811182821017156121f857fe5b604052919050565b600067ffffffffffffffff82111561221457fe5b5060209081020190565b600067ffffffffffffffff82111561223257fe5b50601f01601f191660200190565b60005b8381101561225b578181015183820152602001612243565b838111156114cb5750506000910152565b73ffffffffffffffffffffffffffffffffffffffff8116811461228e57600080fd5b50565b61ffff8116811461228e57600080fd5b67ffffffffffffffff8116811461228e57600080fdfe524c504465636f6465723a20696e76616c696420524c50206974656d206f66667365742073697a65524c504465636f646572206974657261746f72206973206e6f742061206c697374524c504465636f64657220746f427974657320696e76616c6964206c656e677468a264697066735822122082719a4980240c289846372288120d014d9177dc0df40b8425fcea32aabdc1f764736f6c63430007060033",
  "linkReferences": {},
  "deployedLinkReferences": {}
}